{
	"data": {
		"bytecode": {
			"linkReferences": {},
			"object": "60c06040523480156200001157600080fd5b506040516200607a3803806200607a8339818101604052810190620000379190620003b4565b60016000819055506200005f620000536200027c60201b60201c565b6200028460201b60201c565b7f8b73c3c69bb8fe3d512ecc4cf759cc79239f7b179b0ffacaa9a75d522b39400f7f5c2e51296adc65c422761a1ef052bfdfcda1c13890d56b8aaeeb9b358abfe8547fc89efdaa54c0f20c7adf612882df0950f5a951637e0307cdcb4c672f298b8bc64630604051602001620000da9594939291906200054f565b6040516020818303038152906040528051906020012060a0818152505085600360006101000a81548173ffffffffffffffffffffffffffffffffffffffff021916908373ffffffffffffffffffffffffffffffffffffffff16021790555084600460006101000a81548173ffffffffffffffffffffffffffffffffffffffff021916908373ffffffffffffffffffffffffffffffffffffffff16021790555083600560006101000a81548173ffffffffffffffffffffffffffffffffffffffff021916908373ffffffffffffffffffffffffffffffffffffffff16021790555082600660006101000a81548173ffffffffffffffffffffffffffffffffffffffff021916908373ffffffffffffffffffffffffffffffffffffffff1602179055508173ffffffffffffffffffffffffffffffffffffffff1660808173ffffffffffffffffffffffffffffffffffffffff168152505080600260006101000a81548173ffffffffffffffffffffffffffffffffffffffff021916908373ffffffffffffffffffffffffffffffffffffffff160217905550505050505050620005ac565b600033905090565b6000600160009054906101000a900473ffffffffffffffffffffffffffffffffffffffff16905081600160006101000a81548173ffffffffffffffffffffffffffffffffffffffff021916908373ffffffffffffffffffffffffffffffffffffffff1602179055508173ffffffffffffffffffffffffffffffffffffffff168173ffffffffffffffffffffffffffffffffffffffff167f8be0079c531659141344cd1fd0a4f28419497f9722a3daafe3b4186f6b6457e060405160405180910390a35050565b600080fd5b600073ffffffffffffffffffffffffffffffffffffffff82169050919050565b60006200037c826200034f565b9050919050565b6200038e816200036f565b81146200039a57600080fd5b50565b600081519050620003ae8162000383565b92915050565b60008060008060008060c08789031215620003d457620003d36200034a565b5b6000620003e489828a016200039d565b9650506020620003f789828a016200039d565b95505060406200040a89828a016200039d565b94505060606200041d89828a016200039d565b93505060806200043089828a016200039d565b92505060a06200044389828a016200039d565b9150509295509295509295565b6000819050919050565b6000819050919050565b6000819050919050565b60006200048f62000489620004838462000450565b62000464565b6200045a565b9050919050565b620004a1816200046e565b82525050565b6000819050919050565b6000620004d2620004cc620004c684620004a7565b62000464565b6200045a565b9050919050565b620004e481620004b1565b82525050565b6000819050919050565b6000620005156200050f6200050984620004ea565b62000464565b6200045a565b9050919050565b6200052781620004f4565b82525050565b62000538816200045a565b82525050565b62000549816200036f565b82525050565b600060a08201905062000566600083018862000496565b620005756020830187620004d9565b6200058460408301866200051c565b6200059360608301856200052d565b620005a260808301846200053e565b9695505050505050565b60805160a051615a706200060a600039600081816111e3015261245e015260008181610568015281816106a90152818161073c0152818161189f01528181612740015281816128840152818161292801526129ab0152615a706000f3fe6080604052600436106101405760003560e01c806393a4be75116100b6578063bc6bc0cd1161006f578063bc6bc0cd14610401578063c8f935091461042c578063ebf1decc14610455578063ee295d6214610480578063f2fde38b146104ab578063f4195742146104d457610140565b806393a4be75146103075780639bbc6d8814610330578063aa747d3a1461035b578063ad5c464814610384578063b4b634c6146103af578063b6cdf821146103d857610140565b806333bf61561161010857806333bf6156146102195780633644e5151461024457806346ea25521461026f578063715018a61461029a5780638b655ee0146102b15780638da5cb5b146102dc57610140565b8063076e571814610145578063146fce32146101615780632dd85ad91461018a5780632ef19e0d146101b357806331e27e27146101dc575b600080fd5b61015f600480360381019061015a9190613a09565b6104f0565b005b34801561016d57600080fd5b5061018860048036038101906101839190613a80565b610ac0565b005b34801561019657600080fd5b506101b160048036038101906101ac9190613b0b565b610c65565b005b3480156101bf57600080fd5b506101da60048036038101906101d59190613a09565b610d63565b005b3480156101e857600080fd5b5061020360048036038101906101fe9190613b38565b61116e565b6040516102109190613b93565b60405180910390f35b34801561022557600080fd5b5061022e6111d6565b60405161023b9190613be9565b60405180910390f35b34801561025057600080fd5b506102596111e1565b6040516102669190613c1d565b60405180910390f35b34801561027b57600080fd5b50610284611205565b6040516102919190613c97565b60405180910390f35b3480156102a657600080fd5b506102af61122b565b005b3480156102bd57600080fd5b506102c661123f565b6040516102d39190613cc1565b60405180910390f35b3480156102e857600080fd5b506102f1611265565b6040516102fe9190613cc1565b60405180910390f35b34801561031357600080fd5b5061032e60048036038101906103299190613a09565b61128f565b005b34801561033c57600080fd5b5061034561169e565b6040516103529190613cfd565b60405180910390f35b34801561036757600080fd5b50610382600480360381019061037d9190613d7d565b6116c4565b005b34801561039057600080fd5b5061039961189d565b6040516103a69190613cc1565b60405180910390f35b3480156103bb57600080fd5b506103d660048036038101906103d19190613b0b565b6118c1565b005b3480156103e457600080fd5b506103ff60048036038101906103fa9190613b0b565b6119bf565b005b34801561040d57600080fd5b50610416611abd565b6040516104239190613be9565b60405180910390f35b34801561043857600080fd5b50610453600480360381019061044e9190613b0b565b611ac8565b005b34801561046157600080fd5b5061046a611bc6565b6040516104779190613deb565b60405180910390f35b34801561048c57600080fd5b50610495611bec565b6040516104a29190613e27565b60405180910390f35b3480156104b757600080fd5b506104d260048036038101906104cd9190613b0b565b611c12565b005b6104ee60048036038101906104e99190613a09565b611c95565b005b6104f86120d6565b80600001602081019061050b9190613e6e565b801561052757508160000160208101906105259190613e6e565b155b610566576040517f08c379a000000000000000000000000000000000000000000000000000000000815260040161055d90613ef8565b60405180910390fd5b7f000000000000000000000000000000000000000000000000000000000000000073ffffffffffffffffffffffffffffffffffffffff168160e00160208101906105b09190613b0b565b73ffffffffffffffffffffffffffffffffffffffff1614610606576040517f08c379a00000000000000000000000000000000000000000000000000000000081526004016105fd90613f64565b60405180910390fd5b8160200160208101906106199190613b0b565b73ffffffffffffffffffffffffffffffffffffffff163373ffffffffffffffffffffffffffffffffffffffff1614610686576040517f08c379a000000000000000000000000000000000000000000000000000000000815260040161067d90613fd0565b60405180910390fd5b34826040013511156106f3576106ee33303485604001356106a7919061401f565b7f000000000000000000000000000000000000000000000000000000000000000073ffffffffffffffffffffffffffffffffffffffff16612125909392919063ffffffff16565b61073a565b34826040013514610739576040517f08c379a00000000000000000000000000000000000000000000000000000000081526004016107309061409f565b60405180910390fd5b5b7f000000000000000000000000000000000000000000000000000000000000000073ffffffffffffffffffffffffffffffffffffffff1663d0e30db0346040518263ffffffff1660e01b81526004016000604051808303818588803b1580156107a257600080fd5b505af11580156107b6573d6000803e3d6000fd5b505050505060006107d6828036038101906107d19190614303565b6121ae565b90506107e28282612246565b60008060008460c00160208101906107fa9190613b0b565b73ffffffffffffffffffffffffffffffffffffffff1663fceb5d6c87876040518363ffffffff1660e01b81526004016108349291906145f4565b606060405180830381865afa158015610851573d6000803e3d6000fd5b505050506040513d601f19601f820116820180604052508101906108759190614648565b925092509250826108bb576040517f08c379a00000000000000000000000000000000000000000000000000000000081526004016108b2906146e7565b60405180910390fd5b6001600860008760200160208101906108d49190613b0b565b73ffffffffffffffffffffffffffffffffffffffff1673ffffffffffffffffffffffffffffffffffffffff1681526020019081526020016000206000876101000135815260200190815260200160002060006101000a81548160ff0219169083151502179055506109828560c00160208101906109519190613b0b565b8660400160208101906109649190613b0b565b848860200160208101906109789190613b0b565b8a6040013561269f565b6109c58560400160208101906109989190613b0b565b8660200160208101906109ab9190613b0b565b8860200160208101906109be9190613b0b565b85856129f7565b8460c00160208101906109d89190613b0b565b73ffffffffffffffffffffffffffffffffffffffff16856020016020810190610a019190613b0b565b73ffffffffffffffffffffffffffffffffffffffff16876020016020810190610a2a9190613b0b565b73ffffffffffffffffffffffffffffffffffffffff167f50d3c79a72acf972e873ec1c16c55eecf26a8bb67b60b136dd0ca2e1c6565ad7878961010001358a60e0016020810190610a7b9190613b0b565b8b6040016020810190610a8e9190613b0b565b89898f60400135604051610aa89796959493929190614716565b60405180910390a450505050610abc612b81565b5050565b600760003373ffffffffffffffffffffffffffffffffffffffff1673ffffffffffffffffffffffffffffffffffffffff168152602001908152602001600020548111610b41576040517f08c379a0000000000000000000000000000000000000000000000000000000008152600401610b38906147ab565b60405180910390fd5b6207a120600760003373ffffffffffffffffffffffffffffffffffffffff1673ffffffffffffffffffffffffffffffffffffffff16815260200190815260200160002054610b8f91906147cb565b8110610bd0576040517f08c379a0000000000000000000000000000000000000000000000000000000008152600401610bc7906147ab565b60405180910390fd5b80600760003373ffffffffffffffffffffffffffffffffffffffff1673ffffffffffffffffffffffffffffffffffffffff168152602001908152602001600020819055503373ffffffffffffffffffffffffffffffffffffffff167f1e7178d84f0b0825c65795cd62e7972809ad3aac6917843aaec596161b2c0a9782604051610c5a91906147ff565b60405180910390a250565b610c6d612b8b565b600073ffffffffffffffffffffffffffffffffffffffff168173ffffffffffffffffffffffffffffffffffffffff1603610cdc576040517f08c379a0000000000000000000000000000000000000000000000000000000008152600401610cd390614866565b60405180910390fd5b80600660006101000a81548173ffffffffffffffffffffffffffffffffffffffff021916908373ffffffffffffffffffffffffffffffffffffffff1602179055508073ffffffffffffffffffffffffffffffffffffffff167fbb34fee0d3bb7c602ecfe1c8bed62b67a720f718e0eaf72246d3457fcb25be1760405160405180910390a250565b610d6b6120d6565b806000016020810190610d7e9190613e6e565b158015610d9a5750816000016020810190610d999190613e6e565b5b610dd9576040517f08c379a0000000000000000000000000000000000000000000000000000000008152600401610dd090613ef8565b60405180910390fd5b816020016020810190610dec9190613b0b565b73ffffffffffffffffffffffffffffffffffffffff163373ffffffffffffffffffffffffffffffffffffffff1614610e59576040517f08c379a0000000000000000000000000000000000000000000000000000000008152600401610e50906148d2565b60405180910390fd5b6000610e7482803603810190610e6f9190614303565b6121ae565b9050610e808282612246565b60008060008460c0016020810190610e989190613b0b565b73ffffffffffffffffffffffffffffffffffffffff16632789105787876040518363ffffffff1660e01b8152600401610ed29291906145f4565b606060405180830381865afa158015610eef573d6000803e3d6000fd5b505050506040513d601f19601f82011682018060405250810190610f139190614648565b92509250925082610f59576040517f08c379a0000000000000000000000000000000000000000000000000000000008152600401610f50906146e7565b60405180910390fd5b600160086000876020016020810190610f729190613b0b565b73ffffffffffffffffffffffffffffffffffffffff1673ffffffffffffffffffffffffffffffffffffffff1681526020019081526020016000206000876101000135815260200190815260200160002060006101000a81548160ff02191690831515021790555061100a856040016020810190610fef9190613b0b565b338760200160208101906110039190613b0b565b85856129f7565b6110738560c00160208101906110209190613b0b565b8660400160208101906110339190613b0b565b848860e00160208101906110479190613b0b565b89602001602081019061105a9190613b0b565b8b602001602081019061106d9190613b0b565b87612c09565b8460c00160208101906110869190613b0b565b73ffffffffffffffffffffffffffffffffffffffff168560200160208101906110af9190613b0b565b73ffffffffffffffffffffffffffffffffffffffff168760200160208101906110d89190613b0b565b73ffffffffffffffffffffffffffffffffffffffff167f8ce1a009c26eecc60e31b457e624e94f61c3d5f4149f76e8f43f73ebc27b9300878961010001358a60e00160208101906111299190613b0b565b8b604001602081019061113c9190613b0b565b89898f604001356040516111569796959493929190614716565b60405180910390a45050505061116a612b81565b5050565b6000600860008473ffffffffffffffffffffffffffffffffffffffff1673ffffffffffffffffffffffffffffffffffffffff168152602001908152602001600020600083815260200190815260200160002060009054906101000a900460ff16905092915050565b63d9b67a2660e01b81565b7f000000000000000000000000000000000000000000000000000000000000000081565b600660009054906101000a900473ffffffffffffffffffffffffffffffffffffffff1681565b611233612b8b565b61123d6000612ee9565b565b600260009054906101000a900473ffffffffffffffffffffffffffffffffffffffff1681565b6000600160009054906101000a900473ffffffffffffffffffffffffffffffffffffffff16905090565b6112976120d6565b8060000160208101906112aa9190613e6e565b80156112c657508160000160208101906112c49190613e6e565b155b611305576040517f08c379a00000000000000000000000000000000000000000000000000000000081526004016112fc90613ef8565b60405180910390fd5b8160200160208101906113189190613b0b565b73ffffffffffffffffffffffffffffffffffffffff163373ffffffffffffffffffffffffffffffffffffffff1614611385576040517f08c379a000000000000000000000000000000000000000000000000000000000815260040161137c906147ab565b60405180910390fd5b60006113a08280360381019061139b9190614303565b6121ae565b90506113ac8282612246565b60008060008460c00160208101906113c49190613b0b565b73ffffffffffffffffffffffffffffffffffffffff1663fceb5d6c87876040518363ffffffff1660e01b81526004016113fe9291906145f4565b606060405180830381865afa15801561141b573d6000803e3d6000fd5b505050506040513d601f19601f8201168201806040525081019061143f9190614648565b92509250925082611485576040517f08c379a000000000000000000000000000000000000000000000000000000000815260040161147c906146e7565b60405180910390fd5b60016008600087602001602081019061149e9190613b0b565b73ffffffffffffffffffffffffffffffffffffffff1673ffffffffffffffffffffffffffffffffffffffff1681526020019081526020016000206000876101000135815260200190815260200160002060006101000a81548160ff0219169083151502179055506115608560c001602081019061151b9190613b0b565b86604001602081019061152e9190613b0b565b848860e00160208101906115429190613b0b565b338a60200160208101906115569190613b0b565b8c60400135612c09565b6115a38560400160208101906115769190613b0b565b8660200160208101906115899190613b0b565b88602001602081019061159c9190613b0b565b85856129f7565b8460c00160208101906115b69190613b0b565b73ffffffffffffffffffffffffffffffffffffffff168560200160208101906115df9190613b0b565b73ffffffffffffffffffffffffffffffffffffffff168760200160208101906116089190613b0b565b73ffffffffffffffffffffffffffffffffffffffff167f50d3c79a72acf972e873ec1c16c55eecf26a8bb67b60b136dd0ca2e1c6565ad7878961010001358a60e00160208101906116599190613b0b565b8b604001602081019061166c9190613b0b565b89898f604001356040516116869796959493929190614716565b60405180910390a45050505061169a612b81565b5050565b600360009054906101000a900473ffffffffffffffffffffffffffffffffffffffff1681565b6000828290501161170a576040517f08c379a00000000000000000000000000000000000000000000000000000000081526004016117019061493e565b60405180910390fd5b60005b8282905081101561184857600760003373ffffffffffffffffffffffffffffffffffffffff1673ffffffffffffffffffffffffffffffffffffffff1681526020019081526020016000205483838381811061176b5761176a61495e565b5b9050602002013510156117b3576040517f08c379a00000000000000000000000000000000000000000000000000000000081526004016117aa906149d9565b60405180910390fd5b6001600860003373ffffffffffffffffffffffffffffffffffffffff1673ffffffffffffffffffffffffffffffffffffffff16815260200190815260200160002060008585858181106118095761180861495e565b5b90506020020135815260200190815260200160002060006101000a81548160ff0219169083151502179055508080611840906149f9565b91505061170d565b503373ffffffffffffffffffffffffffffffffffffffff167ffa0ae5d80fe3763c880a3839fab0294171a6f730d1f82c4cd5392c6f67b417328383604051611891929190614abc565b60405180910390a25050565b7f000000000000000000000000000000000000000000000000000000000000000081565b6118c9612b8b565b600073ffffffffffffffffffffffffffffffffffffffff168173ffffffffffffffffffffffffffffffffffffffff1603611938576040517f08c379a000000000000000000000000000000000000000000000000000000000815260040161192f90614866565b60405180910390fd5b80600360006101000a81548173ffffffffffffffffffffffffffffffffffffffff021916908373ffffffffffffffffffffffffffffffffffffffff1602179055508073ffffffffffffffffffffffffffffffffffffffff167f2c3e29f8b5d22d1cfa8497a6c45621ed49f95178416c7ef3ee1c2193c8812eb460405160405180910390a250565b6119c7612b8b565b600073ffffffffffffffffffffffffffffffffffffffff168173ffffffffffffffffffffffffffffffffffffffff1603611a36576040517f08c379a0000000000000000000000000000000000000000000000000000000008152600401611a2d90614866565b60405180910390fd5b80600460006101000a81548173ffffffffffffffffffffffffffffffffffffffff021916908373ffffffffffffffffffffffffffffffffffffffff1602179055508073ffffffffffffffffffffffffffffffffffffffff167f418a3785ac5fd0d0b92e92d1e814233310678c13b024a3741d41c6db3c803fc360405160405180910390a250565b6380ac58cd60e01b81565b611ad0612b8b565b600073ffffffffffffffffffffffffffffffffffffffff168173ffffffffffffffffffffffffffffffffffffffff1603611b3f576040517f08c379a0000000000000000000000000000000000000000000000000000000008152600401611b3690614866565b60405180910390fd5b80600560006101000a81548173ffffffffffffffffffffffffffffffffffffffff021916908373ffffffffffffffffffffffffffffffffffffffff1602179055508073ffffffffffffffffffffffffffffffffffffffff167f23e4135208439ee9f05d104daf57025ac32a6842326405d76852f0434085e93360405160405180910390a250565b600460009054906101000a900473ffffffffffffffffffffffffffffffffffffffff1681565b600560009054906101000a900473ffffffffffffffffffffffffffffffffffffffff1681565b611c1a612b8b565b600073ffffffffffffffffffffffffffffffffffffffff168173ffffffffffffffffffffffffffffffffffffffff1603611c89576040517f08c379a0000000000000000000000000000000000000000000000000000000008152600401611c8090614b52565b60405180910390fd5b611c9281612ee9565b50565b611c9d6120d6565b806000016020810190611cb09190613e6e565b8015611ccc5750816000016020810190611cca9190613e6e565b155b611d0b576040517f08c379a0000000000000000000000000000000000000000000000000000000008152600401611d0290613ef8565b60405180910390fd5b816020016020810190611d1e9190613b0b565b73ffffffffffffffffffffffffffffffffffffffff163373ffffffffffffffffffffffffffffffffffffffff1614611d8b576040517f08c379a0000000000000000000000000000000000000000000000000000000008152600401611d8290613fd0565b60405180910390fd5b34826040013514611dd1576040517f08c379a0000000000000000000000000000000000000000000000000000000008152600401611dc890614bbe565b60405180910390fd5b6000611dec82803603810190611de79190614303565b6121ae565b9050611df88282612246565b60008060008460c0016020810190611e109190613b0b565b73ffffffffffffffffffffffffffffffffffffffff1663fceb5d6c87876040518363ffffffff1660e01b8152600401611e4a9291906145f4565b606060405180830381865afa158015611e67573d6000803e3d6000fd5b505050506040513d601f19601f82011682018060405250810190611e8b9190614648565b92509250925082611ed1576040517f08c379a0000000000000000000000000000000000000000000000000000000008152600401611ec8906146e7565b60405180910390fd5b600160086000876020016020810190611eea9190613b0b565b73ffffffffffffffffffffffffffffffffffffffff1673ffffffffffffffffffffffffffffffffffffffff1681526020019081526020016000206000876101000135815260200190815260200160002060006101000a81548160ff021916908315150217905550611f988560c0016020810190611f679190613b0b565b866040016020810190611f7a9190613b0b565b84886020016020810190611f8e9190613b0b565b8a60400135612faf565b611fdb856040016020810190611fae9190613b0b565b866020016020810190611fc19190613b0b565b886020016020810190611fd49190613b0b565b85856129f7565b8460c0016020810190611fee9190613b0b565b73ffffffffffffffffffffffffffffffffffffffff168560200160208101906120179190613b0b565b73ffffffffffffffffffffffffffffffffffffffff168760200160208101906120409190613b0b565b73ffffffffffffffffffffffffffffffffffffffff167f50d3c79a72acf972e873ec1c16c55eecf26a8bb67b60b136dd0ca2e1c6565ad7878961010001358a60e00160208101906120919190613b0b565b8b60400160208101906120a49190613b0b565b89898f604001356040516120be9796959493929190614716565b60405180910390a4505050506120d2612b81565b5050565b60026000540361211b576040517f08c379a000000000000000000000000000000000000000000000000000000000815260040161211290614c2a565b60405180910390fd5b6002600081905550565b6121a8846323b872dd60e01b85858560405160240161214693929190614c4a565b604051602081830303815290604052907bffffffffffffffffffffffffffffffffffffffffffffffffffffffff19166020820180517bffffffffffffffffffffffffffffffffffffffffffffffffffffffff8381831617835250505050613227565b50505050565b60007f821b23108860b2262fa623d45a26073021dcb49a4ad5e89488e070794630832a60001b826000015183602001518460400151856060015186608001518760a001518860c001518960e001518a61010001518b61012001518c61014001516040516020016122299c9b9a99989796959493929190614c81565b604051602081830303815290604052805190602001209050919050565b6008600083602001602081019061225d9190613b0b565b73ffffffffffffffffffffffffffffffffffffffff1673ffffffffffffffffffffffffffffffffffffffff1681526020019081526020016000206000836101000135815260200190815260200160002060009054906101000a900460ff1615801561231e5750600760008360200160208101906122da9190613b0b565b73ffffffffffffffffffffffffffffffffffffffff1673ffffffffffffffffffffffffffffffffffffffff1681526020019081526020016000205482610100013510155b61235d576040517f08c379a000000000000000000000000000000000000000000000000000000000815260040161235490614d87565b60405180910390fd5b600073ffffffffffffffffffffffffffffffffffffffff168260200160208101906123889190613b0b565b73ffffffffffffffffffffffffffffffffffffffff16036123de576040517f08c379a00000000000000000000000000000000000000000000000000000000081526004016123d590614df3565b60405180910390fd5b6000826080013511612425576040517f08c379a000000000000000000000000000000000000000000000000000000000815260040161241c90614e5f565b60405180910390fd5b6124828183602001602081019061243c9190613b0b565b846101600160208101906124509190614e7f565b856101800135866101a001357f00000000000000000000000000000000000000000000000000000000000000006132ee565b6124c1576040517f08c379a00000000000000000000000000000000000000000000000000000000081526004016124b890614ef8565b60405180910390fd5b600360009054906101000a900473ffffffffffffffffffffffffffffffffffffffff1673ffffffffffffffffffffffffffffffffffffffff1663b5af090f8360e00160208101906125129190613b0b565b6040518263ffffffff1660e01b815260040161252e9190613cc1565b602060405180830381865afa15801561254b573d6000803e3d6000fd5b505050506040513d601f19601f8201168201806040525081019061256f9190614f18565b6125ae576040517f08c379a00000000000000000000000000000000000000000000000000000000081526004016125a590614f91565b60405180910390fd5b600460009054906101000a900473ffffffffffffffffffffffffffffffffffffffff1673ffffffffffffffffffffffffffffffffffffffff16639387bbd48360c00160208101906125ff9190613b0b565b6040518263ffffffff1660e01b815260040161261b9190613cc1565b602060405180830381865afa158015612638573d6000803e3d6000fd5b505050506040513d601f19601f8201168201806040525081019061265c9190614f18565b61269b576040517f08c379a000000000000000000000000000000000000000000000000000000000815260040161269290614f91565b60405180910390fd5b5050565b600081905060006126b08784613441565b9050600073ffffffffffffffffffffffffffffffffffffffff16600260009054906101000a900473ffffffffffffffffffffffffffffffffffffffff1673ffffffffffffffffffffffffffffffffffffffff1614158015612712575060008114155b1561279357612784600260009054906101000a900473ffffffffffffffffffffffffffffffffffffffff16827f000000000000000000000000000000000000000000000000000000000000000073ffffffffffffffffffffffffffffffffffffffff166134d79092919063ffffffff16565b8082612790919061401f565b91505b50600080600560009054906101000a900473ffffffffffffffffffffffffffffffffffffffff1673ffffffffffffffffffffffffffffffffffffffff166340e7b5408888876040518463ffffffff1660e01b81526004016127f693929190614fb1565b6040805180830381865afa158015612812573d6000803e3d6000fd5b505050506040513d601f19601f820116820180604052508101906128369190614ffd565b91509150600073ffffffffffffffffffffffffffffffffffffffff168273ffffffffffffffffffffffffffffffffffffffff1614158015612878575060008114155b1561295f576128c882827f000000000000000000000000000000000000000000000000000000000000000073ffffffffffffffffffffffffffffffffffffffff166134d79092919063ffffffff16565b80836128d4919061401f565b92508173ffffffffffffffffffffffffffffffffffffffff16868873ffffffffffffffffffffffffffffffffffffffff167f27c4f0403323142b599832f26acd21c74a9e5b809f2215726e244a4ac588cd7d7f00000000000000000000000000000000000000000000000000000000000000008560405161295692919061503d565b60405180910390a45b5050600081116129a4576040517f08c379a000000000000000000000000000000000000000000000000000000000815260040161299b906150d8565b60405180910390fd5b6129ef83827f000000000000000000000000000000000000000000000000000000000000000073ffffffffffffffffffffffffffffffffffffffff166134d79092919063ffffffff16565b505050505050565b6000600660009054906101000a900473ffffffffffffffffffffffffffffffffffffffff1673ffffffffffffffffffffffffffffffffffffffff166315f04966876040518263ffffffff1660e01b8152600401612a549190613cc1565b602060405180830381865afa158015612a71573d6000803e3d6000fd5b505050506040513d601f19601f82011682018060405250810190612a9591906150f8565b9050600073ffffffffffffffffffffffffffffffffffffffff168173ffffffffffffffffffffffffffffffffffffffff1603612b06576040517f08c379a0000000000000000000000000000000000000000000000000000000008152600401612afd90615171565b60405180910390fd5b8073ffffffffffffffffffffffffffffffffffffffff166310f0211387878787876040518663ffffffff1660e01b8152600401612b47959493929190615191565b600060405180830381600087803b158015612b6157600080fd5b505af1158015612b75573d6000803e3d6000fd5b50505050505050505050565b6001600081905550565b612b9361355d565b73ffffffffffffffffffffffffffffffffffffffff16612bb1611265565b73ffffffffffffffffffffffffffffffffffffffff1614612c07576040517f08c379a0000000000000000000000000000000000000000000000000000000008152600401612bfe90615230565b60405180910390fd5b565b60008190506000612c1a8984613441565b9050600073ffffffffffffffffffffffffffffffffffffffff16600260009054906101000a900473ffffffffffffffffffffffffffffffffffffffff1673ffffffffffffffffffffffffffffffffffffffff1614158015612c7c575060008114155b15612cdf57612cd085600260009054906101000a900473ffffffffffffffffffffffffffffffffffffffff16838973ffffffffffffffffffffffffffffffffffffffff16612125909392919063ffffffff16565b8082612cdc919061401f565b91505b50600080600560009054906101000a900473ffffffffffffffffffffffffffffffffffffffff1673ffffffffffffffffffffffffffffffffffffffff166340e7b5408a8a876040518463ffffffff1660e01b8152600401612d4293929190614fb1565b6040805180830381865afa158015612d5e573d6000803e3d6000fd5b505050506040513d601f19601f82011682018060405250810190612d829190614ffd565b91509150600073ffffffffffffffffffffffffffffffffffffffff168273ffffffffffffffffffffffffffffffffffffffff1614158015612dc4575060008114155b15612e6d57612df68683838a73ffffffffffffffffffffffffffffffffffffffff16612125909392919063ffffffff16565b8083612e02919061401f565b92508173ffffffffffffffffffffffffffffffffffffffff16888a73ffffffffffffffffffffffffffffffffffffffff167f27c4f0403323142b599832f26acd21c74a9e5b809f2215726e244a4ac588cd7d8a85604051612e6492919061503d565b60405180910390a45b505060008111612eb2576040517f08c379a0000000000000000000000000000000000000000000000000000000008152600401612ea9906150d8565b60405180910390fd5b612edf8484838873ffffffffffffffffffffffffffffffffffffffff16612125909392919063ffffffff16565b5050505050505050565b6000600160009054906101000a900473ffffffffffffffffffffffffffffffffffffffff16905081600160006101000a81548173ffffffffffffffffffffffffffffffffffffffff021916908373ffffffffffffffffffffffffffffffffffffffff1602179055508173ffffffffffffffffffffffffffffffffffffffff168173ffffffffffffffffffffffffffffffffffffffff167f8be0079c531659141344cd1fd0a4f28419497f9722a3daafe3b4186f6b6457e060405160405180910390a35050565b60008190506000612fc08784613441565b9050600073ffffffffffffffffffffffffffffffffffffffff16600260009054906101000a900473ffffffffffffffffffffffffffffffffffffffff1673ffffffffffffffffffffffffffffffffffffffff1614158015613022575060008114155b1561306357613054600260009054906101000a900473ffffffffffffffffffffffffffffffffffffffff168284613565565b8082613060919061401f565b91505b50600080600560009054906101000a900473ffffffffffffffffffffffffffffffffffffffff1673ffffffffffffffffffffffffffffffffffffffff166340e7b5408888876040518463ffffffff1660e01b81526004016130c693929190614fb1565b6040805180830381865afa1580156130e2573d6000803e3d6000fd5b505050506040513d601f19601f820116820180604052508101906131069190614ffd565b91509150600073ffffffffffffffffffffffffffffffffffffffff168273ffffffffffffffffffffffffffffffffffffffff1614158015613148575060008114155b156131cf57613158828285613565565b8083613164919061401f565b92508173ffffffffffffffffffffffffffffffffffffffff16868873ffffffffffffffffffffffffffffffffffffffff167f27c4f0403323142b599832f26acd21c74a9e5b809f2215726e244a4ac588cd7d30856040516131c692919061503d565b60405180910390a45b505060008111613214576040517f08c379a000000000000000000000000000000000000000000000000000000000815260040161320b906150d8565b60405180910390fd5b61321f838283613565565b505050505050565b6000613289826040518060400160405280602081526020017f5361666545524332303a206c6f772d6c6576656c2063616c6c206661696c65648152508573ffffffffffffffffffffffffffffffffffffffff1661365a9092919063ffffffff16565b90506000815111156132e957808060200190518101906132a99190614f18565b6132e8576040517f08c379a00000000000000000000000000000000000000000000000000000000081526004016132df906152c2565b60405180910390fd5b5b505050565b600080828860405160200161330492919061535a565b60405160208183030381529060405280519060200120905061332587613672565b156133f957631626ba7e60e01b8773ffffffffffffffffffffffffffffffffffffffff16631626ba7e8388888b604051602001613364939291906153c7565b6040516020818303038152906040526040518363ffffffff1660e01b8152600401613390929190615483565b602060405180830381865afa1580156133ad573d6000803e3d6000fd5b505050506040513d601f19601f820116820180604052508101906133d191906154df565b7bffffffffffffffffffffffffffffffffffffffffffffffffffffffff191614915050613437565b8673ffffffffffffffffffffffffffffffffffffffff1661341c82888888613695565b73ffffffffffffffffffffffffffffffffffffffff16149150505b9695505050505050565b6000808373ffffffffffffffffffffffffffffffffffffffff16639dd1cda66040518163ffffffff1660e01b8152600401602060405180830381865afa15801561348f573d6000803e3d6000fd5b505050506040513d601f19601f820116820180604052508101906134b3919061550c565b905061271083826134c49190615539565b6134ce91906155aa565b91505092915050565b6135588363a9059cbb60e01b84846040516024016134f692919061503d565b604051602081830303815290604052907bffffffffffffffffffffffffffffffffffffffffffffffffffffffff19166020820180517bffffffffffffffffffffffffffffffffffffffffffffffffffffffff8381831617835250505050613227565b505050565b600033905090565b818110156135a8576040517f08c379a000000000000000000000000000000000000000000000000000000000815260040161359f90615627565b60405180910390fd5b60008373ffffffffffffffffffffffffffffffffffffffff16836040516135ce90615675565b60006040518083038185875af1925050503d806000811461360b576040519150601f19603f3d011682016040523d82523d6000602084013e613610565b606091505b5050905080613654576040517f08c379a000000000000000000000000000000000000000000000000000000000815260040161364b906156d6565b60405180910390fd5b50505050565b6060613669848460008561381f565b90509392505050565b6000808273ffffffffffffffffffffffffffffffffffffffff163b119050919050565b60007f7fffffffffffffffffffffffffffffff5d576e7357a4501ddfe92f46681b20a08260001c11156136fd576040517f08c379a00000000000000000000000000000000000000000000000000000000081526004016136f490615742565b60405180910390fd5b601b8460ff1614806137125750601c8460ff16145b613751576040517f08c379a0000000000000000000000000000000000000000000000000000000008152600401613748906157ae565b60405180910390fd5b60006001868686866040516000815260200160405260405161377694939291906157dd565b6020604051602081039080840390855afa158015613798573d6000803e3d6000fd5b505050602060405103519050600073ffffffffffffffffffffffffffffffffffffffff168173ffffffffffffffffffffffffffffffffffffffff1603613813576040517f08c379a000000000000000000000000000000000000000000000000000000000815260040161380a9061586e565b60405180910390fd5b80915050949350505050565b606082471015613864576040517f08c379a000000000000000000000000000000000000000000000000000000000815260040161385b90615900565b60405180910390fd5b6000808673ffffffffffffffffffffffffffffffffffffffff16858760405161388d9190615951565b60006040518083038185875af1925050503d80600081146138ca576040519150601f19603f3d011682016040523d82523d6000602084013e6138cf565b606091505b50915091506138e0878383876138ec565b92505050949350505050565b6060831561394e5760008351036139465761390685613672565b613945576040517f08c379a000000000000000000000000000000000000000000000000000000000815260040161393c906159b4565b60405180910390fd5b5b829050613959565b6139588383613961565b5b949350505050565b6000825111156139745781518083602001fd5b806040517f08c379a00000000000000000000000000000000000000000000000000000000081526004016139a89190615a18565b60405180910390fd5b6000604051905090565b600080fd5b600080fd5b600080fd5b6000608082840312156139e0576139df6139c5565b5b81905092915050565b60006101c08284031215613a00576139ff6139c5565b5b81905092915050565b6000806102408385031215613a2157613a206139bb565b5b6000613a2f858286016139ca565b9250506080613a40858286016139e9565b9150509250929050565b6000819050919050565b613a5d81613a4a565b8114613a6857600080fd5b50565b600081359050613a7a81613a54565b92915050565b600060208284031215613a9657613a956139bb565b5b6000613aa484828501613a6b565b91505092915050565b600073ffffffffffffffffffffffffffffffffffffffff82169050919050565b6000613ad882613aad565b9050919050565b613ae881613acd565b8114613af357600080fd5b50565b600081359050613b0581613adf565b92915050565b600060208284031215613b2157613b206139bb565b5b6000613b2f84828501613af6565b91505092915050565b60008060408385031215613b4f57613b4e6139bb565b5b6000613b5d85828601613af6565b9250506020613b6e85828601613a6b565b9150509250929050565b60008115159050919050565b613b8d81613b78565b82525050565b6000602082019050613ba86000830184613b84565b92915050565b60007fffffffff0000000000000000000000000000000000000000000000000000000082169050919050565b613be381613bae565b82525050565b6000602082019050613bfe6000830184613bda565b92915050565b6000819050919050565b613c1781613c04565b82525050565b6000602082019050613c326000830184613c0e565b92915050565b6000819050919050565b6000613c5d613c58613c5384613aad565b613c38565b613aad565b9050919050565b6000613c6f82613c42565b9050919050565b6000613c8182613c64565b9050919050565b613c9181613c76565b82525050565b6000602082019050613cac6000830184613c88565b92915050565b613cbb81613acd565b82525050565b6000602082019050613cd66000830184613cb2565b92915050565b6000613ce782613c64565b9050919050565b613cf781613cdc565b82525050565b6000602082019050613d126000830184613cee565b92915050565b600080fd5b600080fd5b600080fd5b60008083601f840112613d3d57613d3c613d18565b5b8235905067ffffffffffffffff811115613d5a57613d59613d1d565b5b602083019150836020820283011115613d7657613d75613d22565b5b9250929050565b60008060208385031215613d9457613d936139bb565b5b600083013567ffffffffffffffff811115613db257613db16139c0565b5b613dbe85828601613d27565b92509250509250929050565b6000613dd582613c64565b9050919050565b613de581613dca565b82525050565b6000602082019050613e006000830184613ddc565b92915050565b6000613e1182613c64565b9050919050565b613e2181613e06565b82525050565b6000602082019050613e3c6000830184613e18565b92915050565b613e4b81613b78565b8114613e5657600080fd5b50565b600081359050613e6881613e42565b92915050565b600060208284031215613e8457613e836139bb565b5b6000613e9284828501613e59565b91505092915050565b600082825260208201905092915050565b7f54686174206973207468652077726f6e6720617070726f6163682e0000000000600082015250565b6000613ee2601b83613e9b565b9150613eed82613eac565b602082019050919050565b60006020820190508181036000830152613f1181613ed5565b9050919050565b7f556e737570706f7274656420746f6b656e2e0000000000000000000000000000600082015250565b6000613f4e601283613e9b565b9150613f5982613f18565b602082019050919050565b60006020820190508181036000830152613f7d81613f41565b9050919050565b7f436c69656e74206d7573742062652073656e6465720000000000000000000000600082015250565b6000613fba601583613e9b565b9150613fc582613f84565b602082019050919050565b60006020820190508181036000830152613fe981613fad565b9050919050565b7f4e487b7100000000000000000000000000000000000000000000000000000000600052601160045260246000fd5b600061402a82613a4a565b915061403583613a4a565b925082820390508181111561404d5761404c613ff0565b5b92915050565b7f546f6f204869676820436f696e00000000000000000000000000000000000000600082015250565b6000614089600d83613e9b565b915061409482614053565b602082019050919050565b600060208201905081810360008301526140b88161407c565b9050919050565b600080fd5b6000601f19601f8301169050919050565b7f4e487b7100000000000000000000000000000000000000000000000000000000600052604160045260246000fd5b61410d826140c4565b810181811067ffffffffffffffff8211171561412c5761412b6140d5565b5b80604052505050565b600061413f6139b1565b905061414b8282614104565b919050565b600060ff82169050919050565b61416681614150565b811461417157600080fd5b50565b6000813590506141838161415d565b92915050565b61419281613c04565b811461419d57600080fd5b50565b6000813590506141af81614189565b92915050565b60006101c082840312156141cc576141cb6140bf565b5b6141d76101c0614135565b905060006141e784828501613e59565b60008301525060206141fb84828501613af6565b602083015250604061420f84828501613af6565b604083015250606061422384828501613a6b565b606083015250608061423784828501613a6b565b60808301525060a061424b84828501613a6b565b60a08301525060c061425f84828501613af6565b60c08301525060e061427384828501613af6565b60e08301525061010061428884828501613a6b565b6101008301525061012061429e84828501613a6b565b610120830152506101406142b484828501613a6b565b610140830152506101606142ca84828501614174565b610160830152506101806142e0848285016141a0565b610180830152506101a06142f6848285016141a0565b6101a08301525092915050565b60006101c0828403121561431a576143196139bb565b5b6000614328848285016141b5565b91505092915050565b60006143406020840184613e59565b905092915050565b61435181613b78565b82525050565b60006143666020840184613af6565b905092915050565b61437781613acd565b82525050565b600061438c6020840184613a6b565b905092915050565b61439d81613a4a565b82525050565b608082016143b46000830183614331565b6143c16000850182614348565b506143cf6020830183614357565b6143dc602085018261436e565b506143ea604083018361437d565b6143f76040850182614394565b50614405606083018361437d565b6144126060850182614394565b50505050565b60006144276020840184614174565b905092915050565b61443881614150565b82525050565b600061444d60208401846141a0565b905092915050565b61445e81613c04565b82525050565b6101c082016144766000830183614331565b6144836000850182614348565b506144916020830183614357565b61449e602085018261436e565b506144ac6040830183614357565b6144b9604085018261436e565b506144c7606083018361437d565b6144d46060850182614394565b506144e2608083018361437d565b6144ef6080850182614394565b506144fd60a083018361437d565b61450a60a0850182614394565b5061451860c0830183614357565b61452560c085018261436e565b5061453360e0830183614357565b61454060e085018261436e565b5061454f61010083018361437d565b61455d610100850182614394565b5061456c61012083018361437d565b61457a610120850182614394565b5061458961014083018361437d565b614597610140850182614394565b506145a6610160830183614418565b6145b461016085018261442f565b506145c361018083018361443e565b6145d1610180850182614455565b506145e06101a083018361443e565b6145ee6101a0850182614455565b50505050565b60006102408201905061460a60008301856143a3565b6146176080830184614464565b9392505050565b60008151905061462d81613e42565b92915050565b60008151905061464281613a54565b92915050565b600080600060608486031215614661576146606139bb565b5b600061466f8682870161461e565b935050602061468086828701614633565b925050604061469186828701614633565b9150509250925092565b7f496e76616c6964205472616465204e6674000000000000000000000000000000600082015250565b60006146d1601183613e9b565b91506146dc8261469b565b602082019050919050565b60006020820190508181036000830152614700816146c4565b9050919050565b61471081613a4a565b82525050565b600060e08201905061472b600083018a613c0e565b6147386020830189614707565b6147456040830188613cb2565b6147526060830187613cb2565b61475f6080830186614707565b61476c60a0830185614707565b61477960c0830184614707565b98975050505050505050565b50565b6000614795600083613e9b565b91506147a082614785565b600082019050919050565b600060208201905081810360008301526147c481614788565b9050919050565b60006147d682613a4a565b91506147e183613a4a565b92508282019050808211156147f9576147f8613ff0565b5b92915050565b60006020820190506148146000830184614707565b92915050565b7f43616e6e6f74206265206e756c6c206164647265737300000000000000000000600082015250565b6000614850601683613e9b565b915061485b8261481a565b602082019050919050565b6000602082019050818103600083015261487f81614843565b9050919050565b7f54616b6572206d7573742062652073656e646572000000000000000000000000600082015250565b60006148bc601483613e9b565b91506148c782614886565b602082019050919050565b600060208201905081810360008301526148eb816148af565b9050919050565b7f4174206c65617374206f6e652069732072657175697265642e00000000000000600082015250565b6000614928601983613e9b565b9150614933826148f2565b602082019050919050565b600060208201905081810360008301526149578161491b565b9050919050565b7f4e487b7100000000000000000000000000000000000000000000000000000000600052603260045260246000fd5b7f4e6f6e6365206c6f776572207468616e2063757272656e740000000000000000600082015250565b60006149c3601883613e9b565b91506149ce8261498d565b602082019050919050565b600060208201905081810360008301526149f2816149b6565b9050919050565b6000614a0482613a4a565b91507fffffffffffffffffffffffffffffffffffffffffffffffffffffffffffffffff8203614a3657614a35613ff0565b5b600182019050919050565b600082825260208201905092915050565b600080fd5b82818337505050565b6000614a6c8385614a41565b93507f07ffffffffffffffffffffffffffffffffffffffffffffffffffffffffffffff831115614a9f57614a9e614a52565b5b602083029250614ab0838584614a57565b82840190509392505050565b60006020820190508181036000830152614ad7818486614a60565b90509392505050565b7f4f776e61626c653a206e6577206f776e657220697320746865207a65726f206160008201527f6464726573730000000000000000000000000000000000000000000000000000602082015250565b6000614b3c602683613e9b565b9150614b4782614ae0565b604082019050919050565b60006020820190508181036000830152614b6b81614b2f565b9050919050565b7f546f6f2048696768202f204c6f7720436f696e00000000000000000000000000600082015250565b6000614ba8601383613e9b565b9150614bb382614b72565b602082019050919050565b60006020820190508181036000830152614bd781614b9b565b9050919050565b7f5265656e7472616e637947756172643a207265656e7472616e742063616c6c00600082015250565b6000614c14601f83613e9b565b9150614c1f82614bde565b602082019050919050565b60006020820190508181036000830152614c4381614c07565b9050919050565b6000606082019050614c5f6000830186613cb2565b614c6c6020830185613cb2565b614c796040830184614707565b949350505050565b600061018082019050614c97600083018f613c0e565b614ca4602083018e613b84565b614cb1604083018d613cb2565b614cbe606083018c613cb2565b614ccb608083018b614707565b614cd860a083018a614707565b614ce560c0830189614707565b614cf260e0830188613cb2565b614d00610100830187613cb2565b614d0e610120830186614707565b614d1c610140830185614707565b614d2a610160830184614707565b9d9c50505050505050505050505050565b7f4564656d2073696e676572206e6f742076616c6964206f722065787069726564600082015250565b6000614d71602083613e9b565b9150614d7c82614d3b565b602082019050919050565b60006020820190508181036000830152614da081614d64565b9050919050565b7f496e76616c6964207369676e6572000000000000000000000000000000000000600082015250565b6000614ddd600e83613e9b565b9150614de882614da7565b602082019050919050565b60006020820190508181036000830152614e0c81614dd0565b9050919050565b7f4e667420616d6f756e74206d7573742062652031206f72202b00000000000000600082015250565b6000614e49601983613e9b565b9150614e5482614e13565b602082019050919050565b60006020820190508181036000830152614e7881614e3c565b9050919050565b600060208284031215614e9557614e946139bb565b5b6000614ea384828501614174565b91505092915050565b7f5369676e4861736820496e76616c696420746f20766572696679210000000000600082015250565b6000614ee2601b83613e9b565b9150614eed82614eac565b602082019050919050565b60006020820190508181036000830152614f1181614ed5565b9050919050565b600060208284031215614f2e57614f2d6139bb565b5b6000614f3c8482850161461e565b91505092915050565b7f4e6f7420617574686f72697a65642e0000000000000000000000000000000000600082015250565b6000614f7b600f83613e9b565b9150614f8682614f45565b602082019050919050565b60006020820190508181036000830152614faa81614f6e565b9050919050565b6000606082019050614fc66000830186613cb2565b614fd36020830185614707565b614fe06040830184614707565b949350505050565b600081519050614ff781613adf565b92915050565b60008060408385031215615014576150136139bb565b5b600061502285828601614fe8565b925050602061503385828601614633565b9150509250929050565b60006040820190506150526000830185613cb2565b61505f6020830184614707565b9392505050565b7f5468652066656520697320746f6f206869676820746f2063686172676520616e60008201527f797468696e672e00000000000000000000000000000000000000000000000000602082015250565b60006150c2602783613e9b565b91506150cd82615066565b604082019050919050565b600060208201905081810360008301526150f1816150b5565b9050919050565b60006020828403121561510e5761510d6139bb565b5b600061511c84828501614fe8565b91505092915050565b7f526571756972657320726567697374726174696f6e0000000000000000000000600082015250565b600061515b601583613e9b565b915061516682615125565b602082019050919050565b6000602082019050818103600083015261518a8161514e565b9050919050565b600060a0820190506151a66000830188613cb2565b6151b36020830187613cb2565b6151c06040830186613cb2565b6151cd6060830185614707565b6151da6080830184614707565b9695505050505050565b7f4f776e61626c653a2063616c6c6572206973206e6f7420746865206f776e6572600082015250565b600061521a602083613e9b565b9150615225826151e4565b602082019050919050565b600060208201905081810360008301526152498161520d565b9050919050565b7f5361666545524332303a204552433230206f7065726174696f6e20646964206e60008201527f6f74207375636365656400000000000000000000000000000000000000000000602082015250565b60006152ac602a83613e9b565b91506152b782615250565b604082019050919050565b600060208201905081810360008301526152db8161529f565b9050919050565b600081905092915050565b7f1901000000000000000000000000000000000000000000000000000000000000600082015250565b60006153236002836152e2565b915061532e826152ed565b600282019050919050565b6000819050919050565b61535461534f82613c04565b615339565b82525050565b600061536582615316565b91506153718285615343565b6020820191506153818284615343565b6020820191508190509392505050565b60008160f81b9050919050565b60006153a982615391565b9050919050565b6153c16153bc82614150565b61539e565b82525050565b60006153d38286615343565b6020820191506153e38285615343565b6020820191506153f382846153b0565b600182019150819050949350505050565b600081519050919050565b600082825260208201905092915050565b60005b8381101561543e578082015181840152602081019050615423565b60008484015250505050565b600061545582615404565b61545f818561540f565b935061546f818560208601615420565b615478816140c4565b840191505092915050565b60006040820190506154986000830185613c0e565b81810360208301526154aa818461544a565b90509392505050565b6154bc81613bae565b81146154c757600080fd5b50565b6000815190506154d9816154b3565b92915050565b6000602082840312156154f5576154f46139bb565b5b6000615503848285016154ca565b91505092915050565b600060208284031215615522576155216139bb565b5b600061553084828501614633565b91505092915050565b600061554482613a4a565b915061554f83613a4a565b925082820261555d81613a4a565b9150828204841483151761557457615573613ff0565b5b5092915050565b7f4e487b7100000000000000000000000000000000000000000000000000000000600052601260045260246000fd5b60006155b582613a4a565b91506155c083613a4a565b9250826155d0576155cf61557b565b5b828204905092915050565b7f7472616e736665723a2062616c616e6365206973206e6f7420656e6f75676800600082015250565b6000615611601f83613e9b565b915061561c826155db565b602082019050919050565b6000602082019050818103600083015261564081615604565b9050919050565b600081905092915050565b600061565f600083615647565b915061566a82614785565b600082019050919050565b600061568082615652565b9150819050919050565b7f7472616e736665723a20756e61626c6520746f2073656e642076616c75650000600082015250565b60006156c0601e83613e9b565b91506156cb8261568a565b602082019050919050565b600060208201905081810360008301526156ef816156b3565b9050919050565b7f5369676e61747572653a20496e76616c6964207320706172616d657465720000600082015250565b600061572c601e83613e9b565b9150615737826156f6565b602082019050919050565b6000602082019050818103600083015261575b8161571f565b9050919050565b7f5369676e61747572653a20496e76616c6964207620706172616d657465720000600082015250565b6000615798601e83613e9b565b91506157a382615762565b602082019050919050565b600060208201905081810360008301526157c78161578b565b9050919050565b6157d781614150565b82525050565b60006080820190506157f26000830187613c0e565b6157ff60208301866157ce565b61580c6040830185613c0e565b6158196060830184613c0e565b95945050505050565b7f5369676e61747572653a20496e76616c6964207369676e657200000000000000600082015250565b6000615858601983613e9b565b915061586382615822565b602082019050919050565b600060208201905081810360008301526158878161584b565b9050919050565b7f416464726573733a20696e73756666696369656e742062616c616e636520666f60008201527f722063616c6c0000000000000000000000000000000000000000000000000000602082015250565b60006158ea602683613e9b565b91506158f58261588e565b604082019050919050565b60006020820190508181036000830152615919816158dd565b9050919050565b600061592b82615404565b6159358185615647565b9350615945818560208601615420565b80840191505092915050565b600061595d8284615920565b915081905092915050565b7f416464726573733a2063616c6c20746f206e6f6e2d636f6e7472616374000000600082015250565b600061599e601d83613e9b565b91506159a982615968565b602082019050919050565b600060208201905081810360008301526159cd81615991565b9050919050565b600081519050919050565b60006159ea826159d4565b6159f48185613e9b565b9350615a04818560208601615420565b615a0d816140c4565b840191505092915050565b60006020820190508181036000830152615a3281846159df565b90509291505056fea2646970667358221220817a7ee7233dbdee477440245c51f30a81669daa6d084025a41b8fde99fd683364736f6c63430008130033",
			"opcodes": "PUSH1 0xC0 PUSH1 0x40 MSTORE CALLVALUE DUP1 ISZERO PUSH3 0x11 JUMPI PUSH1 0x0 DUP1 REVERT JUMPDEST POP PUSH1 0x40 MLOAD PUSH3 0x607A CODESIZE SUB DUP1 PUSH3 0x607A DUP4 CODECOPY DUP2 DUP2 ADD PUSH1 0x40 MSTORE DUP2 ADD SWAP1 PUSH3 0x37 SWAP2 SWAP1 PUSH3 0x3B4 JUMP JUMPDEST PUSH1 0x1 PUSH1 0x0 DUP2 SWAP1 SSTORE POP PUSH3 0x5F PUSH3 0x53 PUSH3 0x27C PUSH1 0x20 SHL PUSH1 0x20 SHR JUMP JUMPDEST PUSH3 0x284 PUSH1 0x20 SHL PUSH1 0x20 SHR JUMP JUMPDEST PUSH32 0x8B73C3C69BB8FE3D512ECC4CF759CC79239F7B179B0FFACAA9A75D522B39400F PUSH32 0x5C2E51296ADC65C422761A1EF052BFDFCDA1C13890D56B8AAEEB9B358ABFE854 PUSH32 0xC89EFDAA54C0F20C7ADF612882DF0950F5A951637E0307CDCB4C672F298B8BC6 CHAINID ADDRESS PUSH1 0x40 MLOAD PUSH1 0x20 ADD PUSH3 0xDA SWAP6 SWAP5 SWAP4 SWAP3 SWAP2 SWAP1 PUSH3 0x54F JUMP JUMPDEST PUSH1 0x40 MLOAD PUSH1 0x20 DUP2 DUP4 SUB SUB DUP2 MSTORE SWAP1 PUSH1 0x40 MSTORE DUP1 MLOAD SWAP1 PUSH1 0x20 ADD KECCAK256 PUSH1 0xA0 DUP2 DUP2 MSTORE POP POP DUP6 PUSH1 0x3 PUSH1 0x0 PUSH2 0x100 EXP DUP2 SLOAD DUP2 PUSH20 0xFFFFFFFFFFFFFFFFFFFFFFFFFFFFFFFFFFFFFFFF MUL NOT AND SWAP1 DUP4 PUSH20 0xFFFFFFFFFFFFFFFFFFFFFFFFFFFFFFFFFFFFFFFF AND MUL OR SWAP1 SSTORE POP DUP5 PUSH1 0x4 PUSH1 0x0 PUSH2 0x100 EXP DUP2 SLOAD DUP2 PUSH20 0xFFFFFFFFFFFFFFFFFFFFFFFFFFFFFFFFFFFFFFFF MUL NOT AND SWAP1 DUP4 PUSH20 0xFFFFFFFFFFFFFFFFFFFFFFFFFFFFFFFFFFFFFFFF AND MUL OR SWAP1 SSTORE POP DUP4 PUSH1 0x5 PUSH1 0x0 PUSH2 0x100 EXP DUP2 SLOAD DUP2 PUSH20 0xFFFFFFFFFFFFFFFFFFFFFFFFFFFFFFFFFFFFFFFF MUL NOT AND SWAP1 DUP4 PUSH20 0xFFFFFFFFFFFFFFFFFFFFFFFFFFFFFFFFFFFFFFFF AND MUL OR SWAP1 SSTORE POP DUP3 PUSH1 0x6 PUSH1 0x0 PUSH2 0x100 EXP DUP2 SLOAD DUP2 PUSH20 0xFFFFFFFFFFFFFFFFFFFFFFFFFFFFFFFFFFFFFFFF MUL NOT AND SWAP1 DUP4 PUSH20 0xFFFFFFFFFFFFFFFFFFFFFFFFFFFFFFFFFFFFFFFF AND MUL OR SWAP1 SSTORE POP DUP2 PUSH20 0xFFFFFFFFFFFFFFFFFFFFFFFFFFFFFFFFFFFFFFFF AND PUSH1 0x80 DUP2 PUSH20 0xFFFFFFFFFFFFFFFFFFFFFFFFFFFFFFFFFFFFFFFF AND DUP2 MSTORE POP POP DUP1 PUSH1 0x2 PUSH1 0x0 PUSH2 0x100 EXP DUP2 SLOAD DUP2 PUSH20 0xFFFFFFFFFFFFFFFFFFFFFFFFFFFFFFFFFFFFFFFF MUL NOT AND SWAP1 DUP4 PUSH20 0xFFFFFFFFFFFFFFFFFFFFFFFFFFFFFFFFFFFFFFFF AND MUL OR SWAP1 SSTORE POP POP POP POP POP POP POP PUSH3 0x5AC JUMP JUMPDEST PUSH1 0x0 CALLER SWAP1 POP SWAP1 JUMP JUMPDEST PUSH1 0x0 PUSH1 0x1 PUSH1 0x0 SWAP1 SLOAD SWAP1 PUSH2 0x100 EXP SWAP1 DIV PUSH20 0xFFFFFFFFFFFFFFFFFFFFFFFFFFFFFFFFFFFFFFFF AND SWAP1 POP DUP2 PUSH1 0x1 PUSH1 0x0 PUSH2 0x100 EXP DUP2 SLOAD DUP2 PUSH20 0xFFFFFFFFFFFFFFFFFFFFFFFFFFFFFFFFFFFFFFFF MUL NOT AND SWAP1 DUP4 PUSH20 0xFFFFFFFFFFFFFFFFFFFFFFFFFFFFFFFFFFFFFFFF AND MUL OR SWAP1 SSTORE POP DUP2 PUSH20 0xFFFFFFFFFFFFFFFFFFFFFFFFFFFFFFFFFFFFFFFF AND DUP2 PUSH20 0xFFFFFFFFFFFFFFFFFFFFFFFFFFFFFFFFFFFFFFFF AND PUSH32 0x8BE0079C531659141344CD1FD0A4F28419497F9722A3DAAFE3B4186F6B6457E0 PUSH1 0x40 MLOAD PUSH1 0x40 MLOAD DUP1 SWAP2 SUB SWAP1 LOG3 POP POP JUMP JUMPDEST PUSH1 0x0 DUP1 REVERT JUMPDEST PUSH1 0x0 PUSH20 0xFFFFFFFFFFFFFFFFFFFFFFFFFFFFFFFFFFFFFFFF DUP3 AND SWAP1 POP SWAP2 SWAP1 POP JUMP JUMPDEST PUSH1 0x0 PUSH3 0x37C DUP3 PUSH3 0x34F JUMP JUMPDEST SWAP1 POP SWAP2 SWAP1 POP JUMP JUMPDEST PUSH3 0x38E DUP2 PUSH3 0x36F JUMP JUMPDEST DUP2 EQ PUSH3 0x39A JUMPI PUSH1 0x0 DUP1 REVERT JUMPDEST POP JUMP JUMPDEST PUSH1 0x0 DUP2 MLOAD SWAP1 POP PUSH3 0x3AE DUP2 PUSH3 0x383 JUMP JUMPDEST SWAP3 SWAP2 POP POP JUMP JUMPDEST PUSH1 0x0 DUP1 PUSH1 0x0 DUP1 PUSH1 0x0 DUP1 PUSH1 0xC0 DUP8 DUP10 SUB SLT ISZERO PUSH3 0x3D4 JUMPI PUSH3 0x3D3 PUSH3 0x34A JUMP JUMPDEST JUMPDEST PUSH1 0x0 PUSH3 0x3E4 DUP10 DUP3 DUP11 ADD PUSH3 0x39D JUMP JUMPDEST SWAP7 POP POP PUSH1 0x20 PUSH3 0x3F7 DUP10 DUP3 DUP11 ADD PUSH3 0x39D JUMP JUMPDEST SWAP6 POP POP PUSH1 0x40 PUSH3 0x40A DUP10 DUP3 DUP11 ADD PUSH3 0x39D JUMP JUMPDEST SWAP5 POP POP PUSH1 0x60 PUSH3 0x41D DUP10 DUP3 DUP11 ADD PUSH3 0x39D JUMP JUMPDEST SWAP4 POP POP PUSH1 0x80 PUSH3 0x430 DUP10 DUP3 DUP11 ADD PUSH3 0x39D JUMP JUMPDEST SWAP3 POP POP PUSH1 0xA0 PUSH3 0x443 DUP10 DUP3 DUP11 ADD PUSH3 0x39D JUMP JUMPDEST SWAP2 POP POP SWAP3 SWAP6 POP SWAP3 SWAP6 POP SWAP3 SWAP6 JUMP JUMPDEST PUSH1 0x0 DUP2 SWAP1 POP SWAP2 SWAP1 POP JUMP JUMPDEST PUSH1 0x0 DUP2 SWAP1 POP SWAP2 SWAP1 POP JUMP JUMPDEST PUSH1 0x0 DUP2 SWAP1 POP SWAP2 SWAP1 POP JUMP JUMPDEST PUSH1 0x0 PUSH3 0x48F PUSH3 0x489 PUSH3 0x483 DUP5 PUSH3 0x450 JUMP JUMPDEST PUSH3 0x464 JUMP JUMPDEST PUSH3 0x45A JUMP JUMPDEST SWAP1 POP SWAP2 SWAP1 POP JUMP JUMPDEST PUSH3 0x4A1 DUP2 PUSH3 0x46E JUMP JUMPDEST DUP3 MSTORE POP POP JUMP JUMPDEST PUSH1 0x0 DUP2 SWAP1 POP SWAP2 SWAP1 POP JUMP JUMPDEST PUSH1 0x0 PUSH3 0x4D2 PUSH3 0x4CC PUSH3 0x4C6 DUP5 PUSH3 0x4A7 JUMP JUMPDEST PUSH3 0x464 JUMP JUMPDEST PUSH3 0x45A JUMP JUMPDEST SWAP1 POP SWAP2 SWAP1 POP JUMP JUMPDEST PUSH3 0x4E4 DUP2 PUSH3 0x4B1 JUMP JUMPDEST DUP3 MSTORE POP POP JUMP JUMPDEST PUSH1 0x0 DUP2 SWAP1 POP SWAP2 SWAP1 POP JUMP JUMPDEST PUSH1 0x0 PUSH3 0x515 PUSH3 0x50F PUSH3 0x509 DUP5 PUSH3 0x4EA JUMP JUMPDEST PUSH3 0x464 JUMP JUMPDEST PUSH3 0x45A JUMP JUMPDEST SWAP1 POP SWAP2 SWAP1 POP JUMP JUMPDEST PUSH3 0x527 DUP2 PUSH3 0x4F4 JUMP JUMPDEST DUP3 MSTORE POP POP JUMP JUMPDEST PUSH3 0x538 DUP2 PUSH3 0x45A JUMP JUMPDEST DUP3 MSTORE POP POP JUMP JUMPDEST PUSH3 0x549 DUP2 PUSH3 0x36F JUMP JUMPDEST DUP3 MSTORE POP POP JUMP JUMPDEST PUSH1 0x0 PUSH1 0xA0 DUP3 ADD SWAP1 POP PUSH3 0x566 PUSH1 0x0 DUP4 ADD DUP9 PUSH3 0x496 JUMP JUMPDEST PUSH3 0x575 PUSH1 0x20 DUP4 ADD DUP8 PUSH3 0x4D9 JUMP JUMPDEST PUSH3 0x584 PUSH1 0x40 DUP4 ADD DUP7 PUSH3 0x51C JUMP JUMPDEST PUSH3 0x593 PUSH1 0x60 DUP4 ADD DUP6 PUSH3 0x52D JUMP JUMPDEST PUSH3 0x5A2 PUSH1 0x80 DUP4 ADD DUP5 PUSH3 0x53E JUMP JUMPDEST SWAP7 SWAP6 POP POP POP POP POP POP JUMP JUMPDEST PUSH1 0x80 MLOAD PUSH1 0xA0 MLOAD PUSH2 0x5A70 PUSH3 0x60A PUSH1 0x0 CODECOPY PUSH1 0x0 DUP2 DUP2 PUSH2 0x11E3 ADD MSTORE PUSH2 0x245E ADD MSTORE PUSH1 0x0 DUP2 DUP2 PUSH2 0x568 ADD MSTORE DUP2 DUP2 PUSH2 0x6A9 ADD MSTORE DUP2 DUP2 PUSH2 0x73C ADD MSTORE DUP2 DUP2 PUSH2 0x189F ADD MSTORE DUP2 DUP2 PUSH2 0x2740 ADD MSTORE DUP2 DUP2 PUSH2 0x2884 ADD MSTORE DUP2 DUP2 PUSH2 0x2928 ADD MSTORE PUSH2 0x29AB ADD MSTORE PUSH2 0x5A70 PUSH1 0x0 RETURN INVALID PUSH1 0x80 PUSH1 0x40 MSTORE PUSH1 0x4 CALLDATASIZE LT PUSH2 0x140 JUMPI PUSH1 0x0 CALLDATALOAD PUSH1 0xE0 SHR DUP1 PUSH4 0x93A4BE75 GT PUSH2 0xB6 JUMPI DUP1 PUSH4 0xBC6BC0CD GT PUSH2 0x6F JUMPI DUP1 PUSH4 0xBC6BC0CD EQ PUSH2 0x401 JUMPI DUP1 PUSH4 0xC8F93509 EQ PUSH2 0x42C JUMPI DUP1 PUSH4 0xEBF1DECC EQ PUSH2 0x455 JUMPI DUP1 PUSH4 0xEE295D62 EQ PUSH2 0x480 JUMPI DUP1 PUSH4 0xF2FDE38B EQ PUSH2 0x4AB JUMPI DUP1 PUSH4 0xF4195742 EQ PUSH2 0x4D4 JUMPI PUSH2 0x140 JUMP JUMPDEST DUP1 PUSH4 0x93A4BE75 EQ PUSH2 0x307 JUMPI DUP1 PUSH4 0x9BBC6D88 EQ PUSH2 0x330 JUMPI DUP1 PUSH4 0xAA747D3A EQ PUSH2 0x35B JUMPI DUP1 PUSH4 0xAD5C4648 EQ PUSH2 0x384 JUMPI DUP1 PUSH4 0xB4B634C6 EQ PUSH2 0x3AF JUMPI DUP1 PUSH4 0xB6CDF821 EQ PUSH2 0x3D8 JUMPI PUSH2 0x140 JUMP JUMPDEST DUP1 PUSH4 0x33BF6156 GT PUSH2 0x108 JUMPI DUP1 PUSH4 0x33BF6156 EQ PUSH2 0x219 JUMPI DUP1 PUSH4 0x3644E515 EQ PUSH2 0x244 JUMPI DUP1 PUSH4 0x46EA2552 EQ PUSH2 0x26F JUMPI DUP1 PUSH4 0x715018A6 EQ PUSH2 0x29A JUMPI DUP1 PUSH4 0x8B655EE0 EQ PUSH2 0x2B1 JUMPI DUP1 PUSH4 0x8DA5CB5B EQ PUSH2 0x2DC JUMPI PUSH2 0x140 JUMP JUMPDEST DUP1 PUSH4 0x76E5718 EQ PUSH2 0x145 JUMPI DUP1 PUSH4 0x146FCE32 EQ PUSH2 0x161 JUMPI DUP1 PUSH4 0x2DD85AD9 EQ PUSH2 0x18A JUMPI DUP1 PUSH4 0x2EF19E0D EQ PUSH2 0x1B3 JUMPI DUP1 PUSH4 0x31E27E27 EQ PUSH2 0x1DC JUMPI JUMPDEST PUSH1 0x0 DUP1 REVERT JUMPDEST PUSH2 0x15F PUSH1 0x4 DUP1 CALLDATASIZE SUB DUP2 ADD SWAP1 PUSH2 0x15A SWAP2 SWAP1 PUSH2 0x3A09 JUMP JUMPDEST PUSH2 0x4F0 JUMP JUMPDEST STOP JUMPDEST CALLVALUE DUP1 ISZERO PUSH2 0x16D JUMPI PUSH1 0x0 DUP1 REVERT JUMPDEST POP PUSH2 0x188 PUSH1 0x4 DUP1 CALLDATASIZE SUB DUP2 ADD SWAP1 PUSH2 0x183 SWAP2 SWAP1 PUSH2 0x3A80 JUMP JUMPDEST PUSH2 0xAC0 JUMP JUMPDEST STOP JUMPDEST CALLVALUE DUP1 ISZERO PUSH2 0x196 JUMPI PUSH1 0x0 DUP1 REVERT JUMPDEST POP PUSH2 0x1B1 PUSH1 0x4 DUP1 CALLDATASIZE SUB DUP2 ADD SWAP1 PUSH2 0x1AC SWAP2 SWAP1 PUSH2 0x3B0B JUMP JUMPDEST PUSH2 0xC65 JUMP JUMPDEST STOP JUMPDEST CALLVALUE DUP1 ISZERO PUSH2 0x1BF JUMPI PUSH1 0x0 DUP1 REVERT JUMPDEST POP PUSH2 0x1DA PUSH1 0x4 DUP1 CALLDATASIZE SUB DUP2 ADD SWAP1 PUSH2 0x1D5 SWAP2 SWAP1 PUSH2 0x3A09 JUMP JUMPDEST PUSH2 0xD63 JUMP JUMPDEST STOP JUMPDEST CALLVALUE DUP1 ISZERO PUSH2 0x1E8 JUMPI PUSH1 0x0 DUP1 REVERT JUMPDEST POP PUSH2 0x203 PUSH1 0x4 DUP1 CALLDATASIZE SUB DUP2 ADD SWAP1 PUSH2 0x1FE SWAP2 SWAP1 PUSH2 0x3B38 JUMP JUMPDEST PUSH2 0x116E JUMP JUMPDEST PUSH1 0x40 MLOAD PUSH2 0x210 SWAP2 SWAP1 PUSH2 0x3B93 JUMP JUMPDEST PUSH1 0x40 MLOAD DUP1 SWAP2 SUB SWAP1 RETURN JUMPDEST CALLVALUE DUP1 ISZERO PUSH2 0x225 JUMPI PUSH1 0x0 DUP1 REVERT JUMPDEST POP PUSH2 0x22E PUSH2 0x11D6 JUMP JUMPDEST PUSH1 0x40 MLOAD PUSH2 0x23B SWAP2 SWAP1 PUSH2 0x3BE9 JUMP JUMPDEST PUSH1 0x40 MLOAD DUP1 SWAP2 SUB SWAP1 RETURN JUMPDEST CALLVALUE DUP1 ISZERO PUSH2 0x250 JUMPI PUSH1 0x0 DUP1 REVERT JUMPDEST POP PUSH2 0x259 PUSH2 0x11E1 JUMP JUMPDEST PUSH1 0x40 MLOAD PUSH2 0x266 SWAP2 SWAP1 PUSH2 0x3C1D JUMP JUMPDEST PUSH1 0x40 MLOAD DUP1 SWAP2 SUB SWAP1 RETURN JUMPDEST CALLVALUE DUP1 ISZERO PUSH2 0x27B JUMPI PUSH1 0x0 DUP1 REVERT JUMPDEST POP PUSH2 0x284 PUSH2 0x1205 JUMP JUMPDEST PUSH1 0x40 MLOAD PUSH2 0x291 SWAP2 SWAP1 PUSH2 0x3C97 JUMP JUMPDEST PUSH1 0x40 MLOAD DUP1 SWAP2 SUB SWAP1 RETURN JUMPDEST CALLVALUE DUP1 ISZERO PUSH2 0x2A6 JUMPI PUSH1 0x0 DUP1 REVERT JUMPDEST POP PUSH2 0x2AF PUSH2 0x122B JUMP JUMPDEST STOP JUMPDEST CALLVALUE DUP1 ISZERO PUSH2 0x2BD JUMPI PUSH1 0x0 DUP1 REVERT JUMPDEST POP PUSH2 0x2C6 PUSH2 0x123F JUMP JUMPDEST PUSH1 0x40 MLOAD PUSH2 0x2D3 SWAP2 SWAP1 PUSH2 0x3CC1 JUMP JUMPDEST PUSH1 0x40 MLOAD DUP1 SWAP2 SUB SWAP1 RETURN JUMPDEST CALLVALUE DUP1 ISZERO PUSH2 0x2E8 JUMPI PUSH1 0x0 DUP1 REVERT JUMPDEST POP PUSH2 0x2F1 PUSH2 0x1265 JUMP JUMPDEST PUSH1 0x40 MLOAD PUSH2 0x2FE SWAP2 SWAP1 PUSH2 0x3CC1 JUMP JUMPDEST PUSH1 0x40 MLOAD DUP1 SWAP2 SUB SWAP1 RETURN JUMPDEST CALLVALUE DUP1 ISZERO PUSH2 0x313 JUMPI PUSH1 0x0 DUP1 REVERT JUMPDEST POP PUSH2 0x32E PUSH1 0x4 DUP1 CALLDATASIZE SUB DUP2 ADD SWAP1 PUSH2 0x329 SWAP2 SWAP1 PUSH2 0x3A09 JUMP JUMPDEST PUSH2 0x128F JUMP JUMPDEST STOP JUMPDEST CALLVALUE DUP1 ISZERO PUSH2 0x33C JUMPI PUSH1 0x0 DUP1 REVERT JUMPDEST POP PUSH2 0x345 PUSH2 0x169E JUMP JUMPDEST PUSH1 0x40 MLOAD PUSH2 0x352 SWAP2 SWAP1 PUSH2 0x3CFD JUMP JUMPDEST PUSH1 0x40 MLOAD DUP1 SWAP2 SUB SWAP1 RETURN JUMPDEST CALLVALUE DUP1 ISZERO PUSH2 0x367 JUMPI PUSH1 0x0 DUP1 REVERT JUMPDEST POP PUSH2 0x382 PUSH1 0x4 DUP1 CALLDATASIZE SUB DUP2 ADD SWAP1 PUSH2 0x37D SWAP2 SWAP1 PUSH2 0x3D7D JUMP JUMPDEST PUSH2 0x16C4 JUMP JUMPDEST STOP JUMPDEST CALLVALUE DUP1 ISZERO PUSH2 0x390 JUMPI PUSH1 0x0 DUP1 REVERT JUMPDEST POP PUSH2 0x399 PUSH2 0x189D JUMP JUMPDEST PUSH1 0x40 MLOAD PUSH2 0x3A6 SWAP2 SWAP1 PUSH2 0x3CC1 JUMP JUMPDEST PUSH1 0x40 MLOAD DUP1 SWAP2 SUB SWAP1 RETURN JUMPDEST CALLVALUE DUP1 ISZERO PUSH2 0x3BB JUMPI PUSH1 0x0 DUP1 REVERT JUMPDEST POP PUSH2 0x3D6 PUSH1 0x4 DUP1 CALLDATASIZE SUB DUP2 ADD SWAP1 PUSH2 0x3D1 SWAP2 SWAP1 PUSH2 0x3B0B JUMP JUMPDEST PUSH2 0x18C1 JUMP JUMPDEST STOP JUMPDEST CALLVALUE DUP1 ISZERO PUSH2 0x3E4 JUMPI PUSH1 0x0 DUP1 REVERT JUMPDEST POP PUSH2 0x3FF PUSH1 0x4 DUP1 CALLDATASIZE SUB DUP2 ADD SWAP1 PUSH2 0x3FA SWAP2 SWAP1 PUSH2 0x3B0B JUMP JUMPDEST PUSH2 0x19BF JUMP JUMPDEST STOP JUMPDEST CALLVALUE DUP1 ISZERO PUSH2 0x40D JUMPI PUSH1 0x0 DUP1 REVERT JUMPDEST POP PUSH2 0x416 PUSH2 0x1ABD JUMP JUMPDEST PUSH1 0x40 MLOAD PUSH2 0x423 SWAP2 SWAP1 PUSH2 0x3BE9 JUMP JUMPDEST PUSH1 0x40 MLOAD DUP1 SWAP2 SUB SWAP1 RETURN JUMPDEST CALLVALUE DUP1 ISZERO PUSH2 0x438 JUMPI PUSH1 0x0 DUP1 REVERT JUMPDEST POP PUSH2 0x453 PUSH1 0x4 DUP1 CALLDATASIZE SUB DUP2 ADD SWAP1 PUSH2 0x44E SWAP2 SWAP1 PUSH2 0x3B0B JUMP JUMPDEST PUSH2 0x1AC8 JUMP JUMPDEST STOP JUMPDEST CALLVALUE DUP1 ISZERO PUSH2 0x461 JUMPI PUSH1 0x0 DUP1 REVERT JUMPDEST POP PUSH2 0x46A PUSH2 0x1BC6 JUMP JUMPDEST PUSH1 0x40 MLOAD PUSH2 0x477 SWAP2 SWAP1 PUSH2 0x3DEB JUMP JUMPDEST PUSH1 0x40 MLOAD DUP1 SWAP2 SUB SWAP1 RETURN JUMPDEST CALLVALUE DUP1 ISZERO PUSH2 0x48C JUMPI PUSH1 0x0 DUP1 REVERT JUMPDEST POP PUSH2 0x495 PUSH2 0x1BEC JUMP JUMPDEST PUSH1 0x40 MLOAD PUSH2 0x4A2 SWAP2 SWAP1 PUSH2 0x3E27 JUMP JUMPDEST PUSH1 0x40 MLOAD DUP1 SWAP2 SUB SWAP1 RETURN JUMPDEST CALLVALUE DUP1 ISZERO PUSH2 0x4B7 JUMPI PUSH1 0x0 DUP1 REVERT JUMPDEST POP PUSH2 0x4D2 PUSH1 0x4 DUP1 CALLDATASIZE SUB DUP2 ADD SWAP1 PUSH2 0x4CD SWAP2 SWAP1 PUSH2 0x3B0B JUMP JUMPDEST PUSH2 0x1C12 JUMP JUMPDEST STOP JUMPDEST PUSH2 0x4EE PUSH1 0x4 DUP1 CALLDATASIZE SUB DUP2 ADD SWAP1 PUSH2 0x4E9 SWAP2 SWAP1 PUSH2 0x3A09 JUMP JUMPDEST PUSH2 0x1C95 JUMP JUMPDEST STOP JUMPDEST PUSH2 0x4F8 PUSH2 0x20D6 JUMP JUMPDEST DUP1 PUSH1 0x0 ADD PUSH1 0x20 DUP2 ADD SWAP1 PUSH2 0x50B SWAP2 SWAP1 PUSH2 0x3E6E JUMP JUMPDEST DUP1 ISZERO PUSH2 0x527 JUMPI POP DUP2 PUSH1 0x0 ADD PUSH1 0x20 DUP2 ADD SWAP1 PUSH2 0x525 SWAP2 SWAP1 PUSH2 0x3E6E JUMP JUMPDEST ISZERO JUMPDEST PUSH2 0x566 JUMPI PUSH1 0x40 MLOAD PUSH32 0x8C379A000000000000000000000000000000000000000000000000000000000 DUP2 MSTORE PUSH1 0x4 ADD PUSH2 0x55D SWAP1 PUSH2 0x3EF8 JUMP JUMPDEST PUSH1 0x40 MLOAD DUP1 SWAP2 SUB SWAP1 REVERT JUMPDEST PUSH32 0x0 PUSH20 0xFFFFFFFFFFFFFFFFFFFFFFFFFFFFFFFFFFFFFFFF AND DUP2 PUSH1 0xE0 ADD PUSH1 0x20 DUP2 ADD SWAP1 PUSH2 0x5B0 SWAP2 SWAP1 PUSH2 0x3B0B JUMP JUMPDEST PUSH20 0xFFFFFFFFFFFFFFFFFFFFFFFFFFFFFFFFFFFFFFFF AND EQ PUSH2 0x606 JUMPI PUSH1 0x40 MLOAD PUSH32 0x8C379A000000000000000000000000000000000000000000000000000000000 DUP2 MSTORE PUSH1 0x4 ADD PUSH2 0x5FD SWAP1 PUSH2 0x3F64 JUMP JUMPDEST PUSH1 0x40 MLOAD DUP1 SWAP2 SUB SWAP1 REVERT JUMPDEST DUP2 PUSH1 0x20 ADD PUSH1 0x20 DUP2 ADD SWAP1 PUSH2 0x619 SWAP2 SWAP1 PUSH2 0x3B0B JUMP JUMPDEST PUSH20 0xFFFFFFFFFFFFFFFFFFFFFFFFFFFFFFFFFFFFFFFF AND CALLER PUSH20 0xFFFFFFFFFFFFFFFFFFFFFFFFFFFFFFFFFFFFFFFF AND EQ PUSH2 0x686 JUMPI PUSH1 0x40 MLOAD PUSH32 0x8C379A000000000000000000000000000000000000000000000000000000000 DUP2 MSTORE PUSH1 0x4 ADD PUSH2 0x67D SWAP1 PUSH2 0x3FD0 JUMP JUMPDEST PUSH1 0x40 MLOAD DUP1 SWAP2 SUB SWAP1 REVERT JUMPDEST CALLVALUE DUP3 PUSH1 0x40 ADD CALLDATALOAD GT ISZERO PUSH2 0x6F3 JUMPI PUSH2 0x6EE CALLER ADDRESS CALLVALUE DUP6 PUSH1 0x40 ADD CALLDATALOAD PUSH2 0x6A7 SWAP2 SWAP1 PUSH2 0x401F JUMP JUMPDEST PUSH32 0x0 PUSH20 0xFFFFFFFFFFFFFFFFFFFFFFFFFFFFFFFFFFFFFFFF AND PUSH2 0x2125 SWAP1 SWAP4 SWAP3 SWAP2 SWAP1 PUSH4 0xFFFFFFFF AND JUMP JUMPDEST PUSH2 0x73A JUMP JUMPDEST CALLVALUE DUP3 PUSH1 0x40 ADD CALLDATALOAD EQ PUSH2 0x739 JUMPI PUSH1 0x40 MLOAD PUSH32 0x8C379A000000000000000000000000000000000000000000000000000000000 DUP2 MSTORE PUSH1 0x4 ADD PUSH2 0x730 SWAP1 PUSH2 0x409F JUMP JUMPDEST PUSH1 0x40 MLOAD DUP1 SWAP2 SUB SWAP1 REVERT JUMPDEST JUMPDEST PUSH32 0x0 PUSH20 0xFFFFFFFFFFFFFFFFFFFFFFFFFFFFFFFFFFFFFFFF AND PUSH4 0xD0E30DB0 CALLVALUE PUSH1 0x40 MLOAD DUP3 PUSH4 0xFFFFFFFF AND PUSH1 0xE0 SHL DUP2 MSTORE PUSH1 0x4 ADD PUSH1 0x0 PUSH1 0x40 MLOAD DUP1 DUP4 SUB DUP2 DUP6 DUP9 DUP1 EXTCODESIZE ISZERO DUP1 ISZERO PUSH2 0x7A2 JUMPI PUSH1 0x0 DUP1 REVERT JUMPDEST POP GAS CALL ISZERO DUP1 ISZERO PUSH2 0x7B6 JUMPI RETURNDATASIZE PUSH1 0x0 DUP1 RETURNDATACOPY RETURNDATASIZE PUSH1 0x0 REVERT JUMPDEST POP POP POP POP POP PUSH1 0x0 PUSH2 0x7D6 DUP3 DUP1 CALLDATASIZE SUB DUP2 ADD SWAP1 PUSH2 0x7D1 SWAP2 SWAP1 PUSH2 0x4303 JUMP JUMPDEST PUSH2 0x21AE JUMP JUMPDEST SWAP1 POP PUSH2 0x7E2 DUP3 DUP3 PUSH2 0x2246 JUMP JUMPDEST PUSH1 0x0 DUP1 PUSH1 0x0 DUP5 PUSH1 0xC0 ADD PUSH1 0x20 DUP2 ADD SWAP1 PUSH2 0x7FA SWAP2 SWAP1 PUSH2 0x3B0B JUMP JUMPDEST PUSH20 0xFFFFFFFFFFFFFFFFFFFFFFFFFFFFFFFFFFFFFFFF AND PUSH4 0xFCEB5D6C DUP8 DUP8 PUSH1 0x40 MLOAD DUP4 PUSH4 0xFFFFFFFF AND PUSH1 0xE0 SHL DUP2 MSTORE PUSH1 0x4 ADD PUSH2 0x834 SWAP3 SWAP2 SWAP1 PUSH2 0x45F4 JUMP JUMPDEST PUSH1 0x60 PUSH1 0x40 MLOAD DUP1 DUP4 SUB DUP2 DUP7 GAS STATICCALL ISZERO DUP1 ISZERO PUSH2 0x851 JUMPI RETURNDATASIZE PUSH1 0x0 DUP1 RETURNDATACOPY RETURNDATASIZE PUSH1 0x0 REVERT JUMPDEST POP POP POP POP PUSH1 0x40 MLOAD RETURNDATASIZE PUSH1 0x1F NOT PUSH1 0x1F DUP3 ADD AND DUP3 ADD DUP1 PUSH1 0x40 MSTORE POP DUP2 ADD SWAP1 PUSH2 0x875 SWAP2 SWAP1 PUSH2 0x4648 JUMP JUMPDEST SWAP3 POP SWAP3 POP SWAP3 POP DUP3 PUSH2 0x8BB JUMPI PUSH1 0x40 MLOAD PUSH32 0x8C379A000000000000000000000000000000000000000000000000000000000 DUP2 MSTORE PUSH1 0x4 ADD PUSH2 0x8B2 SWAP1 PUSH2 0x46E7 JUMP JUMPDEST PUSH1 0x40 MLOAD DUP1 SWAP2 SUB SWAP1 REVERT JUMPDEST PUSH1 0x1 PUSH1 0x8 PUSH1 0x0 DUP8 PUSH1 0x20 ADD PUSH1 0x20 DUP2 ADD SWAP1 PUSH2 0x8D4 SWAP2 SWAP1 PUSH2 0x3B0B JUMP JUMPDEST PUSH20 0xFFFFFFFFFFFFFFFFFFFFFFFFFFFFFFFFFFFFFFFF AND PUSH20 0xFFFFFFFFFFFFFFFFFFFFFFFFFFFFFFFFFFFFFFFF AND DUP2 MSTORE PUSH1 0x20 ADD SWAP1 DUP2 MSTORE PUSH1 0x20 ADD PUSH1 0x0 KECCAK256 PUSH1 0x0 DUP8 PUSH2 0x100 ADD CALLDATALOAD DUP2 MSTORE PUSH1 0x20 ADD SWAP1 DUP2 MSTORE PUSH1 0x20 ADD PUSH1 0x0 KECCAK256 PUSH1 0x0 PUSH2 0x100 EXP DUP2 SLOAD DUP2 PUSH1 0xFF MUL NOT AND SWAP1 DUP4 ISZERO ISZERO MUL OR SWAP1 SSTORE POP PUSH2 0x982 DUP6 PUSH1 0xC0 ADD PUSH1 0x20 DUP2 ADD SWAP1 PUSH2 0x951 SWAP2 SWAP1 PUSH2 0x3B0B JUMP JUMPDEST DUP7 PUSH1 0x40 ADD PUSH1 0x20 DUP2 ADD SWAP1 PUSH2 0x964 SWAP2 SWAP1 PUSH2 0x3B0B JUMP JUMPDEST DUP5 DUP9 PUSH1 0x20 ADD PUSH1 0x20 DUP2 ADD SWAP1 PUSH2 0x978 SWAP2 SWAP1 PUSH2 0x3B0B JUMP JUMPDEST DUP11 PUSH1 0x40 ADD CALLDATALOAD PUSH2 0x269F JUMP JUMPDEST PUSH2 0x9C5 DUP6 PUSH1 0x40 ADD PUSH1 0x20 DUP2 ADD SWAP1 PUSH2 0x998 SWAP2 SWAP1 PUSH2 0x3B0B JUMP JUMPDEST DUP7 PUSH1 0x20 ADD PUSH1 0x20 DUP2 ADD SWAP1 PUSH2 0x9AB SWAP2 SWAP1 PUSH2 0x3B0B JUMP JUMPDEST DUP9 PUSH1 0x20 ADD PUSH1 0x20 DUP2 ADD SWAP1 PUSH2 0x9BE SWAP2 SWAP1 PUSH2 0x3B0B JUMP JUMPDEST DUP6 DUP6 PUSH2 0x29F7 JUMP JUMPDEST DUP5 PUSH1 0xC0 ADD PUSH1 0x20 DUP2 ADD SWAP1 PUSH2 0x9D8 SWAP2 SWAP1 PUSH2 0x3B0B JUMP JUMPDEST PUSH20 0xFFFFFFFFFFFFFFFFFFFFFFFFFFFFFFFFFFFFFFFF AND DUP6 PUSH1 0x20 ADD PUSH1 0x20 DUP2 ADD SWAP1 PUSH2 0xA01 SWAP2 SWAP1 PUSH2 0x3B0B JUMP JUMPDEST PUSH20 0xFFFFFFFFFFFFFFFFFFFFFFFFFFFFFFFFFFFFFFFF AND DUP8 PUSH1 0x20 ADD PUSH1 0x20 DUP2 ADD SWAP1 PUSH2 0xA2A SWAP2 SWAP1 PUSH2 0x3B0B JUMP JUMPDEST PUSH20 0xFFFFFFFFFFFFFFFFFFFFFFFFFFFFFFFFFFFFFFFF AND PUSH32 0x50D3C79A72ACF972E873EC1C16C55EECF26A8BB67B60B136DD0CA2E1C6565AD7 DUP8 DUP10 PUSH2 0x100 ADD CALLDATALOAD DUP11 PUSH1 0xE0 ADD PUSH1 0x20 DUP2 ADD SWAP1 PUSH2 0xA7B SWAP2 SWAP1 PUSH2 0x3B0B JUMP JUMPDEST DUP12 PUSH1 0x40 ADD PUSH1 0x20 DUP2 ADD SWAP1 PUSH2 0xA8E SWAP2 SWAP1 PUSH2 0x3B0B JUMP JUMPDEST DUP10 DUP10 DUP16 PUSH1 0x40 ADD CALLDATALOAD PUSH1 0x40 MLOAD PUSH2 0xAA8 SWAP8 SWAP7 SWAP6 SWAP5 SWAP4 SWAP3 SWAP2 SWAP1 PUSH2 0x4716 JUMP JUMPDEST PUSH1 0x40 MLOAD DUP1 SWAP2 SUB SWAP1 LOG4 POP POP POP POP PUSH2 0xABC PUSH2 0x2B81 JUMP JUMPDEST POP POP JUMP JUMPDEST PUSH1 0x7 PUSH1 0x0 CALLER PUSH20 0xFFFFFFFFFFFFFFFFFFFFFFFFFFFFFFFFFFFFFFFF AND PUSH20 0xFFFFFFFFFFFFFFFFFFFFFFFFFFFFFFFFFFFFFFFF AND DUP2 MSTORE PUSH1 0x20 ADD SWAP1 DUP2 MSTORE PUSH1 0x20 ADD PUSH1 0x0 KECCAK256 SLOAD DUP2 GT PUSH2 0xB41 JUMPI PUSH1 0x40 MLOAD PUSH32 0x8C379A000000000000000000000000000000000000000000000000000000000 DUP2 MSTORE PUSH1 0x4 ADD PUSH2 0xB38 SWAP1 PUSH2 0x47AB JUMP JUMPDEST PUSH1 0x40 MLOAD DUP1 SWAP2 SUB SWAP1 REVERT JUMPDEST PUSH3 0x7A120 PUSH1 0x7 PUSH1 0x0 CALLER PUSH20 0xFFFFFFFFFFFFFFFFFFFFFFFFFFFFFFFFFFFFFFFF AND PUSH20 0xFFFFFFFFFFFFFFFFFFFFFFFFFFFFFFFFFFFFFFFF AND DUP2 MSTORE PUSH1 0x20 ADD SWAP1 DUP2 MSTORE PUSH1 0x20 ADD PUSH1 0x0 KECCAK256 SLOAD PUSH2 0xB8F SWAP2 SWAP1 PUSH2 0x47CB JUMP JUMPDEST DUP2 LT PUSH2 0xBD0 JUMPI PUSH1 0x40 MLOAD PUSH32 0x8C379A000000000000000000000000000000000000000000000000000000000 DUP2 MSTORE PUSH1 0x4 ADD PUSH2 0xBC7 SWAP1 PUSH2 0x47AB JUMP JUMPDEST PUSH1 0x40 MLOAD DUP1 SWAP2 SUB SWAP1 REVERT JUMPDEST DUP1 PUSH1 0x7 PUSH1 0x0 CALLER PUSH20 0xFFFFFFFFFFFFFFFFFFFFFFFFFFFFFFFFFFFFFFFF AND PUSH20 0xFFFFFFFFFFFFFFFFFFFFFFFFFFFFFFFFFFFFFFFF AND DUP2 MSTORE PUSH1 0x20 ADD SWAP1 DUP2 MSTORE PUSH1 0x20 ADD PUSH1 0x0 KECCAK256 DUP2 SWAP1 SSTORE POP CALLER PUSH20 0xFFFFFFFFFFFFFFFFFFFFFFFFFFFFFFFFFFFFFFFF AND PUSH32 0x1E7178D84F0B0825C65795CD62E7972809AD3AAC6917843AAEC596161B2C0A97 DUP3 PUSH1 0x40 MLOAD PUSH2 0xC5A SWAP2 SWAP1 PUSH2 0x47FF JUMP JUMPDEST PUSH1 0x40 MLOAD DUP1 SWAP2 SUB SWAP1 LOG2 POP JUMP JUMPDEST PUSH2 0xC6D PUSH2 0x2B8B JUMP JUMPDEST PUSH1 0x0 PUSH20 0xFFFFFFFFFFFFFFFFFFFFFFFFFFFFFFFFFFFFFFFF AND DUP2 PUSH20 0xFFFFFFFFFFFFFFFFFFFFFFFFFFFFFFFFFFFFFFFF AND SUB PUSH2 0xCDC JUMPI PUSH1 0x40 MLOAD PUSH32 0x8C379A000000000000000000000000000000000000000000000000000000000 DUP2 MSTORE PUSH1 0x4 ADD PUSH2 0xCD3 SWAP1 PUSH2 0x4866 JUMP JUMPDEST PUSH1 0x40 MLOAD DUP1 SWAP2 SUB SWAP1 REVERT JUMPDEST DUP1 PUSH1 0x6 PUSH1 0x0 PUSH2 0x100 EXP DUP2 SLOAD DUP2 PUSH20 0xFFFFFFFFFFFFFFFFFFFFFFFFFFFFFFFFFFFFFFFF MUL NOT AND SWAP1 DUP4 PUSH20 0xFFFFFFFFFFFFFFFFFFFFFFFFFFFFFFFFFFFFFFFF AND MUL OR SWAP1 SSTORE POP DUP1 PUSH20 0xFFFFFFFFFFFFFFFFFFFFFFFFFFFFFFFFFFFFFFFF AND PUSH32 0xBB34FEE0D3BB7C602ECFE1C8BED62B67A720F718E0EAF72246D3457FCB25BE17 PUSH1 0x40 MLOAD PUSH1 0x40 MLOAD DUP1 SWAP2 SUB SWAP1 LOG2 POP JUMP JUMPDEST PUSH2 0xD6B PUSH2 0x20D6 JUMP JUMPDEST DUP1 PUSH1 0x0 ADD PUSH1 0x20 DUP2 ADD SWAP1 PUSH2 0xD7E SWAP2 SWAP1 PUSH2 0x3E6E JUMP JUMPDEST ISZERO DUP1 ISZERO PUSH2 0xD9A JUMPI POP DUP2 PUSH1 0x0 ADD PUSH1 0x20 DUP2 ADD SWAP1 PUSH2 0xD99 SWAP2 SWAP1 PUSH2 0x3E6E JUMP JUMPDEST JUMPDEST PUSH2 0xDD9 JUMPI PUSH1 0x40 MLOAD PUSH32 0x8C379A000000000000000000000000000000000000000000000000000000000 DUP2 MSTORE PUSH1 0x4 ADD PUSH2 0xDD0 SWAP1 PUSH2 0x3EF8 JUMP JUMPDEST PUSH1 0x40 MLOAD DUP1 SWAP2 SUB SWAP1 REVERT JUMPDEST DUP2 PUSH1 0x20 ADD PUSH1 0x20 DUP2 ADD SWAP1 PUSH2 0xDEC SWAP2 SWAP1 PUSH2 0x3B0B JUMP JUMPDEST PUSH20 0xFFFFFFFFFFFFFFFFFFFFFFFFFFFFFFFFFFFFFFFF AND CALLER PUSH20 0xFFFFFFFFFFFFFFFFFFFFFFFFFFFFFFFFFFFFFFFF AND EQ PUSH2 0xE59 JUMPI PUSH1 0x40 MLOAD PUSH32 0x8C379A000000000000000000000000000000000000000000000000000000000 DUP2 MSTORE PUSH1 0x4 ADD PUSH2 0xE50 SWAP1 PUSH2 0x48D2 JUMP JUMPDEST PUSH1 0x40 MLOAD DUP1 SWAP2 SUB SWAP1 REVERT JUMPDEST PUSH1 0x0 PUSH2 0xE74 DUP3 DUP1 CALLDATASIZE SUB DUP2 ADD SWAP1 PUSH2 0xE6F SWAP2 SWAP1 PUSH2 0x4303 JUMP JUMPDEST PUSH2 0x21AE JUMP JUMPDEST SWAP1 POP PUSH2 0xE80 DUP3 DUP3 PUSH2 0x2246 JUMP JUMPDEST PUSH1 0x0 DUP1 PUSH1 0x0 DUP5 PUSH1 0xC0 ADD PUSH1 0x20 DUP2 ADD SWAP1 PUSH2 0xE98 SWAP2 SWAP1 PUSH2 0x3B0B JUMP JUMPDEST PUSH20 0xFFFFFFFFFFFFFFFFFFFFFFFFFFFFFFFFFFFFFFFF AND PUSH4 0x27891057 DUP8 DUP8 PUSH1 0x40 MLOAD DUP4 PUSH4 0xFFFFFFFF AND PUSH1 0xE0 SHL DUP2 MSTORE PUSH1 0x4 ADD PUSH2 0xED2 SWAP3 SWAP2 SWAP1 PUSH2 0x45F4 JUMP JUMPDEST PUSH1 0x60 PUSH1 0x40 MLOAD DUP1 DUP4 SUB DUP2 DUP7 GAS STATICCALL ISZERO DUP1 ISZERO PUSH2 0xEEF JUMPI RETURNDATASIZE PUSH1 0x0 DUP1 RETURNDATACOPY RETURNDATASIZE PUSH1 0x0 REVERT JUMPDEST POP POP POP POP PUSH1 0x40 MLOAD RETURNDATASIZE PUSH1 0x1F NOT PUSH1 0x1F DUP3 ADD AND DUP3 ADD DUP1 PUSH1 0x40 MSTORE POP DUP2 ADD SWAP1 PUSH2 0xF13 SWAP2 SWAP1 PUSH2 0x4648 JUMP JUMPDEST SWAP3 POP SWAP3 POP SWAP3 POP DUP3 PUSH2 0xF59 JUMPI PUSH1 0x40 MLOAD PUSH32 0x8C379A000000000000000000000000000000000000000000000000000000000 DUP2 MSTORE PUSH1 0x4 ADD PUSH2 0xF50 SWAP1 PUSH2 0x46E7 JUMP JUMPDEST PUSH1 0x40 MLOAD DUP1 SWAP2 SUB SWAP1 REVERT JUMPDEST PUSH1 0x1 PUSH1 0x8 PUSH1 0x0 DUP8 PUSH1 0x20 ADD PUSH1 0x20 DUP2 ADD SWAP1 PUSH2 0xF72 SWAP2 SWAP1 PUSH2 0x3B0B JUMP JUMPDEST PUSH20 0xFFFFFFFFFFFFFFFFFFFFFFFFFFFFFFFFFFFFFFFF AND PUSH20 0xFFFFFFFFFFFFFFFFFFFFFFFFFFFFFFFFFFFFFFFF AND DUP2 MSTORE PUSH1 0x20 ADD SWAP1 DUP2 MSTORE PUSH1 0x20 ADD PUSH1 0x0 KECCAK256 PUSH1 0x0 DUP8 PUSH2 0x100 ADD CALLDATALOAD DUP2 MSTORE PUSH1 0x20 ADD SWAP1 DUP2 MSTORE PUSH1 0x20 ADD PUSH1 0x0 KECCAK256 PUSH1 0x0 PUSH2 0x100 EXP DUP2 SLOAD DUP2 PUSH1 0xFF MUL NOT AND SWAP1 DUP4 ISZERO ISZERO MUL OR SWAP1 SSTORE POP PUSH2 0x100A DUP6 PUSH1 0x40 ADD PUSH1 0x20 DUP2 ADD SWAP1 PUSH2 0xFEF SWAP2 SWAP1 PUSH2 0x3B0B JUMP JUMPDEST CALLER DUP8 PUSH1 0x20 ADD PUSH1 0x20 DUP2 ADD SWAP1 PUSH2 0x1003 SWAP2 SWAP1 PUSH2 0x3B0B JUMP JUMPDEST DUP6 DUP6 PUSH2 0x29F7 JUMP JUMPDEST PUSH2 0x1073 DUP6 PUSH1 0xC0 ADD PUSH1 0x20 DUP2 ADD SWAP1 PUSH2 0x1020 SWAP2 SWAP1 PUSH2 0x3B0B JUMP JUMPDEST DUP7 PUSH1 0x40 ADD PUSH1 0x20 DUP2 ADD SWAP1 PUSH2 0x1033 SWAP2 SWAP1 PUSH2 0x3B0B JUMP JUMPDEST DUP5 DUP9 PUSH1 0xE0 ADD PUSH1 0x20 DUP2 ADD SWAP1 PUSH2 0x1047 SWAP2 SWAP1 PUSH2 0x3B0B JUMP JUMPDEST DUP10 PUSH1 0x20 ADD PUSH1 0x20 DUP2 ADD SWAP1 PUSH2 0x105A SWAP2 SWAP1 PUSH2 0x3B0B JUMP JUMPDEST DUP12 PUSH1 0x20 ADD PUSH1 0x20 DUP2 ADD SWAP1 PUSH2 0x106D SWAP2 SWAP1 PUSH2 0x3B0B JUMP JUMPDEST DUP8 PUSH2 0x2C09 JUMP JUMPDEST DUP5 PUSH1 0xC0 ADD PUSH1 0x20 DUP2 ADD SWAP1 PUSH2 0x1086 SWAP2 SWAP1 PUSH2 0x3B0B JUMP JUMPDEST PUSH20 0xFFFFFFFFFFFFFFFFFFFFFFFFFFFFFFFFFFFFFFFF AND DUP6 PUSH1 0x20 ADD PUSH1 0x20 DUP2 ADD SWAP1 PUSH2 0x10AF SWAP2 SWAP1 PUSH2 0x3B0B JUMP JUMPDEST PUSH20 0xFFFFFFFFFFFFFFFFFFFFFFFFFFFFFFFFFFFFFFFF AND DUP8 PUSH1 0x20 ADD PUSH1 0x20 DUP2 ADD SWAP1 PUSH2 0x10D8 SWAP2 SWAP1 PUSH2 0x3B0B JUMP JUMPDEST PUSH20 0xFFFFFFFFFFFFFFFFFFFFFFFFFFFFFFFFFFFFFFFF AND PUSH32 0x8CE1A009C26EECC60E31B457E624E94F61C3D5F4149F76E8F43F73EBC27B9300 DUP8 DUP10 PUSH2 0x100 ADD CALLDATALOAD DUP11 PUSH1 0xE0 ADD PUSH1 0x20 DUP2 ADD SWAP1 PUSH2 0x1129 SWAP2 SWAP1 PUSH2 0x3B0B JUMP JUMPDEST DUP12 PUSH1 0x40 ADD PUSH1 0x20 DUP2 ADD SWAP1 PUSH2 0x113C SWAP2 SWAP1 PUSH2 0x3B0B JUMP JUMPDEST DUP10 DUP10 DUP16 PUSH1 0x40 ADD CALLDATALOAD PUSH1 0x40 MLOAD PUSH2 0x1156 SWAP8 SWAP7 SWAP6 SWAP5 SWAP4 SWAP3 SWAP2 SWAP1 PUSH2 0x4716 JUMP JUMPDEST PUSH1 0x40 MLOAD DUP1 SWAP2 SUB SWAP1 LOG4 POP POP POP POP PUSH2 0x116A PUSH2 0x2B81 JUMP JUMPDEST POP POP JUMP JUMPDEST PUSH1 0x0 PUSH1 0x8 PUSH1 0x0 DUP5 PUSH20 0xFFFFFFFFFFFFFFFFFFFFFFFFFFFFFFFFFFFFFFFF AND PUSH20 0xFFFFFFFFFFFFFFFFFFFFFFFFFFFFFFFFFFFFFFFF AND DUP2 MSTORE PUSH1 0x20 ADD SWAP1 DUP2 MSTORE PUSH1 0x20 ADD PUSH1 0x0 KECCAK256 PUSH1 0x0 DUP4 DUP2 MSTORE PUSH1 0x20 ADD SWAP1 DUP2 MSTORE PUSH1 0x20 ADD PUSH1 0x0 KECCAK256 PUSH1 0x0 SWAP1 SLOAD SWAP1 PUSH2 0x100 EXP SWAP1 DIV PUSH1 0xFF AND SWAP1 POP SWAP3 SWAP2 POP POP JUMP JUMPDEST PUSH4 0xD9B67A26 PUSH1 0xE0 SHL DUP2 JUMP JUMPDEST PUSH32 0x0 DUP2 JUMP JUMPDEST PUSH1 0x6 PUSH1 0x0 SWAP1 SLOAD SWAP1 PUSH2 0x100 EXP SWAP1 DIV PUSH20 0xFFFFFFFFFFFFFFFFFFFFFFFFFFFFFFFFFFFFFFFF AND DUP2 JUMP JUMPDEST PUSH2 0x1233 PUSH2 0x2B8B JUMP JUMPDEST PUSH2 0x123D PUSH1 0x0 PUSH2 0x2EE9 JUMP JUMPDEST JUMP JUMPDEST PUSH1 0x2 PUSH1 0x0 SWAP1 SLOAD SWAP1 PUSH2 0x100 EXP SWAP1 DIV PUSH20 0xFFFFFFFFFFFFFFFFFFFFFFFFFFFFFFFFFFFFFFFF AND DUP2 JUMP JUMPDEST PUSH1 0x0 PUSH1 0x1 PUSH1 0x0 SWAP1 SLOAD SWAP1 PUSH2 0x100 EXP SWAP1 DIV PUSH20 0xFFFFFFFFFFFFFFFFFFFFFFFFFFFFFFFFFFFFFFFF AND SWAP1 POP SWAP1 JUMP JUMPDEST PUSH2 0x1297 PUSH2 0x20D6 JUMP JUMPDEST DUP1 PUSH1 0x0 ADD PUSH1 0x20 DUP2 ADD SWAP1 PUSH2 0x12AA SWAP2 SWAP1 PUSH2 0x3E6E JUMP JUMPDEST DUP1 ISZERO PUSH2 0x12C6 JUMPI POP DUP2 PUSH1 0x0 ADD PUSH1 0x20 DUP2 ADD SWAP1 PUSH2 0x12C4 SWAP2 SWAP1 PUSH2 0x3E6E JUMP JUMPDEST ISZERO JUMPDEST PUSH2 0x1305 JUMPI PUSH1 0x40 MLOAD PUSH32 0x8C379A000000000000000000000000000000000000000000000000000000000 DUP2 MSTORE PUSH1 0x4 ADD PUSH2 0x12FC SWAP1 PUSH2 0x3EF8 JUMP JUMPDEST PUSH1 0x40 MLOAD DUP1 SWAP2 SUB SWAP1 REVERT JUMPDEST DUP2 PUSH1 0x20 ADD PUSH1 0x20 DUP2 ADD SWAP1 PUSH2 0x1318 SWAP2 SWAP1 PUSH2 0x3B0B JUMP JUMPDEST PUSH20 0xFFFFFFFFFFFFFFFFFFFFFFFFFFFFFFFFFFFFFFFF AND CALLER PUSH20 0xFFFFFFFFFFFFFFFFFFFFFFFFFFFFFFFFFFFFFFFF AND EQ PUSH2 0x1385 JUMPI PUSH1 0x40 MLOAD PUSH32 0x8C379A000000000000000000000000000000000000000000000000000000000 DUP2 MSTORE PUSH1 0x4 ADD PUSH2 0x137C SWAP1 PUSH2 0x47AB JUMP JUMPDEST PUSH1 0x40 MLOAD DUP1 SWAP2 SUB SWAP1 REVERT JUMPDEST PUSH1 0x0 PUSH2 0x13A0 DUP3 DUP1 CALLDATASIZE SUB DUP2 ADD SWAP1 PUSH2 0x139B SWAP2 SWAP1 PUSH2 0x4303 JUMP JUMPDEST PUSH2 0x21AE JUMP JUMPDEST SWAP1 POP PUSH2 0x13AC DUP3 DUP3 PUSH2 0x2246 JUMP JUMPDEST PUSH1 0x0 DUP1 PUSH1 0x0 DUP5 PUSH1 0xC0 ADD PUSH1 0x20 DUP2 ADD SWAP1 PUSH2 0x13C4 SWAP2 SWAP1 PUSH2 0x3B0B JUMP JUMPDEST PUSH20 0xFFFFFFFFFFFFFFFFFFFFFFFFFFFFFFFFFFFFFFFF AND PUSH4 0xFCEB5D6C DUP8 DUP8 PUSH1 0x40 MLOAD DUP4 PUSH4 0xFFFFFFFF AND PUSH1 0xE0 SHL DUP2 MSTORE PUSH1 0x4 ADD PUSH2 0x13FE SWAP3 SWAP2 SWAP1 PUSH2 0x45F4 JUMP JUMPDEST PUSH1 0x60 PUSH1 0x40 MLOAD DUP1 DUP4 SUB DUP2 DUP7 GAS STATICCALL ISZERO DUP1 ISZERO PUSH2 0x141B JUMPI RETURNDATASIZE PUSH1 0x0 DUP1 RETURNDATACOPY RETURNDATASIZE PUSH1 0x0 REVERT JUMPDEST POP POP POP POP PUSH1 0x40 MLOAD RETURNDATASIZE PUSH1 0x1F NOT PUSH1 0x1F DUP3 ADD AND DUP3 ADD DUP1 PUSH1 0x40 MSTORE POP DUP2 ADD SWAP1 PUSH2 0x143F SWAP2 SWAP1 PUSH2 0x4648 JUMP JUMPDEST SWAP3 POP SWAP3 POP SWAP3 POP DUP3 PUSH2 0x1485 JUMPI PUSH1 0x40 MLOAD PUSH32 0x8C379A000000000000000000000000000000000000000000000000000000000 DUP2 MSTORE PUSH1 0x4 ADD PUSH2 0x147C SWAP1 PUSH2 0x46E7 JUMP JUMPDEST PUSH1 0x40 MLOAD DUP1 SWAP2 SUB SWAP1 REVERT JUMPDEST PUSH1 0x1 PUSH1 0x8 PUSH1 0x0 DUP8 PUSH1 0x20 ADD PUSH1 0x20 DUP2 ADD SWAP1 PUSH2 0x149E SWAP2 SWAP1 PUSH2 0x3B0B JUMP JUMPDEST PUSH20 0xFFFFFFFFFFFFFFFFFFFFFFFFFFFFFFFFFFFFFFFF AND PUSH20 0xFFFFFFFFFFFFFFFFFFFFFFFFFFFFFFFFFFFFFFFF AND DUP2 MSTORE PUSH1 0x20 ADD SWAP1 DUP2 MSTORE PUSH1 0x20 ADD PUSH1 0x0 KECCAK256 PUSH1 0x0 DUP8 PUSH2 0x100 ADD CALLDATALOAD DUP2 MSTORE PUSH1 0x20 ADD SWAP1 DUP2 MSTORE PUSH1 0x20 ADD PUSH1 0x0 KECCAK256 PUSH1 0x0 PUSH2 0x100 EXP DUP2 SLOAD DUP2 PUSH1 0xFF MUL NOT AND SWAP1 DUP4 ISZERO ISZERO MUL OR SWAP1 SSTORE POP PUSH2 0x1560 DUP6 PUSH1 0xC0 ADD PUSH1 0x20 DUP2 ADD SWAP1 PUSH2 0x151B SWAP2 SWAP1 PUSH2 0x3B0B JUMP JUMPDEST DUP7 PUSH1 0x40 ADD PUSH1 0x20 DUP2 ADD SWAP1 PUSH2 0x152E SWAP2 SWAP1 PUSH2 0x3B0B JUMP JUMPDEST DUP5 DUP9 PUSH1 0xE0 ADD PUSH1 0x20 DUP2 ADD SWAP1 PUSH2 0x1542 SWAP2 SWAP1 PUSH2 0x3B0B JUMP JUMPDEST CALLER DUP11 PUSH1 0x20 ADD PUSH1 0x20 DUP2 ADD SWAP1 PUSH2 0x1556 SWAP2 SWAP1 PUSH2 0x3B0B JUMP JUMPDEST DUP13 PUSH1 0x40 ADD CALLDATALOAD PUSH2 0x2C09 JUMP JUMPDEST PUSH2 0x15A3 DUP6 PUSH1 0x40 ADD PUSH1 0x20 DUP2 ADD SWAP1 PUSH2 0x1576 SWAP2 SWAP1 PUSH2 0x3B0B JUMP JUMPDEST DUP7 PUSH1 0x20 ADD PUSH1 0x20 DUP2 ADD SWAP1 PUSH2 0x1589 SWAP2 SWAP1 PUSH2 0x3B0B JUMP JUMPDEST DUP9 PUSH1 0x20 ADD PUSH1 0x20 DUP2 ADD SWAP1 PUSH2 0x159C SWAP2 SWAP1 PUSH2 0x3B0B JUMP JUMPDEST DUP6 DUP6 PUSH2 0x29F7 JUMP JUMPDEST DUP5 PUSH1 0xC0 ADD PUSH1 0x20 DUP2 ADD SWAP1 PUSH2 0x15B6 SWAP2 SWAP1 PUSH2 0x3B0B JUMP JUMPDEST PUSH20 0xFFFFFFFFFFFFFFFFFFFFFFFFFFFFFFFFFFFFFFFF AND DUP6 PUSH1 0x20 ADD PUSH1 0x20 DUP2 ADD SWAP1 PUSH2 0x15DF SWAP2 SWAP1 PUSH2 0x3B0B JUMP JUMPDEST PUSH20 0xFFFFFFFFFFFFFFFFFFFFFFFFFFFFFFFFFFFFFFFF AND DUP8 PUSH1 0x20 ADD PUSH1 0x20 DUP2 ADD SWAP1 PUSH2 0x1608 SWAP2 SWAP1 PUSH2 0x3B0B JUMP JUMPDEST PUSH20 0xFFFFFFFFFFFFFFFFFFFFFFFFFFFFFFFFFFFFFFFF AND PUSH32 0x50D3C79A72ACF972E873EC1C16C55EECF26A8BB67B60B136DD0CA2E1C6565AD7 DUP8 DUP10 PUSH2 0x100 ADD CALLDATALOAD DUP11 PUSH1 0xE0 ADD PUSH1 0x20 DUP2 ADD SWAP1 PUSH2 0x1659 SWAP2 SWAP1 PUSH2 0x3B0B JUMP JUMPDEST DUP12 PUSH1 0x40 ADD PUSH1 0x20 DUP2 ADD SWAP1 PUSH2 0x166C SWAP2 SWAP1 PUSH2 0x3B0B JUMP JUMPDEST DUP10 DUP10 DUP16 PUSH1 0x40 ADD CALLDATALOAD PUSH1 0x40 MLOAD PUSH2 0x1686 SWAP8 SWAP7 SWAP6 SWAP5 SWAP4 SWAP3 SWAP2 SWAP1 PUSH2 0x4716 JUMP JUMPDEST PUSH1 0x40 MLOAD DUP1 SWAP2 SUB SWAP1 LOG4 POP POP POP POP PUSH2 0x169A PUSH2 0x2B81 JUMP JUMPDEST POP POP JUMP JUMPDEST PUSH1 0x3 PUSH1 0x0 SWAP1 SLOAD SWAP1 PUSH2 0x100 EXP SWAP1 DIV PUSH20 0xFFFFFFFFFFFFFFFFFFFFFFFFFFFFFFFFFFFFFFFF AND DUP2 JUMP JUMPDEST PUSH1 0x0 DUP3 DUP3 SWAP1 POP GT PUSH2 0x170A JUMPI PUSH1 0x40 MLOAD PUSH32 0x8C379A000000000000000000000000000000000000000000000000000000000 DUP2 MSTORE PUSH1 0x4 ADD PUSH2 0x1701 SWAP1 PUSH2 0x493E JUMP JUMPDEST PUSH1 0x40 MLOAD DUP1 SWAP2 SUB SWAP1 REVERT JUMPDEST PUSH1 0x0 JUMPDEST DUP3 DUP3 SWAP1 POP DUP2 LT ISZERO PUSH2 0x1848 JUMPI PUSH1 0x7 PUSH1 0x0 CALLER PUSH20 0xFFFFFFFFFFFFFFFFFFFFFFFFFFFFFFFFFFFFFFFF AND PUSH20 0xFFFFFFFFFFFFFFFFFFFFFFFFFFFFFFFFFFFFFFFF AND DUP2 MSTORE PUSH1 0x20 ADD SWAP1 DUP2 MSTORE PUSH1 0x20 ADD PUSH1 0x0 KECCAK256 SLOAD DUP4 DUP4 DUP4 DUP2 DUP2 LT PUSH2 0x176B JUMPI PUSH2 0x176A PUSH2 0x495E JUMP JUMPDEST JUMPDEST SWAP1 POP PUSH1 0x20 MUL ADD CALLDATALOAD LT ISZERO PUSH2 0x17B3 JUMPI PUSH1 0x40 MLOAD PUSH32 0x8C379A000000000000000000000000000000000000000000000000000000000 DUP2 MSTORE PUSH1 0x4 ADD PUSH2 0x17AA SWAP1 PUSH2 0x49D9 JUMP JUMPDEST PUSH1 0x40 MLOAD DUP1 SWAP2 SUB SWAP1 REVERT JUMPDEST PUSH1 0x1 PUSH1 0x8 PUSH1 0x0 CALLER PUSH20 0xFFFFFFFFFFFFFFFFFFFFFFFFFFFFFFFFFFFFFFFF AND PUSH20 0xFFFFFFFFFFFFFFFFFFFFFFFFFFFFFFFFFFFFFFFF AND DUP2 MSTORE PUSH1 0x20 ADD SWAP1 DUP2 MSTORE PUSH1 0x20 ADD PUSH1 0x0 KECCAK256 PUSH1 0x0 DUP6 DUP6 DUP6 DUP2 DUP2 LT PUSH2 0x1809 JUMPI PUSH2 0x1808 PUSH2 0x495E JUMP JUMPDEST JUMPDEST SWAP1 POP PUSH1 0x20 MUL ADD CALLDATALOAD DUP2 MSTORE PUSH1 0x20 ADD SWAP1 DUP2 MSTORE PUSH1 0x20 ADD PUSH1 0x0 KECCAK256 PUSH1 0x0 PUSH2 0x100 EXP DUP2 SLOAD DUP2 PUSH1 0xFF MUL NOT AND SWAP1 DUP4 ISZERO ISZERO MUL OR SWAP1 SSTORE POP DUP1 DUP1 PUSH2 0x1840 SWAP1 PUSH2 0x49F9 JUMP JUMPDEST SWAP2 POP POP PUSH2 0x170D JUMP JUMPDEST POP CALLER PUSH20 0xFFFFFFFFFFFFFFFFFFFFFFFFFFFFFFFFFFFFFFFF AND PUSH32 0xFA0AE5D80FE3763C880A3839FAB0294171A6F730D1F82C4CD5392C6F67B41732 DUP4 DUP4 PUSH1 0x40 MLOAD PUSH2 0x1891 SWAP3 SWAP2 SWAP1 PUSH2 0x4ABC JUMP JUMPDEST PUSH1 0x40 MLOAD DUP1 SWAP2 SUB SWAP1 LOG2 POP POP JUMP JUMPDEST PUSH32 0x0 DUP2 JUMP JUMPDEST PUSH2 0x18C9 PUSH2 0x2B8B JUMP JUMPDEST PUSH1 0x0 PUSH20 0xFFFFFFFFFFFFFFFFFFFFFFFFFFFFFFFFFFFFFFFF AND DUP2 PUSH20 0xFFFFFFFFFFFFFFFFFFFFFFFFFFFFFFFFFFFFFFFF AND SUB PUSH2 0x1938 JUMPI PUSH1 0x40 MLOAD PUSH32 0x8C379A000000000000000000000000000000000000000000000000000000000 DUP2 MSTORE PUSH1 0x4 ADD PUSH2 0x192F SWAP1 PUSH2 0x4866 JUMP JUMPDEST PUSH1 0x40 MLOAD DUP1 SWAP2 SUB SWAP1 REVERT JUMPDEST DUP1 PUSH1 0x3 PUSH1 0x0 PUSH2 0x100 EXP DUP2 SLOAD DUP2 PUSH20 0xFFFFFFFFFFFFFFFFFFFFFFFFFFFFFFFFFFFFFFFF MUL NOT AND SWAP1 DUP4 PUSH20 0xFFFFFFFFFFFFFFFFFFFFFFFFFFFFFFFFFFFFFFFF AND MUL OR SWAP1 SSTORE POP DUP1 PUSH20 0xFFFFFFFFFFFFFFFFFFFFFFFFFFFFFFFFFFFFFFFF AND PUSH32 0x2C3E29F8B5D22D1CFA8497A6C45621ED49F95178416C7EF3EE1C2193C8812EB4 PUSH1 0x40 MLOAD PUSH1 0x40 MLOAD DUP1 SWAP2 SUB SWAP1 LOG2 POP JUMP JUMPDEST PUSH2 0x19C7 PUSH2 0x2B8B JUMP JUMPDEST PUSH1 0x0 PUSH20 0xFFFFFFFFFFFFFFFFFFFFFFFFFFFFFFFFFFFFFFFF AND DUP2 PUSH20 0xFFFFFFFFFFFFFFFFFFFFFFFFFFFFFFFFFFFFFFFF AND SUB PUSH2 0x1A36 JUMPI PUSH1 0x40 MLOAD PUSH32 0x8C379A000000000000000000000000000000000000000000000000000000000 DUP2 MSTORE PUSH1 0x4 ADD PUSH2 0x1A2D SWAP1 PUSH2 0x4866 JUMP JUMPDEST PUSH1 0x40 MLOAD DUP1 SWAP2 SUB SWAP1 REVERT JUMPDEST DUP1 PUSH1 0x4 PUSH1 0x0 PUSH2 0x100 EXP DUP2 SLOAD DUP2 PUSH20 0xFFFFFFFFFFFFFFFFFFFFFFFFFFFFFFFFFFFFFFFF MUL NOT AND SWAP1 DUP4 PUSH20 0xFFFFFFFFFFFFFFFFFFFFFFFFFFFFFFFFFFFFFFFF AND MUL OR SWAP1 SSTORE POP DUP1 PUSH20 0xFFFFFFFFFFFFFFFFFFFFFFFFFFFFFFFFFFFFFFFF AND PUSH32 0x418A3785AC5FD0D0B92E92D1E814233310678C13B024A3741D41C6DB3C803FC3 PUSH1 0x40 MLOAD PUSH1 0x40 MLOAD DUP1 SWAP2 SUB SWAP1 LOG2 POP JUMP JUMPDEST PUSH4 0x80AC58CD PUSH1 0xE0 SHL DUP2 JUMP JUMPDEST PUSH2 0x1AD0 PUSH2 0x2B8B JUMP JUMPDEST PUSH1 0x0 PUSH20 0xFFFFFFFFFFFFFFFFFFFFFFFFFFFFFFFFFFFFFFFF AND DUP2 PUSH20 0xFFFFFFFFFFFFFFFFFFFFFFFFFFFFFFFFFFFFFFFF AND SUB PUSH2 0x1B3F JUMPI PUSH1 0x40 MLOAD PUSH32 0x8C379A000000000000000000000000000000000000000000000000000000000 DUP2 MSTORE PUSH1 0x4 ADD PUSH2 0x1B36 SWAP1 PUSH2 0x4866 JUMP JUMPDEST PUSH1 0x40 MLOAD DUP1 SWAP2 SUB SWAP1 REVERT JUMPDEST DUP1 PUSH1 0x5 PUSH1 0x0 PUSH2 0x100 EXP DUP2 SLOAD DUP2 PUSH20 0xFFFFFFFFFFFFFFFFFFFFFFFFFFFFFFFFFFFFFFFF MUL NOT AND SWAP1 DUP4 PUSH20 0xFFFFFFFFFFFFFFFFFFFFFFFFFFFFFFFFFFFFFFFF AND MUL OR SWAP1 SSTORE POP DUP1 PUSH20 0xFFFFFFFFFFFFFFFFFFFFFFFFFFFFFFFFFFFFFFFF AND PUSH32 0x23E4135208439EE9F05D104DAF57025AC32A6842326405D76852F0434085E933 PUSH1 0x40 MLOAD PUSH1 0x40 MLOAD DUP1 SWAP2 SUB SWAP1 LOG2 POP JUMP JUMPDEST PUSH1 0x4 PUSH1 0x0 SWAP1 SLOAD SWAP1 PUSH2 0x100 EXP SWAP1 DIV PUSH20 0xFFFFFFFFFFFFFFFFFFFFFFFFFFFFFFFFFFFFFFFF AND DUP2 JUMP JUMPDEST PUSH1 0x5 PUSH1 0x0 SWAP1 SLOAD SWAP1 PUSH2 0x100 EXP SWAP1 DIV PUSH20 0xFFFFFFFFFFFFFFFFFFFFFFFFFFFFFFFFFFFFFFFF AND DUP2 JUMP JUMPDEST PUSH2 0x1C1A PUSH2 0x2B8B JUMP JUMPDEST PUSH1 0x0 PUSH20 0xFFFFFFFFFFFFFFFFFFFFFFFFFFFFFFFFFFFFFFFF AND DUP2 PUSH20 0xFFFFFFFFFFFFFFFFFFFFFFFFFFFFFFFFFFFFFFFF AND SUB PUSH2 0x1C89 JUMPI PUSH1 0x40 MLOAD PUSH32 0x8C379A000000000000000000000000000000000000000000000000000000000 DUP2 MSTORE PUSH1 0x4 ADD PUSH2 0x1C80 SWAP1 PUSH2 0x4B52 JUMP JUMPDEST PUSH1 0x40 MLOAD DUP1 SWAP2 SUB SWAP1 REVERT JUMPDEST PUSH2 0x1C92 DUP2 PUSH2 0x2EE9 JUMP JUMPDEST POP JUMP JUMPDEST PUSH2 0x1C9D PUSH2 0x20D6 JUMP JUMPDEST DUP1 PUSH1 0x0 ADD PUSH1 0x20 DUP2 ADD SWAP1 PUSH2 0x1CB0 SWAP2 SWAP1 PUSH2 0x3E6E JUMP JUMPDEST DUP1 ISZERO PUSH2 0x1CCC JUMPI POP DUP2 PUSH1 0x0 ADD PUSH1 0x20 DUP2 ADD SWAP1 PUSH2 0x1CCA SWAP2 SWAP1 PUSH2 0x3E6E JUMP JUMPDEST ISZERO JUMPDEST PUSH2 0x1D0B JUMPI PUSH1 0x40 MLOAD PUSH32 0x8C379A000000000000000000000000000000000000000000000000000000000 DUP2 MSTORE PUSH1 0x4 ADD PUSH2 0x1D02 SWAP1 PUSH2 0x3EF8 JUMP JUMPDEST PUSH1 0x40 MLOAD DUP1 SWAP2 SUB SWAP1 REVERT JUMPDEST DUP2 PUSH1 0x20 ADD PUSH1 0x20 DUP2 ADD SWAP1 PUSH2 0x1D1E SWAP2 SWAP1 PUSH2 0x3B0B JUMP JUMPDEST PUSH20 0xFFFFFFFFFFFFFFFFFFFFFFFFFFFFFFFFFFFFFFFF AND CALLER PUSH20 0xFFFFFFFFFFFFFFFFFFFFFFFFFFFFFFFFFFFFFFFF AND EQ PUSH2 0x1D8B JUMPI PUSH1 0x40 MLOAD PUSH32 0x8C379A000000000000000000000000000000000000000000000000000000000 DUP2 MSTORE PUSH1 0x4 ADD PUSH2 0x1D82 SWAP1 PUSH2 0x3FD0 JUMP JUMPDEST PUSH1 0x40 MLOAD DUP1 SWAP2 SUB SWAP1 REVERT JUMPDEST CALLVALUE DUP3 PUSH1 0x40 ADD CALLDATALOAD EQ PUSH2 0x1DD1 JUMPI PUSH1 0x40 MLOAD PUSH32 0x8C379A000000000000000000000000000000000000000000000000000000000 DUP2 MSTORE PUSH1 0x4 ADD PUSH2 0x1DC8 SWAP1 PUSH2 0x4BBE JUMP JUMPDEST PUSH1 0x40 MLOAD DUP1 SWAP2 SUB SWAP1 REVERT JUMPDEST PUSH1 0x0 PUSH2 0x1DEC DUP3 DUP1 CALLDATASIZE SUB DUP2 ADD SWAP1 PUSH2 0x1DE7 SWAP2 SWAP1 PUSH2 0x4303 JUMP JUMPDEST PUSH2 0x21AE JUMP JUMPDEST SWAP1 POP PUSH2 0x1DF8 DUP3 DUP3 PUSH2 0x2246 JUMP JUMPDEST PUSH1 0x0 DUP1 PUSH1 0x0 DUP5 PUSH1 0xC0 ADD PUSH1 0x20 DUP2 ADD SWAP1 PUSH2 0x1E10 SWAP2 SWAP1 PUSH2 0x3B0B JUMP JUMPDEST PUSH20 0xFFFFFFFFFFFFFFFFFFFFFFFFFFFFFFFFFFFFFFFF AND PUSH4 0xFCEB5D6C DUP8 DUP8 PUSH1 0x40 MLOAD DUP4 PUSH4 0xFFFFFFFF AND PUSH1 0xE0 SHL DUP2 MSTORE PUSH1 0x4 ADD PUSH2 0x1E4A SWAP3 SWAP2 SWAP1 PUSH2 0x45F4 JUMP JUMPDEST PUSH1 0x60 PUSH1 0x40 MLOAD DUP1 DUP4 SUB DUP2 DUP7 GAS STATICCALL ISZERO DUP1 ISZERO PUSH2 0x1E67 JUMPI RETURNDATASIZE PUSH1 0x0 DUP1 RETURNDATACOPY RETURNDATASIZE PUSH1 0x0 REVERT JUMPDEST POP POP POP POP PUSH1 0x40 MLOAD RETURNDATASIZE PUSH1 0x1F NOT PUSH1 0x1F DUP3 ADD AND DUP3 ADD DUP1 PUSH1 0x40 MSTORE POP DUP2 ADD SWAP1 PUSH2 0x1E8B SWAP2 SWAP1 PUSH2 0x4648 JUMP JUMPDEST SWAP3 POP SWAP3 POP SWAP3 POP DUP3 PUSH2 0x1ED1 JUMPI PUSH1 0x40 MLOAD PUSH32 0x8C379A000000000000000000000000000000000000000000000000000000000 DUP2 MSTORE PUSH1 0x4 ADD PUSH2 0x1EC8 SWAP1 PUSH2 0x46E7 JUMP JUMPDEST PUSH1 0x40 MLOAD DUP1 SWAP2 SUB SWAP1 REVERT JUMPDEST PUSH1 0x1 PUSH1 0x8 PUSH1 0x0 DUP8 PUSH1 0x20 ADD PUSH1 0x20 DUP2 ADD SWAP1 PUSH2 0x1EEA SWAP2 SWAP1 PUSH2 0x3B0B JUMP JUMPDEST PUSH20 0xFFFFFFFFFFFFFFFFFFFFFFFFFFFFFFFFFFFFFFFF AND PUSH20 0xFFFFFFFFFFFFFFFFFFFFFFFFFFFFFFFFFFFFFFFF AND DUP2 MSTORE PUSH1 0x20 ADD SWAP1 DUP2 MSTORE PUSH1 0x20 ADD PUSH1 0x0 KECCAK256 PUSH1 0x0 DUP8 PUSH2 0x100 ADD CALLDATALOAD DUP2 MSTORE PUSH1 0x20 ADD SWAP1 DUP2 MSTORE PUSH1 0x20 ADD PUSH1 0x0 KECCAK256 PUSH1 0x0 PUSH2 0x100 EXP DUP2 SLOAD DUP2 PUSH1 0xFF MUL NOT AND SWAP1 DUP4 ISZERO ISZERO MUL OR SWAP1 SSTORE POP PUSH2 0x1F98 DUP6 PUSH1 0xC0 ADD PUSH1 0x20 DUP2 ADD SWAP1 PUSH2 0x1F67 SWAP2 SWAP1 PUSH2 0x3B0B JUMP JUMPDEST DUP7 PUSH1 0x40 ADD PUSH1 0x20 DUP2 ADD SWAP1 PUSH2 0x1F7A SWAP2 SWAP1 PUSH2 0x3B0B JUMP JUMPDEST DUP5 DUP9 PUSH1 0x20 ADD PUSH1 0x20 DUP2 ADD SWAP1 PUSH2 0x1F8E SWAP2 SWAP1 PUSH2 0x3B0B JUMP JUMPDEST DUP11 PUSH1 0x40 ADD CALLDATALOAD PUSH2 0x2FAF JUMP JUMPDEST PUSH2 0x1FDB DUP6 PUSH1 0x40 ADD PUSH1 0x20 DUP2 ADD SWAP1 PUSH2 0x1FAE SWAP2 SWAP1 PUSH2 0x3B0B JUMP JUMPDEST DUP7 PUSH1 0x20 ADD PUSH1 0x20 DUP2 ADD SWAP1 PUSH2 0x1FC1 SWAP2 SWAP1 PUSH2 0x3B0B JUMP JUMPDEST DUP9 PUSH1 0x20 ADD PUSH1 0x20 DUP2 ADD SWAP1 PUSH2 0x1FD4 SWAP2 SWAP1 PUSH2 0x3B0B JUMP JUMPDEST DUP6 DUP6 PUSH2 0x29F7 JUMP JUMPDEST DUP5 PUSH1 0xC0 ADD PUSH1 0x20 DUP2 ADD SWAP1 PUSH2 0x1FEE SWAP2 SWAP1 PUSH2 0x3B0B JUMP JUMPDEST PUSH20 0xFFFFFFFFFFFFFFFFFFFFFFFFFFFFFFFFFFFFFFFF AND DUP6 PUSH1 0x20 ADD PUSH1 0x20 DUP2 ADD SWAP1 PUSH2 0x2017 SWAP2 SWAP1 PUSH2 0x3B0B JUMP JUMPDEST PUSH20 0xFFFFFFFFFFFFFFFFFFFFFFFFFFFFFFFFFFFFFFFF AND DUP8 PUSH1 0x20 ADD PUSH1 0x20 DUP2 ADD SWAP1 PUSH2 0x2040 SWAP2 SWAP1 PUSH2 0x3B0B JUMP JUMPDEST PUSH20 0xFFFFFFFFFFFFFFFFFFFFFFFFFFFFFFFFFFFFFFFF AND PUSH32 0x50D3C79A72ACF972E873EC1C16C55EECF26A8BB67B60B136DD0CA2E1C6565AD7 DUP8 DUP10 PUSH2 0x100 ADD CALLDATALOAD DUP11 PUSH1 0xE0 ADD PUSH1 0x20 DUP2 ADD SWAP1 PUSH2 0x2091 SWAP2 SWAP1 PUSH2 0x3B0B JUMP JUMPDEST DUP12 PUSH1 0x40 ADD PUSH1 0x20 DUP2 ADD SWAP1 PUSH2 0x20A4 SWAP2 SWAP1 PUSH2 0x3B0B JUMP JUMPDEST DUP10 DUP10 DUP16 PUSH1 0x40 ADD CALLDATALOAD PUSH1 0x40 MLOAD PUSH2 0x20BE SWAP8 SWAP7 SWAP6 SWAP5 SWAP4 SWAP3 SWAP2 SWAP1 PUSH2 0x4716 JUMP JUMPDEST PUSH1 0x40 MLOAD DUP1 SWAP2 SUB SWAP1 LOG4 POP POP POP POP PUSH2 0x20D2 PUSH2 0x2B81 JUMP JUMPDEST POP POP JUMP JUMPDEST PUSH1 0x2 PUSH1 0x0 SLOAD SUB PUSH2 0x211B JUMPI PUSH1 0x40 MLOAD PUSH32 0x8C379A000000000000000000000000000000000000000000000000000000000 DUP2 MSTORE PUSH1 0x4 ADD PUSH2 0x2112 SWAP1 PUSH2 0x4C2A JUMP JUMPDEST PUSH1 0x40 MLOAD DUP1 SWAP2 SUB SWAP1 REVERT JUMPDEST PUSH1 0x2 PUSH1 0x0 DUP2 SWAP1 SSTORE POP JUMP JUMPDEST PUSH2 0x21A8 DUP5 PUSH4 0x23B872DD PUSH1 0xE0 SHL DUP6 DUP6 DUP6 PUSH1 0x40 MLOAD PUSH1 0x24 ADD PUSH2 0x2146 SWAP4 SWAP3 SWAP2 SWAP1 PUSH2 0x4C4A JUMP JUMPDEST PUSH1 0x40 MLOAD PUSH1 0x20 DUP2 DUP4 SUB SUB DUP2 MSTORE SWAP1 PUSH1 0x40 MSTORE SWAP1 PUSH28 0xFFFFFFFFFFFFFFFFFFFFFFFFFFFFFFFFFFFFFFFFFFFFFFFFFFFFFFFF NOT AND PUSH1 0x20 DUP3 ADD DUP1 MLOAD PUSH28 0xFFFFFFFFFFFFFFFFFFFFFFFFFFFFFFFFFFFFFFFFFFFFFFFFFFFFFFFF DUP4 DUP2 DUP4 AND OR DUP4 MSTORE POP POP POP POP PUSH2 0x3227 JUMP JUMPDEST POP POP POP POP JUMP JUMPDEST PUSH1 0x0 PUSH32 0x821B23108860B2262FA623D45A26073021DCB49A4AD5E89488E070794630832A PUSH1 0x0 SHL DUP3 PUSH1 0x0 ADD MLOAD DUP4 PUSH1 0x20 ADD MLOAD DUP5 PUSH1 0x40 ADD MLOAD DUP6 PUSH1 0x60 ADD MLOAD DUP7 PUSH1 0x80 ADD MLOAD DUP8 PUSH1 0xA0 ADD MLOAD DUP9 PUSH1 0xC0 ADD MLOAD DUP10 PUSH1 0xE0 ADD MLOAD DUP11 PUSH2 0x100 ADD MLOAD DUP12 PUSH2 0x120 ADD MLOAD DUP13 PUSH2 0x140 ADD MLOAD PUSH1 0x40 MLOAD PUSH1 0x20 ADD PUSH2 0x2229 SWAP13 SWAP12 SWAP11 SWAP10 SWAP9 SWAP8 SWAP7 SWAP6 SWAP5 SWAP4 SWAP3 SWAP2 SWAP1 PUSH2 0x4C81 JUMP JUMPDEST PUSH1 0x40 MLOAD PUSH1 0x20 DUP2 DUP4 SUB SUB DUP2 MSTORE SWAP1 PUSH1 0x40 MSTORE DUP1 MLOAD SWAP1 PUSH1 0x20 ADD KECCAK256 SWAP1 POP SWAP2 SWAP1 POP JUMP JUMPDEST PUSH1 0x8 PUSH1 0x0 DUP4 PUSH1 0x20 ADD PUSH1 0x20 DUP2 ADD SWAP1 PUSH2 0x225D SWAP2 SWAP1 PUSH2 0x3B0B JUMP JUMPDEST PUSH20 0xFFFFFFFFFFFFFFFFFFFFFFFFFFFFFFFFFFFFFFFF AND PUSH20 0xFFFFFFFFFFFFFFFFFFFFFFFFFFFFFFFFFFFFFFFF AND DUP2 MSTORE PUSH1 0x20 ADD SWAP1 DUP2 MSTORE PUSH1 0x20 ADD PUSH1 0x0 KECCAK256 PUSH1 0x0 DUP4 PUSH2 0x100 ADD CALLDATALOAD DUP2 MSTORE PUSH1 0x20 ADD SWAP1 DUP2 MSTORE PUSH1 0x20 ADD PUSH1 0x0 KECCAK256 PUSH1 0x0 SWAP1 SLOAD SWAP1 PUSH2 0x100 EXP SWAP1 DIV PUSH1 0xFF AND ISZERO DUP1 ISZERO PUSH2 0x231E JUMPI POP PUSH1 0x7 PUSH1 0x0 DUP4 PUSH1 0x20 ADD PUSH1 0x20 DUP2 ADD SWAP1 PUSH2 0x22DA SWAP2 SWAP1 PUSH2 0x3B0B JUMP JUMPDEST PUSH20 0xFFFFFFFFFFFFFFFFFFFFFFFFFFFFFFFFFFFFFFFF AND PUSH20 0xFFFFFFFFFFFFFFFFFFFFFFFFFFFFFFFFFFFFFFFF AND DUP2 MSTORE PUSH1 0x20 ADD SWAP1 DUP2 MSTORE PUSH1 0x20 ADD PUSH1 0x0 KECCAK256 SLOAD DUP3 PUSH2 0x100 ADD CALLDATALOAD LT ISZERO JUMPDEST PUSH2 0x235D JUMPI PUSH1 0x40 MLOAD PUSH32 0x8C379A000000000000000000000000000000000000000000000000000000000 DUP2 MSTORE PUSH1 0x4 ADD PUSH2 0x2354 SWAP1 PUSH2 0x4D87 JUMP JUMPDEST PUSH1 0x40 MLOAD DUP1 SWAP2 SUB SWAP1 REVERT JUMPDEST PUSH1 0x0 PUSH20 0xFFFFFFFFFFFFFFFFFFFFFFFFFFFFFFFFFFFFFFFF AND DUP3 PUSH1 0x20 ADD PUSH1 0x20 DUP2 ADD SWAP1 PUSH2 0x2388 SWAP2 SWAP1 PUSH2 0x3B0B JUMP JUMPDEST PUSH20 0xFFFFFFFFFFFFFFFFFFFFFFFFFFFFFFFFFFFFFFFF AND SUB PUSH2 0x23DE JUMPI PUSH1 0x40 MLOAD PUSH32 0x8C379A000000000000000000000000000000000000000000000000000000000 DUP2 MSTORE PUSH1 0x4 ADD PUSH2 0x23D5 SWAP1 PUSH2 0x4DF3 JUMP JUMPDEST PUSH1 0x40 MLOAD DUP1 SWAP2 SUB SWAP1 REVERT JUMPDEST PUSH1 0x0 DUP3 PUSH1 0x80 ADD CALLDATALOAD GT PUSH2 0x2425 JUMPI PUSH1 0x40 MLOAD PUSH32 0x8C379A000000000000000000000000000000000000000000000000000000000 DUP2 MSTORE PUSH1 0x4 ADD PUSH2 0x241C SWAP1 PUSH2 0x4E5F JUMP JUMPDEST PUSH1 0x40 MLOAD DUP1 SWAP2 SUB SWAP1 REVERT JUMPDEST PUSH2 0x2482 DUP2 DUP4 PUSH1 0x20 ADD PUSH1 0x20 DUP2 ADD SWAP1 PUSH2 0x243C SWAP2 SWAP1 PUSH2 0x3B0B JUMP JUMPDEST DUP5 PUSH2 0x160 ADD PUSH1 0x20 DUP2 ADD SWAP1 PUSH2 0x2450 SWAP2 SWAP1 PUSH2 0x4E7F JUMP JUMPDEST DUP6 PUSH2 0x180 ADD CALLDATALOAD DUP7 PUSH2 0x1A0 ADD CALLDATALOAD PUSH32 0x0 PUSH2 0x32EE JUMP JUMPDEST PUSH2 0x24C1 JUMPI PUSH1 0x40 MLOAD PUSH32 0x8C379A000000000000000000000000000000000000000000000000000000000 DUP2 MSTORE PUSH1 0x4 ADD PUSH2 0x24B8 SWAP1 PUSH2 0x4EF8 JUMP JUMPDEST PUSH1 0x40 MLOAD DUP1 SWAP2 SUB SWAP1 REVERT JUMPDEST PUSH1 0x3 PUSH1 0x0 SWAP1 SLOAD SWAP1 PUSH2 0x100 EXP SWAP1 DIV PUSH20 0xFFFFFFFFFFFFFFFFFFFFFFFFFFFFFFFFFFFFFFFF AND PUSH20 0xFFFFFFFFFFFFFFFFFFFFFFFFFFFFFFFFFFFFFFFF AND PUSH4 0xB5AF090F DUP4 PUSH1 0xE0 ADD PUSH1 0x20 DUP2 ADD SWAP1 PUSH2 0x2512 SWAP2 SWAP1 PUSH2 0x3B0B JUMP JUMPDEST PUSH1 0x40 MLOAD DUP3 PUSH4 0xFFFFFFFF AND PUSH1 0xE0 SHL DUP2 MSTORE PUSH1 0x4 ADD PUSH2 0x252E SWAP2 SWAP1 PUSH2 0x3CC1 JUMP JUMPDEST PUSH1 0x20 PUSH1 0x40 MLOAD DUP1 DUP4 SUB DUP2 DUP7 GAS STATICCALL ISZERO DUP1 ISZERO PUSH2 0x254B JUMPI RETURNDATASIZE PUSH1 0x0 DUP1 RETURNDATACOPY RETURNDATASIZE PUSH1 0x0 REVERT JUMPDEST POP POP POP POP PUSH1 0x40 MLOAD RETURNDATASIZE PUSH1 0x1F NOT PUSH1 0x1F DUP3 ADD AND DUP3 ADD DUP1 PUSH1 0x40 MSTORE POP DUP2 ADD SWAP1 PUSH2 0x256F SWAP2 SWAP1 PUSH2 0x4F18 JUMP JUMPDEST PUSH2 0x25AE JUMPI PUSH1 0x40 MLOAD PUSH32 0x8C379A000000000000000000000000000000000000000000000000000000000 DUP2 MSTORE PUSH1 0x4 ADD PUSH2 0x25A5 SWAP1 PUSH2 0x4F91 JUMP JUMPDEST PUSH1 0x40 MLOAD DUP1 SWAP2 SUB SWAP1 REVERT JUMPDEST PUSH1 0x4 PUSH1 0x0 SWAP1 SLOAD SWAP1 PUSH2 0x100 EXP SWAP1 DIV PUSH20 0xFFFFFFFFFFFFFFFFFFFFFFFFFFFFFFFFFFFFFFFF AND PUSH20 0xFFFFFFFFFFFFFFFFFFFFFFFFFFFFFFFFFFFFFFFF AND PUSH4 0x9387BBD4 DUP4 PUSH1 0xC0 ADD PUSH1 0x20 DUP2 ADD SWAP1 PUSH2 0x25FF SWAP2 SWAP1 PUSH2 0x3B0B JUMP JUMPDEST PUSH1 0x40 MLOAD DUP3 PUSH4 0xFFFFFFFF AND PUSH1 0xE0 SHL DUP2 MSTORE PUSH1 0x4 ADD PUSH2 0x261B SWAP2 SWAP1 PUSH2 0x3CC1 JUMP JUMPDEST PUSH1 0x20 PUSH1 0x40 MLOAD DUP1 DUP4 SUB DUP2 DUP7 GAS STATICCALL ISZERO DUP1 ISZERO PUSH2 0x2638 JUMPI RETURNDATASIZE PUSH1 0x0 DUP1 RETURNDATACOPY RETURNDATASIZE PUSH1 0x0 REVERT JUMPDEST POP POP POP POP PUSH1 0x40 MLOAD RETURNDATASIZE PUSH1 0x1F NOT PUSH1 0x1F DUP3 ADD AND DUP3 ADD DUP1 PUSH1 0x40 MSTORE POP DUP2 ADD SWAP1 PUSH2 0x265C SWAP2 SWAP1 PUSH2 0x4F18 JUMP JUMPDEST PUSH2 0x269B JUMPI PUSH1 0x40 MLOAD PUSH32 0x8C379A000000000000000000000000000000000000000000000000000000000 DUP2 MSTORE PUSH1 0x4 ADD PUSH2 0x2692 SWAP1 PUSH2 0x4F91 JUMP JUMPDEST PUSH1 0x40 MLOAD DUP1 SWAP2 SUB SWAP1 REVERT JUMPDEST POP POP JUMP JUMPDEST PUSH1 0x0 DUP2 SWAP1 POP PUSH1 0x0 PUSH2 0x26B0 DUP8 DUP5 PUSH2 0x3441 JUMP JUMPDEST SWAP1 POP PUSH1 0x0 PUSH20 0xFFFFFFFFFFFFFFFFFFFFFFFFFFFFFFFFFFFFFFFF AND PUSH1 0x2 PUSH1 0x0 SWAP1 SLOAD SWAP1 PUSH2 0x100 EXP SWAP1 DIV PUSH20 0xFFFFFFFFFFFFFFFFFFFFFFFFFFFFFFFFFFFFFFFF AND PUSH20 0xFFFFFFFFFFFFFFFFFFFFFFFFFFFFFFFFFFFFFFFF AND EQ ISZERO DUP1 ISZERO PUSH2 0x2712 JUMPI POP PUSH1 0x0 DUP2 EQ ISZERO JUMPDEST ISZERO PUSH2 0x2793 JUMPI PUSH2 0x2784 PUSH1 0x2 PUSH1 0x0 SWAP1 SLOAD SWAP1 PUSH2 0x100 EXP SWAP1 DIV PUSH20 0xFFFFFFFFFFFFFFFFFFFFFFFFFFFFFFFFFFFFFFFF AND DUP3 PUSH32 0x0 PUSH20 0xFFFFFFFFFFFFFFFFFFFFFFFFFFFFFFFFFFFFFFFF AND PUSH2 0x34D7 SWAP1 SWAP3 SWAP2 SWAP1 PUSH4 0xFFFFFFFF AND JUMP JUMPDEST DUP1 DUP3 PUSH2 0x2790 SWAP2 SWAP1 PUSH2 0x401F JUMP JUMPDEST SWAP2 POP JUMPDEST POP PUSH1 0x0 DUP1 PUSH1 0x5 PUSH1 0x0 SWAP1 SLOAD SWAP1 PUSH2 0x100 EXP SWAP1 DIV PUSH20 0xFFFFFFFFFFFFFFFFFFFFFFFFFFFFFFFFFFFFFFFF AND PUSH20 0xFFFFFFFFFFFFFFFFFFFFFFFFFFFFFFFFFFFFFFFF AND PUSH4 0x40E7B540 DUP9 DUP9 DUP8 PUSH1 0x40 MLOAD DUP5 PUSH4 0xFFFFFFFF AND PUSH1 0xE0 SHL DUP2 MSTORE PUSH1 0x4 ADD PUSH2 0x27F6 SWAP4 SWAP3 SWAP2 SWAP1 PUSH2 0x4FB1 JUMP JUMPDEST PUSH1 0x40 DUP1 MLOAD DUP1 DUP4 SUB DUP2 DUP7 GAS STATICCALL ISZERO DUP1 ISZERO PUSH2 0x2812 JUMPI RETURNDATASIZE PUSH1 0x0 DUP1 RETURNDATACOPY RETURNDATASIZE PUSH1 0x0 REVERT JUMPDEST POP POP POP POP PUSH1 0x40 MLOAD RETURNDATASIZE PUSH1 0x1F NOT PUSH1 0x1F DUP3 ADD AND DUP3 ADD DUP1 PUSH1 0x40 MSTORE POP DUP2 ADD SWAP1 PUSH2 0x2836 SWAP2 SWAP1 PUSH2 0x4FFD JUMP JUMPDEST SWAP2 POP SWAP2 POP PUSH1 0x0 PUSH20 0xFFFFFFFFFFFFFFFFFFFFFFFFFFFFFFFFFFFFFFFF AND DUP3 PUSH20 0xFFFFFFFFFFFFFFFFFFFFFFFFFFFFFFFFFFFFFFFF AND EQ ISZERO DUP1 ISZERO PUSH2 0x2878 JUMPI POP PUSH1 0x0 DUP2 EQ ISZERO JUMPDEST ISZERO PUSH2 0x295F JUMPI PUSH2 0x28C8 DUP3 DUP3 PUSH32 0x0 PUSH20 0xFFFFFFFFFFFFFFFFFFFFFFFFFFFFFFFFFFFFFFFF AND PUSH2 0x34D7 SWAP1 SWAP3 SWAP2 SWAP1 PUSH4 0xFFFFFFFF AND JUMP JUMPDEST DUP1 DUP4 PUSH2 0x28D4 SWAP2 SWAP1 PUSH2 0x401F JUMP JUMPDEST SWAP3 POP DUP2 PUSH20 0xFFFFFFFFFFFFFFFFFFFFFFFFFFFFFFFFFFFFFFFF AND DUP7 DUP9 PUSH20 0xFFFFFFFFFFFFFFFFFFFFFFFFFFFFFFFFFFFFFFFF AND PUSH32 0x27C4F0403323142B599832F26ACD21C74A9E5B809F2215726E244A4AC588CD7D PUSH32 0x0 DUP6 PUSH1 0x40 MLOAD PUSH2 0x2956 SWAP3 SWAP2 SWAP1 PUSH2 0x503D JUMP JUMPDEST PUSH1 0x40 MLOAD DUP1 SWAP2 SUB SWAP1 LOG4 JUMPDEST POP POP PUSH1 0x0 DUP2 GT PUSH2 0x29A4 JUMPI PUSH1 0x40 MLOAD PUSH32 0x8C379A000000000000000000000000000000000000000000000000000000000 DUP2 MSTORE PUSH1 0x4 ADD PUSH2 0x299B SWAP1 PUSH2 0x50D8 JUMP JUMPDEST PUSH1 0x40 MLOAD DUP1 SWAP2 SUB SWAP1 REVERT JUMPDEST PUSH2 0x29EF DUP4 DUP3 PUSH32 0x0 PUSH20 0xFFFFFFFFFFFFFFFFFFFFFFFFFFFFFFFFFFFFFFFF AND PUSH2 0x34D7 SWAP1 SWAP3 SWAP2 SWAP1 PUSH4 0xFFFFFFFF AND JUMP JUMPDEST POP POP POP POP POP POP JUMP JUMPDEST PUSH1 0x0 PUSH1 0x6 PUSH1 0x0 SWAP1 SLOAD SWAP1 PUSH2 0x100 EXP SWAP1 DIV PUSH20 0xFFFFFFFFFFFFFFFFFFFFFFFFFFFFFFFFFFFFFFFF AND PUSH20 0xFFFFFFFFFFFFFFFFFFFFFFFFFFFFFFFFFFFFFFFF AND PUSH4 0x15F04966 DUP8 PUSH1 0x40 MLOAD DUP3 PUSH4 0xFFFFFFFF AND PUSH1 0xE0 SHL DUP2 MSTORE PUSH1 0x4 ADD PUSH2 0x2A54 SWAP2 SWAP1 PUSH2 0x3CC1 JUMP JUMPDEST PUSH1 0x20 PUSH1 0x40 MLOAD DUP1 DUP4 SUB DUP2 DUP7 GAS STATICCALL ISZERO DUP1 ISZERO PUSH2 0x2A71 JUMPI RETURNDATASIZE PUSH1 0x0 DUP1 RETURNDATACOPY RETURNDATASIZE PUSH1 0x0 REVERT JUMPDEST POP POP POP POP PUSH1 0x40 MLOAD RETURNDATASIZE PUSH1 0x1F NOT PUSH1 0x1F DUP3 ADD AND DUP3 ADD DUP1 PUSH1 0x40 MSTORE POP DUP2 ADD SWAP1 PUSH2 0x2A95 SWAP2 SWAP1 PUSH2 0x50F8 JUMP JUMPDEST SWAP1 POP PUSH1 0x0 PUSH20 0xFFFFFFFFFFFFFFFFFFFFFFFFFFFFFFFFFFFFFFFF AND DUP2 PUSH20 0xFFFFFFFFFFFFFFFFFFFFFFFFFFFFFFFFFFFFFFFF AND SUB PUSH2 0x2B06 JUMPI PUSH1 0x40 MLOAD PUSH32 0x8C379A000000000000000000000000000000000000000000000000000000000 DUP2 MSTORE PUSH1 0x4 ADD PUSH2 0x2AFD SWAP1 PUSH2 0x5171 JUMP JUMPDEST PUSH1 0x40 MLOAD DUP1 SWAP2 SUB SWAP1 REVERT JUMPDEST DUP1 PUSH20 0xFFFFFFFFFFFFFFFFFFFFFFFFFFFFFFFFFFFFFFFF AND PUSH4 0x10F02113 DUP8 DUP8 DUP8 DUP8 DUP8 PUSH1 0x40 MLOAD DUP7 PUSH4 0xFFFFFFFF AND PUSH1 0xE0 SHL DUP2 MSTORE PUSH1 0x4 ADD PUSH2 0x2B47 SWAP6 SWAP5 SWAP4 SWAP3 SWAP2 SWAP1 PUSH2 0x5191 JUMP JUMPDEST PUSH1 0x0 PUSH1 0x40 MLOAD DUP1 DUP4 SUB DUP2 PUSH1 0x0 DUP8 DUP1 EXTCODESIZE ISZERO DUP1 ISZERO PUSH2 0x2B61 JUMPI PUSH1 0x0 DUP1 REVERT JUMPDEST POP GAS CALL ISZERO DUP1 ISZERO PUSH2 0x2B75 JUMPI RETURNDATASIZE PUSH1 0x0 DUP1 RETURNDATACOPY RETURNDATASIZE PUSH1 0x0 REVERT JUMPDEST POP POP POP POP POP POP POP POP POP POP JUMP JUMPDEST PUSH1 0x1 PUSH1 0x0 DUP2 SWAP1 SSTORE POP JUMP JUMPDEST PUSH2 0x2B93 PUSH2 0x355D JUMP JUMPDEST PUSH20 0xFFFFFFFFFFFFFFFFFFFFFFFFFFFFFFFFFFFFFFFF AND PUSH2 0x2BB1 PUSH2 0x1265 JUMP JUMPDEST PUSH20 0xFFFFFFFFFFFFFFFFFFFFFFFFFFFFFFFFFFFFFFFF AND EQ PUSH2 0x2C07 JUMPI PUSH1 0x40 MLOAD PUSH32 0x8C379A000000000000000000000000000000000000000000000000000000000 DUP2 MSTORE PUSH1 0x4 ADD PUSH2 0x2BFE SWAP1 PUSH2 0x5230 JUMP JUMPDEST PUSH1 0x40 MLOAD DUP1 SWAP2 SUB SWAP1 REVERT JUMPDEST JUMP JUMPDEST PUSH1 0x0 DUP2 SWAP1 POP PUSH1 0x0 PUSH2 0x2C1A DUP10 DUP5 PUSH2 0x3441 JUMP JUMPDEST SWAP1 POP PUSH1 0x0 PUSH20 0xFFFFFFFFFFFFFFFFFFFFFFFFFFFFFFFFFFFFFFFF AND PUSH1 0x2 PUSH1 0x0 SWAP1 SLOAD SWAP1 PUSH2 0x100 EXP SWAP1 DIV PUSH20 0xFFFFFFFFFFFFFFFFFFFFFFFFFFFFFFFFFFFFFFFF AND PUSH20 0xFFFFFFFFFFFFFFFFFFFFFFFFFFFFFFFFFFFFFFFF AND EQ ISZERO DUP1 ISZERO PUSH2 0x2C7C JUMPI POP PUSH1 0x0 DUP2 EQ ISZERO JUMPDEST ISZERO PUSH2 0x2CDF JUMPI PUSH2 0x2CD0 DUP6 PUSH1 0x2 PUSH1 0x0 SWAP1 SLOAD SWAP1 PUSH2 0x100 EXP SWAP1 DIV PUSH20 0xFFFFFFFFFFFFFFFFFFFFFFFFFFFFFFFFFFFFFFFF AND DUP4 DUP10 PUSH20 0xFFFFFFFFFFFFFFFFFFFFFFFFFFFFFFFFFFFFFFFF AND PUSH2 0x2125 SWAP1 SWAP4 SWAP3 SWAP2 SWAP1 PUSH4 0xFFFFFFFF AND JUMP JUMPDEST DUP1 DUP3 PUSH2 0x2CDC SWAP2 SWAP1 PUSH2 0x401F JUMP JUMPDEST SWAP2 POP JUMPDEST POP PUSH1 0x0 DUP1 PUSH1 0x5 PUSH1 0x0 SWAP1 SLOAD SWAP1 PUSH2 0x100 EXP SWAP1 DIV PUSH20 0xFFFFFFFFFFFFFFFFFFFFFFFFFFFFFFFFFFFFFFFF AND PUSH20 0xFFFFFFFFFFFFFFFFFFFFFFFFFFFFFFFFFFFFFFFF AND PUSH4 0x40E7B540 DUP11 DUP11 DUP8 PUSH1 0x40 MLOAD DUP5 PUSH4 0xFFFFFFFF AND PUSH1 0xE0 SHL DUP2 MSTORE PUSH1 0x4 ADD PUSH2 0x2D42 SWAP4 SWAP3 SWAP2 SWAP1 PUSH2 0x4FB1 JUMP JUMPDEST PUSH1 0x40 DUP1 MLOAD DUP1 DUP4 SUB DUP2 DUP7 GAS STATICCALL ISZERO DUP1 ISZERO PUSH2 0x2D5E JUMPI RETURNDATASIZE PUSH1 0x0 DUP1 RETURNDATACOPY RETURNDATASIZE PUSH1 0x0 REVERT JUMPDEST POP POP POP POP PUSH1 0x40 MLOAD RETURNDATASIZE PUSH1 0x1F NOT PUSH1 0x1F DUP3 ADD AND DUP3 ADD DUP1 PUSH1 0x40 MSTORE POP DUP2 ADD SWAP1 PUSH2 0x2D82 SWAP2 SWAP1 PUSH2 0x4FFD JUMP JUMPDEST SWAP2 POP SWAP2 POP PUSH1 0x0 PUSH20 0xFFFFFFFFFFFFFFFFFFFFFFFFFFFFFFFFFFFFFFFF AND DUP3 PUSH20 0xFFFFFFFFFFFFFFFFFFFFFFFFFFFFFFFFFFFFFFFF AND EQ ISZERO DUP1 ISZERO PUSH2 0x2DC4 JUMPI POP PUSH1 0x0 DUP2 EQ ISZERO JUMPDEST ISZERO PUSH2 0x2E6D JUMPI PUSH2 0x2DF6 DUP7 DUP4 DUP4 DUP11 PUSH20 0xFFFFFFFFFFFFFFFFFFFFFFFFFFFFFFFFFFFFFFFF AND PUSH2 0x2125 SWAP1 SWAP4 SWAP3 SWAP2 SWAP1 PUSH4 0xFFFFFFFF AND JUMP JUMPDEST DUP1 DUP4 PUSH2 0x2E02 SWAP2 SWAP1 PUSH2 0x401F JUMP JUMPDEST SWAP3 POP DUP2 PUSH20 0xFFFFFFFFFFFFFFFFFFFFFFFFFFFFFFFFFFFFFFFF AND DUP9 DUP11 PUSH20 0xFFFFFFFFFFFFFFFFFFFFFFFFFFFFFFFFFFFFFFFF AND PUSH32 0x27C4F0403323142B599832F26ACD21C74A9E5B809F2215726E244A4AC588CD7D DUP11 DUP6 PUSH1 0x40 MLOAD PUSH2 0x2E64 SWAP3 SWAP2 SWAP1 PUSH2 0x503D JUMP JUMPDEST PUSH1 0x40 MLOAD DUP1 SWAP2 SUB SWAP1 LOG4 JUMPDEST POP POP PUSH1 0x0 DUP2 GT PUSH2 0x2EB2 JUMPI PUSH1 0x40 MLOAD PUSH32 0x8C379A000000000000000000000000000000000000000000000000000000000 DUP2 MSTORE PUSH1 0x4 ADD PUSH2 0x2EA9 SWAP1 PUSH2 0x50D8 JUMP JUMPDEST PUSH1 0x40 MLOAD DUP1 SWAP2 SUB SWAP1 REVERT JUMPDEST PUSH2 0x2EDF DUP5 DUP5 DUP4 DUP9 PUSH20 0xFFFFFFFFFFFFFFFFFFFFFFFFFFFFFFFFFFFFFFFF AND PUSH2 0x2125 SWAP1 SWAP4 SWAP3 SWAP2 SWAP1 PUSH4 0xFFFFFFFF AND JUMP JUMPDEST POP POP POP POP POP POP POP POP JUMP JUMPDEST PUSH1 0x0 PUSH1 0x1 PUSH1 0x0 SWAP1 SLOAD SWAP1 PUSH2 0x100 EXP SWAP1 DIV PUSH20 0xFFFFFFFFFFFFFFFFFFFFFFFFFFFFFFFFFFFFFFFF AND SWAP1 POP DUP2 PUSH1 0x1 PUSH1 0x0 PUSH2 0x100 EXP DUP2 SLOAD DUP2 PUSH20 0xFFFFFFFFFFFFFFFFFFFFFFFFFFFFFFFFFFFFFFFF MUL NOT AND SWAP1 DUP4 PUSH20 0xFFFFFFFFFFFFFFFFFFFFFFFFFFFFFFFFFFFFFFFF AND MUL OR SWAP1 SSTORE POP DUP2 PUSH20 0xFFFFFFFFFFFFFFFFFFFFFFFFFFFFFFFFFFFFFFFF AND DUP2 PUSH20 0xFFFFFFFFFFFFFFFFFFFFFFFFFFFFFFFFFFFFFFFF AND PUSH32 0x8BE0079C531659141344CD1FD0A4F28419497F9722A3DAAFE3B4186F6B6457E0 PUSH1 0x40 MLOAD PUSH1 0x40 MLOAD DUP1 SWAP2 SUB SWAP1 LOG3 POP POP JUMP JUMPDEST PUSH1 0x0 DUP2 SWAP1 POP PUSH1 0x0 PUSH2 0x2FC0 DUP8 DUP5 PUSH2 0x3441 JUMP JUMPDEST SWAP1 POP PUSH1 0x0 PUSH20 0xFFFFFFFFFFFFFFFFFFFFFFFFFFFFFFFFFFFFFFFF AND PUSH1 0x2 PUSH1 0x0 SWAP1 SLOAD SWAP1 PUSH2 0x100 EXP SWAP1 DIV PUSH20 0xFFFFFFFFFFFFFFFFFFFFFFFFFFFFFFFFFFFFFFFF AND PUSH20 0xFFFFFFFFFFFFFFFFFFFFFFFFFFFFFFFFFFFFFFFF AND EQ ISZERO DUP1 ISZERO PUSH2 0x3022 JUMPI POP PUSH1 0x0 DUP2 EQ ISZERO JUMPDEST ISZERO PUSH2 0x3063 JUMPI PUSH2 0x3054 PUSH1 0x2 PUSH1 0x0 SWAP1 SLOAD SWAP1 PUSH2 0x100 EXP SWAP1 DIV PUSH20 0xFFFFFFFFFFFFFFFFFFFFFFFFFFFFFFFFFFFFFFFF AND DUP3 DUP5 PUSH2 0x3565 JUMP JUMPDEST DUP1 DUP3 PUSH2 0x3060 SWAP2 SWAP1 PUSH2 0x401F JUMP JUMPDEST SWAP2 POP JUMPDEST POP PUSH1 0x0 DUP1 PUSH1 0x5 PUSH1 0x0 SWAP1 SLOAD SWAP1 PUSH2 0x100 EXP SWAP1 DIV PUSH20 0xFFFFFFFFFFFFFFFFFFFFFFFFFFFFFFFFFFFFFFFF AND PUSH20 0xFFFFFFFFFFFFFFFFFFFFFFFFFFFFFFFFFFFFFFFF AND PUSH4 0x40E7B540 DUP9 DUP9 DUP8 PUSH1 0x40 MLOAD DUP5 PUSH4 0xFFFFFFFF AND PUSH1 0xE0 SHL DUP2 MSTORE PUSH1 0x4 ADD PUSH2 0x30C6 SWAP4 SWAP3 SWAP2 SWAP1 PUSH2 0x4FB1 JUMP JUMPDEST PUSH1 0x40 DUP1 MLOAD DUP1 DUP4 SUB DUP2 DUP7 GAS STATICCALL ISZERO DUP1 ISZERO PUSH2 0x30E2 JUMPI RETURNDATASIZE PUSH1 0x0 DUP1 RETURNDATACOPY RETURNDATASIZE PUSH1 0x0 REVERT JUMPDEST POP POP POP POP PUSH1 0x40 MLOAD RETURNDATASIZE PUSH1 0x1F NOT PUSH1 0x1F DUP3 ADD AND DUP3 ADD DUP1 PUSH1 0x40 MSTORE POP DUP2 ADD SWAP1 PUSH2 0x3106 SWAP2 SWAP1 PUSH2 0x4FFD JUMP JUMPDEST SWAP2 POP SWAP2 POP PUSH1 0x0 PUSH20 0xFFFFFFFFFFFFFFFFFFFFFFFFFFFFFFFFFFFFFFFF AND DUP3 PUSH20 0xFFFFFFFFFFFFFFFFFFFFFFFFFFFFFFFFFFFFFFFF AND EQ ISZERO DUP1 ISZERO PUSH2 0x3148 JUMPI POP PUSH1 0x0 DUP2 EQ ISZERO JUMPDEST ISZERO PUSH2 0x31CF JUMPI PUSH2 0x3158 DUP3 DUP3 DUP6 PUSH2 0x3565 JUMP JUMPDEST DUP1 DUP4 PUSH2 0x3164 SWAP2 SWAP1 PUSH2 0x401F JUMP JUMPDEST SWAP3 POP DUP2 PUSH20 0xFFFFFFFFFFFFFFFFFFFFFFFFFFFFFFFFFFFFFFFF AND DUP7 DUP9 PUSH20 0xFFFFFFFFFFFFFFFFFFFFFFFFFFFFFFFFFFFFFFFF AND PUSH32 0x27C4F0403323142B599832F26ACD21C74A9E5B809F2215726E244A4AC588CD7D ADDRESS DUP6 PUSH1 0x40 MLOAD PUSH2 0x31C6 SWAP3 SWAP2 SWAP1 PUSH2 0x503D JUMP JUMPDEST PUSH1 0x40 MLOAD DUP1 SWAP2 SUB SWAP1 LOG4 JUMPDEST POP POP PUSH1 0x0 DUP2 GT PUSH2 0x3214 JUMPI PUSH1 0x40 MLOAD PUSH32 0x8C379A000000000000000000000000000000000000000000000000000000000 DUP2 MSTORE PUSH1 0x4 ADD PUSH2 0x320B SWAP1 PUSH2 0x50D8 JUMP JUMPDEST PUSH1 0x40 MLOAD DUP1 SWAP2 SUB SWAP1 REVERT JUMPDEST PUSH2 0x321F DUP4 DUP3 DUP4 PUSH2 0x3565 JUMP JUMPDEST POP POP POP POP POP POP JUMP JUMPDEST PUSH1 0x0 PUSH2 0x3289 DUP3 PUSH1 0x40 MLOAD DUP1 PUSH1 0x40 ADD PUSH1 0x40 MSTORE DUP1 PUSH1 0x20 DUP2 MSTORE PUSH1 0x20 ADD PUSH32 0x5361666545524332303A206C6F772D6C6576656C2063616C6C206661696C6564 DUP2 MSTORE POP DUP6 PUSH20 0xFFFFFFFFFFFFFFFFFFFFFFFFFFFFFFFFFFFFFFFF AND PUSH2 0x365A SWAP1 SWAP3 SWAP2 SWAP1 PUSH4 0xFFFFFFFF AND JUMP JUMPDEST SWAP1 POP PUSH1 0x0 DUP2 MLOAD GT ISZERO PUSH2 0x32E9 JUMPI DUP1 DUP1 PUSH1 0x20 ADD SWAP1 MLOAD DUP2 ADD SWAP1 PUSH2 0x32A9 SWAP2 SWAP1 PUSH2 0x4F18 JUMP JUMPDEST PUSH2 0x32E8 JUMPI PUSH1 0x40 MLOAD PUSH32 0x8C379A000000000000000000000000000000000000000000000000000000000 DUP2 MSTORE PUSH1 0x4 ADD PUSH2 0x32DF SWAP1 PUSH2 0x52C2 JUMP JUMPDEST PUSH1 0x40 MLOAD DUP1 SWAP2 SUB SWAP1 REVERT JUMPDEST JUMPDEST POP POP POP JUMP JUMPDEST PUSH1 0x0 DUP1 DUP3 DUP9 PUSH1 0x40 MLOAD PUSH1 0x20 ADD PUSH2 0x3304 SWAP3 SWAP2 SWAP1 PUSH2 0x535A JUMP JUMPDEST PUSH1 0x40 MLOAD PUSH1 0x20 DUP2 DUP4 SUB SUB DUP2 MSTORE SWAP1 PUSH1 0x40 MSTORE DUP1 MLOAD SWAP1 PUSH1 0x20 ADD KECCAK256 SWAP1 POP PUSH2 0x3325 DUP8 PUSH2 0x3672 JUMP JUMPDEST ISZERO PUSH2 0x33F9 JUMPI PUSH4 0x1626BA7E PUSH1 0xE0 SHL DUP8 PUSH20 0xFFFFFFFFFFFFFFFFFFFFFFFFFFFFFFFFFFFFFFFF AND PUSH4 0x1626BA7E DUP4 DUP9 DUP9 DUP12 PUSH1 0x40 MLOAD PUSH1 0x20 ADD PUSH2 0x3364 SWAP4 SWAP3 SWAP2 SWAP1 PUSH2 0x53C7 JUMP JUMPDEST PUSH1 0x40 MLOAD PUSH1 0x20 DUP2 DUP4 SUB SUB DUP2 MSTORE SWAP1 PUSH1 0x40 MSTORE PUSH1 0x40 MLOAD DUP4 PUSH4 0xFFFFFFFF AND PUSH1 0xE0 SHL DUP2 MSTORE PUSH1 0x4 ADD PUSH2 0x3390 SWAP3 SWAP2 SWAP1 PUSH2 0x5483 JUMP JUMPDEST PUSH1 0x20 PUSH1 0x40 MLOAD DUP1 DUP4 SUB DUP2 DUP7 GAS STATICCALL ISZERO DUP1 ISZERO PUSH2 0x33AD JUMPI RETURNDATASIZE PUSH1 0x0 DUP1 RETURNDATACOPY RETURNDATASIZE PUSH1 0x0 REVERT JUMPDEST POP POP POP POP PUSH1 0x40 MLOAD RETURNDATASIZE PUSH1 0x1F NOT PUSH1 0x1F DUP3 ADD AND DUP3 ADD DUP1 PUSH1 0x40 MSTORE POP DUP2 ADD SWAP1 PUSH2 0x33D1 SWAP2 SWAP1 PUSH2 0x54DF JUMP JUMPDEST PUSH28 0xFFFFFFFFFFFFFFFFFFFFFFFFFFFFFFFFFFFFFFFFFFFFFFFFFFFFFFFF NOT AND EQ SWAP2 POP POP PUSH2 0x3437 JUMP JUMPDEST DUP7 PUSH20 0xFFFFFFFFFFFFFFFFFFFFFFFFFFFFFFFFFFFFFFFF AND PUSH2 0x341C DUP3 DUP9 DUP9 DUP9 PUSH2 0x3695 JUMP JUMPDEST PUSH20 0xFFFFFFFFFFFFFFFFFFFFFFFFFFFFFFFFFFFFFFFF AND EQ SWAP2 POP POP JUMPDEST SWAP7 SWAP6 POP POP POP POP POP POP JUMP JUMPDEST PUSH1 0x0 DUP1 DUP4 PUSH20 0xFFFFFFFFFFFFFFFFFFFFFFFFFFFFFFFFFFFFFFFF AND PUSH4 0x9DD1CDA6 PUSH1 0x40 MLOAD DUP2 PUSH4 0xFFFFFFFF AND PUSH1 0xE0 SHL DUP2 MSTORE PUSH1 0x4 ADD PUSH1 0x20 PUSH1 0x40 MLOAD DUP1 DUP4 SUB DUP2 DUP7 GAS STATICCALL ISZERO DUP1 ISZERO PUSH2 0x348F JUMPI RETURNDATASIZE PUSH1 0x0 DUP1 RETURNDATACOPY RETURNDATASIZE PUSH1 0x0 REVERT JUMPDEST POP POP POP POP PUSH1 0x40 MLOAD RETURNDATASIZE PUSH1 0x1F NOT PUSH1 0x1F DUP3 ADD AND DUP3 ADD DUP1 PUSH1 0x40 MSTORE POP DUP2 ADD SWAP1 PUSH2 0x34B3 SWAP2 SWAP1 PUSH2 0x550C JUMP JUMPDEST SWAP1 POP PUSH2 0x2710 DUP4 DUP3 PUSH2 0x34C4 SWAP2 SWAP1 PUSH2 0x5539 JUMP JUMPDEST PUSH2 0x34CE SWAP2 SWAP1 PUSH2 0x55AA JUMP JUMPDEST SWAP2 POP POP SWAP3 SWAP2 POP POP JUMP JUMPDEST PUSH2 0x3558 DUP4 PUSH4 0xA9059CBB PUSH1 0xE0 SHL DUP5 DUP5 PUSH1 0x40 MLOAD PUSH1 0x24 ADD PUSH2 0x34F6 SWAP3 SWAP2 SWAP1 PUSH2 0x503D JUMP JUMPDEST PUSH1 0x40 MLOAD PUSH1 0x20 DUP2 DUP4 SUB SUB DUP2 MSTORE SWAP1 PUSH1 0x40 MSTORE SWAP1 PUSH28 0xFFFFFFFFFFFFFFFFFFFFFFFFFFFFFFFFFFFFFFFFFFFFFFFFFFFFFFFF NOT AND PUSH1 0x20 DUP3 ADD DUP1 MLOAD PUSH28 0xFFFFFFFFFFFFFFFFFFFFFFFFFFFFFFFFFFFFFFFFFFFFFFFFFFFFFFFF DUP4 DUP2 DUP4 AND OR DUP4 MSTORE POP POP POP POP PUSH2 0x3227 JUMP JUMPDEST POP POP POP JUMP JUMPDEST PUSH1 0x0 CALLER SWAP1 POP SWAP1 JUMP JUMPDEST DUP2 DUP2 LT ISZERO PUSH2 0x35A8 JUMPI PUSH1 0x40 MLOAD PUSH32 0x8C379A000000000000000000000000000000000000000000000000000000000 DUP2 MSTORE PUSH1 0x4 ADD PUSH2 0x359F SWAP1 PUSH2 0x5627 JUMP JUMPDEST PUSH1 0x40 MLOAD DUP1 SWAP2 SUB SWAP1 REVERT JUMPDEST PUSH1 0x0 DUP4 PUSH20 0xFFFFFFFFFFFFFFFFFFFFFFFFFFFFFFFFFFFFFFFF AND DUP4 PUSH1 0x40 MLOAD PUSH2 0x35CE SWAP1 PUSH2 0x5675 JUMP JUMPDEST PUSH1 0x0 PUSH1 0x40 MLOAD DUP1 DUP4 SUB DUP2 DUP6 DUP8 GAS CALL SWAP3 POP POP POP RETURNDATASIZE DUP1 PUSH1 0x0 DUP2 EQ PUSH2 0x360B JUMPI PUSH1 0x40 MLOAD SWAP2 POP PUSH1 0x1F NOT PUSH1 0x3F RETURNDATASIZE ADD AND DUP3 ADD PUSH1 0x40 MSTORE RETURNDATASIZE DUP3 MSTORE RETURNDATASIZE PUSH1 0x0 PUSH1 0x20 DUP5 ADD RETURNDATACOPY PUSH2 0x3610 JUMP JUMPDEST PUSH1 0x60 SWAP2 POP JUMPDEST POP POP SWAP1 POP DUP1 PUSH2 0x3654 JUMPI PUSH1 0x40 MLOAD PUSH32 0x8C379A000000000000000000000000000000000000000000000000000000000 DUP2 MSTORE PUSH1 0x4 ADD PUSH2 0x364B SWAP1 PUSH2 0x56D6 JUMP JUMPDEST PUSH1 0x40 MLOAD DUP1 SWAP2 SUB SWAP1 REVERT JUMPDEST POP POP POP POP JUMP JUMPDEST PUSH1 0x60 PUSH2 0x3669 DUP5 DUP5 PUSH1 0x0 DUP6 PUSH2 0x381F JUMP JUMPDEST SWAP1 POP SWAP4 SWAP3 POP POP POP JUMP JUMPDEST PUSH1 0x0 DUP1 DUP3 PUSH20 0xFFFFFFFFFFFFFFFFFFFFFFFFFFFFFFFFFFFFFFFF AND EXTCODESIZE GT SWAP1 POP SWAP2 SWAP1 POP JUMP JUMPDEST PUSH1 0x0 PUSH32 0x7FFFFFFFFFFFFFFFFFFFFFFFFFFFFFFF5D576E7357A4501DDFE92F46681B20A0 DUP3 PUSH1 0x0 SHR GT ISZERO PUSH2 0x36FD JUMPI PUSH1 0x40 MLOAD PUSH32 0x8C379A000000000000000000000000000000000000000000000000000000000 DUP2 MSTORE PUSH1 0x4 ADD PUSH2 0x36F4 SWAP1 PUSH2 0x5742 JUMP JUMPDEST PUSH1 0x40 MLOAD DUP1 SWAP2 SUB SWAP1 REVERT JUMPDEST PUSH1 0x1B DUP5 PUSH1 0xFF AND EQ DUP1 PUSH2 0x3712 JUMPI POP PUSH1 0x1C DUP5 PUSH1 0xFF AND EQ JUMPDEST PUSH2 0x3751 JUMPI PUSH1 0x40 MLOAD PUSH32 0x8C379A000000000000000000000000000000000000000000000000000000000 DUP2 MSTORE PUSH1 0x4 ADD PUSH2 0x3748 SWAP1 PUSH2 0x57AE JUMP JUMPDEST PUSH1 0x40 MLOAD DUP1 SWAP2 SUB SWAP1 REVERT JUMPDEST PUSH1 0x0 PUSH1 0x1 DUP7 DUP7 DUP7 DUP7 PUSH1 0x40 MLOAD PUSH1 0x0 DUP2 MSTORE PUSH1 0x20 ADD PUSH1 0x40 MSTORE PUSH1 0x40 MLOAD PUSH2 0x3776 SWAP5 SWAP4 SWAP3 SWAP2 SWAP1 PUSH2 0x57DD JUMP JUMPDEST PUSH1 0x20 PUSH1 0x40 MLOAD PUSH1 0x20 DUP2 SUB SWAP1 DUP1 DUP5 SUB SWAP1 DUP6 GAS STATICCALL ISZERO DUP1 ISZERO PUSH2 0x3798 JUMPI RETURNDATASIZE PUSH1 0x0 DUP1 RETURNDATACOPY RETURNDATASIZE PUSH1 0x0 REVERT JUMPDEST POP POP POP PUSH1 0x20 PUSH1 0x40 MLOAD SUB MLOAD SWAP1 POP PUSH1 0x0 PUSH20 0xFFFFFFFFFFFFFFFFFFFFFFFFFFFFFFFFFFFFFFFF AND DUP2 PUSH20 0xFFFFFFFFFFFFFFFFFFFFFFFFFFFFFFFFFFFFFFFF AND SUB PUSH2 0x3813 JUMPI PUSH1 0x40 MLOAD PUSH32 0x8C379A000000000000000000000000000000000000000000000000000000000 DUP2 MSTORE PUSH1 0x4 ADD PUSH2 0x380A SWAP1 PUSH2 0x586E JUMP JUMPDEST PUSH1 0x40 MLOAD DUP1 SWAP2 SUB SWAP1 REVERT JUMPDEST DUP1 SWAP2 POP POP SWAP5 SWAP4 POP POP POP POP JUMP JUMPDEST PUSH1 0x60 DUP3 SELFBALANCE LT ISZERO PUSH2 0x3864 JUMPI PUSH1 0x40 MLOAD PUSH32 0x8C379A000000000000000000000000000000000000000000000000000000000 DUP2 MSTORE PUSH1 0x4 ADD PUSH2 0x385B SWAP1 PUSH2 0x5900 JUMP JUMPDEST PUSH1 0x40 MLOAD DUP1 SWAP2 SUB SWAP1 REVERT JUMPDEST PUSH1 0x0 DUP1 DUP7 PUSH20 0xFFFFFFFFFFFFFFFFFFFFFFFFFFFFFFFFFFFFFFFF AND DUP6 DUP8 PUSH1 0x40 MLOAD PUSH2 0x388D SWAP2 SWAP1 PUSH2 0x5951 JUMP JUMPDEST PUSH1 0x0 PUSH1 0x40 MLOAD DUP1 DUP4 SUB DUP2 DUP6 DUP8 GAS CALL SWAP3 POP POP POP RETURNDATASIZE DUP1 PUSH1 0x0 DUP2 EQ PUSH2 0x38CA JUMPI PUSH1 0x40 MLOAD SWAP2 POP PUSH1 0x1F NOT PUSH1 0x3F RETURNDATASIZE ADD AND DUP3 ADD PUSH1 0x40 MSTORE RETURNDATASIZE DUP3 MSTORE RETURNDATASIZE PUSH1 0x0 PUSH1 0x20 DUP5 ADD RETURNDATACOPY PUSH2 0x38CF JUMP JUMPDEST PUSH1 0x60 SWAP2 POP JUMPDEST POP SWAP2 POP SWAP2 POP PUSH2 0x38E0 DUP8 DUP4 DUP4 DUP8 PUSH2 0x38EC JUMP JUMPDEST SWAP3 POP POP POP SWAP5 SWAP4 POP POP POP POP JUMP JUMPDEST PUSH1 0x60 DUP4 ISZERO PUSH2 0x394E JUMPI PUSH1 0x0 DUP4 MLOAD SUB PUSH2 0x3946 JUMPI PUSH2 0x3906 DUP6 PUSH2 0x3672 JUMP JUMPDEST PUSH2 0x3945 JUMPI PUSH1 0x40 MLOAD PUSH32 0x8C379A000000000000000000000000000000000000000000000000000000000 DUP2 MSTORE PUSH1 0x4 ADD PUSH2 0x393C SWAP1 PUSH2 0x59B4 JUMP JUMPDEST PUSH1 0x40 MLOAD DUP1 SWAP2 SUB SWAP1 REVERT JUMPDEST JUMPDEST DUP3 SWAP1 POP PUSH2 0x3959 JUMP JUMPDEST PUSH2 0x3958 DUP4 DUP4 PUSH2 0x3961 JUMP JUMPDEST JUMPDEST SWAP5 SWAP4 POP POP POP POP JUMP JUMPDEST PUSH1 0x0 DUP3 MLOAD GT ISZERO PUSH2 0x3974 JUMPI DUP2 MLOAD DUP1 DUP4 PUSH1 0x20 ADD REVERT JUMPDEST DUP1 PUSH1 0x40 MLOAD PUSH32 0x8C379A000000000000000000000000000000000000000000000000000000000 DUP2 MSTORE PUSH1 0x4 ADD PUSH2 0x39A8 SWAP2 SWAP1 PUSH2 0x5A18 JUMP JUMPDEST PUSH1 0x40 MLOAD DUP1 SWAP2 SUB SWAP1 REVERT JUMPDEST PUSH1 0x0 PUSH1 0x40 MLOAD SWAP1 POP SWAP1 JUMP JUMPDEST PUSH1 0x0 DUP1 REVERT JUMPDEST PUSH1 0x0 DUP1 REVERT JUMPDEST PUSH1 0x0 DUP1 REVERT JUMPDEST PUSH1 0x0 PUSH1 0x80 DUP3 DUP5 SUB SLT ISZERO PUSH2 0x39E0 JUMPI PUSH2 0x39DF PUSH2 0x39C5 JUMP JUMPDEST JUMPDEST DUP2 SWAP1 POP SWAP3 SWAP2 POP POP JUMP JUMPDEST PUSH1 0x0 PUSH2 0x1C0 DUP3 DUP5 SUB SLT ISZERO PUSH2 0x3A00 JUMPI PUSH2 0x39FF PUSH2 0x39C5 JUMP JUMPDEST JUMPDEST DUP2 SWAP1 POP SWAP3 SWAP2 POP POP JUMP JUMPDEST PUSH1 0x0 DUP1 PUSH2 0x240 DUP4 DUP6 SUB SLT ISZERO PUSH2 0x3A21 JUMPI PUSH2 0x3A20 PUSH2 0x39BB JUMP JUMPDEST JUMPDEST PUSH1 0x0 PUSH2 0x3A2F DUP6 DUP3 DUP7 ADD PUSH2 0x39CA JUMP JUMPDEST SWAP3 POP POP PUSH1 0x80 PUSH2 0x3A40 DUP6 DUP3 DUP7 ADD PUSH2 0x39E9 JUMP JUMPDEST SWAP2 POP POP SWAP3 POP SWAP3 SWAP1 POP JUMP JUMPDEST PUSH1 0x0 DUP2 SWAP1 POP SWAP2 SWAP1 POP JUMP JUMPDEST PUSH2 0x3A5D DUP2 PUSH2 0x3A4A JUMP JUMPDEST DUP2 EQ PUSH2 0x3A68 JUMPI PUSH1 0x0 DUP1 REVERT JUMPDEST POP JUMP JUMPDEST PUSH1 0x0 DUP2 CALLDATALOAD SWAP1 POP PUSH2 0x3A7A DUP2 PUSH2 0x3A54 JUMP JUMPDEST SWAP3 SWAP2 POP POP JUMP JUMPDEST PUSH1 0x0 PUSH1 0x20 DUP3 DUP5 SUB SLT ISZERO PUSH2 0x3A96 JUMPI PUSH2 0x3A95 PUSH2 0x39BB JUMP JUMPDEST JUMPDEST PUSH1 0x0 PUSH2 0x3AA4 DUP5 DUP3 DUP6 ADD PUSH2 0x3A6B JUMP JUMPDEST SWAP2 POP POP SWAP3 SWAP2 POP POP JUMP JUMPDEST PUSH1 0x0 PUSH20 0xFFFFFFFFFFFFFFFFFFFFFFFFFFFFFFFFFFFFFFFF DUP3 AND SWAP1 POP SWAP2 SWAP1 POP JUMP JUMPDEST PUSH1 0x0 PUSH2 0x3AD8 DUP3 PUSH2 0x3AAD JUMP JUMPDEST SWAP1 POP SWAP2 SWAP1 POP JUMP JUMPDEST PUSH2 0x3AE8 DUP2 PUSH2 0x3ACD JUMP JUMPDEST DUP2 EQ PUSH2 0x3AF3 JUMPI PUSH1 0x0 DUP1 REVERT JUMPDEST POP JUMP JUMPDEST PUSH1 0x0 DUP2 CALLDATALOAD SWAP1 POP PUSH2 0x3B05 DUP2 PUSH2 0x3ADF JUMP JUMPDEST SWAP3 SWAP2 POP POP JUMP JUMPDEST PUSH1 0x0 PUSH1 0x20 DUP3 DUP5 SUB SLT ISZERO PUSH2 0x3B21 JUMPI PUSH2 0x3B20 PUSH2 0x39BB JUMP JUMPDEST JUMPDEST PUSH1 0x0 PUSH2 0x3B2F DUP5 DUP3 DUP6 ADD PUSH2 0x3AF6 JUMP JUMPDEST SWAP2 POP POP SWAP3 SWAP2 POP POP JUMP JUMPDEST PUSH1 0x0 DUP1 PUSH1 0x40 DUP4 DUP6 SUB SLT ISZERO PUSH2 0x3B4F JUMPI PUSH2 0x3B4E PUSH2 0x39BB JUMP JUMPDEST JUMPDEST PUSH1 0x0 PUSH2 0x3B5D DUP6 DUP3 DUP7 ADD PUSH2 0x3AF6 JUMP JUMPDEST SWAP3 POP POP PUSH1 0x20 PUSH2 0x3B6E DUP6 DUP3 DUP7 ADD PUSH2 0x3A6B JUMP JUMPDEST SWAP2 POP POP SWAP3 POP SWAP3 SWAP1 POP JUMP JUMPDEST PUSH1 0x0 DUP2 ISZERO ISZERO SWAP1 POP SWAP2 SWAP1 POP JUMP JUMPDEST PUSH2 0x3B8D DUP2 PUSH2 0x3B78 JUMP JUMPDEST DUP3 MSTORE POP POP JUMP JUMPDEST PUSH1 0x0 PUSH1 0x20 DUP3 ADD SWAP1 POP PUSH2 0x3BA8 PUSH1 0x0 DUP4 ADD DUP5 PUSH2 0x3B84 JUMP JUMPDEST SWAP3 SWAP2 POP POP JUMP JUMPDEST PUSH1 0x0 PUSH32 0xFFFFFFFF00000000000000000000000000000000000000000000000000000000 DUP3 AND SWAP1 POP SWAP2 SWAP1 POP JUMP JUMPDEST PUSH2 0x3BE3 DUP2 PUSH2 0x3BAE JUMP JUMPDEST DUP3 MSTORE POP POP JUMP JUMPDEST PUSH1 0x0 PUSH1 0x20 DUP3 ADD SWAP1 POP PUSH2 0x3BFE PUSH1 0x0 DUP4 ADD DUP5 PUSH2 0x3BDA JUMP JUMPDEST SWAP3 SWAP2 POP POP JUMP JUMPDEST PUSH1 0x0 DUP2 SWAP1 POP SWAP2 SWAP1 POP JUMP JUMPDEST PUSH2 0x3C17 DUP2 PUSH2 0x3C04 JUMP JUMPDEST DUP3 MSTORE POP POP JUMP JUMPDEST PUSH1 0x0 PUSH1 0x20 DUP3 ADD SWAP1 POP PUSH2 0x3C32 PUSH1 0x0 DUP4 ADD DUP5 PUSH2 0x3C0E JUMP JUMPDEST SWAP3 SWAP2 POP POP JUMP JUMPDEST PUSH1 0x0 DUP2 SWAP1 POP SWAP2 SWAP1 POP JUMP JUMPDEST PUSH1 0x0 PUSH2 0x3C5D PUSH2 0x3C58 PUSH2 0x3C53 DUP5 PUSH2 0x3AAD JUMP JUMPDEST PUSH2 0x3C38 JUMP JUMPDEST PUSH2 0x3AAD JUMP JUMPDEST SWAP1 POP SWAP2 SWAP1 POP JUMP JUMPDEST PUSH1 0x0 PUSH2 0x3C6F DUP3 PUSH2 0x3C42 JUMP JUMPDEST SWAP1 POP SWAP2 SWAP1 POP JUMP JUMPDEST PUSH1 0x0 PUSH2 0x3C81 DUP3 PUSH2 0x3C64 JUMP JUMPDEST SWAP1 POP SWAP2 SWAP1 POP JUMP JUMPDEST PUSH2 0x3C91 DUP2 PUSH2 0x3C76 JUMP JUMPDEST DUP3 MSTORE POP POP JUMP JUMPDEST PUSH1 0x0 PUSH1 0x20 DUP3 ADD SWAP1 POP PUSH2 0x3CAC PUSH1 0x0 DUP4 ADD DUP5 PUSH2 0x3C88 JUMP JUMPDEST SWAP3 SWAP2 POP POP JUMP JUMPDEST PUSH2 0x3CBB DUP2 PUSH2 0x3ACD JUMP JUMPDEST DUP3 MSTORE POP POP JUMP JUMPDEST PUSH1 0x0 PUSH1 0x20 DUP3 ADD SWAP1 POP PUSH2 0x3CD6 PUSH1 0x0 DUP4 ADD DUP5 PUSH2 0x3CB2 JUMP JUMPDEST SWAP3 SWAP2 POP POP JUMP JUMPDEST PUSH1 0x0 PUSH2 0x3CE7 DUP3 PUSH2 0x3C64 JUMP JUMPDEST SWAP1 POP SWAP2 SWAP1 POP JUMP JUMPDEST PUSH2 0x3CF7 DUP2 PUSH2 0x3CDC JUMP JUMPDEST DUP3 MSTORE POP POP JUMP JUMPDEST PUSH1 0x0 PUSH1 0x20 DUP3 ADD SWAP1 POP PUSH2 0x3D12 PUSH1 0x0 DUP4 ADD DUP5 PUSH2 0x3CEE JUMP JUMPDEST SWAP3 SWAP2 POP POP JUMP JUMPDEST PUSH1 0x0 DUP1 REVERT JUMPDEST PUSH1 0x0 DUP1 REVERT JUMPDEST PUSH1 0x0 DUP1 REVERT JUMPDEST PUSH1 0x0 DUP1 DUP4 PUSH1 0x1F DUP5 ADD SLT PUSH2 0x3D3D JUMPI PUSH2 0x3D3C PUSH2 0x3D18 JUMP JUMPDEST JUMPDEST DUP3 CALLDATALOAD SWAP1 POP PUSH8 0xFFFFFFFFFFFFFFFF DUP2 GT ISZERO PUSH2 0x3D5A JUMPI PUSH2 0x3D59 PUSH2 0x3D1D JUMP JUMPDEST JUMPDEST PUSH1 0x20 DUP4 ADD SWAP2 POP DUP4 PUSH1 0x20 DUP3 MUL DUP4 ADD GT ISZERO PUSH2 0x3D76 JUMPI PUSH2 0x3D75 PUSH2 0x3D22 JUMP JUMPDEST JUMPDEST SWAP3 POP SWAP3 SWAP1 POP JUMP JUMPDEST PUSH1 0x0 DUP1 PUSH1 0x20 DUP4 DUP6 SUB SLT ISZERO PUSH2 0x3D94 JUMPI PUSH2 0x3D93 PUSH2 0x39BB JUMP JUMPDEST JUMPDEST PUSH1 0x0 DUP4 ADD CALLDATALOAD PUSH8 0xFFFFFFFFFFFFFFFF DUP2 GT ISZERO PUSH2 0x3DB2 JUMPI PUSH2 0x3DB1 PUSH2 0x39C0 JUMP JUMPDEST JUMPDEST PUSH2 0x3DBE DUP6 DUP3 DUP7 ADD PUSH2 0x3D27 JUMP JUMPDEST SWAP3 POP SWAP3 POP POP SWAP3 POP SWAP3 SWAP1 POP JUMP JUMPDEST PUSH1 0x0 PUSH2 0x3DD5 DUP3 PUSH2 0x3C64 JUMP JUMPDEST SWAP1 POP SWAP2 SWAP1 POP JUMP JUMPDEST PUSH2 0x3DE5 DUP2 PUSH2 0x3DCA JUMP JUMPDEST DUP3 MSTORE POP POP JUMP JUMPDEST PUSH1 0x0 PUSH1 0x20 DUP3 ADD SWAP1 POP PUSH2 0x3E00 PUSH1 0x0 DUP4 ADD DUP5 PUSH2 0x3DDC JUMP JUMPDEST SWAP3 SWAP2 POP POP JUMP JUMPDEST PUSH1 0x0 PUSH2 0x3E11 DUP3 PUSH2 0x3C64 JUMP JUMPDEST SWAP1 POP SWAP2 SWAP1 POP JUMP JUMPDEST PUSH2 0x3E21 DUP2 PUSH2 0x3E06 JUMP JUMPDEST DUP3 MSTORE POP POP JUMP JUMPDEST PUSH1 0x0 PUSH1 0x20 DUP3 ADD SWAP1 POP PUSH2 0x3E3C PUSH1 0x0 DUP4 ADD DUP5 PUSH2 0x3E18 JUMP JUMPDEST SWAP3 SWAP2 POP POP JUMP JUMPDEST PUSH2 0x3E4B DUP2 PUSH2 0x3B78 JUMP JUMPDEST DUP2 EQ PUSH2 0x3E56 JUMPI PUSH1 0x0 DUP1 REVERT JUMPDEST POP JUMP JUMPDEST PUSH1 0x0 DUP2 CALLDATALOAD SWAP1 POP PUSH2 0x3E68 DUP2 PUSH2 0x3E42 JUMP JUMPDEST SWAP3 SWAP2 POP POP JUMP JUMPDEST PUSH1 0x0 PUSH1 0x20 DUP3 DUP5 SUB SLT ISZERO PUSH2 0x3E84 JUMPI PUSH2 0x3E83 PUSH2 0x39BB JUMP JUMPDEST JUMPDEST PUSH1 0x0 PUSH2 0x3E92 DUP5 DUP3 DUP6 ADD PUSH2 0x3E59 JUMP JUMPDEST SWAP2 POP POP SWAP3 SWAP2 POP POP JUMP JUMPDEST PUSH1 0x0 DUP3 DUP3 MSTORE PUSH1 0x20 DUP3 ADD SWAP1 POP SWAP3 SWAP2 POP POP JUMP JUMPDEST PUSH32 0x54686174206973207468652077726F6E6720617070726F6163682E0000000000 PUSH1 0x0 DUP3 ADD MSTORE POP JUMP JUMPDEST PUSH1 0x0 PUSH2 0x3EE2 PUSH1 0x1B DUP4 PUSH2 0x3E9B JUMP JUMPDEST SWAP2 POP PUSH2 0x3EED DUP3 PUSH2 0x3EAC JUMP JUMPDEST PUSH1 0x20 DUP3 ADD SWAP1 POP SWAP2 SWAP1 POP JUMP JUMPDEST PUSH1 0x0 PUSH1 0x20 DUP3 ADD SWAP1 POP DUP2 DUP2 SUB PUSH1 0x0 DUP4 ADD MSTORE PUSH2 0x3F11 DUP2 PUSH2 0x3ED5 JUMP JUMPDEST SWAP1 POP SWAP2 SWAP1 POP JUMP JUMPDEST PUSH32 0x556E737570706F7274656420746F6B656E2E0000000000000000000000000000 PUSH1 0x0 DUP3 ADD MSTORE POP JUMP JUMPDEST PUSH1 0x0 PUSH2 0x3F4E PUSH1 0x12 DUP4 PUSH2 0x3E9B JUMP JUMPDEST SWAP2 POP PUSH2 0x3F59 DUP3 PUSH2 0x3F18 JUMP JUMPDEST PUSH1 0x20 DUP3 ADD SWAP1 POP SWAP2 SWAP1 POP JUMP JUMPDEST PUSH1 0x0 PUSH1 0x20 DUP3 ADD SWAP1 POP DUP2 DUP2 SUB PUSH1 0x0 DUP4 ADD MSTORE PUSH2 0x3F7D DUP2 PUSH2 0x3F41 JUMP JUMPDEST SWAP1 POP SWAP2 SWAP1 POP JUMP JUMPDEST PUSH32 0x436C69656E74206D7573742062652073656E6465720000000000000000000000 PUSH1 0x0 DUP3 ADD MSTORE POP JUMP JUMPDEST PUSH1 0x0 PUSH2 0x3FBA PUSH1 0x15 DUP4 PUSH2 0x3E9B JUMP JUMPDEST SWAP2 POP PUSH2 0x3FC5 DUP3 PUSH2 0x3F84 JUMP JUMPDEST PUSH1 0x20 DUP3 ADD SWAP1 POP SWAP2 SWAP1 POP JUMP JUMPDEST PUSH1 0x0 PUSH1 0x20 DUP3 ADD SWAP1 POP DUP2 DUP2 SUB PUSH1 0x0 DUP4 ADD MSTORE PUSH2 0x3FE9 DUP2 PUSH2 0x3FAD JUMP JUMPDEST SWAP1 POP SWAP2 SWAP1 POP JUMP JUMPDEST PUSH32 0x4E487B7100000000000000000000000000000000000000000000000000000000 PUSH1 0x0 MSTORE PUSH1 0x11 PUSH1 0x4 MSTORE PUSH1 0x24 PUSH1 0x0 REVERT JUMPDEST PUSH1 0x0 PUSH2 0x402A DUP3 PUSH2 0x3A4A JUMP JUMPDEST SWAP2 POP PUSH2 0x4035 DUP4 PUSH2 0x3A4A JUMP JUMPDEST SWAP3 POP DUP3 DUP3 SUB SWAP1 POP DUP2 DUP2 GT ISZERO PUSH2 0x404D JUMPI PUSH2 0x404C PUSH2 0x3FF0 JUMP JUMPDEST JUMPDEST SWAP3 SWAP2 POP POP JUMP JUMPDEST PUSH32 0x546F6F204869676820436F696E00000000000000000000000000000000000000 PUSH1 0x0 DUP3 ADD MSTORE POP JUMP JUMPDEST PUSH1 0x0 PUSH2 0x4089 PUSH1 0xD DUP4 PUSH2 0x3E9B JUMP JUMPDEST SWAP2 POP PUSH2 0x4094 DUP3 PUSH2 0x4053 JUMP JUMPDEST PUSH1 0x20 DUP3 ADD SWAP1 POP SWAP2 SWAP1 POP JUMP JUMPDEST PUSH1 0x0 PUSH1 0x20 DUP3 ADD SWAP1 POP DUP2 DUP2 SUB PUSH1 0x0 DUP4 ADD MSTORE PUSH2 0x40B8 DUP2 PUSH2 0x407C JUMP JUMPDEST SWAP1 POP SWAP2 SWAP1 POP JUMP JUMPDEST PUSH1 0x0 DUP1 REVERT JUMPDEST PUSH1 0x0 PUSH1 0x1F NOT PUSH1 0x1F DUP4 ADD AND SWAP1 POP SWAP2 SWAP1 POP JUMP JUMPDEST PUSH32 0x4E487B7100000000000000000000000000000000000000000000000000000000 PUSH1 0x0 MSTORE PUSH1 0x41 PUSH1 0x4 MSTORE PUSH1 0x24 PUSH1 0x0 REVERT JUMPDEST PUSH2 0x410D DUP3 PUSH2 0x40C4 JUMP JUMPDEST DUP2 ADD DUP2 DUP2 LT PUSH8 0xFFFFFFFFFFFFFFFF DUP3 GT OR ISZERO PUSH2 0x412C JUMPI PUSH2 0x412B PUSH2 0x40D5 JUMP JUMPDEST JUMPDEST DUP1 PUSH1 0x40 MSTORE POP POP POP JUMP JUMPDEST PUSH1 0x0 PUSH2 0x413F PUSH2 0x39B1 JUMP JUMPDEST SWAP1 POP PUSH2 0x414B DUP3 DUP3 PUSH2 0x4104 JUMP JUMPDEST SWAP2 SWAP1 POP JUMP JUMPDEST PUSH1 0x0 PUSH1 0xFF DUP3 AND SWAP1 POP SWAP2 SWAP1 POP JUMP JUMPDEST PUSH2 0x4166 DUP2 PUSH2 0x4150 JUMP JUMPDEST DUP2 EQ PUSH2 0x4171 JUMPI PUSH1 0x0 DUP1 REVERT JUMPDEST POP JUMP JUMPDEST PUSH1 0x0 DUP2 CALLDATALOAD SWAP1 POP PUSH2 0x4183 DUP2 PUSH2 0x415D JUMP JUMPDEST SWAP3 SWAP2 POP POP JUMP JUMPDEST PUSH2 0x4192 DUP2 PUSH2 0x3C04 JUMP JUMPDEST DUP2 EQ PUSH2 0x419D JUMPI PUSH1 0x0 DUP1 REVERT JUMPDEST POP JUMP JUMPDEST PUSH1 0x0 DUP2 CALLDATALOAD SWAP1 POP PUSH2 0x41AF DUP2 PUSH2 0x4189 JUMP JUMPDEST SWAP3 SWAP2 POP POP JUMP JUMPDEST PUSH1 0x0 PUSH2 0x1C0 DUP3 DUP5 SUB SLT ISZERO PUSH2 0x41CC JUMPI PUSH2 0x41CB PUSH2 0x40BF JUMP JUMPDEST JUMPDEST PUSH2 0x41D7 PUSH2 0x1C0 PUSH2 0x4135 JUMP JUMPDEST SWAP1 POP PUSH1 0x0 PUSH2 0x41E7 DUP5 DUP3 DUP6 ADD PUSH2 0x3E59 JUMP JUMPDEST PUSH1 0x0 DUP4 ADD MSTORE POP PUSH1 0x20 PUSH2 0x41FB DUP5 DUP3 DUP6 ADD PUSH2 0x3AF6 JUMP JUMPDEST PUSH1 0x20 DUP4 ADD MSTORE POP PUSH1 0x40 PUSH2 0x420F DUP5 DUP3 DUP6 ADD PUSH2 0x3AF6 JUMP JUMPDEST PUSH1 0x40 DUP4 ADD MSTORE POP PUSH1 0x60 PUSH2 0x4223 DUP5 DUP3 DUP6 ADD PUSH2 0x3A6B JUMP JUMPDEST PUSH1 0x60 DUP4 ADD MSTORE POP PUSH1 0x80 PUSH2 0x4237 DUP5 DUP3 DUP6 ADD PUSH2 0x3A6B JUMP JUMPDEST PUSH1 0x80 DUP4 ADD MSTORE POP PUSH1 0xA0 PUSH2 0x424B DUP5 DUP3 DUP6 ADD PUSH2 0x3A6B JUMP JUMPDEST PUSH1 0xA0 DUP4 ADD MSTORE POP PUSH1 0xC0 PUSH2 0x425F DUP5 DUP3 DUP6 ADD PUSH2 0x3AF6 JUMP JUMPDEST PUSH1 0xC0 DUP4 ADD MSTORE POP PUSH1 0xE0 PUSH2 0x4273 DUP5 DUP3 DUP6 ADD PUSH2 0x3AF6 JUMP JUMPDEST PUSH1 0xE0 DUP4 ADD MSTORE POP PUSH2 0x100 PUSH2 0x4288 DUP5 DUP3 DUP6 ADD PUSH2 0x3A6B JUMP JUMPDEST PUSH2 0x100 DUP4 ADD MSTORE POP PUSH2 0x120 PUSH2 0x429E DUP5 DUP3 DUP6 ADD PUSH2 0x3A6B JUMP JUMPDEST PUSH2 0x120 DUP4 ADD MSTORE POP PUSH2 0x140 PUSH2 0x42B4 DUP5 DUP3 DUP6 ADD PUSH2 0x3A6B JUMP JUMPDEST PUSH2 0x140 DUP4 ADD MSTORE POP PUSH2 0x160 PUSH2 0x42CA DUP5 DUP3 DUP6 ADD PUSH2 0x4174 JUMP JUMPDEST PUSH2 0x160 DUP4 ADD MSTORE POP PUSH2 0x180 PUSH2 0x42E0 DUP5 DUP3 DUP6 ADD PUSH2 0x41A0 JUMP JUMPDEST PUSH2 0x180 DUP4 ADD MSTORE POP PUSH2 0x1A0 PUSH2 0x42F6 DUP5 DUP3 DUP6 ADD PUSH2 0x41A0 JUMP JUMPDEST PUSH2 0x1A0 DUP4 ADD MSTORE POP SWAP3 SWAP2 POP POP JUMP JUMPDEST PUSH1 0x0 PUSH2 0x1C0 DUP3 DUP5 SUB SLT ISZERO PUSH2 0x431A JUMPI PUSH2 0x4319 PUSH2 0x39BB JUMP JUMPDEST JUMPDEST PUSH1 0x0 PUSH2 0x4328 DUP5 DUP3 DUP6 ADD PUSH2 0x41B5 JUMP JUMPDEST SWAP2 POP POP SWAP3 SWAP2 POP POP JUMP JUMPDEST PUSH1 0x0 PUSH2 0x4340 PUSH1 0x20 DUP5 ADD DUP5 PUSH2 0x3E59 JUMP JUMPDEST SWAP1 POP SWAP3 SWAP2 POP POP JUMP JUMPDEST PUSH2 0x4351 DUP2 PUSH2 0x3B78 JUMP JUMPDEST DUP3 MSTORE POP POP JUMP JUMPDEST PUSH1 0x0 PUSH2 0x4366 PUSH1 0x20 DUP5 ADD DUP5 PUSH2 0x3AF6 JUMP JUMPDEST SWAP1 POP SWAP3 SWAP2 POP POP JUMP JUMPDEST PUSH2 0x4377 DUP2 PUSH2 0x3ACD JUMP JUMPDEST DUP3 MSTORE POP POP JUMP JUMPDEST PUSH1 0x0 PUSH2 0x438C PUSH1 0x20 DUP5 ADD DUP5 PUSH2 0x3A6B JUMP JUMPDEST SWAP1 POP SWAP3 SWAP2 POP POP JUMP JUMPDEST PUSH2 0x439D DUP2 PUSH2 0x3A4A JUMP JUMPDEST DUP3 MSTORE POP POP JUMP JUMPDEST PUSH1 0x80 DUP3 ADD PUSH2 0x43B4 PUSH1 0x0 DUP4 ADD DUP4 PUSH2 0x4331 JUMP JUMPDEST PUSH2 0x43C1 PUSH1 0x0 DUP6 ADD DUP3 PUSH2 0x4348 JUMP JUMPDEST POP PUSH2 0x43CF PUSH1 0x20 DUP4 ADD DUP4 PUSH2 0x4357 JUMP JUMPDEST PUSH2 0x43DC PUSH1 0x20 DUP6 ADD DUP3 PUSH2 0x436E JUMP JUMPDEST POP PUSH2 0x43EA PUSH1 0x40 DUP4 ADD DUP4 PUSH2 0x437D JUMP JUMPDEST PUSH2 0x43F7 PUSH1 0x40 DUP6 ADD DUP3 PUSH2 0x4394 JUMP JUMPDEST POP PUSH2 0x4405 PUSH1 0x60 DUP4 ADD DUP4 PUSH2 0x437D JUMP JUMPDEST PUSH2 0x4412 PUSH1 0x60 DUP6 ADD DUP3 PUSH2 0x4394 JUMP JUMPDEST POP POP POP POP JUMP JUMPDEST PUSH1 0x0 PUSH2 0x4427 PUSH1 0x20 DUP5 ADD DUP5 PUSH2 0x4174 JUMP JUMPDEST SWAP1 POP SWAP3 SWAP2 POP POP JUMP JUMPDEST PUSH2 0x4438 DUP2 PUSH2 0x4150 JUMP JUMPDEST DUP3 MSTORE POP POP JUMP JUMPDEST PUSH1 0x0 PUSH2 0x444D PUSH1 0x20 DUP5 ADD DUP5 PUSH2 0x41A0 JUMP JUMPDEST SWAP1 POP SWAP3 SWAP2 POP POP JUMP JUMPDEST PUSH2 0x445E DUP2 PUSH2 0x3C04 JUMP JUMPDEST DUP3 MSTORE POP POP JUMP JUMPDEST PUSH2 0x1C0 DUP3 ADD PUSH2 0x4476 PUSH1 0x0 DUP4 ADD DUP4 PUSH2 0x4331 JUMP JUMPDEST PUSH2 0x4483 PUSH1 0x0 DUP6 ADD DUP3 PUSH2 0x4348 JUMP JUMPDEST POP PUSH2 0x4491 PUSH1 0x20 DUP4 ADD DUP4 PUSH2 0x4357 JUMP JUMPDEST PUSH2 0x449E PUSH1 0x20 DUP6 ADD DUP3 PUSH2 0x436E JUMP JUMPDEST POP PUSH2 0x44AC PUSH1 0x40 DUP4 ADD DUP4 PUSH2 0x4357 JUMP JUMPDEST PUSH2 0x44B9 PUSH1 0x40 DUP6 ADD DUP3 PUSH2 0x436E JUMP JUMPDEST POP PUSH2 0x44C7 PUSH1 0x60 DUP4 ADD DUP4 PUSH2 0x437D JUMP JUMPDEST PUSH2 0x44D4 PUSH1 0x60 DUP6 ADD DUP3 PUSH2 0x4394 JUMP JUMPDEST POP PUSH2 0x44E2 PUSH1 0x80 DUP4 ADD DUP4 PUSH2 0x437D JUMP JUMPDEST PUSH2 0x44EF PUSH1 0x80 DUP6 ADD DUP3 PUSH2 0x4394 JUMP JUMPDEST POP PUSH2 0x44FD PUSH1 0xA0 DUP4 ADD DUP4 PUSH2 0x437D JUMP JUMPDEST PUSH2 0x450A PUSH1 0xA0 DUP6 ADD DUP3 PUSH2 0x4394 JUMP JUMPDEST POP PUSH2 0x4518 PUSH1 0xC0 DUP4 ADD DUP4 PUSH2 0x4357 JUMP JUMPDEST PUSH2 0x4525 PUSH1 0xC0 DUP6 ADD DUP3 PUSH2 0x436E JUMP JUMPDEST POP PUSH2 0x4533 PUSH1 0xE0 DUP4 ADD DUP4 PUSH2 0x4357 JUMP JUMPDEST PUSH2 0x4540 PUSH1 0xE0 DUP6 ADD DUP3 PUSH2 0x436E JUMP JUMPDEST POP PUSH2 0x454F PUSH2 0x100 DUP4 ADD DUP4 PUSH2 0x437D JUMP JUMPDEST PUSH2 0x455D PUSH2 0x100 DUP6 ADD DUP3 PUSH2 0x4394 JUMP JUMPDEST POP PUSH2 0x456C PUSH2 0x120 DUP4 ADD DUP4 PUSH2 0x437D JUMP JUMPDEST PUSH2 0x457A PUSH2 0x120 DUP6 ADD DUP3 PUSH2 0x4394 JUMP JUMPDEST POP PUSH2 0x4589 PUSH2 0x140 DUP4 ADD DUP4 PUSH2 0x437D JUMP JUMPDEST PUSH2 0x4597 PUSH2 0x140 DUP6 ADD DUP3 PUSH2 0x4394 JUMP JUMPDEST POP PUSH2 0x45A6 PUSH2 0x160 DUP4 ADD DUP4 PUSH2 0x4418 JUMP JUMPDEST PUSH2 0x45B4 PUSH2 0x160 DUP6 ADD DUP3 PUSH2 0x442F JUMP JUMPDEST POP PUSH2 0x45C3 PUSH2 0x180 DUP4 ADD DUP4 PUSH2 0x443E JUMP JUMPDEST PUSH2 0x45D1 PUSH2 0x180 DUP6 ADD DUP3 PUSH2 0x4455 JUMP JUMPDEST POP PUSH2 0x45E0 PUSH2 0x1A0 DUP4 ADD DUP4 PUSH2 0x443E JUMP JUMPDEST PUSH2 0x45EE PUSH2 0x1A0 DUP6 ADD DUP3 PUSH2 0x4455 JUMP JUMPDEST POP POP POP POP JUMP JUMPDEST PUSH1 0x0 PUSH2 0x240 DUP3 ADD SWAP1 POP PUSH2 0x460A PUSH1 0x0 DUP4 ADD DUP6 PUSH2 0x43A3 JUMP JUMPDEST PUSH2 0x4617 PUSH1 0x80 DUP4 ADD DUP5 PUSH2 0x4464 JUMP JUMPDEST SWAP4 SWAP3 POP POP POP JUMP JUMPDEST PUSH1 0x0 DUP2 MLOAD SWAP1 POP PUSH2 0x462D DUP2 PUSH2 0x3E42 JUMP JUMPDEST SWAP3 SWAP2 POP POP JUMP JUMPDEST PUSH1 0x0 DUP2 MLOAD SWAP1 POP PUSH2 0x4642 DUP2 PUSH2 0x3A54 JUMP JUMPDEST SWAP3 SWAP2 POP POP JUMP JUMPDEST PUSH1 0x0 DUP1 PUSH1 0x0 PUSH1 0x60 DUP5 DUP7 SUB SLT ISZERO PUSH2 0x4661 JUMPI PUSH2 0x4660 PUSH2 0x39BB JUMP JUMPDEST JUMPDEST PUSH1 0x0 PUSH2 0x466F DUP7 DUP3 DUP8 ADD PUSH2 0x461E JUMP JUMPDEST SWAP4 POP POP PUSH1 0x20 PUSH2 0x4680 DUP7 DUP3 DUP8 ADD PUSH2 0x4633 JUMP JUMPDEST SWAP3 POP POP PUSH1 0x40 PUSH2 0x4691 DUP7 DUP3 DUP8 ADD PUSH2 0x4633 JUMP JUMPDEST SWAP2 POP POP SWAP3 POP SWAP3 POP SWAP3 JUMP JUMPDEST PUSH32 0x496E76616C6964205472616465204E6674000000000000000000000000000000 PUSH1 0x0 DUP3 ADD MSTORE POP JUMP JUMPDEST PUSH1 0x0 PUSH2 0x46D1 PUSH1 0x11 DUP4 PUSH2 0x3E9B JUMP JUMPDEST SWAP2 POP PUSH2 0x46DC DUP3 PUSH2 0x469B JUMP JUMPDEST PUSH1 0x20 DUP3 ADD SWAP1 POP SWAP2 SWAP1 POP JUMP JUMPDEST PUSH1 0x0 PUSH1 0x20 DUP3 ADD SWAP1 POP DUP2 DUP2 SUB PUSH1 0x0 DUP4 ADD MSTORE PUSH2 0x4700 DUP2 PUSH2 0x46C4 JUMP JUMPDEST SWAP1 POP SWAP2 SWAP1 POP JUMP JUMPDEST PUSH2 0x4710 DUP2 PUSH2 0x3A4A JUMP JUMPDEST DUP3 MSTORE POP POP JUMP JUMPDEST PUSH1 0x0 PUSH1 0xE0 DUP3 ADD SWAP1 POP PUSH2 0x472B PUSH1 0x0 DUP4 ADD DUP11 PUSH2 0x3C0E JUMP JUMPDEST PUSH2 0x4738 PUSH1 0x20 DUP4 ADD DUP10 PUSH2 0x4707 JUMP JUMPDEST PUSH2 0x4745 PUSH1 0x40 DUP4 ADD DUP9 PUSH2 0x3CB2 JUMP JUMPDEST PUSH2 0x4752 PUSH1 0x60 DUP4 ADD DUP8 PUSH2 0x3CB2 JUMP JUMPDEST PUSH2 0x475F PUSH1 0x80 DUP4 ADD DUP7 PUSH2 0x4707 JUMP JUMPDEST PUSH2 0x476C PUSH1 0xA0 DUP4 ADD DUP6 PUSH2 0x4707 JUMP JUMPDEST PUSH2 0x4779 PUSH1 0xC0 DUP4 ADD DUP5 PUSH2 0x4707 JUMP JUMPDEST SWAP9 SWAP8 POP POP POP POP POP POP POP POP JUMP JUMPDEST POP JUMP JUMPDEST PUSH1 0x0 PUSH2 0x4795 PUSH1 0x0 DUP4 PUSH2 0x3E9B JUMP JUMPDEST SWAP2 POP PUSH2 0x47A0 DUP3 PUSH2 0x4785 JUMP JUMPDEST PUSH1 0x0 DUP3 ADD SWAP1 POP SWAP2 SWAP1 POP JUMP JUMPDEST PUSH1 0x0 PUSH1 0x20 DUP3 ADD SWAP1 POP DUP2 DUP2 SUB PUSH1 0x0 DUP4 ADD MSTORE PUSH2 0x47C4 DUP2 PUSH2 0x4788 JUMP JUMPDEST SWAP1 POP SWAP2 SWAP1 POP JUMP JUMPDEST PUSH1 0x0 PUSH2 0x47D6 DUP3 PUSH2 0x3A4A JUMP JUMPDEST SWAP2 POP PUSH2 0x47E1 DUP4 PUSH2 0x3A4A JUMP JUMPDEST SWAP3 POP DUP3 DUP3 ADD SWAP1 POP DUP1 DUP3 GT ISZERO PUSH2 0x47F9 JUMPI PUSH2 0x47F8 PUSH2 0x3FF0 JUMP JUMPDEST JUMPDEST SWAP3 SWAP2 POP POP JUMP JUMPDEST PUSH1 0x0 PUSH1 0x20 DUP3 ADD SWAP1 POP PUSH2 0x4814 PUSH1 0x0 DUP4 ADD DUP5 PUSH2 0x4707 JUMP JUMPDEST SWAP3 SWAP2 POP POP JUMP JUMPDEST PUSH32 0x43616E6E6F74206265206E756C6C206164647265737300000000000000000000 PUSH1 0x0 DUP3 ADD MSTORE POP JUMP JUMPDEST PUSH1 0x0 PUSH2 0x4850 PUSH1 0x16 DUP4 PUSH2 0x3E9B JUMP JUMPDEST SWAP2 POP PUSH2 0x485B DUP3 PUSH2 0x481A JUMP JUMPDEST PUSH1 0x20 DUP3 ADD SWAP1 POP SWAP2 SWAP1 POP JUMP JUMPDEST PUSH1 0x0 PUSH1 0x20 DUP3 ADD SWAP1 POP DUP2 DUP2 SUB PUSH1 0x0 DUP4 ADD MSTORE PUSH2 0x487F DUP2 PUSH2 0x4843 JUMP JUMPDEST SWAP1 POP SWAP2 SWAP1 POP JUMP JUMPDEST PUSH32 0x54616B6572206D7573742062652073656E646572000000000000000000000000 PUSH1 0x0 DUP3 ADD MSTORE POP JUMP JUMPDEST PUSH1 0x0 PUSH2 0x48BC PUSH1 0x14 DUP4 PUSH2 0x3E9B JUMP JUMPDEST SWAP2 POP PUSH2 0x48C7 DUP3 PUSH2 0x4886 JUMP JUMPDEST PUSH1 0x20 DUP3 ADD SWAP1 POP SWAP2 SWAP1 POP JUMP JUMPDEST PUSH1 0x0 PUSH1 0x20 DUP3 ADD SWAP1 POP DUP2 DUP2 SUB PUSH1 0x0 DUP4 ADD MSTORE PUSH2 0x48EB DUP2 PUSH2 0x48AF JUMP JUMPDEST SWAP1 POP SWAP2 SWAP1 POP JUMP JUMPDEST PUSH32 0x4174206C65617374206F6E652069732072657175697265642E00000000000000 PUSH1 0x0 DUP3 ADD MSTORE POP JUMP JUMPDEST PUSH1 0x0 PUSH2 0x4928 PUSH1 0x19 DUP4 PUSH2 0x3E9B JUMP JUMPDEST SWAP2 POP PUSH2 0x4933 DUP3 PUSH2 0x48F2 JUMP JUMPDEST PUSH1 0x20 DUP3 ADD SWAP1 POP SWAP2 SWAP1 POP JUMP JUMPDEST PUSH1 0x0 PUSH1 0x20 DUP3 ADD SWAP1 POP DUP2 DUP2 SUB PUSH1 0x0 DUP4 ADD MSTORE PUSH2 0x4957 DUP2 PUSH2 0x491B JUMP JUMPDEST SWAP1 POP SWAP2 SWAP1 POP JUMP JUMPDEST PUSH32 0x4E487B7100000000000000000000000000000000000000000000000000000000 PUSH1 0x0 MSTORE PUSH1 0x32 PUSH1 0x4 MSTORE PUSH1 0x24 PUSH1 0x0 REVERT JUMPDEST PUSH32 0x4E6F6E6365206C6F776572207468616E2063757272656E740000000000000000 PUSH1 0x0 DUP3 ADD MSTORE POP JUMP JUMPDEST PUSH1 0x0 PUSH2 0x49C3 PUSH1 0x18 DUP4 PUSH2 0x3E9B JUMP JUMPDEST SWAP2 POP PUSH2 0x49CE DUP3 PUSH2 0x498D JUMP JUMPDEST PUSH1 0x20 DUP3 ADD SWAP1 POP SWAP2 SWAP1 POP JUMP JUMPDEST PUSH1 0x0 PUSH1 0x20 DUP3 ADD SWAP1 POP DUP2 DUP2 SUB PUSH1 0x0 DUP4 ADD MSTORE PUSH2 0x49F2 DUP2 PUSH2 0x49B6 JUMP JUMPDEST SWAP1 POP SWAP2 SWAP1 POP JUMP JUMPDEST PUSH1 0x0 PUSH2 0x4A04 DUP3 PUSH2 0x3A4A JUMP JUMPDEST SWAP2 POP PUSH32 0xFFFFFFFFFFFFFFFFFFFFFFFFFFFFFFFFFFFFFFFFFFFFFFFFFFFFFFFFFFFFFFFF DUP3 SUB PUSH2 0x4A36 JUMPI PUSH2 0x4A35 PUSH2 0x3FF0 JUMP JUMPDEST JUMPDEST PUSH1 0x1 DUP3 ADD SWAP1 POP SWAP2 SWAP1 POP JUMP JUMPDEST PUSH1 0x0 DUP3 DUP3 MSTORE PUSH1 0x20 DUP3 ADD SWAP1 POP SWAP3 SWAP2 POP POP JUMP JUMPDEST PUSH1 0x0 DUP1 REVERT JUMPDEST DUP3 DUP2 DUP4 CALLDATACOPY POP POP POP JUMP JUMPDEST PUSH1 0x0 PUSH2 0x4A6C DUP4 DUP6 PUSH2 0x4A41 JUMP JUMPDEST SWAP4 POP PUSH32 0x7FFFFFFFFFFFFFFFFFFFFFFFFFFFFFFFFFFFFFFFFFFFFFFFFFFFFFFFFFFFFFF DUP4 GT ISZERO PUSH2 0x4A9F JUMPI PUSH2 0x4A9E PUSH2 0x4A52 JUMP JUMPDEST JUMPDEST PUSH1 0x20 DUP4 MUL SWAP3 POP PUSH2 0x4AB0 DUP4 DUP6 DUP5 PUSH2 0x4A57 JUMP JUMPDEST DUP3 DUP5 ADD SWAP1 POP SWAP4 SWAP3 POP POP POP JUMP JUMPDEST PUSH1 0x0 PUSH1 0x20 DUP3 ADD SWAP1 POP DUP2 DUP2 SUB PUSH1 0x0 DUP4 ADD MSTORE PUSH2 0x4AD7 DUP2 DUP5 DUP7 PUSH2 0x4A60 JUMP JUMPDEST SWAP1 POP SWAP4 SWAP3 POP POP POP JUMP JUMPDEST PUSH32 0x4F776E61626C653A206E6577206F776E657220697320746865207A65726F2061 PUSH1 0x0 DUP3 ADD MSTORE PUSH32 0x6464726573730000000000000000000000000000000000000000000000000000 PUSH1 0x20 DUP3 ADD MSTORE POP JUMP JUMPDEST PUSH1 0x0 PUSH2 0x4B3C PUSH1 0x26 DUP4 PUSH2 0x3E9B JUMP JUMPDEST SWAP2 POP PUSH2 0x4B47 DUP3 PUSH2 0x4AE0 JUMP JUMPDEST PUSH1 0x40 DUP3 ADD SWAP1 POP SWAP2 SWAP1 POP JUMP JUMPDEST PUSH1 0x0 PUSH1 0x20 DUP3 ADD SWAP1 POP DUP2 DUP2 SUB PUSH1 0x0 DUP4 ADD MSTORE PUSH2 0x4B6B DUP2 PUSH2 0x4B2F JUMP JUMPDEST SWAP1 POP SWAP2 SWAP1 POP JUMP JUMPDEST PUSH32 0x546F6F2048696768202F204C6F7720436F696E00000000000000000000000000 PUSH1 0x0 DUP3 ADD MSTORE POP JUMP JUMPDEST PUSH1 0x0 PUSH2 0x4BA8 PUSH1 0x13 DUP4 PUSH2 0x3E9B JUMP JUMPDEST SWAP2 POP PUSH2 0x4BB3 DUP3 PUSH2 0x4B72 JUMP JUMPDEST PUSH1 0x20 DUP3 ADD SWAP1 POP SWAP2 SWAP1 POP JUMP JUMPDEST PUSH1 0x0 PUSH1 0x20 DUP3 ADD SWAP1 POP DUP2 DUP2 SUB PUSH1 0x0 DUP4 ADD MSTORE PUSH2 0x4BD7 DUP2 PUSH2 0x4B9B JUMP JUMPDEST SWAP1 POP SWAP2 SWAP1 POP JUMP JUMPDEST PUSH32 0x5265656E7472616E637947756172643A207265656E7472616E742063616C6C00 PUSH1 0x0 DUP3 ADD MSTORE POP JUMP JUMPDEST PUSH1 0x0 PUSH2 0x4C14 PUSH1 0x1F DUP4 PUSH2 0x3E9B JUMP JUMPDEST SWAP2 POP PUSH2 0x4C1F DUP3 PUSH2 0x4BDE JUMP JUMPDEST PUSH1 0x20 DUP3 ADD SWAP1 POP SWAP2 SWAP1 POP JUMP JUMPDEST PUSH1 0x0 PUSH1 0x20 DUP3 ADD SWAP1 POP DUP2 DUP2 SUB PUSH1 0x0 DUP4 ADD MSTORE PUSH2 0x4C43 DUP2 PUSH2 0x4C07 JUMP JUMPDEST SWAP1 POP SWAP2 SWAP1 POP JUMP JUMPDEST PUSH1 0x0 PUSH1 0x60 DUP3 ADD SWAP1 POP PUSH2 0x4C5F PUSH1 0x0 DUP4 ADD DUP7 PUSH2 0x3CB2 JUMP JUMPDEST PUSH2 0x4C6C PUSH1 0x20 DUP4 ADD DUP6 PUSH2 0x3CB2 JUMP JUMPDEST PUSH2 0x4C79 PUSH1 0x40 DUP4 ADD DUP5 PUSH2 0x4707 JUMP JUMPDEST SWAP5 SWAP4 POP POP POP POP JUMP JUMPDEST PUSH1 0x0 PUSH2 0x180 DUP3 ADD SWAP1 POP PUSH2 0x4C97 PUSH1 0x0 DUP4 ADD DUP16 PUSH2 0x3C0E JUMP JUMPDEST PUSH2 0x4CA4 PUSH1 0x20 DUP4 ADD DUP15 PUSH2 0x3B84 JUMP JUMPDEST PUSH2 0x4CB1 PUSH1 0x40 DUP4 ADD DUP14 PUSH2 0x3CB2 JUMP JUMPDEST PUSH2 0x4CBE PUSH1 0x60 DUP4 ADD DUP13 PUSH2 0x3CB2 JUMP JUMPDEST PUSH2 0x4CCB PUSH1 0x80 DUP4 ADD DUP12 PUSH2 0x4707 JUMP JUMPDEST PUSH2 0x4CD8 PUSH1 0xA0 DUP4 ADD DUP11 PUSH2 0x4707 JUMP JUMPDEST PUSH2 0x4CE5 PUSH1 0xC0 DUP4 ADD DUP10 PUSH2 0x4707 JUMP JUMPDEST PUSH2 0x4CF2 PUSH1 0xE0 DUP4 ADD DUP9 PUSH2 0x3CB2 JUMP JUMPDEST PUSH2 0x4D00 PUSH2 0x100 DUP4 ADD DUP8 PUSH2 0x3CB2 JUMP JUMPDEST PUSH2 0x4D0E PUSH2 0x120 DUP4 ADD DUP7 PUSH2 0x4707 JUMP JUMPDEST PUSH2 0x4D1C PUSH2 0x140 DUP4 ADD DUP6 PUSH2 0x4707 JUMP JUMPDEST PUSH2 0x4D2A PUSH2 0x160 DUP4 ADD DUP5 PUSH2 0x4707 JUMP JUMPDEST SWAP14 SWAP13 POP POP POP POP POP POP POP POP POP POP POP POP POP JUMP JUMPDEST PUSH32 0x4564656D2073696E676572206E6F742076616C6964206F722065787069726564 PUSH1 0x0 DUP3 ADD MSTORE POP JUMP JUMPDEST PUSH1 0x0 PUSH2 0x4D71 PUSH1 0x20 DUP4 PUSH2 0x3E9B JUMP JUMPDEST SWAP2 POP PUSH2 0x4D7C DUP3 PUSH2 0x4D3B JUMP JUMPDEST PUSH1 0x20 DUP3 ADD SWAP1 POP SWAP2 SWAP1 POP JUMP JUMPDEST PUSH1 0x0 PUSH1 0x20 DUP3 ADD SWAP1 POP DUP2 DUP2 SUB PUSH1 0x0 DUP4 ADD MSTORE PUSH2 0x4DA0 DUP2 PUSH2 0x4D64 JUMP JUMPDEST SWAP1 POP SWAP2 SWAP1 POP JUMP JUMPDEST PUSH32 0x496E76616C6964207369676E6572000000000000000000000000000000000000 PUSH1 0x0 DUP3 ADD MSTORE POP JUMP JUMPDEST PUSH1 0x0 PUSH2 0x4DDD PUSH1 0xE DUP4 PUSH2 0x3E9B JUMP JUMPDEST SWAP2 POP PUSH2 0x4DE8 DUP3 PUSH2 0x4DA7 JUMP JUMPDEST PUSH1 0x20 DUP3 ADD SWAP1 POP SWAP2 SWAP1 POP JUMP JUMPDEST PUSH1 0x0 PUSH1 0x20 DUP3 ADD SWAP1 POP DUP2 DUP2 SUB PUSH1 0x0 DUP4 ADD MSTORE PUSH2 0x4E0C DUP2 PUSH2 0x4DD0 JUMP JUMPDEST SWAP1 POP SWAP2 SWAP1 POP JUMP JUMPDEST PUSH32 0x4E667420616D6F756E74206D7573742062652031206F72202B00000000000000 PUSH1 0x0 DUP3 ADD MSTORE POP JUMP JUMPDEST PUSH1 0x0 PUSH2 0x4E49 PUSH1 0x19 DUP4 PUSH2 0x3E9B JUMP JUMPDEST SWAP2 POP PUSH2 0x4E54 DUP3 PUSH2 0x4E13 JUMP JUMPDEST PUSH1 0x20 DUP3 ADD SWAP1 POP SWAP2 SWAP1 POP JUMP JUMPDEST PUSH1 0x0 PUSH1 0x20 DUP3 ADD SWAP1 POP DUP2 DUP2 SUB PUSH1 0x0 DUP4 ADD MSTORE PUSH2 0x4E78 DUP2 PUSH2 0x4E3C JUMP JUMPDEST SWAP1 POP SWAP2 SWAP1 POP JUMP JUMPDEST PUSH1 0x0 PUSH1 0x20 DUP3 DUP5 SUB SLT ISZERO PUSH2 0x4E95 JUMPI PUSH2 0x4E94 PUSH2 0x39BB JUMP JUMPDEST JUMPDEST PUSH1 0x0 PUSH2 0x4EA3 DUP5 DUP3 DUP6 ADD PUSH2 0x4174 JUMP JUMPDEST SWAP2 POP POP SWAP3 SWAP2 POP POP JUMP JUMPDEST PUSH32 0x5369676E4861736820496E76616C696420746F20766572696679210000000000 PUSH1 0x0 DUP3 ADD MSTORE POP JUMP JUMPDEST PUSH1 0x0 PUSH2 0x4EE2 PUSH1 0x1B DUP4 PUSH2 0x3E9B JUMP JUMPDEST SWAP2 POP PUSH2 0x4EED DUP3 PUSH2 0x4EAC JUMP JUMPDEST PUSH1 0x20 DUP3 ADD SWAP1 POP SWAP2 SWAP1 POP JUMP JUMPDEST PUSH1 0x0 PUSH1 0x20 DUP3 ADD SWAP1 POP DUP2 DUP2 SUB PUSH1 0x0 DUP4 ADD MSTORE PUSH2 0x4F11 DUP2 PUSH2 0x4ED5 JUMP JUMPDEST SWAP1 POP SWAP2 SWAP1 POP JUMP JUMPDEST PUSH1 0x0 PUSH1 0x20 DUP3 DUP5 SUB SLT ISZERO PUSH2 0x4F2E JUMPI PUSH2 0x4F2D PUSH2 0x39BB JUMP JUMPDEST JUMPDEST PUSH1 0x0 PUSH2 0x4F3C DUP5 DUP3 DUP6 ADD PUSH2 0x461E JUMP JUMPDEST SWAP2 POP POP SWAP3 SWAP2 POP POP JUMP JUMPDEST PUSH32 0x4E6F7420617574686F72697A65642E0000000000000000000000000000000000 PUSH1 0x0 DUP3 ADD MSTORE POP JUMP JUMPDEST PUSH1 0x0 PUSH2 0x4F7B PUSH1 0xF DUP4 PUSH2 0x3E9B JUMP JUMPDEST SWAP2 POP PUSH2 0x4F86 DUP3 PUSH2 0x4F45 JUMP JUMPDEST PUSH1 0x20 DUP3 ADD SWAP1 POP SWAP2 SWAP1 POP JUMP JUMPDEST PUSH1 0x0 PUSH1 0x20 DUP3 ADD SWAP1 POP DUP2 DUP2 SUB PUSH1 0x0 DUP4 ADD MSTORE PUSH2 0x4FAA DUP2 PUSH2 0x4F6E JUMP JUMPDEST SWAP1 POP SWAP2 SWAP1 POP JUMP JUMPDEST PUSH1 0x0 PUSH1 0x60 DUP3 ADD SWAP1 POP PUSH2 0x4FC6 PUSH1 0x0 DUP4 ADD DUP7 PUSH2 0x3CB2 JUMP JUMPDEST PUSH2 0x4FD3 PUSH1 0x20 DUP4 ADD DUP6 PUSH2 0x4707 JUMP JUMPDEST PUSH2 0x4FE0 PUSH1 0x40 DUP4 ADD DUP5 PUSH2 0x4707 JUMP JUMPDEST SWAP5 SWAP4 POP POP POP POP JUMP JUMPDEST PUSH1 0x0 DUP2 MLOAD SWAP1 POP PUSH2 0x4FF7 DUP2 PUSH2 0x3ADF JUMP JUMPDEST SWAP3 SWAP2 POP POP JUMP JUMPDEST PUSH1 0x0 DUP1 PUSH1 0x40 DUP4 DUP6 SUB SLT ISZERO PUSH2 0x5014 JUMPI PUSH2 0x5013 PUSH2 0x39BB JUMP JUMPDEST JUMPDEST PUSH1 0x0 PUSH2 0x5022 DUP6 DUP3 DUP7 ADD PUSH2 0x4FE8 JUMP JUMPDEST SWAP3 POP POP PUSH1 0x20 PUSH2 0x5033 DUP6 DUP3 DUP7 ADD PUSH2 0x4633 JUMP JUMPDEST SWAP2 POP POP SWAP3 POP SWAP3 SWAP1 POP JUMP JUMPDEST PUSH1 0x0 PUSH1 0x40 DUP3 ADD SWAP1 POP PUSH2 0x5052 PUSH1 0x0 DUP4 ADD DUP6 PUSH2 0x3CB2 JUMP JUMPDEST PUSH2 0x505F PUSH1 0x20 DUP4 ADD DUP5 PUSH2 0x4707 JUMP JUMPDEST SWAP4 SWAP3 POP POP POP JUMP JUMPDEST PUSH32 0x5468652066656520697320746F6F206869676820746F2063686172676520616E PUSH1 0x0 DUP3 ADD MSTORE PUSH32 0x797468696E672E00000000000000000000000000000000000000000000000000 PUSH1 0x20 DUP3 ADD MSTORE POP JUMP JUMPDEST PUSH1 0x0 PUSH2 0x50C2 PUSH1 0x27 DUP4 PUSH2 0x3E9B JUMP JUMPDEST SWAP2 POP PUSH2 0x50CD DUP3 PUSH2 0x5066 JUMP JUMPDEST PUSH1 0x40 DUP3 ADD SWAP1 POP SWAP2 SWAP1 POP JUMP JUMPDEST PUSH1 0x0 PUSH1 0x20 DUP3 ADD SWAP1 POP DUP2 DUP2 SUB PUSH1 0x0 DUP4 ADD MSTORE PUSH2 0x50F1 DUP2 PUSH2 0x50B5 JUMP JUMPDEST SWAP1 POP SWAP2 SWAP1 POP JUMP JUMPDEST PUSH1 0x0 PUSH1 0x20 DUP3 DUP5 SUB SLT ISZERO PUSH2 0x510E JUMPI PUSH2 0x510D PUSH2 0x39BB JUMP JUMPDEST JUMPDEST PUSH1 0x0 PUSH2 0x511C DUP5 DUP3 DUP6 ADD PUSH2 0x4FE8 JUMP JUMPDEST SWAP2 POP POP SWAP3 SWAP2 POP POP JUMP JUMPDEST PUSH32 0x526571756972657320726567697374726174696F6E0000000000000000000000 PUSH1 0x0 DUP3 ADD MSTORE POP JUMP JUMPDEST PUSH1 0x0 PUSH2 0x515B PUSH1 0x15 DUP4 PUSH2 0x3E9B JUMP JUMPDEST SWAP2 POP PUSH2 0x5166 DUP3 PUSH2 0x5125 JUMP JUMPDEST PUSH1 0x20 DUP3 ADD SWAP1 POP SWAP2 SWAP1 POP JUMP JUMPDEST PUSH1 0x0 PUSH1 0x20 DUP3 ADD SWAP1 POP DUP2 DUP2 SUB PUSH1 0x0 DUP4 ADD MSTORE PUSH2 0x518A DUP2 PUSH2 0x514E JUMP JUMPDEST SWAP1 POP SWAP2 SWAP1 POP JUMP JUMPDEST PUSH1 0x0 PUSH1 0xA0 DUP3 ADD SWAP1 POP PUSH2 0x51A6 PUSH1 0x0 DUP4 ADD DUP9 PUSH2 0x3CB2 JUMP JUMPDEST PUSH2 0x51B3 PUSH1 0x20 DUP4 ADD DUP8 PUSH2 0x3CB2 JUMP JUMPDEST PUSH2 0x51C0 PUSH1 0x40 DUP4 ADD DUP7 PUSH2 0x3CB2 JUMP JUMPDEST PUSH2 0x51CD PUSH1 0x60 DUP4 ADD DUP6 PUSH2 0x4707 JUMP JUMPDEST PUSH2 0x51DA PUSH1 0x80 DUP4 ADD DUP5 PUSH2 0x4707 JUMP JUMPDEST SWAP7 SWAP6 POP POP POP POP POP POP JUMP JUMPDEST PUSH32 0x4F776E61626C653A2063616C6C6572206973206E6F7420746865206F776E6572 PUSH1 0x0 DUP3 ADD MSTORE POP JUMP JUMPDEST PUSH1 0x0 PUSH2 0x521A PUSH1 0x20 DUP4 PUSH2 0x3E9B JUMP JUMPDEST SWAP2 POP PUSH2 0x5225 DUP3 PUSH2 0x51E4 JUMP JUMPDEST PUSH1 0x20 DUP3 ADD SWAP1 POP SWAP2 SWAP1 POP JUMP JUMPDEST PUSH1 0x0 PUSH1 0x20 DUP3 ADD SWAP1 POP DUP2 DUP2 SUB PUSH1 0x0 DUP4 ADD MSTORE PUSH2 0x5249 DUP2 PUSH2 0x520D JUMP JUMPDEST SWAP1 POP SWAP2 SWAP1 POP JUMP JUMPDEST PUSH32 0x5361666545524332303A204552433230206F7065726174696F6E20646964206E PUSH1 0x0 DUP3 ADD MSTORE PUSH32 0x6F74207375636365656400000000000000000000000000000000000000000000 PUSH1 0x20 DUP3 ADD MSTORE POP JUMP JUMPDEST PUSH1 0x0 PUSH2 0x52AC PUSH1 0x2A DUP4 PUSH2 0x3E9B JUMP JUMPDEST SWAP2 POP PUSH2 0x52B7 DUP3 PUSH2 0x5250 JUMP JUMPDEST PUSH1 0x40 DUP3 ADD SWAP1 POP SWAP2 SWAP1 POP JUMP JUMPDEST PUSH1 0x0 PUSH1 0x20 DUP3 ADD SWAP1 POP DUP2 DUP2 SUB PUSH1 0x0 DUP4 ADD MSTORE PUSH2 0x52DB DUP2 PUSH2 0x529F JUMP JUMPDEST SWAP1 POP SWAP2 SWAP1 POP JUMP JUMPDEST PUSH1 0x0 DUP2 SWAP1 POP SWAP3 SWAP2 POP POP JUMP JUMPDEST PUSH32 0x1901000000000000000000000000000000000000000000000000000000000000 PUSH1 0x0 DUP3 ADD MSTORE POP JUMP JUMPDEST PUSH1 0x0 PUSH2 0x5323 PUSH1 0x2 DUP4 PUSH2 0x52E2 JUMP JUMPDEST SWAP2 POP PUSH2 0x532E DUP3 PUSH2 0x52ED JUMP JUMPDEST PUSH1 0x2 DUP3 ADD SWAP1 POP SWAP2 SWAP1 POP JUMP JUMPDEST PUSH1 0x0 DUP2 SWAP1 POP SWAP2 SWAP1 POP JUMP JUMPDEST PUSH2 0x5354 PUSH2 0x534F DUP3 PUSH2 0x3C04 JUMP JUMPDEST PUSH2 0x5339 JUMP JUMPDEST DUP3 MSTORE POP POP JUMP JUMPDEST PUSH1 0x0 PUSH2 0x5365 DUP3 PUSH2 0x5316 JUMP JUMPDEST SWAP2 POP PUSH2 0x5371 DUP3 DUP6 PUSH2 0x5343 JUMP JUMPDEST PUSH1 0x20 DUP3 ADD SWAP2 POP PUSH2 0x5381 DUP3 DUP5 PUSH2 0x5343 JUMP JUMPDEST PUSH1 0x20 DUP3 ADD SWAP2 POP DUP2 SWAP1 POP SWAP4 SWAP3 POP POP POP JUMP JUMPDEST PUSH1 0x0 DUP2 PUSH1 0xF8 SHL SWAP1 POP SWAP2 SWAP1 POP JUMP JUMPDEST PUSH1 0x0 PUSH2 0x53A9 DUP3 PUSH2 0x5391 JUMP JUMPDEST SWAP1 POP SWAP2 SWAP1 POP JUMP JUMPDEST PUSH2 0x53C1 PUSH2 0x53BC DUP3 PUSH2 0x4150 JUMP JUMPDEST PUSH2 0x539E JUMP JUMPDEST DUP3 MSTORE POP POP JUMP JUMPDEST PUSH1 0x0 PUSH2 0x53D3 DUP3 DUP7 PUSH2 0x5343 JUMP JUMPDEST PUSH1 0x20 DUP3 ADD SWAP2 POP PUSH2 0x53E3 DUP3 DUP6 PUSH2 0x5343 JUMP JUMPDEST PUSH1 0x20 DUP3 ADD SWAP2 POP PUSH2 0x53F3 DUP3 DUP5 PUSH2 0x53B0 JUMP JUMPDEST PUSH1 0x1 DUP3 ADD SWAP2 POP DUP2 SWAP1 POP SWAP5 SWAP4 POP POP POP POP JUMP JUMPDEST PUSH1 0x0 DUP2 MLOAD SWAP1 POP SWAP2 SWAP1 POP JUMP JUMPDEST PUSH1 0x0 DUP3 DUP3 MSTORE PUSH1 0x20 DUP3 ADD SWAP1 POP SWAP3 SWAP2 POP POP JUMP JUMPDEST PUSH1 0x0 JUMPDEST DUP4 DUP2 LT ISZERO PUSH2 0x543E JUMPI DUP1 DUP3 ADD MLOAD DUP2 DUP5 ADD MSTORE PUSH1 0x20 DUP2 ADD SWAP1 POP PUSH2 0x5423 JUMP JUMPDEST PUSH1 0x0 DUP5 DUP5 ADD MSTORE POP POP POP POP JUMP JUMPDEST PUSH1 0x0 PUSH2 0x5455 DUP3 PUSH2 0x5404 JUMP JUMPDEST PUSH2 0x545F DUP2 DUP6 PUSH2 0x540F JUMP JUMPDEST SWAP4 POP PUSH2 0x546F DUP2 DUP6 PUSH1 0x20 DUP7 ADD PUSH2 0x5420 JUMP JUMPDEST PUSH2 0x5478 DUP2 PUSH2 0x40C4 JUMP JUMPDEST DUP5 ADD SWAP2 POP POP SWAP3 SWAP2 POP POP JUMP JUMPDEST PUSH1 0x0 PUSH1 0x40 DUP3 ADD SWAP1 POP PUSH2 0x5498 PUSH1 0x0 DUP4 ADD DUP6 PUSH2 0x3C0E JUMP JUMPDEST DUP2 DUP2 SUB PUSH1 0x20 DUP4 ADD MSTORE PUSH2 0x54AA DUP2 DUP5 PUSH2 0x544A JUMP JUMPDEST SWAP1 POP SWAP4 SWAP3 POP POP POP JUMP JUMPDEST PUSH2 0x54BC DUP2 PUSH2 0x3BAE JUMP JUMPDEST DUP2 EQ PUSH2 0x54C7 JUMPI PUSH1 0x0 DUP1 REVERT JUMPDEST POP JUMP JUMPDEST PUSH1 0x0 DUP2 MLOAD SWAP1 POP PUSH2 0x54D9 DUP2 PUSH2 0x54B3 JUMP JUMPDEST SWAP3 SWAP2 POP POP JUMP JUMPDEST PUSH1 0x0 PUSH1 0x20 DUP3 DUP5 SUB SLT ISZERO PUSH2 0x54F5 JUMPI PUSH2 0x54F4 PUSH2 0x39BB JUMP JUMPDEST JUMPDEST PUSH1 0x0 PUSH2 0x5503 DUP5 DUP3 DUP6 ADD PUSH2 0x54CA JUMP JUMPDEST SWAP2 POP POP SWAP3 SWAP2 POP POP JUMP JUMPDEST PUSH1 0x0 PUSH1 0x20 DUP3 DUP5 SUB SLT ISZERO PUSH2 0x5522 JUMPI PUSH2 0x5521 PUSH2 0x39BB JUMP JUMPDEST JUMPDEST PUSH1 0x0 PUSH2 0x5530 DUP5 DUP3 DUP6 ADD PUSH2 0x4633 JUMP JUMPDEST SWAP2 POP POP SWAP3 SWAP2 POP POP JUMP JUMPDEST PUSH1 0x0 PUSH2 0x5544 DUP3 PUSH2 0x3A4A JUMP JUMPDEST SWAP2 POP PUSH2 0x554F DUP4 PUSH2 0x3A4A JUMP JUMPDEST SWAP3 POP DUP3 DUP3 MUL PUSH2 0x555D DUP2 PUSH2 0x3A4A JUMP JUMPDEST SWAP2 POP DUP3 DUP3 DIV DUP5 EQ DUP4 ISZERO OR PUSH2 0x5574 JUMPI PUSH2 0x5573 PUSH2 0x3FF0 JUMP JUMPDEST JUMPDEST POP SWAP3 SWAP2 POP POP JUMP JUMPDEST PUSH32 0x4E487B7100000000000000000000000000000000000000000000000000000000 PUSH1 0x0 MSTORE PUSH1 0x12 PUSH1 0x4 MSTORE PUSH1 0x24 PUSH1 0x0 REVERT JUMPDEST PUSH1 0x0 PUSH2 0x55B5 DUP3 PUSH2 0x3A4A JUMP JUMPDEST SWAP2 POP PUSH2 0x55C0 DUP4 PUSH2 0x3A4A JUMP JUMPDEST SWAP3 POP DUP3 PUSH2 0x55D0 JUMPI PUSH2 0x55CF PUSH2 0x557B JUMP JUMPDEST JUMPDEST DUP3 DUP3 DIV SWAP1 POP SWAP3 SWAP2 POP POP JUMP JUMPDEST PUSH32 0x7472616E736665723A2062616C616E6365206973206E6F7420656E6F75676800 PUSH1 0x0 DUP3 ADD MSTORE POP JUMP JUMPDEST PUSH1 0x0 PUSH2 0x5611 PUSH1 0x1F DUP4 PUSH2 0x3E9B JUMP JUMPDEST SWAP2 POP PUSH2 0x561C DUP3 PUSH2 0x55DB JUMP JUMPDEST PUSH1 0x20 DUP3 ADD SWAP1 POP SWAP2 SWAP1 POP JUMP JUMPDEST PUSH1 0x0 PUSH1 0x20 DUP3 ADD SWAP1 POP DUP2 DUP2 SUB PUSH1 0x0 DUP4 ADD MSTORE PUSH2 0x5640 DUP2 PUSH2 0x5604 JUMP JUMPDEST SWAP1 POP SWAP2 SWAP1 POP JUMP JUMPDEST PUSH1 0x0 DUP2 SWAP1 POP SWAP3 SWAP2 POP POP JUMP JUMPDEST PUSH1 0x0 PUSH2 0x565F PUSH1 0x0 DUP4 PUSH2 0x5647 JUMP JUMPDEST SWAP2 POP PUSH2 0x566A DUP3 PUSH2 0x4785 JUMP JUMPDEST PUSH1 0x0 DUP3 ADD SWAP1 POP SWAP2 SWAP1 POP JUMP JUMPDEST PUSH1 0x0 PUSH2 0x5680 DUP3 PUSH2 0x5652 JUMP JUMPDEST SWAP2 POP DUP2 SWAP1 POP SWAP2 SWAP1 POP JUMP JUMPDEST PUSH32 0x7472616E736665723A20756E61626C6520746F2073656E642076616C75650000 PUSH1 0x0 DUP3 ADD MSTORE POP JUMP JUMPDEST PUSH1 0x0 PUSH2 0x56C0 PUSH1 0x1E DUP4 PUSH2 0x3E9B JUMP JUMPDEST SWAP2 POP PUSH2 0x56CB DUP3 PUSH2 0x568A JUMP JUMPDEST PUSH1 0x20 DUP3 ADD SWAP1 POP SWAP2 SWAP1 POP JUMP JUMPDEST PUSH1 0x0 PUSH1 0x20 DUP3 ADD SWAP1 POP DUP2 DUP2 SUB PUSH1 0x0 DUP4 ADD MSTORE PUSH2 0x56EF DUP2 PUSH2 0x56B3 JUMP JUMPDEST SWAP1 POP SWAP2 SWAP1 POP JUMP JUMPDEST PUSH32 0x5369676E61747572653A20496E76616C6964207320706172616D657465720000 PUSH1 0x0 DUP3 ADD MSTORE POP JUMP JUMPDEST PUSH1 0x0 PUSH2 0x572C PUSH1 0x1E DUP4 PUSH2 0x3E9B JUMP JUMPDEST SWAP2 POP PUSH2 0x5737 DUP3 PUSH2 0x56F6 JUMP JUMPDEST PUSH1 0x20 DUP3 ADD SWAP1 POP SWAP2 SWAP1 POP JUMP JUMPDEST PUSH1 0x0 PUSH1 0x20 DUP3 ADD SWAP1 POP DUP2 DUP2 SUB PUSH1 0x0 DUP4 ADD MSTORE PUSH2 0x575B DUP2 PUSH2 0x571F JUMP JUMPDEST SWAP1 POP SWAP2 SWAP1 POP JUMP JUMPDEST PUSH32 0x5369676E61747572653A20496E76616C6964207620706172616D657465720000 PUSH1 0x0 DUP3 ADD MSTORE POP JUMP JUMPDEST PUSH1 0x0 PUSH2 0x5798 PUSH1 0x1E DUP4 PUSH2 0x3E9B JUMP JUMPDEST SWAP2 POP PUSH2 0x57A3 DUP3 PUSH2 0x5762 JUMP JUMPDEST PUSH1 0x20 DUP3 ADD SWAP1 POP SWAP2 SWAP1 POP JUMP JUMPDEST PUSH1 0x0 PUSH1 0x20 DUP3 ADD SWAP1 POP DUP2 DUP2 SUB PUSH1 0x0 DUP4 ADD MSTORE PUSH2 0x57C7 DUP2 PUSH2 0x578B JUMP JUMPDEST SWAP1 POP SWAP2 SWAP1 POP JUMP JUMPDEST PUSH2 0x57D7 DUP2 PUSH2 0x4150 JUMP JUMPDEST DUP3 MSTORE POP POP JUMP JUMPDEST PUSH1 0x0 PUSH1 0x80 DUP3 ADD SWAP1 POP PUSH2 0x57F2 PUSH1 0x0 DUP4 ADD DUP8 PUSH2 0x3C0E JUMP JUMPDEST PUSH2 0x57FF PUSH1 0x20 DUP4 ADD DUP7 PUSH2 0x57CE JUMP JUMPDEST PUSH2 0x580C PUSH1 0x40 DUP4 ADD DUP6 PUSH2 0x3C0E JUMP JUMPDEST PUSH2 0x5819 PUSH1 0x60 DUP4 ADD DUP5 PUSH2 0x3C0E JUMP JUMPDEST SWAP6 SWAP5 POP POP POP POP POP JUMP JUMPDEST PUSH32 0x5369676E61747572653A20496E76616C6964207369676E657200000000000000 PUSH1 0x0 DUP3 ADD MSTORE POP JUMP JUMPDEST PUSH1 0x0 PUSH2 0x5858 PUSH1 0x19 DUP4 PUSH2 0x3E9B JUMP JUMPDEST SWAP2 POP PUSH2 0x5863 DUP3 PUSH2 0x5822 JUMP JUMPDEST PUSH1 0x20 DUP3 ADD SWAP1 POP SWAP2 SWAP1 POP JUMP JUMPDEST PUSH1 0x0 PUSH1 0x20 DUP3 ADD SWAP1 POP DUP2 DUP2 SUB PUSH1 0x0 DUP4 ADD MSTORE PUSH2 0x5887 DUP2 PUSH2 0x584B JUMP JUMPDEST SWAP1 POP SWAP2 SWAP1 POP JUMP JUMPDEST PUSH32 0x416464726573733A20696E73756666696369656E742062616C616E636520666F PUSH1 0x0 DUP3 ADD MSTORE PUSH32 0x722063616C6C0000000000000000000000000000000000000000000000000000 PUSH1 0x20 DUP3 ADD MSTORE POP JUMP JUMPDEST PUSH1 0x0 PUSH2 0x58EA PUSH1 0x26 DUP4 PUSH2 0x3E9B JUMP JUMPDEST SWAP2 POP PUSH2 0x58F5 DUP3 PUSH2 0x588E JUMP JUMPDEST PUSH1 0x40 DUP3 ADD SWAP1 POP SWAP2 SWAP1 POP JUMP JUMPDEST PUSH1 0x0 PUSH1 0x20 DUP3 ADD SWAP1 POP DUP2 DUP2 SUB PUSH1 0x0 DUP4 ADD MSTORE PUSH2 0x5919 DUP2 PUSH2 0x58DD JUMP JUMPDEST SWAP1 POP SWAP2 SWAP1 POP JUMP JUMPDEST PUSH1 0x0 PUSH2 0x592B DUP3 PUSH2 0x5404 JUMP JUMPDEST PUSH2 0x5935 DUP2 DUP6 PUSH2 0x5647 JUMP JUMPDEST SWAP4 POP PUSH2 0x5945 DUP2 DUP6 PUSH1 0x20 DUP7 ADD PUSH2 0x5420 JUMP JUMPDEST DUP1 DUP5 ADD SWAP2 POP POP SWAP3 SWAP2 POP POP JUMP JUMPDEST PUSH1 0x0 PUSH2 0x595D DUP3 DUP5 PUSH2 0x5920 JUMP JUMPDEST SWAP2 POP DUP2 SWAP1 POP SWAP3 SWAP2 POP POP JUMP JUMPDEST PUSH32 0x416464726573733A2063616C6C20746F206E6F6E2D636F6E7472616374000000 PUSH1 0x0 DUP3 ADD MSTORE POP JUMP JUMPDEST PUSH1 0x0 PUSH2 0x599E PUSH1 0x1D DUP4 PUSH2 0x3E9B JUMP JUMPDEST SWAP2 POP PUSH2 0x59A9 DUP3 PUSH2 0x5968 JUMP JUMPDEST PUSH1 0x20 DUP3 ADD SWAP1 POP SWAP2 SWAP1 POP JUMP JUMPDEST PUSH1 0x0 PUSH1 0x20 DUP3 ADD SWAP1 POP DUP2 DUP2 SUB PUSH1 0x0 DUP4 ADD MSTORE PUSH2 0x59CD DUP2 PUSH2 0x5991 JUMP JUMPDEST SWAP1 POP SWAP2 SWAP1 POP JUMP JUMPDEST PUSH1 0x0 DUP2 MLOAD SWAP1 POP SWAP2 SWAP1 POP JUMP JUMPDEST PUSH1 0x0 PUSH2 0x59EA DUP3 PUSH2 0x59D4 JUMP JUMPDEST PUSH2 0x59F4 DUP2 DUP6 PUSH2 0x3E9B JUMP JUMPDEST SWAP4 POP PUSH2 0x5A04 DUP2 DUP6 PUSH1 0x20 DUP7 ADD PUSH2 0x5420 JUMP JUMPDEST PUSH2 0x5A0D DUP2 PUSH2 0x40C4 JUMP JUMPDEST DUP5 ADD SWAP2 POP POP SWAP3 SWAP2 POP POP JUMP JUMPDEST PUSH1 0x0 PUSH1 0x20 DUP3 ADD SWAP1 POP DUP2 DUP2 SUB PUSH1 0x0 DUP4 ADD MSTORE PUSH2 0x5A32 DUP2 DUP5 PUSH2 0x59DF JUMP JUMPDEST SWAP1 POP SWAP3 SWAP2 POP POP JUMP INVALID LOG2 PUSH5 0x6970667358 0x22 SLT KECCAK256 DUP2 PUSH27 0x7EE7233DBDEE477440245C51F30A81669DAA6D084025A41B8FDE99 REVERT PUSH9 0x3364736F6C63430008 SGT STOP CALLER "
		},
		"gasEstimates": {
			"creation": {
				"codeDepositCost": "4630400",
				"executionCost": "infinite",
				"totalCost": "infinite"
			},
			"external": {
				"DOMAIN_SEPARATOR()": "infinite",
				"INTERFACE_ID_ERC1155()": "364",
				"INTERFACE_ID_ERC721()": "363",
				"WETH()": "infinite",
				"cancelAll(uint256)": "infinite",
				"cancelSellAndSuggest(uint256[])": "infinite",
				"isUserOrderNonceExecutedOrCancelled(address,uint256)": "3246",
				"owner()": "2655",
				"proposerPay((bool,address,uint256,uint256),(bool,address,address,uint256,uint256,uint256,address,address,uint256,uint256,uint256,uint8,bytes32,bytes32))": "infinite",
				"proposerPayETH((bool,address,uint256,uint256),(bool,address,address,uint256,uint256,uint256,address,address,uint256,uint256,uint256,uint8,bytes32,bytes32))": "infinite",
				"proposerPayETHAndWETH((bool,address,uint256,uint256),(bool,address,address,uint256,uint256,uint256,address,address,uint256,uint256,uint256,uint8,bytes32,bytes32))": "infinite",
				"protocolExecutionManager()": "infinite",
				"protocoleFeeRecipient()": "2625",
				"renounceOwnership()": "30487",
				"royaltyManager()": "infinite",
				"suggestApprove((bool,address,uint256,uint256),(bool,address,address,uint256,uint256,uint256,address,address,uint256,uint256,uint256,uint8,bytes32,bytes32))": "infinite",
				"tradeTokenManager()": "infinite",
				"transferManager()": "infinite",
				"transferOwnership(address)": "30854",
				"updateProtocolExecutionManager(address)": "28315",
				"updateRoyaltyManager(address)": "28226",
				"updateTradeTokenManager(address)": "28293",
				"updateTransferManager(address)": "28250"
			},
			"internal": {
				"EthTransfer(address,uint256,uint256)": "infinite",
				"_calculateProtocolFee(address,uint256)": "infinite",
				"_marketOrderValidation(struct MarketTypes.MarketPlace calldata,bytes32)": "infinite",
				"_transferFeesAndRoyalty(address,address,uint256,address,address,address,uint256)": "infinite",
				"_transferFeesAndRoyaltyWithETH(address,address,uint256,address,uint256)": "infinite",
				"_transferFeesAndRoyaltyWithWETH(address,address,uint256,address,uint256)": "infinite",
				"_transferNft(address,address,address,uint256,uint256)": "infinite"
			}
		},
		"methodIdentifiers": {
			"DOMAIN_SEPARATOR()": "3644e515",
			"INTERFACE_ID_ERC1155()": "33bf6156",
			"INTERFACE_ID_ERC721()": "bc6bc0cd",
			"WETH()": "ad5c4648",
			"cancelAll(uint256)": "146fce32",
			"cancelSellAndSuggest(uint256[])": "aa747d3a",
			"isUserOrderNonceExecutedOrCancelled(address,uint256)": "31e27e27",
			"owner()": "8da5cb5b",
			"proposerPay((bool,address,uint256,uint256),(bool,address,address,uint256,uint256,uint256,address,address,uint256,uint256,uint256,uint8,bytes32,bytes32))": "93a4be75",
			"proposerPayETH((bool,address,uint256,uint256),(bool,address,address,uint256,uint256,uint256,address,address,uint256,uint256,uint256,uint8,bytes32,bytes32))": "f4195742",
			"proposerPayETHAndWETH((bool,address,uint256,uint256),(bool,address,address,uint256,uint256,uint256,address,address,uint256,uint256,uint256,uint8,bytes32,bytes32))": "076e5718",
			"protocolExecutionManager()": "ebf1decc",
			"protocoleFeeRecipient()": "8b655ee0",
			"renounceOwnership()": "715018a6",
			"royaltyManager()": "ee295d62",
			"suggestApprove((bool,address,uint256,uint256),(bool,address,address,uint256,uint256,uint256,address,address,uint256,uint256,uint256,uint8,bytes32,bytes32))": "2ef19e0d",
			"tradeTokenManager()": "9bbc6d88",
			"transferManager()": "46ea2552",
			"transferOwnership(address)": "f2fde38b",
			"updateProtocolExecutionManager(address)": "b6cdf821",
			"updateRoyaltyManager(address)": "c8f93509",
			"updateTradeTokenManager(address)": "b4b634c6",
			"updateTransferManager(address)": "2dd85ad9"
		}
	},
	"abi": [
		{
			"inputs": [
				{
					"internalType": "address",
					"name": "_tradeTokenManager",
					"type": "address"
				},
				{
					"internalType": "address",
					"name": "_protocolExecutionManager",
					"type": "address"
				},
				{
					"internalType": "address",
					"name": "_royaltyManager",
					"type": "address"
				},
				{
					"internalType": "address",
					"name": "_transferManager",
					"type": "address"
				},
				{
					"internalType": "address",
					"name": "_WETH",
					"type": "address"
				},
				{
					"internalType": "address",
					"name": "_protocolFeeRecipient",
					"type": "address"
				}
			],
			"stateMutability": "nonpayable",
			"type": "constructor"
		},
		{
			"anonymous": false,
			"inputs": [
				{
					"indexed": true,
					"internalType": "address",
					"name": "user",
					"type": "address"
				},
				{
					"indexed": false,
					"internalType": "uint256",
					"name": "newMinNonce",
					"type": "uint256"
				}
			],
			"name": "CancelAllOrders",
			"type": "event"
		},
		{
			"anonymous": false,
			"inputs": [
				{
					"indexed": true,
					"internalType": "address",
					"name": "user",
					"type": "address"
				},
				{
					"indexed": false,
					"internalType": "uint256[]",
					"name": "orderNonces",
					"type": "uint256[]"
				}
			],
			"name": "CancelMultipleOrders",
			"type": "event"
		},
		{
			"anonymous": false,
			"inputs": [
				{
					"indexed": true,
					"internalType": "address",
					"name": "protocolExecutionManager",
					"type": "address"
				}
			],
			"name": "NewProtocolExecutionManager",
			"type": "event"
		},
		{
			"anonymous": false,
			"inputs": [
				{
					"indexed": true,
					"internalType": "address",
					"name": "protocoleFeeRecipient",
					"type": "address"
				}
			],
			"name": "NewProtocolFeeRecipient",
			"type": "event"
		},
		{
			"anonymous": false,
			"inputs": [
				{
					"indexed": true,
					"internalType": "address",
					"name": "royaltyManager",
					"type": "address"
				}
			],
			"name": "NewRoyaltyManager",
			"type": "event"
		},
		{
			"anonymous": false,
			"inputs": [
				{
					"indexed": true,
					"internalType": "address",
					"name": "tradeTokenManager",
					"type": "address"
				}
			],
			"name": "NewTradeTokenManager",
			"type": "event"
		},
		{
			"anonymous": false,
			"inputs": [
				{
					"indexed": true,
					"internalType": "address",
					"name": "transferManager",
					"type": "address"
				}
			],
			"name": "NewTransferManager",
			"type": "event"
		},
		{
			"anonymous": false,
			"inputs": [
				{
					"indexed": true,
					"internalType": "address",
					"name": "previousOwner",
					"type": "address"
				},
				{
					"indexed": true,
					"internalType": "address",
					"name": "newOwner",
					"type": "address"
				}
			],
			"name": "OwnershipTransferred",
			"type": "event"
		},
		{
			"anonymous": false,
			"inputs": [
				{
					"indexed": true,
					"internalType": "address",
					"name": "collection",
					"type": "address"
				},
				{
					"indexed": true,
					"internalType": "uint256",
					"name": "tokenId",
					"type": "uint256"
				},
				{
					"indexed": true,
					"internalType": "address",
					"name": "royaltyRecipient",
					"type": "address"
				},
				{
					"indexed": false,
					"internalType": "address",
					"name": "currency",
					"type": "address"
				},
				{
					"indexed": false,
					"internalType": "uint256",
					"name": "amount",
					"type": "uint256"
				}
			],
			"name": "RoyaltyPayment",
			"type": "event"
		},
		{
			"anonymous": false,
			"inputs": [
				{
					"indexed": false,
					"internalType": "bytes32",
					"name": "marketPlaceHash",
					"type": "bytes32"
				},
				{
					"indexed": false,
					"internalType": "uint256",
					"name": "orderNonce",
					"type": "uint256"
				},
				{
					"indexed": true,
					"internalType": "address",
					"name": "userProposer",
					"type": "address"
				},
				{
					"indexed": true,
					"internalType": "address",
					"name": "marketSeller",
					"type": "address"
				},
				{
					"indexed": true,
					"internalType": "address",
					"name": "protocolAddress",
					"type": "address"
				},
				{
					"indexed": false,
					"internalType": "address",
					"name": "tradeTokenAddress",
					"type": "address"
				},
				{
					"indexed": false,
					"internalType": "address",
					"name": "collection",
					"type": "address"
				},
				{
					"indexed": false,
					"internalType": "uint256",
					"name": "tokenId",
					"type": "uint256"
				},
				{
					"indexed": false,
					"internalType": "uint256",
					"name": "amount",
					"type": "uint256"
				},
				{
					"indexed": false,
					"internalType": "uint256",
					"name": "price",
					"type": "uint256"
				}
			],
			"name": "UserProposer",
			"type": "event"
		},
		{
			"anonymous": false,
			"inputs": [
				{
					"indexed": false,
					"internalType": "bytes32",
					"name": "marketPlaceHash",
					"type": "bytes32"
				},
				{
					"indexed": false,
					"internalType": "uint256",
					"name": "orderNonce",
					"type": "uint256"
				},
				{
					"indexed": true,
					"internalType": "address",
					"name": "userSeller",
					"type": "address"
				},
				{
					"indexed": true,
					"internalType": "address",
					"name": "marketProposer",
					"type": "address"
				},
				{
					"indexed": true,
					"internalType": "address",
					"name": "protocolAddress",
					"type": "address"
				},
				{
					"indexed": false,
					"internalType": "address",
					"name": "tradeTokenAddress",
					"type": "address"
				},
				{
					"indexed": false,
					"internalType": "address",
					"name": "collection",
					"type": "address"
				},
				{
					"indexed": false,
					"internalType": "uint256",
					"name": "tokenId",
					"type": "uint256"
				},
				{
					"indexed": false,
					"internalType": "uint256",
					"name": "nftAmount",
					"type": "uint256"
				},
				{
					"indexed": false,
					"internalType": "uint256",
					"name": "price",
					"type": "uint256"
				}
			],
			"name": "UserSeller",
			"type": "event"
		},
		{
			"inputs": [],
			"name": "DOMAIN_SEPARATOR",
			"outputs": [
				{
					"internalType": "bytes32",
					"name": "",
					"type": "bytes32"
				}
			],
			"stateMutability": "view",
			"type": "function"
		},
		{
			"inputs": [],
			"name": "INTERFACE_ID_ERC1155",
			"outputs": [
				{
					"internalType": "bytes4",
					"name": "",
					"type": "bytes4"
				}
			],
			"stateMutability": "view",
			"type": "function"
		},
		{
			"inputs": [],
			"name": "INTERFACE_ID_ERC721",
			"outputs": [
				{
					"internalType": "bytes4",
					"name": "",
					"type": "bytes4"
				}
			],
			"stateMutability": "view",
			"type": "function"
		},
		{
			"inputs": [],
			"name": "WETH",
			"outputs": [
				{
					"internalType": "address",
					"name": "",
					"type": "address"
				}
			],
			"stateMutability": "view",
			"type": "function"
		},
		{
			"inputs": [
				{
					"internalType": "uint256",
					"name": "minNonce",
					"type": "uint256"
				}
			],
			"name": "cancelAll",
			"outputs": [],
			"stateMutability": "nonpayable",
			"type": "function"
		},
		{
			"inputs": [
				{
					"internalType": "uint256[]",
					"name": "orderNonces",
					"type": "uint256[]"
				}
			],
			"name": "cancelSellAndSuggest",
			"outputs": [],
			"stateMutability": "nonpayable",
			"type": "function"
		},
		{
			"inputs": [
				{
					"internalType": "address",
					"name": "user",
					"type": "address"
				},
				{
					"internalType": "uint256",
					"name": "orderNonces",
					"type": "uint256"
				}
			],
			"name": "isUserOrderNonceExecutedOrCancelled",
			"outputs": [
				{
					"internalType": "bool",
					"name": "",
					"type": "bool"
				}
			],
			"stateMutability": "view",
			"type": "function"
		},
		{
			"inputs": [],
			"name": "owner",
			"outputs": [
				{
					"internalType": "address",
					"name": "",
					"type": "address"
				}
			],
			"stateMutability": "view",
			"type": "function"
		},
		{
			"inputs": [
				{
					"components": [
						{
							"internalType": "bool",
							"name": "isDealer",
							"type": "bool"
						},
						{
							"internalType": "address",
							"name": "takerAddress",
							"type": "address"
						},
						{
							"internalType": "uint256",
							"name": "price",
							"type": "uint256"
						},
						{
							"internalType": "uint256",
							"name": "tokenId",
							"type": "uint256"
						}
					],
					"internalType": "struct MarketTypes.User",
					"name": "userProposer",
					"type": "tuple"
				},
				{
					"components": [
						{
							"internalType": "bool",
							"name": "isDealer",
							"type": "bool"
						},
						{
							"internalType": "address",
							"name": "edemSigner",
							"type": "address"
						},
						{
							"internalType": "address",
							"name": "collection",
							"type": "address"
						},
						{
							"internalType": "uint256",
							"name": "tokenId",
							"type": "uint256"
						},
						{
							"internalType": "uint256",
							"name": "nftAmount",
							"type": "uint256"
						},
						{
							"internalType": "uint256",
							"name": "price",
							"type": "uint256"
						},
						{
							"internalType": "address",
							"name": "protocolAddress",
							"type": "address"
						},
						{
							"internalType": "address",
							"name": "tradeTokenAddress",
							"type": "address"
						},
						{
							"internalType": "uint256",
							"name": "nonce",
							"type": "uint256"
						},
						{
							"internalType": "uint256",
							"name": "startTime",
							"type": "uint256"
						},
						{
							"internalType": "uint256",
							"name": "endTime",
							"type": "uint256"
						},
						{
							"internalType": "uint8",
							"name": "v",
							"type": "uint8"
						},
						{
							"internalType": "bytes32",
							"name": "r",
							"type": "bytes32"
						},
						{
							"internalType": "bytes32",
							"name": "s",
							"type": "bytes32"
						}
					],
					"internalType": "struct MarketTypes.MarketPlace",
					"name": "marketSeller",
					"type": "tuple"
				}
			],
			"name": "proposerPay",
			"outputs": [],
			"stateMutability": "nonpayable",
			"type": "function"
		},
		{
			"inputs": [
				{
					"components": [
						{
							"internalType": "bool",
							"name": "isDealer",
							"type": "bool"
						},
						{
							"internalType": "address",
							"name": "takerAddress",
							"type": "address"
						},
						{
							"internalType": "uint256",
							"name": "price",
							"type": "uint256"
						},
						{
							"internalType": "uint256",
							"name": "tokenId",
							"type": "uint256"
						}
					],
					"internalType": "struct MarketTypes.User",
					"name": "userProposer",
					"type": "tuple"
				},
				{
					"components": [
						{
							"internalType": "bool",
							"name": "isDealer",
							"type": "bool"
						},
						{
							"internalType": "address",
							"name": "edemSigner",
							"type": "address"
						},
						{
							"internalType": "address",
							"name": "collection",
							"type": "address"
						},
						{
							"internalType": "uint256",
							"name": "tokenId",
							"type": "uint256"
						},
						{
							"internalType": "uint256",
							"name": "nftAmount",
							"type": "uint256"
						},
						{
							"internalType": "uint256",
							"name": "price",
							"type": "uint256"
						},
						{
							"internalType": "address",
							"name": "protocolAddress",
							"type": "address"
						},
						{
							"internalType": "address",
							"name": "tradeTokenAddress",
							"type": "address"
						},
						{
							"internalType": "uint256",
							"name": "nonce",
							"type": "uint256"
						},
						{
							"internalType": "uint256",
							"name": "startTime",
							"type": "uint256"
						},
						{
							"internalType": "uint256",
							"name": "endTime",
							"type": "uint256"
						},
						{
							"internalType": "uint8",
							"name": "v",
							"type": "uint8"
						},
						{
							"internalType": "bytes32",
							"name": "r",
							"type": "bytes32"
						},
						{
							"internalType": "bytes32",
							"name": "s",
							"type": "bytes32"
						}
					],
					"internalType": "struct MarketTypes.MarketPlace",
					"name": "marketSeller",
					"type": "tuple"
				}
			],
			"name": "proposerPayETH",
			"outputs": [],
			"stateMutability": "payable",
			"type": "function"
		},
		{
			"inputs": [
				{
					"components": [
						{
							"internalType": "bool",
							"name": "isDealer",
							"type": "bool"
						},
						{
							"internalType": "address",
							"name": "takerAddress",
							"type": "address"
						},
						{
							"internalType": "uint256",
							"name": "price",
							"type": "uint256"
						},
						{
							"internalType": "uint256",
							"name": "tokenId",
							"type": "uint256"
						}
					],
					"internalType": "struct MarketTypes.User",
					"name": "userProposer",
					"type": "tuple"
				},
				{
					"components": [
						{
							"internalType": "bool",
							"name": "isDealer",
							"type": "bool"
						},
						{
							"internalType": "address",
							"name": "edemSigner",
							"type": "address"
						},
						{
							"internalType": "address",
							"name": "collection",
							"type": "address"
						},
						{
							"internalType": "uint256",
							"name": "tokenId",
							"type": "uint256"
						},
						{
							"internalType": "uint256",
							"name": "nftAmount",
							"type": "uint256"
						},
						{
							"internalType": "uint256",
							"name": "price",
							"type": "uint256"
						},
						{
							"internalType": "address",
							"name": "protocolAddress",
							"type": "address"
						},
						{
							"internalType": "address",
							"name": "tradeTokenAddress",
							"type": "address"
						},
						{
							"internalType": "uint256",
							"name": "nonce",
							"type": "uint256"
						},
						{
							"internalType": "uint256",
							"name": "startTime",
							"type": "uint256"
						},
						{
							"internalType": "uint256",
							"name": "endTime",
							"type": "uint256"
						},
						{
							"internalType": "uint8",
							"name": "v",
							"type": "uint8"
						},
						{
							"internalType": "bytes32",
							"name": "r",
							"type": "bytes32"
						},
						{
							"internalType": "bytes32",
							"name": "s",
							"type": "bytes32"
						}
					],
					"internalType": "struct MarketTypes.MarketPlace",
					"name": "marketSeller",
					"type": "tuple"
				}
			],
			"name": "proposerPayETHAndWETH",
			"outputs": [],
			"stateMutability": "payable",
			"type": "function"
		},
		{
			"inputs": [],
			"name": "protocolExecutionManager",
			"outputs": [
				{
					"internalType": "contract IProtocolExecutionManager",
					"name": "",
					"type": "address"
				}
			],
			"stateMutability": "view",
			"type": "function"
		},
		{
			"inputs": [],
			"name": "protocoleFeeRecipient",
			"outputs": [
				{
					"internalType": "address",
					"name": "",
					"type": "address"
				}
			],
			"stateMutability": "view",
			"type": "function"
		},
		{
			"inputs": [],
			"name": "renounceOwnership",
			"outputs": [],
			"stateMutability": "nonpayable",
			"type": "function"
		},
		{
			"inputs": [],
			"name": "royaltyManager",
			"outputs": [
				{
					"internalType": "contract IRoyaltyManager",
					"name": "",
					"type": "address"
				}
			],
			"stateMutability": "view",
			"type": "function"
		},
		{
			"inputs": [
				{
					"components": [
						{
							"internalType": "bool",
							"name": "isDealer",
							"type": "bool"
						},
						{
							"internalType": "address",
							"name": "takerAddress",
							"type": "address"
						},
						{
							"internalType": "uint256",
							"name": "price",
							"type": "uint256"
						},
						{
							"internalType": "uint256",
							"name": "tokenId",
							"type": "uint256"
						}
					],
					"internalType": "struct MarketTypes.User",
					"name": "userSeller",
					"type": "tuple"
				},
				{
					"components": [
						{
							"internalType": "bool",
							"name": "isDealer",
							"type": "bool"
						},
						{
							"internalType": "address",
							"name": "edemSigner",
							"type": "address"
						},
						{
							"internalType": "address",
							"name": "collection",
							"type": "address"
						},
						{
							"internalType": "uint256",
							"name": "tokenId",
							"type": "uint256"
						},
						{
							"internalType": "uint256",
							"name": "nftAmount",
							"type": "uint256"
						},
						{
							"internalType": "uint256",
							"name": "price",
							"type": "uint256"
						},
						{
							"internalType": "address",
							"name": "protocolAddress",
							"type": "address"
						},
						{
							"internalType": "address",
							"name": "tradeTokenAddress",
							"type": "address"
						},
						{
							"internalType": "uint256",
							"name": "nonce",
							"type": "uint256"
						},
						{
							"internalType": "uint256",
							"name": "startTime",
							"type": "uint256"
						},
						{
							"internalType": "uint256",
							"name": "endTime",
							"type": "uint256"
						},
						{
							"internalType": "uint8",
							"name": "v",
							"type": "uint8"
						},
						{
							"internalType": "bytes32",
							"name": "r",
							"type": "bytes32"
						},
						{
							"internalType": "bytes32",
							"name": "s",
							"type": "bytes32"
						}
					],
					"internalType": "struct MarketTypes.MarketPlace",
					"name": "marketProposer",
					"type": "tuple"
				}
			],
			"name": "suggestApprove",
			"outputs": [],
			"stateMutability": "nonpayable",
			"type": "function"
		},
		{
			"inputs": [],
			"name": "tradeTokenManager",
			"outputs": [
				{
					"internalType": "contract ITradeTokenManager",
					"name": "",
					"type": "address"
				}
			],
			"stateMutability": "view",
			"type": "function"
		},
		{
			"inputs": [],
			"name": "transferManager",
			"outputs": [
				{
					"internalType": "contract ITransferManager",
					"name": "",
					"type": "address"
				}
			],
			"stateMutability": "view",
			"type": "function"
		},
		{
			"inputs": [
				{
					"internalType": "address",
					"name": "newOwner",
					"type": "address"
				}
			],
			"name": "transferOwnership",
			"outputs": [],
			"stateMutability": "nonpayable",
			"type": "function"
		},
		{
			"inputs": [
				{
					"internalType": "address",
					"name": "_protocolExecutionManager",
					"type": "address"
				}
			],
			"name": "updateProtocolExecutionManager",
			"outputs": [],
			"stateMutability": "nonpayable",
			"type": "function"
		},
		{
			"inputs": [
				{
					"internalType": "address",
					"name": "_royaltyManager",
					"type": "address"
				}
			],
			"name": "updateRoyaltyManager",
			"outputs": [],
			"stateMutability": "nonpayable",
			"type": "function"
		},
		{
			"inputs": [
				{
					"internalType": "address",
					"name": "_tradeTokenManager",
					"type": "address"
				}
			],
			"name": "updateTradeTokenManager",
			"outputs": [],
			"stateMutability": "nonpayable",
			"type": "function"
		},
		{
			"inputs": [
				{
					"internalType": "address",
					"name": "_transferManager",
					"type": "address"
				}
			],
			"name": "updateTransferManager",
			"outputs": [],
			"stateMutability": "nonpayable",
			"type": "function"
		}
	]
}