{
	"data": {
		"bytecode": {
			"linkReferences": {},
			"object": "608060405234801561001057600080fd5b5061002d61002261003260201b60201c565b61003a60201b60201c565b6100fe565b600033905090565b60008060009054906101000a900473ffffffffffffffffffffffffffffffffffffffff169050816000806101000a81548173ffffffffffffffffffffffffffffffffffffffff021916908373ffffffffffffffffffffffffffffffffffffffff1602179055508173ffffffffffffffffffffffffffffffffffffffff168173ffffffffffffffffffffffffffffffffffffffff167f8be0079c531659141344cd1fd0a4f28419497f9722a3daafe3b4186f6b6457e060405160405180910390a35050565b610f058061010d6000396000f3fe608060405234801561001057600080fd5b50600436106100885760003560e01c80638da5cb5b1161005b5780638da5cb5b146101005780639387bbd41461011e578063b663d5341461014e578063f2fde38b1461016c57610088565b806318ff57681461008d57806326905c50146100a9578063715018a6146100da578063771d4c28146100e4575b600080fd5b6100a760048036038101906100a29190610961565b610188565b005b6100c360048036038101906100be91906109c4565b61023f565b6040516100d1929190610ad1565b60405180910390f35b6100e261036d565b005b6100fe60048036038101906100f99190610961565b610381565b005b610108610438565b6040516101159190610b10565b60405180910390f35b61013860048036038101906101339190610961565b610461565b6040516101459190610b46565b60405180910390f35b61015661047e565b6040516101639190610b61565b60405180910390f35b61018660048036038101906101819190610961565b61048f565b005b610190610512565b6101a481600161059090919063ffffffff16565b156101e4576040517f08c379a00000000000000000000000000000000000000000000000000000000081526004016101db90610bd9565b60405180910390fd5b6101f88160016105c090919063ffffffff16565b508073ffffffffffffffffffffffffffffffffffffffff167f6f6771bbbe2625ac54784030f2cae4bbee4be9c8609b6d7e3f02c5126b41460060405160405180910390a250565b60606000808390508461025260016105f0565b61025c9190610c28565b81111561027b578461026e60016105f0565b6102789190610c28565b90505b60008167ffffffffffffffff81111561029757610296610c5c565b5b6040519080825280602002602001820160405280156102c55781602001602082028036833780820191505090505b50905060005b82811015610352576102f281886102e29190610c8b565b600161060590919063ffffffff16565b82828151811061030557610304610cbf565b5b602002602001019073ffffffffffffffffffffffffffffffffffffffff16908173ffffffffffffffffffffffffffffffffffffffff1681525050808061034a90610cee565b9150506102cb565b508082876103609190610c8b565b9350935050509250929050565b610375610512565b61037f600061061f565b565b610389610512565b61039d81600161059090919063ffffffff16565b156103dd576040517f08c379a00000000000000000000000000000000000000000000000000000000081526004016103d490610d82565b60405180910390fd5b6103f18160016106e390919063ffffffff16565b508073ffffffffffffffffffffffffffffffffffffffff167f5ec654392567a6e4d201b682c6ed6803d120c307fd0b8ba2cca51f73e36f433860405160405180910390a250565b60008060009054906101000a900473ffffffffffffffffffffffffffffffffffffffff16905090565b600061047782600161059090919063ffffffff16565b9050919050565b600061048a60016105f0565b905090565b610497610512565b600073ffffffffffffffffffffffffffffffffffffffff168173ffffffffffffffffffffffffffffffffffffffff1603610506576040517f08c379a00000000000000000000000000000000000000000000000000000000081526004016104fd90610e14565b60405180910390fd5b61050f8161061f565b50565b61051a610713565b73ffffffffffffffffffffffffffffffffffffffff16610538610438565b73ffffffffffffffffffffffffffffffffffffffff161461058e576040517f08c379a000000000000000000000000000000000000000000000000000000000815260040161058590610e80565b60405180910390fd5b565b60006105b8836000018373ffffffffffffffffffffffffffffffffffffffff1660001b61071b565b905092915050565b60006105e8836000018373ffffffffffffffffffffffffffffffffffffffff1660001b61073e565b905092915050565b60006105fe82600001610852565b9050919050565b60006106148360000183610863565b60001c905092915050565b60008060009054906101000a900473ffffffffffffffffffffffffffffffffffffffff169050816000806101000a81548173ffffffffffffffffffffffffffffffffffffffff021916908373ffffffffffffffffffffffffffffffffffffffff1602179055508173ffffffffffffffffffffffffffffffffffffffff168173ffffffffffffffffffffffffffffffffffffffff167f8be0079c531659141344cd1fd0a4f28419497f9722a3daafe3b4186f6b6457e060405160405180910390a35050565b600061070b836000018373ffffffffffffffffffffffffffffffffffffffff1660001b61088e565b905092915050565b600033905090565b600080836001016000848152602001908152602001600020541415905092915050565b600080836001016000848152602001908152602001600020549050600081146108465760006001826107709190610c28565b90506000600186600001805490506107889190610c28565b90508181146107f75760008660000182815481106107a9576107a8610cbf565b5b90600052602060002001549050808760000184815481106107cd576107cc610cbf565b5b90600052602060002001819055508387600101600083815260200190815260200160002081905550505b8560000180548061080b5761080a610ea0565b5b60019003818190600052602060002001600090559055856001016000868152602001908152602001600020600090556001935050505061084c565b60009150505b92915050565b600081600001805490509050919050565b600082600001828154811061087b5761087a610cbf565b5b9060005260206000200154905092915050565b600061089a838361071b565b6108f35782600001829080600181540180825580915050600190039060005260206000200160009091909190915055826000018054905083600101600084815260200190815260200160002081905550600190506108f8565b600090505b92915050565b600080fd5b600073ffffffffffffffffffffffffffffffffffffffff82169050919050565b600061092e82610903565b9050919050565b61093e81610923565b811461094957600080fd5b50565b60008135905061095b81610935565b92915050565b600060208284031215610977576109766108fe565b5b60006109858482850161094c565b91505092915050565b6000819050919050565b6109a18161098e565b81146109ac57600080fd5b50565b6000813590506109be81610998565b92915050565b600080604083850312156109db576109da6108fe565b5b60006109e9858286016109af565b92505060206109fa858286016109af565b9150509250929050565b600081519050919050565b600082825260208201905092915050565b6000819050602082019050919050565b610a3981610923565b82525050565b6000610a4b8383610a30565b60208301905092915050565b6000602082019050919050565b6000610a6f82610a04565b610a798185610a0f565b9350610a8483610a20565b8060005b83811015610ab5578151610a9c8882610a3f565b9750610aa783610a57565b925050600181019050610a88565b5085935050505092915050565b610acb8161098e565b82525050565b60006040820190508181036000830152610aeb8185610a64565b9050610afa6020830184610ac2565b9392505050565b610b0a81610923565b82525050565b6000602082019050610b256000830184610b01565b92915050565b60008115159050919050565b610b4081610b2b565b82525050565b6000602082019050610b5b6000830184610b37565b92915050565b6000602082019050610b766000830184610ac2565b92915050565b600082825260208201905092915050565b7f50726f746f636f6c3a204e6f7420457869737465640000000000000000000000600082015250565b6000610bc3601583610b7c565b9150610bce82610b8d565b602082019050919050565b60006020820190508181036000830152610bf281610bb6565b9050919050565b7f4e487b7100000000000000000000000000000000000000000000000000000000600052601160045260246000fd5b6000610c338261098e565b9150610c3e8361098e565b9250828203905081811115610c5657610c55610bf9565b5b92915050565b7f4e487b7100000000000000000000000000000000000000000000000000000000600052604160045260246000fd5b6000610c968261098e565b9150610ca18361098e565b9250828201905080821115610cb957610cb8610bf9565b5b92915050565b7f4e487b7100000000000000000000000000000000000000000000000000000000600052603260045260246000fd5b6000610cf98261098e565b91507fffffffffffffffffffffffffffffffffffffffffffffffffffffffffffffffff8203610d2b57610d2a610bf9565b5b600182019050919050565b7f50726f746f636f6c3a20416c72656164792057686974656c6973746564210000600082015250565b6000610d6c601e83610b7c565b9150610d7782610d36565b602082019050919050565b60006020820190508181036000830152610d9b81610d5f565b9050919050565b7f4f776e61626c653a206e6577206f776e657220697320746865207a65726f206160008201527f6464726573730000000000000000000000000000000000000000000000000000602082015250565b6000610dfe602683610b7c565b9150610e0982610da2565b604082019050919050565b60006020820190508181036000830152610e2d81610df1565b9050919050565b7f4f776e61626c653a2063616c6c6572206973206e6f7420746865206f776e6572600082015250565b6000610e6a602083610b7c565b9150610e7582610e34565b602082019050919050565b60006020820190508181036000830152610e9981610e5d565b9050919050565b7f4e487b7100000000000000000000000000000000000000000000000000000000600052603160045260246000fdfea2646970667358221220abca581e8207f22bb8ba43ae8b2b00c67a14145055bad04b3f6d67ce08ab179664736f6c63430008130033",
			"opcodes": "PUSH1 0x80 PUSH1 0x40 MSTORE CALLVALUE DUP1 ISZERO PUSH2 0x10 JUMPI PUSH1 0x0 DUP1 REVERT JUMPDEST POP PUSH2 0x2D PUSH2 0x22 PUSH2 0x32 PUSH1 0x20 SHL PUSH1 0x20 SHR JUMP JUMPDEST PUSH2 0x3A PUSH1 0x20 SHL PUSH1 0x20 SHR JUMP JUMPDEST PUSH2 0xFE JUMP JUMPDEST PUSH1 0x0 CALLER SWAP1 POP SWAP1 JUMP JUMPDEST PUSH1 0x0 DUP1 PUSH1 0x0 SWAP1 SLOAD SWAP1 PUSH2 0x100 EXP SWAP1 DIV PUSH20 0xFFFFFFFFFFFFFFFFFFFFFFFFFFFFFFFFFFFFFFFF AND SWAP1 POP DUP2 PUSH1 0x0 DUP1 PUSH2 0x100 EXP DUP2 SLOAD DUP2 PUSH20 0xFFFFFFFFFFFFFFFFFFFFFFFFFFFFFFFFFFFFFFFF MUL NOT AND SWAP1 DUP4 PUSH20 0xFFFFFFFFFFFFFFFFFFFFFFFFFFFFFFFFFFFFFFFF AND MUL OR SWAP1 SSTORE POP DUP2 PUSH20 0xFFFFFFFFFFFFFFFFFFFFFFFFFFFFFFFFFFFFFFFF AND DUP2 PUSH20 0xFFFFFFFFFFFFFFFFFFFFFFFFFFFFFFFFFFFFFFFF AND PUSH32 0x8BE0079C531659141344CD1FD0A4F28419497F9722A3DAAFE3B4186F6B6457E0 PUSH1 0x40 MLOAD PUSH1 0x40 MLOAD DUP1 SWAP2 SUB SWAP1 LOG3 POP POP JUMP JUMPDEST PUSH2 0xF05 DUP1 PUSH2 0x10D PUSH1 0x0 CODECOPY PUSH1 0x0 RETURN INVALID PUSH1 0x80 PUSH1 0x40 MSTORE CALLVALUE DUP1 ISZERO PUSH2 0x10 JUMPI PUSH1 0x0 DUP1 REVERT JUMPDEST POP PUSH1 0x4 CALLDATASIZE LT PUSH2 0x88 JUMPI PUSH1 0x0 CALLDATALOAD PUSH1 0xE0 SHR DUP1 PUSH4 0x8DA5CB5B GT PUSH2 0x5B JUMPI DUP1 PUSH4 0x8DA5CB5B EQ PUSH2 0x100 JUMPI DUP1 PUSH4 0x9387BBD4 EQ PUSH2 0x11E JUMPI DUP1 PUSH4 0xB663D534 EQ PUSH2 0x14E JUMPI DUP1 PUSH4 0xF2FDE38B EQ PUSH2 0x16C JUMPI PUSH2 0x88 JUMP JUMPDEST DUP1 PUSH4 0x18FF5768 EQ PUSH2 0x8D JUMPI DUP1 PUSH4 0x26905C50 EQ PUSH2 0xA9 JUMPI DUP1 PUSH4 0x715018A6 EQ PUSH2 0xDA JUMPI DUP1 PUSH4 0x771D4C28 EQ PUSH2 0xE4 JUMPI JUMPDEST PUSH1 0x0 DUP1 REVERT JUMPDEST PUSH2 0xA7 PUSH1 0x4 DUP1 CALLDATASIZE SUB DUP2 ADD SWAP1 PUSH2 0xA2 SWAP2 SWAP1 PUSH2 0x961 JUMP JUMPDEST PUSH2 0x188 JUMP JUMPDEST STOP JUMPDEST PUSH2 0xC3 PUSH1 0x4 DUP1 CALLDATASIZE SUB DUP2 ADD SWAP1 PUSH2 0xBE SWAP2 SWAP1 PUSH2 0x9C4 JUMP JUMPDEST PUSH2 0x23F JUMP JUMPDEST PUSH1 0x40 MLOAD PUSH2 0xD1 SWAP3 SWAP2 SWAP1 PUSH2 0xAD1 JUMP JUMPDEST PUSH1 0x40 MLOAD DUP1 SWAP2 SUB SWAP1 RETURN JUMPDEST PUSH2 0xE2 PUSH2 0x36D JUMP JUMPDEST STOP JUMPDEST PUSH2 0xFE PUSH1 0x4 DUP1 CALLDATASIZE SUB DUP2 ADD SWAP1 PUSH2 0xF9 SWAP2 SWAP1 PUSH2 0x961 JUMP JUMPDEST PUSH2 0x381 JUMP JUMPDEST STOP JUMPDEST PUSH2 0x108 PUSH2 0x438 JUMP JUMPDEST PUSH1 0x40 MLOAD PUSH2 0x115 SWAP2 SWAP1 PUSH2 0xB10 JUMP JUMPDEST PUSH1 0x40 MLOAD DUP1 SWAP2 SUB SWAP1 RETURN JUMPDEST PUSH2 0x138 PUSH1 0x4 DUP1 CALLDATASIZE SUB DUP2 ADD SWAP1 PUSH2 0x133 SWAP2 SWAP1 PUSH2 0x961 JUMP JUMPDEST PUSH2 0x461 JUMP JUMPDEST PUSH1 0x40 MLOAD PUSH2 0x145 SWAP2 SWAP1 PUSH2 0xB46 JUMP JUMPDEST PUSH1 0x40 MLOAD DUP1 SWAP2 SUB SWAP1 RETURN JUMPDEST PUSH2 0x156 PUSH2 0x47E JUMP JUMPDEST PUSH1 0x40 MLOAD PUSH2 0x163 SWAP2 SWAP1 PUSH2 0xB61 JUMP JUMPDEST PUSH1 0x40 MLOAD DUP1 SWAP2 SUB SWAP1 RETURN JUMPDEST PUSH2 0x186 PUSH1 0x4 DUP1 CALLDATASIZE SUB DUP2 ADD SWAP1 PUSH2 0x181 SWAP2 SWAP1 PUSH2 0x961 JUMP JUMPDEST PUSH2 0x48F JUMP JUMPDEST STOP JUMPDEST PUSH2 0x190 PUSH2 0x512 JUMP JUMPDEST PUSH2 0x1A4 DUP2 PUSH1 0x1 PUSH2 0x590 SWAP1 SWAP2 SWAP1 PUSH4 0xFFFFFFFF AND JUMP JUMPDEST ISZERO PUSH2 0x1E4 JUMPI PUSH1 0x40 MLOAD PUSH32 0x8C379A000000000000000000000000000000000000000000000000000000000 DUP2 MSTORE PUSH1 0x4 ADD PUSH2 0x1DB SWAP1 PUSH2 0xBD9 JUMP JUMPDEST PUSH1 0x40 MLOAD DUP1 SWAP2 SUB SWAP1 REVERT JUMPDEST PUSH2 0x1F8 DUP2 PUSH1 0x1 PUSH2 0x5C0 SWAP1 SWAP2 SWAP1 PUSH4 0xFFFFFFFF AND JUMP JUMPDEST POP DUP1 PUSH20 0xFFFFFFFFFFFFFFFFFFFFFFFFFFFFFFFFFFFFFFFF AND PUSH32 0x6F6771BBBE2625AC54784030F2CAE4BBEE4BE9C8609B6D7E3F02C5126B414600 PUSH1 0x40 MLOAD PUSH1 0x40 MLOAD DUP1 SWAP2 SUB SWAP1 LOG2 POP JUMP JUMPDEST PUSH1 0x60 PUSH1 0x0 DUP1 DUP4 SWAP1 POP DUP5 PUSH2 0x252 PUSH1 0x1 PUSH2 0x5F0 JUMP JUMPDEST PUSH2 0x25C SWAP2 SWAP1 PUSH2 0xC28 JUMP JUMPDEST DUP2 GT ISZERO PUSH2 0x27B JUMPI DUP5 PUSH2 0x26E PUSH1 0x1 PUSH2 0x5F0 JUMP JUMPDEST PUSH2 0x278 SWAP2 SWAP1 PUSH2 0xC28 JUMP JUMPDEST SWAP1 POP JUMPDEST PUSH1 0x0 DUP2 PUSH8 0xFFFFFFFFFFFFFFFF DUP2 GT ISZERO PUSH2 0x297 JUMPI PUSH2 0x296 PUSH2 0xC5C JUMP JUMPDEST JUMPDEST PUSH1 0x40 MLOAD SWAP1 DUP1 DUP3 MSTORE DUP1 PUSH1 0x20 MUL PUSH1 0x20 ADD DUP3 ADD PUSH1 0x40 MSTORE DUP1 ISZERO PUSH2 0x2C5 JUMPI DUP2 PUSH1 0x20 ADD PUSH1 0x20 DUP3 MUL DUP1 CALLDATASIZE DUP4 CALLDATACOPY DUP1 DUP3 ADD SWAP2 POP POP SWAP1 POP JUMPDEST POP SWAP1 POP PUSH1 0x0 JUMPDEST DUP3 DUP2 LT ISZERO PUSH2 0x352 JUMPI PUSH2 0x2F2 DUP2 DUP9 PUSH2 0x2E2 SWAP2 SWAP1 PUSH2 0xC8B JUMP JUMPDEST PUSH1 0x1 PUSH2 0x605 SWAP1 SWAP2 SWAP1 PUSH4 0xFFFFFFFF AND JUMP JUMPDEST DUP3 DUP3 DUP2 MLOAD DUP2 LT PUSH2 0x305 JUMPI PUSH2 0x304 PUSH2 0xCBF JUMP JUMPDEST JUMPDEST PUSH1 0x20 MUL PUSH1 0x20 ADD ADD SWAP1 PUSH20 0xFFFFFFFFFFFFFFFFFFFFFFFFFFFFFFFFFFFFFFFF AND SWAP1 DUP2 PUSH20 0xFFFFFFFFFFFFFFFFFFFFFFFFFFFFFFFFFFFFFFFF AND DUP2 MSTORE POP POP DUP1 DUP1 PUSH2 0x34A SWAP1 PUSH2 0xCEE JUMP JUMPDEST SWAP2 POP POP PUSH2 0x2CB JUMP JUMPDEST POP DUP1 DUP3 DUP8 PUSH2 0x360 SWAP2 SWAP1 PUSH2 0xC8B JUMP JUMPDEST SWAP4 POP SWAP4 POP POP POP SWAP3 POP SWAP3 SWAP1 POP JUMP JUMPDEST PUSH2 0x375 PUSH2 0x512 JUMP JUMPDEST PUSH2 0x37F PUSH1 0x0 PUSH2 0x61F JUMP JUMPDEST JUMP JUMPDEST PUSH2 0x389 PUSH2 0x512 JUMP JUMPDEST PUSH2 0x39D DUP2 PUSH1 0x1 PUSH2 0x590 SWAP1 SWAP2 SWAP1 PUSH4 0xFFFFFFFF AND JUMP JUMPDEST ISZERO PUSH2 0x3DD JUMPI PUSH1 0x40 MLOAD PUSH32 0x8C379A000000000000000000000000000000000000000000000000000000000 DUP2 MSTORE PUSH1 0x4 ADD PUSH2 0x3D4 SWAP1 PUSH2 0xD82 JUMP JUMPDEST PUSH1 0x40 MLOAD DUP1 SWAP2 SUB SWAP1 REVERT JUMPDEST PUSH2 0x3F1 DUP2 PUSH1 0x1 PUSH2 0x6E3 SWAP1 SWAP2 SWAP1 PUSH4 0xFFFFFFFF AND JUMP JUMPDEST POP DUP1 PUSH20 0xFFFFFFFFFFFFFFFFFFFFFFFFFFFFFFFFFFFFFFFF AND PUSH32 0x5EC654392567A6E4D201B682C6ED6803D120C307FD0B8BA2CCA51F73E36F4338 PUSH1 0x40 MLOAD PUSH1 0x40 MLOAD DUP1 SWAP2 SUB SWAP1 LOG2 POP JUMP JUMPDEST PUSH1 0x0 DUP1 PUSH1 0x0 SWAP1 SLOAD SWAP1 PUSH2 0x100 EXP SWAP1 DIV PUSH20 0xFFFFFFFFFFFFFFFFFFFFFFFFFFFFFFFFFFFFFFFF AND SWAP1 POP SWAP1 JUMP JUMPDEST PUSH1 0x0 PUSH2 0x477 DUP3 PUSH1 0x1 PUSH2 0x590 SWAP1 SWAP2 SWAP1 PUSH4 0xFFFFFFFF AND JUMP JUMPDEST SWAP1 POP SWAP2 SWAP1 POP JUMP JUMPDEST PUSH1 0x0 PUSH2 0x48A PUSH1 0x1 PUSH2 0x5F0 JUMP JUMPDEST SWAP1 POP SWAP1 JUMP JUMPDEST PUSH2 0x497 PUSH2 0x512 JUMP JUMPDEST PUSH1 0x0 PUSH20 0xFFFFFFFFFFFFFFFFFFFFFFFFFFFFFFFFFFFFFFFF AND DUP2 PUSH20 0xFFFFFFFFFFFFFFFFFFFFFFFFFFFFFFFFFFFFFFFF AND SUB PUSH2 0x506 JUMPI PUSH1 0x40 MLOAD PUSH32 0x8C379A000000000000000000000000000000000000000000000000000000000 DUP2 MSTORE PUSH1 0x4 ADD PUSH2 0x4FD SWAP1 PUSH2 0xE14 JUMP JUMPDEST PUSH1 0x40 MLOAD DUP1 SWAP2 SUB SWAP1 REVERT JUMPDEST PUSH2 0x50F DUP2 PUSH2 0x61F JUMP JUMPDEST POP JUMP JUMPDEST PUSH2 0x51A PUSH2 0x713 JUMP JUMPDEST PUSH20 0xFFFFFFFFFFFFFFFFFFFFFFFFFFFFFFFFFFFFFFFF AND PUSH2 0x538 PUSH2 0x438 JUMP JUMPDEST PUSH20 0xFFFFFFFFFFFFFFFFFFFFFFFFFFFFFFFFFFFFFFFF AND EQ PUSH2 0x58E JUMPI PUSH1 0x40 MLOAD PUSH32 0x8C379A000000000000000000000000000000000000000000000000000000000 DUP2 MSTORE PUSH1 0x4 ADD PUSH2 0x585 SWAP1 PUSH2 0xE80 JUMP JUMPDEST PUSH1 0x40 MLOAD DUP1 SWAP2 SUB SWAP1 REVERT JUMPDEST JUMP JUMPDEST PUSH1 0x0 PUSH2 0x5B8 DUP4 PUSH1 0x0 ADD DUP4 PUSH20 0xFFFFFFFFFFFFFFFFFFFFFFFFFFFFFFFFFFFFFFFF AND PUSH1 0x0 SHL PUSH2 0x71B JUMP JUMPDEST SWAP1 POP SWAP3 SWAP2 POP POP JUMP JUMPDEST PUSH1 0x0 PUSH2 0x5E8 DUP4 PUSH1 0x0 ADD DUP4 PUSH20 0xFFFFFFFFFFFFFFFFFFFFFFFFFFFFFFFFFFFFFFFF AND PUSH1 0x0 SHL PUSH2 0x73E JUMP JUMPDEST SWAP1 POP SWAP3 SWAP2 POP POP JUMP JUMPDEST PUSH1 0x0 PUSH2 0x5FE DUP3 PUSH1 0x0 ADD PUSH2 0x852 JUMP JUMPDEST SWAP1 POP SWAP2 SWAP1 POP JUMP JUMPDEST PUSH1 0x0 PUSH2 0x614 DUP4 PUSH1 0x0 ADD DUP4 PUSH2 0x863 JUMP JUMPDEST PUSH1 0x0 SHR SWAP1 POP SWAP3 SWAP2 POP POP JUMP JUMPDEST PUSH1 0x0 DUP1 PUSH1 0x0 SWAP1 SLOAD SWAP1 PUSH2 0x100 EXP SWAP1 DIV PUSH20 0xFFFFFFFFFFFFFFFFFFFFFFFFFFFFFFFFFFFFFFFF AND SWAP1 POP DUP2 PUSH1 0x0 DUP1 PUSH2 0x100 EXP DUP2 SLOAD DUP2 PUSH20 0xFFFFFFFFFFFFFFFFFFFFFFFFFFFFFFFFFFFFFFFF MUL NOT AND SWAP1 DUP4 PUSH20 0xFFFFFFFFFFFFFFFFFFFFFFFFFFFFFFFFFFFFFFFF AND MUL OR SWAP1 SSTORE POP DUP2 PUSH20 0xFFFFFFFFFFFFFFFFFFFFFFFFFFFFFFFFFFFFFFFF AND DUP2 PUSH20 0xFFFFFFFFFFFFFFFFFFFFFFFFFFFFFFFFFFFFFFFF AND PUSH32 0x8BE0079C531659141344CD1FD0A4F28419497F9722A3DAAFE3B4186F6B6457E0 PUSH1 0x40 MLOAD PUSH1 0x40 MLOAD DUP1 SWAP2 SUB SWAP1 LOG3 POP POP JUMP JUMPDEST PUSH1 0x0 PUSH2 0x70B DUP4 PUSH1 0x0 ADD DUP4 PUSH20 0xFFFFFFFFFFFFFFFFFFFFFFFFFFFFFFFFFFFFFFFF AND PUSH1 0x0 SHL PUSH2 0x88E JUMP JUMPDEST SWAP1 POP SWAP3 SWAP2 POP POP JUMP JUMPDEST PUSH1 0x0 CALLER SWAP1 POP SWAP1 JUMP JUMPDEST PUSH1 0x0 DUP1 DUP4 PUSH1 0x1 ADD PUSH1 0x0 DUP5 DUP2 MSTORE PUSH1 0x20 ADD SWAP1 DUP2 MSTORE PUSH1 0x20 ADD PUSH1 0x0 KECCAK256 SLOAD EQ ISZERO SWAP1 POP SWAP3 SWAP2 POP POP JUMP JUMPDEST PUSH1 0x0 DUP1 DUP4 PUSH1 0x1 ADD PUSH1 0x0 DUP5 DUP2 MSTORE PUSH1 0x20 ADD SWAP1 DUP2 MSTORE PUSH1 0x20 ADD PUSH1 0x0 KECCAK256 SLOAD SWAP1 POP PUSH1 0x0 DUP2 EQ PUSH2 0x846 JUMPI PUSH1 0x0 PUSH1 0x1 DUP3 PUSH2 0x770 SWAP2 SWAP1 PUSH2 0xC28 JUMP JUMPDEST SWAP1 POP PUSH1 0x0 PUSH1 0x1 DUP7 PUSH1 0x0 ADD DUP1 SLOAD SWAP1 POP PUSH2 0x788 SWAP2 SWAP1 PUSH2 0xC28 JUMP JUMPDEST SWAP1 POP DUP2 DUP2 EQ PUSH2 0x7F7 JUMPI PUSH1 0x0 DUP7 PUSH1 0x0 ADD DUP3 DUP2 SLOAD DUP2 LT PUSH2 0x7A9 JUMPI PUSH2 0x7A8 PUSH2 0xCBF JUMP JUMPDEST JUMPDEST SWAP1 PUSH1 0x0 MSTORE PUSH1 0x20 PUSH1 0x0 KECCAK256 ADD SLOAD SWAP1 POP DUP1 DUP8 PUSH1 0x0 ADD DUP5 DUP2 SLOAD DUP2 LT PUSH2 0x7CD JUMPI PUSH2 0x7CC PUSH2 0xCBF JUMP JUMPDEST JUMPDEST SWAP1 PUSH1 0x0 MSTORE PUSH1 0x20 PUSH1 0x0 KECCAK256 ADD DUP2 SWAP1 SSTORE POP DUP4 DUP8 PUSH1 0x1 ADD PUSH1 0x0 DUP4 DUP2 MSTORE PUSH1 0x20 ADD SWAP1 DUP2 MSTORE PUSH1 0x20 ADD PUSH1 0x0 KECCAK256 DUP2 SWAP1 SSTORE POP POP JUMPDEST DUP6 PUSH1 0x0 ADD DUP1 SLOAD DUP1 PUSH2 0x80B JUMPI PUSH2 0x80A PUSH2 0xEA0 JUMP JUMPDEST JUMPDEST PUSH1 0x1 SWAP1 SUB DUP2 DUP2 SWAP1 PUSH1 0x0 MSTORE PUSH1 0x20 PUSH1 0x0 KECCAK256 ADD PUSH1 0x0 SWAP1 SSTORE SWAP1 SSTORE DUP6 PUSH1 0x1 ADD PUSH1 0x0 DUP7 DUP2 MSTORE PUSH1 0x20 ADD SWAP1 DUP2 MSTORE PUSH1 0x20 ADD PUSH1 0x0 KECCAK256 PUSH1 0x0 SWAP1 SSTORE PUSH1 0x1 SWAP4 POP POP POP POP PUSH2 0x84C JUMP JUMPDEST PUSH1 0x0 SWAP2 POP POP JUMPDEST SWAP3 SWAP2 POP POP JUMP JUMPDEST PUSH1 0x0 DUP2 PUSH1 0x0 ADD DUP1 SLOAD SWAP1 POP SWAP1 POP SWAP2 SWAP1 POP JUMP JUMPDEST PUSH1 0x0 DUP3 PUSH1 0x0 ADD DUP3 DUP2 SLOAD DUP2 LT PUSH2 0x87B JUMPI PUSH2 0x87A PUSH2 0xCBF JUMP JUMPDEST JUMPDEST SWAP1 PUSH1 0x0 MSTORE PUSH1 0x20 PUSH1 0x0 KECCAK256 ADD SLOAD SWAP1 POP SWAP3 SWAP2 POP POP JUMP JUMPDEST PUSH1 0x0 PUSH2 0x89A DUP4 DUP4 PUSH2 0x71B JUMP JUMPDEST PUSH2 0x8F3 JUMPI DUP3 PUSH1 0x0 ADD DUP3 SWAP1 DUP1 PUSH1 0x1 DUP2 SLOAD ADD DUP1 DUP3 SSTORE DUP1 SWAP2 POP POP PUSH1 0x1 SWAP1 SUB SWAP1 PUSH1 0x0 MSTORE PUSH1 0x20 PUSH1 0x0 KECCAK256 ADD PUSH1 0x0 SWAP1 SWAP2 SWAP1 SWAP2 SWAP1 SWAP2 POP SSTORE DUP3 PUSH1 0x0 ADD DUP1 SLOAD SWAP1 POP DUP4 PUSH1 0x1 ADD PUSH1 0x0 DUP5 DUP2 MSTORE PUSH1 0x20 ADD SWAP1 DUP2 MSTORE PUSH1 0x20 ADD PUSH1 0x0 KECCAK256 DUP2 SWAP1 SSTORE POP PUSH1 0x1 SWAP1 POP PUSH2 0x8F8 JUMP JUMPDEST PUSH1 0x0 SWAP1 POP JUMPDEST SWAP3 SWAP2 POP POP JUMP JUMPDEST PUSH1 0x0 DUP1 REVERT JUMPDEST PUSH1 0x0 PUSH20 0xFFFFFFFFFFFFFFFFFFFFFFFFFFFFFFFFFFFFFFFF DUP3 AND SWAP1 POP SWAP2 SWAP1 POP JUMP JUMPDEST PUSH1 0x0 PUSH2 0x92E DUP3 PUSH2 0x903 JUMP JUMPDEST SWAP1 POP SWAP2 SWAP1 POP JUMP JUMPDEST PUSH2 0x93E DUP2 PUSH2 0x923 JUMP JUMPDEST DUP2 EQ PUSH2 0x949 JUMPI PUSH1 0x0 DUP1 REVERT JUMPDEST POP JUMP JUMPDEST PUSH1 0x0 DUP2 CALLDATALOAD SWAP1 POP PUSH2 0x95B DUP2 PUSH2 0x935 JUMP JUMPDEST SWAP3 SWAP2 POP POP JUMP JUMPDEST PUSH1 0x0 PUSH1 0x20 DUP3 DUP5 SUB SLT ISZERO PUSH2 0x977 JUMPI PUSH2 0x976 PUSH2 0x8FE JUMP JUMPDEST JUMPDEST PUSH1 0x0 PUSH2 0x985 DUP5 DUP3 DUP6 ADD PUSH2 0x94C JUMP JUMPDEST SWAP2 POP POP SWAP3 SWAP2 POP POP JUMP JUMPDEST PUSH1 0x0 DUP2 SWAP1 POP SWAP2 SWAP1 POP JUMP JUMPDEST PUSH2 0x9A1 DUP2 PUSH2 0x98E JUMP JUMPDEST DUP2 EQ PUSH2 0x9AC JUMPI PUSH1 0x0 DUP1 REVERT JUMPDEST POP JUMP JUMPDEST PUSH1 0x0 DUP2 CALLDATALOAD SWAP1 POP PUSH2 0x9BE DUP2 PUSH2 0x998 JUMP JUMPDEST SWAP3 SWAP2 POP POP JUMP JUMPDEST PUSH1 0x0 DUP1 PUSH1 0x40 DUP4 DUP6 SUB SLT ISZERO PUSH2 0x9DB JUMPI PUSH2 0x9DA PUSH2 0x8FE JUMP JUMPDEST JUMPDEST PUSH1 0x0 PUSH2 0x9E9 DUP6 DUP3 DUP7 ADD PUSH2 0x9AF JUMP JUMPDEST SWAP3 POP POP PUSH1 0x20 PUSH2 0x9FA DUP6 DUP3 DUP7 ADD PUSH2 0x9AF JUMP JUMPDEST SWAP2 POP POP SWAP3 POP SWAP3 SWAP1 POP JUMP JUMPDEST PUSH1 0x0 DUP2 MLOAD SWAP1 POP SWAP2 SWAP1 POP JUMP JUMPDEST PUSH1 0x0 DUP3 DUP3 MSTORE PUSH1 0x20 DUP3 ADD SWAP1 POP SWAP3 SWAP2 POP POP JUMP JUMPDEST PUSH1 0x0 DUP2 SWAP1 POP PUSH1 0x20 DUP3 ADD SWAP1 POP SWAP2 SWAP1 POP JUMP JUMPDEST PUSH2 0xA39 DUP2 PUSH2 0x923 JUMP JUMPDEST DUP3 MSTORE POP POP JUMP JUMPDEST PUSH1 0x0 PUSH2 0xA4B DUP4 DUP4 PUSH2 0xA30 JUMP JUMPDEST PUSH1 0x20 DUP4 ADD SWAP1 POP SWAP3 SWAP2 POP POP JUMP JUMPDEST PUSH1 0x0 PUSH1 0x20 DUP3 ADD SWAP1 POP SWAP2 SWAP1 POP JUMP JUMPDEST PUSH1 0x0 PUSH2 0xA6F DUP3 PUSH2 0xA04 JUMP JUMPDEST PUSH2 0xA79 DUP2 DUP6 PUSH2 0xA0F JUMP JUMPDEST SWAP4 POP PUSH2 0xA84 DUP4 PUSH2 0xA20 JUMP JUMPDEST DUP1 PUSH1 0x0 JUMPDEST DUP4 DUP2 LT ISZERO PUSH2 0xAB5 JUMPI DUP2 MLOAD PUSH2 0xA9C DUP9 DUP3 PUSH2 0xA3F JUMP JUMPDEST SWAP8 POP PUSH2 0xAA7 DUP4 PUSH2 0xA57 JUMP JUMPDEST SWAP3 POP POP PUSH1 0x1 DUP2 ADD SWAP1 POP PUSH2 0xA88 JUMP JUMPDEST POP DUP6 SWAP4 POP POP POP POP SWAP3 SWAP2 POP POP JUMP JUMPDEST PUSH2 0xACB DUP2 PUSH2 0x98E JUMP JUMPDEST DUP3 MSTORE POP POP JUMP JUMPDEST PUSH1 0x0 PUSH1 0x40 DUP3 ADD SWAP1 POP DUP2 DUP2 SUB PUSH1 0x0 DUP4 ADD MSTORE PUSH2 0xAEB DUP2 DUP6 PUSH2 0xA64 JUMP JUMPDEST SWAP1 POP PUSH2 0xAFA PUSH1 0x20 DUP4 ADD DUP5 PUSH2 0xAC2 JUMP JUMPDEST SWAP4 SWAP3 POP POP POP JUMP JUMPDEST PUSH2 0xB0A DUP2 PUSH2 0x923 JUMP JUMPDEST DUP3 MSTORE POP POP JUMP JUMPDEST PUSH1 0x0 PUSH1 0x20 DUP3 ADD SWAP1 POP PUSH2 0xB25 PUSH1 0x0 DUP4 ADD DUP5 PUSH2 0xB01 JUMP JUMPDEST SWAP3 SWAP2 POP POP JUMP JUMPDEST PUSH1 0x0 DUP2 ISZERO ISZERO SWAP1 POP SWAP2 SWAP1 POP JUMP JUMPDEST PUSH2 0xB40 DUP2 PUSH2 0xB2B JUMP JUMPDEST DUP3 MSTORE POP POP JUMP JUMPDEST PUSH1 0x0 PUSH1 0x20 DUP3 ADD SWAP1 POP PUSH2 0xB5B PUSH1 0x0 DUP4 ADD DUP5 PUSH2 0xB37 JUMP JUMPDEST SWAP3 SWAP2 POP POP JUMP JUMPDEST PUSH1 0x0 PUSH1 0x20 DUP3 ADD SWAP1 POP PUSH2 0xB76 PUSH1 0x0 DUP4 ADD DUP5 PUSH2 0xAC2 JUMP JUMPDEST SWAP3 SWAP2 POP POP JUMP JUMPDEST PUSH1 0x0 DUP3 DUP3 MSTORE PUSH1 0x20 DUP3 ADD SWAP1 POP SWAP3 SWAP2 POP POP JUMP JUMPDEST PUSH32 0x50726F746F636F6C3A204E6F7420457869737465640000000000000000000000 PUSH1 0x0 DUP3 ADD MSTORE POP JUMP JUMPDEST PUSH1 0x0 PUSH2 0xBC3 PUSH1 0x15 DUP4 PUSH2 0xB7C JUMP JUMPDEST SWAP2 POP PUSH2 0xBCE DUP3 PUSH2 0xB8D JUMP JUMPDEST PUSH1 0x20 DUP3 ADD SWAP1 POP SWAP2 SWAP1 POP JUMP JUMPDEST PUSH1 0x0 PUSH1 0x20 DUP3 ADD SWAP1 POP DUP2 DUP2 SUB PUSH1 0x0 DUP4 ADD MSTORE PUSH2 0xBF2 DUP2 PUSH2 0xBB6 JUMP JUMPDEST SWAP1 POP SWAP2 SWAP1 POP JUMP JUMPDEST PUSH32 0x4E487B7100000000000000000000000000000000000000000000000000000000 PUSH1 0x0 MSTORE PUSH1 0x11 PUSH1 0x4 MSTORE PUSH1 0x24 PUSH1 0x0 REVERT JUMPDEST PUSH1 0x0 PUSH2 0xC33 DUP3 PUSH2 0x98E JUMP JUMPDEST SWAP2 POP PUSH2 0xC3E DUP4 PUSH2 0x98E JUMP JUMPDEST SWAP3 POP DUP3 DUP3 SUB SWAP1 POP DUP2 DUP2 GT ISZERO PUSH2 0xC56 JUMPI PUSH2 0xC55 PUSH2 0xBF9 JUMP JUMPDEST JUMPDEST SWAP3 SWAP2 POP POP JUMP JUMPDEST PUSH32 0x4E487B7100000000000000000000000000000000000000000000000000000000 PUSH1 0x0 MSTORE PUSH1 0x41 PUSH1 0x4 MSTORE PUSH1 0x24 PUSH1 0x0 REVERT JUMPDEST PUSH1 0x0 PUSH2 0xC96 DUP3 PUSH2 0x98E JUMP JUMPDEST SWAP2 POP PUSH2 0xCA1 DUP4 PUSH2 0x98E JUMP JUMPDEST SWAP3 POP DUP3 DUP3 ADD SWAP1 POP DUP1 DUP3 GT ISZERO PUSH2 0xCB9 JUMPI PUSH2 0xCB8 PUSH2 0xBF9 JUMP JUMPDEST JUMPDEST SWAP3 SWAP2 POP POP JUMP JUMPDEST PUSH32 0x4E487B7100000000000000000000000000000000000000000000000000000000 PUSH1 0x0 MSTORE PUSH1 0x32 PUSH1 0x4 MSTORE PUSH1 0x24 PUSH1 0x0 REVERT JUMPDEST PUSH1 0x0 PUSH2 0xCF9 DUP3 PUSH2 0x98E JUMP JUMPDEST SWAP2 POP PUSH32 0xFFFFFFFFFFFFFFFFFFFFFFFFFFFFFFFFFFFFFFFFFFFFFFFFFFFFFFFFFFFFFFFF DUP3 SUB PUSH2 0xD2B JUMPI PUSH2 0xD2A PUSH2 0xBF9 JUMP JUMPDEST JUMPDEST PUSH1 0x1 DUP3 ADD SWAP1 POP SWAP2 SWAP1 POP JUMP JUMPDEST PUSH32 0x50726F746F636F6C3A20416C72656164792057686974656C6973746564210000 PUSH1 0x0 DUP3 ADD MSTORE POP JUMP JUMPDEST PUSH1 0x0 PUSH2 0xD6C PUSH1 0x1E DUP4 PUSH2 0xB7C JUMP JUMPDEST SWAP2 POP PUSH2 0xD77 DUP3 PUSH2 0xD36 JUMP JUMPDEST PUSH1 0x20 DUP3 ADD SWAP1 POP SWAP2 SWAP1 POP JUMP JUMPDEST PUSH1 0x0 PUSH1 0x20 DUP3 ADD SWAP1 POP DUP2 DUP2 SUB PUSH1 0x0 DUP4 ADD MSTORE PUSH2 0xD9B DUP2 PUSH2 0xD5F JUMP JUMPDEST SWAP1 POP SWAP2 SWAP1 POP JUMP JUMPDEST PUSH32 0x4F776E61626C653A206E6577206F776E657220697320746865207A65726F2061 PUSH1 0x0 DUP3 ADD MSTORE PUSH32 0x6464726573730000000000000000000000000000000000000000000000000000 PUSH1 0x20 DUP3 ADD MSTORE POP JUMP JUMPDEST PUSH1 0x0 PUSH2 0xDFE PUSH1 0x26 DUP4 PUSH2 0xB7C JUMP JUMPDEST SWAP2 POP PUSH2 0xE09 DUP3 PUSH2 0xDA2 JUMP JUMPDEST PUSH1 0x40 DUP3 ADD SWAP1 POP SWAP2 SWAP1 POP JUMP JUMPDEST PUSH1 0x0 PUSH1 0x20 DUP3 ADD SWAP1 POP DUP2 DUP2 SUB PUSH1 0x0 DUP4 ADD MSTORE PUSH2 0xE2D DUP2 PUSH2 0xDF1 JUMP JUMPDEST SWAP1 POP SWAP2 SWAP1 POP JUMP JUMPDEST PUSH32 0x4F776E61626C653A2063616C6C6572206973206E6F7420746865206F776E6572 PUSH1 0x0 DUP3 ADD MSTORE POP JUMP JUMPDEST PUSH1 0x0 PUSH2 0xE6A PUSH1 0x20 DUP4 PUSH2 0xB7C JUMP JUMPDEST SWAP2 POP PUSH2 0xE75 DUP3 PUSH2 0xE34 JUMP JUMPDEST PUSH1 0x20 DUP3 ADD SWAP1 POP SWAP2 SWAP1 POP JUMP JUMPDEST PUSH1 0x0 PUSH1 0x20 DUP3 ADD SWAP1 POP DUP2 DUP2 SUB PUSH1 0x0 DUP4 ADD MSTORE PUSH2 0xE99 DUP2 PUSH2 0xE5D JUMP JUMPDEST SWAP1 POP SWAP2 SWAP1 POP JUMP JUMPDEST PUSH32 0x4E487B7100000000000000000000000000000000000000000000000000000000 PUSH1 0x0 MSTORE PUSH1 0x31 PUSH1 0x4 MSTORE PUSH1 0x24 PUSH1 0x0 REVERT INVALID LOG2 PUSH5 0x6970667358 0x22 SLT KECCAK256 0xAB 0xCA PC 0x1E DUP3 SMOD CALLCODE 0x2B 0xB8 0xBA NUMBER 0xAE DUP12 0x2B STOP 0xC6 PUSH27 0x14145055BAD04B3F6D67CE08AB179664736F6C6343000813003300 "
		},
		"gasEstimates": {
			"creation": {
				"codeDepositCost": "769000",
				"executionCost": "infinite",
				"totalCost": "infinite"
			},
			"external": {
				"addProtocol(address)": "infinite",
				"isProtocolWhitelisted(address)": "infinite",
				"owner()": "2522",
				"removeProtocol(address)": "infinite",
				"renounceOwnership()": "30443",
				"transferOwnership(address)": "30810",
				"viewCountWhitelistedProtocol()": "2587",
				"viewWhitelistedProtocol(uint256,uint256)": "infinite"
			}
		},
		"methodIdentifiers": {
			"addProtocol(address)": "771d4c28",
			"isProtocolWhitelisted(address)": "9387bbd4",
			"owner()": "8da5cb5b",
			"removeProtocol(address)": "18ff5768",
			"renounceOwnership()": "715018a6",
			"transferOwnership(address)": "f2fde38b",
			"viewCountWhitelistedProtocol()": "b663d534",
			"viewWhitelistedProtocol(uint256,uint256)": "26905c50"
		}
	},
	"abi": [
		{
			"anonymous": false,
			"inputs": [
				{
					"indexed": true,
					"internalType": "address",
					"name": "previousOwner",
					"type": "address"
				},
				{
					"indexed": true,
					"internalType": "address",
					"name": "newOwner",
					"type": "address"
				}
			],
			"name": "OwnershipTransferred",
			"type": "event"
		},
		{
			"anonymous": false,
			"inputs": [
				{
					"indexed": true,
					"internalType": "address",
					"name": "protocol",
					"type": "address"
				}
			],
			"name": "ProtocolDelete",
			"type": "event"
		},
		{
			"anonymous": false,
			"inputs": [
				{
					"indexed": true,
					"internalType": "address",
					"name": "protocol",
					"type": "address"
				}
			],
			"name": "ProtocolWhitelisted",
			"type": "event"
		},
		{
			"inputs": [
				{
					"internalType": "address",
					"name": "protocol",
					"type": "address"
				}
			],
			"name": "addProtocol",
			"outputs": [],
			"stateMutability": "nonpayable",
			"type": "function"
		},
		{
			"inputs": [
				{
					"internalType": "address",
					"name": "protocol",
					"type": "address"
				}
			],
			"name": "isProtocolWhitelisted",
			"outputs": [
				{
					"internalType": "bool",
					"name": "",
					"type": "bool"
				}
			],
			"stateMutability": "view",
			"type": "function"
		},
		{
			"inputs": [],
			"name": "owner",
			"outputs": [
				{
					"internalType": "address",
					"name": "",
					"type": "address"
				}
			],
			"stateMutability": "view",
			"type": "function"
		},
		{
			"inputs": [
				{
					"internalType": "address",
					"name": "protocol",
					"type": "address"
				}
			],
			"name": "removeProtocol",
			"outputs": [],
			"stateMutability": "nonpayable",
			"type": "function"
		},
		{
			"inputs": [],
			"name": "renounceOwnership",
			"outputs": [],
			"stateMutability": "nonpayable",
			"type": "function"
		},
		{
			"inputs": [
				{
					"internalType": "address",
					"name": "newOwner",
					"type": "address"
				}
			],
			"name": "transferOwnership",
			"outputs": [],
			"stateMutability": "nonpayable",
			"type": "function"
		},
		{
			"inputs": [],
			"name": "viewCountWhitelistedProtocol",
			"outputs": [
				{
					"internalType": "uint256",
					"name": "",
					"type": "uint256"
				}
			],
			"stateMutability": "view",
			"type": "function"
		},
		{
			"inputs": [
				{
					"internalType": "uint256",
					"name": "cursor",
					"type": "uint256"
				},
				{
					"internalType": "uint256",
					"name": "size",
					"type": "uint256"
				}
			],
			"name": "viewWhitelistedProtocol",
			"outputs": [
				{
					"internalType": "address[]",
					"name": "",
					"type": "address[]"
				},
				{
					"internalType": "uint256",
					"name": "",
					"type": "uint256"
				}
			],
			"stateMutability": "view",
			"type": "function"
		}
	]
}