{
  "_format": "hh-sol-artifact-1",
  "contractName": "ProtocolExecutionManager",
  "sourceName": "contracts/ProtocolExecutionManager.sol",
  "abi": [
    {
      "anonymous": false,
      "inputs": [
        {
          "indexed": true,
          "internalType": "address",
          "name": "previousOwner",
          "type": "address"
        },
        {
          "indexed": true,
          "internalType": "address",
          "name": "newOwner",
          "type": "address"
        }
      ],
      "name": "OwnershipTransferred",
      "type": "event"
    },
    {
      "anonymous": false,
      "inputs": [
        {
          "indexed": true,
          "internalType": "address",
          "name": "protocol",
          "type": "address"
        }
      ],
      "name": "ProtocolDelete",
      "type": "event"
    },
    {
      "anonymous": false,
      "inputs": [
        {
          "indexed": true,
          "internalType": "address",
          "name": "protocol",
          "type": "address"
        }
      ],
      "name": "ProtocolWhitelisted",
      "type": "event"
    },
    {
      "inputs": [
        {
          "internalType": "address",
          "name": "protocol",
          "type": "address"
        }
      ],
      "name": "addProtocol",
      "outputs": [],
      "stateMutability": "nonpayable",
      "type": "function"
    },
    {
      "inputs": [
        {
          "internalType": "address",
          "name": "protocol",
          "type": "address"
        }
      ],
      "name": "isProtocolWhitelisted",
      "outputs": [
        {
          "internalType": "bool",
          "name": "",
          "type": "bool"
        }
      ],
      "stateMutability": "view",
      "type": "function"
    },
    {
      "inputs": [],
      "name": "owner",
      "outputs": [
        {
          "internalType": "address",
          "name": "",
          "type": "address"
        }
      ],
      "stateMutability": "view",
      "type": "function"
    },
    {
      "inputs": [
        {
          "internalType": "address",
          "name": "protocol",
          "type": "address"
        }
      ],
      "name": "removeProtocol",
      "outputs": [],
      "stateMutability": "nonpayable",
      "type": "function"
    },
    {
      "inputs": [],
      "name": "renounceOwnership",
      "outputs": [],
      "stateMutability": "nonpayable",
      "type": "function"
    },
    {
      "inputs": [
        {
          "internalType": "address",
          "name": "newOwner",
          "type": "address"
        }
      ],
      "name": "transferOwnership",
      "outputs": [],
      "stateMutability": "nonpayable",
      "type": "function"
    },
    {
      "inputs": [],
      "name": "viewCountWhitelistedProtocol",
      "outputs": [
        {
          "internalType": "uint256",
          "name": "",
          "type": "uint256"
        }
      ],
      "stateMutability": "view",
      "type": "function"
    },
    {
      "inputs": [
        {
          "internalType": "uint256",
          "name": "cursor",
          "type": "uint256"
        },
        {
          "internalType": "uint256",
          "name": "size",
          "type": "uint256"
        }
      ],
      "name": "viewWhitelistedProtocol",
      "outputs": [
        {
          "internalType": "address[]",
          "name": "",
          "type": "address[]"
        },
        {
          "internalType": "uint256",
          "name": "",
          "type": "uint256"
        }
      ],
      "stateMutability": "view",
      "type": "function"
    }
  ],
  "bytecode": "0x608060405234801561001057600080fd5b5061001a3361001f565b61006f565b600080546001600160a01b038381166001600160a01b0319831681178455604051919092169283917f8be0079c531659141344cd1fd0a4f28419497f9722a3daafe3b4186f6b6457e09190a35050565b6109d98061007e6000396000f3fe608060405234801561001057600080fd5b50600436106100885760003560e01c80638da5cb5b1161005b5780638da5cb5b146100e75780639387bbd41461010f578063b663d53414610132578063f2fde38b1461014857600080fd5b806318ff57681461008d57806326905c50146100a2578063715018a6146100cc578063771d4c28146100d4575b600080fd5b6100a061009b3660046107d3565b61015b565b005b6100b56100b0366004610809565b61022a565b6040516100c392919061082b565b60405180910390f35b6100a061032c565b6100a06100e23660046107d3565b610340565b60005460405173ffffffffffffffffffffffffffffffffffffffff90911681526020016100c3565b61012261011d3660046107d3565b61040a565b60405190151581526020016100c3565b61013a61041d565b6040519081526020016100c3565b6100a06101563660046107d3565b61042e565b6101636104e5565b61016e600182610566565b156101da576040517f08c379a000000000000000000000000000000000000000000000000000000000815260206004820152601560248201527f50726f746f636f6c3a204e6f742045786973746564000000000000000000000060448201526064015b60405180910390fd5b6101e5600182610598565b5060405173ffffffffffffffffffffffffffffffffffffffff8216907f6f6771bbbe2625ac54784030f2cae4bbee4be9c8609b6d7e3f02c5126b41460090600090a250565b60606000828461023a60016105ba565b61024491906108b8565b811115610263578461025660016105ba565b61026091906108b8565b90505b60008167ffffffffffffffff81111561027e5761027e6108cb565b6040519080825280602002602001820160405280156102a7578160200160208202803683370190505b50905060005b82811015610313576102ca6102c282896108fa565b6001906105c4565b8282815181106102dc576102dc61090d565b73ffffffffffffffffffffffffffffffffffffffff909216602092830291909101909101528061030b8161093c565b9150506102ad565b508061031f83886108fa565b9350935050509250929050565b6103346104e5565b61033e60006105d0565b565b6103486104e5565b610353600182610566565b156103ba576040517f08c379a000000000000000000000000000000000000000000000000000000000815260206004820152601e60248201527f50726f746f636f6c3a20416c72656164792057686974656c697374656421000060448201526064016101d1565b6103c5600182610645565b5060405173ffffffffffffffffffffffffffffffffffffffff8216907f5ec654392567a6e4d201b682c6ed6803d120c307fd0b8ba2cca51f73e36f433890600090a250565b6000610417600183610566565b92915050565b600061042960016105ba565b905090565b6104366104e5565b73ffffffffffffffffffffffffffffffffffffffff81166104d9576040517f08c379a000000000000000000000000000000000000000000000000000000000815260206004820152602660248201527f4f776e61626c653a206e6577206f776e657220697320746865207a65726f206160448201527f646472657373000000000000000000000000000000000000000000000000000060648201526084016101d1565b6104e2816105d0565b50565b60005473ffffffffffffffffffffffffffffffffffffffff16331461033e576040517f08c379a000000000000000000000000000000000000000000000000000000000815260206004820181905260248201527f4f776e61626c653a2063616c6c6572206973206e6f7420746865206f776e657260448201526064016101d1565b73ffffffffffffffffffffffffffffffffffffffff8116600090815260018301602052604081205415155b9392505050565b60006105918373ffffffffffffffffffffffffffffffffffffffff8416610667565b6000610417825490565b6000610591838361075a565b6000805473ffffffffffffffffffffffffffffffffffffffff8381167fffffffffffffffffffffffff0000000000000000000000000000000000000000831681178455604051919092169283917f8be0079c531659141344cd1fd0a4f28419497f9722a3daafe3b4186f6b6457e09190a35050565b60006105918373ffffffffffffffffffffffffffffffffffffffff8416610784565b6000818152600183016020526040812054801561075057600061068b6001836108b8565b855490915060009061069f906001906108b8565b90508181146107045760008660000182815481106106bf576106bf61090d565b90600052602060002001549050808760000184815481106106e2576106e261090d565b6000918252602080832090910192909255918252600188019052604090208390555b855486908061071557610715610974565b600190038181906000526020600020016000905590558560010160008681526020019081526020016000206000905560019350505050610417565b6000915050610417565b60008260000182815481106107715761077161090d565b9060005260206000200154905092915050565b60008181526001830160205260408120546107cb57508154600181810184556000848152602080822090930184905584548482528286019093526040902091909155610417565b506000610417565b6000602082840312156107e557600080fd5b813573ffffffffffffffffffffffffffffffffffffffff8116811461059157600080fd5b6000806040838503121561081c57600080fd5b50508035926020909101359150565b604080825283519082018190526000906020906060840190828701845b8281101561087a57815173ffffffffffffffffffffffffffffffffffffffff1684529284019290840190600101610848565b50505092019290925292915050565b7f4e487b7100000000000000000000000000000000000000000000000000000000600052601160045260246000fd5b8181038181111561041757610417610889565b7f4e487b7100000000000000000000000000000000000000000000000000000000600052604160045260246000fd5b8082018082111561041757610417610889565b7f4e487b7100000000000000000000000000000000000000000000000000000000600052603260045260246000fd5b60007fffffffffffffffffffffffffffffffffffffffffffffffffffffffffffffffff820361096d5761096d610889565b5060010190565b7f4e487b7100000000000000000000000000000000000000000000000000000000600052603160045260246000fdfea26469706673582212203557b1e23e55bea49dbcc925415ec8501d0353aa3938c137fa20d0dafaaf866564736f6c63430008110033",
  "linkReferences": {},
  "deployedLinkReferences": {}
}