{
	"hardhat/contracts/royalty/RoyaltySubmission.sol": {
		"RoyaltySubmission": {
			"abi": [
				{
					"inputs": [
						{
							"internalType": "address",
							"name": "_royalty",
							"type": "address"
						}
					],
					"stateMutability": "nonpayable",
					"type": "constructor"
				},
				{
					"anonymous": false,
					"inputs": [
						{
							"indexed": true,
							"internalType": "address",
							"name": "previousOwner",
							"type": "address"
						},
						{
							"indexed": true,
							"internalType": "address",
							"name": "newOwner",
							"type": "address"
						}
					],
					"name": "OwnershipTransferred",
					"type": "event"
				},
				{
					"inputs": [],
					"name": "INTERFACE_ID_ERC1155",
					"outputs": [
						{
							"internalType": "bytes4",
							"name": "",
							"type": "bytes4"
						}
					],
					"stateMutability": "view",
					"type": "function"
				},
				{
					"inputs": [],
					"name": "INTERFACE_ID_ERC2981",
					"outputs": [
						{
							"internalType": "bytes4",
							"name": "",
							"type": "bytes4"
						}
					],
					"stateMutability": "view",
					"type": "function"
				},
				{
					"inputs": [],
					"name": "INTERFACE_ID_ERC721",
					"outputs": [
						{
							"internalType": "bytes4",
							"name": "",
							"type": "bytes4"
						}
					],
					"stateMutability": "view",
					"type": "function"
				},
				{
					"inputs": [
						{
							"internalType": "address",
							"name": "collection",
							"type": "address"
						}
					],
					"name": "checkForCollectionSubmission",
					"outputs": [
						{
							"internalType": "address",
							"name": "",
							"type": "address"
						},
						{
							"internalType": "uint8",
							"name": "",
							"type": "uint8"
						}
					],
					"stateMutability": "view",
					"type": "function"
				},
				{
					"inputs": [],
					"name": "owner",
					"outputs": [
						{
							"internalType": "address",
							"name": "",
							"type": "address"
						}
					],
					"stateMutability": "view",
					"type": "function"
				},
				{
					"inputs": [],
					"name": "renounceOwnership",
					"outputs": [],
					"stateMutability": "nonpayable",
					"type": "function"
				},
				{
					"inputs": [],
					"name": "royalty",
					"outputs": [
						{
							"internalType": "address",
							"name": "",
							"type": "address"
						}
					],
					"stateMutability": "view",
					"type": "function"
				},
				{
					"inputs": [
						{
							"internalType": "address",
							"name": "newOwner",
							"type": "address"
						}
					],
					"name": "transferOwnership",
					"outputs": [],
					"stateMutability": "nonpayable",
					"type": "function"
				},
				{
					"inputs": [
						{
							"internalType": "address",
							"name": "_owner",
							"type": "address"
						}
					],
					"name": "updateOwnerOfRoyalty",
					"outputs": [],
					"stateMutability": "nonpayable",
					"type": "function"
				},
				{
					"inputs": [
						{
							"internalType": "uint256",
							"name": "_royaltyFeeLimit",
							"type": "uint256"
						}
					],
					"name": "updateRoyaltyFeeLimit",
					"outputs": [],
					"stateMutability": "nonpayable",
					"type": "function"
				},
				{
					"inputs": [
						{
							"internalType": "address",
							"name": "collection",
							"type": "address"
						},
						{
							"internalType": "address",
							"name": "setter",
							"type": "address"
						},
						{
							"internalType": "address",
							"name": "receiver",
							"type": "address"
						},
						{
							"internalType": "uint256",
							"name": "fee",
							"type": "uint256"
						}
					],
					"name": "updateRoyaltyIfAdmin",
					"outputs": [],
					"stateMutability": "nonpayable",
					"type": "function"
				},
				{
					"inputs": [
						{
							"internalType": "address",
							"name": "collection",
							"type": "address"
						},
						{
							"internalType": "address",
							"name": "setter",
							"type": "address"
						},
						{
							"internalType": "address",
							"name": "receiver",
							"type": "address"
						},
						{
							"internalType": "uint256",
							"name": "fee",
							"type": "uint256"
						}
					],
					"name": "updateRoyaltyIfOwner",
					"outputs": [],
					"stateMutability": "nonpayable",
					"type": "function"
				},
				{
					"inputs": [
						{
							"internalType": "address",
							"name": "collection",
							"type": "address"
						},
						{
							"internalType": "address",
							"name": "setter",
							"type": "address"
						},
						{
							"internalType": "address",
							"name": "receiver",
							"type": "address"
						},
						{
							"internalType": "uint256",
							"name": "fee",
							"type": "uint256"
						}
					],
					"name": "updateRoyaltyIfSetter",
					"outputs": [],
					"stateMutability": "nonpayable",
					"type": "function"
				},
				{
					"inputs": [
						{
							"internalType": "address",
							"name": "collection",
							"type": "address"
						},
						{
							"internalType": "address",
							"name": "setter",
							"type": "address"
						},
						{
							"internalType": "address",
							"name": "receiver",
							"type": "address"
						},
						{
							"internalType": "uint256",
							"name": "fee",
							"type": "uint256"
						}
					],
					"name": "updateRoyaltyInfo",
					"outputs": [],
					"stateMutability": "nonpayable",
					"type": "function"
				}
			],
			"devdoc": {
				"kind": "dev",
				"methods": {
					"owner()": {
						"details": "Returns the address of the current owner."
					},
					"renounceOwnership()": {
						"details": "Leaves the contract without owner. It will not be possible to call `onlyOwner` functions anymore. Can only be called by the current owner. NOTE: Renouncing ownership will leave the contract without an owner, thereby removing any functionality that is only available to the owner."
					},
					"transferOwnership(address)": {
						"details": "Transfers ownership of the contract to a new account (`newOwner`). Can only be called by the current owner."
					}
				},
				"version": 1
			},
			"evm": {
				"assembly": "    /* \"hardhat/contracts/royalty/RoyaltySubmission.sol\":342:4935  contract RoyaltySubmission is Ownable {... */\n  mstore(0x40, 0xa0)\n    /* \"hardhat/contracts/royalty/RoyaltySubmission.sol\":729:794  constructor(address _royalty) {... */\n  callvalue\n  dup1\n  iszero\n  tag_1\n  jumpi\n  0x00\n  dup1\n  revert\ntag_1:\n  pop\n  mload(0x40)\n  sub(codesize, bytecodeSize)\n  dup1\n  bytecodeSize\n  dup4\n  codecopy\n  dup2\n  dup2\n  add\n  0x40\n  mstore\n  dup2\n  add\n  swap1\n  tag_2\n  swap2\n  swap1\n  tag_3\n  jump\t// in\ntag_2:\n    /* \"@openzeppelin/contracts/access/Ownable.sol\":936:968  _transferOwnership(_msgSender()) */\n  tag_7\n    /* \"@openzeppelin/contracts/access/Ownable.sol\":955:967  _msgSender() */\n  tag_8\n    /* \"@openzeppelin/contracts/access/Ownable.sol\":955:965  _msgSender */\n  shl(0x20, tag_9)\n    /* \"@openzeppelin/contracts/access/Ownable.sol\":955:967  _msgSender() */\n  0x20\n  shr\n  jump\t// in\ntag_8:\n    /* \"@openzeppelin/contracts/access/Ownable.sol\":936:954  _transferOwnership */\n  shl(0x20, tag_10)\n    /* \"@openzeppelin/contracts/access/Ownable.sol\":936:968  _transferOwnership(_msgSender()) */\n  0x20\n  shr\n  jump\t// in\ntag_7:\n    /* \"hardhat/contracts/royalty/RoyaltySubmission.sol\":779:787  _royalty */\n  dup1\n    /* \"hardhat/contracts/royalty/RoyaltySubmission.sol\":769:787  royalty = _royalty */\n  0xffffffffffffffffffffffffffffffffffffffff\n  and\n  0x80\n  dup2\n  0xffffffffffffffffffffffffffffffffffffffff\n  and\n  dup2\n  mstore\n  pop\n  pop\n    /* \"hardhat/contracts/royalty/RoyaltySubmission.sol\":729:794  constructor(address _royalty) {... */\n  pop\n    /* \"hardhat/contracts/royalty/RoyaltySubmission.sol\":342:4935  contract RoyaltySubmission is Ownable {... */\n  jump(tag_12)\n    /* \"@openzeppelin/contracts/utils/Context.sol\":640:736  function _msgSender() internal view virtual returns (address) {... */\ntag_9:\n    /* \"@openzeppelin/contracts/utils/Context.sol\":693:700  address */\n  0x00\n    /* \"@openzeppelin/contracts/utils/Context.sol\":719:729  msg.sender */\n  caller\n    /* \"@openzeppelin/contracts/utils/Context.sol\":712:729  return msg.sender */\n  swap1\n  pop\n    /* \"@openzeppelin/contracts/utils/Context.sol\":640:736  function _msgSender() internal view virtual returns (address) {... */\n  swap1\n  jump\t// out\n    /* \"@openzeppelin/contracts/access/Ownable.sol\":2433:2620  function _transferOwnership(address newOwner) internal virtual {... */\ntag_10:\n    /* \"@openzeppelin/contracts/access/Ownable.sol\":2506:2522  address oldOwner */\n  0x00\n    /* \"@openzeppelin/contracts/access/Ownable.sol\":2525:2531  _owner */\n  dup1\n  0x00\n  swap1\n  sload\n  swap1\n  0x0100\n  exp\n  swap1\n  div\n  0xffffffffffffffffffffffffffffffffffffffff\n  and\n    /* \"@openzeppelin/contracts/access/Ownable.sol\":2506:2531  address oldOwner = _owner */\n  swap1\n  pop\n    /* \"@openzeppelin/contracts/access/Ownable.sol\":2550:2558  newOwner */\n  dup2\n    /* \"@openzeppelin/contracts/access/Ownable.sol\":2541:2547  _owner */\n  0x00\n  dup1\n    /* \"@openzeppelin/contracts/access/Ownable.sol\":2541:2558  _owner = newOwner */\n  0x0100\n  exp\n  dup2\n  sload\n  dup2\n  0xffffffffffffffffffffffffffffffffffffffff\n  mul\n  not\n  and\n  swap1\n  dup4\n  0xffffffffffffffffffffffffffffffffffffffff\n  and\n  mul\n  or\n  swap1\n  sstore\n  pop\n    /* \"@openzeppelin/contracts/access/Ownable.sol\":2604:2612  newOwner */\n  dup2\n    /* \"@openzeppelin/contracts/access/Ownable.sol\":2573:2613  OwnershipTransferred(oldOwner, newOwner) */\n  0xffffffffffffffffffffffffffffffffffffffff\n  and\n    /* \"@openzeppelin/contracts/access/Ownable.sol\":2594:2602  oldOwner */\n  dup2\n    /* \"@openzeppelin/contracts/access/Ownable.sol\":2573:2613  OwnershipTransferred(oldOwner, newOwner) */\n  0xffffffffffffffffffffffffffffffffffffffff\n  and\n  0x8be0079c531659141344cd1fd0a4f28419497f9722a3daafe3b4186f6b6457e0\n  mload(0x40)\n  mload(0x40)\n  dup1\n  swap2\n  sub\n  swap1\n  log3\n    /* \"@openzeppelin/contracts/access/Ownable.sol\":2496:2620  {... */\n  pop\n    /* \"@openzeppelin/contracts/access/Ownable.sol\":2433:2620  function _transferOwnership(address newOwner) internal virtual {... */\n  pop\n  jump\t// out\n    /* \"#utility.yul\":88:205   */\ntag_16:\n    /* \"#utility.yul\":197:198   */\n  0x00\n    /* \"#utility.yul\":194:195   */\n  dup1\n    /* \"#utility.yul\":187:199   */\n  revert\n    /* \"#utility.yul\":334:460   */\ntag_18:\n    /* \"#utility.yul\":371:378   */\n  0x00\n    /* \"#utility.yul\":411:453   */\n  0xffffffffffffffffffffffffffffffffffffffff\n    /* \"#utility.yul\":404:409   */\n  dup3\n    /* \"#utility.yul\":400:454   */\n  and\n    /* \"#utility.yul\":389:454   */\n  swap1\n  pop\n    /* \"#utility.yul\":334:460   */\n  swap2\n  swap1\n  pop\n  jump\t// out\n    /* \"#utility.yul\":466:562   */\ntag_19:\n    /* \"#utility.yul\":503:510   */\n  0x00\n    /* \"#utility.yul\":532:556   */\n  tag_28\n    /* \"#utility.yul\":550:555   */\n  dup3\n    /* \"#utility.yul\":532:556   */\n  tag_18\n  jump\t// in\ntag_28:\n    /* \"#utility.yul\":521:556   */\n  swap1\n  pop\n    /* \"#utility.yul\":466:562   */\n  swap2\n  swap1\n  pop\n  jump\t// out\n    /* \"#utility.yul\":568:690   */\ntag_20:\n    /* \"#utility.yul\":641:665   */\n  tag_30\n    /* \"#utility.yul\":659:664   */\n  dup2\n    /* \"#utility.yul\":641:665   */\n  tag_19\n  jump\t// in\ntag_30:\n    /* \"#utility.yul\":634:639   */\n  dup2\n    /* \"#utility.yul\":631:666   */\n  eq\n    /* \"#utility.yul\":621:684   */\n  tag_31\n  jumpi\n    /* \"#utility.yul\":680:681   */\n  0x00\n    /* \"#utility.yul\":677:678   */\n  dup1\n    /* \"#utility.yul\":670:682   */\n  revert\n    /* \"#utility.yul\":621:684   */\ntag_31:\n    /* \"#utility.yul\":568:690   */\n  pop\n  jump\t// out\n    /* \"#utility.yul\":696:839   */\ntag_21:\n    /* \"#utility.yul\":753:758   */\n  0x00\n    /* \"#utility.yul\":784:790   */\n  dup2\n    /* \"#utility.yul\":778:791   */\n  mload\n    /* \"#utility.yul\":769:791   */\n  swap1\n  pop\n    /* \"#utility.yul\":800:833   */\n  tag_33\n    /* \"#utility.yul\":827:832   */\n  dup2\n    /* \"#utility.yul\":800:833   */\n  tag_20\n  jump\t// in\ntag_33:\n    /* \"#utility.yul\":696:839   */\n  swap3\n  swap2\n  pop\n  pop\n  jump\t// out\n    /* \"#utility.yul\":845:1196   */\ntag_3:\n    /* \"#utility.yul\":915:921   */\n  0x00\n    /* \"#utility.yul\":964:966   */\n  0x20\n    /* \"#utility.yul\":952:961   */\n  dup3\n    /* \"#utility.yul\":943:950   */\n  dup5\n    /* \"#utility.yul\":939:962   */\n  sub\n    /* \"#utility.yul\":935:967   */\n  slt\n    /* \"#utility.yul\":932:1051   */\n  iszero\n  tag_35\n  jumpi\n    /* \"#utility.yul\":970:1049   */\n  tag_36\n  tag_16\n  jump\t// in\ntag_36:\n    /* \"#utility.yul\":932:1051   */\ntag_35:\n    /* \"#utility.yul\":1090:1091   */\n  0x00\n    /* \"#utility.yul\":1115:1179   */\n  tag_37\n    /* \"#utility.yul\":1171:1178   */\n  dup5\n    /* \"#utility.yul\":1162:1168   */\n  dup3\n    /* \"#utility.yul\":1151:1160   */\n  dup6\n    /* \"#utility.yul\":1147:1169   */\n  add\n    /* \"#utility.yul\":1115:1179   */\n  tag_21\n  jump\t// in\ntag_37:\n    /* \"#utility.yul\":1105:1179   */\n  swap2\n  pop\n    /* \"#utility.yul\":1061:1189   */\n  pop\n    /* \"#utility.yul\":845:1196   */\n  swap3\n  swap2\n  pop\n  pop\n  jump\t// out\n    /* \"hardhat/contracts/royalty/RoyaltySubmission.sol\":342:4935  contract RoyaltySubmission is Ownable {... */\ntag_12:\n  mload(0x80)\n  codecopy(0x00, dataOffset(sub_0), dataSize(sub_0))\n  0x00\n  assignImmutable(\"0x1cca6d2cec39a0e1e2f69c2ebe2dc3f8c1e03db413c5d1c3e31cdca41ddbc4f2\")\n  return(0x00, dataSize(sub_0))\nstop\n\nsub_0: assembly {\n        /* \"hardhat/contracts/royalty/RoyaltySubmission.sol\":342:4935  contract RoyaltySubmission is Ownable {... */\n      mstore(0x40, 0x80)\n      callvalue\n      dup1\n      iszero\n      tag_1\n      jumpi\n      0x00\n      dup1\n      revert\n    tag_1:\n      pop\n      jumpi(tag_2, lt(calldatasize, 0x04))\n      shr(0xe0, calldataload(0x00))\n      dup1\n      0xb060dd86\n      gt\n      tag_17\n      jumpi\n      dup1\n      0xb9735321\n      gt\n      tag_18\n      jumpi\n      dup1\n      0xb9735321\n      eq\n      tag_13\n      jumpi\n      dup1\n      0xbc6bc0cd\n      eq\n      tag_14\n      jumpi\n      dup1\n      0xf2fde38b\n      eq\n      tag_15\n      jumpi\n      dup1\n      0xfa714960\n      eq\n      tag_16\n      jumpi\n      jump(tag_2)\n    tag_18:\n      dup1\n      0xb060dd86\n      eq\n      tag_10\n      jumpi\n      dup1\n      0xb8212177\n      eq\n      tag_11\n      jumpi\n      dup1\n      0xb9223c9d\n      eq\n      tag_12\n      jumpi\n      jump(tag_2)\n    tag_17:\n      dup1\n      0x33bf6156\n      gt\n      tag_19\n      jumpi\n      dup1\n      0x33bf6156\n      eq\n      tag_6\n      jumpi\n      dup1\n      0x4af112b7\n      eq\n      tag_7\n      jumpi\n      dup1\n      0x715018a6\n      eq\n      tag_8\n      jumpi\n      dup1\n      0x8da5cb5b\n      eq\n      tag_9\n      jumpi\n      jump(tag_2)\n    tag_19:\n      dup1\n      0x0eecf97b\n      eq\n      tag_3\n      jumpi\n      dup1\n      0x12b89cd1\n      eq\n      tag_4\n      jumpi\n      dup1\n      0x29ee566c\n      eq\n      tag_5\n      jumpi\n    tag_2:\n      0x00\n      dup1\n      revert\n        /* \"hardhat/contracts/royalty/RoyaltySubmission.sol\":1253:1491  function updateRoyaltyInfo(... */\n    tag_3:\n      tag_20\n      0x04\n      dup1\n      calldatasize\n      sub\n      dup2\n      add\n      swap1\n      tag_21\n      swap2\n      swap1\n      tag_22\n      jump\t// in\n    tag_21:\n      tag_23\n      jump\t// in\n    tag_20:\n      stop\n        /* \"hardhat/contracts/royalty/RoyaltySubmission.sol\":835:960  function updateOwnerOfRoyalty(address _owner) external onlyOwner {... */\n    tag_4:\n      tag_24\n      0x04\n      dup1\n      calldatasize\n      sub\n      dup2\n      add\n      swap1\n      tag_25\n      swap2\n      swap1\n      tag_26\n      jump\t// in\n    tag_25:\n      tag_27\n      jump\t// in\n    tag_24:\n      stop\n        /* \"hardhat/contracts/royalty/RoyaltySubmission.sol\":690:722  address public immutable royalty */\n    tag_5:\n      tag_28\n      tag_29\n      jump\t// in\n    tag_28:\n      mload(0x40)\n      tag_30\n      swap2\n      swap1\n      tag_31\n      jump\t// in\n    tag_30:\n      mload(0x40)\n      dup1\n      swap2\n      sub\n      swap1\n      return\n        /* \"hardhat/contracts/royalty/RoyaltySubmission.sol\":501:557  bytes4 public constant INTERFACE_ID_ERC1155 = 0xd9b67a26 */\n    tag_6:\n      tag_32\n      tag_33\n      jump\t// in\n    tag_32:\n      mload(0x40)\n      tag_34\n      swap2\n      swap1\n      tag_35\n      jump\t// in\n    tag_34:\n      mload(0x40)\n      dup1\n      swap2\n      sub\n      swap1\n      return\n        /* \"hardhat/contracts/royalty/RoyaltySubmission.sol\":2038:2475  function updateRoyaltyIfOwner(... */\n    tag_7:\n      tag_36\n      0x04\n      dup1\n      calldatasize\n      sub\n      dup2\n      add\n      swap1\n      tag_37\n      swap2\n      swap1\n      tag_22\n      jump\t// in\n    tag_37:\n      tag_38\n      jump\t// in\n    tag_36:\n      stop\n        /* \"@openzeppelin/contracts/access/Ownable.sol\":1831:1932  function renounceOwnership() public virtual onlyOwner {... */\n    tag_8:\n      tag_39\n      tag_40\n      jump\t// in\n    tag_39:\n      stop\n        /* \"@openzeppelin/contracts/access/Ownable.sol\":1201:1286  function owner() public view virtual returns (address) {... */\n    tag_9:\n      tag_41\n      tag_42\n      jump\t// in\n    tag_41:\n      mload(0x40)\n      tag_43\n      swap2\n      swap1\n      tag_31\n      jump\t// in\n    tag_43:\n      mload(0x40)\n      dup1\n      swap2\n      sub\n      swap1\n      return\n        /* \"hardhat/contracts/royalty/RoyaltySubmission.sol\":591:647  bytes4 public constant INTERFACE_ID_ERC2981 = 0x2a55205a */\n    tag_10:\n      tag_44\n      tag_45\n      jump\t// in\n    tag_44:\n      mload(0x40)\n      tag_46\n      swap2\n      swap1\n      tag_35\n      jump\t// in\n    tag_46:\n      mload(0x40)\n      dup1\n      swap2\n      sub\n      swap1\n      return\n        /* \"hardhat/contracts/royalty/RoyaltySubmission.sol\":1546:1983  function updateRoyaltyIfAdmin(... */\n    tag_11:\n      tag_47\n      0x04\n      dup1\n      calldatasize\n      sub\n      dup2\n      add\n      swap1\n      tag_48\n      swap2\n      swap1\n      tag_22\n      jump\t// in\n    tag_48:\n      tag_49\n      jump\t// in\n    tag_47:\n      stop\n        /* \"hardhat/contracts/royalty/RoyaltySubmission.sol\":1016:1180  function updateRoyaltyFeeLimit(... */\n    tag_12:\n      tag_50\n      0x04\n      dup1\n      calldatasize\n      sub\n      dup2\n      add\n      swap1\n      tag_51\n      swap2\n      swap1\n      tag_52\n      jump\t// in\n    tag_51:\n      tag_53\n      jump\t// in\n    tag_50:\n      stop\n        /* \"hardhat/contracts/royalty/RoyaltySubmission.sol\":2561:2972  function updateRoyaltyIfSetter(... */\n    tag_13:\n      tag_54\n      0x04\n      dup1\n      calldatasize\n      sub\n      dup2\n      add\n      swap1\n      tag_55\n      swap2\n      swap1\n      tag_22\n      jump\t// in\n    tag_55:\n      tag_56\n      jump\t// in\n    tag_54:\n      stop\n        /* \"hardhat/contracts/royalty/RoyaltySubmission.sol\":412:467  bytes4 public constant INTERFACE_ID_ERC721 = 0x80ac58cd */\n    tag_14:\n      tag_57\n      tag_58\n      jump\t// in\n    tag_57:\n      mload(0x40)\n      tag_59\n      swap2\n      swap1\n      tag_35\n      jump\t// in\n    tag_59:\n      mload(0x40)\n      dup1\n      swap2\n      sub\n      swap1\n      return\n        /* \"@openzeppelin/contracts/access/Ownable.sol\":2081:2279  function transferOwnership(address newOwner) public virtual onlyOwner {... */\n    tag_15:\n      tag_60\n      0x04\n      dup1\n      calldatasize\n      sub\n      dup2\n      add\n      swap1\n      tag_61\n      swap2\n      swap1\n      tag_26\n      jump\t// in\n    tag_61:\n      tag_62\n      jump\t// in\n    tag_60:\n      stop\n        /* \"hardhat/contracts/royalty/RoyaltySubmission.sol\":3333:4206  function checkForCollectionSubmission(... */\n    tag_16:\n      tag_63\n      0x04\n      dup1\n      calldatasize\n      sub\n      dup2\n      add\n      swap1\n      tag_64\n      swap2\n      swap1\n      tag_26\n      jump\t// in\n    tag_64:\n      tag_65\n      jump\t// in\n    tag_63:\n      mload(0x40)\n      tag_66\n      swap3\n      swap2\n      swap1\n      tag_67\n      jump\t// in\n    tag_66:\n      mload(0x40)\n      dup1\n      swap2\n      sub\n      swap1\n      return\n        /* \"hardhat/contracts/royalty/RoyaltySubmission.sol\":1253:1491  function updateRoyaltyInfo(... */\n    tag_23:\n        /* \"@openzeppelin/contracts/access/Ownable.sol\":1094:1107  _checkOwner() */\n      tag_69\n        /* \"@openzeppelin/contracts/access/Ownable.sol\":1094:1105  _checkOwner */\n      tag_70\n        /* \"@openzeppelin/contracts/access/Ownable.sol\":1094:1107  _checkOwner() */\n      jump\t// in\n    tag_69:\n        /* \"hardhat/contracts/royalty/RoyaltySubmission.sol\":1423:1430  royalty */\n      immutable(\"0x1cca6d2cec39a0e1e2f69c2ebe2dc3f8c1e03db413c5d1c3e31cdca41ddbc4f2\")\n        /* \"hardhat/contracts/royalty/RoyaltySubmission.sol\":1414:1449  IRoyalty(royalty).updateRoyaltyInfo */\n      0xffffffffffffffffffffffffffffffffffffffff\n      and\n      0x0eecf97b\n        /* \"hardhat/contracts/royalty/RoyaltySubmission.sol\":1450:1460  collection */\n      dup6\n        /* \"hardhat/contracts/royalty/RoyaltySubmission.sol\":1462:1468  setter */\n      dup6\n        /* \"hardhat/contracts/royalty/RoyaltySubmission.sol\":1470:1478  receiver */\n      dup6\n        /* \"hardhat/contracts/royalty/RoyaltySubmission.sol\":1480:1483  fee */\n      dup6\n        /* \"hardhat/contracts/royalty/RoyaltySubmission.sol\":1414:1484  IRoyalty(royalty).updateRoyaltyInfo(collection, setter, receiver, fee) */\n      mload(0x40)\n      dup6\n      0xffffffff\n      and\n      0xe0\n      shl\n      dup2\n      mstore\n      0x04\n      add\n      tag_72\n      swap5\n      swap4\n      swap3\n      swap2\n      swap1\n      tag_73\n      jump\t// in\n    tag_72:\n      0x00\n      mload(0x40)\n      dup1\n      dup4\n      sub\n      dup2\n      0x00\n      dup8\n      dup1\n      extcodesize\n      iszero\n      dup1\n      iszero\n      tag_74\n      jumpi\n      0x00\n      dup1\n      revert\n    tag_74:\n      pop\n      gas\n      call\n      iszero\n      dup1\n      iszero\n      tag_76\n      jumpi\n      returndatasize\n      0x00\n      dup1\n      returndatacopy\n      revert(0x00, returndatasize)\n    tag_76:\n      pop\n      pop\n      pop\n      pop\n        /* \"hardhat/contracts/royalty/RoyaltySubmission.sol\":1253:1491  function updateRoyaltyInfo(... */\n      pop\n      pop\n      pop\n      pop\n      jump\t// out\n        /* \"hardhat/contracts/royalty/RoyaltySubmission.sol\":835:960  function updateOwnerOfRoyalty(address _owner) external onlyOwner {... */\n    tag_27:\n        /* \"@openzeppelin/contracts/access/Ownable.sol\":1094:1107  _checkOwner() */\n      tag_78\n        /* \"@openzeppelin/contracts/access/Ownable.sol\":1094:1105  _checkOwner */\n      tag_70\n        /* \"@openzeppelin/contracts/access/Ownable.sol\":1094:1107  _checkOwner() */\n      jump\t// in\n    tag_78:\n        /* \"hardhat/contracts/royalty/RoyaltySubmission.sol\":919:926  royalty */\n      immutable(\"0x1cca6d2cec39a0e1e2f69c2ebe2dc3f8c1e03db413c5d1c3e31cdca41ddbc4f2\")\n        /* \"hardhat/contracts/royalty/RoyaltySubmission.sol\":910:945  IOwnable(royalty).transferOwnership */\n      0xffffffffffffffffffffffffffffffffffffffff\n      and\n      0xf2fde38b\n        /* \"hardhat/contracts/royalty/RoyaltySubmission.sol\":946:952  _owner */\n      dup3\n        /* \"hardhat/contracts/royalty/RoyaltySubmission.sol\":910:953  IOwnable(royalty).transferOwnership(_owner) */\n      mload(0x40)\n      dup3\n      0xffffffff\n      and\n      0xe0\n      shl\n      dup2\n      mstore\n      0x04\n      add\n      tag_80\n      swap2\n      swap1\n      tag_31\n      jump\t// in\n    tag_80:\n      0x00\n      mload(0x40)\n      dup1\n      dup4\n      sub\n      dup2\n      0x00\n      dup8\n      dup1\n      extcodesize\n      iszero\n      dup1\n      iszero\n      tag_81\n      jumpi\n      0x00\n      dup1\n      revert\n    tag_81:\n      pop\n      gas\n      call\n      iszero\n      dup1\n      iszero\n      tag_83\n      jumpi\n      returndatasize\n      0x00\n      dup1\n      returndatacopy\n      revert(0x00, returndatasize)\n    tag_83:\n      pop\n      pop\n      pop\n      pop\n        /* \"hardhat/contracts/royalty/RoyaltySubmission.sol\":835:960  function updateOwnerOfRoyalty(address _owner) external onlyOwner {... */\n      pop\n      jump\t// out\n        /* \"hardhat/contracts/royalty/RoyaltySubmission.sol\":690:722  address public immutable royalty */\n    tag_29:\n      immutable(\"0x1cca6d2cec39a0e1e2f69c2ebe2dc3f8c1e03db413c5d1c3e31cdca41ddbc4f2\")\n      dup2\n      jump\t// out\n        /* \"hardhat/contracts/royalty/RoyaltySubmission.sol\":501:557  bytes4 public constant INTERFACE_ID_ERC1155 = 0xd9b67a26 */\n    tag_33:\n        /* \"hardhat/contracts/royalty/RoyaltySubmission.sol\":547:557  0xd9b67a26 */\n      0xd9b67a26\n        /* \"hardhat/contracts/royalty/RoyaltySubmission.sol\":501:557  bytes4 public constant INTERFACE_ID_ERC1155 = 0xd9b67a26 */\n      0xe0\n      shl\n      dup2\n      jump\t// out\n        /* \"hardhat/contracts/royalty/RoyaltySubmission.sol\":2038:2475  function updateRoyaltyIfOwner(... */\n    tag_38:\n        /* \"hardhat/contracts/royalty/RoyaltySubmission.sol\":2222:2232  collection */\n      dup4\n        /* \"hardhat/contracts/royalty/RoyaltySubmission.sol\":2214:2251  IERC165(collection).supportsInterface */\n      0xffffffffffffffffffffffffffffffffffffffff\n      and\n      0x01ffc9a7\n        /* \"hardhat/contracts/royalty/RoyaltySubmission.sol\":637:647  0x2a55205a */\n      0x2a55205a\n        /* \"hardhat/contracts/royalty/RoyaltySubmission.sol\":2252:2272  INTERFACE_ID_ERC2981 */\n      0xe0\n      shl\n        /* \"hardhat/contracts/royalty/RoyaltySubmission.sol\":2214:2273  IERC165(collection).supportsInterface(INTERFACE_ID_ERC2981) */\n      mload(0x40)\n      dup3\n      0xffffffff\n      and\n      0xe0\n      shl\n      dup2\n      mstore\n      0x04\n      add\n      tag_85\n      swap2\n      swap1\n      tag_35\n      jump\t// in\n    tag_85:\n      0x20\n      mload(0x40)\n      dup1\n      dup4\n      sub\n      dup2\n      dup7\n      gas\n      staticcall\n      iszero\n      dup1\n      iszero\n      tag_87\n      jumpi\n      returndatasize\n      0x00\n      dup1\n      returndatacopy\n      revert(0x00, returndatasize)\n    tag_87:\n      pop\n      pop\n      pop\n      pop\n      mload(0x40)\n      returndatasize\n      not(0x1f)\n      0x1f\n      dup3\n      add\n      and\n      dup3\n      add\n      dup1\n      0x40\n      mstore\n      pop\n      dup2\n      add\n      swap1\n      tag_88\n      swap2\n      swap1\n      tag_89\n      jump\t// in\n    tag_88:\n        /* \"hardhat/contracts/royalty/RoyaltySubmission.sol\":2213:2273  !IERC165(collection).supportsInterface(INTERFACE_ID_ERC2981) */\n      iszero\n        /* \"hardhat/contracts/royalty/RoyaltySubmission.sol\":2192:2316  require(... */\n      tag_90\n      jumpi\n      mload(0x40)\n      0x08c379a000000000000000000000000000000000000000000000000000000000\n      dup2\n      mstore\n      0x04\n      add\n      tag_91\n      swap1\n      tag_92\n      jump\t// in\n    tag_91:\n      mload(0x40)\n      dup1\n      swap2\n      sub\n      swap1\n      revert\n    tag_90:\n        /* \"hardhat/contracts/royalty/RoyaltySubmission.sol\":2357:2367  collection */\n      dup4\n        /* \"hardhat/contracts/royalty/RoyaltySubmission.sol\":2348:2374  IOwnable(collection).owner */\n      0xffffffffffffffffffffffffffffffffffffffff\n      and\n      0x8da5cb5b\n        /* \"hardhat/contracts/royalty/RoyaltySubmission.sol\":2348:2376  IOwnable(collection).owner() */\n      mload(0x40)\n      dup2\n      0xffffffff\n      and\n      0xe0\n      shl\n      dup2\n      mstore\n      0x04\n      add\n      0x20\n      mload(0x40)\n      dup1\n      dup4\n      sub\n      dup2\n      dup7\n      gas\n      staticcall\n      iszero\n      dup1\n      iszero\n      tag_94\n      jumpi\n      returndatasize\n      0x00\n      dup1\n      returndatacopy\n      revert(0x00, returndatasize)\n    tag_94:\n      pop\n      pop\n      pop\n      pop\n      mload(0x40)\n      returndatasize\n      not(0x1f)\n      0x1f\n      dup3\n      add\n      and\n      dup3\n      add\n      dup1\n      0x40\n      mstore\n      pop\n      dup2\n      add\n      swap1\n      tag_95\n      swap2\n      swap1\n      tag_96\n      jump\t// in\n    tag_95:\n        /* \"hardhat/contracts/royalty/RoyaltySubmission.sol\":2334:2376  msg.sender == IOwnable(collection).owner() */\n      0xffffffffffffffffffffffffffffffffffffffff\n      and\n        /* \"hardhat/contracts/royalty/RoyaltySubmission.sol\":2334:2344  msg.sender */\n      caller\n        /* \"hardhat/contracts/royalty/RoyaltySubmission.sol\":2334:2376  msg.sender == IOwnable(collection).owner() */\n      0xffffffffffffffffffffffffffffffffffffffff\n      and\n      eq\n        /* \"hardhat/contracts/royalty/RoyaltySubmission.sol\":2326:2390  require(msg.sender == IOwnable(collection).owner(), \"Not Owner\") */\n      tag_97\n      jumpi\n      mload(0x40)\n      0x08c379a000000000000000000000000000000000000000000000000000000000\n      dup2\n      mstore\n      0x04\n      add\n      tag_98\n      swap1\n      tag_99\n      jump\t// in\n    tag_98:\n      mload(0x40)\n      dup1\n      swap2\n      sub\n      swap1\n      revert\n    tag_97:\n        /* \"hardhat/contracts/royalty/RoyaltySubmission.sol\":2401:2468  _updateRoyaltyInfoIfOwnerOrAdmin(collection, setter, receiver, fee) */\n      tag_100\n        /* \"hardhat/contracts/royalty/RoyaltySubmission.sol\":2434:2444  collection */\n      dup5\n        /* \"hardhat/contracts/royalty/RoyaltySubmission.sol\":2446:2452  setter */\n      dup5\n        /* \"hardhat/contracts/royalty/RoyaltySubmission.sol\":2454:2462  receiver */\n      dup5\n        /* \"hardhat/contracts/royalty/RoyaltySubmission.sol\":2464:2467  fee */\n      dup5\n        /* \"hardhat/contracts/royalty/RoyaltySubmission.sol\":2401:2433  _updateRoyaltyInfoIfOwnerOrAdmin */\n      tag_101\n        /* \"hardhat/contracts/royalty/RoyaltySubmission.sol\":2401:2468  _updateRoyaltyInfoIfOwnerOrAdmin(collection, setter, receiver, fee) */\n      jump\t// in\n    tag_100:\n        /* \"hardhat/contracts/royalty/RoyaltySubmission.sol\":2038:2475  function updateRoyaltyIfOwner(... */\n      pop\n      pop\n      pop\n      pop\n      jump\t// out\n        /* \"@openzeppelin/contracts/access/Ownable.sol\":1831:1932  function renounceOwnership() public virtual onlyOwner {... */\n    tag_40:\n        /* \"@openzeppelin/contracts/access/Ownable.sol\":1094:1107  _checkOwner() */\n      tag_103\n        /* \"@openzeppelin/contracts/access/Ownable.sol\":1094:1105  _checkOwner */\n      tag_70\n        /* \"@openzeppelin/contracts/access/Ownable.sol\":1094:1107  _checkOwner() */\n      jump\t// in\n    tag_103:\n        /* \"@openzeppelin/contracts/access/Ownable.sol\":1895:1925  _transferOwnership(address(0)) */\n      tag_105\n        /* \"@openzeppelin/contracts/access/Ownable.sol\":1922:1923  0 */\n      0x00\n        /* \"@openzeppelin/contracts/access/Ownable.sol\":1895:1913  _transferOwnership */\n      tag_106\n        /* \"@openzeppelin/contracts/access/Ownable.sol\":1895:1925  _transferOwnership(address(0)) */\n      jump\t// in\n    tag_105:\n        /* \"@openzeppelin/contracts/access/Ownable.sol\":1831:1932  function renounceOwnership() public virtual onlyOwner {... */\n      jump\t// out\n        /* \"@openzeppelin/contracts/access/Ownable.sol\":1201:1286  function owner() public view virtual returns (address) {... */\n    tag_42:\n        /* \"@openzeppelin/contracts/access/Ownable.sol\":1247:1254  address */\n      0x00\n        /* \"@openzeppelin/contracts/access/Ownable.sol\":1273:1279  _owner */\n      dup1\n      0x00\n      swap1\n      sload\n      swap1\n      0x0100\n      exp\n      swap1\n      div\n      0xffffffffffffffffffffffffffffffffffffffff\n      and\n        /* \"@openzeppelin/contracts/access/Ownable.sol\":1266:1279  return _owner */\n      swap1\n      pop\n        /* \"@openzeppelin/contracts/access/Ownable.sol\":1201:1286  function owner() public view virtual returns (address) {... */\n      swap1\n      jump\t// out\n        /* \"hardhat/contracts/royalty/RoyaltySubmission.sol\":591:647  bytes4 public constant INTERFACE_ID_ERC2981 = 0x2a55205a */\n    tag_45:\n        /* \"hardhat/contracts/royalty/RoyaltySubmission.sol\":637:647  0x2a55205a */\n      0x2a55205a\n        /* \"hardhat/contracts/royalty/RoyaltySubmission.sol\":591:647  bytes4 public constant INTERFACE_ID_ERC2981 = 0x2a55205a */\n      0xe0\n      shl\n      dup2\n      jump\t// out\n        /* \"hardhat/contracts/royalty/RoyaltySubmission.sol\":1546:1983  function updateRoyaltyIfAdmin(... */\n    tag_49:\n        /* \"hardhat/contracts/royalty/RoyaltySubmission.sol\":1730:1740  collection */\n      dup4\n        /* \"hardhat/contracts/royalty/RoyaltySubmission.sol\":1722:1759  IERC165(collection).supportsInterface */\n      0xffffffffffffffffffffffffffffffffffffffff\n      and\n      0x01ffc9a7\n        /* \"hardhat/contracts/royalty/RoyaltySubmission.sol\":637:647  0x2a55205a */\n      0x2a55205a\n        /* \"hardhat/contracts/royalty/RoyaltySubmission.sol\":1760:1780  INTERFACE_ID_ERC2981 */\n      0xe0\n      shl\n        /* \"hardhat/contracts/royalty/RoyaltySubmission.sol\":1722:1781  IERC165(collection).supportsInterface(INTERFACE_ID_ERC2981) */\n      mload(0x40)\n      dup3\n      0xffffffff\n      and\n      0xe0\n      shl\n      dup2\n      mstore\n      0x04\n      add\n      tag_109\n      swap2\n      swap1\n      tag_35\n      jump\t// in\n    tag_109:\n      0x20\n      mload(0x40)\n      dup1\n      dup4\n      sub\n      dup2\n      dup7\n      gas\n      staticcall\n      iszero\n      dup1\n      iszero\n      tag_111\n      jumpi\n      returndatasize\n      0x00\n      dup1\n      returndatacopy\n      revert(0x00, returndatasize)\n    tag_111:\n      pop\n      pop\n      pop\n      pop\n      mload(0x40)\n      returndatasize\n      not(0x1f)\n      0x1f\n      dup3\n      add\n      and\n      dup3\n      add\n      dup1\n      0x40\n      mstore\n      pop\n      dup2\n      add\n      swap1\n      tag_112\n      swap2\n      swap1\n      tag_89\n      jump\t// in\n    tag_112:\n        /* \"hardhat/contracts/royalty/RoyaltySubmission.sol\":1721:1781  !IERC165(collection).supportsInterface(INTERFACE_ID_ERC2981) */\n      iszero\n        /* \"hardhat/contracts/royalty/RoyaltySubmission.sol\":1700:1824  require(... */\n      tag_113\n      jumpi\n      mload(0x40)\n      0x08c379a000000000000000000000000000000000000000000000000000000000\n      dup2\n      mstore\n      0x04\n      add\n      tag_114\n      swap1\n      tag_92\n      jump\t// in\n    tag_114:\n      mload(0x40)\n      dup1\n      swap2\n      sub\n      swap1\n      revert\n    tag_113:\n        /* \"hardhat/contracts/royalty/RoyaltySubmission.sol\":1865:1875  collection */\n      dup4\n        /* \"hardhat/contracts/royalty/RoyaltySubmission.sol\":1856:1882  IOwnable(collection).admin */\n      0xffffffffffffffffffffffffffffffffffffffff\n      and\n      0xf851a440\n        /* \"hardhat/contracts/royalty/RoyaltySubmission.sol\":1856:1884  IOwnable(collection).admin() */\n      mload(0x40)\n      dup2\n      0xffffffff\n      and\n      0xe0\n      shl\n      dup2\n      mstore\n      0x04\n      add\n      0x20\n      mload(0x40)\n      dup1\n      dup4\n      sub\n      dup2\n      dup7\n      gas\n      staticcall\n      iszero\n      dup1\n      iszero\n      tag_116\n      jumpi\n      returndatasize\n      0x00\n      dup1\n      returndatacopy\n      revert(0x00, returndatasize)\n    tag_116:\n      pop\n      pop\n      pop\n      pop\n      mload(0x40)\n      returndatasize\n      not(0x1f)\n      0x1f\n      dup3\n      add\n      and\n      dup3\n      add\n      dup1\n      0x40\n      mstore\n      pop\n      dup2\n      add\n      swap1\n      tag_117\n      swap2\n      swap1\n      tag_96\n      jump\t// in\n    tag_117:\n        /* \"hardhat/contracts/royalty/RoyaltySubmission.sol\":1842:1884  msg.sender == IOwnable(collection).admin() */\n      0xffffffffffffffffffffffffffffffffffffffff\n      and\n        /* \"hardhat/contracts/royalty/RoyaltySubmission.sol\":1842:1852  msg.sender */\n      caller\n        /* \"hardhat/contracts/royalty/RoyaltySubmission.sol\":1842:1884  msg.sender == IOwnable(collection).admin() */\n      0xffffffffffffffffffffffffffffffffffffffff\n      and\n      eq\n        /* \"hardhat/contracts/royalty/RoyaltySubmission.sol\":1834:1898  require(msg.sender == IOwnable(collection).admin(), \"Not Admin\") */\n      tag_118\n      jumpi\n      mload(0x40)\n      0x08c379a000000000000000000000000000000000000000000000000000000000\n      dup2\n      mstore\n      0x04\n      add\n      tag_119\n      swap1\n      tag_120\n      jump\t// in\n    tag_119:\n      mload(0x40)\n      dup1\n      swap2\n      sub\n      swap1\n      revert\n    tag_118:\n        /* \"hardhat/contracts/royalty/RoyaltySubmission.sol\":1909:1976  _updateRoyaltyInfoIfOwnerOrAdmin(collection, setter, receiver, fee) */\n      tag_121\n        /* \"hardhat/contracts/royalty/RoyaltySubmission.sol\":1942:1952  collection */\n      dup5\n        /* \"hardhat/contracts/royalty/RoyaltySubmission.sol\":1954:1960  setter */\n      dup5\n        /* \"hardhat/contracts/royalty/RoyaltySubmission.sol\":1962:1970  receiver */\n      dup5\n        /* \"hardhat/contracts/royalty/RoyaltySubmission.sol\":1972:1975  fee */\n      dup5\n        /* \"hardhat/contracts/royalty/RoyaltySubmission.sol\":1909:1941  _updateRoyaltyInfoIfOwnerOrAdmin */\n      tag_101\n        /* \"hardhat/contracts/royalty/RoyaltySubmission.sol\":1909:1976  _updateRoyaltyInfoIfOwnerOrAdmin(collection, setter, receiver, fee) */\n      jump\t// in\n    tag_121:\n        /* \"hardhat/contracts/royalty/RoyaltySubmission.sol\":1546:1983  function updateRoyaltyIfAdmin(... */\n      pop\n      pop\n      pop\n      pop\n      jump\t// out\n        /* \"hardhat/contracts/royalty/RoyaltySubmission.sol\":1016:1180  function updateRoyaltyFeeLimit(... */\n    tag_53:\n        /* \"@openzeppelin/contracts/access/Ownable.sol\":1094:1107  _checkOwner() */\n      tag_123\n        /* \"@openzeppelin/contracts/access/Ownable.sol\":1094:1105  _checkOwner */\n      tag_70\n        /* \"@openzeppelin/contracts/access/Ownable.sol\":1094:1107  _checkOwner() */\n      jump\t// in\n    tag_123:\n        /* \"hardhat/contracts/royalty/RoyaltySubmission.sol\":1125:1132  royalty */\n      immutable(\"0x1cca6d2cec39a0e1e2f69c2ebe2dc3f8c1e03db413c5d1c3e31cdca41ddbc4f2\")\n        /* \"hardhat/contracts/royalty/RoyaltySubmission.sol\":1116:1155  IRoyalty(royalty).updateRoyaltyFeeLimit */\n      0xffffffffffffffffffffffffffffffffffffffff\n      and\n      0xb9223c9d\n        /* \"hardhat/contracts/royalty/RoyaltySubmission.sol\":1156:1172  _royaltyFeeLimit */\n      dup3\n        /* \"hardhat/contracts/royalty/RoyaltySubmission.sol\":1116:1173  IRoyalty(royalty).updateRoyaltyFeeLimit(_royaltyFeeLimit) */\n      mload(0x40)\n      dup3\n      0xffffffff\n      and\n      0xe0\n      shl\n      dup2\n      mstore\n      0x04\n      add\n      tag_125\n      swap2\n      swap1\n      tag_126\n      jump\t// in\n    tag_125:\n      0x00\n      mload(0x40)\n      dup1\n      dup4\n      sub\n      dup2\n      0x00\n      dup8\n      dup1\n      extcodesize\n      iszero\n      dup1\n      iszero\n      tag_127\n      jumpi\n      0x00\n      dup1\n      revert\n    tag_127:\n      pop\n      gas\n      call\n      iszero\n      dup1\n      iszero\n      tag_129\n      jumpi\n      returndatasize\n      0x00\n      dup1\n      returndatacopy\n      revert(0x00, returndatasize)\n    tag_129:\n      pop\n      pop\n      pop\n      pop\n        /* \"hardhat/contracts/royalty/RoyaltySubmission.sol\":1016:1180  function updateRoyaltyFeeLimit(... */\n      pop\n      jump\t// out\n        /* \"hardhat/contracts/royalty/RoyaltySubmission.sol\":2561:2972  function updateRoyaltyIfSetter(... */\n    tag_56:\n        /* \"hardhat/contracts/royalty/RoyaltySubmission.sol\":2717:2738  address currentSetter */\n      0x00\n        /* \"hardhat/contracts/royalty/RoyaltySubmission.sol\":2755:2762  royalty */\n      immutable(\"0x1cca6d2cec39a0e1e2f69c2ebe2dc3f8c1e03db413c5d1c3e31cdca41ddbc4f2\")\n        /* \"hardhat/contracts/royalty/RoyaltySubmission.sol\":2746:2785  IRoyalty(royalty).royaltyInfoCollection */\n      0xffffffffffffffffffffffffffffffffffffffff\n      and\n      0x2adc45e8\n        /* \"hardhat/contracts/royalty/RoyaltySubmission.sol\":2799:2809  collection */\n      dup7\n        /* \"hardhat/contracts/royalty/RoyaltySubmission.sol\":2746:2819  IRoyalty(royalty).royaltyInfoCollection(... */\n      mload(0x40)\n      dup3\n      0xffffffff\n      and\n      0xe0\n      shl\n      dup2\n      mstore\n      0x04\n      add\n      tag_131\n      swap2\n      swap1\n      tag_31\n      jump\t// in\n    tag_131:\n      0x60\n      mload(0x40)\n      dup1\n      dup4\n      sub\n      dup2\n      dup7\n      gas\n      staticcall\n      iszero\n      dup1\n      iszero\n      tag_133\n      jumpi\n      returndatasize\n      0x00\n      dup1\n      returndatacopy\n      revert(0x00, returndatasize)\n    tag_133:\n      pop\n      pop\n      pop\n      pop\n      mload(0x40)\n      returndatasize\n      not(0x1f)\n      0x1f\n      dup3\n      add\n      and\n      dup3\n      add\n      dup1\n      0x40\n      mstore\n      pop\n      dup2\n      add\n      swap1\n      tag_134\n      swap2\n      swap1\n      tag_135\n      jump\t// in\n    tag_134:\n        /* \"hardhat/contracts/royalty/RoyaltySubmission.sol\":2716:2819  (address currentSetter, , ) = IRoyalty(royalty).royaltyInfoCollection(... */\n      pop\n      pop\n      swap1\n      pop\n        /* \"hardhat/contracts/royalty/RoyaltySubmission.sol\":2852:2865  currentSetter */\n      dup1\n        /* \"hardhat/contracts/royalty/RoyaltySubmission.sol\":2838:2865  msg.sender == currentSetter */\n      0xffffffffffffffffffffffffffffffffffffffff\n      and\n        /* \"hardhat/contracts/royalty/RoyaltySubmission.sol\":2838:2848  msg.sender */\n      caller\n        /* \"hardhat/contracts/royalty/RoyaltySubmission.sol\":2838:2865  msg.sender == currentSetter */\n      0xffffffffffffffffffffffffffffffffffffffff\n      and\n      eq\n        /* \"hardhat/contracts/royalty/RoyaltySubmission.sol\":2830:2884  require(msg.sender == currentSetter, \"Not the Setter\") */\n      tag_136\n      jumpi\n      mload(0x40)\n      0x08c379a000000000000000000000000000000000000000000000000000000000\n      dup2\n      mstore\n      0x04\n      add\n      tag_137\n      swap1\n      tag_138\n      jump\t// in\n    tag_137:\n      mload(0x40)\n      dup1\n      swap2\n      sub\n      swap1\n      revert\n    tag_136:\n        /* \"hardhat/contracts/royalty/RoyaltySubmission.sol\":2904:2911  royalty */\n      immutable(\"0x1cca6d2cec39a0e1e2f69c2ebe2dc3f8c1e03db413c5d1c3e31cdca41ddbc4f2\")\n        /* \"hardhat/contracts/royalty/RoyaltySubmission.sol\":2895:2930  IRoyalty(royalty).updateRoyaltyInfo */\n      0xffffffffffffffffffffffffffffffffffffffff\n      and\n      0x0eecf97b\n        /* \"hardhat/contracts/royalty/RoyaltySubmission.sol\":2931:2941  collection */\n      dup7\n        /* \"hardhat/contracts/royalty/RoyaltySubmission.sol\":2943:2949  setter */\n      dup7\n        /* \"hardhat/contracts/royalty/RoyaltySubmission.sol\":2951:2959  receiver */\n      dup7\n        /* \"hardhat/contracts/royalty/RoyaltySubmission.sol\":2961:2964  fee */\n      dup7\n        /* \"hardhat/contracts/royalty/RoyaltySubmission.sol\":2895:2965  IRoyalty(royalty).updateRoyaltyInfo(collection, setter, receiver, fee) */\n      mload(0x40)\n      dup6\n      0xffffffff\n      and\n      0xe0\n      shl\n      dup2\n      mstore\n      0x04\n      add\n      tag_139\n      swap5\n      swap4\n      swap3\n      swap2\n      swap1\n      tag_73\n      jump\t// in\n    tag_139:\n      0x00\n      mload(0x40)\n      dup1\n      dup4\n      sub\n      dup2\n      0x00\n      dup8\n      dup1\n      extcodesize\n      iszero\n      dup1\n      iszero\n      tag_140\n      jumpi\n      0x00\n      dup1\n      revert\n    tag_140:\n      pop\n      gas\n      call\n      iszero\n      dup1\n      iszero\n      tag_142\n      jumpi\n      returndatasize\n      0x00\n      dup1\n      returndatacopy\n      revert(0x00, returndatasize)\n    tag_142:\n      pop\n      pop\n      pop\n      pop\n        /* \"hardhat/contracts/royalty/RoyaltySubmission.sol\":2706:2972  {... */\n      pop\n        /* \"hardhat/contracts/royalty/RoyaltySubmission.sol\":2561:2972  function updateRoyaltyIfSetter(... */\n      pop\n      pop\n      pop\n      pop\n      jump\t// out\n        /* \"hardhat/contracts/royalty/RoyaltySubmission.sol\":412:467  bytes4 public constant INTERFACE_ID_ERC721 = 0x80ac58cd */\n    tag_58:\n        /* \"hardhat/contracts/royalty/RoyaltySubmission.sol\":457:467  0x80ac58cd */\n      0x80ac58cd\n        /* \"hardhat/contracts/royalty/RoyaltySubmission.sol\":412:467  bytes4 public constant INTERFACE_ID_ERC721 = 0x80ac58cd */\n      0xe0\n      shl\n      dup2\n      jump\t// out\n        /* \"@openzeppelin/contracts/access/Ownable.sol\":2081:2279  function transferOwnership(address newOwner) public virtual onlyOwner {... */\n    tag_62:\n        /* \"@openzeppelin/contracts/access/Ownable.sol\":1094:1107  _checkOwner() */\n      tag_144\n        /* \"@openzeppelin/contracts/access/Ownable.sol\":1094:1105  _checkOwner */\n      tag_70\n        /* \"@openzeppelin/contracts/access/Ownable.sol\":1094:1107  _checkOwner() */\n      jump\t// in\n    tag_144:\n        /* \"@openzeppelin/contracts/access/Ownable.sol\":2189:2190  0 */\n      0x00\n        /* \"@openzeppelin/contracts/access/Ownable.sol\":2169:2191  newOwner != address(0) */\n      0xffffffffffffffffffffffffffffffffffffffff\n      and\n        /* \"@openzeppelin/contracts/access/Ownable.sol\":2169:2177  newOwner */\n      dup2\n        /* \"@openzeppelin/contracts/access/Ownable.sol\":2169:2191  newOwner != address(0) */\n      0xffffffffffffffffffffffffffffffffffffffff\n      and\n      sub\n        /* \"@openzeppelin/contracts/access/Ownable.sol\":2161:2234  require(newOwner != address(0), \"Ownable: new owner is the zero address\") */\n      tag_146\n      jumpi\n      mload(0x40)\n      0x08c379a000000000000000000000000000000000000000000000000000000000\n      dup2\n      mstore\n      0x04\n      add\n      tag_147\n      swap1\n      tag_148\n      jump\t// in\n    tag_147:\n      mload(0x40)\n      dup1\n      swap2\n      sub\n      swap1\n      revert\n    tag_146:\n        /* \"@openzeppelin/contracts/access/Ownable.sol\":2244:2272  _transferOwnership(newOwner) */\n      tag_149\n        /* \"@openzeppelin/contracts/access/Ownable.sol\":2263:2271  newOwner */\n      dup2\n        /* \"@openzeppelin/contracts/access/Ownable.sol\":2244:2262  _transferOwnership */\n      tag_106\n        /* \"@openzeppelin/contracts/access/Ownable.sol\":2244:2272  _transferOwnership(newOwner) */\n      jump\t// in\n    tag_149:\n        /* \"@openzeppelin/contracts/access/Ownable.sol\":2081:2279  function transferOwnership(address newOwner) public virtual onlyOwner {... */\n      pop\n      jump\t// out\n        /* \"hardhat/contracts/royalty/RoyaltySubmission.sol\":3333:4206  function checkForCollectionSubmission(... */\n    tag_65:\n        /* \"hardhat/contracts/royalty/RoyaltySubmission.sol\":3428:3435  address */\n      0x00\n        /* \"hardhat/contracts/royalty/RoyaltySubmission.sol\":3437:3442  uint8 */\n      dup1\n        /* \"hardhat/contracts/royalty/RoyaltySubmission.sol\":3455:3476  address currentSetter */\n      0x00\n        /* \"hardhat/contracts/royalty/RoyaltySubmission.sol\":3493:3500  royalty */\n      immutable(\"0x1cca6d2cec39a0e1e2f69c2ebe2dc3f8c1e03db413c5d1c3e31cdca41ddbc4f2\")\n        /* \"hardhat/contracts/royalty/RoyaltySubmission.sol\":3484:3523  IRoyalty(royalty).royaltyInfoCollection */\n      0xffffffffffffffffffffffffffffffffffffffff\n      and\n      0x2adc45e8\n        /* \"hardhat/contracts/royalty/RoyaltySubmission.sol\":3537:3547  collection */\n      dup6\n        /* \"hardhat/contracts/royalty/RoyaltySubmission.sol\":3484:3557  IRoyalty(royalty).royaltyInfoCollection(... */\n      mload(0x40)\n      dup3\n      0xffffffff\n      and\n      0xe0\n      shl\n      dup2\n      mstore\n      0x04\n      add\n      tag_151\n      swap2\n      swap1\n      tag_31\n      jump\t// in\n    tag_151:\n      0x60\n      mload(0x40)\n      dup1\n      dup4\n      sub\n      dup2\n      dup7\n      gas\n      staticcall\n      iszero\n      dup1\n      iszero\n      tag_153\n      jumpi\n      returndatasize\n      0x00\n      dup1\n      returndatacopy\n      revert(0x00, returndatasize)\n    tag_153:\n      pop\n      pop\n      pop\n      pop\n      mload(0x40)\n      returndatasize\n      not(0x1f)\n      0x1f\n      dup3\n      add\n      and\n      dup3\n      add\n      dup1\n      0x40\n      mstore\n      pop\n      dup2\n      add\n      swap1\n      tag_154\n      swap2\n      swap1\n      tag_135\n      jump\t// in\n    tag_154:\n        /* \"hardhat/contracts/royalty/RoyaltySubmission.sol\":3454:3557  (address currentSetter, , ) = IRoyalty(royalty).royaltyInfoCollection(... */\n      pop\n      pop\n      swap1\n      pop\n        /* \"hardhat/contracts/royalty/RoyaltySubmission.sol\":3597:3598  0 */\n      0x00\n        /* \"hardhat/contracts/royalty/RoyaltySubmission.sol\":3572:3599  currentSetter != address(0) */\n      0xffffffffffffffffffffffffffffffffffffffff\n      and\n        /* \"hardhat/contracts/royalty/RoyaltySubmission.sol\":3572:3585  currentSetter */\n      dup2\n        /* \"hardhat/contracts/royalty/RoyaltySubmission.sol\":3572:3599  currentSetter != address(0) */\n      0xffffffffffffffffffffffffffffffffffffffff\n      and\n      eq\n        /* \"hardhat/contracts/royalty/RoyaltySubmission.sol\":3568:3651  if (currentSetter != address(0)) {... */\n      tag_155\n      jumpi\n        /* \"hardhat/contracts/royalty/RoyaltySubmission.sol\":3623:3636  currentSetter */\n      dup1\n        /* \"hardhat/contracts/royalty/RoyaltySubmission.sol\":3638:3639  0 */\n      0x00\n        /* \"hardhat/contracts/royalty/RoyaltySubmission.sol\":3615:3640  return (currentSetter, 0) */\n      swap3\n      pop\n      swap3\n      pop\n      pop\n      jump(tag_150)\n        /* \"hardhat/contracts/royalty/RoyaltySubmission.sol\":3568:3651  if (currentSetter != address(0)) {... */\n    tag_155:\n        /* \"hardhat/contracts/royalty/RoyaltySubmission.sol\":3685:3695  collection */\n      dup4\n        /* \"hardhat/contracts/royalty/RoyaltySubmission.sol\":3677:3714  IERC165(collection).supportsInterface */\n      0xffffffffffffffffffffffffffffffffffffffff\n      and\n      0x01ffc9a7\n        /* \"hardhat/contracts/royalty/RoyaltySubmission.sol\":637:647  0x2a55205a */\n      0x2a55205a\n        /* \"hardhat/contracts/royalty/RoyaltySubmission.sol\":3715:3735  INTERFACE_ID_ERC2981 */\n      0xe0\n      shl\n        /* \"hardhat/contracts/royalty/RoyaltySubmission.sol\":3677:3736  IERC165(collection).supportsInterface(INTERFACE_ID_ERC2981) */\n      mload(0x40)\n      dup3\n      0xffffffff\n      and\n      0xe0\n      shl\n      dup2\n      mstore\n      0x04\n      add\n      tag_156\n      swap2\n      swap1\n      tag_35\n      jump\t// in\n    tag_156:\n      0x20\n      mload(0x40)\n      dup1\n      dup4\n      sub\n      dup2\n      dup7\n      gas\n      staticcall\n      swap3\n      pop\n      pop\n      pop\n      dup1\n      iszero\n      tag_157\n      jumpi\n      pop\n      mload(0x40)\n      returndatasize\n      not(0x1f)\n      0x1f\n      dup3\n      add\n      and\n      dup3\n      add\n      dup1\n      0x40\n      mstore\n      pop\n      dup2\n      add\n      swap1\n      tag_158\n      swap2\n      swap1\n      tag_89\n      jump\t// in\n    tag_158:\n      0x01\n    tag_157:\n        /* \"hardhat/contracts/royalty/RoyaltySubmission.sol\":3661:3887  try... */\n      iszero\n      tag_163\n      jumpi\n        /* \"hardhat/contracts/royalty/RoyaltySubmission.sol\":3795:3811  interfaceSupport */\n      dup1\n        /* \"hardhat/contracts/royalty/RoyaltySubmission.sol\":3791:3868  if (interfaceSupport) {... */\n      iszero\n      tag_164\n      jumpi\n        /* \"hardhat/contracts/royalty/RoyaltySubmission.sol\":3847:3848  0 */\n      0x00\n        /* \"hardhat/contracts/royalty/RoyaltySubmission.sol\":3851:3852  1 */\n      0x01\n        /* \"hardhat/contracts/royalty/RoyaltySubmission.sol\":3831:3853  return (address(0), 1) */\n      swap4\n      pop\n      swap4\n      pop\n      pop\n      pop\n      jump(tag_150)\n        /* \"hardhat/contracts/royalty/RoyaltySubmission.sol\":3791:3868  if (interfaceSupport) {... */\n    tag_164:\n        /* \"hardhat/contracts/royalty/RoyaltySubmission.sol\":3745:3878  returns (bool interfaceSupport) {... */\n      pop\n        /* \"hardhat/contracts/royalty/RoyaltySubmission.sol\":3661:3887  try... */\n    tag_163:\n        /* \"hardhat/contracts/royalty/RoyaltySubmission.sol\":3910:3920  collection */\n      dup4\n        /* \"hardhat/contracts/royalty/RoyaltySubmission.sol\":3901:3927  IOwnable(collection).owner */\n      0xffffffffffffffffffffffffffffffffffffffff\n      and\n      0x8da5cb5b\n        /* \"hardhat/contracts/royalty/RoyaltySubmission.sol\":3901:3929  IOwnable(collection).owner() */\n      mload(0x40)\n      dup2\n      0xffffffff\n      and\n      0xe0\n      shl\n      dup2\n      mstore\n      0x04\n      add\n      0x20\n      mload(0x40)\n      dup1\n      dup4\n      sub\n      dup2\n      dup7\n      gas\n      staticcall\n      swap3\n      pop\n      pop\n      pop\n      dup1\n      iszero\n      tag_165\n      jumpi\n      pop\n      mload(0x40)\n      returndatasize\n      not(0x1f)\n      0x1f\n      dup3\n      add\n      and\n      dup3\n      add\n      dup1\n      0x40\n      mstore\n      pop\n      dup2\n      add\n      swap1\n      tag_166\n      swap2\n      swap1\n      tag_96\n      jump\t// in\n    tag_166:\n      0x01\n    tag_165:\n        /* \"hardhat/contracts/royalty/RoyaltySubmission.sol\":3897:4200  try IOwnable(collection).owner() returns (address setter) {... */\n      tag_167\n      jumpi\n        /* \"hardhat/contracts/royalty/RoyaltySubmission.sol\":4032:4042  collection */\n      dup4\n        /* \"hardhat/contracts/royalty/RoyaltySubmission.sol\":4023:4049  IOwnable(collection).admin */\n      0xffffffffffffffffffffffffffffffffffffffff\n      and\n      0xf851a440\n        /* \"hardhat/contracts/royalty/RoyaltySubmission.sol\":4023:4051  IOwnable(collection).admin() */\n      mload(0x40)\n      dup2\n      0xffffffff\n      and\n      0xe0\n      shl\n      dup2\n      mstore\n      0x04\n      add\n      0x20\n      mload(0x40)\n      dup1\n      dup4\n      sub\n      dup2\n      dup7\n      gas\n      staticcall\n      swap3\n      pop\n      pop\n      pop\n      dup1\n      iszero\n      tag_171\n      jumpi\n      pop\n      mload(0x40)\n      returndatasize\n      not(0x1f)\n      0x1f\n      dup3\n      add\n      and\n      dup3\n      add\n      dup1\n      0x40\n      mstore\n      pop\n      dup2\n      add\n      swap1\n      tag_172\n      swap2\n      swap1\n      tag_96\n      jump\t// in\n    tag_172:\n      0x01\n    tag_171:\n        /* \"hardhat/contracts/royalty/RoyaltySubmission.sol\":4019:4190  try IOwnable(collection).admin() returns (address setter) {... */\n      tag_173\n      jumpi\n        /* \"hardhat/contracts/royalty/RoyaltySubmission.sol\":4169:4170  0 */\n      0x00\n        /* \"hardhat/contracts/royalty/RoyaltySubmission.sol\":4173:4174  4 */\n      0x04\n        /* \"hardhat/contracts/royalty/RoyaltySubmission.sol\":4153:4175  return (address(0), 4) */\n      swap3\n      pop\n      swap3\n      pop\n      pop\n      jump(tag_150)\n        /* \"hardhat/contracts/royalty/RoyaltySubmission.sol\":4019:4190  try IOwnable(collection).admin() returns (address setter) {... */\n    tag_173:\n        /* \"hardhat/contracts/royalty/RoyaltySubmission.sol\":4103:4109  setter */\n      dup1\n        /* \"hardhat/contracts/royalty/RoyaltySubmission.sol\":4111:4112  3 */\n      0x03\n        /* \"hardhat/contracts/royalty/RoyaltySubmission.sol\":4095:4113  return (setter, 3) */\n      swap4\n      pop\n      swap4\n      pop\n      pop\n      pop\n      jump(tag_150)\n        /* \"hardhat/contracts/royalty/RoyaltySubmission.sol\":3897:4200  try IOwnable(collection).owner() returns (address setter) {... */\n    tag_167:\n        /* \"hardhat/contracts/royalty/RoyaltySubmission.sol\":3977:3983  setter */\n      dup1\n        /* \"hardhat/contracts/royalty/RoyaltySubmission.sol\":3985:3986  2 */\n      0x02\n        /* \"hardhat/contracts/royalty/RoyaltySubmission.sol\":3969:3987  return (setter, 2) */\n      swap4\n      pop\n      swap4\n      pop\n      pop\n      pop\n        /* \"hardhat/contracts/royalty/RoyaltySubmission.sol\":3333:4206  function checkForCollectionSubmission(... */\n    tag_150:\n      swap2\n      pop\n      swap2\n      jump\t// out\n        /* \"@openzeppelin/contracts/access/Ownable.sol\":1359:1489  function _checkOwner() internal view virtual {... */\n    tag_70:\n        /* \"@openzeppelin/contracts/access/Ownable.sol\":1433:1445  _msgSender() */\n      tag_180\n        /* \"@openzeppelin/contracts/access/Ownable.sol\":1433:1443  _msgSender */\n      tag_181\n        /* \"@openzeppelin/contracts/access/Ownable.sol\":1433:1445  _msgSender() */\n      jump\t// in\n    tag_180:\n        /* \"@openzeppelin/contracts/access/Ownable.sol\":1422:1445  owner() == _msgSender() */\n      0xffffffffffffffffffffffffffffffffffffffff\n      and\n        /* \"@openzeppelin/contracts/access/Ownable.sol\":1422:1429  owner() */\n      tag_182\n        /* \"@openzeppelin/contracts/access/Ownable.sol\":1422:1427  owner */\n      tag_42\n        /* \"@openzeppelin/contracts/access/Ownable.sol\":1422:1429  owner() */\n      jump\t// in\n    tag_182:\n        /* \"@openzeppelin/contracts/access/Ownable.sol\":1422:1445  owner() == _msgSender() */\n      0xffffffffffffffffffffffffffffffffffffffff\n      and\n      eq\n        /* \"@openzeppelin/contracts/access/Ownable.sol\":1414:1482  require(owner() == _msgSender(), \"Ownable: caller is not the owner\") */\n      tag_183\n      jumpi\n      mload(0x40)\n      0x08c379a000000000000000000000000000000000000000000000000000000000\n      dup2\n      mstore\n      0x04\n      add\n      tag_184\n      swap1\n      tag_185\n      jump\t// in\n    tag_184:\n      mload(0x40)\n      dup1\n      swap2\n      sub\n      swap1\n      revert\n    tag_183:\n        /* \"@openzeppelin/contracts/access/Ownable.sol\":1359:1489  function _checkOwner() internal view virtual {... */\n      jump\t// out\n        /* \"hardhat/contracts/royalty/RoyaltySubmission.sol\":4267:4933  function _updateRoyaltyInfoIfOwnerOrAdmin(... */\n    tag_101:\n        /* \"hardhat/contracts/royalty/RoyaltySubmission.sol\":4434:4455  address currentSetter */\n      0x00\n        /* \"hardhat/contracts/royalty/RoyaltySubmission.sol\":4472:4479  royalty */\n      immutable(\"0x1cca6d2cec39a0e1e2f69c2ebe2dc3f8c1e03db413c5d1c3e31cdca41ddbc4f2\")\n        /* \"hardhat/contracts/royalty/RoyaltySubmission.sol\":4463:4502  IRoyalty(royalty).royaltyInfoCollection */\n      0xffffffffffffffffffffffffffffffffffffffff\n      and\n      0x2adc45e8\n        /* \"hardhat/contracts/royalty/RoyaltySubmission.sol\":4516:4526  collection */\n      dup7\n        /* \"hardhat/contracts/royalty/RoyaltySubmission.sol\":4463:4536  IRoyalty(royalty).royaltyInfoCollection(... */\n      mload(0x40)\n      dup3\n      0xffffffff\n      and\n      0xe0\n      shl\n      dup2\n      mstore\n      0x04\n      add\n      tag_187\n      swap2\n      swap1\n      tag_31\n      jump\t// in\n    tag_187:\n      0x60\n      mload(0x40)\n      dup1\n      dup4\n      sub\n      dup2\n      dup7\n      gas\n      staticcall\n      iszero\n      dup1\n      iszero\n      tag_189\n      jumpi\n      returndatasize\n      0x00\n      dup1\n      returndatacopy\n      revert(0x00, returndatasize)\n    tag_189:\n      pop\n      pop\n      pop\n      pop\n      mload(0x40)\n      returndatasize\n      not(0x1f)\n      0x1f\n      dup3\n      add\n      and\n      dup3\n      add\n      dup1\n      0x40\n      mstore\n      pop\n      dup2\n      add\n      swap1\n      tag_190\n      swap2\n      swap1\n      tag_135\n      jump\t// in\n    tag_190:\n        /* \"hardhat/contracts/royalty/RoyaltySubmission.sol\":4433:4536  (address currentSetter, , ) = IRoyalty(royalty).royaltyInfoCollection(... */\n      pop\n      pop\n      swap1\n      pop\n        /* \"hardhat/contracts/royalty/RoyaltySubmission.sol\":4579:4580  0 */\n      0x00\n        /* \"hardhat/contracts/royalty/RoyaltySubmission.sol\":4554:4581  currentSetter == address(0) */\n      0xffffffffffffffffffffffffffffffffffffffff\n      and\n        /* \"hardhat/contracts/royalty/RoyaltySubmission.sol\":4554:4567  currentSetter */\n      dup2\n        /* \"hardhat/contracts/royalty/RoyaltySubmission.sol\":4554:4581  currentSetter == address(0) */\n      0xffffffffffffffffffffffffffffffffffffffff\n      and\n      eq\n        /* \"hardhat/contracts/royalty/RoyaltySubmission.sol\":4546:4611  require(currentSetter == address(0), \"Already Regist collection\") */\n      tag_191\n      jumpi\n      mload(0x40)\n      0x08c379a000000000000000000000000000000000000000000000000000000000\n      dup2\n      mstore\n      0x04\n      add\n      tag_192\n      swap1\n      tag_193\n      jump\t// in\n    tag_192:\n      mload(0x40)\n      dup1\n      swap2\n      sub\n      swap1\n      revert\n    tag_191:\n        /* \"hardhat/contracts/royalty/RoyaltySubmission.sol\":4652:4662  collection */\n      dup5\n        /* \"hardhat/contracts/royalty/RoyaltySubmission.sol\":4644:4681  IERC165(collection).supportsInterface */\n      0xffffffffffffffffffffffffffffffffffffffff\n      and\n      0x01ffc9a7\n        /* \"hardhat/contracts/royalty/RoyaltySubmission.sol\":457:467  0x80ac58cd */\n      0x80ac58cd\n        /* \"hardhat/contracts/royalty/RoyaltySubmission.sol\":4682:4701  INTERFACE_ID_ERC721 */\n      0xe0\n      shl\n        /* \"hardhat/contracts/royalty/RoyaltySubmission.sol\":4644:4702  IERC165(collection).supportsInterface(INTERFACE_ID_ERC721) */\n      mload(0x40)\n      dup3\n      0xffffffff\n      and\n      0xe0\n      shl\n      dup2\n      mstore\n      0x04\n      add\n      tag_194\n      swap2\n      swap1\n      tag_35\n      jump\t// in\n    tag_194:\n      0x20\n      mload(0x40)\n      dup1\n      dup4\n      sub\n      dup2\n      dup7\n      gas\n      staticcall\n      iszero\n      dup1\n      iszero\n      tag_196\n      jumpi\n      returndatasize\n      0x00\n      dup1\n      returndatacopy\n      revert(0x00, returndatasize)\n    tag_196:\n      pop\n      pop\n      pop\n      pop\n      mload(0x40)\n      returndatasize\n      not(0x1f)\n      0x1f\n      dup3\n      add\n      and\n      dup3\n      add\n      dup1\n      0x40\n      mstore\n      pop\n      dup2\n      add\n      swap1\n      tag_197\n      swap2\n      swap1\n      tag_89\n      jump\t// in\n    tag_197:\n        /* \"hardhat/contracts/royalty/RoyaltySubmission.sol\":4644:4781  IERC165(collection).supportsInterface(INTERFACE_ID_ERC721) ||... */\n      dup1\n      tag_198\n      jumpi\n      pop\n        /* \"hardhat/contracts/royalty/RoyaltySubmission.sol\":4730:4740  collection */\n      dup5\n        /* \"hardhat/contracts/royalty/RoyaltySubmission.sol\":4722:4759  IERC165(collection).supportsInterface */\n      0xffffffffffffffffffffffffffffffffffffffff\n      and\n      0x01ffc9a7\n        /* \"hardhat/contracts/royalty/RoyaltySubmission.sol\":547:557  0xd9b67a26 */\n      0xd9b67a26\n        /* \"hardhat/contracts/royalty/RoyaltySubmission.sol\":4760:4780  INTERFACE_ID_ERC1155 */\n      0xe0\n      shl\n        /* \"hardhat/contracts/royalty/RoyaltySubmission.sol\":4722:4781  IERC165(collection).supportsInterface(INTERFACE_ID_ERC1155) */\n      mload(0x40)\n      dup3\n      0xffffffff\n      and\n      0xe0\n      shl\n      dup2\n      mstore\n      0x04\n      add\n      tag_199\n      swap2\n      swap1\n      tag_35\n      jump\t// in\n    tag_199:\n      0x20\n      mload(0x40)\n      dup1\n      dup4\n      sub\n      dup2\n      dup7\n      gas\n      staticcall\n      iszero\n      dup1\n      iszero\n      tag_201\n      jumpi\n      returndatasize\n      0x00\n      dup1\n      returndatacopy\n      revert(0x00, returndatasize)\n    tag_201:\n      pop\n      pop\n      pop\n      pop\n      mload(0x40)\n      returndatasize\n      not(0x1f)\n      0x1f\n      dup3\n      add\n      and\n      dup3\n      add\n      dup1\n      0x40\n      mstore\n      pop\n      dup2\n      add\n      swap1\n      tag_202\n      swap2\n      swap1\n      tag_89\n      jump\t// in\n    tag_202:\n        /* \"hardhat/contracts/royalty/RoyaltySubmission.sol\":4644:4781  IERC165(collection).supportsInterface(INTERFACE_ID_ERC721) ||... */\n    tag_198:\n        /* \"hardhat/contracts/royalty/RoyaltySubmission.sol\":4622:4845  require(... */\n      tag_203\n      jumpi\n      mload(0x40)\n      0x08c379a000000000000000000000000000000000000000000000000000000000\n      dup2\n      mstore\n      0x04\n      add\n      tag_204\n      swap1\n      tag_205\n      jump\t// in\n    tag_204:\n      mload(0x40)\n      dup1\n      swap2\n      sub\n      swap1\n      revert\n    tag_203:\n        /* \"hardhat/contracts/royalty/RoyaltySubmission.sol\":4865:4872  royalty */\n      immutable(\"0x1cca6d2cec39a0e1e2f69c2ebe2dc3f8c1e03db413c5d1c3e31cdca41ddbc4f2\")\n        /* \"hardhat/contracts/royalty/RoyaltySubmission.sol\":4856:4891  IRoyalty(royalty).updateRoyaltyInfo */\n      0xffffffffffffffffffffffffffffffffffffffff\n      and\n      0x0eecf97b\n        /* \"hardhat/contracts/royalty/RoyaltySubmission.sol\":4892:4902  collection */\n      dup7\n        /* \"hardhat/contracts/royalty/RoyaltySubmission.sol\":4904:4910  setter */\n      dup7\n        /* \"hardhat/contracts/royalty/RoyaltySubmission.sol\":4912:4920  receiver */\n      dup7\n        /* \"hardhat/contracts/royalty/RoyaltySubmission.sol\":4922:4925  fee */\n      dup7\n        /* \"hardhat/contracts/royalty/RoyaltySubmission.sol\":4856:4926  IRoyalty(royalty).updateRoyaltyInfo(collection, setter, receiver, fee) */\n      mload(0x40)\n      dup6\n      0xffffffff\n      and\n      0xe0\n      shl\n      dup2\n      mstore\n      0x04\n      add\n      tag_206\n      swap5\n      swap4\n      swap3\n      swap2\n      swap1\n      tag_73\n      jump\t// in\n    tag_206:\n      0x00\n      mload(0x40)\n      dup1\n      dup4\n      sub\n      dup2\n      0x00\n      dup8\n      dup1\n      extcodesize\n      iszero\n      dup1\n      iszero\n      tag_207\n      jumpi\n      0x00\n      dup1\n      revert\n    tag_207:\n      pop\n      gas\n      call\n      iszero\n      dup1\n      iszero\n      tag_209\n      jumpi\n      returndatasize\n      0x00\n      dup1\n      returndatacopy\n      revert(0x00, returndatasize)\n    tag_209:\n      pop\n      pop\n      pop\n      pop\n        /* \"hardhat/contracts/royalty/RoyaltySubmission.sol\":4423:4933  {... */\n      pop\n        /* \"hardhat/contracts/royalty/RoyaltySubmission.sol\":4267:4933  function _updateRoyaltyInfoIfOwnerOrAdmin(... */\n      pop\n      pop\n      pop\n      pop\n      jump\t// out\n        /* \"@openzeppelin/contracts/access/Ownable.sol\":2433:2620  function _transferOwnership(address newOwner) internal virtual {... */\n    tag_106:\n        /* \"@openzeppelin/contracts/access/Ownable.sol\":2506:2522  address oldOwner */\n      0x00\n        /* \"@openzeppelin/contracts/access/Ownable.sol\":2525:2531  _owner */\n      dup1\n      0x00\n      swap1\n      sload\n      swap1\n      0x0100\n      exp\n      swap1\n      div\n      0xffffffffffffffffffffffffffffffffffffffff\n      and\n        /* \"@openzeppelin/contracts/access/Ownable.sol\":2506:2531  address oldOwner = _owner */\n      swap1\n      pop\n        /* \"@openzeppelin/contracts/access/Ownable.sol\":2550:2558  newOwner */\n      dup2\n        /* \"@openzeppelin/contracts/access/Ownable.sol\":2541:2547  _owner */\n      0x00\n      dup1\n        /* \"@openzeppelin/contracts/access/Ownable.sol\":2541:2558  _owner = newOwner */\n      0x0100\n      exp\n      dup2\n      sload\n      dup2\n      0xffffffffffffffffffffffffffffffffffffffff\n      mul\n      not\n      and\n      swap1\n      dup4\n      0xffffffffffffffffffffffffffffffffffffffff\n      and\n      mul\n      or\n      swap1\n      sstore\n      pop\n        /* \"@openzeppelin/contracts/access/Ownable.sol\":2604:2612  newOwner */\n      dup2\n        /* \"@openzeppelin/contracts/access/Ownable.sol\":2573:2613  OwnershipTransferred(oldOwner, newOwner) */\n      0xffffffffffffffffffffffffffffffffffffffff\n      and\n        /* \"@openzeppelin/contracts/access/Ownable.sol\":2594:2602  oldOwner */\n      dup2\n        /* \"@openzeppelin/contracts/access/Ownable.sol\":2573:2613  OwnershipTransferred(oldOwner, newOwner) */\n      0xffffffffffffffffffffffffffffffffffffffff\n      and\n      0x8be0079c531659141344cd1fd0a4f28419497f9722a3daafe3b4186f6b6457e0\n      mload(0x40)\n      mload(0x40)\n      dup1\n      swap2\n      sub\n      swap1\n      log3\n        /* \"@openzeppelin/contracts/access/Ownable.sol\":2496:2620  {... */\n      pop\n        /* \"@openzeppelin/contracts/access/Ownable.sol\":2433:2620  function _transferOwnership(address newOwner) internal virtual {... */\n      pop\n      jump\t// out\n        /* \"@openzeppelin/contracts/utils/Context.sol\":640:736  function _msgSender() internal view virtual returns (address) {... */\n    tag_181:\n        /* \"@openzeppelin/contracts/utils/Context.sol\":693:700  address */\n      0x00\n        /* \"@openzeppelin/contracts/utils/Context.sol\":719:729  msg.sender */\n      caller\n        /* \"@openzeppelin/contracts/utils/Context.sol\":712:729  return msg.sender */\n      swap1\n      pop\n        /* \"@openzeppelin/contracts/utils/Context.sol\":640:736  function _msgSender() internal view virtual returns (address) {... */\n      swap1\n      jump\t// out\n        /* \"#utility.yul\":88:205   */\n    tag_213:\n        /* \"#utility.yul\":197:198   */\n      0x00\n        /* \"#utility.yul\":194:195   */\n      dup1\n        /* \"#utility.yul\":187:199   */\n      revert\n        /* \"#utility.yul\":334:460   */\n    tag_215:\n        /* \"#utility.yul\":371:378   */\n      0x00\n        /* \"#utility.yul\":411:453   */\n      0xffffffffffffffffffffffffffffffffffffffff\n        /* \"#utility.yul\":404:409   */\n      dup3\n        /* \"#utility.yul\":400:454   */\n      and\n        /* \"#utility.yul\":389:454   */\n      swap1\n      pop\n        /* \"#utility.yul\":334:460   */\n      swap2\n      swap1\n      pop\n      jump\t// out\n        /* \"#utility.yul\":466:562   */\n    tag_216:\n        /* \"#utility.yul\":503:510   */\n      0x00\n        /* \"#utility.yul\":532:556   */\n      tag_256\n        /* \"#utility.yul\":550:555   */\n      dup3\n        /* \"#utility.yul\":532:556   */\n      tag_215\n      jump\t// in\n    tag_256:\n        /* \"#utility.yul\":521:556   */\n      swap1\n      pop\n        /* \"#utility.yul\":466:562   */\n      swap2\n      swap1\n      pop\n      jump\t// out\n        /* \"#utility.yul\":568:690   */\n    tag_217:\n        /* \"#utility.yul\":641:665   */\n      tag_258\n        /* \"#utility.yul\":659:664   */\n      dup2\n        /* \"#utility.yul\":641:665   */\n      tag_216\n      jump\t// in\n    tag_258:\n        /* \"#utility.yul\":634:639   */\n      dup2\n        /* \"#utility.yul\":631:666   */\n      eq\n        /* \"#utility.yul\":621:684   */\n      tag_259\n      jumpi\n        /* \"#utility.yul\":680:681   */\n      0x00\n        /* \"#utility.yul\":677:678   */\n      dup1\n        /* \"#utility.yul\":670:682   */\n      revert\n        /* \"#utility.yul\":621:684   */\n    tag_259:\n        /* \"#utility.yul\":568:690   */\n      pop\n      jump\t// out\n        /* \"#utility.yul\":696:835   */\n    tag_218:\n        /* \"#utility.yul\":742:747   */\n      0x00\n        /* \"#utility.yul\":780:786   */\n      dup2\n        /* \"#utility.yul\":767:787   */\n      calldataload\n        /* \"#utility.yul\":758:787   */\n      swap1\n      pop\n        /* \"#utility.yul\":796:829   */\n      tag_261\n        /* \"#utility.yul\":823:828   */\n      dup2\n        /* \"#utility.yul\":796:829   */\n      tag_217\n      jump\t// in\n    tag_261:\n        /* \"#utility.yul\":696:835   */\n      swap3\n      swap2\n      pop\n      pop\n      jump\t// out\n        /* \"#utility.yul\":841:918   */\n    tag_219:\n        /* \"#utility.yul\":878:885   */\n      0x00\n        /* \"#utility.yul\":907:912   */\n      dup2\n        /* \"#utility.yul\":896:912   */\n      swap1\n      pop\n        /* \"#utility.yul\":841:918   */\n      swap2\n      swap1\n      pop\n      jump\t// out\n        /* \"#utility.yul\":924:1046   */\n    tag_220:\n        /* \"#utility.yul\":997:1021   */\n      tag_264\n        /* \"#utility.yul\":1015:1020   */\n      dup2\n        /* \"#utility.yul\":997:1021   */\n      tag_219\n      jump\t// in\n    tag_264:\n        /* \"#utility.yul\":990:995   */\n      dup2\n        /* \"#utility.yul\":987:1022   */\n      eq\n        /* \"#utility.yul\":977:1040   */\n      tag_265\n      jumpi\n        /* \"#utility.yul\":1036:1037   */\n      0x00\n        /* \"#utility.yul\":1033:1034   */\n      dup1\n        /* \"#utility.yul\":1026:1038   */\n      revert\n        /* \"#utility.yul\":977:1040   */\n    tag_265:\n        /* \"#utility.yul\":924:1046   */\n      pop\n      jump\t// out\n        /* \"#utility.yul\":1052:1191   */\n    tag_221:\n        /* \"#utility.yul\":1098:1103   */\n      0x00\n        /* \"#utility.yul\":1136:1142   */\n      dup2\n        /* \"#utility.yul\":1123:1143   */\n      calldataload\n        /* \"#utility.yul\":1114:1143   */\n      swap1\n      pop\n        /* \"#utility.yul\":1152:1185   */\n      tag_267\n        /* \"#utility.yul\":1179:1184   */\n      dup2\n        /* \"#utility.yul\":1152:1185   */\n      tag_220\n      jump\t// in\n    tag_267:\n        /* \"#utility.yul\":1052:1191   */\n      swap3\n      swap2\n      pop\n      pop\n      jump\t// out\n        /* \"#utility.yul\":1197:1962   */\n    tag_22:\n        /* \"#utility.yul\":1283:1289   */\n      0x00\n        /* \"#utility.yul\":1291:1297   */\n      dup1\n        /* \"#utility.yul\":1299:1305   */\n      0x00\n        /* \"#utility.yul\":1307:1313   */\n      dup1\n        /* \"#utility.yul\":1356:1359   */\n      0x80\n        /* \"#utility.yul\":1344:1353   */\n      dup6\n        /* \"#utility.yul\":1335:1342   */\n      dup8\n        /* \"#utility.yul\":1331:1354   */\n      sub\n        /* \"#utility.yul\":1327:1360   */\n      slt\n        /* \"#utility.yul\":1324:1444   */\n      iszero\n      tag_269\n      jumpi\n        /* \"#utility.yul\":1363:1442   */\n      tag_270\n      tag_213\n      jump\t// in\n    tag_270:\n        /* \"#utility.yul\":1324:1444   */\n    tag_269:\n        /* \"#utility.yul\":1483:1484   */\n      0x00\n        /* \"#utility.yul\":1508:1561   */\n      tag_271\n        /* \"#utility.yul\":1553:1560   */\n      dup8\n        /* \"#utility.yul\":1544:1550   */\n      dup3\n        /* \"#utility.yul\":1533:1542   */\n      dup9\n        /* \"#utility.yul\":1529:1551   */\n      add\n        /* \"#utility.yul\":1508:1561   */\n      tag_218\n      jump\t// in\n    tag_271:\n        /* \"#utility.yul\":1498:1561   */\n      swap5\n      pop\n        /* \"#utility.yul\":1454:1571   */\n      pop\n        /* \"#utility.yul\":1610:1612   */\n      0x20\n        /* \"#utility.yul\":1636:1689   */\n      tag_272\n        /* \"#utility.yul\":1681:1688   */\n      dup8\n        /* \"#utility.yul\":1672:1678   */\n      dup3\n        /* \"#utility.yul\":1661:1670   */\n      dup9\n        /* \"#utility.yul\":1657:1679   */\n      add\n        /* \"#utility.yul\":1636:1689   */\n      tag_218\n      jump\t// in\n    tag_272:\n        /* \"#utility.yul\":1626:1689   */\n      swap4\n      pop\n        /* \"#utility.yul\":1581:1699   */\n      pop\n        /* \"#utility.yul\":1738:1740   */\n      0x40\n        /* \"#utility.yul\":1764:1817   */\n      tag_273\n        /* \"#utility.yul\":1809:1816   */\n      dup8\n        /* \"#utility.yul\":1800:1806   */\n      dup3\n        /* \"#utility.yul\":1789:1798   */\n      dup9\n        /* \"#utility.yul\":1785:1807   */\n      add\n        /* \"#utility.yul\":1764:1817   */\n      tag_218\n      jump\t// in\n    tag_273:\n        /* \"#utility.yul\":1754:1817   */\n      swap3\n      pop\n        /* \"#utility.yul\":1709:1827   */\n      pop\n        /* \"#utility.yul\":1866:1868   */\n      0x60\n        /* \"#utility.yul\":1892:1945   */\n      tag_274\n        /* \"#utility.yul\":1937:1944   */\n      dup8\n        /* \"#utility.yul\":1928:1934   */\n      dup3\n        /* \"#utility.yul\":1917:1926   */\n      dup9\n        /* \"#utility.yul\":1913:1935   */\n      add\n        /* \"#utility.yul\":1892:1945   */\n      tag_221\n      jump\t// in\n    tag_274:\n        /* \"#utility.yul\":1882:1945   */\n      swap2\n      pop\n        /* \"#utility.yul\":1837:1955   */\n      pop\n        /* \"#utility.yul\":1197:1962   */\n      swap3\n      swap6\n      swap2\n      swap5\n      pop\n      swap3\n      pop\n      jump\t// out\n        /* \"#utility.yul\":1968:2297   */\n    tag_26:\n        /* \"#utility.yul\":2027:2033   */\n      0x00\n        /* \"#utility.yul\":2076:2078   */\n      0x20\n        /* \"#utility.yul\":2064:2073   */\n      dup3\n        /* \"#utility.yul\":2055:2062   */\n      dup5\n        /* \"#utility.yul\":2051:2074   */\n      sub\n        /* \"#utility.yul\":2047:2079   */\n      slt\n        /* \"#utility.yul\":2044:2163   */\n      iszero\n      tag_276\n      jumpi\n        /* \"#utility.yul\":2082:2161   */\n      tag_277\n      tag_213\n      jump\t// in\n    tag_277:\n        /* \"#utility.yul\":2044:2163   */\n    tag_276:\n        /* \"#utility.yul\":2202:2203   */\n      0x00\n        /* \"#utility.yul\":2227:2280   */\n      tag_278\n        /* \"#utility.yul\":2272:2279   */\n      dup5\n        /* \"#utility.yul\":2263:2269   */\n      dup3\n        /* \"#utility.yul\":2252:2261   */\n      dup6\n        /* \"#utility.yul\":2248:2270   */\n      add\n        /* \"#utility.yul\":2227:2280   */\n      tag_218\n      jump\t// in\n    tag_278:\n        /* \"#utility.yul\":2217:2280   */\n      swap2\n      pop\n        /* \"#utility.yul\":2173:2290   */\n      pop\n        /* \"#utility.yul\":1968:2297   */\n      swap3\n      swap2\n      pop\n      pop\n      jump\t// out\n        /* \"#utility.yul\":2303:2421   */\n    tag_222:\n        /* \"#utility.yul\":2390:2414   */\n      tag_280\n        /* \"#utility.yul\":2408:2413   */\n      dup2\n        /* \"#utility.yul\":2390:2414   */\n      tag_216\n      jump\t// in\n    tag_280:\n        /* \"#utility.yul\":2385:2388   */\n      dup3\n        /* \"#utility.yul\":2378:2415   */\n      mstore\n        /* \"#utility.yul\":2303:2421   */\n      pop\n      pop\n      jump\t// out\n        /* \"#utility.yul\":2427:2649   */\n    tag_31:\n        /* \"#utility.yul\":2520:2524   */\n      0x00\n        /* \"#utility.yul\":2558:2560   */\n      0x20\n        /* \"#utility.yul\":2547:2556   */\n      dup3\n        /* \"#utility.yul\":2543:2561   */\n      add\n        /* \"#utility.yul\":2535:2561   */\n      swap1\n      pop\n        /* \"#utility.yul\":2571:2642   */\n      tag_282\n        /* \"#utility.yul\":2639:2640   */\n      0x00\n        /* \"#utility.yul\":2628:2637   */\n      dup4\n        /* \"#utility.yul\":2624:2641   */\n      add\n        /* \"#utility.yul\":2615:2621   */\n      dup5\n        /* \"#utility.yul\":2571:2642   */\n      tag_222\n      jump\t// in\n    tag_282:\n        /* \"#utility.yul\":2427:2649   */\n      swap3\n      swap2\n      pop\n      pop\n      jump\t// out\n        /* \"#utility.yul\":2655:2804   */\n    tag_223:\n        /* \"#utility.yul\":2691:2698   */\n      0x00\n        /* \"#utility.yul\":2731:2797   */\n      0xffffffff00000000000000000000000000000000000000000000000000000000\n        /* \"#utility.yul\":2724:2729   */\n      dup3\n        /* \"#utility.yul\":2720:2798   */\n      and\n        /* \"#utility.yul\":2709:2798   */\n      swap1\n      pop\n        /* \"#utility.yul\":2655:2804   */\n      swap2\n      swap1\n      pop\n      jump\t// out\n        /* \"#utility.yul\":2810:2925   */\n    tag_224:\n        /* \"#utility.yul\":2895:2918   */\n      tag_285\n        /* \"#utility.yul\":2912:2917   */\n      dup2\n        /* \"#utility.yul\":2895:2918   */\n      tag_223\n      jump\t// in\n    tag_285:\n        /* \"#utility.yul\":2890:2893   */\n      dup3\n        /* \"#utility.yul\":2883:2919   */\n      mstore\n        /* \"#utility.yul\":2810:2925   */\n      pop\n      pop\n      jump\t// out\n        /* \"#utility.yul\":2931:3149   */\n    tag_35:\n        /* \"#utility.yul\":3022:3026   */\n      0x00\n        /* \"#utility.yul\":3060:3062   */\n      0x20\n        /* \"#utility.yul\":3049:3058   */\n      dup3\n        /* \"#utility.yul\":3045:3063   */\n      add\n        /* \"#utility.yul\":3037:3063   */\n      swap1\n      pop\n        /* \"#utility.yul\":3073:3142   */\n      tag_287\n        /* \"#utility.yul\":3139:3140   */\n      0x00\n        /* \"#utility.yul\":3128:3137   */\n      dup4\n        /* \"#utility.yul\":3124:3141   */\n      add\n        /* \"#utility.yul\":3115:3121   */\n      dup5\n        /* \"#utility.yul\":3073:3142   */\n      tag_224\n      jump\t// in\n    tag_287:\n        /* \"#utility.yul\":2931:3149   */\n      swap3\n      swap2\n      pop\n      pop\n      jump\t// out\n        /* \"#utility.yul\":3155:3484   */\n    tag_52:\n        /* \"#utility.yul\":3214:3220   */\n      0x00\n        /* \"#utility.yul\":3263:3265   */\n      0x20\n        /* \"#utility.yul\":3251:3260   */\n      dup3\n        /* \"#utility.yul\":3242:3249   */\n      dup5\n        /* \"#utility.yul\":3238:3261   */\n      sub\n        /* \"#utility.yul\":3234:3266   */\n      slt\n        /* \"#utility.yul\":3231:3350   */\n      iszero\n      tag_289\n      jumpi\n        /* \"#utility.yul\":3269:3348   */\n      tag_290\n      tag_213\n      jump\t// in\n    tag_290:\n        /* \"#utility.yul\":3231:3350   */\n    tag_289:\n        /* \"#utility.yul\":3389:3390   */\n      0x00\n        /* \"#utility.yul\":3414:3467   */\n      tag_291\n        /* \"#utility.yul\":3459:3466   */\n      dup5\n        /* \"#utility.yul\":3450:3456   */\n      dup3\n        /* \"#utility.yul\":3439:3448   */\n      dup6\n        /* \"#utility.yul\":3435:3457   */\n      add\n        /* \"#utility.yul\":3414:3467   */\n      tag_221\n      jump\t// in\n    tag_291:\n        /* \"#utility.yul\":3404:3467   */\n      swap2\n      pop\n        /* \"#utility.yul\":3360:3477   */\n      pop\n        /* \"#utility.yul\":3155:3484   */\n      swap3\n      swap2\n      pop\n      pop\n      jump\t// out\n        /* \"#utility.yul\":3490:3576   */\n    tag_225:\n        /* \"#utility.yul\":3525:3532   */\n      0x00\n        /* \"#utility.yul\":3565:3569   */\n      0xff\n        /* \"#utility.yul\":3558:3563   */\n      dup3\n        /* \"#utility.yul\":3554:3570   */\n      and\n        /* \"#utility.yul\":3543:3570   */\n      swap1\n      pop\n        /* \"#utility.yul\":3490:3576   */\n      swap2\n      swap1\n      pop\n      jump\t// out\n        /* \"#utility.yul\":3582:3694   */\n    tag_226:\n        /* \"#utility.yul\":3665:3687   */\n      tag_294\n        /* \"#utility.yul\":3681:3686   */\n      dup2\n        /* \"#utility.yul\":3665:3687   */\n      tag_225\n      jump\t// in\n    tag_294:\n        /* \"#utility.yul\":3660:3663   */\n      dup3\n        /* \"#utility.yul\":3653:3688   */\n      mstore\n        /* \"#utility.yul\":3582:3694   */\n      pop\n      pop\n      jump\t// out\n        /* \"#utility.yul\":3700:4024   */\n    tag_67:\n        /* \"#utility.yul\":3817:3821   */\n      0x00\n        /* \"#utility.yul\":3855:3857   */\n      0x40\n        /* \"#utility.yul\":3844:3853   */\n      dup3\n        /* \"#utility.yul\":3840:3858   */\n      add\n        /* \"#utility.yul\":3832:3858   */\n      swap1\n      pop\n        /* \"#utility.yul\":3868:3939   */\n      tag_296\n        /* \"#utility.yul\":3936:3937   */\n      0x00\n        /* \"#utility.yul\":3925:3934   */\n      dup4\n        /* \"#utility.yul\":3921:3938   */\n      add\n        /* \"#utility.yul\":3912:3918   */\n      dup6\n        /* \"#utility.yul\":3868:3939   */\n      tag_222\n      jump\t// in\n    tag_296:\n        /* \"#utility.yul\":3949:4017   */\n      tag_297\n        /* \"#utility.yul\":4013:4015   */\n      0x20\n        /* \"#utility.yul\":4002:4011   */\n      dup4\n        /* \"#utility.yul\":3998:4016   */\n      add\n        /* \"#utility.yul\":3989:3995   */\n      dup5\n        /* \"#utility.yul\":3949:4017   */\n      tag_226\n      jump\t// in\n    tag_297:\n        /* \"#utility.yul\":3700:4024   */\n      swap4\n      swap3\n      pop\n      pop\n      pop\n      jump\t// out\n        /* \"#utility.yul\":4030:4148   */\n    tag_227:\n        /* \"#utility.yul\":4117:4141   */\n      tag_299\n        /* \"#utility.yul\":4135:4140   */\n      dup2\n        /* \"#utility.yul\":4117:4141   */\n      tag_219\n      jump\t// in\n    tag_299:\n        /* \"#utility.yul\":4112:4115   */\n      dup3\n        /* \"#utility.yul\":4105:4142   */\n      mstore\n        /* \"#utility.yul\":4030:4148   */\n      pop\n      pop\n      jump\t// out\n        /* \"#utility.yul\":4154:4707   */\n    tag_73:\n        /* \"#utility.yul\":4331:4335   */\n      0x00\n        /* \"#utility.yul\":4369:4372   */\n      0x80\n        /* \"#utility.yul\":4358:4367   */\n      dup3\n        /* \"#utility.yul\":4354:4373   */\n      add\n        /* \"#utility.yul\":4346:4373   */\n      swap1\n      pop\n        /* \"#utility.yul\":4383:4454   */\n      tag_301\n        /* \"#utility.yul\":4451:4452   */\n      0x00\n        /* \"#utility.yul\":4440:4449   */\n      dup4\n        /* \"#utility.yul\":4436:4453   */\n      add\n        /* \"#utility.yul\":4427:4433   */\n      dup8\n        /* \"#utility.yul\":4383:4454   */\n      tag_222\n      jump\t// in\n    tag_301:\n        /* \"#utility.yul\":4464:4536   */\n      tag_302\n        /* \"#utility.yul\":4532:4534   */\n      0x20\n        /* \"#utility.yul\":4521:4530   */\n      dup4\n        /* \"#utility.yul\":4517:4535   */\n      add\n        /* \"#utility.yul\":4508:4514   */\n      dup7\n        /* \"#utility.yul\":4464:4536   */\n      tag_222\n      jump\t// in\n    tag_302:\n        /* \"#utility.yul\":4546:4618   */\n      tag_303\n        /* \"#utility.yul\":4614:4616   */\n      0x40\n        /* \"#utility.yul\":4603:4612   */\n      dup4\n        /* \"#utility.yul\":4599:4617   */\n      add\n        /* \"#utility.yul\":4590:4596   */\n      dup6\n        /* \"#utility.yul\":4546:4618   */\n      tag_222\n      jump\t// in\n    tag_303:\n        /* \"#utility.yul\":4628:4700   */\n      tag_304\n        /* \"#utility.yul\":4696:4698   */\n      0x60\n        /* \"#utility.yul\":4685:4694   */\n      dup4\n        /* \"#utility.yul\":4681:4699   */\n      add\n        /* \"#utility.yul\":4672:4678   */\n      dup5\n        /* \"#utility.yul\":4628:4700   */\n      tag_227\n      jump\t// in\n    tag_304:\n        /* \"#utility.yul\":4154:4707   */\n      swap6\n      swap5\n      pop\n      pop\n      pop\n      pop\n      pop\n      jump\t// out\n        /* \"#utility.yul\":4713:4803   */\n    tag_228:\n        /* \"#utility.yul\":4747:4754   */\n      0x00\n        /* \"#utility.yul\":4790:4795   */\n      dup2\n        /* \"#utility.yul\":4783:4796   */\n      iszero\n        /* \"#utility.yul\":4776:4797   */\n      iszero\n        /* \"#utility.yul\":4765:4797   */\n      swap1\n      pop\n        /* \"#utility.yul\":4713:4803   */\n      swap2\n      swap1\n      pop\n      jump\t// out\n        /* \"#utility.yul\":4809:4925   */\n    tag_229:\n        /* \"#utility.yul\":4879:4900   */\n      tag_307\n        /* \"#utility.yul\":4894:4899   */\n      dup2\n        /* \"#utility.yul\":4879:4900   */\n      tag_228\n      jump\t// in\n    tag_307:\n        /* \"#utility.yul\":4872:4877   */\n      dup2\n        /* \"#utility.yul\":4869:4901   */\n      eq\n        /* \"#utility.yul\":4859:4919   */\n      tag_308\n      jumpi\n        /* \"#utility.yul\":4915:4916   */\n      0x00\n        /* \"#utility.yul\":4912:4913   */\n      dup1\n        /* \"#utility.yul\":4905:4917   */\n      revert\n        /* \"#utility.yul\":4859:4919   */\n    tag_308:\n        /* \"#utility.yul\":4809:4925   */\n      pop\n      jump\t// out\n        /* \"#utility.yul\":4931:5068   */\n    tag_230:\n        /* \"#utility.yul\":4985:4990   */\n      0x00\n        /* \"#utility.yul\":5016:5022   */\n      dup2\n        /* \"#utility.yul\":5010:5023   */\n      mload\n        /* \"#utility.yul\":5001:5023   */\n      swap1\n      pop\n        /* \"#utility.yul\":5032:5062   */\n      tag_310\n        /* \"#utility.yul\":5056:5061   */\n      dup2\n        /* \"#utility.yul\":5032:5062   */\n      tag_229\n      jump\t// in\n    tag_310:\n        /* \"#utility.yul\":4931:5068   */\n      swap3\n      swap2\n      pop\n      pop\n      jump\t// out\n        /* \"#utility.yul\":5074:5419   */\n    tag_89:\n        /* \"#utility.yul\":5141:5147   */\n      0x00\n        /* \"#utility.yul\":5190:5192   */\n      0x20\n        /* \"#utility.yul\":5178:5187   */\n      dup3\n        /* \"#utility.yul\":5169:5176   */\n      dup5\n        /* \"#utility.yul\":5165:5188   */\n      sub\n        /* \"#utility.yul\":5161:5193   */\n      slt\n        /* \"#utility.yul\":5158:5277   */\n      iszero\n      tag_312\n      jumpi\n        /* \"#utility.yul\":5196:5275   */\n      tag_313\n      tag_213\n      jump\t// in\n    tag_313:\n        /* \"#utility.yul\":5158:5277   */\n    tag_312:\n        /* \"#utility.yul\":5316:5317   */\n      0x00\n        /* \"#utility.yul\":5341:5402   */\n      tag_314\n        /* \"#utility.yul\":5394:5401   */\n      dup5\n        /* \"#utility.yul\":5385:5391   */\n      dup3\n        /* \"#utility.yul\":5374:5383   */\n      dup6\n        /* \"#utility.yul\":5370:5392   */\n      add\n        /* \"#utility.yul\":5341:5402   */\n      tag_230\n      jump\t// in\n    tag_314:\n        /* \"#utility.yul\":5331:5402   */\n      swap2\n      pop\n        /* \"#utility.yul\":5287:5412   */\n      pop\n        /* \"#utility.yul\":5074:5419   */\n      swap3\n      swap2\n      pop\n      pop\n      jump\t// out\n        /* \"#utility.yul\":5425:5594   */\n    tag_231:\n        /* \"#utility.yul\":5509:5520   */\n      0x00\n        /* \"#utility.yul\":5543:5549   */\n      dup3\n        /* \"#utility.yul\":5538:5541   */\n      dup3\n        /* \"#utility.yul\":5531:5550   */\n      mstore\n        /* \"#utility.yul\":5583:5587   */\n      0x20\n        /* \"#utility.yul\":5578:5581   */\n      dup3\n        /* \"#utility.yul\":5574:5588   */\n      add\n        /* \"#utility.yul\":5559:5588   */\n      swap1\n      pop\n        /* \"#utility.yul\":5425:5594   */\n      swap3\n      swap2\n      pop\n      pop\n      jump\t// out\n        /* \"#utility.yul\":5600:5767   */\n    tag_232:\n        /* \"#utility.yul\":5740:5759   */\n      0x416c726561647920537570706f72746564000000000000000000000000000000\n        /* \"#utility.yul\":5736:5737   */\n      0x00\n        /* \"#utility.yul\":5728:5734   */\n      dup3\n        /* \"#utility.yul\":5724:5738   */\n      add\n        /* \"#utility.yul\":5717:5760   */\n      mstore\n        /* \"#utility.yul\":5600:5767   */\n      pop\n      jump\t// out\n        /* \"#utility.yul\":5773:6139   */\n    tag_233:\n        /* \"#utility.yul\":5915:5918   */\n      0x00\n        /* \"#utility.yul\":5936:6003   */\n      tag_318\n        /* \"#utility.yul\":6000:6002   */\n      0x11\n        /* \"#utility.yul\":5995:5998   */\n      dup4\n        /* \"#utility.yul\":5936:6003   */\n      tag_231\n      jump\t// in\n    tag_318:\n        /* \"#utility.yul\":5929:6003   */\n      swap2\n      pop\n        /* \"#utility.yul\":6012:6105   */\n      tag_319\n        /* \"#utility.yul\":6101:6104   */\n      dup3\n        /* \"#utility.yul\":6012:6105   */\n      tag_232\n      jump\t// in\n    tag_319:\n        /* \"#utility.yul\":6130:6132   */\n      0x20\n        /* \"#utility.yul\":6125:6128   */\n      dup3\n        /* \"#utility.yul\":6121:6133   */\n      add\n        /* \"#utility.yul\":6114:6133   */\n      swap1\n      pop\n        /* \"#utility.yul\":5773:6139   */\n      swap2\n      swap1\n      pop\n      jump\t// out\n        /* \"#utility.yul\":6145:6564   */\n    tag_92:\n        /* \"#utility.yul\":6311:6315   */\n      0x00\n        /* \"#utility.yul\":6349:6351   */\n      0x20\n        /* \"#utility.yul\":6338:6347   */\n      dup3\n        /* \"#utility.yul\":6334:6352   */\n      add\n        /* \"#utility.yul\":6326:6352   */\n      swap1\n      pop\n        /* \"#utility.yul\":6398:6407   */\n      dup2\n        /* \"#utility.yul\":6392:6396   */\n      dup2\n        /* \"#utility.yul\":6388:6408   */\n      sub\n        /* \"#utility.yul\":6384:6385   */\n      0x00\n        /* \"#utility.yul\":6373:6382   */\n      dup4\n        /* \"#utility.yul\":6369:6386   */\n      add\n        /* \"#utility.yul\":6362:6409   */\n      mstore\n        /* \"#utility.yul\":6426:6557   */\n      tag_321\n        /* \"#utility.yul\":6552:6556   */\n      dup2\n        /* \"#utility.yul\":6426:6557   */\n      tag_233\n      jump\t// in\n    tag_321:\n        /* \"#utility.yul\":6418:6557   */\n      swap1\n      pop\n        /* \"#utility.yul\":6145:6564   */\n      swap2\n      swap1\n      pop\n      jump\t// out\n        /* \"#utility.yul\":6570:6713   */\n    tag_234:\n        /* \"#utility.yul\":6627:6632   */\n      0x00\n        /* \"#utility.yul\":6658:6664   */\n      dup2\n        /* \"#utility.yul\":6652:6665   */\n      mload\n        /* \"#utility.yul\":6643:6665   */\n      swap1\n      pop\n        /* \"#utility.yul\":6674:6707   */\n      tag_323\n        /* \"#utility.yul\":6701:6706   */\n      dup2\n        /* \"#utility.yul\":6674:6707   */\n      tag_217\n      jump\t// in\n    tag_323:\n        /* \"#utility.yul\":6570:6713   */\n      swap3\n      swap2\n      pop\n      pop\n      jump\t// out\n        /* \"#utility.yul\":6719:7070   */\n    tag_96:\n        /* \"#utility.yul\":6789:6795   */\n      0x00\n        /* \"#utility.yul\":6838:6840   */\n      0x20\n        /* \"#utility.yul\":6826:6835   */\n      dup3\n        /* \"#utility.yul\":6817:6824   */\n      dup5\n        /* \"#utility.yul\":6813:6836   */\n      sub\n        /* \"#utility.yul\":6809:6841   */\n      slt\n        /* \"#utility.yul\":6806:6925   */\n      iszero\n      tag_325\n      jumpi\n        /* \"#utility.yul\":6844:6923   */\n      tag_326\n      tag_213\n      jump\t// in\n    tag_326:\n        /* \"#utility.yul\":6806:6925   */\n    tag_325:\n        /* \"#utility.yul\":6964:6965   */\n      0x00\n        /* \"#utility.yul\":6989:7053   */\n      tag_327\n        /* \"#utility.yul\":7045:7052   */\n      dup5\n        /* \"#utility.yul\":7036:7042   */\n      dup3\n        /* \"#utility.yul\":7025:7034   */\n      dup6\n        /* \"#utility.yul\":7021:7043   */\n      add\n        /* \"#utility.yul\":6989:7053   */\n      tag_234\n      jump\t// in\n    tag_327:\n        /* \"#utility.yul\":6979:7053   */\n      swap2\n      pop\n        /* \"#utility.yul\":6935:7063   */\n      pop\n        /* \"#utility.yul\":6719:7070   */\n      swap3\n      swap2\n      pop\n      pop\n      jump\t// out\n        /* \"#utility.yul\":7076:7235   */\n    tag_235:\n        /* \"#utility.yul\":7216:7227   */\n      0x4e6f74204f776e65720000000000000000000000000000000000000000000000\n        /* \"#utility.yul\":7212:7213   */\n      0x00\n        /* \"#utility.yul\":7204:7210   */\n      dup3\n        /* \"#utility.yul\":7200:7214   */\n      add\n        /* \"#utility.yul\":7193:7228   */\n      mstore\n        /* \"#utility.yul\":7076:7235   */\n      pop\n      jump\t// out\n        /* \"#utility.yul\":7241:7606   */\n    tag_236:\n        /* \"#utility.yul\":7383:7386   */\n      0x00\n        /* \"#utility.yul\":7404:7470   */\n      tag_330\n        /* \"#utility.yul\":7468:7469   */\n      0x09\n        /* \"#utility.yul\":7463:7466   */\n      dup4\n        /* \"#utility.yul\":7404:7470   */\n      tag_231\n      jump\t// in\n    tag_330:\n        /* \"#utility.yul\":7397:7470   */\n      swap2\n      pop\n        /* \"#utility.yul\":7479:7572   */\n      tag_331\n        /* \"#utility.yul\":7568:7571   */\n      dup3\n        /* \"#utility.yul\":7479:7572   */\n      tag_235\n      jump\t// in\n    tag_331:\n        /* \"#utility.yul\":7597:7599   */\n      0x20\n        /* \"#utility.yul\":7592:7595   */\n      dup3\n        /* \"#utility.yul\":7588:7600   */\n      add\n        /* \"#utility.yul\":7581:7600   */\n      swap1\n      pop\n        /* \"#utility.yul\":7241:7606   */\n      swap2\n      swap1\n      pop\n      jump\t// out\n        /* \"#utility.yul\":7612:8031   */\n    tag_99:\n        /* \"#utility.yul\":7778:7782   */\n      0x00\n        /* \"#utility.yul\":7816:7818   */\n      0x20\n        /* \"#utility.yul\":7805:7814   */\n      dup3\n        /* \"#utility.yul\":7801:7819   */\n      add\n        /* \"#utility.yul\":7793:7819   */\n      swap1\n      pop\n        /* \"#utility.yul\":7865:7874   */\n      dup2\n        /* \"#utility.yul\":7859:7863   */\n      dup2\n        /* \"#utility.yul\":7855:7875   */\n      sub\n        /* \"#utility.yul\":7851:7852   */\n      0x00\n        /* \"#utility.yul\":7840:7849   */\n      dup4\n        /* \"#utility.yul\":7836:7853   */\n      add\n        /* \"#utility.yul\":7829:7876   */\n      mstore\n        /* \"#utility.yul\":7893:8024   */\n      tag_333\n        /* \"#utility.yul\":8019:8023   */\n      dup2\n        /* \"#utility.yul\":7893:8024   */\n      tag_236\n      jump\t// in\n    tag_333:\n        /* \"#utility.yul\":7885:8024   */\n      swap1\n      pop\n        /* \"#utility.yul\":7612:8031   */\n      swap2\n      swap1\n      pop\n      jump\t// out\n        /* \"#utility.yul\":8037:8196   */\n    tag_237:\n        /* \"#utility.yul\":8177:8188   */\n      0x4e6f742041646d696e0000000000000000000000000000000000000000000000\n        /* \"#utility.yul\":8173:8174   */\n      0x00\n        /* \"#utility.yul\":8165:8171   */\n      dup3\n        /* \"#utility.yul\":8161:8175   */\n      add\n        /* \"#utility.yul\":8154:8189   */\n      mstore\n        /* \"#utility.yul\":8037:8196   */\n      pop\n      jump\t// out\n        /* \"#utility.yul\":8202:8567   */\n    tag_238:\n        /* \"#utility.yul\":8344:8347   */\n      0x00\n        /* \"#utility.yul\":8365:8431   */\n      tag_336\n        /* \"#utility.yul\":8429:8430   */\n      0x09\n        /* \"#utility.yul\":8424:8427   */\n      dup4\n        /* \"#utility.yul\":8365:8431   */\n      tag_231\n      jump\t// in\n    tag_336:\n        /* \"#utility.yul\":8358:8431   */\n      swap2\n      pop\n        /* \"#utility.yul\":8440:8533   */\n      tag_337\n        /* \"#utility.yul\":8529:8532   */\n      dup3\n        /* \"#utility.yul\":8440:8533   */\n      tag_237\n      jump\t// in\n    tag_337:\n        /* \"#utility.yul\":8558:8560   */\n      0x20\n        /* \"#utility.yul\":8553:8556   */\n      dup3\n        /* \"#utility.yul\":8549:8561   */\n      add\n        /* \"#utility.yul\":8542:8561   */\n      swap1\n      pop\n        /* \"#utility.yul\":8202:8567   */\n      swap2\n      swap1\n      pop\n      jump\t// out\n        /* \"#utility.yul\":8573:8992   */\n    tag_120:\n        /* \"#utility.yul\":8739:8743   */\n      0x00\n        /* \"#utility.yul\":8777:8779   */\n      0x20\n        /* \"#utility.yul\":8766:8775   */\n      dup3\n        /* \"#utility.yul\":8762:8780   */\n      add\n        /* \"#utility.yul\":8754:8780   */\n      swap1\n      pop\n        /* \"#utility.yul\":8826:8835   */\n      dup2\n        /* \"#utility.yul\":8820:8824   */\n      dup2\n        /* \"#utility.yul\":8816:8836   */\n      sub\n        /* \"#utility.yul\":8812:8813   */\n      0x00\n        /* \"#utility.yul\":8801:8810   */\n      dup4\n        /* \"#utility.yul\":8797:8814   */\n      add\n        /* \"#utility.yul\":8790:8837   */\n      mstore\n        /* \"#utility.yul\":8854:8985   */\n      tag_339\n        /* \"#utility.yul\":8980:8984   */\n      dup2\n        /* \"#utility.yul\":8854:8985   */\n      tag_238\n      jump\t// in\n    tag_339:\n        /* \"#utility.yul\":8846:8985   */\n      swap1\n      pop\n        /* \"#utility.yul\":8573:8992   */\n      swap2\n      swap1\n      pop\n      jump\t// out\n        /* \"#utility.yul\":8998:9220   */\n    tag_126:\n        /* \"#utility.yul\":9091:9095   */\n      0x00\n        /* \"#utility.yul\":9129:9131   */\n      0x20\n        /* \"#utility.yul\":9118:9127   */\n      dup3\n        /* \"#utility.yul\":9114:9132   */\n      add\n        /* \"#utility.yul\":9106:9132   */\n      swap1\n      pop\n        /* \"#utility.yul\":9142:9213   */\n      tag_341\n        /* \"#utility.yul\":9210:9211   */\n      0x00\n        /* \"#utility.yul\":9199:9208   */\n      dup4\n        /* \"#utility.yul\":9195:9212   */\n      add\n        /* \"#utility.yul\":9186:9192   */\n      dup5\n        /* \"#utility.yul\":9142:9213   */\n      tag_227\n      jump\t// in\n    tag_341:\n        /* \"#utility.yul\":8998:9220   */\n      swap3\n      swap2\n      pop\n      pop\n      jump\t// out\n        /* \"#utility.yul\":9226:9369   */\n    tag_239:\n        /* \"#utility.yul\":9283:9288   */\n      0x00\n        /* \"#utility.yul\":9314:9320   */\n      dup2\n        /* \"#utility.yul\":9308:9321   */\n      mload\n        /* \"#utility.yul\":9299:9321   */\n      swap1\n      pop\n        /* \"#utility.yul\":9330:9363   */\n      tag_343\n        /* \"#utility.yul\":9357:9362   */\n      dup2\n        /* \"#utility.yul\":9330:9363   */\n      tag_220\n      jump\t// in\n    tag_343:\n        /* \"#utility.yul\":9226:9369   */\n      swap3\n      swap2\n      pop\n      pop\n      jump\t// out\n        /* \"#utility.yul\":9375:10038   */\n    tag_135:\n        /* \"#utility.yul\":9463:9469   */\n      0x00\n        /* \"#utility.yul\":9471:9477   */\n      dup1\n        /* \"#utility.yul\":9479:9485   */\n      0x00\n        /* \"#utility.yul\":9528:9530   */\n      0x60\n        /* \"#utility.yul\":9516:9525   */\n      dup5\n        /* \"#utility.yul\":9507:9514   */\n      dup7\n        /* \"#utility.yul\":9503:9526   */\n      sub\n        /* \"#utility.yul\":9499:9531   */\n      slt\n        /* \"#utility.yul\":9496:9615   */\n      iszero\n      tag_345\n      jumpi\n        /* \"#utility.yul\":9534:9613   */\n      tag_346\n      tag_213\n      jump\t// in\n    tag_346:\n        /* \"#utility.yul\":9496:9615   */\n    tag_345:\n        /* \"#utility.yul\":9654:9655   */\n      0x00\n        /* \"#utility.yul\":9679:9743   */\n      tag_347\n        /* \"#utility.yul\":9735:9742   */\n      dup7\n        /* \"#utility.yul\":9726:9732   */\n      dup3\n        /* \"#utility.yul\":9715:9724   */\n      dup8\n        /* \"#utility.yul\":9711:9733   */\n      add\n        /* \"#utility.yul\":9679:9743   */\n      tag_234\n      jump\t// in\n    tag_347:\n        /* \"#utility.yul\":9669:9743   */\n      swap4\n      pop\n        /* \"#utility.yul\":9625:9753   */\n      pop\n        /* \"#utility.yul\":9792:9794   */\n      0x20\n        /* \"#utility.yul\":9818:9882   */\n      tag_348\n        /* \"#utility.yul\":9874:9881   */\n      dup7\n        /* \"#utility.yul\":9865:9871   */\n      dup3\n        /* \"#utility.yul\":9854:9863   */\n      dup8\n        /* \"#utility.yul\":9850:9872   */\n      add\n        /* \"#utility.yul\":9818:9882   */\n      tag_234\n      jump\t// in\n    tag_348:\n        /* \"#utility.yul\":9808:9882   */\n      swap3\n      pop\n        /* \"#utility.yul\":9763:9892   */\n      pop\n        /* \"#utility.yul\":9931:9933   */\n      0x40\n        /* \"#utility.yul\":9957:10021   */\n      tag_349\n        /* \"#utility.yul\":10013:10020   */\n      dup7\n        /* \"#utility.yul\":10004:10010   */\n      dup3\n        /* \"#utility.yul\":9993:10002   */\n      dup8\n        /* \"#utility.yul\":9989:10011   */\n      add\n        /* \"#utility.yul\":9957:10021   */\n      tag_239\n      jump\t// in\n    tag_349:\n        /* \"#utility.yul\":9947:10021   */\n      swap2\n      pop\n        /* \"#utility.yul\":9902:10031   */\n      pop\n        /* \"#utility.yul\":9375:10038   */\n      swap3\n      pop\n      swap3\n      pop\n      swap3\n      jump\t// out\n        /* \"#utility.yul\":10044:10208   */\n    tag_240:\n        /* \"#utility.yul\":10184:10200   */\n      0x4e6f742074686520536574746572000000000000000000000000000000000000\n        /* \"#utility.yul\":10180:10181   */\n      0x00\n        /* \"#utility.yul\":10172:10178   */\n      dup3\n        /* \"#utility.yul\":10168:10182   */\n      add\n        /* \"#utility.yul\":10161:10201   */\n      mstore\n        /* \"#utility.yul\":10044:10208   */\n      pop\n      jump\t// out\n        /* \"#utility.yul\":10214:10580   */\n    tag_241:\n        /* \"#utility.yul\":10356:10359   */\n      0x00\n        /* \"#utility.yul\":10377:10444   */\n      tag_352\n        /* \"#utility.yul\":10441:10443   */\n      0x0e\n        /* \"#utility.yul\":10436:10439   */\n      dup4\n        /* \"#utility.yul\":10377:10444   */\n      tag_231\n      jump\t// in\n    tag_352:\n        /* \"#utility.yul\":10370:10444   */\n      swap2\n      pop\n        /* \"#utility.yul\":10453:10546   */\n      tag_353\n        /* \"#utility.yul\":10542:10545   */\n      dup3\n        /* \"#utility.yul\":10453:10546   */\n      tag_240\n      jump\t// in\n    tag_353:\n        /* \"#utility.yul\":10571:10573   */\n      0x20\n        /* \"#utility.yul\":10566:10569   */\n      dup3\n        /* \"#utility.yul\":10562:10574   */\n      add\n        /* \"#utility.yul\":10555:10574   */\n      swap1\n      pop\n        /* \"#utility.yul\":10214:10580   */\n      swap2\n      swap1\n      pop\n      jump\t// out\n        /* \"#utility.yul\":10586:11005   */\n    tag_138:\n        /* \"#utility.yul\":10752:10756   */\n      0x00\n        /* \"#utility.yul\":10790:10792   */\n      0x20\n        /* \"#utility.yul\":10779:10788   */\n      dup3\n        /* \"#utility.yul\":10775:10793   */\n      add\n        /* \"#utility.yul\":10767:10793   */\n      swap1\n      pop\n        /* \"#utility.yul\":10839:10848   */\n      dup2\n        /* \"#utility.yul\":10833:10837   */\n      dup2\n        /* \"#utility.yul\":10829:10849   */\n      sub\n        /* \"#utility.yul\":10825:10826   */\n      0x00\n        /* \"#utility.yul\":10814:10823   */\n      dup4\n        /* \"#utility.yul\":10810:10827   */\n      add\n        /* \"#utility.yul\":10803:10850   */\n      mstore\n        /* \"#utility.yul\":10867:10998   */\n      tag_355\n        /* \"#utility.yul\":10993:10997   */\n      dup2\n        /* \"#utility.yul\":10867:10998   */\n      tag_241\n      jump\t// in\n    tag_355:\n        /* \"#utility.yul\":10859:10998   */\n      swap1\n      pop\n        /* \"#utility.yul\":10586:11005   */\n      swap2\n      swap1\n      pop\n      jump\t// out\n        /* \"#utility.yul\":11011:11236   */\n    tag_242:\n        /* \"#utility.yul\":11151:11185   */\n      0x4f776e61626c653a206e6577206f776e657220697320746865207a65726f2061\n        /* \"#utility.yul\":11147:11148   */\n      0x00\n        /* \"#utility.yul\":11139:11145   */\n      dup3\n        /* \"#utility.yul\":11135:11149   */\n      add\n        /* \"#utility.yul\":11128:11186   */\n      mstore\n        /* \"#utility.yul\":11220:11228   */\n      0x6464726573730000000000000000000000000000000000000000000000000000\n        /* \"#utility.yul\":11215:11217   */\n      0x20\n        /* \"#utility.yul\":11207:11213   */\n      dup3\n        /* \"#utility.yul\":11203:11218   */\n      add\n        /* \"#utility.yul\":11196:11229   */\n      mstore\n        /* \"#utility.yul\":11011:11236   */\n      pop\n      jump\t// out\n        /* \"#utility.yul\":11242:11608   */\n    tag_243:\n        /* \"#utility.yul\":11384:11387   */\n      0x00\n        /* \"#utility.yul\":11405:11472   */\n      tag_358\n        /* \"#utility.yul\":11469:11471   */\n      0x26\n        /* \"#utility.yul\":11464:11467   */\n      dup4\n        /* \"#utility.yul\":11405:11472   */\n      tag_231\n      jump\t// in\n    tag_358:\n        /* \"#utility.yul\":11398:11472   */\n      swap2\n      pop\n        /* \"#utility.yul\":11481:11574   */\n      tag_359\n        /* \"#utility.yul\":11570:11573   */\n      dup3\n        /* \"#utility.yul\":11481:11574   */\n      tag_242\n      jump\t// in\n    tag_359:\n        /* \"#utility.yul\":11599:11601   */\n      0x40\n        /* \"#utility.yul\":11594:11597   */\n      dup3\n        /* \"#utility.yul\":11590:11602   */\n      add\n        /* \"#utility.yul\":11583:11602   */\n      swap1\n      pop\n        /* \"#utility.yul\":11242:11608   */\n      swap2\n      swap1\n      pop\n      jump\t// out\n        /* \"#utility.yul\":11614:12033   */\n    tag_148:\n        /* \"#utility.yul\":11780:11784   */\n      0x00\n        /* \"#utility.yul\":11818:11820   */\n      0x20\n        /* \"#utility.yul\":11807:11816   */\n      dup3\n        /* \"#utility.yul\":11803:11821   */\n      add\n        /* \"#utility.yul\":11795:11821   */\n      swap1\n      pop\n        /* \"#utility.yul\":11867:11876   */\n      dup2\n        /* \"#utility.yul\":11861:11865   */\n      dup2\n        /* \"#utility.yul\":11857:11877   */\n      sub\n        /* \"#utility.yul\":11853:11854   */\n      0x00\n        /* \"#utility.yul\":11842:11851   */\n      dup4\n        /* \"#utility.yul\":11838:11855   */\n      add\n        /* \"#utility.yul\":11831:11878   */\n      mstore\n        /* \"#utility.yul\":11895:12026   */\n      tag_361\n        /* \"#utility.yul\":12021:12025   */\n      dup2\n        /* \"#utility.yul\":11895:12026   */\n      tag_243\n      jump\t// in\n    tag_361:\n        /* \"#utility.yul\":11887:12026   */\n      swap1\n      pop\n        /* \"#utility.yul\":11614:12033   */\n      swap2\n      swap1\n      pop\n      jump\t// out\n        /* \"#utility.yul\":12039:12221   */\n    tag_244:\n        /* \"#utility.yul\":12179:12213   */\n      0x4f776e61626c653a2063616c6c6572206973206e6f7420746865206f776e6572\n        /* \"#utility.yul\":12175:12176   */\n      0x00\n        /* \"#utility.yul\":12167:12173   */\n      dup3\n        /* \"#utility.yul\":12163:12177   */\n      add\n        /* \"#utility.yul\":12156:12214   */\n      mstore\n        /* \"#utility.yul\":12039:12221   */\n      pop\n      jump\t// out\n        /* \"#utility.yul\":12227:12593   */\n    tag_245:\n        /* \"#utility.yul\":12369:12372   */\n      0x00\n        /* \"#utility.yul\":12390:12457   */\n      tag_364\n        /* \"#utility.yul\":12454:12456   */\n      0x20\n        /* \"#utility.yul\":12449:12452   */\n      dup4\n        /* \"#utility.yul\":12390:12457   */\n      tag_231\n      jump\t// in\n    tag_364:\n        /* \"#utility.yul\":12383:12457   */\n      swap2\n      pop\n        /* \"#utility.yul\":12466:12559   */\n      tag_365\n        /* \"#utility.yul\":12555:12558   */\n      dup3\n        /* \"#utility.yul\":12466:12559   */\n      tag_244\n      jump\t// in\n    tag_365:\n        /* \"#utility.yul\":12584:12586   */\n      0x20\n        /* \"#utility.yul\":12579:12582   */\n      dup3\n        /* \"#utility.yul\":12575:12587   */\n      add\n        /* \"#utility.yul\":12568:12587   */\n      swap1\n      pop\n        /* \"#utility.yul\":12227:12593   */\n      swap2\n      swap1\n      pop\n      jump\t// out\n        /* \"#utility.yul\":12599:13018   */\n    tag_185:\n        /* \"#utility.yul\":12765:12769   */\n      0x00\n        /* \"#utility.yul\":12803:12805   */\n      0x20\n        /* \"#utility.yul\":12792:12801   */\n      dup3\n        /* \"#utility.yul\":12788:12806   */\n      add\n        /* \"#utility.yul\":12780:12806   */\n      swap1\n      pop\n        /* \"#utility.yul\":12852:12861   */\n      dup2\n        /* \"#utility.yul\":12846:12850   */\n      dup2\n        /* \"#utility.yul\":12842:12862   */\n      sub\n        /* \"#utility.yul\":12838:12839   */\n      0x00\n        /* \"#utility.yul\":12827:12836   */\n      dup4\n        /* \"#utility.yul\":12823:12840   */\n      add\n        /* \"#utility.yul\":12816:12863   */\n      mstore\n        /* \"#utility.yul\":12880:13011   */\n      tag_367\n        /* \"#utility.yul\":13006:13010   */\n      dup2\n        /* \"#utility.yul\":12880:13011   */\n      tag_245\n      jump\t// in\n    tag_367:\n        /* \"#utility.yul\":12872:13011   */\n      swap1\n      pop\n        /* \"#utility.yul\":12599:13018   */\n      swap2\n      swap1\n      pop\n      jump\t// out\n        /* \"#utility.yul\":13024:13199   */\n    tag_246:\n        /* \"#utility.yul\":13164:13191   */\n      0x416c72656164792052656769737420636f6c6c656374696f6e00000000000000\n        /* \"#utility.yul\":13160:13161   */\n      0x00\n        /* \"#utility.yul\":13152:13158   */\n      dup3\n        /* \"#utility.yul\":13148:13162   */\n      add\n        /* \"#utility.yul\":13141:13192   */\n      mstore\n        /* \"#utility.yul\":13024:13199   */\n      pop\n      jump\t// out\n        /* \"#utility.yul\":13205:13571   */\n    tag_247:\n        /* \"#utility.yul\":13347:13350   */\n      0x00\n        /* \"#utility.yul\":13368:13435   */\n      tag_370\n        /* \"#utility.yul\":13432:13434   */\n      0x19\n        /* \"#utility.yul\":13427:13430   */\n      dup4\n        /* \"#utility.yul\":13368:13435   */\n      tag_231\n      jump\t// in\n    tag_370:\n        /* \"#utility.yul\":13361:13435   */\n      swap2\n      pop\n        /* \"#utility.yul\":13444:13537   */\n      tag_371\n        /* \"#utility.yul\":13533:13536   */\n      dup3\n        /* \"#utility.yul\":13444:13537   */\n      tag_246\n      jump\t// in\n    tag_371:\n        /* \"#utility.yul\":13562:13564   */\n      0x20\n        /* \"#utility.yul\":13557:13560   */\n      dup3\n        /* \"#utility.yul\":13553:13565   */\n      add\n        /* \"#utility.yul\":13546:13565   */\n      swap1\n      pop\n        /* \"#utility.yul\":13205:13571   */\n      swap2\n      swap1\n      pop\n      jump\t// out\n        /* \"#utility.yul\":13577:13996   */\n    tag_193:\n        /* \"#utility.yul\":13743:13747   */\n      0x00\n        /* \"#utility.yul\":13781:13783   */\n      0x20\n        /* \"#utility.yul\":13770:13779   */\n      dup3\n        /* \"#utility.yul\":13766:13784   */\n      add\n        /* \"#utility.yul\":13758:13784   */\n      swap1\n      pop\n        /* \"#utility.yul\":13830:13839   */\n      dup2\n        /* \"#utility.yul\":13824:13828   */\n      dup2\n        /* \"#utility.yul\":13820:13840   */\n      sub\n        /* \"#utility.yul\":13816:13817   */\n      0x00\n        /* \"#utility.yul\":13805:13814   */\n      dup4\n        /* \"#utility.yul\":13801:13818   */\n      add\n        /* \"#utility.yul\":13794:13841   */\n      mstore\n        /* \"#utility.yul\":13858:13989   */\n      tag_373\n        /* \"#utility.yul\":13984:13988   */\n      dup2\n        /* \"#utility.yul\":13858:13989   */\n      tag_247\n      jump\t// in\n    tag_373:\n        /* \"#utility.yul\":13850:13989   */\n      swap1\n      pop\n        /* \"#utility.yul\":13577:13996   */\n      swap2\n      swap1\n      pop\n      jump\t// out\n        /* \"#utility.yul\":14002:14226   */\n    tag_248:\n        /* \"#utility.yul\":14142:14176   */\n      0x5468697320636f6c6c656374696f6e206973206e6f74204552433732312f4552\n        /* \"#utility.yul\":14138:14139   */\n      0x00\n        /* \"#utility.yul\":14130:14136   */\n      dup3\n        /* \"#utility.yul\":14126:14140   */\n      add\n        /* \"#utility.yul\":14119:14177   */\n      mstore\n        /* \"#utility.yul\":14211:14218   */\n      0x4331313535000000000000000000000000000000000000000000000000000000\n        /* \"#utility.yul\":14206:14208   */\n      0x20\n        /* \"#utility.yul\":14198:14204   */\n      dup3\n        /* \"#utility.yul\":14194:14209   */\n      add\n        /* \"#utility.yul\":14187:14219   */\n      mstore\n        /* \"#utility.yul\":14002:14226   */\n      pop\n      jump\t// out\n        /* \"#utility.yul\":14232:14598   */\n    tag_249:\n        /* \"#utility.yul\":14374:14377   */\n      0x00\n        /* \"#utility.yul\":14395:14462   */\n      tag_376\n        /* \"#utility.yul\":14459:14461   */\n      0x25\n        /* \"#utility.yul\":14454:14457   */\n      dup4\n        /* \"#utility.yul\":14395:14462   */\n      tag_231\n      jump\t// in\n    tag_376:\n        /* \"#utility.yul\":14388:14462   */\n      swap2\n      pop\n        /* \"#utility.yul\":14471:14564   */\n      tag_377\n        /* \"#utility.yul\":14560:14563   */\n      dup3\n        /* \"#utility.yul\":14471:14564   */\n      tag_248\n      jump\t// in\n    tag_377:\n        /* \"#utility.yul\":14589:14591   */\n      0x40\n        /* \"#utility.yul\":14584:14587   */\n      dup3\n        /* \"#utility.yul\":14580:14592   */\n      add\n        /* \"#utility.yul\":14573:14592   */\n      swap1\n      pop\n        /* \"#utility.yul\":14232:14598   */\n      swap2\n      swap1\n      pop\n      jump\t// out\n        /* \"#utility.yul\":14604:15023   */\n    tag_205:\n        /* \"#utility.yul\":14770:14774   */\n      0x00\n        /* \"#utility.yul\":14808:14810   */\n      0x20\n        /* \"#utility.yul\":14797:14806   */\n      dup3\n        /* \"#utility.yul\":14793:14811   */\n      add\n        /* \"#utility.yul\":14785:14811   */\n      swap1\n      pop\n        /* \"#utility.yul\":14857:14866   */\n      dup2\n        /* \"#utility.yul\":14851:14855   */\n      dup2\n        /* \"#utility.yul\":14847:14867   */\n      sub\n        /* \"#utility.yul\":14843:14844   */\n      0x00\n        /* \"#utility.yul\":14832:14841   */\n      dup4\n        /* \"#utility.yul\":14828:14845   */\n      add\n        /* \"#utility.yul\":14821:14868   */\n      mstore\n        /* \"#utility.yul\":14885:15016   */\n      tag_379\n        /* \"#utility.yul\":15011:15015   */\n      dup2\n        /* \"#utility.yul\":14885:15016   */\n      tag_249\n      jump\t// in\n    tag_379:\n        /* \"#utility.yul\":14877:15016   */\n      swap1\n      pop\n        /* \"#utility.yul\":14604:15023   */\n      swap2\n      swap1\n      pop\n      jump\t// out\n\n    auxdata: 0xa2646970667358221220f5d45d565caab424a262f22475caf0d00ebe785648eb3a13ed7bdb36303f20b964736f6c63430008130033\n}\n",
				"bytecode": {
					"linkReferences": {},
					"object": "60a06040523480156200001157600080fd5b5060405162001aec38038062001aec8339818101604052810190620000379190620001c8565b620000576200004b6200009260201b60201c565b6200009a60201b60201c565b8073ffffffffffffffffffffffffffffffffffffffff1660808173ffffffffffffffffffffffffffffffffffffffff168152505050620001fa565b600033905090565b60008060009054906101000a900473ffffffffffffffffffffffffffffffffffffffff169050816000806101000a81548173ffffffffffffffffffffffffffffffffffffffff021916908373ffffffffffffffffffffffffffffffffffffffff1602179055508173ffffffffffffffffffffffffffffffffffffffff168173ffffffffffffffffffffffffffffffffffffffff167f8be0079c531659141344cd1fd0a4f28419497f9722a3daafe3b4186f6b6457e060405160405180910390a35050565b600080fd5b600073ffffffffffffffffffffffffffffffffffffffff82169050919050565b6000620001908262000163565b9050919050565b620001a28162000183565b8114620001ae57600080fd5b50565b600081519050620001c28162000197565b92915050565b600060208284031215620001e157620001e06200015e565b5b6000620001f184828501620001b1565b91505092915050565b60805161189e6200024e6000396000818161028e0152818161032d015281816103bb01528181610798015281816108280152818161093401528181610a5f01528181610d570152610fac015261189e6000f3fe608060405234801561001057600080fd5b50600436106100ea5760003560e01c8063b060dd861161008c578063b973532111610066578063b9735321146101fd578063bc6bc0cd14610219578063f2fde38b14610237578063fa71496014610253576100ea565b8063b060dd86146101a7578063b8212177146101c5578063b9223c9d146101e1576100ea565b806333bf6156116100c857806333bf6156146101455780634af112b714610163578063715018a61461017f5780638da5cb5b14610189576100ea565b80630eecf97b146100ef57806312b89cd11461010b57806329ee566c14610127575b600080fd5b610109600480360381019061010491906111a7565b610284565b005b6101256004803603810190610120919061120e565b610323565b005b61012f6103b9565b60405161013c919061124a565b60405180910390f35b61014d6103dd565b60405161015a91906112a0565b60405180910390f35b61017d600480360381019061017891906111a7565b6103e8565b005b610187610597565b005b6101916105ab565b60405161019e919061124a565b60405180910390f35b6101af6105d4565b6040516101bc91906112a0565b60405180910390f35b6101df60048036038101906101da91906111a7565b6105df565b005b6101fb60048036038101906101f691906112bb565b61078e565b005b610217600480360381019061021291906111a7565b610824565b005b6102216109ca565b60405161022e91906112a0565b60405180910390f35b610251600480360381019061024c919061120e565b6109d5565b005b61026d6004803603810190610268919061120e565b610a58565b60405161027b929190611304565b60405180910390f35b61028c610cd5565b7f000000000000000000000000000000000000000000000000000000000000000073ffffffffffffffffffffffffffffffffffffffff16630eecf97b858585856040518563ffffffff1660e01b81526004016102eb949392919061133c565b600060405180830381600087803b15801561030557600080fd5b505af1158015610319573d6000803e3d6000fd5b5050505050505050565b61032b610cd5565b7f000000000000000000000000000000000000000000000000000000000000000073ffffffffffffffffffffffffffffffffffffffff1663f2fde38b826040518263ffffffff1660e01b8152600401610384919061124a565b600060405180830381600087803b15801561039e57600080fd5b505af11580156103b2573d6000803e3d6000fd5b5050505050565b7f000000000000000000000000000000000000000000000000000000000000000081565b63d9b67a2660e01b81565b8373ffffffffffffffffffffffffffffffffffffffff166301ffc9a7632a55205a60e01b6040518263ffffffff1660e01b815260040161042891906112a0565b602060405180830381865afa158015610445573d6000803e3d6000fd5b505050506040513d601f19601f8201168201806040525081019061046991906113b9565b156104a9576040517f08c379a00000000000000000000000000000000000000000000000000000000081526004016104a090611443565b60405180910390fd5b8373ffffffffffffffffffffffffffffffffffffffff16638da5cb5b6040518163ffffffff1660e01b8152600401602060405180830381865afa1580156104f4573d6000803e3d6000fd5b505050506040513d601f19601f820116820180604052508101906105189190611478565b73ffffffffffffffffffffffffffffffffffffffff163373ffffffffffffffffffffffffffffffffffffffff1614610585576040517f08c379a000000000000000000000000000000000000000000000000000000000815260040161057c906114f1565b60405180910390fd5b61059184848484610d53565b50505050565b61059f610cd5565b6105a96000611042565b565b60008060009054906101000a900473ffffffffffffffffffffffffffffffffffffffff16905090565b632a55205a60e01b81565b8373ffffffffffffffffffffffffffffffffffffffff166301ffc9a7632a55205a60e01b6040518263ffffffff1660e01b815260040161061f91906112a0565b602060405180830381865afa15801561063c573d6000803e3d6000fd5b505050506040513d601f19601f8201168201806040525081019061066091906113b9565b156106a0576040517f08c379a000000000000000000000000000000000000000000000000000000000815260040161069790611443565b60405180910390fd5b8373ffffffffffffffffffffffffffffffffffffffff1663f851a4406040518163ffffffff1660e01b8152600401602060405180830381865afa1580156106eb573d6000803e3d6000fd5b505050506040513d601f19601f8201168201806040525081019061070f9190611478565b73ffffffffffffffffffffffffffffffffffffffff163373ffffffffffffffffffffffffffffffffffffffff161461077c576040517f08c379a00000000000000000000000000000000000000000000000000000000081526004016107739061155d565b60405180910390fd5b61078884848484610d53565b50505050565b610796610cd5565b7f000000000000000000000000000000000000000000000000000000000000000073ffffffffffffffffffffffffffffffffffffffff1663b9223c9d826040518263ffffffff1660e01b81526004016107ef919061157d565b600060405180830381600087803b15801561080957600080fd5b505af115801561081d573d6000803e3d6000fd5b5050505050565b60007f000000000000000000000000000000000000000000000000000000000000000073ffffffffffffffffffffffffffffffffffffffff16632adc45e8866040518263ffffffff1660e01b815260040161087f919061124a565b606060405180830381865afa15801561089c573d6000803e3d6000fd5b505050506040513d601f19601f820116820180604052508101906108c091906115ad565b505090508073ffffffffffffffffffffffffffffffffffffffff163373ffffffffffffffffffffffffffffffffffffffff1614610932576040517f08c379a00000000000000000000000000000000000000000000000000000000081526004016109299061164c565b60405180910390fd5b7f000000000000000000000000000000000000000000000000000000000000000073ffffffffffffffffffffffffffffffffffffffff16630eecf97b868686866040518563ffffffff1660e01b8152600401610991949392919061133c565b600060405180830381600087803b1580156109ab57600080fd5b505af11580156109bf573d6000803e3d6000fd5b505050505050505050565b6380ac58cd60e01b81565b6109dd610cd5565b600073ffffffffffffffffffffffffffffffffffffffff168173ffffffffffffffffffffffffffffffffffffffff1603610a4c576040517f08c379a0000000000000000000000000000000000000000000000000000000008152600401610a43906116de565b60405180910390fd5b610a5581611042565b50565b60008060007f000000000000000000000000000000000000000000000000000000000000000073ffffffffffffffffffffffffffffffffffffffff16632adc45e8856040518263ffffffff1660e01b8152600401610ab6919061124a565b606060405180830381865afa158015610ad3573d6000803e3d6000fd5b505050506040513d601f19601f82011682018060405250810190610af791906115ad565b50509050600073ffffffffffffffffffffffffffffffffffffffff168173ffffffffffffffffffffffffffffffffffffffff1614610b3c578060009250925050610cd0565b8373ffffffffffffffffffffffffffffffffffffffff166301ffc9a7632a55205a60e01b6040518263ffffffff1660e01b8152600401610b7c91906112a0565b602060405180830381865afa925050508015610bb657506040513d601f19601f82011682018060405250810190610bb391906113b9565b60015b15610bd2578015610bd05760006001935093505050610cd0565b505b8373ffffffffffffffffffffffffffffffffffffffff16638da5cb5b6040518163ffffffff1660e01b8152600401602060405180830381865afa925050508015610c3a57506040513d601f19601f82011682018060405250810190610c379190611478565b60015b610cc6578373ffffffffffffffffffffffffffffffffffffffff1663f851a4406040518163ffffffff1660e01b8152600401602060405180830381865afa925050508015610ca657506040513d601f19601f82011682018060405250810190610ca39190611478565b60015b610cb857600060049250925050610cd0565b806003935093505050610cd0565b8060029350935050505b915091565b610cdd611106565b73ffffffffffffffffffffffffffffffffffffffff16610cfb6105ab565b73ffffffffffffffffffffffffffffffffffffffff1614610d51576040517f08c379a0000000000000000000000000000000000000000000000000000000008152600401610d489061174a565b60405180910390fd5b565b60007f000000000000000000000000000000000000000000000000000000000000000073ffffffffffffffffffffffffffffffffffffffff16632adc45e8866040518263ffffffff1660e01b8152600401610dae919061124a565b606060405180830381865afa158015610dcb573d6000803e3d6000fd5b505050506040513d601f19601f82011682018060405250810190610def91906115ad565b50509050600073ffffffffffffffffffffffffffffffffffffffff168173ffffffffffffffffffffffffffffffffffffffff1614610e62576040517f08c379a0000000000000000000000000000000000000000000000000000000008152600401610e59906117b6565b60405180910390fd5b8473ffffffffffffffffffffffffffffffffffffffff166301ffc9a76380ac58cd60e01b6040518263ffffffff1660e01b8152600401610ea291906112a0565b602060405180830381865afa158015610ebf573d6000803e3d6000fd5b505050506040513d601f19601f82011682018060405250810190610ee391906113b9565b80610f6b57508473ffffffffffffffffffffffffffffffffffffffff166301ffc9a763d9b67a2660e01b6040518263ffffffff1660e01b8152600401610f2991906112a0565b602060405180830381865afa158015610f46573d6000803e3d6000fd5b505050506040513d601f19601f82011682018060405250810190610f6a91906113b9565b5b610faa576040517f08c379a0000000000000000000000000000000000000000000000000000000008152600401610fa190611848565b60405180910390fd5b7f000000000000000000000000000000000000000000000000000000000000000073ffffffffffffffffffffffffffffffffffffffff16630eecf97b868686866040518563ffffffff1660e01b8152600401611009949392919061133c565b600060405180830381600087803b15801561102357600080fd5b505af1158015611037573d6000803e3d6000fd5b505050505050505050565b60008060009054906101000a900473ffffffffffffffffffffffffffffffffffffffff169050816000806101000a81548173ffffffffffffffffffffffffffffffffffffffff021916908373ffffffffffffffffffffffffffffffffffffffff1602179055508173ffffffffffffffffffffffffffffffffffffffff168173ffffffffffffffffffffffffffffffffffffffff167f8be0079c531659141344cd1fd0a4f28419497f9722a3daafe3b4186f6b6457e060405160405180910390a35050565b600033905090565b600080fd5b600073ffffffffffffffffffffffffffffffffffffffff82169050919050565b600061113e82611113565b9050919050565b61114e81611133565b811461115957600080fd5b50565b60008135905061116b81611145565b92915050565b6000819050919050565b61118481611171565b811461118f57600080fd5b50565b6000813590506111a18161117b565b92915050565b600080600080608085870312156111c1576111c061110e565b5b60006111cf8782880161115c565b94505060206111e08782880161115c565b93505060406111f18782880161115c565b925050606061120287828801611192565b91505092959194509250565b6000602082840312156112245761122361110e565b5b60006112328482850161115c565b91505092915050565b61124481611133565b82525050565b600060208201905061125f600083018461123b565b92915050565b60007fffffffff0000000000000000000000000000000000000000000000000000000082169050919050565b61129a81611265565b82525050565b60006020820190506112b56000830184611291565b92915050565b6000602082840312156112d1576112d061110e565b5b60006112df84828501611192565b91505092915050565b600060ff82169050919050565b6112fe816112e8565b82525050565b6000604082019050611319600083018561123b565b61132660208301846112f5565b9392505050565b61133681611171565b82525050565b6000608082019050611351600083018761123b565b61135e602083018661123b565b61136b604083018561123b565b611378606083018461132d565b95945050505050565b60008115159050919050565b61139681611381565b81146113a157600080fd5b50565b6000815190506113b38161138d565b92915050565b6000602082840312156113cf576113ce61110e565b5b60006113dd848285016113a4565b91505092915050565b600082825260208201905092915050565b7f416c726561647920537570706f72746564000000000000000000000000000000600082015250565b600061142d6011836113e6565b9150611438826113f7565b602082019050919050565b6000602082019050818103600083015261145c81611420565b9050919050565b60008151905061147281611145565b92915050565b60006020828403121561148e5761148d61110e565b5b600061149c84828501611463565b91505092915050565b7f4e6f74204f776e65720000000000000000000000000000000000000000000000600082015250565b60006114db6009836113e6565b91506114e6826114a5565b602082019050919050565b6000602082019050818103600083015261150a816114ce565b9050919050565b7f4e6f742041646d696e0000000000000000000000000000000000000000000000600082015250565b60006115476009836113e6565b915061155282611511565b602082019050919050565b600060208201905081810360008301526115768161153a565b9050919050565b6000602082019050611592600083018461132d565b92915050565b6000815190506115a78161117b565b92915050565b6000806000606084860312156115c6576115c561110e565b5b60006115d486828701611463565b93505060206115e586828701611463565b92505060406115f686828701611598565b9150509250925092565b7f4e6f742074686520536574746572000000000000000000000000000000000000600082015250565b6000611636600e836113e6565b915061164182611600565b602082019050919050565b6000602082019050818103600083015261166581611629565b9050919050565b7f4f776e61626c653a206e6577206f776e657220697320746865207a65726f206160008201527f6464726573730000000000000000000000000000000000000000000000000000602082015250565b60006116c86026836113e6565b91506116d38261166c565b604082019050919050565b600060208201905081810360008301526116f7816116bb565b9050919050565b7f4f776e61626c653a2063616c6c6572206973206e6f7420746865206f776e6572600082015250565b60006117346020836113e6565b915061173f826116fe565b602082019050919050565b6000602082019050818103600083015261176381611727565b9050919050565b7f416c72656164792052656769737420636f6c6c656374696f6e00000000000000600082015250565b60006117a06019836113e6565b91506117ab8261176a565b602082019050919050565b600060208201905081810360008301526117cf81611793565b9050919050565b7f5468697320636f6c6c656374696f6e206973206e6f74204552433732312f455260008201527f4331313535000000000000000000000000000000000000000000000000000000602082015250565b60006118326025836113e6565b915061183d826117d6565b604082019050919050565b6000602082019050818103600083015261186181611825565b905091905056fea2646970667358221220f5d45d565caab424a262f22475caf0d00ebe785648eb3a13ed7bdb36303f20b964736f6c63430008130033",
					"opcodes": "PUSH1 0xA0 PUSH1 0x40 MSTORE CALLVALUE DUP1 ISZERO PUSH3 0x11 JUMPI PUSH1 0x0 DUP1 REVERT JUMPDEST POP PUSH1 0x40 MLOAD PUSH3 0x1AEC CODESIZE SUB DUP1 PUSH3 0x1AEC DUP4 CODECOPY DUP2 DUP2 ADD PUSH1 0x40 MSTORE DUP2 ADD SWAP1 PUSH3 0x37 SWAP2 SWAP1 PUSH3 0x1C8 JUMP JUMPDEST PUSH3 0x57 PUSH3 0x4B PUSH3 0x92 PUSH1 0x20 SHL PUSH1 0x20 SHR JUMP JUMPDEST PUSH3 0x9A PUSH1 0x20 SHL PUSH1 0x20 SHR JUMP JUMPDEST DUP1 PUSH20 0xFFFFFFFFFFFFFFFFFFFFFFFFFFFFFFFFFFFFFFFF AND PUSH1 0x80 DUP2 PUSH20 0xFFFFFFFFFFFFFFFFFFFFFFFFFFFFFFFFFFFFFFFF AND DUP2 MSTORE POP POP POP PUSH3 0x1FA JUMP JUMPDEST PUSH1 0x0 CALLER SWAP1 POP SWAP1 JUMP JUMPDEST PUSH1 0x0 DUP1 PUSH1 0x0 SWAP1 SLOAD SWAP1 PUSH2 0x100 EXP SWAP1 DIV PUSH20 0xFFFFFFFFFFFFFFFFFFFFFFFFFFFFFFFFFFFFFFFF AND SWAP1 POP DUP2 PUSH1 0x0 DUP1 PUSH2 0x100 EXP DUP2 SLOAD DUP2 PUSH20 0xFFFFFFFFFFFFFFFFFFFFFFFFFFFFFFFFFFFFFFFF MUL NOT AND SWAP1 DUP4 PUSH20 0xFFFFFFFFFFFFFFFFFFFFFFFFFFFFFFFFFFFFFFFF AND MUL OR SWAP1 SSTORE POP DUP2 PUSH20 0xFFFFFFFFFFFFFFFFFFFFFFFFFFFFFFFFFFFFFFFF AND DUP2 PUSH20 0xFFFFFFFFFFFFFFFFFFFFFFFFFFFFFFFFFFFFFFFF AND PUSH32 0x8BE0079C531659141344CD1FD0A4F28419497F9722A3DAAFE3B4186F6B6457E0 PUSH1 0x40 MLOAD PUSH1 0x40 MLOAD DUP1 SWAP2 SUB SWAP1 LOG3 POP POP JUMP JUMPDEST PUSH1 0x0 DUP1 REVERT JUMPDEST PUSH1 0x0 PUSH20 0xFFFFFFFFFFFFFFFFFFFFFFFFFFFFFFFFFFFFFFFF DUP3 AND SWAP1 POP SWAP2 SWAP1 POP JUMP JUMPDEST PUSH1 0x0 PUSH3 0x190 DUP3 PUSH3 0x163 JUMP JUMPDEST SWAP1 POP SWAP2 SWAP1 POP JUMP JUMPDEST PUSH3 0x1A2 DUP2 PUSH3 0x183 JUMP JUMPDEST DUP2 EQ PUSH3 0x1AE JUMPI PUSH1 0x0 DUP1 REVERT JUMPDEST POP JUMP JUMPDEST PUSH1 0x0 DUP2 MLOAD SWAP1 POP PUSH3 0x1C2 DUP2 PUSH3 0x197 JUMP JUMPDEST SWAP3 SWAP2 POP POP JUMP JUMPDEST PUSH1 0x0 PUSH1 0x20 DUP3 DUP5 SUB SLT ISZERO PUSH3 0x1E1 JUMPI PUSH3 0x1E0 PUSH3 0x15E JUMP JUMPDEST JUMPDEST PUSH1 0x0 PUSH3 0x1F1 DUP5 DUP3 DUP6 ADD PUSH3 0x1B1 JUMP JUMPDEST SWAP2 POP POP SWAP3 SWAP2 POP POP JUMP JUMPDEST PUSH1 0x80 MLOAD PUSH2 0x189E PUSH3 0x24E PUSH1 0x0 CODECOPY PUSH1 0x0 DUP2 DUP2 PUSH2 0x28E ADD MSTORE DUP2 DUP2 PUSH2 0x32D ADD MSTORE DUP2 DUP2 PUSH2 0x3BB ADD MSTORE DUP2 DUP2 PUSH2 0x798 ADD MSTORE DUP2 DUP2 PUSH2 0x828 ADD MSTORE DUP2 DUP2 PUSH2 0x934 ADD MSTORE DUP2 DUP2 PUSH2 0xA5F ADD MSTORE DUP2 DUP2 PUSH2 0xD57 ADD MSTORE PUSH2 0xFAC ADD MSTORE PUSH2 0x189E PUSH1 0x0 RETURN INVALID PUSH1 0x80 PUSH1 0x40 MSTORE CALLVALUE DUP1 ISZERO PUSH2 0x10 JUMPI PUSH1 0x0 DUP1 REVERT JUMPDEST POP PUSH1 0x4 CALLDATASIZE LT PUSH2 0xEA JUMPI PUSH1 0x0 CALLDATALOAD PUSH1 0xE0 SHR DUP1 PUSH4 0xB060DD86 GT PUSH2 0x8C JUMPI DUP1 PUSH4 0xB9735321 GT PUSH2 0x66 JUMPI DUP1 PUSH4 0xB9735321 EQ PUSH2 0x1FD JUMPI DUP1 PUSH4 0xBC6BC0CD EQ PUSH2 0x219 JUMPI DUP1 PUSH4 0xF2FDE38B EQ PUSH2 0x237 JUMPI DUP1 PUSH4 0xFA714960 EQ PUSH2 0x253 JUMPI PUSH2 0xEA JUMP JUMPDEST DUP1 PUSH4 0xB060DD86 EQ PUSH2 0x1A7 JUMPI DUP1 PUSH4 0xB8212177 EQ PUSH2 0x1C5 JUMPI DUP1 PUSH4 0xB9223C9D EQ PUSH2 0x1E1 JUMPI PUSH2 0xEA JUMP JUMPDEST DUP1 PUSH4 0x33BF6156 GT PUSH2 0xC8 JUMPI DUP1 PUSH4 0x33BF6156 EQ PUSH2 0x145 JUMPI DUP1 PUSH4 0x4AF112B7 EQ PUSH2 0x163 JUMPI DUP1 PUSH4 0x715018A6 EQ PUSH2 0x17F JUMPI DUP1 PUSH4 0x8DA5CB5B EQ PUSH2 0x189 JUMPI PUSH2 0xEA JUMP JUMPDEST DUP1 PUSH4 0xEECF97B EQ PUSH2 0xEF JUMPI DUP1 PUSH4 0x12B89CD1 EQ PUSH2 0x10B JUMPI DUP1 PUSH4 0x29EE566C EQ PUSH2 0x127 JUMPI JUMPDEST PUSH1 0x0 DUP1 REVERT JUMPDEST PUSH2 0x109 PUSH1 0x4 DUP1 CALLDATASIZE SUB DUP2 ADD SWAP1 PUSH2 0x104 SWAP2 SWAP1 PUSH2 0x11A7 JUMP JUMPDEST PUSH2 0x284 JUMP JUMPDEST STOP JUMPDEST PUSH2 0x125 PUSH1 0x4 DUP1 CALLDATASIZE SUB DUP2 ADD SWAP1 PUSH2 0x120 SWAP2 SWAP1 PUSH2 0x120E JUMP JUMPDEST PUSH2 0x323 JUMP JUMPDEST STOP JUMPDEST PUSH2 0x12F PUSH2 0x3B9 JUMP JUMPDEST PUSH1 0x40 MLOAD PUSH2 0x13C SWAP2 SWAP1 PUSH2 0x124A JUMP JUMPDEST PUSH1 0x40 MLOAD DUP1 SWAP2 SUB SWAP1 RETURN JUMPDEST PUSH2 0x14D PUSH2 0x3DD JUMP JUMPDEST PUSH1 0x40 MLOAD PUSH2 0x15A SWAP2 SWAP1 PUSH2 0x12A0 JUMP JUMPDEST PUSH1 0x40 MLOAD DUP1 SWAP2 SUB SWAP1 RETURN JUMPDEST PUSH2 0x17D PUSH1 0x4 DUP1 CALLDATASIZE SUB DUP2 ADD SWAP1 PUSH2 0x178 SWAP2 SWAP1 PUSH2 0x11A7 JUMP JUMPDEST PUSH2 0x3E8 JUMP JUMPDEST STOP JUMPDEST PUSH2 0x187 PUSH2 0x597 JUMP JUMPDEST STOP JUMPDEST PUSH2 0x191 PUSH2 0x5AB JUMP JUMPDEST PUSH1 0x40 MLOAD PUSH2 0x19E SWAP2 SWAP1 PUSH2 0x124A JUMP JUMPDEST PUSH1 0x40 MLOAD DUP1 SWAP2 SUB SWAP1 RETURN JUMPDEST PUSH2 0x1AF PUSH2 0x5D4 JUMP JUMPDEST PUSH1 0x40 MLOAD PUSH2 0x1BC SWAP2 SWAP1 PUSH2 0x12A0 JUMP JUMPDEST PUSH1 0x40 MLOAD DUP1 SWAP2 SUB SWAP1 RETURN JUMPDEST PUSH2 0x1DF PUSH1 0x4 DUP1 CALLDATASIZE SUB DUP2 ADD SWAP1 PUSH2 0x1DA SWAP2 SWAP1 PUSH2 0x11A7 JUMP JUMPDEST PUSH2 0x5DF JUMP JUMPDEST STOP JUMPDEST PUSH2 0x1FB PUSH1 0x4 DUP1 CALLDATASIZE SUB DUP2 ADD SWAP1 PUSH2 0x1F6 SWAP2 SWAP1 PUSH2 0x12BB JUMP JUMPDEST PUSH2 0x78E JUMP JUMPDEST STOP JUMPDEST PUSH2 0x217 PUSH1 0x4 DUP1 CALLDATASIZE SUB DUP2 ADD SWAP1 PUSH2 0x212 SWAP2 SWAP1 PUSH2 0x11A7 JUMP JUMPDEST PUSH2 0x824 JUMP JUMPDEST STOP JUMPDEST PUSH2 0x221 PUSH2 0x9CA JUMP JUMPDEST PUSH1 0x40 MLOAD PUSH2 0x22E SWAP2 SWAP1 PUSH2 0x12A0 JUMP JUMPDEST PUSH1 0x40 MLOAD DUP1 SWAP2 SUB SWAP1 RETURN JUMPDEST PUSH2 0x251 PUSH1 0x4 DUP1 CALLDATASIZE SUB DUP2 ADD SWAP1 PUSH2 0x24C SWAP2 SWAP1 PUSH2 0x120E JUMP JUMPDEST PUSH2 0x9D5 JUMP JUMPDEST STOP JUMPDEST PUSH2 0x26D PUSH1 0x4 DUP1 CALLDATASIZE SUB DUP2 ADD SWAP1 PUSH2 0x268 SWAP2 SWAP1 PUSH2 0x120E JUMP JUMPDEST PUSH2 0xA58 JUMP JUMPDEST PUSH1 0x40 MLOAD PUSH2 0x27B SWAP3 SWAP2 SWAP1 PUSH2 0x1304 JUMP JUMPDEST PUSH1 0x40 MLOAD DUP1 SWAP2 SUB SWAP1 RETURN JUMPDEST PUSH2 0x28C PUSH2 0xCD5 JUMP JUMPDEST PUSH32 0x0 PUSH20 0xFFFFFFFFFFFFFFFFFFFFFFFFFFFFFFFFFFFFFFFF AND PUSH4 0xEECF97B DUP6 DUP6 DUP6 DUP6 PUSH1 0x40 MLOAD DUP6 PUSH4 0xFFFFFFFF AND PUSH1 0xE0 SHL DUP2 MSTORE PUSH1 0x4 ADD PUSH2 0x2EB SWAP5 SWAP4 SWAP3 SWAP2 SWAP1 PUSH2 0x133C JUMP JUMPDEST PUSH1 0x0 PUSH1 0x40 MLOAD DUP1 DUP4 SUB DUP2 PUSH1 0x0 DUP8 DUP1 EXTCODESIZE ISZERO DUP1 ISZERO PUSH2 0x305 JUMPI PUSH1 0x0 DUP1 REVERT JUMPDEST POP GAS CALL ISZERO DUP1 ISZERO PUSH2 0x319 JUMPI RETURNDATASIZE PUSH1 0x0 DUP1 RETURNDATACOPY RETURNDATASIZE PUSH1 0x0 REVERT JUMPDEST POP POP POP POP POP POP POP POP JUMP JUMPDEST PUSH2 0x32B PUSH2 0xCD5 JUMP JUMPDEST PUSH32 0x0 PUSH20 0xFFFFFFFFFFFFFFFFFFFFFFFFFFFFFFFFFFFFFFFF AND PUSH4 0xF2FDE38B DUP3 PUSH1 0x40 MLOAD DUP3 PUSH4 0xFFFFFFFF AND PUSH1 0xE0 SHL DUP2 MSTORE PUSH1 0x4 ADD PUSH2 0x384 SWAP2 SWAP1 PUSH2 0x124A JUMP JUMPDEST PUSH1 0x0 PUSH1 0x40 MLOAD DUP1 DUP4 SUB DUP2 PUSH1 0x0 DUP8 DUP1 EXTCODESIZE ISZERO DUP1 ISZERO PUSH2 0x39E JUMPI PUSH1 0x0 DUP1 REVERT JUMPDEST POP GAS CALL ISZERO DUP1 ISZERO PUSH2 0x3B2 JUMPI RETURNDATASIZE PUSH1 0x0 DUP1 RETURNDATACOPY RETURNDATASIZE PUSH1 0x0 REVERT JUMPDEST POP POP POP POP POP JUMP JUMPDEST PUSH32 0x0 DUP2 JUMP JUMPDEST PUSH4 0xD9B67A26 PUSH1 0xE0 SHL DUP2 JUMP JUMPDEST DUP4 PUSH20 0xFFFFFFFFFFFFFFFFFFFFFFFFFFFFFFFFFFFFFFFF AND PUSH4 0x1FFC9A7 PUSH4 0x2A55205A PUSH1 0xE0 SHL PUSH1 0x40 MLOAD DUP3 PUSH4 0xFFFFFFFF AND PUSH1 0xE0 SHL DUP2 MSTORE PUSH1 0x4 ADD PUSH2 0x428 SWAP2 SWAP1 PUSH2 0x12A0 JUMP JUMPDEST PUSH1 0x20 PUSH1 0x40 MLOAD DUP1 DUP4 SUB DUP2 DUP7 GAS STATICCALL ISZERO DUP1 ISZERO PUSH2 0x445 JUMPI RETURNDATASIZE PUSH1 0x0 DUP1 RETURNDATACOPY RETURNDATASIZE PUSH1 0x0 REVERT JUMPDEST POP POP POP POP PUSH1 0x40 MLOAD RETURNDATASIZE PUSH1 0x1F NOT PUSH1 0x1F DUP3 ADD AND DUP3 ADD DUP1 PUSH1 0x40 MSTORE POP DUP2 ADD SWAP1 PUSH2 0x469 SWAP2 SWAP1 PUSH2 0x13B9 JUMP JUMPDEST ISZERO PUSH2 0x4A9 JUMPI PUSH1 0x40 MLOAD PUSH32 0x8C379A000000000000000000000000000000000000000000000000000000000 DUP2 MSTORE PUSH1 0x4 ADD PUSH2 0x4A0 SWAP1 PUSH2 0x1443 JUMP JUMPDEST PUSH1 0x40 MLOAD DUP1 SWAP2 SUB SWAP1 REVERT JUMPDEST DUP4 PUSH20 0xFFFFFFFFFFFFFFFFFFFFFFFFFFFFFFFFFFFFFFFF AND PUSH4 0x8DA5CB5B PUSH1 0x40 MLOAD DUP2 PUSH4 0xFFFFFFFF AND PUSH1 0xE0 SHL DUP2 MSTORE PUSH1 0x4 ADD PUSH1 0x20 PUSH1 0x40 MLOAD DUP1 DUP4 SUB DUP2 DUP7 GAS STATICCALL ISZERO DUP1 ISZERO PUSH2 0x4F4 JUMPI RETURNDATASIZE PUSH1 0x0 DUP1 RETURNDATACOPY RETURNDATASIZE PUSH1 0x0 REVERT JUMPDEST POP POP POP POP PUSH1 0x40 MLOAD RETURNDATASIZE PUSH1 0x1F NOT PUSH1 0x1F DUP3 ADD AND DUP3 ADD DUP1 PUSH1 0x40 MSTORE POP DUP2 ADD SWAP1 PUSH2 0x518 SWAP2 SWAP1 PUSH2 0x1478 JUMP JUMPDEST PUSH20 0xFFFFFFFFFFFFFFFFFFFFFFFFFFFFFFFFFFFFFFFF AND CALLER PUSH20 0xFFFFFFFFFFFFFFFFFFFFFFFFFFFFFFFFFFFFFFFF AND EQ PUSH2 0x585 JUMPI PUSH1 0x40 MLOAD PUSH32 0x8C379A000000000000000000000000000000000000000000000000000000000 DUP2 MSTORE PUSH1 0x4 ADD PUSH2 0x57C SWAP1 PUSH2 0x14F1 JUMP JUMPDEST PUSH1 0x40 MLOAD DUP1 SWAP2 SUB SWAP1 REVERT JUMPDEST PUSH2 0x591 DUP5 DUP5 DUP5 DUP5 PUSH2 0xD53 JUMP JUMPDEST POP POP POP POP JUMP JUMPDEST PUSH2 0x59F PUSH2 0xCD5 JUMP JUMPDEST PUSH2 0x5A9 PUSH1 0x0 PUSH2 0x1042 JUMP JUMPDEST JUMP JUMPDEST PUSH1 0x0 DUP1 PUSH1 0x0 SWAP1 SLOAD SWAP1 PUSH2 0x100 EXP SWAP1 DIV PUSH20 0xFFFFFFFFFFFFFFFFFFFFFFFFFFFFFFFFFFFFFFFF AND SWAP1 POP SWAP1 JUMP JUMPDEST PUSH4 0x2A55205A PUSH1 0xE0 SHL DUP2 JUMP JUMPDEST DUP4 PUSH20 0xFFFFFFFFFFFFFFFFFFFFFFFFFFFFFFFFFFFFFFFF AND PUSH4 0x1FFC9A7 PUSH4 0x2A55205A PUSH1 0xE0 SHL PUSH1 0x40 MLOAD DUP3 PUSH4 0xFFFFFFFF AND PUSH1 0xE0 SHL DUP2 MSTORE PUSH1 0x4 ADD PUSH2 0x61F SWAP2 SWAP1 PUSH2 0x12A0 JUMP JUMPDEST PUSH1 0x20 PUSH1 0x40 MLOAD DUP1 DUP4 SUB DUP2 DUP7 GAS STATICCALL ISZERO DUP1 ISZERO PUSH2 0x63C JUMPI RETURNDATASIZE PUSH1 0x0 DUP1 RETURNDATACOPY RETURNDATASIZE PUSH1 0x0 REVERT JUMPDEST POP POP POP POP PUSH1 0x40 MLOAD RETURNDATASIZE PUSH1 0x1F NOT PUSH1 0x1F DUP3 ADD AND DUP3 ADD DUP1 PUSH1 0x40 MSTORE POP DUP2 ADD SWAP1 PUSH2 0x660 SWAP2 SWAP1 PUSH2 0x13B9 JUMP JUMPDEST ISZERO PUSH2 0x6A0 JUMPI PUSH1 0x40 MLOAD PUSH32 0x8C379A000000000000000000000000000000000000000000000000000000000 DUP2 MSTORE PUSH1 0x4 ADD PUSH2 0x697 SWAP1 PUSH2 0x1443 JUMP JUMPDEST PUSH1 0x40 MLOAD DUP1 SWAP2 SUB SWAP1 REVERT JUMPDEST DUP4 PUSH20 0xFFFFFFFFFFFFFFFFFFFFFFFFFFFFFFFFFFFFFFFF AND PUSH4 0xF851A440 PUSH1 0x40 MLOAD DUP2 PUSH4 0xFFFFFFFF AND PUSH1 0xE0 SHL DUP2 MSTORE PUSH1 0x4 ADD PUSH1 0x20 PUSH1 0x40 MLOAD DUP1 DUP4 SUB DUP2 DUP7 GAS STATICCALL ISZERO DUP1 ISZERO PUSH2 0x6EB JUMPI RETURNDATASIZE PUSH1 0x0 DUP1 RETURNDATACOPY RETURNDATASIZE PUSH1 0x0 REVERT JUMPDEST POP POP POP POP PUSH1 0x40 MLOAD RETURNDATASIZE PUSH1 0x1F NOT PUSH1 0x1F DUP3 ADD AND DUP3 ADD DUP1 PUSH1 0x40 MSTORE POP DUP2 ADD SWAP1 PUSH2 0x70F SWAP2 SWAP1 PUSH2 0x1478 JUMP JUMPDEST PUSH20 0xFFFFFFFFFFFFFFFFFFFFFFFFFFFFFFFFFFFFFFFF AND CALLER PUSH20 0xFFFFFFFFFFFFFFFFFFFFFFFFFFFFFFFFFFFFFFFF AND EQ PUSH2 0x77C JUMPI PUSH1 0x40 MLOAD PUSH32 0x8C379A000000000000000000000000000000000000000000000000000000000 DUP2 MSTORE PUSH1 0x4 ADD PUSH2 0x773 SWAP1 PUSH2 0x155D JUMP JUMPDEST PUSH1 0x40 MLOAD DUP1 SWAP2 SUB SWAP1 REVERT JUMPDEST PUSH2 0x788 DUP5 DUP5 DUP5 DUP5 PUSH2 0xD53 JUMP JUMPDEST POP POP POP POP JUMP JUMPDEST PUSH2 0x796 PUSH2 0xCD5 JUMP JUMPDEST PUSH32 0x0 PUSH20 0xFFFFFFFFFFFFFFFFFFFFFFFFFFFFFFFFFFFFFFFF AND PUSH4 0xB9223C9D DUP3 PUSH1 0x40 MLOAD DUP3 PUSH4 0xFFFFFFFF AND PUSH1 0xE0 SHL DUP2 MSTORE PUSH1 0x4 ADD PUSH2 0x7EF SWAP2 SWAP1 PUSH2 0x157D JUMP JUMPDEST PUSH1 0x0 PUSH1 0x40 MLOAD DUP1 DUP4 SUB DUP2 PUSH1 0x0 DUP8 DUP1 EXTCODESIZE ISZERO DUP1 ISZERO PUSH2 0x809 JUMPI PUSH1 0x0 DUP1 REVERT JUMPDEST POP GAS CALL ISZERO DUP1 ISZERO PUSH2 0x81D JUMPI RETURNDATASIZE PUSH1 0x0 DUP1 RETURNDATACOPY RETURNDATASIZE PUSH1 0x0 REVERT JUMPDEST POP POP POP POP POP JUMP JUMPDEST PUSH1 0x0 PUSH32 0x0 PUSH20 0xFFFFFFFFFFFFFFFFFFFFFFFFFFFFFFFFFFFFFFFF AND PUSH4 0x2ADC45E8 DUP7 PUSH1 0x40 MLOAD DUP3 PUSH4 0xFFFFFFFF AND PUSH1 0xE0 SHL DUP2 MSTORE PUSH1 0x4 ADD PUSH2 0x87F SWAP2 SWAP1 PUSH2 0x124A JUMP JUMPDEST PUSH1 0x60 PUSH1 0x40 MLOAD DUP1 DUP4 SUB DUP2 DUP7 GAS STATICCALL ISZERO DUP1 ISZERO PUSH2 0x89C JUMPI RETURNDATASIZE PUSH1 0x0 DUP1 RETURNDATACOPY RETURNDATASIZE PUSH1 0x0 REVERT JUMPDEST POP POP POP POP PUSH1 0x40 MLOAD RETURNDATASIZE PUSH1 0x1F NOT PUSH1 0x1F DUP3 ADD AND DUP3 ADD DUP1 PUSH1 0x40 MSTORE POP DUP2 ADD SWAP1 PUSH2 0x8C0 SWAP2 SWAP1 PUSH2 0x15AD JUMP JUMPDEST POP POP SWAP1 POP DUP1 PUSH20 0xFFFFFFFFFFFFFFFFFFFFFFFFFFFFFFFFFFFFFFFF AND CALLER PUSH20 0xFFFFFFFFFFFFFFFFFFFFFFFFFFFFFFFFFFFFFFFF AND EQ PUSH2 0x932 JUMPI PUSH1 0x40 MLOAD PUSH32 0x8C379A000000000000000000000000000000000000000000000000000000000 DUP2 MSTORE PUSH1 0x4 ADD PUSH2 0x929 SWAP1 PUSH2 0x164C JUMP JUMPDEST PUSH1 0x40 MLOAD DUP1 SWAP2 SUB SWAP1 REVERT JUMPDEST PUSH32 0x0 PUSH20 0xFFFFFFFFFFFFFFFFFFFFFFFFFFFFFFFFFFFFFFFF AND PUSH4 0xEECF97B DUP7 DUP7 DUP7 DUP7 PUSH1 0x40 MLOAD DUP6 PUSH4 0xFFFFFFFF AND PUSH1 0xE0 SHL DUP2 MSTORE PUSH1 0x4 ADD PUSH2 0x991 SWAP5 SWAP4 SWAP3 SWAP2 SWAP1 PUSH2 0x133C JUMP JUMPDEST PUSH1 0x0 PUSH1 0x40 MLOAD DUP1 DUP4 SUB DUP2 PUSH1 0x0 DUP8 DUP1 EXTCODESIZE ISZERO DUP1 ISZERO PUSH2 0x9AB JUMPI PUSH1 0x0 DUP1 REVERT JUMPDEST POP GAS CALL ISZERO DUP1 ISZERO PUSH2 0x9BF JUMPI RETURNDATASIZE PUSH1 0x0 DUP1 RETURNDATACOPY RETURNDATASIZE PUSH1 0x0 REVERT JUMPDEST POP POP POP POP POP POP POP POP POP JUMP JUMPDEST PUSH4 0x80AC58CD PUSH1 0xE0 SHL DUP2 JUMP JUMPDEST PUSH2 0x9DD PUSH2 0xCD5 JUMP JUMPDEST PUSH1 0x0 PUSH20 0xFFFFFFFFFFFFFFFFFFFFFFFFFFFFFFFFFFFFFFFF AND DUP2 PUSH20 0xFFFFFFFFFFFFFFFFFFFFFFFFFFFFFFFFFFFFFFFF AND SUB PUSH2 0xA4C JUMPI PUSH1 0x40 MLOAD PUSH32 0x8C379A000000000000000000000000000000000000000000000000000000000 DUP2 MSTORE PUSH1 0x4 ADD PUSH2 0xA43 SWAP1 PUSH2 0x16DE JUMP JUMPDEST PUSH1 0x40 MLOAD DUP1 SWAP2 SUB SWAP1 REVERT JUMPDEST PUSH2 0xA55 DUP2 PUSH2 0x1042 JUMP JUMPDEST POP JUMP JUMPDEST PUSH1 0x0 DUP1 PUSH1 0x0 PUSH32 0x0 PUSH20 0xFFFFFFFFFFFFFFFFFFFFFFFFFFFFFFFFFFFFFFFF AND PUSH4 0x2ADC45E8 DUP6 PUSH1 0x40 MLOAD DUP3 PUSH4 0xFFFFFFFF AND PUSH1 0xE0 SHL DUP2 MSTORE PUSH1 0x4 ADD PUSH2 0xAB6 SWAP2 SWAP1 PUSH2 0x124A JUMP JUMPDEST PUSH1 0x60 PUSH1 0x40 MLOAD DUP1 DUP4 SUB DUP2 DUP7 GAS STATICCALL ISZERO DUP1 ISZERO PUSH2 0xAD3 JUMPI RETURNDATASIZE PUSH1 0x0 DUP1 RETURNDATACOPY RETURNDATASIZE PUSH1 0x0 REVERT JUMPDEST POP POP POP POP PUSH1 0x40 MLOAD RETURNDATASIZE PUSH1 0x1F NOT PUSH1 0x1F DUP3 ADD AND DUP3 ADD DUP1 PUSH1 0x40 MSTORE POP DUP2 ADD SWAP1 PUSH2 0xAF7 SWAP2 SWAP1 PUSH2 0x15AD JUMP JUMPDEST POP POP SWAP1 POP PUSH1 0x0 PUSH20 0xFFFFFFFFFFFFFFFFFFFFFFFFFFFFFFFFFFFFFFFF AND DUP2 PUSH20 0xFFFFFFFFFFFFFFFFFFFFFFFFFFFFFFFFFFFFFFFF AND EQ PUSH2 0xB3C JUMPI DUP1 PUSH1 0x0 SWAP3 POP SWAP3 POP POP PUSH2 0xCD0 JUMP JUMPDEST DUP4 PUSH20 0xFFFFFFFFFFFFFFFFFFFFFFFFFFFFFFFFFFFFFFFF AND PUSH4 0x1FFC9A7 PUSH4 0x2A55205A PUSH1 0xE0 SHL PUSH1 0x40 MLOAD DUP3 PUSH4 0xFFFFFFFF AND PUSH1 0xE0 SHL DUP2 MSTORE PUSH1 0x4 ADD PUSH2 0xB7C SWAP2 SWAP1 PUSH2 0x12A0 JUMP JUMPDEST PUSH1 0x20 PUSH1 0x40 MLOAD DUP1 DUP4 SUB DUP2 DUP7 GAS STATICCALL SWAP3 POP POP POP DUP1 ISZERO PUSH2 0xBB6 JUMPI POP PUSH1 0x40 MLOAD RETURNDATASIZE PUSH1 0x1F NOT PUSH1 0x1F DUP3 ADD AND DUP3 ADD DUP1 PUSH1 0x40 MSTORE POP DUP2 ADD SWAP1 PUSH2 0xBB3 SWAP2 SWAP1 PUSH2 0x13B9 JUMP JUMPDEST PUSH1 0x1 JUMPDEST ISZERO PUSH2 0xBD2 JUMPI DUP1 ISZERO PUSH2 0xBD0 JUMPI PUSH1 0x0 PUSH1 0x1 SWAP4 POP SWAP4 POP POP POP PUSH2 0xCD0 JUMP JUMPDEST POP JUMPDEST DUP4 PUSH20 0xFFFFFFFFFFFFFFFFFFFFFFFFFFFFFFFFFFFFFFFF AND PUSH4 0x8DA5CB5B PUSH1 0x40 MLOAD DUP2 PUSH4 0xFFFFFFFF AND PUSH1 0xE0 SHL DUP2 MSTORE PUSH1 0x4 ADD PUSH1 0x20 PUSH1 0x40 MLOAD DUP1 DUP4 SUB DUP2 DUP7 GAS STATICCALL SWAP3 POP POP POP DUP1 ISZERO PUSH2 0xC3A JUMPI POP PUSH1 0x40 MLOAD RETURNDATASIZE PUSH1 0x1F NOT PUSH1 0x1F DUP3 ADD AND DUP3 ADD DUP1 PUSH1 0x40 MSTORE POP DUP2 ADD SWAP1 PUSH2 0xC37 SWAP2 SWAP1 PUSH2 0x1478 JUMP JUMPDEST PUSH1 0x1 JUMPDEST PUSH2 0xCC6 JUMPI DUP4 PUSH20 0xFFFFFFFFFFFFFFFFFFFFFFFFFFFFFFFFFFFFFFFF AND PUSH4 0xF851A440 PUSH1 0x40 MLOAD DUP2 PUSH4 0xFFFFFFFF AND PUSH1 0xE0 SHL DUP2 MSTORE PUSH1 0x4 ADD PUSH1 0x20 PUSH1 0x40 MLOAD DUP1 DUP4 SUB DUP2 DUP7 GAS STATICCALL SWAP3 POP POP POP DUP1 ISZERO PUSH2 0xCA6 JUMPI POP PUSH1 0x40 MLOAD RETURNDATASIZE PUSH1 0x1F NOT PUSH1 0x1F DUP3 ADD AND DUP3 ADD DUP1 PUSH1 0x40 MSTORE POP DUP2 ADD SWAP1 PUSH2 0xCA3 SWAP2 SWAP1 PUSH2 0x1478 JUMP JUMPDEST PUSH1 0x1 JUMPDEST PUSH2 0xCB8 JUMPI PUSH1 0x0 PUSH1 0x4 SWAP3 POP SWAP3 POP POP PUSH2 0xCD0 JUMP JUMPDEST DUP1 PUSH1 0x3 SWAP4 POP SWAP4 POP POP POP PUSH2 0xCD0 JUMP JUMPDEST DUP1 PUSH1 0x2 SWAP4 POP SWAP4 POP POP POP JUMPDEST SWAP2 POP SWAP2 JUMP JUMPDEST PUSH2 0xCDD PUSH2 0x1106 JUMP JUMPDEST PUSH20 0xFFFFFFFFFFFFFFFFFFFFFFFFFFFFFFFFFFFFFFFF AND PUSH2 0xCFB PUSH2 0x5AB JUMP JUMPDEST PUSH20 0xFFFFFFFFFFFFFFFFFFFFFFFFFFFFFFFFFFFFFFFF AND EQ PUSH2 0xD51 JUMPI PUSH1 0x40 MLOAD PUSH32 0x8C379A000000000000000000000000000000000000000000000000000000000 DUP2 MSTORE PUSH1 0x4 ADD PUSH2 0xD48 SWAP1 PUSH2 0x174A JUMP JUMPDEST PUSH1 0x40 MLOAD DUP1 SWAP2 SUB SWAP1 REVERT JUMPDEST JUMP JUMPDEST PUSH1 0x0 PUSH32 0x0 PUSH20 0xFFFFFFFFFFFFFFFFFFFFFFFFFFFFFFFFFFFFFFFF AND PUSH4 0x2ADC45E8 DUP7 PUSH1 0x40 MLOAD DUP3 PUSH4 0xFFFFFFFF AND PUSH1 0xE0 SHL DUP2 MSTORE PUSH1 0x4 ADD PUSH2 0xDAE SWAP2 SWAP1 PUSH2 0x124A JUMP JUMPDEST PUSH1 0x60 PUSH1 0x40 MLOAD DUP1 DUP4 SUB DUP2 DUP7 GAS STATICCALL ISZERO DUP1 ISZERO PUSH2 0xDCB JUMPI RETURNDATASIZE PUSH1 0x0 DUP1 RETURNDATACOPY RETURNDATASIZE PUSH1 0x0 REVERT JUMPDEST POP POP POP POP PUSH1 0x40 MLOAD RETURNDATASIZE PUSH1 0x1F NOT PUSH1 0x1F DUP3 ADD AND DUP3 ADD DUP1 PUSH1 0x40 MSTORE POP DUP2 ADD SWAP1 PUSH2 0xDEF SWAP2 SWAP1 PUSH2 0x15AD JUMP JUMPDEST POP POP SWAP1 POP PUSH1 0x0 PUSH20 0xFFFFFFFFFFFFFFFFFFFFFFFFFFFFFFFFFFFFFFFF AND DUP2 PUSH20 0xFFFFFFFFFFFFFFFFFFFFFFFFFFFFFFFFFFFFFFFF AND EQ PUSH2 0xE62 JUMPI PUSH1 0x40 MLOAD PUSH32 0x8C379A000000000000000000000000000000000000000000000000000000000 DUP2 MSTORE PUSH1 0x4 ADD PUSH2 0xE59 SWAP1 PUSH2 0x17B6 JUMP JUMPDEST PUSH1 0x40 MLOAD DUP1 SWAP2 SUB SWAP1 REVERT JUMPDEST DUP5 PUSH20 0xFFFFFFFFFFFFFFFFFFFFFFFFFFFFFFFFFFFFFFFF AND PUSH4 0x1FFC9A7 PUSH4 0x80AC58CD PUSH1 0xE0 SHL PUSH1 0x40 MLOAD DUP3 PUSH4 0xFFFFFFFF AND PUSH1 0xE0 SHL DUP2 MSTORE PUSH1 0x4 ADD PUSH2 0xEA2 SWAP2 SWAP1 PUSH2 0x12A0 JUMP JUMPDEST PUSH1 0x20 PUSH1 0x40 MLOAD DUP1 DUP4 SUB DUP2 DUP7 GAS STATICCALL ISZERO DUP1 ISZERO PUSH2 0xEBF JUMPI RETURNDATASIZE PUSH1 0x0 DUP1 RETURNDATACOPY RETURNDATASIZE PUSH1 0x0 REVERT JUMPDEST POP POP POP POP PUSH1 0x40 MLOAD RETURNDATASIZE PUSH1 0x1F NOT PUSH1 0x1F DUP3 ADD AND DUP3 ADD DUP1 PUSH1 0x40 MSTORE POP DUP2 ADD SWAP1 PUSH2 0xEE3 SWAP2 SWAP1 PUSH2 0x13B9 JUMP JUMPDEST DUP1 PUSH2 0xF6B JUMPI POP DUP5 PUSH20 0xFFFFFFFFFFFFFFFFFFFFFFFFFFFFFFFFFFFFFFFF AND PUSH4 0x1FFC9A7 PUSH4 0xD9B67A26 PUSH1 0xE0 SHL PUSH1 0x40 MLOAD DUP3 PUSH4 0xFFFFFFFF AND PUSH1 0xE0 SHL DUP2 MSTORE PUSH1 0x4 ADD PUSH2 0xF29 SWAP2 SWAP1 PUSH2 0x12A0 JUMP JUMPDEST PUSH1 0x20 PUSH1 0x40 MLOAD DUP1 DUP4 SUB DUP2 DUP7 GAS STATICCALL ISZERO DUP1 ISZERO PUSH2 0xF46 JUMPI RETURNDATASIZE PUSH1 0x0 DUP1 RETURNDATACOPY RETURNDATASIZE PUSH1 0x0 REVERT JUMPDEST POP POP POP POP PUSH1 0x40 MLOAD RETURNDATASIZE PUSH1 0x1F NOT PUSH1 0x1F DUP3 ADD AND DUP3 ADD DUP1 PUSH1 0x40 MSTORE POP DUP2 ADD SWAP1 PUSH2 0xF6A SWAP2 SWAP1 PUSH2 0x13B9 JUMP JUMPDEST JUMPDEST PUSH2 0xFAA JUMPI PUSH1 0x40 MLOAD PUSH32 0x8C379A000000000000000000000000000000000000000000000000000000000 DUP2 MSTORE PUSH1 0x4 ADD PUSH2 0xFA1 SWAP1 PUSH2 0x1848 JUMP JUMPDEST PUSH1 0x40 MLOAD DUP1 SWAP2 SUB SWAP1 REVERT JUMPDEST PUSH32 0x0 PUSH20 0xFFFFFFFFFFFFFFFFFFFFFFFFFFFFFFFFFFFFFFFF AND PUSH4 0xEECF97B DUP7 DUP7 DUP7 DUP7 PUSH1 0x40 MLOAD DUP6 PUSH4 0xFFFFFFFF AND PUSH1 0xE0 SHL DUP2 MSTORE PUSH1 0x4 ADD PUSH2 0x1009 SWAP5 SWAP4 SWAP3 SWAP2 SWAP1 PUSH2 0x133C JUMP JUMPDEST PUSH1 0x0 PUSH1 0x40 MLOAD DUP1 DUP4 SUB DUP2 PUSH1 0x0 DUP8 DUP1 EXTCODESIZE ISZERO DUP1 ISZERO PUSH2 0x1023 JUMPI PUSH1 0x0 DUP1 REVERT JUMPDEST POP GAS CALL ISZERO DUP1 ISZERO PUSH2 0x1037 JUMPI RETURNDATASIZE PUSH1 0x0 DUP1 RETURNDATACOPY RETURNDATASIZE PUSH1 0x0 REVERT JUMPDEST POP POP POP POP POP POP POP POP POP JUMP JUMPDEST PUSH1 0x0 DUP1 PUSH1 0x0 SWAP1 SLOAD SWAP1 PUSH2 0x100 EXP SWAP1 DIV PUSH20 0xFFFFFFFFFFFFFFFFFFFFFFFFFFFFFFFFFFFFFFFF AND SWAP1 POP DUP2 PUSH1 0x0 DUP1 PUSH2 0x100 EXP DUP2 SLOAD DUP2 PUSH20 0xFFFFFFFFFFFFFFFFFFFFFFFFFFFFFFFFFFFFFFFF MUL NOT AND SWAP1 DUP4 PUSH20 0xFFFFFFFFFFFFFFFFFFFFFFFFFFFFFFFFFFFFFFFF AND MUL OR SWAP1 SSTORE POP DUP2 PUSH20 0xFFFFFFFFFFFFFFFFFFFFFFFFFFFFFFFFFFFFFFFF AND DUP2 PUSH20 0xFFFFFFFFFFFFFFFFFFFFFFFFFFFFFFFFFFFFFFFF AND PUSH32 0x8BE0079C531659141344CD1FD0A4F28419497F9722A3DAAFE3B4186F6B6457E0 PUSH1 0x40 MLOAD PUSH1 0x40 MLOAD DUP1 SWAP2 SUB SWAP1 LOG3 POP POP JUMP JUMPDEST PUSH1 0x0 CALLER SWAP1 POP SWAP1 JUMP JUMPDEST PUSH1 0x0 DUP1 REVERT JUMPDEST PUSH1 0x0 PUSH20 0xFFFFFFFFFFFFFFFFFFFFFFFFFFFFFFFFFFFFFFFF DUP3 AND SWAP1 POP SWAP2 SWAP1 POP JUMP JUMPDEST PUSH1 0x0 PUSH2 0x113E DUP3 PUSH2 0x1113 JUMP JUMPDEST SWAP1 POP SWAP2 SWAP1 POP JUMP JUMPDEST PUSH2 0x114E DUP2 PUSH2 0x1133 JUMP JUMPDEST DUP2 EQ PUSH2 0x1159 JUMPI PUSH1 0x0 DUP1 REVERT JUMPDEST POP JUMP JUMPDEST PUSH1 0x0 DUP2 CALLDATALOAD SWAP1 POP PUSH2 0x116B DUP2 PUSH2 0x1145 JUMP JUMPDEST SWAP3 SWAP2 POP POP JUMP JUMPDEST PUSH1 0x0 DUP2 SWAP1 POP SWAP2 SWAP1 POP JUMP JUMPDEST PUSH2 0x1184 DUP2 PUSH2 0x1171 JUMP JUMPDEST DUP2 EQ PUSH2 0x118F JUMPI PUSH1 0x0 DUP1 REVERT JUMPDEST POP JUMP JUMPDEST PUSH1 0x0 DUP2 CALLDATALOAD SWAP1 POP PUSH2 0x11A1 DUP2 PUSH2 0x117B JUMP JUMPDEST SWAP3 SWAP2 POP POP JUMP JUMPDEST PUSH1 0x0 DUP1 PUSH1 0x0 DUP1 PUSH1 0x80 DUP6 DUP8 SUB SLT ISZERO PUSH2 0x11C1 JUMPI PUSH2 0x11C0 PUSH2 0x110E JUMP JUMPDEST JUMPDEST PUSH1 0x0 PUSH2 0x11CF DUP8 DUP3 DUP9 ADD PUSH2 0x115C JUMP JUMPDEST SWAP5 POP POP PUSH1 0x20 PUSH2 0x11E0 DUP8 DUP3 DUP9 ADD PUSH2 0x115C JUMP JUMPDEST SWAP4 POP POP PUSH1 0x40 PUSH2 0x11F1 DUP8 DUP3 DUP9 ADD PUSH2 0x115C JUMP JUMPDEST SWAP3 POP POP PUSH1 0x60 PUSH2 0x1202 DUP8 DUP3 DUP9 ADD PUSH2 0x1192 JUMP JUMPDEST SWAP2 POP POP SWAP3 SWAP6 SWAP2 SWAP5 POP SWAP3 POP JUMP JUMPDEST PUSH1 0x0 PUSH1 0x20 DUP3 DUP5 SUB SLT ISZERO PUSH2 0x1224 JUMPI PUSH2 0x1223 PUSH2 0x110E JUMP JUMPDEST JUMPDEST PUSH1 0x0 PUSH2 0x1232 DUP5 DUP3 DUP6 ADD PUSH2 0x115C JUMP JUMPDEST SWAP2 POP POP SWAP3 SWAP2 POP POP JUMP JUMPDEST PUSH2 0x1244 DUP2 PUSH2 0x1133 JUMP JUMPDEST DUP3 MSTORE POP POP JUMP JUMPDEST PUSH1 0x0 PUSH1 0x20 DUP3 ADD SWAP1 POP PUSH2 0x125F PUSH1 0x0 DUP4 ADD DUP5 PUSH2 0x123B JUMP JUMPDEST SWAP3 SWAP2 POP POP JUMP JUMPDEST PUSH1 0x0 PUSH32 0xFFFFFFFF00000000000000000000000000000000000000000000000000000000 DUP3 AND SWAP1 POP SWAP2 SWAP1 POP JUMP JUMPDEST PUSH2 0x129A DUP2 PUSH2 0x1265 JUMP JUMPDEST DUP3 MSTORE POP POP JUMP JUMPDEST PUSH1 0x0 PUSH1 0x20 DUP3 ADD SWAP1 POP PUSH2 0x12B5 PUSH1 0x0 DUP4 ADD DUP5 PUSH2 0x1291 JUMP JUMPDEST SWAP3 SWAP2 POP POP JUMP JUMPDEST PUSH1 0x0 PUSH1 0x20 DUP3 DUP5 SUB SLT ISZERO PUSH2 0x12D1 JUMPI PUSH2 0x12D0 PUSH2 0x110E JUMP JUMPDEST JUMPDEST PUSH1 0x0 PUSH2 0x12DF DUP5 DUP3 DUP6 ADD PUSH2 0x1192 JUMP JUMPDEST SWAP2 POP POP SWAP3 SWAP2 POP POP JUMP JUMPDEST PUSH1 0x0 PUSH1 0xFF DUP3 AND SWAP1 POP SWAP2 SWAP1 POP JUMP JUMPDEST PUSH2 0x12FE DUP2 PUSH2 0x12E8 JUMP JUMPDEST DUP3 MSTORE POP POP JUMP JUMPDEST PUSH1 0x0 PUSH1 0x40 DUP3 ADD SWAP1 POP PUSH2 0x1319 PUSH1 0x0 DUP4 ADD DUP6 PUSH2 0x123B JUMP JUMPDEST PUSH2 0x1326 PUSH1 0x20 DUP4 ADD DUP5 PUSH2 0x12F5 JUMP JUMPDEST SWAP4 SWAP3 POP POP POP JUMP JUMPDEST PUSH2 0x1336 DUP2 PUSH2 0x1171 JUMP JUMPDEST DUP3 MSTORE POP POP JUMP JUMPDEST PUSH1 0x0 PUSH1 0x80 DUP3 ADD SWAP1 POP PUSH2 0x1351 PUSH1 0x0 DUP4 ADD DUP8 PUSH2 0x123B JUMP JUMPDEST PUSH2 0x135E PUSH1 0x20 DUP4 ADD DUP7 PUSH2 0x123B JUMP JUMPDEST PUSH2 0x136B PUSH1 0x40 DUP4 ADD DUP6 PUSH2 0x123B JUMP JUMPDEST PUSH2 0x1378 PUSH1 0x60 DUP4 ADD DUP5 PUSH2 0x132D JUMP JUMPDEST SWAP6 SWAP5 POP POP POP POP POP JUMP JUMPDEST PUSH1 0x0 DUP2 ISZERO ISZERO SWAP1 POP SWAP2 SWAP1 POP JUMP JUMPDEST PUSH2 0x1396 DUP2 PUSH2 0x1381 JUMP JUMPDEST DUP2 EQ PUSH2 0x13A1 JUMPI PUSH1 0x0 DUP1 REVERT JUMPDEST POP JUMP JUMPDEST PUSH1 0x0 DUP2 MLOAD SWAP1 POP PUSH2 0x13B3 DUP2 PUSH2 0x138D JUMP JUMPDEST SWAP3 SWAP2 POP POP JUMP JUMPDEST PUSH1 0x0 PUSH1 0x20 DUP3 DUP5 SUB SLT ISZERO PUSH2 0x13CF JUMPI PUSH2 0x13CE PUSH2 0x110E JUMP JUMPDEST JUMPDEST PUSH1 0x0 PUSH2 0x13DD DUP5 DUP3 DUP6 ADD PUSH2 0x13A4 JUMP JUMPDEST SWAP2 POP POP SWAP3 SWAP2 POP POP JUMP JUMPDEST PUSH1 0x0 DUP3 DUP3 MSTORE PUSH1 0x20 DUP3 ADD SWAP1 POP SWAP3 SWAP2 POP POP JUMP JUMPDEST PUSH32 0x416C726561647920537570706F72746564000000000000000000000000000000 PUSH1 0x0 DUP3 ADD MSTORE POP JUMP JUMPDEST PUSH1 0x0 PUSH2 0x142D PUSH1 0x11 DUP4 PUSH2 0x13E6 JUMP JUMPDEST SWAP2 POP PUSH2 0x1438 DUP3 PUSH2 0x13F7 JUMP JUMPDEST PUSH1 0x20 DUP3 ADD SWAP1 POP SWAP2 SWAP1 POP JUMP JUMPDEST PUSH1 0x0 PUSH1 0x20 DUP3 ADD SWAP1 POP DUP2 DUP2 SUB PUSH1 0x0 DUP4 ADD MSTORE PUSH2 0x145C DUP2 PUSH2 0x1420 JUMP JUMPDEST SWAP1 POP SWAP2 SWAP1 POP JUMP JUMPDEST PUSH1 0x0 DUP2 MLOAD SWAP1 POP PUSH2 0x1472 DUP2 PUSH2 0x1145 JUMP JUMPDEST SWAP3 SWAP2 POP POP JUMP JUMPDEST PUSH1 0x0 PUSH1 0x20 DUP3 DUP5 SUB SLT ISZERO PUSH2 0x148E JUMPI PUSH2 0x148D PUSH2 0x110E JUMP JUMPDEST JUMPDEST PUSH1 0x0 PUSH2 0x149C DUP5 DUP3 DUP6 ADD PUSH2 0x1463 JUMP JUMPDEST SWAP2 POP POP SWAP3 SWAP2 POP POP JUMP JUMPDEST PUSH32 0x4E6F74204F776E65720000000000000000000000000000000000000000000000 PUSH1 0x0 DUP3 ADD MSTORE POP JUMP JUMPDEST PUSH1 0x0 PUSH2 0x14DB PUSH1 0x9 DUP4 PUSH2 0x13E6 JUMP JUMPDEST SWAP2 POP PUSH2 0x14E6 DUP3 PUSH2 0x14A5 JUMP JUMPDEST PUSH1 0x20 DUP3 ADD SWAP1 POP SWAP2 SWAP1 POP JUMP JUMPDEST PUSH1 0x0 PUSH1 0x20 DUP3 ADD SWAP1 POP DUP2 DUP2 SUB PUSH1 0x0 DUP4 ADD MSTORE PUSH2 0x150A DUP2 PUSH2 0x14CE JUMP JUMPDEST SWAP1 POP SWAP2 SWAP1 POP JUMP JUMPDEST PUSH32 0x4E6F742041646D696E0000000000000000000000000000000000000000000000 PUSH1 0x0 DUP3 ADD MSTORE POP JUMP JUMPDEST PUSH1 0x0 PUSH2 0x1547 PUSH1 0x9 DUP4 PUSH2 0x13E6 JUMP JUMPDEST SWAP2 POP PUSH2 0x1552 DUP3 PUSH2 0x1511 JUMP JUMPDEST PUSH1 0x20 DUP3 ADD SWAP1 POP SWAP2 SWAP1 POP JUMP JUMPDEST PUSH1 0x0 PUSH1 0x20 DUP3 ADD SWAP1 POP DUP2 DUP2 SUB PUSH1 0x0 DUP4 ADD MSTORE PUSH2 0x1576 DUP2 PUSH2 0x153A JUMP JUMPDEST SWAP1 POP SWAP2 SWAP1 POP JUMP JUMPDEST PUSH1 0x0 PUSH1 0x20 DUP3 ADD SWAP1 POP PUSH2 0x1592 PUSH1 0x0 DUP4 ADD DUP5 PUSH2 0x132D JUMP JUMPDEST SWAP3 SWAP2 POP POP JUMP JUMPDEST PUSH1 0x0 DUP2 MLOAD SWAP1 POP PUSH2 0x15A7 DUP2 PUSH2 0x117B JUMP JUMPDEST SWAP3 SWAP2 POP POP JUMP JUMPDEST PUSH1 0x0 DUP1 PUSH1 0x0 PUSH1 0x60 DUP5 DUP7 SUB SLT ISZERO PUSH2 0x15C6 JUMPI PUSH2 0x15C5 PUSH2 0x110E JUMP JUMPDEST JUMPDEST PUSH1 0x0 PUSH2 0x15D4 DUP7 DUP3 DUP8 ADD PUSH2 0x1463 JUMP JUMPDEST SWAP4 POP POP PUSH1 0x20 PUSH2 0x15E5 DUP7 DUP3 DUP8 ADD PUSH2 0x1463 JUMP JUMPDEST SWAP3 POP POP PUSH1 0x40 PUSH2 0x15F6 DUP7 DUP3 DUP8 ADD PUSH2 0x1598 JUMP JUMPDEST SWAP2 POP POP SWAP3 POP SWAP3 POP SWAP3 JUMP JUMPDEST PUSH32 0x4E6F742074686520536574746572000000000000000000000000000000000000 PUSH1 0x0 DUP3 ADD MSTORE POP JUMP JUMPDEST PUSH1 0x0 PUSH2 0x1636 PUSH1 0xE DUP4 PUSH2 0x13E6 JUMP JUMPDEST SWAP2 POP PUSH2 0x1641 DUP3 PUSH2 0x1600 JUMP JUMPDEST PUSH1 0x20 DUP3 ADD SWAP1 POP SWAP2 SWAP1 POP JUMP JUMPDEST PUSH1 0x0 PUSH1 0x20 DUP3 ADD SWAP1 POP DUP2 DUP2 SUB PUSH1 0x0 DUP4 ADD MSTORE PUSH2 0x1665 DUP2 PUSH2 0x1629 JUMP JUMPDEST SWAP1 POP SWAP2 SWAP1 POP JUMP JUMPDEST PUSH32 0x4F776E61626C653A206E6577206F776E657220697320746865207A65726F2061 PUSH1 0x0 DUP3 ADD MSTORE PUSH32 0x6464726573730000000000000000000000000000000000000000000000000000 PUSH1 0x20 DUP3 ADD MSTORE POP JUMP JUMPDEST PUSH1 0x0 PUSH2 0x16C8 PUSH1 0x26 DUP4 PUSH2 0x13E6 JUMP JUMPDEST SWAP2 POP PUSH2 0x16D3 DUP3 PUSH2 0x166C JUMP JUMPDEST PUSH1 0x40 DUP3 ADD SWAP1 POP SWAP2 SWAP1 POP JUMP JUMPDEST PUSH1 0x0 PUSH1 0x20 DUP3 ADD SWAP1 POP DUP2 DUP2 SUB PUSH1 0x0 DUP4 ADD MSTORE PUSH2 0x16F7 DUP2 PUSH2 0x16BB JUMP JUMPDEST SWAP1 POP SWAP2 SWAP1 POP JUMP JUMPDEST PUSH32 0x4F776E61626C653A2063616C6C6572206973206E6F7420746865206F776E6572 PUSH1 0x0 DUP3 ADD MSTORE POP JUMP JUMPDEST PUSH1 0x0 PUSH2 0x1734 PUSH1 0x20 DUP4 PUSH2 0x13E6 JUMP JUMPDEST SWAP2 POP PUSH2 0x173F DUP3 PUSH2 0x16FE JUMP JUMPDEST PUSH1 0x20 DUP3 ADD SWAP1 POP SWAP2 SWAP1 POP JUMP JUMPDEST PUSH1 0x0 PUSH1 0x20 DUP3 ADD SWAP1 POP DUP2 DUP2 SUB PUSH1 0x0 DUP4 ADD MSTORE PUSH2 0x1763 DUP2 PUSH2 0x1727 JUMP JUMPDEST SWAP1 POP SWAP2 SWAP1 POP JUMP JUMPDEST PUSH32 0x416C72656164792052656769737420636F6C6C656374696F6E00000000000000 PUSH1 0x0 DUP3 ADD MSTORE POP JUMP JUMPDEST PUSH1 0x0 PUSH2 0x17A0 PUSH1 0x19 DUP4 PUSH2 0x13E6 JUMP JUMPDEST SWAP2 POP PUSH2 0x17AB DUP3 PUSH2 0x176A JUMP JUMPDEST PUSH1 0x20 DUP3 ADD SWAP1 POP SWAP2 SWAP1 POP JUMP JUMPDEST PUSH1 0x0 PUSH1 0x20 DUP3 ADD SWAP1 POP DUP2 DUP2 SUB PUSH1 0x0 DUP4 ADD MSTORE PUSH2 0x17CF DUP2 PUSH2 0x1793 JUMP JUMPDEST SWAP1 POP SWAP2 SWAP1 POP JUMP JUMPDEST PUSH32 0x5468697320636F6C6C656374696F6E206973206E6F74204552433732312F4552 PUSH1 0x0 DUP3 ADD MSTORE PUSH32 0x4331313535000000000000000000000000000000000000000000000000000000 PUSH1 0x20 DUP3 ADD MSTORE POP JUMP JUMPDEST PUSH1 0x0 PUSH2 0x1832 PUSH1 0x25 DUP4 PUSH2 0x13E6 JUMP JUMPDEST SWAP2 POP PUSH2 0x183D DUP3 PUSH2 0x17D6 JUMP JUMPDEST PUSH1 0x40 DUP3 ADD SWAP1 POP SWAP2 SWAP1 POP JUMP JUMPDEST PUSH1 0x0 PUSH1 0x20 DUP3 ADD SWAP1 POP DUP2 DUP2 SUB PUSH1 0x0 DUP4 ADD MSTORE PUSH2 0x1861 DUP2 PUSH2 0x1825 JUMP JUMPDEST SWAP1 POP SWAP2 SWAP1 POP JUMP INVALID LOG2 PUSH5 0x6970667358 0x22 SLT KECCAK256 CREATE2 0xD4 0x5D JUMP 0x5C 0xAA 0xB4 0x24 LOG2 PUSH3 0xF22475 0xCA CREATE 0xD0 0xE 0xBE PUSH25 0x5648EB3A13ED7BDB36303F20B964736F6C6343000813003300 "
				},
				"gasEstimates": {
					"creation": {
						"codeDepositCost": "1260400",
						"executionCost": "infinite",
						"totalCost": "infinite"
					},
					"external": {
						"INTERFACE_ID_ERC1155()": "364",
						"INTERFACE_ID_ERC2981()": "364",
						"INTERFACE_ID_ERC721()": "385",
						"checkForCollectionSubmission(address)": "infinite",
						"owner()": "2611",
						"renounceOwnership()": "30465",
						"royalty()": "infinite",
						"transferOwnership(address)": "30810",
						"updateOwnerOfRoyalty(address)": "infinite",
						"updateRoyaltyFeeLimit(uint256)": "infinite",
						"updateRoyaltyIfAdmin(address,address,address,uint256)": "infinite",
						"updateRoyaltyIfOwner(address,address,address,uint256)": "infinite",
						"updateRoyaltyIfSetter(address,address,address,uint256)": "infinite",
						"updateRoyaltyInfo(address,address,address,uint256)": "infinite"
					},
					"internal": {
						"_updateRoyaltyInfoIfOwnerOrAdmin(address,address,address,uint256)": "infinite"
					}
				},
				"methodIdentifiers": {
					"INTERFACE_ID_ERC1155()": "33bf6156",
					"INTERFACE_ID_ERC2981()": "b060dd86",
					"INTERFACE_ID_ERC721()": "bc6bc0cd",
					"checkForCollectionSubmission(address)": "fa714960",
					"owner()": "8da5cb5b",
					"renounceOwnership()": "715018a6",
					"royalty()": "29ee566c",
					"transferOwnership(address)": "f2fde38b",
					"updateOwnerOfRoyalty(address)": "12b89cd1",
					"updateRoyaltyFeeLimit(uint256)": "b9223c9d",
					"updateRoyaltyIfAdmin(address,address,address,uint256)": "b8212177",
					"updateRoyaltyIfOwner(address,address,address,uint256)": "4af112b7",
					"updateRoyaltyIfSetter(address,address,address,uint256)": "b9735321",
					"updateRoyaltyInfo(address,address,address,uint256)": "0eecf97b"
				}
			},
			"storageLayout": {
				"storage": [
					{
						"astId": 7,
						"contract": "hardhat/contracts/royalty/RoyaltySubmission.sol:RoyaltySubmission",
						"label": "_owner",
						"offset": 0,
						"slot": "0",
						"type": "t_address"
					}
				],
				"types": {
					"t_address": {
						"encoding": "inplace",
						"label": "address",
						"numberOfBytes": "20"
					}
				}
			},
			"userdoc": {
				"kind": "user",
				"methods": {
					"checkForCollectionSubmission(address)": {
						"notice": "0 => 이미 Edem에 등록된 로열티 contractAddress 등록할 필요가 없음 1 => 해당 NFT 컨트랙트는 royalty를 지원하고 있음 2 => 해당 컨트랙트 주소의 owner 주소를 반환 3 => 해당 컨트랙트 주소의 admin 주소를 반환 4 => 해당 컨트랙트 주인이 아님"
					}
				},
				"version": 1
			}
		}
	}
}