{
	"hardhat/contracts/royalty/Royalty.sol": {
		"Royalty": {
			"abi": [
				{
					"inputs": [
						{
							"internalType": "uint256",
							"name": "_royaltyFeeLimit",
							"type": "uint256"
						}
					],
					"stateMutability": "nonpayable",
					"type": "constructor"
				},
				{
					"anonymous": false,
					"inputs": [
						{
							"indexed": false,
							"internalType": "uint256",
							"name": "royaltyFeeLimit",
							"type": "uint256"
						}
					],
					"name": "NewRoyaltyFeeLimit",
					"type": "event"
				},
				{
					"anonymous": false,
					"inputs": [
						{
							"indexed": true,
							"internalType": "address",
							"name": "previousOwner",
							"type": "address"
						},
						{
							"indexed": true,
							"internalType": "address",
							"name": "newOwner",
							"type": "address"
						}
					],
					"name": "OwnershipTransferred",
					"type": "event"
				},
				{
					"anonymous": false,
					"inputs": [
						{
							"indexed": true,
							"internalType": "address",
							"name": "collection",
							"type": "address"
						},
						{
							"indexed": true,
							"internalType": "address",
							"name": "setter",
							"type": "address"
						},
						{
							"indexed": true,
							"internalType": "address",
							"name": "receiver",
							"type": "address"
						},
						{
							"indexed": false,
							"internalType": "uint256",
							"name": "fee",
							"type": "uint256"
						}
					],
					"name": "RoyaltyFeeUpdate",
					"type": "event"
				},
				{
					"inputs": [],
					"name": "owner",
					"outputs": [
						{
							"internalType": "address",
							"name": "",
							"type": "address"
						}
					],
					"stateMutability": "view",
					"type": "function"
				},
				{
					"inputs": [],
					"name": "renounceOwnership",
					"outputs": [],
					"stateMutability": "nonpayable",
					"type": "function"
				},
				{
					"inputs": [],
					"name": "royaltyFeeLimit",
					"outputs": [
						{
							"internalType": "uint256",
							"name": "",
							"type": "uint256"
						}
					],
					"stateMutability": "view",
					"type": "function"
				},
				{
					"inputs": [
						{
							"internalType": "address",
							"name": "collection",
							"type": "address"
						},
						{
							"internalType": "uint256",
							"name": "amount",
							"type": "uint256"
						}
					],
					"name": "royaltyInfo",
					"outputs": [
						{
							"internalType": "address",
							"name": "",
							"type": "address"
						},
						{
							"internalType": "uint256",
							"name": "",
							"type": "uint256"
						}
					],
					"stateMutability": "view",
					"type": "function"
				},
				{
					"inputs": [
						{
							"internalType": "address",
							"name": "collection",
							"type": "address"
						}
					],
					"name": "royaltyInfoCollection",
					"outputs": [
						{
							"internalType": "address",
							"name": "",
							"type": "address"
						},
						{
							"internalType": "address",
							"name": "",
							"type": "address"
						},
						{
							"internalType": "uint256",
							"name": "",
							"type": "uint256"
						}
					],
					"stateMutability": "view",
					"type": "function"
				},
				{
					"inputs": [
						{
							"internalType": "address",
							"name": "newOwner",
							"type": "address"
						}
					],
					"name": "transferOwnership",
					"outputs": [],
					"stateMutability": "nonpayable",
					"type": "function"
				},
				{
					"inputs": [
						{
							"internalType": "uint256",
							"name": "_royaltyFeeLimit",
							"type": "uint256"
						}
					],
					"name": "updateRoyaltyFeeLimit",
					"outputs": [],
					"stateMutability": "nonpayable",
					"type": "function"
				},
				{
					"inputs": [
						{
							"internalType": "address",
							"name": "collection",
							"type": "address"
						},
						{
							"internalType": "address",
							"name": "setter",
							"type": "address"
						},
						{
							"internalType": "address",
							"name": "receiver",
							"type": "address"
						},
						{
							"internalType": "uint256",
							"name": "fee",
							"type": "uint256"
						}
					],
					"name": "updateRoyaltyInfo",
					"outputs": [],
					"stateMutability": "nonpayable",
					"type": "function"
				}
			],
			"devdoc": {
				"kind": "dev",
				"methods": {
					"owner()": {
						"details": "Returns the address of the current owner."
					},
					"renounceOwnership()": {
						"details": "Leaves the contract without owner. It will not be possible to call `onlyOwner` functions anymore. Can only be called by the current owner. NOTE: Renouncing ownership will leave the contract without an owner, thereby removing any functionality that is only available to the owner."
					},
					"transferOwnership(address)": {
						"details": "Transfers ownership of the contract to a new account (`newOwner`). Can only be called by the current owner."
					}
				},
				"version": 1
			},
			"evm": {
				"assembly": "    /* \"hardhat/contracts/royalty/Royalty.sol\":210:2401  contract Royalty is IRoyalty, Ownable {... */\n  mstore(0x40, 0x80)\n    /* \"hardhat/contracts/royalty/Royalty.sol\":743:884  constructor(uint256 _royaltyFeeLimit) {... */\n  callvalue\n  dup1\n  iszero\n  tag_1\n  jumpi\n  0x00\n  dup1\n  revert\ntag_1:\n  pop\n  mload(0x40)\n  sub(codesize, bytecodeSize)\n  dup1\n  bytecodeSize\n  dup4\n  codecopy\n  dup2\n  dup2\n  add\n  0x40\n  mstore\n  dup2\n  add\n  swap1\n  tag_2\n  swap2\n  swap1\n  tag_3\n  jump\t// in\ntag_2:\n    /* \"@openzeppelin/contracts/access/Ownable.sol\":936:968  _transferOwnership(_msgSender()) */\n  tag_7\n    /* \"@openzeppelin/contracts/access/Ownable.sol\":955:967  _msgSender() */\n  tag_8\n    /* \"@openzeppelin/contracts/access/Ownable.sol\":955:965  _msgSender */\n  shl(0x20, tag_9)\n    /* \"@openzeppelin/contracts/access/Ownable.sol\":955:967  _msgSender() */\n  0x20\n  shr\n  jump\t// in\ntag_8:\n    /* \"@openzeppelin/contracts/access/Ownable.sol\":936:954  _transferOwnership */\n  shl(0x20, tag_10)\n    /* \"@openzeppelin/contracts/access/Ownable.sol\":936:968  _transferOwnership(_msgSender()) */\n  0x20\n  shr\n  jump\t// in\ntag_7:\n    /* \"hardhat/contracts/royalty/Royalty.sol\":809:825  _royaltyFeeLimit */\n  dup1\n    /* \"hardhat/contracts/royalty/Royalty.sol\":791:806  royaltyFeeLimit */\n  0x01\n    /* \"hardhat/contracts/royalty/Royalty.sol\":791:825  royaltyFeeLimit = _royaltyFeeLimit */\n  dup2\n  swap1\n  sstore\n  pop\n    /* \"hardhat/contracts/royalty/Royalty.sol\":841:877  NewRoyaltyFeeLimit(_royaltyFeeLimit) */\n  0x2da7166c72ef3860ef4fb2571105533c40615269a6dbc38ce0b264910df1c256\n    /* \"hardhat/contracts/royalty/Royalty.sol\":860:876  _royaltyFeeLimit */\n  dup2\n    /* \"hardhat/contracts/royalty/Royalty.sol\":841:877  NewRoyaltyFeeLimit(_royaltyFeeLimit) */\n  mload(0x40)\n  tag_12\n  swap2\n  swap1\n  tag_13\n  jump\t// in\ntag_12:\n  mload(0x40)\n  dup1\n  swap2\n  sub\n  swap1\n  log1\n    /* \"hardhat/contracts/royalty/Royalty.sol\":743:884  constructor(uint256 _royaltyFeeLimit) {... */\n  pop\n    /* \"hardhat/contracts/royalty/Royalty.sol\":210:2401  contract Royalty is IRoyalty, Ownable {... */\n  jump(tag_14)\n    /* \"@openzeppelin/contracts/utils/Context.sol\":640:736  function _msgSender() internal view virtual returns (address) {... */\ntag_9:\n    /* \"@openzeppelin/contracts/utils/Context.sol\":693:700  address */\n  0x00\n    /* \"@openzeppelin/contracts/utils/Context.sol\":719:729  msg.sender */\n  caller\n    /* \"@openzeppelin/contracts/utils/Context.sol\":712:729  return msg.sender */\n  swap1\n  pop\n    /* \"@openzeppelin/contracts/utils/Context.sol\":640:736  function _msgSender() internal view virtual returns (address) {... */\n  swap1\n  jump\t// out\n    /* \"@openzeppelin/contracts/access/Ownable.sol\":2433:2620  function _transferOwnership(address newOwner) internal virtual {... */\ntag_10:\n    /* \"@openzeppelin/contracts/access/Ownable.sol\":2506:2522  address oldOwner */\n  0x00\n    /* \"@openzeppelin/contracts/access/Ownable.sol\":2525:2531  _owner */\n  dup1\n  0x00\n  swap1\n  sload\n  swap1\n  0x0100\n  exp\n  swap1\n  div\n  0xffffffffffffffffffffffffffffffffffffffff\n  and\n    /* \"@openzeppelin/contracts/access/Ownable.sol\":2506:2531  address oldOwner = _owner */\n  swap1\n  pop\n    /* \"@openzeppelin/contracts/access/Ownable.sol\":2550:2558  newOwner */\n  dup2\n    /* \"@openzeppelin/contracts/access/Ownable.sol\":2541:2547  _owner */\n  0x00\n  dup1\n    /* \"@openzeppelin/contracts/access/Ownable.sol\":2541:2558  _owner = newOwner */\n  0x0100\n  exp\n  dup2\n  sload\n  dup2\n  0xffffffffffffffffffffffffffffffffffffffff\n  mul\n  not\n  and\n  swap1\n  dup4\n  0xffffffffffffffffffffffffffffffffffffffff\n  and\n  mul\n  or\n  swap1\n  sstore\n  pop\n    /* \"@openzeppelin/contracts/access/Ownable.sol\":2604:2612  newOwner */\n  dup2\n    /* \"@openzeppelin/contracts/access/Ownable.sol\":2573:2613  OwnershipTransferred(oldOwner, newOwner) */\n  0xffffffffffffffffffffffffffffffffffffffff\n  and\n    /* \"@openzeppelin/contracts/access/Ownable.sol\":2594:2602  oldOwner */\n  dup2\n    /* \"@openzeppelin/contracts/access/Ownable.sol\":2573:2613  OwnershipTransferred(oldOwner, newOwner) */\n  0xffffffffffffffffffffffffffffffffffffffff\n  and\n  0x8be0079c531659141344cd1fd0a4f28419497f9722a3daafe3b4186f6b6457e0\n  mload(0x40)\n  mload(0x40)\n  dup1\n  swap2\n  sub\n  swap1\n  log3\n    /* \"@openzeppelin/contracts/access/Ownable.sol\":2496:2620  {... */\n  pop\n    /* \"@openzeppelin/contracts/access/Ownable.sol\":2433:2620  function _transferOwnership(address newOwner) internal virtual {... */\n  pop\n  jump\t// out\n    /* \"#utility.yul\":88:205   */\ntag_18:\n    /* \"#utility.yul\":197:198   */\n  0x00\n    /* \"#utility.yul\":194:195   */\n  dup1\n    /* \"#utility.yul\":187:199   */\n  revert\n    /* \"#utility.yul\":334:411   */\ntag_20:\n    /* \"#utility.yul\":371:378   */\n  0x00\n    /* \"#utility.yul\":400:405   */\n  dup2\n    /* \"#utility.yul\":389:405   */\n  swap1\n  pop\n    /* \"#utility.yul\":334:411   */\n  swap2\n  swap1\n  pop\n  jump\t// out\n    /* \"#utility.yul\":417:539   */\ntag_21:\n    /* \"#utility.yul\":490:514   */\n  tag_30\n    /* \"#utility.yul\":508:513   */\n  dup2\n    /* \"#utility.yul\":490:514   */\n  tag_20\n  jump\t// in\ntag_30:\n    /* \"#utility.yul\":483:488   */\n  dup2\n    /* \"#utility.yul\":480:515   */\n  eq\n    /* \"#utility.yul\":470:533   */\n  tag_31\n  jumpi\n    /* \"#utility.yul\":529:530   */\n  0x00\n    /* \"#utility.yul\":526:527   */\n  dup1\n    /* \"#utility.yul\":519:531   */\n  revert\n    /* \"#utility.yul\":470:533   */\ntag_31:\n    /* \"#utility.yul\":417:539   */\n  pop\n  jump\t// out\n    /* \"#utility.yul\":545:688   */\ntag_22:\n    /* \"#utility.yul\":602:607   */\n  0x00\n    /* \"#utility.yul\":633:639   */\n  dup2\n    /* \"#utility.yul\":627:640   */\n  mload\n    /* \"#utility.yul\":618:640   */\n  swap1\n  pop\n    /* \"#utility.yul\":649:682   */\n  tag_33\n    /* \"#utility.yul\":676:681   */\n  dup2\n    /* \"#utility.yul\":649:682   */\n  tag_21\n  jump\t// in\ntag_33:\n    /* \"#utility.yul\":545:688   */\n  swap3\n  swap2\n  pop\n  pop\n  jump\t// out\n    /* \"#utility.yul\":694:1045   */\ntag_3:\n    /* \"#utility.yul\":764:770   */\n  0x00\n    /* \"#utility.yul\":813:815   */\n  0x20\n    /* \"#utility.yul\":801:810   */\n  dup3\n    /* \"#utility.yul\":792:799   */\n  dup5\n    /* \"#utility.yul\":788:811   */\n  sub\n    /* \"#utility.yul\":784:816   */\n  slt\n    /* \"#utility.yul\":781:900   */\n  iszero\n  tag_35\n  jumpi\n    /* \"#utility.yul\":819:898   */\n  tag_36\n  tag_18\n  jump\t// in\ntag_36:\n    /* \"#utility.yul\":781:900   */\ntag_35:\n    /* \"#utility.yul\":939:940   */\n  0x00\n    /* \"#utility.yul\":964:1028   */\n  tag_37\n    /* \"#utility.yul\":1020:1027   */\n  dup5\n    /* \"#utility.yul\":1011:1017   */\n  dup3\n    /* \"#utility.yul\":1000:1009   */\n  dup6\n    /* \"#utility.yul\":996:1018   */\n  add\n    /* \"#utility.yul\":964:1028   */\n  tag_22\n  jump\t// in\ntag_37:\n    /* \"#utility.yul\":954:1028   */\n  swap2\n  pop\n    /* \"#utility.yul\":910:1038   */\n  pop\n    /* \"#utility.yul\":694:1045   */\n  swap3\n  swap2\n  pop\n  pop\n  jump\t// out\n    /* \"#utility.yul\":1051:1169   */\ntag_23:\n    /* \"#utility.yul\":1138:1162   */\n  tag_39\n    /* \"#utility.yul\":1156:1161   */\n  dup2\n    /* \"#utility.yul\":1138:1162   */\n  tag_20\n  jump\t// in\ntag_39:\n    /* \"#utility.yul\":1133:1136   */\n  dup3\n    /* \"#utility.yul\":1126:1163   */\n  mstore\n    /* \"#utility.yul\":1051:1169   */\n  pop\n  pop\n  jump\t// out\n    /* \"#utility.yul\":1175:1397   */\ntag_13:\n    /* \"#utility.yul\":1268:1272   */\n  0x00\n    /* \"#utility.yul\":1306:1308   */\n  0x20\n    /* \"#utility.yul\":1295:1304   */\n  dup3\n    /* \"#utility.yul\":1291:1309   */\n  add\n    /* \"#utility.yul\":1283:1309   */\n  swap1\n  pop\n    /* \"#utility.yul\":1319:1390   */\n  tag_41\n    /* \"#utility.yul\":1387:1388   */\n  0x00\n    /* \"#utility.yul\":1376:1385   */\n  dup4\n    /* \"#utility.yul\":1372:1389   */\n  add\n    /* \"#utility.yul\":1363:1369   */\n  dup5\n    /* \"#utility.yul\":1319:1390   */\n  tag_23\n  jump\t// in\ntag_41:\n    /* \"#utility.yul\":1175:1397   */\n  swap3\n  swap2\n  pop\n  pop\n  jump\t// out\n    /* \"hardhat/contracts/royalty/Royalty.sol\":210:2401  contract Royalty is IRoyalty, Ownable {... */\ntag_14:\n  dataSize(sub_0)\n  dup1\n  dataOffset(sub_0)\n  0x00\n  codecopy\n  0x00\n  return\nstop\n\nsub_0: assembly {\n        /* \"hardhat/contracts/royalty/Royalty.sol\":210:2401  contract Royalty is IRoyalty, Ownable {... */\n      mstore(0x40, 0x80)\n      callvalue\n      dup1\n      iszero\n      tag_1\n      jumpi\n      0x00\n      dup1\n      revert\n    tag_1:\n      pop\n      jumpi(tag_2, lt(calldatasize, 0x04))\n      shr(0xe0, calldataload(0x00))\n      dup1\n      0x715018a6\n      gt\n      tag_11\n      jumpi\n      dup1\n      0x715018a6\n      eq\n      tag_7\n      jumpi\n      dup1\n      0x8da5cb5b\n      eq\n      tag_8\n      jumpi\n      dup1\n      0xb9223c9d\n      eq\n      tag_9\n      jumpi\n      dup1\n      0xf2fde38b\n      eq\n      tag_10\n      jumpi\n      jump(tag_2)\n    tag_11:\n      dup1\n      0x0eecf97b\n      eq\n      tag_3\n      jumpi\n      dup1\n      0x2782d6c7\n      eq\n      tag_4\n      jumpi\n      dup1\n      0x2adc45e8\n      eq\n      tag_5\n      jumpi\n      dup1\n      0x4fb7d3f9\n      eq\n      tag_6\n      jumpi\n    tag_2:\n      0x00\n      dup1\n      revert\n        /* \"hardhat/contracts/royalty/Royalty.sol\":1190:1642  function updateRoyaltyInfo(... */\n    tag_3:\n      tag_12\n      0x04\n      dup1\n      calldatasize\n      sub\n      dup2\n      add\n      swap1\n      tag_13\n      swap2\n      swap1\n      tag_14\n      jump\t// in\n    tag_13:\n      tag_15\n      jump\t// in\n    tag_12:\n      stop\n        /* \"hardhat/contracts/royalty/Royalty.sol\":1727:2024  function royaltyInfo(... */\n    tag_4:\n      tag_16\n      0x04\n      dup1\n      calldatasize\n      sub\n      dup2\n      add\n      swap1\n      tag_17\n      swap2\n      swap1\n      tag_18\n      jump\t// in\n    tag_17:\n      tag_19\n      jump\t// in\n    tag_16:\n      mload(0x40)\n      tag_20\n      swap3\n      swap2\n      swap1\n      tag_21\n      jump\t// in\n    tag_20:\n      mload(0x40)\n      dup1\n      swap2\n      sub\n      swap1\n      return\n        /* \"hardhat/contracts/royalty/Royalty.sol\":2068:2399  function royaltyInfoCollection(... */\n    tag_5:\n      tag_22\n      0x04\n      dup1\n      calldatasize\n      sub\n      dup2\n      add\n      swap1\n      tag_23\n      swap2\n      swap1\n      tag_24\n      jump\t// in\n    tag_23:\n      tag_25\n      jump\t// in\n    tag_22:\n      mload(0x40)\n      tag_26\n      swap4\n      swap3\n      swap2\n      swap1\n      tag_27\n      jump\t// in\n    tag_26:\n      mload(0x40)\n      dup1\n      swap2\n      sub\n      swap1\n      return\n        /* \"hardhat/contracts/royalty/Royalty.sol\":425:455  uint256 public royaltyFeeLimit */\n    tag_6:\n      tag_28\n      tag_29\n      jump\t// in\n    tag_28:\n      mload(0x40)\n      tag_30\n      swap2\n      swap1\n      tag_31\n      jump\t// in\n    tag_30:\n      mload(0x40)\n      dup1\n      swap2\n      sub\n      swap1\n      return\n        /* \"@openzeppelin/contracts/access/Ownable.sol\":1831:1932  function renounceOwnership() public virtual onlyOwner {... */\n    tag_7:\n      tag_32\n      tag_33\n      jump\t// in\n    tag_32:\n      stop\n        /* \"@openzeppelin/contracts/access/Ownable.sol\":1201:1286  function owner() public view virtual returns (address) {... */\n    tag_8:\n      tag_34\n      tag_35\n      jump\t// in\n    tag_34:\n      mload(0x40)\n      tag_36\n      swap2\n      swap1\n      tag_37\n      jump\t// in\n    tag_36:\n      mload(0x40)\n      dup1\n      swap2\n      sub\n      swap1\n      return\n        /* \"hardhat/contracts/royalty/Royalty.sol\":944:1146  function updateRoyaltyFeeLimit(... */\n    tag_9:\n      tag_38\n      0x04\n      dup1\n      calldatasize\n      sub\n      dup2\n      add\n      swap1\n      tag_39\n      swap2\n      swap1\n      tag_40\n      jump\t// in\n    tag_39:\n      tag_41\n      jump\t// in\n    tag_38:\n      stop\n        /* \"@openzeppelin/contracts/access/Ownable.sol\":2081:2279  function transferOwnership(address newOwner) public virtual onlyOwner {... */\n    tag_10:\n      tag_42\n      0x04\n      dup1\n      calldatasize\n      sub\n      dup2\n      add\n      swap1\n      tag_43\n      swap2\n      swap1\n      tag_24\n      jump\t// in\n    tag_43:\n      tag_44\n      jump\t// in\n    tag_42:\n      stop\n        /* \"hardhat/contracts/royalty/Royalty.sol\":1190:1642  function updateRoyaltyInfo(... */\n    tag_15:\n        /* \"@openzeppelin/contracts/access/Ownable.sol\":1094:1107  _checkOwner() */\n      tag_46\n        /* \"@openzeppelin/contracts/access/Ownable.sol\":1094:1105  _checkOwner */\n      tag_47\n        /* \"@openzeppelin/contracts/access/Ownable.sol\":1094:1107  _checkOwner() */\n      jump\t// in\n    tag_46:\n        /* \"hardhat/contracts/royalty/Royalty.sol\":1375:1390  royaltyFeeLimit */\n      sload(0x01)\n        /* \"hardhat/contracts/royalty/Royalty.sol\":1368:1371  fee */\n      dup2\n        /* \"hardhat/contracts/royalty/Royalty.sol\":1368:1390  fee <= royaltyFeeLimit */\n      gt\n      iszero\n        /* \"hardhat/contracts/royalty/Royalty.sol\":1360:1416  require(fee <= royaltyFeeLimit, \"Royalty: fee too high\") */\n      tag_49\n      jumpi\n      mload(0x40)\n      0x08c379a000000000000000000000000000000000000000000000000000000000\n      dup2\n      mstore\n      0x04\n      add\n      tag_50\n      swap1\n      tag_51\n      jump\t// in\n    tag_50:\n      mload(0x40)\n      dup1\n      swap2\n      sub\n      swap1\n      revert\n    tag_49:\n        /* \"hardhat/contracts/royalty/Royalty.sol\":1467:1568  FeeInfo({... */\n      mload(0x40)\n      dup1\n      0x60\n      add\n      0x40\n      mstore\n      dup1\n        /* \"hardhat/contracts/royalty/Royalty.sol\":1497:1503  setter */\n      dup5\n        /* \"hardhat/contracts/royalty/Royalty.sol\":1467:1568  FeeInfo({... */\n      0xffffffffffffffffffffffffffffffffffffffff\n      and\n      dup2\n      mstore\n      0x20\n      add\n        /* \"hardhat/contracts/royalty/Royalty.sol\":1527:1535  receiver */\n      dup4\n        /* \"hardhat/contracts/royalty/Royalty.sol\":1467:1568  FeeInfo({... */\n      0xffffffffffffffffffffffffffffffffffffffff\n      and\n      dup2\n      mstore\n      0x20\n      add\n        /* \"hardhat/contracts/royalty/Royalty.sol\":1554:1557  fee */\n      dup3\n        /* \"hardhat/contracts/royalty/Royalty.sol\":1467:1568  FeeInfo({... */\n      dup2\n      mstore\n      pop\n        /* \"hardhat/contracts/royalty/Royalty.sol\":1427:1452  _royaltyFeeInfoCollection */\n      0x02\n        /* \"hardhat/contracts/royalty/Royalty.sol\":1427:1464  _royaltyFeeInfoCollection[collection] */\n      0x00\n        /* \"hardhat/contracts/royalty/Royalty.sol\":1453:1463  collection */\n      dup7\n        /* \"hardhat/contracts/royalty/Royalty.sol\":1427:1464  _royaltyFeeInfoCollection[collection] */\n      0xffffffffffffffffffffffffffffffffffffffff\n      and\n      0xffffffffffffffffffffffffffffffffffffffff\n      and\n      dup2\n      mstore\n      0x20\n      add\n      swap1\n      dup2\n      mstore\n      0x20\n      add\n      0x00\n      keccak256\n        /* \"hardhat/contracts/royalty/Royalty.sol\":1427:1568  _royaltyFeeInfoCollection[collection] = FeeInfo({... */\n      0x00\n      dup3\n      add\n      mload\n      dup2\n      0x00\n      add\n      exp(0x0100, 0x00)\n      dup2\n      sload\n      dup2\n      0xffffffffffffffffffffffffffffffffffffffff\n      mul\n      not\n      and\n      swap1\n      dup4\n      0xffffffffffffffffffffffffffffffffffffffff\n      and\n      mul\n      or\n      swap1\n      sstore\n      pop\n      0x20\n      dup3\n      add\n      mload\n      dup2\n      0x01\n      add\n      exp(0x0100, 0x00)\n      dup2\n      sload\n      dup2\n      0xffffffffffffffffffffffffffffffffffffffff\n      mul\n      not\n      and\n      swap1\n      dup4\n      0xffffffffffffffffffffffffffffffffffffffff\n      and\n      mul\n      or\n      swap1\n      sstore\n      pop\n      0x40\n      dup3\n      add\n      mload\n      dup2\n      0x02\n      add\n      sstore\n      swap1\n      pop\n      pop\n        /* \"hardhat/contracts/royalty/Royalty.sol\":1621:1629  receiver */\n      dup2\n        /* \"hardhat/contracts/royalty/Royalty.sol\":1584:1635  RoyaltyFeeUpdate(collection, setter, receiver, fee) */\n      0xffffffffffffffffffffffffffffffffffffffff\n      and\n        /* \"hardhat/contracts/royalty/Royalty.sol\":1613:1619  setter */\n      dup4\n        /* \"hardhat/contracts/royalty/Royalty.sol\":1584:1635  RoyaltyFeeUpdate(collection, setter, receiver, fee) */\n      0xffffffffffffffffffffffffffffffffffffffff\n      and\n        /* \"hardhat/contracts/royalty/Royalty.sol\":1601:1611  collection */\n      dup6\n        /* \"hardhat/contracts/royalty/Royalty.sol\":1584:1635  RoyaltyFeeUpdate(collection, setter, receiver, fee) */\n      0xffffffffffffffffffffffffffffffffffffffff\n      and\n      0xd01984afa6e37420452e575e7d99dd7e632b3ec8ea2adec998475b76ca494d64\n        /* \"hardhat/contracts/royalty/Royalty.sol\":1631:1634  fee */\n      dup5\n        /* \"hardhat/contracts/royalty/Royalty.sol\":1584:1635  RoyaltyFeeUpdate(collection, setter, receiver, fee) */\n      mload(0x40)\n      tag_52\n      swap2\n      swap1\n      tag_31\n      jump\t// in\n    tag_52:\n      mload(0x40)\n      dup1\n      swap2\n      sub\n      swap1\n      log4\n        /* \"hardhat/contracts/royalty/Royalty.sol\":1190:1642  function updateRoyaltyInfo(... */\n      pop\n      pop\n      pop\n      pop\n      jump\t// out\n        /* \"hardhat/contracts/royalty/Royalty.sol\":1727:2024  function royaltyInfo(... */\n    tag_19:\n        /* \"hardhat/contracts/royalty/Royalty.sol\":1838:1845  address */\n      0x00\n        /* \"hardhat/contracts/royalty/Royalty.sol\":1847:1854  uint256 */\n      dup1\n        /* \"hardhat/contracts/royalty/Royalty.sol\":1887:1912  _royaltyFeeInfoCollection */\n      0x02\n        /* \"hardhat/contracts/royalty/Royalty.sol\":1887:1924  _royaltyFeeInfoCollection[collection] */\n      0x00\n        /* \"hardhat/contracts/royalty/Royalty.sol\":1913:1923  collection */\n      dup6\n        /* \"hardhat/contracts/royalty/Royalty.sol\":1887:1924  _royaltyFeeInfoCollection[collection] */\n      0xffffffffffffffffffffffffffffffffffffffff\n      and\n      0xffffffffffffffffffffffffffffffffffffffff\n      and\n      dup2\n      mstore\n      0x20\n      add\n      swap1\n      dup2\n      mstore\n      0x20\n      add\n      0x00\n      keccak256\n        /* \"hardhat/contracts/royalty/Royalty.sol\":1887:1933  _royaltyFeeInfoCollection[collection].receiver */\n      0x01\n      add\n      0x00\n      swap1\n      sload\n      swap1\n      0x0100\n      exp\n      swap1\n      div\n      0xffffffffffffffffffffffffffffffffffffffff\n      and\n        /* \"hardhat/contracts/royalty/Royalty.sol\":2002:2007  10000 */\n      0x2710\n        /* \"hardhat/contracts/royalty/Royalty.sol\":1957:1982  _royaltyFeeInfoCollection */\n      0x02\n        /* \"hardhat/contracts/royalty/Royalty.sol\":1957:1994  _royaltyFeeInfoCollection[collection] */\n      0x00\n        /* \"hardhat/contracts/royalty/Royalty.sol\":1983:1993  collection */\n      dup8\n        /* \"hardhat/contracts/royalty/Royalty.sol\":1957:1994  _royaltyFeeInfoCollection[collection] */\n      0xffffffffffffffffffffffffffffffffffffffff\n      and\n      0xffffffffffffffffffffffffffffffffffffffff\n      and\n      dup2\n      mstore\n      0x20\n      add\n      swap1\n      dup2\n      mstore\n      0x20\n      add\n      0x00\n      keccak256\n        /* \"hardhat/contracts/royalty/Royalty.sol\":1957:1998  _royaltyFeeInfoCollection[collection].fee */\n      0x02\n      add\n      sload\n        /* \"hardhat/contracts/royalty/Royalty.sol\":1948:1954  amount */\n      dup6\n        /* \"hardhat/contracts/royalty/Royalty.sol\":1948:1998  amount * _royaltyFeeInfoCollection[collection].fee */\n      tag_54\n      swap2\n      swap1\n      tag_55\n      jump\t// in\n    tag_54:\n        /* \"hardhat/contracts/royalty/Royalty.sol\":1947:2007  (amount * _royaltyFeeInfoCollection[collection].fee) / 10000 */\n      tag_56\n      swap2\n      swap1\n      tag_57\n      jump\t// in\n    tag_56:\n        /* \"hardhat/contracts/royalty/Royalty.sol\":1866:2017  return (... */\n      swap2\n      pop\n      swap2\n      pop\n        /* \"hardhat/contracts/royalty/Royalty.sol\":1727:2024  function royaltyInfo(... */\n      swap3\n      pop\n      swap3\n      swap1\n      pop\n      jump\t// out\n        /* \"hardhat/contracts/royalty/Royalty.sol\":2068:2399  function royaltyInfoCollection(... */\n    tag_25:\n        /* \"hardhat/contracts/royalty/Royalty.sol\":2165:2172  address */\n      0x00\n        /* \"hardhat/contracts/royalty/Royalty.sol\":2174:2181  address */\n      dup1\n        /* \"hardhat/contracts/royalty/Royalty.sol\":2183:2190  uint256 */\n      0x00\n        /* \"hardhat/contracts/royalty/Royalty.sol\":2223:2248  _royaltyFeeInfoCollection */\n      0x02\n        /* \"hardhat/contracts/royalty/Royalty.sol\":2223:2260  _royaltyFeeInfoCollection[collection] */\n      0x00\n        /* \"hardhat/contracts/royalty/Royalty.sol\":2249:2259  collection */\n      dup6\n        /* \"hardhat/contracts/royalty/Royalty.sol\":2223:2260  _royaltyFeeInfoCollection[collection] */\n      0xffffffffffffffffffffffffffffffffffffffff\n      and\n      0xffffffffffffffffffffffffffffffffffffffff\n      and\n      dup2\n      mstore\n      0x20\n      add\n      swap1\n      dup2\n      mstore\n      0x20\n      add\n      0x00\n      keccak256\n        /* \"hardhat/contracts/royalty/Royalty.sol\":2223:2267  _royaltyFeeInfoCollection[collection].setter */\n      0x00\n      add\n      0x00\n      swap1\n      sload\n      swap1\n      0x0100\n      exp\n      swap1\n      div\n      0xffffffffffffffffffffffffffffffffffffffff\n      and\n        /* \"hardhat/contracts/royalty/Royalty.sol\":2281:2306  _royaltyFeeInfoCollection */\n      0x02\n        /* \"hardhat/contracts/royalty/Royalty.sol\":2281:2318  _royaltyFeeInfoCollection[collection] */\n      0x00\n        /* \"hardhat/contracts/royalty/Royalty.sol\":2307:2317  collection */\n      dup7\n        /* \"hardhat/contracts/royalty/Royalty.sol\":2281:2318  _royaltyFeeInfoCollection[collection] */\n      0xffffffffffffffffffffffffffffffffffffffff\n      and\n      0xffffffffffffffffffffffffffffffffffffffff\n      and\n      dup2\n      mstore\n      0x20\n      add\n      swap1\n      dup2\n      mstore\n      0x20\n      add\n      0x00\n      keccak256\n        /* \"hardhat/contracts/royalty/Royalty.sol\":2281:2327  _royaltyFeeInfoCollection[collection].receiver */\n      0x01\n      add\n      0x00\n      swap1\n      sload\n      swap1\n      0x0100\n      exp\n      swap1\n      div\n      0xffffffffffffffffffffffffffffffffffffffff\n      and\n        /* \"hardhat/contracts/royalty/Royalty.sol\":2341:2366  _royaltyFeeInfoCollection */\n      0x02\n        /* \"hardhat/contracts/royalty/Royalty.sol\":2341:2378  _royaltyFeeInfoCollection[collection] */\n      0x00\n        /* \"hardhat/contracts/royalty/Royalty.sol\":2367:2377  collection */\n      dup8\n        /* \"hardhat/contracts/royalty/Royalty.sol\":2341:2378  _royaltyFeeInfoCollection[collection] */\n      0xffffffffffffffffffffffffffffffffffffffff\n      and\n      0xffffffffffffffffffffffffffffffffffffffff\n      and\n      dup2\n      mstore\n      0x20\n      add\n      swap1\n      dup2\n      mstore\n      0x20\n      add\n      0x00\n      keccak256\n        /* \"hardhat/contracts/royalty/Royalty.sol\":2341:2382  _royaltyFeeInfoCollection[collection].fee */\n      0x02\n      add\n      sload\n        /* \"hardhat/contracts/royalty/Royalty.sol\":2202:2392  return (... */\n      swap3\n      pop\n      swap3\n      pop\n      swap3\n      pop\n        /* \"hardhat/contracts/royalty/Royalty.sol\":2068:2399  function royaltyInfoCollection(... */\n      swap2\n      swap4\n      swap1\n      swap3\n      pop\n      jump\t// out\n        /* \"hardhat/contracts/royalty/Royalty.sol\":425:455  uint256 public royaltyFeeLimit */\n    tag_29:\n      sload(0x01)\n      dup2\n      jump\t// out\n        /* \"@openzeppelin/contracts/access/Ownable.sol\":1831:1932  function renounceOwnership() public virtual onlyOwner {... */\n    tag_33:\n        /* \"@openzeppelin/contracts/access/Ownable.sol\":1094:1107  _checkOwner() */\n      tag_60\n        /* \"@openzeppelin/contracts/access/Ownable.sol\":1094:1105  _checkOwner */\n      tag_47\n        /* \"@openzeppelin/contracts/access/Ownable.sol\":1094:1107  _checkOwner() */\n      jump\t// in\n    tag_60:\n        /* \"@openzeppelin/contracts/access/Ownable.sol\":1895:1925  _transferOwnership(address(0)) */\n      tag_62\n        /* \"@openzeppelin/contracts/access/Ownable.sol\":1922:1923  0 */\n      0x00\n        /* \"@openzeppelin/contracts/access/Ownable.sol\":1895:1913  _transferOwnership */\n      tag_63\n        /* \"@openzeppelin/contracts/access/Ownable.sol\":1895:1925  _transferOwnership(address(0)) */\n      jump\t// in\n    tag_62:\n        /* \"@openzeppelin/contracts/access/Ownable.sol\":1831:1932  function renounceOwnership() public virtual onlyOwner {... */\n      jump\t// out\n        /* \"@openzeppelin/contracts/access/Ownable.sol\":1201:1286  function owner() public view virtual returns (address) {... */\n    tag_35:\n        /* \"@openzeppelin/contracts/access/Ownable.sol\":1247:1254  address */\n      0x00\n        /* \"@openzeppelin/contracts/access/Ownable.sol\":1273:1279  _owner */\n      dup1\n      0x00\n      swap1\n      sload\n      swap1\n      0x0100\n      exp\n      swap1\n      div\n      0xffffffffffffffffffffffffffffffffffffffff\n      and\n        /* \"@openzeppelin/contracts/access/Ownable.sol\":1266:1279  return _owner */\n      swap1\n      pop\n        /* \"@openzeppelin/contracts/access/Ownable.sol\":1201:1286  function owner() public view virtual returns (address) {... */\n      swap1\n      jump\t// out\n        /* \"hardhat/contracts/royalty/Royalty.sol\":944:1146  function updateRoyaltyFeeLimit(... */\n    tag_41:\n        /* \"@openzeppelin/contracts/access/Ownable.sol\":1094:1107  _checkOwner() */\n      tag_66\n        /* \"@openzeppelin/contracts/access/Ownable.sol\":1094:1105  _checkOwner */\n      tag_47\n        /* \"@openzeppelin/contracts/access/Ownable.sol\":1094:1107  _checkOwner() */\n      jump\t// in\n    tag_66:\n        /* \"hardhat/contracts/royalty/Royalty.sol\":1071:1087  _royaltyFeeLimit */\n      dup1\n        /* \"hardhat/contracts/royalty/Royalty.sol\":1053:1068  royaltyFeeLimit */\n      0x01\n        /* \"hardhat/contracts/royalty/Royalty.sol\":1053:1087  royaltyFeeLimit = _royaltyFeeLimit */\n      dup2\n      swap1\n      sstore\n      pop\n        /* \"hardhat/contracts/royalty/Royalty.sol\":1103:1139  NewRoyaltyFeeLimit(_royaltyFeeLimit) */\n      0x2da7166c72ef3860ef4fb2571105533c40615269a6dbc38ce0b264910df1c256\n        /* \"hardhat/contracts/royalty/Royalty.sol\":1122:1138  _royaltyFeeLimit */\n      dup2\n        /* \"hardhat/contracts/royalty/Royalty.sol\":1103:1139  NewRoyaltyFeeLimit(_royaltyFeeLimit) */\n      mload(0x40)\n      tag_68\n      swap2\n      swap1\n      tag_31\n      jump\t// in\n    tag_68:\n      mload(0x40)\n      dup1\n      swap2\n      sub\n      swap1\n      log1\n        /* \"hardhat/contracts/royalty/Royalty.sol\":944:1146  function updateRoyaltyFeeLimit(... */\n      pop\n      jump\t// out\n        /* \"@openzeppelin/contracts/access/Ownable.sol\":2081:2279  function transferOwnership(address newOwner) public virtual onlyOwner {... */\n    tag_44:\n        /* \"@openzeppelin/contracts/access/Ownable.sol\":1094:1107  _checkOwner() */\n      tag_70\n        /* \"@openzeppelin/contracts/access/Ownable.sol\":1094:1105  _checkOwner */\n      tag_47\n        /* \"@openzeppelin/contracts/access/Ownable.sol\":1094:1107  _checkOwner() */\n      jump\t// in\n    tag_70:\n        /* \"@openzeppelin/contracts/access/Ownable.sol\":2189:2190  0 */\n      0x00\n        /* \"@openzeppelin/contracts/access/Ownable.sol\":2169:2191  newOwner != address(0) */\n      0xffffffffffffffffffffffffffffffffffffffff\n      and\n        /* \"@openzeppelin/contracts/access/Ownable.sol\":2169:2177  newOwner */\n      dup2\n        /* \"@openzeppelin/contracts/access/Ownable.sol\":2169:2191  newOwner != address(0) */\n      0xffffffffffffffffffffffffffffffffffffffff\n      and\n      sub\n        /* \"@openzeppelin/contracts/access/Ownable.sol\":2161:2234  require(newOwner != address(0), \"Ownable: new owner is the zero address\") */\n      tag_72\n      jumpi\n      mload(0x40)\n      0x08c379a000000000000000000000000000000000000000000000000000000000\n      dup2\n      mstore\n      0x04\n      add\n      tag_73\n      swap1\n      tag_74\n      jump\t// in\n    tag_73:\n      mload(0x40)\n      dup1\n      swap2\n      sub\n      swap1\n      revert\n    tag_72:\n        /* \"@openzeppelin/contracts/access/Ownable.sol\":2244:2272  _transferOwnership(newOwner) */\n      tag_75\n        /* \"@openzeppelin/contracts/access/Ownable.sol\":2263:2271  newOwner */\n      dup2\n        /* \"@openzeppelin/contracts/access/Ownable.sol\":2244:2262  _transferOwnership */\n      tag_63\n        /* \"@openzeppelin/contracts/access/Ownable.sol\":2244:2272  _transferOwnership(newOwner) */\n      jump\t// in\n    tag_75:\n        /* \"@openzeppelin/contracts/access/Ownable.sol\":2081:2279  function transferOwnership(address newOwner) public virtual onlyOwner {... */\n      pop\n      jump\t// out\n        /* \"@openzeppelin/contracts/access/Ownable.sol\":1359:1489  function _checkOwner() internal view virtual {... */\n    tag_47:\n        /* \"@openzeppelin/contracts/access/Ownable.sol\":1433:1445  _msgSender() */\n      tag_77\n        /* \"@openzeppelin/contracts/access/Ownable.sol\":1433:1443  _msgSender */\n      tag_78\n        /* \"@openzeppelin/contracts/access/Ownable.sol\":1433:1445  _msgSender() */\n      jump\t// in\n    tag_77:\n        /* \"@openzeppelin/contracts/access/Ownable.sol\":1422:1445  owner() == _msgSender() */\n      0xffffffffffffffffffffffffffffffffffffffff\n      and\n        /* \"@openzeppelin/contracts/access/Ownable.sol\":1422:1429  owner() */\n      tag_79\n        /* \"@openzeppelin/contracts/access/Ownable.sol\":1422:1427  owner */\n      tag_35\n        /* \"@openzeppelin/contracts/access/Ownable.sol\":1422:1429  owner() */\n      jump\t// in\n    tag_79:\n        /* \"@openzeppelin/contracts/access/Ownable.sol\":1422:1445  owner() == _msgSender() */\n      0xffffffffffffffffffffffffffffffffffffffff\n      and\n      eq\n        /* \"@openzeppelin/contracts/access/Ownable.sol\":1414:1482  require(owner() == _msgSender(), \"Ownable: caller is not the owner\") */\n      tag_80\n      jumpi\n      mload(0x40)\n      0x08c379a000000000000000000000000000000000000000000000000000000000\n      dup2\n      mstore\n      0x04\n      add\n      tag_81\n      swap1\n      tag_82\n      jump\t// in\n    tag_81:\n      mload(0x40)\n      dup1\n      swap2\n      sub\n      swap1\n      revert\n    tag_80:\n        /* \"@openzeppelin/contracts/access/Ownable.sol\":1359:1489  function _checkOwner() internal view virtual {... */\n      jump\t// out\n        /* \"@openzeppelin/contracts/access/Ownable.sol\":2433:2620  function _transferOwnership(address newOwner) internal virtual {... */\n    tag_63:\n        /* \"@openzeppelin/contracts/access/Ownable.sol\":2506:2522  address oldOwner */\n      0x00\n        /* \"@openzeppelin/contracts/access/Ownable.sol\":2525:2531  _owner */\n      dup1\n      0x00\n      swap1\n      sload\n      swap1\n      0x0100\n      exp\n      swap1\n      div\n      0xffffffffffffffffffffffffffffffffffffffff\n      and\n        /* \"@openzeppelin/contracts/access/Ownable.sol\":2506:2531  address oldOwner = _owner */\n      swap1\n      pop\n        /* \"@openzeppelin/contracts/access/Ownable.sol\":2550:2558  newOwner */\n      dup2\n        /* \"@openzeppelin/contracts/access/Ownable.sol\":2541:2547  _owner */\n      0x00\n      dup1\n        /* \"@openzeppelin/contracts/access/Ownable.sol\":2541:2558  _owner = newOwner */\n      0x0100\n      exp\n      dup2\n      sload\n      dup2\n      0xffffffffffffffffffffffffffffffffffffffff\n      mul\n      not\n      and\n      swap1\n      dup4\n      0xffffffffffffffffffffffffffffffffffffffff\n      and\n      mul\n      or\n      swap1\n      sstore\n      pop\n        /* \"@openzeppelin/contracts/access/Ownable.sol\":2604:2612  newOwner */\n      dup2\n        /* \"@openzeppelin/contracts/access/Ownable.sol\":2573:2613  OwnershipTransferred(oldOwner, newOwner) */\n      0xffffffffffffffffffffffffffffffffffffffff\n      and\n        /* \"@openzeppelin/contracts/access/Ownable.sol\":2594:2602  oldOwner */\n      dup2\n        /* \"@openzeppelin/contracts/access/Ownable.sol\":2573:2613  OwnershipTransferred(oldOwner, newOwner) */\n      0xffffffffffffffffffffffffffffffffffffffff\n      and\n      0x8be0079c531659141344cd1fd0a4f28419497f9722a3daafe3b4186f6b6457e0\n      mload(0x40)\n      mload(0x40)\n      dup1\n      swap2\n      sub\n      swap1\n      log3\n        /* \"@openzeppelin/contracts/access/Ownable.sol\":2496:2620  {... */\n      pop\n        /* \"@openzeppelin/contracts/access/Ownable.sol\":2433:2620  function _transferOwnership(address newOwner) internal virtual {... */\n      pop\n      jump\t// out\n        /* \"@openzeppelin/contracts/utils/Context.sol\":640:736  function _msgSender() internal view virtual returns (address) {... */\n    tag_78:\n        /* \"@openzeppelin/contracts/utils/Context.sol\":693:700  address */\n      0x00\n        /* \"@openzeppelin/contracts/utils/Context.sol\":719:729  msg.sender */\n      caller\n        /* \"@openzeppelin/contracts/utils/Context.sol\":712:729  return msg.sender */\n      swap1\n      pop\n        /* \"@openzeppelin/contracts/utils/Context.sol\":640:736  function _msgSender() internal view virtual returns (address) {... */\n      swap1\n      jump\t// out\n        /* \"#utility.yul\":88:205   */\n    tag_86:\n        /* \"#utility.yul\":197:198   */\n      0x00\n        /* \"#utility.yul\":194:195   */\n      dup1\n        /* \"#utility.yul\":187:199   */\n      revert\n        /* \"#utility.yul\":334:460   */\n    tag_88:\n        /* \"#utility.yul\":371:378   */\n      0x00\n        /* \"#utility.yul\":411:453   */\n      0xffffffffffffffffffffffffffffffffffffffff\n        /* \"#utility.yul\":404:409   */\n      dup3\n        /* \"#utility.yul\":400:454   */\n      and\n        /* \"#utility.yul\":389:454   */\n      swap1\n      pop\n        /* \"#utility.yul\":334:460   */\n      swap2\n      swap1\n      pop\n      jump\t// out\n        /* \"#utility.yul\":466:562   */\n    tag_89:\n        /* \"#utility.yul\":503:510   */\n      0x00\n        /* \"#utility.yul\":532:556   */\n      tag_112\n        /* \"#utility.yul\":550:555   */\n      dup3\n        /* \"#utility.yul\":532:556   */\n      tag_88\n      jump\t// in\n    tag_112:\n        /* \"#utility.yul\":521:556   */\n      swap1\n      pop\n        /* \"#utility.yul\":466:562   */\n      swap2\n      swap1\n      pop\n      jump\t// out\n        /* \"#utility.yul\":568:690   */\n    tag_90:\n        /* \"#utility.yul\":641:665   */\n      tag_114\n        /* \"#utility.yul\":659:664   */\n      dup2\n        /* \"#utility.yul\":641:665   */\n      tag_89\n      jump\t// in\n    tag_114:\n        /* \"#utility.yul\":634:639   */\n      dup2\n        /* \"#utility.yul\":631:666   */\n      eq\n        /* \"#utility.yul\":621:684   */\n      tag_115\n      jumpi\n        /* \"#utility.yul\":680:681   */\n      0x00\n        /* \"#utility.yul\":677:678   */\n      dup1\n        /* \"#utility.yul\":670:682   */\n      revert\n        /* \"#utility.yul\":621:684   */\n    tag_115:\n        /* \"#utility.yul\":568:690   */\n      pop\n      jump\t// out\n        /* \"#utility.yul\":696:835   */\n    tag_91:\n        /* \"#utility.yul\":742:747   */\n      0x00\n        /* \"#utility.yul\":780:786   */\n      dup2\n        /* \"#utility.yul\":767:787   */\n      calldataload\n        /* \"#utility.yul\":758:787   */\n      swap1\n      pop\n        /* \"#utility.yul\":796:829   */\n      tag_117\n        /* \"#utility.yul\":823:828   */\n      dup2\n        /* \"#utility.yul\":796:829   */\n      tag_90\n      jump\t// in\n    tag_117:\n        /* \"#utility.yul\":696:835   */\n      swap3\n      swap2\n      pop\n      pop\n      jump\t// out\n        /* \"#utility.yul\":841:918   */\n    tag_92:\n        /* \"#utility.yul\":878:885   */\n      0x00\n        /* \"#utility.yul\":907:912   */\n      dup2\n        /* \"#utility.yul\":896:912   */\n      swap1\n      pop\n        /* \"#utility.yul\":841:918   */\n      swap2\n      swap1\n      pop\n      jump\t// out\n        /* \"#utility.yul\":924:1046   */\n    tag_93:\n        /* \"#utility.yul\":997:1021   */\n      tag_120\n        /* \"#utility.yul\":1015:1020   */\n      dup2\n        /* \"#utility.yul\":997:1021   */\n      tag_92\n      jump\t// in\n    tag_120:\n        /* \"#utility.yul\":990:995   */\n      dup2\n        /* \"#utility.yul\":987:1022   */\n      eq\n        /* \"#utility.yul\":977:1040   */\n      tag_121\n      jumpi\n        /* \"#utility.yul\":1036:1037   */\n      0x00\n        /* \"#utility.yul\":1033:1034   */\n      dup1\n        /* \"#utility.yul\":1026:1038   */\n      revert\n        /* \"#utility.yul\":977:1040   */\n    tag_121:\n        /* \"#utility.yul\":924:1046   */\n      pop\n      jump\t// out\n        /* \"#utility.yul\":1052:1191   */\n    tag_94:\n        /* \"#utility.yul\":1098:1103   */\n      0x00\n        /* \"#utility.yul\":1136:1142   */\n      dup2\n        /* \"#utility.yul\":1123:1143   */\n      calldataload\n        /* \"#utility.yul\":1114:1143   */\n      swap1\n      pop\n        /* \"#utility.yul\":1152:1185   */\n      tag_123\n        /* \"#utility.yul\":1179:1184   */\n      dup2\n        /* \"#utility.yul\":1152:1185   */\n      tag_93\n      jump\t// in\n    tag_123:\n        /* \"#utility.yul\":1052:1191   */\n      swap3\n      swap2\n      pop\n      pop\n      jump\t// out\n        /* \"#utility.yul\":1197:1962   */\n    tag_14:\n        /* \"#utility.yul\":1283:1289   */\n      0x00\n        /* \"#utility.yul\":1291:1297   */\n      dup1\n        /* \"#utility.yul\":1299:1305   */\n      0x00\n        /* \"#utility.yul\":1307:1313   */\n      dup1\n        /* \"#utility.yul\":1356:1359   */\n      0x80\n        /* \"#utility.yul\":1344:1353   */\n      dup6\n        /* \"#utility.yul\":1335:1342   */\n      dup8\n        /* \"#utility.yul\":1331:1354   */\n      sub\n        /* \"#utility.yul\":1327:1360   */\n      slt\n        /* \"#utility.yul\":1324:1444   */\n      iszero\n      tag_125\n      jumpi\n        /* \"#utility.yul\":1363:1442   */\n      tag_126\n      tag_86\n      jump\t// in\n    tag_126:\n        /* \"#utility.yul\":1324:1444   */\n    tag_125:\n        /* \"#utility.yul\":1483:1484   */\n      0x00\n        /* \"#utility.yul\":1508:1561   */\n      tag_127\n        /* \"#utility.yul\":1553:1560   */\n      dup8\n        /* \"#utility.yul\":1544:1550   */\n      dup3\n        /* \"#utility.yul\":1533:1542   */\n      dup9\n        /* \"#utility.yul\":1529:1551   */\n      add\n        /* \"#utility.yul\":1508:1561   */\n      tag_91\n      jump\t// in\n    tag_127:\n        /* \"#utility.yul\":1498:1561   */\n      swap5\n      pop\n        /* \"#utility.yul\":1454:1571   */\n      pop\n        /* \"#utility.yul\":1610:1612   */\n      0x20\n        /* \"#utility.yul\":1636:1689   */\n      tag_128\n        /* \"#utility.yul\":1681:1688   */\n      dup8\n        /* \"#utility.yul\":1672:1678   */\n      dup3\n        /* \"#utility.yul\":1661:1670   */\n      dup9\n        /* \"#utility.yul\":1657:1679   */\n      add\n        /* \"#utility.yul\":1636:1689   */\n      tag_91\n      jump\t// in\n    tag_128:\n        /* \"#utility.yul\":1626:1689   */\n      swap4\n      pop\n        /* \"#utility.yul\":1581:1699   */\n      pop\n        /* \"#utility.yul\":1738:1740   */\n      0x40\n        /* \"#utility.yul\":1764:1817   */\n      tag_129\n        /* \"#utility.yul\":1809:1816   */\n      dup8\n        /* \"#utility.yul\":1800:1806   */\n      dup3\n        /* \"#utility.yul\":1789:1798   */\n      dup9\n        /* \"#utility.yul\":1785:1807   */\n      add\n        /* \"#utility.yul\":1764:1817   */\n      tag_91\n      jump\t// in\n    tag_129:\n        /* \"#utility.yul\":1754:1817   */\n      swap3\n      pop\n        /* \"#utility.yul\":1709:1827   */\n      pop\n        /* \"#utility.yul\":1866:1868   */\n      0x60\n        /* \"#utility.yul\":1892:1945   */\n      tag_130\n        /* \"#utility.yul\":1937:1944   */\n      dup8\n        /* \"#utility.yul\":1928:1934   */\n      dup3\n        /* \"#utility.yul\":1917:1926   */\n      dup9\n        /* \"#utility.yul\":1913:1935   */\n      add\n        /* \"#utility.yul\":1892:1945   */\n      tag_94\n      jump\t// in\n    tag_130:\n        /* \"#utility.yul\":1882:1945   */\n      swap2\n      pop\n        /* \"#utility.yul\":1837:1955   */\n      pop\n        /* \"#utility.yul\":1197:1962   */\n      swap3\n      swap6\n      swap2\n      swap5\n      pop\n      swap3\n      pop\n      jump\t// out\n        /* \"#utility.yul\":1968:2442   */\n    tag_18:\n        /* \"#utility.yul\":2036:2042   */\n      0x00\n        /* \"#utility.yul\":2044:2050   */\n      dup1\n        /* \"#utility.yul\":2093:2095   */\n      0x40\n        /* \"#utility.yul\":2081:2090   */\n      dup4\n        /* \"#utility.yul\":2072:2079   */\n      dup6\n        /* \"#utility.yul\":2068:2091   */\n      sub\n        /* \"#utility.yul\":2064:2096   */\n      slt\n        /* \"#utility.yul\":2061:2180   */\n      iszero\n      tag_132\n      jumpi\n        /* \"#utility.yul\":2099:2178   */\n      tag_133\n      tag_86\n      jump\t// in\n    tag_133:\n        /* \"#utility.yul\":2061:2180   */\n    tag_132:\n        /* \"#utility.yul\":2219:2220   */\n      0x00\n        /* \"#utility.yul\":2244:2297   */\n      tag_134\n        /* \"#utility.yul\":2289:2296   */\n      dup6\n        /* \"#utility.yul\":2280:2286   */\n      dup3\n        /* \"#utility.yul\":2269:2278   */\n      dup7\n        /* \"#utility.yul\":2265:2287   */\n      add\n        /* \"#utility.yul\":2244:2297   */\n      tag_91\n      jump\t// in\n    tag_134:\n        /* \"#utility.yul\":2234:2297   */\n      swap3\n      pop\n        /* \"#utility.yul\":2190:2307   */\n      pop\n        /* \"#utility.yul\":2346:2348   */\n      0x20\n        /* \"#utility.yul\":2372:2425   */\n      tag_135\n        /* \"#utility.yul\":2417:2424   */\n      dup6\n        /* \"#utility.yul\":2408:2414   */\n      dup3\n        /* \"#utility.yul\":2397:2406   */\n      dup7\n        /* \"#utility.yul\":2393:2415   */\n      add\n        /* \"#utility.yul\":2372:2425   */\n      tag_94\n      jump\t// in\n    tag_135:\n        /* \"#utility.yul\":2362:2425   */\n      swap2\n      pop\n        /* \"#utility.yul\":2317:2435   */\n      pop\n        /* \"#utility.yul\":1968:2442   */\n      swap3\n      pop\n      swap3\n      swap1\n      pop\n      jump\t// out\n        /* \"#utility.yul\":2448:2566   */\n    tag_95:\n        /* \"#utility.yul\":2535:2559   */\n      tag_137\n        /* \"#utility.yul\":2553:2558   */\n      dup2\n        /* \"#utility.yul\":2535:2559   */\n      tag_89\n      jump\t// in\n    tag_137:\n        /* \"#utility.yul\":2530:2533   */\n      dup3\n        /* \"#utility.yul\":2523:2560   */\n      mstore\n        /* \"#utility.yul\":2448:2566   */\n      pop\n      pop\n      jump\t// out\n        /* \"#utility.yul\":2572:2690   */\n    tag_96:\n        /* \"#utility.yul\":2659:2683   */\n      tag_139\n        /* \"#utility.yul\":2677:2682   */\n      dup2\n        /* \"#utility.yul\":2659:2683   */\n      tag_92\n      jump\t// in\n    tag_139:\n        /* \"#utility.yul\":2654:2657   */\n      dup3\n        /* \"#utility.yul\":2647:2684   */\n      mstore\n        /* \"#utility.yul\":2572:2690   */\n      pop\n      pop\n      jump\t// out\n        /* \"#utility.yul\":2696:3028   */\n    tag_21:\n        /* \"#utility.yul\":2817:2821   */\n      0x00\n        /* \"#utility.yul\":2855:2857   */\n      0x40\n        /* \"#utility.yul\":2844:2853   */\n      dup3\n        /* \"#utility.yul\":2840:2858   */\n      add\n        /* \"#utility.yul\":2832:2858   */\n      swap1\n      pop\n        /* \"#utility.yul\":2868:2939   */\n      tag_141\n        /* \"#utility.yul\":2936:2937   */\n      0x00\n        /* \"#utility.yul\":2925:2934   */\n      dup4\n        /* \"#utility.yul\":2921:2938   */\n      add\n        /* \"#utility.yul\":2912:2918   */\n      dup6\n        /* \"#utility.yul\":2868:2939   */\n      tag_95\n      jump\t// in\n    tag_141:\n        /* \"#utility.yul\":2949:3021   */\n      tag_142\n        /* \"#utility.yul\":3017:3019   */\n      0x20\n        /* \"#utility.yul\":3006:3015   */\n      dup4\n        /* \"#utility.yul\":3002:3020   */\n      add\n        /* \"#utility.yul\":2993:2999   */\n      dup5\n        /* \"#utility.yul\":2949:3021   */\n      tag_96\n      jump\t// in\n    tag_142:\n        /* \"#utility.yul\":2696:3028   */\n      swap4\n      swap3\n      pop\n      pop\n      pop\n      jump\t// out\n        /* \"#utility.yul\":3034:3363   */\n    tag_24:\n        /* \"#utility.yul\":3093:3099   */\n      0x00\n        /* \"#utility.yul\":3142:3144   */\n      0x20\n        /* \"#utility.yul\":3130:3139   */\n      dup3\n        /* \"#utility.yul\":3121:3128   */\n      dup5\n        /* \"#utility.yul\":3117:3140   */\n      sub\n        /* \"#utility.yul\":3113:3145   */\n      slt\n        /* \"#utility.yul\":3110:3229   */\n      iszero\n      tag_144\n      jumpi\n        /* \"#utility.yul\":3148:3227   */\n      tag_145\n      tag_86\n      jump\t// in\n    tag_145:\n        /* \"#utility.yul\":3110:3229   */\n    tag_144:\n        /* \"#utility.yul\":3268:3269   */\n      0x00\n        /* \"#utility.yul\":3293:3346   */\n      tag_146\n        /* \"#utility.yul\":3338:3345   */\n      dup5\n        /* \"#utility.yul\":3329:3335   */\n      dup3\n        /* \"#utility.yul\":3318:3327   */\n      dup6\n        /* \"#utility.yul\":3314:3336   */\n      add\n        /* \"#utility.yul\":3293:3346   */\n      tag_91\n      jump\t// in\n    tag_146:\n        /* \"#utility.yul\":3283:3346   */\n      swap2\n      pop\n        /* \"#utility.yul\":3239:3356   */\n      pop\n        /* \"#utility.yul\":3034:3363   */\n      swap3\n      swap2\n      pop\n      pop\n      jump\t// out\n        /* \"#utility.yul\":3369:3811   */\n    tag_27:\n        /* \"#utility.yul\":3518:3522   */\n      0x00\n        /* \"#utility.yul\":3556:3558   */\n      0x60\n        /* \"#utility.yul\":3545:3554   */\n      dup3\n        /* \"#utility.yul\":3541:3559   */\n      add\n        /* \"#utility.yul\":3533:3559   */\n      swap1\n      pop\n        /* \"#utility.yul\":3569:3640   */\n      tag_148\n        /* \"#utility.yul\":3637:3638   */\n      0x00\n        /* \"#utility.yul\":3626:3635   */\n      dup4\n        /* \"#utility.yul\":3622:3639   */\n      add\n        /* \"#utility.yul\":3613:3619   */\n      dup7\n        /* \"#utility.yul\":3569:3640   */\n      tag_95\n      jump\t// in\n    tag_148:\n        /* \"#utility.yul\":3650:3722   */\n      tag_149\n        /* \"#utility.yul\":3718:3720   */\n      0x20\n        /* \"#utility.yul\":3707:3716   */\n      dup4\n        /* \"#utility.yul\":3703:3721   */\n      add\n        /* \"#utility.yul\":3694:3700   */\n      dup6\n        /* \"#utility.yul\":3650:3722   */\n      tag_95\n      jump\t// in\n    tag_149:\n        /* \"#utility.yul\":3732:3804   */\n      tag_150\n        /* \"#utility.yul\":3800:3802   */\n      0x40\n        /* \"#utility.yul\":3789:3798   */\n      dup4\n        /* \"#utility.yul\":3785:3803   */\n      add\n        /* \"#utility.yul\":3776:3782   */\n      dup5\n        /* \"#utility.yul\":3732:3804   */\n      tag_96\n      jump\t// in\n    tag_150:\n        /* \"#utility.yul\":3369:3811   */\n      swap5\n      swap4\n      pop\n      pop\n      pop\n      pop\n      jump\t// out\n        /* \"#utility.yul\":3817:4039   */\n    tag_31:\n        /* \"#utility.yul\":3910:3914   */\n      0x00\n        /* \"#utility.yul\":3948:3950   */\n      0x20\n        /* \"#utility.yul\":3937:3946   */\n      dup3\n        /* \"#utility.yul\":3933:3951   */\n      add\n        /* \"#utility.yul\":3925:3951   */\n      swap1\n      pop\n        /* \"#utility.yul\":3961:4032   */\n      tag_152\n        /* \"#utility.yul\":4029:4030   */\n      0x00\n        /* \"#utility.yul\":4018:4027   */\n      dup4\n        /* \"#utility.yul\":4014:4031   */\n      add\n        /* \"#utility.yul\":4005:4011   */\n      dup5\n        /* \"#utility.yul\":3961:4032   */\n      tag_96\n      jump\t// in\n    tag_152:\n        /* \"#utility.yul\":3817:4039   */\n      swap3\n      swap2\n      pop\n      pop\n      jump\t// out\n        /* \"#utility.yul\":4045:4267   */\n    tag_37:\n        /* \"#utility.yul\":4138:4142   */\n      0x00\n        /* \"#utility.yul\":4176:4178   */\n      0x20\n        /* \"#utility.yul\":4165:4174   */\n      dup3\n        /* \"#utility.yul\":4161:4179   */\n      add\n        /* \"#utility.yul\":4153:4179   */\n      swap1\n      pop\n        /* \"#utility.yul\":4189:4260   */\n      tag_154\n        /* \"#utility.yul\":4257:4258   */\n      0x00\n        /* \"#utility.yul\":4246:4255   */\n      dup4\n        /* \"#utility.yul\":4242:4259   */\n      add\n        /* \"#utility.yul\":4233:4239   */\n      dup5\n        /* \"#utility.yul\":4189:4260   */\n      tag_95\n      jump\t// in\n    tag_154:\n        /* \"#utility.yul\":4045:4267   */\n      swap3\n      swap2\n      pop\n      pop\n      jump\t// out\n        /* \"#utility.yul\":4273:4602   */\n    tag_40:\n        /* \"#utility.yul\":4332:4338   */\n      0x00\n        /* \"#utility.yul\":4381:4383   */\n      0x20\n        /* \"#utility.yul\":4369:4378   */\n      dup3\n        /* \"#utility.yul\":4360:4367   */\n      dup5\n        /* \"#utility.yul\":4356:4379   */\n      sub\n        /* \"#utility.yul\":4352:4384   */\n      slt\n        /* \"#utility.yul\":4349:4468   */\n      iszero\n      tag_156\n      jumpi\n        /* \"#utility.yul\":4387:4466   */\n      tag_157\n      tag_86\n      jump\t// in\n    tag_157:\n        /* \"#utility.yul\":4349:4468   */\n    tag_156:\n        /* \"#utility.yul\":4507:4508   */\n      0x00\n        /* \"#utility.yul\":4532:4585   */\n      tag_158\n        /* \"#utility.yul\":4577:4584   */\n      dup5\n        /* \"#utility.yul\":4568:4574   */\n      dup3\n        /* \"#utility.yul\":4557:4566   */\n      dup6\n        /* \"#utility.yul\":4553:4575   */\n      add\n        /* \"#utility.yul\":4532:4585   */\n      tag_94\n      jump\t// in\n    tag_158:\n        /* \"#utility.yul\":4522:4585   */\n      swap2\n      pop\n        /* \"#utility.yul\":4478:4595   */\n      pop\n        /* \"#utility.yul\":4273:4602   */\n      swap3\n      swap2\n      pop\n      pop\n      jump\t// out\n        /* \"#utility.yul\":4608:4777   */\n    tag_97:\n        /* \"#utility.yul\":4692:4703   */\n      0x00\n        /* \"#utility.yul\":4726:4732   */\n      dup3\n        /* \"#utility.yul\":4721:4724   */\n      dup3\n        /* \"#utility.yul\":4714:4733   */\n      mstore\n        /* \"#utility.yul\":4766:4770   */\n      0x20\n        /* \"#utility.yul\":4761:4764   */\n      dup3\n        /* \"#utility.yul\":4757:4771   */\n      add\n        /* \"#utility.yul\":4742:4771   */\n      swap1\n      pop\n        /* \"#utility.yul\":4608:4777   */\n      swap3\n      swap2\n      pop\n      pop\n      jump\t// out\n        /* \"#utility.yul\":4783:4954   */\n    tag_98:\n        /* \"#utility.yul\":4923:4946   */\n      0x526f79616c74793a2066656520746f6f20686967680000000000000000000000\n        /* \"#utility.yul\":4919:4920   */\n      0x00\n        /* \"#utility.yul\":4911:4917   */\n      dup3\n        /* \"#utility.yul\":4907:4921   */\n      add\n        /* \"#utility.yul\":4900:4947   */\n      mstore\n        /* \"#utility.yul\":4783:4954   */\n      pop\n      jump\t// out\n        /* \"#utility.yul\":4960:5326   */\n    tag_99:\n        /* \"#utility.yul\":5102:5105   */\n      0x00\n        /* \"#utility.yul\":5123:5190   */\n      tag_162\n        /* \"#utility.yul\":5187:5189   */\n      0x15\n        /* \"#utility.yul\":5182:5185   */\n      dup4\n        /* \"#utility.yul\":5123:5190   */\n      tag_97\n      jump\t// in\n    tag_162:\n        /* \"#utility.yul\":5116:5190   */\n      swap2\n      pop\n        /* \"#utility.yul\":5199:5292   */\n      tag_163\n        /* \"#utility.yul\":5288:5291   */\n      dup3\n        /* \"#utility.yul\":5199:5292   */\n      tag_98\n      jump\t// in\n    tag_163:\n        /* \"#utility.yul\":5317:5319   */\n      0x20\n        /* \"#utility.yul\":5312:5315   */\n      dup3\n        /* \"#utility.yul\":5308:5320   */\n      add\n        /* \"#utility.yul\":5301:5320   */\n      swap1\n      pop\n        /* \"#utility.yul\":4960:5326   */\n      swap2\n      swap1\n      pop\n      jump\t// out\n        /* \"#utility.yul\":5332:5751   */\n    tag_51:\n        /* \"#utility.yul\":5498:5502   */\n      0x00\n        /* \"#utility.yul\":5536:5538   */\n      0x20\n        /* \"#utility.yul\":5525:5534   */\n      dup3\n        /* \"#utility.yul\":5521:5539   */\n      add\n        /* \"#utility.yul\":5513:5539   */\n      swap1\n      pop\n        /* \"#utility.yul\":5585:5594   */\n      dup2\n        /* \"#utility.yul\":5579:5583   */\n      dup2\n        /* \"#utility.yul\":5575:5595   */\n      sub\n        /* \"#utility.yul\":5571:5572   */\n      0x00\n        /* \"#utility.yul\":5560:5569   */\n      dup4\n        /* \"#utility.yul\":5556:5573   */\n      add\n        /* \"#utility.yul\":5549:5596   */\n      mstore\n        /* \"#utility.yul\":5613:5744   */\n      tag_165\n        /* \"#utility.yul\":5739:5743   */\n      dup2\n        /* \"#utility.yul\":5613:5744   */\n      tag_99\n      jump\t// in\n    tag_165:\n        /* \"#utility.yul\":5605:5744   */\n      swap1\n      pop\n        /* \"#utility.yul\":5332:5751   */\n      swap2\n      swap1\n      pop\n      jump\t// out\n        /* \"#utility.yul\":5757:5937   */\n    tag_100:\n        /* \"#utility.yul\":5805:5882   */\n      0x4e487b7100000000000000000000000000000000000000000000000000000000\n        /* \"#utility.yul\":5802:5803   */\n      0x00\n        /* \"#utility.yul\":5795:5883   */\n      mstore\n        /* \"#utility.yul\":5902:5906   */\n      0x11\n        /* \"#utility.yul\":5899:5900   */\n      0x04\n        /* \"#utility.yul\":5892:5907   */\n      mstore\n        /* \"#utility.yul\":5926:5930   */\n      0x24\n        /* \"#utility.yul\":5923:5924   */\n      0x00\n        /* \"#utility.yul\":5916:5931   */\n      revert\n        /* \"#utility.yul\":5943:6353   */\n    tag_55:\n        /* \"#utility.yul\":5983:5990   */\n      0x00\n        /* \"#utility.yul\":6006:6026   */\n      tag_168\n        /* \"#utility.yul\":6024:6025   */\n      dup3\n        /* \"#utility.yul\":6006:6026   */\n      tag_92\n      jump\t// in\n    tag_168:\n        /* \"#utility.yul\":6001:6026   */\n      swap2\n      pop\n        /* \"#utility.yul\":6040:6060   */\n      tag_169\n        /* \"#utility.yul\":6058:6059   */\n      dup4\n        /* \"#utility.yul\":6040:6060   */\n      tag_92\n      jump\t// in\n    tag_169:\n        /* \"#utility.yul\":6035:6060   */\n      swap3\n      pop\n        /* \"#utility.yul\":6095:6096   */\n      dup3\n        /* \"#utility.yul\":6092:6093   */\n      dup3\n        /* \"#utility.yul\":6088:6097   */\n      mul\n        /* \"#utility.yul\":6117:6147   */\n      tag_170\n        /* \"#utility.yul\":6135:6146   */\n      dup2\n        /* \"#utility.yul\":6117:6147   */\n      tag_92\n      jump\t// in\n    tag_170:\n        /* \"#utility.yul\":6106:6147   */\n      swap2\n      pop\n        /* \"#utility.yul\":6296:6297   */\n      dup3\n        /* \"#utility.yul\":6287:6294   */\n      dup3\n        /* \"#utility.yul\":6283:6298   */\n      div\n        /* \"#utility.yul\":6280:6281   */\n      dup5\n        /* \"#utility.yul\":6277:6299   */\n      eq\n        /* \"#utility.yul\":6257:6258   */\n      dup4\n        /* \"#utility.yul\":6250:6259   */\n      iszero\n        /* \"#utility.yul\":6230:6313   */\n      or\n        /* \"#utility.yul\":6207:6346   */\n      tag_171\n      jumpi\n        /* \"#utility.yul\":6326:6344   */\n      tag_172\n      tag_100\n      jump\t// in\n    tag_172:\n        /* \"#utility.yul\":6207:6346   */\n    tag_171:\n        /* \"#utility.yul\":5991:6353   */\n      pop\n        /* \"#utility.yul\":5943:6353   */\n      swap3\n      swap2\n      pop\n      pop\n      jump\t// out\n        /* \"#utility.yul\":6359:6539   */\n    tag_101:\n        /* \"#utility.yul\":6407:6484   */\n      0x4e487b7100000000000000000000000000000000000000000000000000000000\n        /* \"#utility.yul\":6404:6405   */\n      0x00\n        /* \"#utility.yul\":6397:6485   */\n      mstore\n        /* \"#utility.yul\":6504:6508   */\n      0x12\n        /* \"#utility.yul\":6501:6502   */\n      0x04\n        /* \"#utility.yul\":6494:6509   */\n      mstore\n        /* \"#utility.yul\":6528:6532   */\n      0x24\n        /* \"#utility.yul\":6525:6526   */\n      0x00\n        /* \"#utility.yul\":6518:6533   */\n      revert\n        /* \"#utility.yul\":6545:6730   */\n    tag_57:\n        /* \"#utility.yul\":6585:6586   */\n      0x00\n        /* \"#utility.yul\":6602:6622   */\n      tag_175\n        /* \"#utility.yul\":6620:6621   */\n      dup3\n        /* \"#utility.yul\":6602:6622   */\n      tag_92\n      jump\t// in\n    tag_175:\n        /* \"#utility.yul\":6597:6622   */\n      swap2\n      pop\n        /* \"#utility.yul\":6636:6656   */\n      tag_176\n        /* \"#utility.yul\":6654:6655   */\n      dup4\n        /* \"#utility.yul\":6636:6656   */\n      tag_92\n      jump\t// in\n    tag_176:\n        /* \"#utility.yul\":6631:6656   */\n      swap3\n      pop\n        /* \"#utility.yul\":6675:6676   */\n      dup3\n        /* \"#utility.yul\":6665:6700   */\n      tag_177\n      jumpi\n        /* \"#utility.yul\":6680:6698   */\n      tag_178\n      tag_101\n      jump\t// in\n    tag_178:\n        /* \"#utility.yul\":6665:6700   */\n    tag_177:\n        /* \"#utility.yul\":6722:6723   */\n      dup3\n        /* \"#utility.yul\":6719:6720   */\n      dup3\n        /* \"#utility.yul\":6715:6724   */\n      div\n        /* \"#utility.yul\":6710:6724   */\n      swap1\n      pop\n        /* \"#utility.yul\":6545:6730   */\n      swap3\n      swap2\n      pop\n      pop\n      jump\t// out\n        /* \"#utility.yul\":6736:6961   */\n    tag_102:\n        /* \"#utility.yul\":6876:6910   */\n      0x4f776e61626c653a206e6577206f776e657220697320746865207a65726f2061\n        /* \"#utility.yul\":6872:6873   */\n      0x00\n        /* \"#utility.yul\":6864:6870   */\n      dup3\n        /* \"#utility.yul\":6860:6874   */\n      add\n        /* \"#utility.yul\":6853:6911   */\n      mstore\n        /* \"#utility.yul\":6945:6953   */\n      0x6464726573730000000000000000000000000000000000000000000000000000\n        /* \"#utility.yul\":6940:6942   */\n      0x20\n        /* \"#utility.yul\":6932:6938   */\n      dup3\n        /* \"#utility.yul\":6928:6943   */\n      add\n        /* \"#utility.yul\":6921:6954   */\n      mstore\n        /* \"#utility.yul\":6736:6961   */\n      pop\n      jump\t// out\n        /* \"#utility.yul\":6967:7333   */\n    tag_103:\n        /* \"#utility.yul\":7109:7112   */\n      0x00\n        /* \"#utility.yul\":7130:7197   */\n      tag_181\n        /* \"#utility.yul\":7194:7196   */\n      0x26\n        /* \"#utility.yul\":7189:7192   */\n      dup4\n        /* \"#utility.yul\":7130:7197   */\n      tag_97\n      jump\t// in\n    tag_181:\n        /* \"#utility.yul\":7123:7197   */\n      swap2\n      pop\n        /* \"#utility.yul\":7206:7299   */\n      tag_182\n        /* \"#utility.yul\":7295:7298   */\n      dup3\n        /* \"#utility.yul\":7206:7299   */\n      tag_102\n      jump\t// in\n    tag_182:\n        /* \"#utility.yul\":7324:7326   */\n      0x40\n        /* \"#utility.yul\":7319:7322   */\n      dup3\n        /* \"#utility.yul\":7315:7327   */\n      add\n        /* \"#utility.yul\":7308:7327   */\n      swap1\n      pop\n        /* \"#utility.yul\":6967:7333   */\n      swap2\n      swap1\n      pop\n      jump\t// out\n        /* \"#utility.yul\":7339:7758   */\n    tag_74:\n        /* \"#utility.yul\":7505:7509   */\n      0x00\n        /* \"#utility.yul\":7543:7545   */\n      0x20\n        /* \"#utility.yul\":7532:7541   */\n      dup3\n        /* \"#utility.yul\":7528:7546   */\n      add\n        /* \"#utility.yul\":7520:7546   */\n      swap1\n      pop\n        /* \"#utility.yul\":7592:7601   */\n      dup2\n        /* \"#utility.yul\":7586:7590   */\n      dup2\n        /* \"#utility.yul\":7582:7602   */\n      sub\n        /* \"#utility.yul\":7578:7579   */\n      0x00\n        /* \"#utility.yul\":7567:7576   */\n      dup4\n        /* \"#utility.yul\":7563:7580   */\n      add\n        /* \"#utility.yul\":7556:7603   */\n      mstore\n        /* \"#utility.yul\":7620:7751   */\n      tag_184\n        /* \"#utility.yul\":7746:7750   */\n      dup2\n        /* \"#utility.yul\":7620:7751   */\n      tag_103\n      jump\t// in\n    tag_184:\n        /* \"#utility.yul\":7612:7751   */\n      swap1\n      pop\n        /* \"#utility.yul\":7339:7758   */\n      swap2\n      swap1\n      pop\n      jump\t// out\n        /* \"#utility.yul\":7764:7946   */\n    tag_104:\n        /* \"#utility.yul\":7904:7938   */\n      0x4f776e61626c653a2063616c6c6572206973206e6f7420746865206f776e6572\n        /* \"#utility.yul\":7900:7901   */\n      0x00\n        /* \"#utility.yul\":7892:7898   */\n      dup3\n        /* \"#utility.yul\":7888:7902   */\n      add\n        /* \"#utility.yul\":7881:7939   */\n      mstore\n        /* \"#utility.yul\":7764:7946   */\n      pop\n      jump\t// out\n        /* \"#utility.yul\":7952:8318   */\n    tag_105:\n        /* \"#utility.yul\":8094:8097   */\n      0x00\n        /* \"#utility.yul\":8115:8182   */\n      tag_187\n        /* \"#utility.yul\":8179:8181   */\n      0x20\n        /* \"#utility.yul\":8174:8177   */\n      dup4\n        /* \"#utility.yul\":8115:8182   */\n      tag_97\n      jump\t// in\n    tag_187:\n        /* \"#utility.yul\":8108:8182   */\n      swap2\n      pop\n        /* \"#utility.yul\":8191:8284   */\n      tag_188\n        /* \"#utility.yul\":8280:8283   */\n      dup3\n        /* \"#utility.yul\":8191:8284   */\n      tag_104\n      jump\t// in\n    tag_188:\n        /* \"#utility.yul\":8309:8311   */\n      0x20\n        /* \"#utility.yul\":8304:8307   */\n      dup3\n        /* \"#utility.yul\":8300:8312   */\n      add\n        /* \"#utility.yul\":8293:8312   */\n      swap1\n      pop\n        /* \"#utility.yul\":7952:8318   */\n      swap2\n      swap1\n      pop\n      jump\t// out\n        /* \"#utility.yul\":8324:8743   */\n    tag_82:\n        /* \"#utility.yul\":8490:8494   */\n      0x00\n        /* \"#utility.yul\":8528:8530   */\n      0x20\n        /* \"#utility.yul\":8517:8526   */\n      dup3\n        /* \"#utility.yul\":8513:8531   */\n      add\n        /* \"#utility.yul\":8505:8531   */\n      swap1\n      pop\n        /* \"#utility.yul\":8577:8586   */\n      dup2\n        /* \"#utility.yul\":8571:8575   */\n      dup2\n        /* \"#utility.yul\":8567:8587   */\n      sub\n        /* \"#utility.yul\":8563:8564   */\n      0x00\n        /* \"#utility.yul\":8552:8561   */\n      dup4\n        /* \"#utility.yul\":8548:8565   */\n      add\n        /* \"#utility.yul\":8541:8588   */\n      mstore\n        /* \"#utility.yul\":8605:8736   */\n      tag_190\n        /* \"#utility.yul\":8731:8735   */\n      dup2\n        /* \"#utility.yul\":8605:8736   */\n      tag_105\n      jump\t// in\n    tag_190:\n        /* \"#utility.yul\":8597:8736   */\n      swap1\n      pop\n        /* \"#utility.yul\":8324:8743   */\n      swap2\n      swap1\n      pop\n      jump\t// out\n\n    auxdata: 0xa2646970667358221220c69f221c8e6332d5003daa685f5f4f15d2ea84e9352ed0ec56b7130d844e7ec964736f6c63430008130033\n}\n",
				"bytecode": {
					"linkReferences": {},
					"object": "60806040523480156200001157600080fd5b5060405162000ea438038062000ea48339818101604052810190620000379190620001aa565b620000576200004b6200009e60201b60201c565b620000a660201b60201c565b806001819055507f2da7166c72ef3860ef4fb2571105533c40615269a6dbc38ce0b264910df1c256816040516200008f9190620001ed565b60405180910390a1506200020a565b600033905090565b60008060009054906101000a900473ffffffffffffffffffffffffffffffffffffffff169050816000806101000a81548173ffffffffffffffffffffffffffffffffffffffff021916908373ffffffffffffffffffffffffffffffffffffffff1602179055508173ffffffffffffffffffffffffffffffffffffffff168173ffffffffffffffffffffffffffffffffffffffff167f8be0079c531659141344cd1fd0a4f28419497f9722a3daafe3b4186f6b6457e060405160405180910390a35050565b600080fd5b6000819050919050565b62000184816200016f565b81146200019057600080fd5b50565b600081519050620001a48162000179565b92915050565b600060208284031215620001c357620001c26200016a565b5b6000620001d38482850162000193565b91505092915050565b620001e7816200016f565b82525050565b6000602082019050620002046000830184620001dc565b92915050565b610c8a806200021a6000396000f3fe608060405234801561001057600080fd5b50600436106100885760003560e01c8063715018a61161005b578063715018a61461012a5780638da5cb5b14610134578063b9223c9d14610152578063f2fde38b1461016e57610088565b80630eecf97b1461008d5780632782d6c7146100a95780632adc45e8146100da5780634fb7d3f91461010c575b600080fd5b6100a760048036038101906100a29190610853565b61018a565b005b6100c360048036038101906100be91906108ba565b61037a565b6040516100d1929190610918565b60405180910390f35b6100f460048036038101906100ef9190610941565b610446565b6040516101039392919061096e565b60405180910390f35b610114610561565b60405161012191906109a5565b60405180910390f35b610132610567565b005b61013c61057b565b60405161014991906109c0565b60405180910390f35b61016c600480360381019061016791906109db565b6105a4565b005b61018860048036038101906101839190610941565b6105ed565b005b610192610670565b6001548111156101d7576040517f08c379a00000000000000000000000000000000000000000000000000000000081526004016101ce90610a65565b60405180910390fd5b60405180606001604052808473ffffffffffffffffffffffffffffffffffffffff1681526020018373ffffffffffffffffffffffffffffffffffffffff16815260200182815250600260008673ffffffffffffffffffffffffffffffffffffffff1673ffffffffffffffffffffffffffffffffffffffff16815260200190815260200160002060008201518160000160006101000a81548173ffffffffffffffffffffffffffffffffffffffff021916908373ffffffffffffffffffffffffffffffffffffffff16021790555060208201518160010160006101000a81548173ffffffffffffffffffffffffffffffffffffffff021916908373ffffffffffffffffffffffffffffffffffffffff160217905550604082015181600201559050508173ffffffffffffffffffffffffffffffffffffffff168373ffffffffffffffffffffffffffffffffffffffff168573ffffffffffffffffffffffffffffffffffffffff167fd01984afa6e37420452e575e7d99dd7e632b3ec8ea2adec998475b76ca494d648460405161036c91906109a5565b60405180910390a450505050565b600080600260008573ffffffffffffffffffffffffffffffffffffffff1673ffffffffffffffffffffffffffffffffffffffff16815260200190815260200160002060010160009054906101000a900473ffffffffffffffffffffffffffffffffffffffff16612710600260008773ffffffffffffffffffffffffffffffffffffffff1673ffffffffffffffffffffffffffffffffffffffff16815260200190815260200160002060020154856104319190610ab4565b61043b9190610b25565b915091509250929050565b6000806000600260008573ffffffffffffffffffffffffffffffffffffffff1673ffffffffffffffffffffffffffffffffffffffff16815260200190815260200160002060000160009054906101000a900473ffffffffffffffffffffffffffffffffffffffff16600260008673ffffffffffffffffffffffffffffffffffffffff1673ffffffffffffffffffffffffffffffffffffffff16815260200190815260200160002060010160009054906101000a900473ffffffffffffffffffffffffffffffffffffffff16600260008773ffffffffffffffffffffffffffffffffffffffff1673ffffffffffffffffffffffffffffffffffffffff168152602001908152602001600020600201549250925092509193909250565b60015481565b61056f610670565b61057960006106ee565b565b60008060009054906101000a900473ffffffffffffffffffffffffffffffffffffffff16905090565b6105ac610670565b806001819055507f2da7166c72ef3860ef4fb2571105533c40615269a6dbc38ce0b264910df1c256816040516105e291906109a5565b60405180910390a150565b6105f5610670565b600073ffffffffffffffffffffffffffffffffffffffff168173ffffffffffffffffffffffffffffffffffffffff1603610664576040517f08c379a000000000000000000000000000000000000000000000000000000000815260040161065b90610bc8565b60405180910390fd5b61066d816106ee565b50565b6106786107b2565b73ffffffffffffffffffffffffffffffffffffffff1661069661057b565b73ffffffffffffffffffffffffffffffffffffffff16146106ec576040517f08c379a00000000000000000000000000000000000000000000000000000000081526004016106e390610c34565b60405180910390fd5b565b60008060009054906101000a900473ffffffffffffffffffffffffffffffffffffffff169050816000806101000a81548173ffffffffffffffffffffffffffffffffffffffff021916908373ffffffffffffffffffffffffffffffffffffffff1602179055508173ffffffffffffffffffffffffffffffffffffffff168173ffffffffffffffffffffffffffffffffffffffff167f8be0079c531659141344cd1fd0a4f28419497f9722a3daafe3b4186f6b6457e060405160405180910390a35050565b600033905090565b600080fd5b600073ffffffffffffffffffffffffffffffffffffffff82169050919050565b60006107ea826107bf565b9050919050565b6107fa816107df565b811461080557600080fd5b50565b600081359050610817816107f1565b92915050565b6000819050919050565b6108308161081d565b811461083b57600080fd5b50565b60008135905061084d81610827565b92915050565b6000806000806080858703121561086d5761086c6107ba565b5b600061087b87828801610808565b945050602061088c87828801610808565b935050604061089d87828801610808565b92505060606108ae8782880161083e565b91505092959194509250565b600080604083850312156108d1576108d06107ba565b5b60006108df85828601610808565b92505060206108f08582860161083e565b9150509250929050565b610903816107df565b82525050565b6109128161081d565b82525050565b600060408201905061092d60008301856108fa565b61093a6020830184610909565b9392505050565b600060208284031215610957576109566107ba565b5b600061096584828501610808565b91505092915050565b600060608201905061098360008301866108fa565b61099060208301856108fa565b61099d6040830184610909565b949350505050565b60006020820190506109ba6000830184610909565b92915050565b60006020820190506109d560008301846108fa565b92915050565b6000602082840312156109f1576109f06107ba565b5b60006109ff8482850161083e565b91505092915050565b600082825260208201905092915050565b7f526f79616c74793a2066656520746f6f20686967680000000000000000000000600082015250565b6000610a4f601583610a08565b9150610a5a82610a19565b602082019050919050565b60006020820190508181036000830152610a7e81610a42565b9050919050565b7f4e487b7100000000000000000000000000000000000000000000000000000000600052601160045260246000fd5b6000610abf8261081d565b9150610aca8361081d565b9250828202610ad88161081d565b91508282048414831517610aef57610aee610a85565b5b5092915050565b7f4e487b7100000000000000000000000000000000000000000000000000000000600052601260045260246000fd5b6000610b308261081d565b9150610b3b8361081d565b925082610b4b57610b4a610af6565b5b828204905092915050565b7f4f776e61626c653a206e6577206f776e657220697320746865207a65726f206160008201527f6464726573730000000000000000000000000000000000000000000000000000602082015250565b6000610bb2602683610a08565b9150610bbd82610b56565b604082019050919050565b60006020820190508181036000830152610be181610ba5565b9050919050565b7f4f776e61626c653a2063616c6c6572206973206e6f7420746865206f776e6572600082015250565b6000610c1e602083610a08565b9150610c2982610be8565b602082019050919050565b60006020820190508181036000830152610c4d81610c11565b905091905056fea2646970667358221220c69f221c8e6332d5003daa685f5f4f15d2ea84e9352ed0ec56b7130d844e7ec964736f6c63430008130033",
					"opcodes": "PUSH1 0x80 PUSH1 0x40 MSTORE CALLVALUE DUP1 ISZERO PUSH3 0x11 JUMPI PUSH1 0x0 DUP1 REVERT JUMPDEST POP PUSH1 0x40 MLOAD PUSH3 0xEA4 CODESIZE SUB DUP1 PUSH3 0xEA4 DUP4 CODECOPY DUP2 DUP2 ADD PUSH1 0x40 MSTORE DUP2 ADD SWAP1 PUSH3 0x37 SWAP2 SWAP1 PUSH3 0x1AA JUMP JUMPDEST PUSH3 0x57 PUSH3 0x4B PUSH3 0x9E PUSH1 0x20 SHL PUSH1 0x20 SHR JUMP JUMPDEST PUSH3 0xA6 PUSH1 0x20 SHL PUSH1 0x20 SHR JUMP JUMPDEST DUP1 PUSH1 0x1 DUP2 SWAP1 SSTORE POP PUSH32 0x2DA7166C72EF3860EF4FB2571105533C40615269A6DBC38CE0B264910DF1C256 DUP2 PUSH1 0x40 MLOAD PUSH3 0x8F SWAP2 SWAP1 PUSH3 0x1ED JUMP JUMPDEST PUSH1 0x40 MLOAD DUP1 SWAP2 SUB SWAP1 LOG1 POP PUSH3 0x20A JUMP JUMPDEST PUSH1 0x0 CALLER SWAP1 POP SWAP1 JUMP JUMPDEST PUSH1 0x0 DUP1 PUSH1 0x0 SWAP1 SLOAD SWAP1 PUSH2 0x100 EXP SWAP1 DIV PUSH20 0xFFFFFFFFFFFFFFFFFFFFFFFFFFFFFFFFFFFFFFFF AND SWAP1 POP DUP2 PUSH1 0x0 DUP1 PUSH2 0x100 EXP DUP2 SLOAD DUP2 PUSH20 0xFFFFFFFFFFFFFFFFFFFFFFFFFFFFFFFFFFFFFFFF MUL NOT AND SWAP1 DUP4 PUSH20 0xFFFFFFFFFFFFFFFFFFFFFFFFFFFFFFFFFFFFFFFF AND MUL OR SWAP1 SSTORE POP DUP2 PUSH20 0xFFFFFFFFFFFFFFFFFFFFFFFFFFFFFFFFFFFFFFFF AND DUP2 PUSH20 0xFFFFFFFFFFFFFFFFFFFFFFFFFFFFFFFFFFFFFFFF AND PUSH32 0x8BE0079C531659141344CD1FD0A4F28419497F9722A3DAAFE3B4186F6B6457E0 PUSH1 0x40 MLOAD PUSH1 0x40 MLOAD DUP1 SWAP2 SUB SWAP1 LOG3 POP POP JUMP JUMPDEST PUSH1 0x0 DUP1 REVERT JUMPDEST PUSH1 0x0 DUP2 SWAP1 POP SWAP2 SWAP1 POP JUMP JUMPDEST PUSH3 0x184 DUP2 PUSH3 0x16F JUMP JUMPDEST DUP2 EQ PUSH3 0x190 JUMPI PUSH1 0x0 DUP1 REVERT JUMPDEST POP JUMP JUMPDEST PUSH1 0x0 DUP2 MLOAD SWAP1 POP PUSH3 0x1A4 DUP2 PUSH3 0x179 JUMP JUMPDEST SWAP3 SWAP2 POP POP JUMP JUMPDEST PUSH1 0x0 PUSH1 0x20 DUP3 DUP5 SUB SLT ISZERO PUSH3 0x1C3 JUMPI PUSH3 0x1C2 PUSH3 0x16A JUMP JUMPDEST JUMPDEST PUSH1 0x0 PUSH3 0x1D3 DUP5 DUP3 DUP6 ADD PUSH3 0x193 JUMP JUMPDEST SWAP2 POP POP SWAP3 SWAP2 POP POP JUMP JUMPDEST PUSH3 0x1E7 DUP2 PUSH3 0x16F JUMP JUMPDEST DUP3 MSTORE POP POP JUMP JUMPDEST PUSH1 0x0 PUSH1 0x20 DUP3 ADD SWAP1 POP PUSH3 0x204 PUSH1 0x0 DUP4 ADD DUP5 PUSH3 0x1DC JUMP JUMPDEST SWAP3 SWAP2 POP POP JUMP JUMPDEST PUSH2 0xC8A DUP1 PUSH3 0x21A PUSH1 0x0 CODECOPY PUSH1 0x0 RETURN INVALID PUSH1 0x80 PUSH1 0x40 MSTORE CALLVALUE DUP1 ISZERO PUSH2 0x10 JUMPI PUSH1 0x0 DUP1 REVERT JUMPDEST POP PUSH1 0x4 CALLDATASIZE LT PUSH2 0x88 JUMPI PUSH1 0x0 CALLDATALOAD PUSH1 0xE0 SHR DUP1 PUSH4 0x715018A6 GT PUSH2 0x5B JUMPI DUP1 PUSH4 0x715018A6 EQ PUSH2 0x12A JUMPI DUP1 PUSH4 0x8DA5CB5B EQ PUSH2 0x134 JUMPI DUP1 PUSH4 0xB9223C9D EQ PUSH2 0x152 JUMPI DUP1 PUSH4 0xF2FDE38B EQ PUSH2 0x16E JUMPI PUSH2 0x88 JUMP JUMPDEST DUP1 PUSH4 0xEECF97B EQ PUSH2 0x8D JUMPI DUP1 PUSH4 0x2782D6C7 EQ PUSH2 0xA9 JUMPI DUP1 PUSH4 0x2ADC45E8 EQ PUSH2 0xDA JUMPI DUP1 PUSH4 0x4FB7D3F9 EQ PUSH2 0x10C JUMPI JUMPDEST PUSH1 0x0 DUP1 REVERT JUMPDEST PUSH2 0xA7 PUSH1 0x4 DUP1 CALLDATASIZE SUB DUP2 ADD SWAP1 PUSH2 0xA2 SWAP2 SWAP1 PUSH2 0x853 JUMP JUMPDEST PUSH2 0x18A JUMP JUMPDEST STOP JUMPDEST PUSH2 0xC3 PUSH1 0x4 DUP1 CALLDATASIZE SUB DUP2 ADD SWAP1 PUSH2 0xBE SWAP2 SWAP1 PUSH2 0x8BA JUMP JUMPDEST PUSH2 0x37A JUMP JUMPDEST PUSH1 0x40 MLOAD PUSH2 0xD1 SWAP3 SWAP2 SWAP1 PUSH2 0x918 JUMP JUMPDEST PUSH1 0x40 MLOAD DUP1 SWAP2 SUB SWAP1 RETURN JUMPDEST PUSH2 0xF4 PUSH1 0x4 DUP1 CALLDATASIZE SUB DUP2 ADD SWAP1 PUSH2 0xEF SWAP2 SWAP1 PUSH2 0x941 JUMP JUMPDEST PUSH2 0x446 JUMP JUMPDEST PUSH1 0x40 MLOAD PUSH2 0x103 SWAP4 SWAP3 SWAP2 SWAP1 PUSH2 0x96E JUMP JUMPDEST PUSH1 0x40 MLOAD DUP1 SWAP2 SUB SWAP1 RETURN JUMPDEST PUSH2 0x114 PUSH2 0x561 JUMP JUMPDEST PUSH1 0x40 MLOAD PUSH2 0x121 SWAP2 SWAP1 PUSH2 0x9A5 JUMP JUMPDEST PUSH1 0x40 MLOAD DUP1 SWAP2 SUB SWAP1 RETURN JUMPDEST PUSH2 0x132 PUSH2 0x567 JUMP JUMPDEST STOP JUMPDEST PUSH2 0x13C PUSH2 0x57B JUMP JUMPDEST PUSH1 0x40 MLOAD PUSH2 0x149 SWAP2 SWAP1 PUSH2 0x9C0 JUMP JUMPDEST PUSH1 0x40 MLOAD DUP1 SWAP2 SUB SWAP1 RETURN JUMPDEST PUSH2 0x16C PUSH1 0x4 DUP1 CALLDATASIZE SUB DUP2 ADD SWAP1 PUSH2 0x167 SWAP2 SWAP1 PUSH2 0x9DB JUMP JUMPDEST PUSH2 0x5A4 JUMP JUMPDEST STOP JUMPDEST PUSH2 0x188 PUSH1 0x4 DUP1 CALLDATASIZE SUB DUP2 ADD SWAP1 PUSH2 0x183 SWAP2 SWAP1 PUSH2 0x941 JUMP JUMPDEST PUSH2 0x5ED JUMP JUMPDEST STOP JUMPDEST PUSH2 0x192 PUSH2 0x670 JUMP JUMPDEST PUSH1 0x1 SLOAD DUP2 GT ISZERO PUSH2 0x1D7 JUMPI PUSH1 0x40 MLOAD PUSH32 0x8C379A000000000000000000000000000000000000000000000000000000000 DUP2 MSTORE PUSH1 0x4 ADD PUSH2 0x1CE SWAP1 PUSH2 0xA65 JUMP JUMPDEST PUSH1 0x40 MLOAD DUP1 SWAP2 SUB SWAP1 REVERT JUMPDEST PUSH1 0x40 MLOAD DUP1 PUSH1 0x60 ADD PUSH1 0x40 MSTORE DUP1 DUP5 PUSH20 0xFFFFFFFFFFFFFFFFFFFFFFFFFFFFFFFFFFFFFFFF AND DUP2 MSTORE PUSH1 0x20 ADD DUP4 PUSH20 0xFFFFFFFFFFFFFFFFFFFFFFFFFFFFFFFFFFFFFFFF AND DUP2 MSTORE PUSH1 0x20 ADD DUP3 DUP2 MSTORE POP PUSH1 0x2 PUSH1 0x0 DUP7 PUSH20 0xFFFFFFFFFFFFFFFFFFFFFFFFFFFFFFFFFFFFFFFF AND PUSH20 0xFFFFFFFFFFFFFFFFFFFFFFFFFFFFFFFFFFFFFFFF AND DUP2 MSTORE PUSH1 0x20 ADD SWAP1 DUP2 MSTORE PUSH1 0x20 ADD PUSH1 0x0 KECCAK256 PUSH1 0x0 DUP3 ADD MLOAD DUP2 PUSH1 0x0 ADD PUSH1 0x0 PUSH2 0x100 EXP DUP2 SLOAD DUP2 PUSH20 0xFFFFFFFFFFFFFFFFFFFFFFFFFFFFFFFFFFFFFFFF MUL NOT AND SWAP1 DUP4 PUSH20 0xFFFFFFFFFFFFFFFFFFFFFFFFFFFFFFFFFFFFFFFF AND MUL OR SWAP1 SSTORE POP PUSH1 0x20 DUP3 ADD MLOAD DUP2 PUSH1 0x1 ADD PUSH1 0x0 PUSH2 0x100 EXP DUP2 SLOAD DUP2 PUSH20 0xFFFFFFFFFFFFFFFFFFFFFFFFFFFFFFFFFFFFFFFF MUL NOT AND SWAP1 DUP4 PUSH20 0xFFFFFFFFFFFFFFFFFFFFFFFFFFFFFFFFFFFFFFFF AND MUL OR SWAP1 SSTORE POP PUSH1 0x40 DUP3 ADD MLOAD DUP2 PUSH1 0x2 ADD SSTORE SWAP1 POP POP DUP2 PUSH20 0xFFFFFFFFFFFFFFFFFFFFFFFFFFFFFFFFFFFFFFFF AND DUP4 PUSH20 0xFFFFFFFFFFFFFFFFFFFFFFFFFFFFFFFFFFFFFFFF AND DUP6 PUSH20 0xFFFFFFFFFFFFFFFFFFFFFFFFFFFFFFFFFFFFFFFF AND PUSH32 0xD01984AFA6E37420452E575E7D99DD7E632B3EC8EA2ADEC998475B76CA494D64 DUP5 PUSH1 0x40 MLOAD PUSH2 0x36C SWAP2 SWAP1 PUSH2 0x9A5 JUMP JUMPDEST PUSH1 0x40 MLOAD DUP1 SWAP2 SUB SWAP1 LOG4 POP POP POP POP JUMP JUMPDEST PUSH1 0x0 DUP1 PUSH1 0x2 PUSH1 0x0 DUP6 PUSH20 0xFFFFFFFFFFFFFFFFFFFFFFFFFFFFFFFFFFFFFFFF AND PUSH20 0xFFFFFFFFFFFFFFFFFFFFFFFFFFFFFFFFFFFFFFFF AND DUP2 MSTORE PUSH1 0x20 ADD SWAP1 DUP2 MSTORE PUSH1 0x20 ADD PUSH1 0x0 KECCAK256 PUSH1 0x1 ADD PUSH1 0x0 SWAP1 SLOAD SWAP1 PUSH2 0x100 EXP SWAP1 DIV PUSH20 0xFFFFFFFFFFFFFFFFFFFFFFFFFFFFFFFFFFFFFFFF AND PUSH2 0x2710 PUSH1 0x2 PUSH1 0x0 DUP8 PUSH20 0xFFFFFFFFFFFFFFFFFFFFFFFFFFFFFFFFFFFFFFFF AND PUSH20 0xFFFFFFFFFFFFFFFFFFFFFFFFFFFFFFFFFFFFFFFF AND DUP2 MSTORE PUSH1 0x20 ADD SWAP1 DUP2 MSTORE PUSH1 0x20 ADD PUSH1 0x0 KECCAK256 PUSH1 0x2 ADD SLOAD DUP6 PUSH2 0x431 SWAP2 SWAP1 PUSH2 0xAB4 JUMP JUMPDEST PUSH2 0x43B SWAP2 SWAP1 PUSH2 0xB25 JUMP JUMPDEST SWAP2 POP SWAP2 POP SWAP3 POP SWAP3 SWAP1 POP JUMP JUMPDEST PUSH1 0x0 DUP1 PUSH1 0x0 PUSH1 0x2 PUSH1 0x0 DUP6 PUSH20 0xFFFFFFFFFFFFFFFFFFFFFFFFFFFFFFFFFFFFFFFF AND PUSH20 0xFFFFFFFFFFFFFFFFFFFFFFFFFFFFFFFFFFFFFFFF AND DUP2 MSTORE PUSH1 0x20 ADD SWAP1 DUP2 MSTORE PUSH1 0x20 ADD PUSH1 0x0 KECCAK256 PUSH1 0x0 ADD PUSH1 0x0 SWAP1 SLOAD SWAP1 PUSH2 0x100 EXP SWAP1 DIV PUSH20 0xFFFFFFFFFFFFFFFFFFFFFFFFFFFFFFFFFFFFFFFF AND PUSH1 0x2 PUSH1 0x0 DUP7 PUSH20 0xFFFFFFFFFFFFFFFFFFFFFFFFFFFFFFFFFFFFFFFF AND PUSH20 0xFFFFFFFFFFFFFFFFFFFFFFFFFFFFFFFFFFFFFFFF AND DUP2 MSTORE PUSH1 0x20 ADD SWAP1 DUP2 MSTORE PUSH1 0x20 ADD PUSH1 0x0 KECCAK256 PUSH1 0x1 ADD PUSH1 0x0 SWAP1 SLOAD SWAP1 PUSH2 0x100 EXP SWAP1 DIV PUSH20 0xFFFFFFFFFFFFFFFFFFFFFFFFFFFFFFFFFFFFFFFF AND PUSH1 0x2 PUSH1 0x0 DUP8 PUSH20 0xFFFFFFFFFFFFFFFFFFFFFFFFFFFFFFFFFFFFFFFF AND PUSH20 0xFFFFFFFFFFFFFFFFFFFFFFFFFFFFFFFFFFFFFFFF AND DUP2 MSTORE PUSH1 0x20 ADD SWAP1 DUP2 MSTORE PUSH1 0x20 ADD PUSH1 0x0 KECCAK256 PUSH1 0x2 ADD SLOAD SWAP3 POP SWAP3 POP SWAP3 POP SWAP2 SWAP4 SWAP1 SWAP3 POP JUMP JUMPDEST PUSH1 0x1 SLOAD DUP2 JUMP JUMPDEST PUSH2 0x56F PUSH2 0x670 JUMP JUMPDEST PUSH2 0x579 PUSH1 0x0 PUSH2 0x6EE JUMP JUMPDEST JUMP JUMPDEST PUSH1 0x0 DUP1 PUSH1 0x0 SWAP1 SLOAD SWAP1 PUSH2 0x100 EXP SWAP1 DIV PUSH20 0xFFFFFFFFFFFFFFFFFFFFFFFFFFFFFFFFFFFFFFFF AND SWAP1 POP SWAP1 JUMP JUMPDEST PUSH2 0x5AC PUSH2 0x670 JUMP JUMPDEST DUP1 PUSH1 0x1 DUP2 SWAP1 SSTORE POP PUSH32 0x2DA7166C72EF3860EF4FB2571105533C40615269A6DBC38CE0B264910DF1C256 DUP2 PUSH1 0x40 MLOAD PUSH2 0x5E2 SWAP2 SWAP1 PUSH2 0x9A5 JUMP JUMPDEST PUSH1 0x40 MLOAD DUP1 SWAP2 SUB SWAP1 LOG1 POP JUMP JUMPDEST PUSH2 0x5F5 PUSH2 0x670 JUMP JUMPDEST PUSH1 0x0 PUSH20 0xFFFFFFFFFFFFFFFFFFFFFFFFFFFFFFFFFFFFFFFF AND DUP2 PUSH20 0xFFFFFFFFFFFFFFFFFFFFFFFFFFFFFFFFFFFFFFFF AND SUB PUSH2 0x664 JUMPI PUSH1 0x40 MLOAD PUSH32 0x8C379A000000000000000000000000000000000000000000000000000000000 DUP2 MSTORE PUSH1 0x4 ADD PUSH2 0x65B SWAP1 PUSH2 0xBC8 JUMP JUMPDEST PUSH1 0x40 MLOAD DUP1 SWAP2 SUB SWAP1 REVERT JUMPDEST PUSH2 0x66D DUP2 PUSH2 0x6EE JUMP JUMPDEST POP JUMP JUMPDEST PUSH2 0x678 PUSH2 0x7B2 JUMP JUMPDEST PUSH20 0xFFFFFFFFFFFFFFFFFFFFFFFFFFFFFFFFFFFFFFFF AND PUSH2 0x696 PUSH2 0x57B JUMP JUMPDEST PUSH20 0xFFFFFFFFFFFFFFFFFFFFFFFFFFFFFFFFFFFFFFFF AND EQ PUSH2 0x6EC JUMPI PUSH1 0x40 MLOAD PUSH32 0x8C379A000000000000000000000000000000000000000000000000000000000 DUP2 MSTORE PUSH1 0x4 ADD PUSH2 0x6E3 SWAP1 PUSH2 0xC34 JUMP JUMPDEST PUSH1 0x40 MLOAD DUP1 SWAP2 SUB SWAP1 REVERT JUMPDEST JUMP JUMPDEST PUSH1 0x0 DUP1 PUSH1 0x0 SWAP1 SLOAD SWAP1 PUSH2 0x100 EXP SWAP1 DIV PUSH20 0xFFFFFFFFFFFFFFFFFFFFFFFFFFFFFFFFFFFFFFFF AND SWAP1 POP DUP2 PUSH1 0x0 DUP1 PUSH2 0x100 EXP DUP2 SLOAD DUP2 PUSH20 0xFFFFFFFFFFFFFFFFFFFFFFFFFFFFFFFFFFFFFFFF MUL NOT AND SWAP1 DUP4 PUSH20 0xFFFFFFFFFFFFFFFFFFFFFFFFFFFFFFFFFFFFFFFF AND MUL OR SWAP1 SSTORE POP DUP2 PUSH20 0xFFFFFFFFFFFFFFFFFFFFFFFFFFFFFFFFFFFFFFFF AND DUP2 PUSH20 0xFFFFFFFFFFFFFFFFFFFFFFFFFFFFFFFFFFFFFFFF AND PUSH32 0x8BE0079C531659141344CD1FD0A4F28419497F9722A3DAAFE3B4186F6B6457E0 PUSH1 0x40 MLOAD PUSH1 0x40 MLOAD DUP1 SWAP2 SUB SWAP1 LOG3 POP POP JUMP JUMPDEST PUSH1 0x0 CALLER SWAP1 POP SWAP1 JUMP JUMPDEST PUSH1 0x0 DUP1 REVERT JUMPDEST PUSH1 0x0 PUSH20 0xFFFFFFFFFFFFFFFFFFFFFFFFFFFFFFFFFFFFFFFF DUP3 AND SWAP1 POP SWAP2 SWAP1 POP JUMP JUMPDEST PUSH1 0x0 PUSH2 0x7EA DUP3 PUSH2 0x7BF JUMP JUMPDEST SWAP1 POP SWAP2 SWAP1 POP JUMP JUMPDEST PUSH2 0x7FA DUP2 PUSH2 0x7DF JUMP JUMPDEST DUP2 EQ PUSH2 0x805 JUMPI PUSH1 0x0 DUP1 REVERT JUMPDEST POP JUMP JUMPDEST PUSH1 0x0 DUP2 CALLDATALOAD SWAP1 POP PUSH2 0x817 DUP2 PUSH2 0x7F1 JUMP JUMPDEST SWAP3 SWAP2 POP POP JUMP JUMPDEST PUSH1 0x0 DUP2 SWAP1 POP SWAP2 SWAP1 POP JUMP JUMPDEST PUSH2 0x830 DUP2 PUSH2 0x81D JUMP JUMPDEST DUP2 EQ PUSH2 0x83B JUMPI PUSH1 0x0 DUP1 REVERT JUMPDEST POP JUMP JUMPDEST PUSH1 0x0 DUP2 CALLDATALOAD SWAP1 POP PUSH2 0x84D DUP2 PUSH2 0x827 JUMP JUMPDEST SWAP3 SWAP2 POP POP JUMP JUMPDEST PUSH1 0x0 DUP1 PUSH1 0x0 DUP1 PUSH1 0x80 DUP6 DUP8 SUB SLT ISZERO PUSH2 0x86D JUMPI PUSH2 0x86C PUSH2 0x7BA JUMP JUMPDEST JUMPDEST PUSH1 0x0 PUSH2 0x87B DUP8 DUP3 DUP9 ADD PUSH2 0x808 JUMP JUMPDEST SWAP5 POP POP PUSH1 0x20 PUSH2 0x88C DUP8 DUP3 DUP9 ADD PUSH2 0x808 JUMP JUMPDEST SWAP4 POP POP PUSH1 0x40 PUSH2 0x89D DUP8 DUP3 DUP9 ADD PUSH2 0x808 JUMP JUMPDEST SWAP3 POP POP PUSH1 0x60 PUSH2 0x8AE DUP8 DUP3 DUP9 ADD PUSH2 0x83E JUMP JUMPDEST SWAP2 POP POP SWAP3 SWAP6 SWAP2 SWAP5 POP SWAP3 POP JUMP JUMPDEST PUSH1 0x0 DUP1 PUSH1 0x40 DUP4 DUP6 SUB SLT ISZERO PUSH2 0x8D1 JUMPI PUSH2 0x8D0 PUSH2 0x7BA JUMP JUMPDEST JUMPDEST PUSH1 0x0 PUSH2 0x8DF DUP6 DUP3 DUP7 ADD PUSH2 0x808 JUMP JUMPDEST SWAP3 POP POP PUSH1 0x20 PUSH2 0x8F0 DUP6 DUP3 DUP7 ADD PUSH2 0x83E JUMP JUMPDEST SWAP2 POP POP SWAP3 POP SWAP3 SWAP1 POP JUMP JUMPDEST PUSH2 0x903 DUP2 PUSH2 0x7DF JUMP JUMPDEST DUP3 MSTORE POP POP JUMP JUMPDEST PUSH2 0x912 DUP2 PUSH2 0x81D JUMP JUMPDEST DUP3 MSTORE POP POP JUMP JUMPDEST PUSH1 0x0 PUSH1 0x40 DUP3 ADD SWAP1 POP PUSH2 0x92D PUSH1 0x0 DUP4 ADD DUP6 PUSH2 0x8FA JUMP JUMPDEST PUSH2 0x93A PUSH1 0x20 DUP4 ADD DUP5 PUSH2 0x909 JUMP JUMPDEST SWAP4 SWAP3 POP POP POP JUMP JUMPDEST PUSH1 0x0 PUSH1 0x20 DUP3 DUP5 SUB SLT ISZERO PUSH2 0x957 JUMPI PUSH2 0x956 PUSH2 0x7BA JUMP JUMPDEST JUMPDEST PUSH1 0x0 PUSH2 0x965 DUP5 DUP3 DUP6 ADD PUSH2 0x808 JUMP JUMPDEST SWAP2 POP POP SWAP3 SWAP2 POP POP JUMP JUMPDEST PUSH1 0x0 PUSH1 0x60 DUP3 ADD SWAP1 POP PUSH2 0x983 PUSH1 0x0 DUP4 ADD DUP7 PUSH2 0x8FA JUMP JUMPDEST PUSH2 0x990 PUSH1 0x20 DUP4 ADD DUP6 PUSH2 0x8FA JUMP JUMPDEST PUSH2 0x99D PUSH1 0x40 DUP4 ADD DUP5 PUSH2 0x909 JUMP JUMPDEST SWAP5 SWAP4 POP POP POP POP JUMP JUMPDEST PUSH1 0x0 PUSH1 0x20 DUP3 ADD SWAP1 POP PUSH2 0x9BA PUSH1 0x0 DUP4 ADD DUP5 PUSH2 0x909 JUMP JUMPDEST SWAP3 SWAP2 POP POP JUMP JUMPDEST PUSH1 0x0 PUSH1 0x20 DUP3 ADD SWAP1 POP PUSH2 0x9D5 PUSH1 0x0 DUP4 ADD DUP5 PUSH2 0x8FA JUMP JUMPDEST SWAP3 SWAP2 POP POP JUMP JUMPDEST PUSH1 0x0 PUSH1 0x20 DUP3 DUP5 SUB SLT ISZERO PUSH2 0x9F1 JUMPI PUSH2 0x9F0 PUSH2 0x7BA JUMP JUMPDEST JUMPDEST PUSH1 0x0 PUSH2 0x9FF DUP5 DUP3 DUP6 ADD PUSH2 0x83E JUMP JUMPDEST SWAP2 POP POP SWAP3 SWAP2 POP POP JUMP JUMPDEST PUSH1 0x0 DUP3 DUP3 MSTORE PUSH1 0x20 DUP3 ADD SWAP1 POP SWAP3 SWAP2 POP POP JUMP JUMPDEST PUSH32 0x526F79616C74793A2066656520746F6F20686967680000000000000000000000 PUSH1 0x0 DUP3 ADD MSTORE POP JUMP JUMPDEST PUSH1 0x0 PUSH2 0xA4F PUSH1 0x15 DUP4 PUSH2 0xA08 JUMP JUMPDEST SWAP2 POP PUSH2 0xA5A DUP3 PUSH2 0xA19 JUMP JUMPDEST PUSH1 0x20 DUP3 ADD SWAP1 POP SWAP2 SWAP1 POP JUMP JUMPDEST PUSH1 0x0 PUSH1 0x20 DUP3 ADD SWAP1 POP DUP2 DUP2 SUB PUSH1 0x0 DUP4 ADD MSTORE PUSH2 0xA7E DUP2 PUSH2 0xA42 JUMP JUMPDEST SWAP1 POP SWAP2 SWAP1 POP JUMP JUMPDEST PUSH32 0x4E487B7100000000000000000000000000000000000000000000000000000000 PUSH1 0x0 MSTORE PUSH1 0x11 PUSH1 0x4 MSTORE PUSH1 0x24 PUSH1 0x0 REVERT JUMPDEST PUSH1 0x0 PUSH2 0xABF DUP3 PUSH2 0x81D JUMP JUMPDEST SWAP2 POP PUSH2 0xACA DUP4 PUSH2 0x81D JUMP JUMPDEST SWAP3 POP DUP3 DUP3 MUL PUSH2 0xAD8 DUP2 PUSH2 0x81D JUMP JUMPDEST SWAP2 POP DUP3 DUP3 DIV DUP5 EQ DUP4 ISZERO OR PUSH2 0xAEF JUMPI PUSH2 0xAEE PUSH2 0xA85 JUMP JUMPDEST JUMPDEST POP SWAP3 SWAP2 POP POP JUMP JUMPDEST PUSH32 0x4E487B7100000000000000000000000000000000000000000000000000000000 PUSH1 0x0 MSTORE PUSH1 0x12 PUSH1 0x4 MSTORE PUSH1 0x24 PUSH1 0x0 REVERT JUMPDEST PUSH1 0x0 PUSH2 0xB30 DUP3 PUSH2 0x81D JUMP JUMPDEST SWAP2 POP PUSH2 0xB3B DUP4 PUSH2 0x81D JUMP JUMPDEST SWAP3 POP DUP3 PUSH2 0xB4B JUMPI PUSH2 0xB4A PUSH2 0xAF6 JUMP JUMPDEST JUMPDEST DUP3 DUP3 DIV SWAP1 POP SWAP3 SWAP2 POP POP JUMP JUMPDEST PUSH32 0x4F776E61626C653A206E6577206F776E657220697320746865207A65726F2061 PUSH1 0x0 DUP3 ADD MSTORE PUSH32 0x6464726573730000000000000000000000000000000000000000000000000000 PUSH1 0x20 DUP3 ADD MSTORE POP JUMP JUMPDEST PUSH1 0x0 PUSH2 0xBB2 PUSH1 0x26 DUP4 PUSH2 0xA08 JUMP JUMPDEST SWAP2 POP PUSH2 0xBBD DUP3 PUSH2 0xB56 JUMP JUMPDEST PUSH1 0x40 DUP3 ADD SWAP1 POP SWAP2 SWAP1 POP JUMP JUMPDEST PUSH1 0x0 PUSH1 0x20 DUP3 ADD SWAP1 POP DUP2 DUP2 SUB PUSH1 0x0 DUP4 ADD MSTORE PUSH2 0xBE1 DUP2 PUSH2 0xBA5 JUMP JUMPDEST SWAP1 POP SWAP2 SWAP1 POP JUMP JUMPDEST PUSH32 0x4F776E61626C653A2063616C6C6572206973206E6F7420746865206F776E6572 PUSH1 0x0 DUP3 ADD MSTORE POP JUMP JUMPDEST PUSH1 0x0 PUSH2 0xC1E PUSH1 0x20 DUP4 PUSH2 0xA08 JUMP JUMPDEST SWAP2 POP PUSH2 0xC29 DUP3 PUSH2 0xBE8 JUMP JUMPDEST PUSH1 0x20 DUP3 ADD SWAP1 POP SWAP2 SWAP1 POP JUMP JUMPDEST PUSH1 0x0 PUSH1 0x20 DUP3 ADD SWAP1 POP DUP2 DUP2 SUB PUSH1 0x0 DUP4 ADD MSTORE PUSH2 0xC4D DUP2 PUSH2 0xC11 JUMP JUMPDEST SWAP1 POP SWAP2 SWAP1 POP JUMP INVALID LOG2 PUSH5 0x6970667358 0x22 SLT KECCAK256 0xC6 SWAP16 0x22 SHR DUP15 PUSH4 0x32D5003D 0xAA PUSH9 0x5F5F4F15D2EA84E935 0x2E 0xD0 0xEC JUMP 0xB7 SGT 0xD DUP5 0x4E PUSH31 0xC964736F6C6343000813003300000000000000000000000000000000000000 "
				},
				"gasEstimates": {
					"creation": {
						"codeDepositCost": "642000",
						"executionCost": "infinite",
						"totalCost": "infinite"
					},
					"external": {
						"owner()": "2544",
						"renounceOwnership()": "30398",
						"royaltyFeeLimit()": "2496",
						"royaltyInfo(address,uint256)": "infinite",
						"royaltyInfoCollection(address)": "infinite",
						"transferOwnership(address)": "30810",
						"updateRoyaltyFeeLimit(uint256)": "infinite",
						"updateRoyaltyInfo(address,address,address,uint256)": "infinite"
					}
				},
				"methodIdentifiers": {
					"owner()": "8da5cb5b",
					"renounceOwnership()": "715018a6",
					"royaltyFeeLimit()": "4fb7d3f9",
					"royaltyInfo(address,uint256)": "2782d6c7",
					"royaltyInfoCollection(address)": "2adc45e8",
					"transferOwnership(address)": "f2fde38b",
					"updateRoyaltyFeeLimit(uint256)": "b9223c9d",
					"updateRoyaltyInfo(address,address,address,uint256)": "0eecf97b"
				}
			},
			"storageLayout": {
				"storage": [
					{
						"astId": 7,
						"contract": "hardhat/contracts/royalty/Royalty.sol:Royalty",
						"label": "_owner",
						"offset": 0,
						"slot": "0",
						"type": "t_address"
					},
					{
						"astId": 194,
						"contract": "hardhat/contracts/royalty/Royalty.sol:Royalty",
						"label": "royaltyFeeLimit",
						"offset": 0,
						"slot": "1",
						"type": "t_uint256"
					},
					{
						"astId": 199,
						"contract": "hardhat/contracts/royalty/Royalty.sol:Royalty",
						"label": "_royaltyFeeInfoCollection",
						"offset": 0,
						"slot": "2",
						"type": "t_mapping(t_address,t_struct(FeeInfo)192_storage)"
					}
				],
				"types": {
					"t_address": {
						"encoding": "inplace",
						"label": "address",
						"numberOfBytes": "20"
					},
					"t_mapping(t_address,t_struct(FeeInfo)192_storage)": {
						"encoding": "mapping",
						"key": "t_address",
						"label": "mapping(address => struct Royalty.FeeInfo)",
						"numberOfBytes": "32",
						"value": "t_struct(FeeInfo)192_storage"
					},
					"t_struct(FeeInfo)192_storage": {
						"encoding": "inplace",
						"label": "struct Royalty.FeeInfo",
						"members": [
							{
								"astId": 187,
								"contract": "hardhat/contracts/royalty/Royalty.sol:Royalty",
								"label": "setter",
								"offset": 0,
								"slot": "0",
								"type": "t_address"
							},
							{
								"astId": 189,
								"contract": "hardhat/contracts/royalty/Royalty.sol:Royalty",
								"label": "receiver",
								"offset": 0,
								"slot": "1",
								"type": "t_address"
							},
							{
								"astId": 191,
								"contract": "hardhat/contracts/royalty/Royalty.sol:Royalty",
								"label": "fee",
								"offset": 0,
								"slot": "2",
								"type": "t_uint256"
							}
						],
						"numberOfBytes": "96"
					},
					"t_uint256": {
						"encoding": "inplace",
						"label": "uint256",
						"numberOfBytes": "32"
					}
				}
			},
			"userdoc": {
				"kind": "user",
				"methods": {},
				"version": 1
			}
		}
	}
}