{
  "_format": "hh-sol-artifact-1",
  "contractName": "TransferManager",
  "sourceName": "contracts/TransferManager.sol",
  "abi": [
    {
      "inputs": [
        {
          "internalType": "address",
          "name": "_transfer721",
          "type": "address"
        },
        {
          "internalType": "address",
          "name": "_transfer1155",
          "type": "address"
        }
      ],
      "stateMutability": "nonpayable",
      "type": "constructor"
    },
    {
      "anonymous": false,
      "inputs": [
        {
          "indexed": true,
          "internalType": "address",
          "name": "collection",
          "type": "address"
        },
        {
          "indexed": true,
          "internalType": "address",
          "name": "transferManager",
          "type": "address"
        }
      ],
      "name": "CollectionTransferManagerAdded",
      "type": "event"
    },
    {
      "anonymous": false,
      "inputs": [
        {
          "indexed": true,
          "internalType": "address",
          "name": "collection",
          "type": "address"
        }
      ],
      "name": "CollectionTransferManagerRemoved",
      "type": "event"
    },
    {
      "anonymous": false,
      "inputs": [
        {
          "indexed": true,
          "internalType": "address",
          "name": "previousOwner",
          "type": "address"
        },
        {
          "indexed": true,
          "internalType": "address",
          "name": "newOwner",
          "type": "address"
        }
      ],
      "name": "OwnershipTransferred",
      "type": "event"
    },
    {
      "inputs": [],
      "name": "INTERFACE_ID_ERC1155",
      "outputs": [
        {
          "internalType": "bytes4",
          "name": "",
          "type": "bytes4"
        }
      ],
      "stateMutability": "view",
      "type": "function"
    },
    {
      "inputs": [],
      "name": "INTERFACE_ID_ERC721",
      "outputs": [
        {
          "internalType": "bytes4",
          "name": "",
          "type": "bytes4"
        }
      ],
      "stateMutability": "view",
      "type": "function"
    },
    {
      "inputs": [],
      "name": "TRANSFER_MANAGER_ERC1155",
      "outputs": [
        {
          "internalType": "address",
          "name": "",
          "type": "address"
        }
      ],
      "stateMutability": "view",
      "type": "function"
    },
    {
      "inputs": [],
      "name": "TRANSFER_MANAGER_ERC721",
      "outputs": [
        {
          "internalType": "address",
          "name": "",
          "type": "address"
        }
      ],
      "stateMutability": "view",
      "type": "function"
    },
    {
      "inputs": [
        {
          "internalType": "address",
          "name": "collection",
          "type": "address"
        },
        {
          "internalType": "address",
          "name": "transferManager",
          "type": "address"
        }
      ],
      "name": "addTransferManagerCollection",
      "outputs": [],
      "stateMutability": "nonpayable",
      "type": "function"
    },
    {
      "inputs": [],
      "name": "owner",
      "outputs": [
        {
          "internalType": "address",
          "name": "",
          "type": "address"
        }
      ],
      "stateMutability": "view",
      "type": "function"
    },
    {
      "inputs": [
        {
          "internalType": "address",
          "name": "collection",
          "type": "address"
        }
      ],
      "name": "removeTransferManagerCollection",
      "outputs": [],
      "stateMutability": "nonpayable",
      "type": "function"
    },
    {
      "inputs": [],
      "name": "renounceOwnership",
      "outputs": [],
      "stateMutability": "nonpayable",
      "type": "function"
    },
    {
      "inputs": [
        {
          "internalType": "address",
          "name": "collection",
          "type": "address"
        }
      ],
      "name": "transferManagerAddress",
      "outputs": [
        {
          "internalType": "address",
          "name": "transferManager",
          "type": "address"
        }
      ],
      "stateMutability": "view",
      "type": "function"
    },
    {
      "inputs": [
        {
          "internalType": "address",
          "name": "",
          "type": "address"
        }
      ],
      "name": "transferManagerForCollection",
      "outputs": [
        {
          "internalType": "address",
          "name": "",
          "type": "address"
        }
      ],
      "stateMutability": "view",
      "type": "function"
    },
    {
      "inputs": [
        {
          "internalType": "address",
          "name": "newOwner",
          "type": "address"
        }
      ],
      "name": "transferOwnership",
      "outputs": [],
      "stateMutability": "nonpayable",
      "type": "function"
    }
  ],
  "bytecode": "0x60c060405234801561001057600080fd5b50604051610a91380380610a9183398101604081905261002f916100bb565b6100383361004f565b6001600160a01b039182166080521660a0526100ee565b600080546001600160a01b038381166001600160a01b0319831681178455604051919092169283917f8be0079c531659141344cd1fd0a4f28419497f9722a3daafe3b4186f6b6457e09190a35050565b80516001600160a01b03811681146100b657600080fd5b919050565b600080604083850312156100ce57600080fd5b6100d78361009f565b91506100e56020840161009f565b90509250929050565b60805160a0516109706101216000396000818161017d015261042c0152600081816101ca015261035201526109706000f3fe608060405234801561001057600080fd5b50600436106100c95760003560e01c80638da5cb5b11610081578063d297772f1161005b578063d297772f14610213578063e58c7c3914610249578063f2fde38b1461025c57600080fd5b80638da5cb5b146101a7578063b1357ddd146101c5578063bc6bc0cd146101ec57600080fd5b806333bf6156116100b257806333bf6156146101205780633892895614610178578063715018a61461019f57600080fd5b806315f04966146100ce578063301b25071461010b575b600080fd5b6100e16100dc3660046108c3565b61026f565b60405173ffffffffffffffffffffffffffffffffffffffff90911681526020015b60405180910390f35b61011e6101193660046108e5565b610451565b005b6101477fd9b67a260000000000000000000000000000000000000000000000000000000081565b6040517fffffffff000000000000000000000000000000000000000000000000000000009091168152602001610102565b6100e17f000000000000000000000000000000000000000000000000000000000000000081565b61011e6105d4565b60005473ffffffffffffffffffffffffffffffffffffffff166100e1565b6100e17f000000000000000000000000000000000000000000000000000000000000000081565b6101477f80ac58cd0000000000000000000000000000000000000000000000000000000081565b6100e16102213660046108c3565b60016020526000908152604090205473ffffffffffffffffffffffffffffffffffffffff1681565b61011e6102573660046108c3565b6105e8565b61011e61026a3660046108c3565b6106f2565b73ffffffffffffffffffffffffffffffffffffffff808216600090815260016020526040902054168061044c576040517f01ffc9a70000000000000000000000000000000000000000000000000000000081527f80ac58cd00000000000000000000000000000000000000000000000000000000600482015273ffffffffffffffffffffffffffffffffffffffff8316906301ffc9a790602401602060405180830381865afa158015610326573d6000803e3d6000fd5b505050506040513d601f19601f8201168201806040525081019061034a9190610918565b1561037657507f0000000000000000000000000000000000000000000000000000000000000000919050565b6040517f01ffc9a70000000000000000000000000000000000000000000000000000000081527fd9b67a2600000000000000000000000000000000000000000000000000000000600482015273ffffffffffffffffffffffffffffffffffffffff8316906301ffc9a790602401602060405180830381865afa158015610400573d6000803e3d6000fd5b505050506040513d601f19601f820116820180604052508101906104249190610918565b1561044c57507f00000000000000000000000000000000000000000000000000000000000000005b919050565b6104596107a9565b73ffffffffffffffffffffffffffffffffffffffff82166104db576040517f08c379a000000000000000000000000000000000000000000000000000000000815260206004820152601760248201527f436f6c6c656374696f6e206e756c6c206164647265737300000000000000000060448201526064015b60405180910390fd5b73ffffffffffffffffffffffffffffffffffffffff8116610558576040517f08c379a000000000000000000000000000000000000000000000000000000000815260206004820152601c60248201527f5472616e736665724d616e61676572206e756c6c20616464726573730000000060448201526064016104d2565b73ffffffffffffffffffffffffffffffffffffffff82811660008181526001602052604080822080547fffffffffffffffffffffffff0000000000000000000000000000000000000000169486169485179055517fda166be6ba0ebb71be3f83e7d669765de552ea08978bfe3e3e42d54174111b629190a35050565b6105dc6107a9565b6105e6600061082a565b565b6105f06107a9565b73ffffffffffffffffffffffffffffffffffffffff8181166000908152600160205260409020541661067e576040517f08c379a000000000000000000000000000000000000000000000000000000000815260206004820152601760248201527f436f6c6c656374696f6e206e756c6c206164647265737300000000000000000060448201526064016104d2565b73ffffffffffffffffffffffffffffffffffffffff811660008181526001602052604080822080547fffffffffffffffffffffffff0000000000000000000000000000000000000000169055517f8c3bf4babc197f3db0e7ec65aaf23fc0efb0e689436aeea8514c3f01fd97841f9190a250565b6106fa6107a9565b73ffffffffffffffffffffffffffffffffffffffff811661079d576040517f08c379a000000000000000000000000000000000000000000000000000000000815260206004820152602660248201527f4f776e61626c653a206e6577206f776e657220697320746865207a65726f206160448201527f646472657373000000000000000000000000000000000000000000000000000060648201526084016104d2565b6107a68161082a565b50565b60005473ffffffffffffffffffffffffffffffffffffffff1633146105e6576040517f08c379a000000000000000000000000000000000000000000000000000000000815260206004820181905260248201527f4f776e61626c653a2063616c6c6572206973206e6f7420746865206f776e657260448201526064016104d2565b6000805473ffffffffffffffffffffffffffffffffffffffff8381167fffffffffffffffffffffffff0000000000000000000000000000000000000000831681178455604051919092169283917f8be0079c531659141344cd1fd0a4f28419497f9722a3daafe3b4186f6b6457e09190a35050565b803573ffffffffffffffffffffffffffffffffffffffff8116811461044c57600080fd5b6000602082840312156108d557600080fd5b6108de8261089f565b9392505050565b600080604083850312156108f857600080fd5b6109018361089f565b915061090f6020840161089f565b90509250929050565b60006020828403121561092a57600080fd5b815180151581146108de57600080fdfea2646970667358221220c41ef3070cd35f67884494b4e8d5923bd3310d3456adfcd015afcb76efb8238464736f6c63430008110033",
  "linkReferences": {},
  "deployedLinkReferences": {}
}