{
  "_format": "hh-sol-artifact-1",
  "contractName": "Royalty",
  "sourceName": "contracts/royalty/Royalty.sol",
  "abi": [
    {
      "inputs": [
        {
          "internalType": "uint256",
          "name": "_royaltyFeeLimit",
          "type": "uint256"
        }
      ],
      "stateMutability": "nonpayable",
      "type": "constructor"
    },
    {
      "anonymous": false,
      "inputs": [
        {
          "indexed": false,
          "internalType": "uint256",
          "name": "royaltyFeeLimit",
          "type": "uint256"
        }
      ],
      "name": "NewRoyaltyFeeLimit",
      "type": "event"
    },
    {
      "anonymous": false,
      "inputs": [
        {
          "indexed": true,
          "internalType": "address",
          "name": "previousOwner",
          "type": "address"
        },
        {
          "indexed": true,
          "internalType": "address",
          "name": "newOwner",
          "type": "address"
        }
      ],
      "name": "OwnershipTransferred",
      "type": "event"
    },
    {
      "anonymous": false,
      "inputs": [
        {
          "indexed": true,
          "internalType": "address",
          "name": "collection",
          "type": "address"
        },
        {
          "indexed": true,
          "internalType": "address",
          "name": "setter",
          "type": "address"
        },
        {
          "indexed": true,
          "internalType": "address",
          "name": "receiver",
          "type": "address"
        },
        {
          "indexed": false,
          "internalType": "uint256",
          "name": "fee",
          "type": "uint256"
        }
      ],
      "name": "RoyaltyFeeUpdate",
      "type": "event"
    },
    {
      "inputs": [],
      "name": "owner",
      "outputs": [
        {
          "internalType": "address",
          "name": "",
          "type": "address"
        }
      ],
      "stateMutability": "view",
      "type": "function"
    },
    {
      "inputs": [],
      "name": "renounceOwnership",
      "outputs": [],
      "stateMutability": "nonpayable",
      "type": "function"
    },
    {
      "inputs": [],
      "name": "royaltyFeeLimit",
      "outputs": [
        {
          "internalType": "uint256",
          "name": "",
          "type": "uint256"
        }
      ],
      "stateMutability": "view",
      "type": "function"
    },
    {
      "inputs": [
        {
          "internalType": "address",
          "name": "collection",
          "type": "address"
        },
        {
          "internalType": "uint256",
          "name": "amount",
          "type": "uint256"
        }
      ],
      "name": "royaltyInfo",
      "outputs": [
        {
          "internalType": "address",
          "name": "",
          "type": "address"
        },
        {
          "internalType": "uint256",
          "name": "",
          "type": "uint256"
        }
      ],
      "stateMutability": "view",
      "type": "function"
    },
    {
      "inputs": [
        {
          "internalType": "address",
          "name": "collection",
          "type": "address"
        }
      ],
      "name": "royaltyInfoCollection",
      "outputs": [
        {
          "internalType": "address",
          "name": "",
          "type": "address"
        },
        {
          "internalType": "address",
          "name": "",
          "type": "address"
        },
        {
          "internalType": "uint256",
          "name": "",
          "type": "uint256"
        }
      ],
      "stateMutability": "view",
      "type": "function"
    },
    {
      "inputs": [
        {
          "internalType": "address",
          "name": "newOwner",
          "type": "address"
        }
      ],
      "name": "transferOwnership",
      "outputs": [],
      "stateMutability": "nonpayable",
      "type": "function"
    },
    {
      "inputs": [
        {
          "internalType": "uint256",
          "name": "_royaltyFeeLimit",
          "type": "uint256"
        }
      ],
      "name": "updateRoyaltyFeeLimit",
      "outputs": [],
      "stateMutability": "nonpayable",
      "type": "function"
    },
    {
      "inputs": [
        {
          "internalType": "address",
          "name": "collection",
          "type": "address"
        },
        {
          "internalType": "address",
          "name": "setter",
          "type": "address"
        },
        {
          "internalType": "address",
          "name": "receiver",
          "type": "address"
        },
        {
          "internalType": "uint256",
          "name": "fee",
          "type": "uint256"
        }
      ],
      "name": "updateRoyaltyInfo",
      "outputs": [],
      "stateMutability": "nonpayable",
      "type": "function"
    }
  ],
  "bytecode": "0x608060405234801561001057600080fd5b506040516107ee3803806107ee83398101604081905261002f916100c6565b61003833610076565b60018190556040518181527f2da7166c72ef3860ef4fb2571105533c40615269a6dbc38ce0b264910df1c2569060200160405180910390a1506100df565b600080546001600160a01b038381166001600160a01b0319831681178455604051919092169283917f8be0079c531659141344cd1fd0a4f28419497f9722a3daafe3b4186f6b6457e09190a35050565b6000602082840312156100d857600080fd5b5051919050565b610700806100ee6000396000f3fe608060405234801561001057600080fd5b50600436106100885760003560e01c8063715018a61161005b578063715018a61461017c5780638da5cb5b14610184578063b9223c9d146101ac578063f2fde38b146101bf57600080fd5b80630eecf97b1461008d5780632782d6c7146100a25780632adc45e8146100e65780634fb7d3f914610165575b600080fd5b6100a061009b36600461059b565b6101d2565b005b6100b56100b03660046105e6565b610314565b6040805173ffffffffffffffffffffffffffffffffffffffff90931683526020830191909152015b60405180910390f35b6101326100f4366004610610565b73ffffffffffffffffffffffffffffffffffffffff908116600090815260026020819052604090912080546001820154919092015491831693921691565b6040805173ffffffffffffffffffffffffffffffffffffffff9485168152939092166020840152908201526060016100dd565b61016e60015481565b6040519081526020016100dd565b6100a061036e565b60005460405173ffffffffffffffffffffffffffffffffffffffff90911681526020016100dd565b6100a06101ba366004610632565b610382565b6100a06101cd366004610610565b6103c5565b6101da61047c565b60015481111561024b576040517f08c379a000000000000000000000000000000000000000000000000000000000815260206004820152601560248201527f526f79616c74793a2066656520746f6f2068696768000000000000000000000060448201526064015b60405180910390fd5b6040805160608101825273ffffffffffffffffffffffffffffffffffffffff85811680835285821660208085018281528587018881528b861660008181526002808652908a9020985189549089167fffffffffffffffffffffffff0000000000000000000000000000000000000000918216178a55935160018a0180549190991694169390931790965551950194909455935185815290927fd01984afa6e37420452e575e7d99dd7e632b3ec8ea2adec998475b76ca494d64910160405180910390a450505050565b73ffffffffffffffffffffffffffffffffffffffff8083166000908152600260208190526040822060018101549101549192839291169061271090610359908661064b565b610363919061068f565b915091509250929050565b61037661047c565b61038060006104fd565b565b61038a61047c565b60018190556040518181527f2da7166c72ef3860ef4fb2571105533c40615269a6dbc38ce0b264910df1c2569060200160405180910390a150565b6103cd61047c565b73ffffffffffffffffffffffffffffffffffffffff8116610470576040517f08c379a000000000000000000000000000000000000000000000000000000000815260206004820152602660248201527f4f776e61626c653a206e6577206f776e657220697320746865207a65726f206160448201527f64647265737300000000000000000000000000000000000000000000000000006064820152608401610242565b610479816104fd565b50565b60005473ffffffffffffffffffffffffffffffffffffffff163314610380576040517f08c379a000000000000000000000000000000000000000000000000000000000815260206004820181905260248201527f4f776e61626c653a2063616c6c6572206973206e6f7420746865206f776e65726044820152606401610242565b6000805473ffffffffffffffffffffffffffffffffffffffff8381167fffffffffffffffffffffffff0000000000000000000000000000000000000000831681178455604051919092169283917f8be0079c531659141344cd1fd0a4f28419497f9722a3daafe3b4186f6b6457e09190a35050565b803573ffffffffffffffffffffffffffffffffffffffff8116811461059657600080fd5b919050565b600080600080608085870312156105b157600080fd5b6105ba85610572565b93506105c860208601610572565b92506105d660408601610572565b9396929550929360600135925050565b600080604083850312156105f957600080fd5b61060283610572565b946020939093013593505050565b60006020828403121561062257600080fd5b61062b82610572565b9392505050565b60006020828403121561064457600080fd5b5035919050565b8082028115828204841417610689577f4e487b7100000000000000000000000000000000000000000000000000000000600052601160045260246000fd5b92915050565b6000826106c5577f4e487b7100000000000000000000000000000000000000000000000000000000600052601260045260246000fd5b50049056fea264697066735822122086d108fd41dfb433a49ad781b17b45f47aa6355d0c23a4d13d811b07772be0a564736f6c63430008110033",
  "linkReferences": {},
  "deployedLinkReferences": {}
}