{
  "_format": "hh-sol-artifact-1",
  "contractName": "TradeTokenManager",
  "sourceName": "contracts/TradeTokenManager.sol",
  "abi": [
    {
      "anonymous": false,
      "inputs": [
        {
          "indexed": true,
          "internalType": "address",
          "name": "previousOwner",
          "type": "address"
        },
        {
          "indexed": true,
          "internalType": "address",
          "name": "newOwner",
          "type": "address"
        }
      ],
      "name": "OwnershipTransferred",
      "type": "event"
    },
    {
      "anonymous": false,
      "inputs": [
        {
          "indexed": true,
          "internalType": "address",
          "name": "token",
          "type": "address"
        }
      ],
      "name": "TokenDelete",
      "type": "event"
    },
    {
      "anonymous": false,
      "inputs": [
        {
          "indexed": true,
          "internalType": "address",
          "name": "token",
          "type": "address"
        }
      ],
      "name": "TokenWhitelisted",
      "type": "event"
    },
    {
      "inputs": [
        {
          "internalType": "address",
          "name": "token",
          "type": "address"
        }
      ],
      "name": "addToken",
      "outputs": [],
      "stateMutability": "nonpayable",
      "type": "function"
    },
    {
      "inputs": [
        {
          "internalType": "address",
          "name": "token",
          "type": "address"
        }
      ],
      "name": "isTokenWhitelisted",
      "outputs": [
        {
          "internalType": "bool",
          "name": "",
          "type": "bool"
        }
      ],
      "stateMutability": "view",
      "type": "function"
    },
    {
      "inputs": [],
      "name": "owner",
      "outputs": [
        {
          "internalType": "address",
          "name": "",
          "type": "address"
        }
      ],
      "stateMutability": "view",
      "type": "function"
    },
    {
      "inputs": [
        {
          "internalType": "address",
          "name": "token",
          "type": "address"
        }
      ],
      "name": "removeToken",
      "outputs": [],
      "stateMutability": "nonpayable",
      "type": "function"
    },
    {
      "inputs": [],
      "name": "renounceOwnership",
      "outputs": [],
      "stateMutability": "nonpayable",
      "type": "function"
    },
    {
      "inputs": [
        {
          "internalType": "address",
          "name": "newOwner",
          "type": "address"
        }
      ],
      "name": "transferOwnership",
      "outputs": [],
      "stateMutability": "nonpayable",
      "type": "function"
    },
    {
      "inputs": [],
      "name": "viewCountWhitelistedToken",
      "outputs": [
        {
          "internalType": "uint256",
          "name": "",
          "type": "uint256"
        }
      ],
      "stateMutability": "view",
      "type": "function"
    },
    {
      "inputs": [
        {
          "internalType": "uint256",
          "name": "cursor",
          "type": "uint256"
        },
        {
          "internalType": "uint256",
          "name": "size",
          "type": "uint256"
        }
      ],
      "name": "viewWhitelistedToken",
      "outputs": [
        {
          "internalType": "address[]",
          "name": "",
          "type": "address[]"
        },
        {
          "internalType": "uint256",
          "name": "",
          "type": "uint256"
        }
      ],
      "stateMutability": "view",
      "type": "function"
    }
  ],
  "bytecode": "0x608060405234801561001057600080fd5b5061001a3361001f565b61006f565b600080546001600160a01b038381166001600160a01b0319831681178455604051919092169283917f8be0079c531659141344cd1fd0a4f28419497f9722a3daafe3b4186f6b6457e09190a35050565b6109dc8061007e6000396000f3fe608060405234801561001057600080fd5b50600436106100885760003560e01c8063b5af090f1161005b578063b5af090f146100fc578063d48bfca71461011f578063db4f69af14610132578063f2fde38b1461014857600080fd5b8063018162f21461008d5780635fa7b584146100b7578063715018a6146100cc5780638da5cb5b146100d4575b600080fd5b6100a061009b3660046107d6565b61015b565b6040516100ae9291906107f8565b60405180910390f35b6100ca6100c5366004610856565b61025d565b005b6100ca61032b565b60005460405173ffffffffffffffffffffffffffffffffffffffff90911681526020016100ae565b61010f61010a366004610856565b61033f565b60405190151581526020016100ae565b6100ca61012d366004610856565b610352565b61013a61041c565b6040519081526020016100ae565b6100ca610156366004610856565b61042d565b60606000828461016b60016104e4565b61017591906108bb565b811115610194578461018760016104e4565b61019191906108bb565b90505b60008167ffffffffffffffff8111156101af576101af6108ce565b6040519080825280602002602001820160405280156101d8578160200160208202803683370190505b50905060005b82811015610244576101fb6101f382896108fd565b6001906104ee565b82828151811061020d5761020d610910565b73ffffffffffffffffffffffffffffffffffffffff909216602092830291909101909101528061023c8161093f565b9150506101de565b508061025083886108fd565b9350935050509250929050565b610265610501565b610270600182610582565b6102db576040517f08c379a000000000000000000000000000000000000000000000000000000000815260206004820152601260248201527f546f6b656e3a204e6f742045786973746564000000000000000000000000000060448201526064015b60405180910390fd5b6102e66001826105b1565b5060405173ffffffffffffffffffffffffffffffffffffffff8216907f505eec0b2cb995482dc58407253d70f68a3cb27c89ec211ba13c7240557b935390600090a250565b610333610501565b61033d60006105d3565b565b600061034c600183610582565b92915050565b61035a610501565b610365600182610582565b156103cc576040517f08c379a000000000000000000000000000000000000000000000000000000000815260206004820152601c60248201527f546f6b656e3a20416c726561647920546f6b656e20416464726573730000000060448201526064016102d2565b6103d7600182610648565b5060405173ffffffffffffffffffffffffffffffffffffffff8216907f6a65f90b1a644d2faac467a21e07e50e3f8fa5846e26231d30ae79a417d3d26290600090a250565b600061042860016104e4565b905090565b610435610501565b73ffffffffffffffffffffffffffffffffffffffff81166104d8576040517f08c379a000000000000000000000000000000000000000000000000000000000815260206004820152602660248201527f4f776e61626c653a206e6577206f776e657220697320746865207a65726f206160448201527f646472657373000000000000000000000000000000000000000000000000000060648201526084016102d2565b6104e1816105d3565b50565b600061034c825490565b60006104fa838361066a565b9392505050565b60005473ffffffffffffffffffffffffffffffffffffffff16331461033d576040517f08c379a000000000000000000000000000000000000000000000000000000000815260206004820181905260248201527f4f776e61626c653a2063616c6c6572206973206e6f7420746865206f776e657260448201526064016102d2565b73ffffffffffffffffffffffffffffffffffffffff8116600090815260018301602052604081205415156104fa565b60006104fa8373ffffffffffffffffffffffffffffffffffffffff8416610694565b6000805473ffffffffffffffffffffffffffffffffffffffff8381167fffffffffffffffffffffffff0000000000000000000000000000000000000000831681178455604051919092169283917f8be0079c531659141344cd1fd0a4f28419497f9722a3daafe3b4186f6b6457e09190a35050565b60006104fa8373ffffffffffffffffffffffffffffffffffffffff8416610787565b600082600001828154811061068157610681610910565b9060005260206000200154905092915050565b6000818152600183016020526040812054801561077d5760006106b86001836108bb565b85549091506000906106cc906001906108bb565b90508181146107315760008660000182815481106106ec576106ec610910565b906000526020600020015490508087600001848154811061070f5761070f610910565b6000918252602080832090910192909255918252600188019052604090208390555b855486908061074257610742610977565b60019003818190600052602060002001600090559055856001016000868152602001908152602001600020600090556001935050505061034c565b600091505061034c565b60008181526001830160205260408120546107ce5750815460018181018455600084815260208082209093018490558454848252828601909352604090209190915561034c565b50600061034c565b600080604083850312156107e957600080fd5b50508035926020909101359150565b604080825283519082018190526000906020906060840190828701845b8281101561084757815173ffffffffffffffffffffffffffffffffffffffff1684529284019290840190600101610815565b50505092019290925292915050565b60006020828403121561086857600080fd5b813573ffffffffffffffffffffffffffffffffffffffff811681146104fa57600080fd5b7f4e487b7100000000000000000000000000000000000000000000000000000000600052601160045260246000fd5b8181038181111561034c5761034c61088c565b7f4e487b7100000000000000000000000000000000000000000000000000000000600052604160045260246000fd5b8082018082111561034c5761034c61088c565b7f4e487b7100000000000000000000000000000000000000000000000000000000600052603260045260246000fd5b60007fffffffffffffffffffffffffffffffffffffffffffffffffffffffffffffffff82036109705761097061088c565b5060010190565b7f4e487b7100000000000000000000000000000000000000000000000000000000600052603160045260246000fdfea264697066735822122043ad139908334c630e3936b922ce8d7556dae672e5fc5771c4e2a19096900d8d64736f6c63430008110033",
  "linkReferences": {},
  "deployedLinkReferences": {}
}