{"contracts/ProtocolExecutionManager.sol":{"ProtocolExecutionManager":{"abi":[{"anonymous":false,"inputs":[{"indexed":true,"internalType":"address","name":"previousOwner","type":"address"},{"indexed":true,"internalType":"address","name":"newOwner","type":"address"}],"name":"OwnershipTransferred","type":"event"},{"anonymous":false,"inputs":[{"indexed":true,"internalType":"address","name":"protocol","type":"address"}],"name":"ProtocolDelete","type":"event"},{"anonymous":false,"inputs":[{"indexed":true,"internalType":"address","name":"protocol","type":"address"}],"name":"ProtocolWhitelisted","type":"event"},{"inputs":[{"internalType":"address","name":"protocol","type":"address"}],"name":"addProtocol","outputs":[],"stateMutability":"nonpayable","type":"function"},{"inputs":[{"internalType":"address","name":"protocol","type":"address"}],"name":"isProtocolWhitelisted","outputs":[{"internalType":"bool","name":"","type":"bool"}],"stateMutability":"view","type":"function"},{"inputs":[],"name":"owner","outputs":[{"internalType":"address","name":"","type":"address"}],"stateMutability":"view","type":"function"},{"inputs":[{"internalType":"address","name":"protocol","type":"address"}],"name":"removeProtocol","outputs":[],"stateMutability":"nonpayable","type":"function"},{"inputs":[],"name":"renounceOwnership","outputs":[],"stateMutability":"nonpayable","type":"function"},{"inputs":[{"internalType":"address","name":"newOwner","type":"address"}],"name":"transferOwnership","outputs":[],"stateMutability":"nonpayable","type":"function"},{"inputs":[],"name":"viewCountWhitelistedProtocol","outputs":[{"internalType":"uint256","name":"","type":"uint256"}],"stateMutability":"view","type":"function"},{"inputs":[{"internalType":"uint256","name":"cursor","type":"uint256"},{"internalType":"uint256","name":"size","type":"uint256"}],"name":"viewWhitelistedProtocol","outputs":[{"internalType":"address[]","name":"","type":"address[]"},{"internalType":"uint256","name":"","type":"uint256"}],"stateMutability":"view","type":"function"}],"evm":{"bytecode":{"linkReferences":{},"object":"608060405234801561001057600080fd5b5061001a3361001f565b61006f565b600080546001600160a01b038381166001600160a01b0319831681178455604051919092169283917f8be0079c531659141344cd1fd0a4f28419497f9722a3daafe3b4186f6b6457e09190a35050565b6109d98061007e6000396000f3fe608060405234801561001057600080fd5b50600436106100885760003560e01c80638da5cb5b1161005b5780638da5cb5b146100e75780639387bbd41461010f578063b663d53414610132578063f2fde38b1461014857600080fd5b806318ff57681461008d57806326905c50146100a2578063715018a6146100cc578063771d4c28146100d4575b600080fd5b6100a061009b3660046107d3565b61015b565b005b6100b56100b0366004610809565b61022a565b6040516100c392919061082b565b60405180910390f35b6100a061032c565b6100a06100e23660046107d3565b610340565b60005460405173ffffffffffffffffffffffffffffffffffffffff90911681526020016100c3565b61012261011d3660046107d3565b61040a565b60405190151581526020016100c3565b61013a61041d565b6040519081526020016100c3565b6100a06101563660046107d3565b61042e565b6101636104e5565b61016e600182610566565b156101da576040517f08c379a000000000000000000000000000000000000000000000000000000000815260206004820152601560248201527f50726f746f636f6c3a204e6f742045786973746564000000000000000000000060448201526064015b60405180910390fd5b6101e5600182610598565b5060405173ffffffffffffffffffffffffffffffffffffffff8216907f6f6771bbbe2625ac54784030f2cae4bbee4be9c8609b6d7e3f02c5126b41460090600090a250565b60606000828461023a60016105ba565b61024491906108b8565b811115610263578461025660016105ba565b61026091906108b8565b90505b60008167ffffffffffffffff81111561027e5761027e6108cb565b6040519080825280602002602001820160405280156102a7578160200160208202803683370190505b50905060005b82811015610313576102ca6102c282896108fa565b6001906105c4565b8282815181106102dc576102dc61090d565b73ffffffffffffffffffffffffffffffffffffffff909216602092830291909101909101528061030b8161093c565b9150506102ad565b508061031f83886108fa565b9350935050509250929050565b6103346104e5565b61033e60006105d0565b565b6103486104e5565b610353600182610566565b156103ba576040517f08c379a000000000000000000000000000000000000000000000000000000000815260206004820152601e60248201527f50726f746f636f6c3a20416c72656164792057686974656c697374656421000060448201526064016101d1565b6103c5600182610645565b5060405173ffffffffffffffffffffffffffffffffffffffff8216907f5ec654392567a6e4d201b682c6ed6803d120c307fd0b8ba2cca51f73e36f433890600090a250565b6000610417600183610566565b92915050565b600061042960016105ba565b905090565b6104366104e5565b73ffffffffffffffffffffffffffffffffffffffff81166104d9576040517f08c379a000000000000000000000000000000000000000000000000000000000815260206004820152602660248201527f4f776e61626c653a206e6577206f776e657220697320746865207a65726f206160448201527f646472657373000000000000000000000000000000000000000000000000000060648201526084016101d1565b6104e2816105d0565b50565b60005473ffffffffffffffffffffffffffffffffffffffff16331461033e576040517f08c379a000000000000000000000000000000000000000000000000000000000815260206004820181905260248201527f4f776e61626c653a2063616c6c6572206973206e6f7420746865206f776e657260448201526064016101d1565b73ffffffffffffffffffffffffffffffffffffffff8116600090815260018301602052604081205415155b9392505050565b60006105918373ffffffffffffffffffffffffffffffffffffffff8416610667565b6000610417825490565b6000610591838361075a565b6000805473ffffffffffffffffffffffffffffffffffffffff8381167fffffffffffffffffffffffff0000000000000000000000000000000000000000831681178455604051919092169283917f8be0079c531659141344cd1fd0a4f28419497f9722a3daafe3b4186f6b6457e09190a35050565b60006105918373ffffffffffffffffffffffffffffffffffffffff8416610784565b6000818152600183016020526040812054801561075057600061068b6001836108b8565b855490915060009061069f906001906108b8565b90508181146107045760008660000182815481106106bf576106bf61090d565b90600052602060002001549050808760000184815481106106e2576106e261090d565b6000918252602080832090910192909255918252600188019052604090208390555b855486908061071557610715610974565b600190038181906000526020600020016000905590558560010160008681526020019081526020016000206000905560019350505050610417565b6000915050610417565b60008260000182815481106107715761077161090d565b9060005260206000200154905092915050565b60008181526001830160205260408120546107cb57508154600181810184556000848152602080822090930184905584548482528286019093526040902091909155610417565b506000610417565b6000602082840312156107e557600080fd5b813573ffffffffffffffffffffffffffffffffffffffff8116811461059157600080fd5b6000806040838503121561081c57600080fd5b50508035926020909101359150565b604080825283519082018190526000906020906060840190828701845b8281101561087a57815173ffffffffffffffffffffffffffffffffffffffff1684529284019290840190600101610848565b50505092019290925292915050565b7f4e487b7100000000000000000000000000000000000000000000000000000000600052601160045260246000fd5b8181038181111561041757610417610889565b7f4e487b7100000000000000000000000000000000000000000000000000000000600052604160045260246000fd5b8082018082111561041757610417610889565b7f4e487b7100000000000000000000000000000000000000000000000000000000600052603260045260246000fd5b60007fffffffffffffffffffffffffffffffffffffffffffffffffffffffffffffffff820361096d5761096d610889565b5060010190565b7f4e487b7100000000000000000000000000000000000000000000000000000000600052603160045260246000fdfea26469706673582212203557b1e23e55bea49dbcc925415ec8501d0353aa3938c137fa20d0dafaaf866564736f6c63430008110033","opcodes":"PUSH1 0x80 PUSH1 0x40 MSTORE CALLVALUE DUP1 ISZERO PUSH2 0x10 JUMPI PUSH1 0x0 DUP1 REVERT JUMPDEST POP PUSH2 0x1A CALLER PUSH2 0x1F JUMP JUMPDEST PUSH2 0x6F JUMP JUMPDEST PUSH1 0x0 DUP1 SLOAD PUSH1 0x1 PUSH1 0x1 PUSH1 0xA0 SHL SUB DUP4 DUP2 AND PUSH1 0x1 PUSH1 0x1 PUSH1 0xA0 SHL SUB NOT DUP4 AND DUP2 OR DUP5 SSTORE PUSH1 0x40 MLOAD SWAP2 SWAP1 SWAP3 AND SWAP3 DUP4 SWAP2 PUSH32 0x8BE0079C531659141344CD1FD0A4F28419497F9722A3DAAFE3B4186F6B6457E0 SWAP2 SWAP1 LOG3 POP POP JUMP JUMPDEST PUSH2 0x9D9 DUP1 PUSH2 0x7E PUSH1 0x0 CODECOPY PUSH1 0x0 RETURN INVALID PUSH1 0x80 PUSH1 0x40 MSTORE CALLVALUE DUP1 ISZERO PUSH2 0x10 JUMPI PUSH1 0x0 DUP1 REVERT JUMPDEST POP PUSH1 0x4 CALLDATASIZE LT PUSH2 0x88 JUMPI PUSH1 0x0 CALLDATALOAD PUSH1 0xE0 SHR DUP1 PUSH4 0x8DA5CB5B GT PUSH2 0x5B JUMPI DUP1 PUSH4 0x8DA5CB5B EQ PUSH2 0xE7 JUMPI DUP1 PUSH4 0x9387BBD4 EQ PUSH2 0x10F JUMPI DUP1 PUSH4 0xB663D534 EQ PUSH2 0x132 JUMPI DUP1 PUSH4 0xF2FDE38B EQ PUSH2 0x148 JUMPI PUSH1 0x0 DUP1 REVERT JUMPDEST DUP1 PUSH4 0x18FF5768 EQ PUSH2 0x8D JUMPI DUP1 PUSH4 0x26905C50 EQ PUSH2 0xA2 JUMPI DUP1 PUSH4 0x715018A6 EQ PUSH2 0xCC JUMPI DUP1 PUSH4 0x771D4C28 EQ PUSH2 0xD4 JUMPI JUMPDEST PUSH1 0x0 DUP1 REVERT JUMPDEST PUSH2 0xA0 PUSH2 0x9B CALLDATASIZE PUSH1 0x4 PUSH2 0x7D3 JUMP JUMPDEST PUSH2 0x15B JUMP JUMPDEST STOP JUMPDEST PUSH2 0xB5 PUSH2 0xB0 CALLDATASIZE PUSH1 0x4 PUSH2 0x809 JUMP JUMPDEST PUSH2 0x22A JUMP JUMPDEST PUSH1 0x40 MLOAD PUSH2 0xC3 SWAP3 SWAP2 SWAP1 PUSH2 0x82B JUMP JUMPDEST PUSH1 0x40 MLOAD DUP1 SWAP2 SUB SWAP1 RETURN JUMPDEST PUSH2 0xA0 PUSH2 0x32C JUMP JUMPDEST PUSH2 0xA0 PUSH2 0xE2 CALLDATASIZE PUSH1 0x4 PUSH2 0x7D3 JUMP JUMPDEST PUSH2 0x340 JUMP JUMPDEST PUSH1 0x0 SLOAD PUSH1 0x40 MLOAD PUSH20 0xFFFFFFFFFFFFFFFFFFFFFFFFFFFFFFFFFFFFFFFF SWAP1 SWAP2 AND DUP2 MSTORE PUSH1 0x20 ADD PUSH2 0xC3 JUMP JUMPDEST PUSH2 0x122 PUSH2 0x11D CALLDATASIZE PUSH1 0x4 PUSH2 0x7D3 JUMP JUMPDEST PUSH2 0x40A JUMP JUMPDEST PUSH1 0x40 MLOAD SWAP1 ISZERO ISZERO DUP2 MSTORE PUSH1 0x20 ADD PUSH2 0xC3 JUMP JUMPDEST PUSH2 0x13A PUSH2 0x41D JUMP JUMPDEST PUSH1 0x40 MLOAD SWAP1 DUP2 MSTORE PUSH1 0x20 ADD PUSH2 0xC3 JUMP JUMPDEST PUSH2 0xA0 PUSH2 0x156 CALLDATASIZE PUSH1 0x4 PUSH2 0x7D3 JUMP JUMPDEST PUSH2 0x42E JUMP JUMPDEST PUSH2 0x163 PUSH2 0x4E5 JUMP JUMPDEST PUSH2 0x16E PUSH1 0x1 DUP3 PUSH2 0x566 JUMP JUMPDEST ISZERO PUSH2 0x1DA JUMPI PUSH1 0x40 MLOAD PUSH32 0x8C379A000000000000000000000000000000000000000000000000000000000 DUP2 MSTORE PUSH1 0x20 PUSH1 0x4 DUP3 ADD MSTORE PUSH1 0x15 PUSH1 0x24 DUP3 ADD MSTORE PUSH32 0x50726F746F636F6C3A204E6F7420457869737465640000000000000000000000 PUSH1 0x44 DUP3 ADD MSTORE PUSH1 0x64 ADD JUMPDEST PUSH1 0x40 MLOAD DUP1 SWAP2 SUB SWAP1 REVERT JUMPDEST PUSH2 0x1E5 PUSH1 0x1 DUP3 PUSH2 0x598 JUMP JUMPDEST POP PUSH1 0x40 MLOAD PUSH20 0xFFFFFFFFFFFFFFFFFFFFFFFFFFFFFFFFFFFFFFFF DUP3 AND SWAP1 PUSH32 0x6F6771BBBE2625AC54784030F2CAE4BBEE4BE9C8609B6D7E3F02C5126B414600 SWAP1 PUSH1 0x0 SWAP1 LOG2 POP JUMP JUMPDEST PUSH1 0x60 PUSH1 0x0 DUP3 DUP5 PUSH2 0x23A PUSH1 0x1 PUSH2 0x5BA JUMP JUMPDEST PUSH2 0x244 SWAP2 SWAP1 PUSH2 0x8B8 JUMP JUMPDEST DUP2 GT ISZERO PUSH2 0x263 JUMPI DUP5 PUSH2 0x256 PUSH1 0x1 PUSH2 0x5BA JUMP JUMPDEST PUSH2 0x260 SWAP2 SWAP1 PUSH2 0x8B8 JUMP JUMPDEST SWAP1 POP JUMPDEST PUSH1 0x0 DUP2 PUSH8 0xFFFFFFFFFFFFFFFF DUP2 GT ISZERO PUSH2 0x27E JUMPI PUSH2 0x27E PUSH2 0x8CB JUMP JUMPDEST PUSH1 0x40 MLOAD SWAP1 DUP1 DUP3 MSTORE DUP1 PUSH1 0x20 MUL PUSH1 0x20 ADD DUP3 ADD PUSH1 0x40 MSTORE DUP1 ISZERO PUSH2 0x2A7 JUMPI DUP2 PUSH1 0x20 ADD PUSH1 0x20 DUP3 MUL DUP1 CALLDATASIZE DUP4 CALLDATACOPY ADD SWAP1 POP JUMPDEST POP SWAP1 POP PUSH1 0x0 JUMPDEST DUP3 DUP2 LT ISZERO PUSH2 0x313 JUMPI PUSH2 0x2CA PUSH2 0x2C2 DUP3 DUP10 PUSH2 0x8FA JUMP JUMPDEST PUSH1 0x1 SWAP1 PUSH2 0x5C4 JUMP JUMPDEST DUP3 DUP3 DUP2 MLOAD DUP2 LT PUSH2 0x2DC JUMPI PUSH2 0x2DC PUSH2 0x90D JUMP JUMPDEST PUSH20 0xFFFFFFFFFFFFFFFFFFFFFFFFFFFFFFFFFFFFFFFF SWAP1 SWAP3 AND PUSH1 0x20 SWAP3 DUP4 MUL SWAP2 SWAP1 SWAP2 ADD SWAP1 SWAP2 ADD MSTORE DUP1 PUSH2 0x30B DUP2 PUSH2 0x93C JUMP JUMPDEST SWAP2 POP POP PUSH2 0x2AD JUMP JUMPDEST POP DUP1 PUSH2 0x31F DUP4 DUP9 PUSH2 0x8FA JUMP JUMPDEST SWAP4 POP SWAP4 POP POP POP SWAP3 POP SWAP3 SWAP1 POP JUMP JUMPDEST PUSH2 0x334 PUSH2 0x4E5 JUMP JUMPDEST PUSH2 0x33E PUSH1 0x0 PUSH2 0x5D0 JUMP JUMPDEST JUMP JUMPDEST PUSH2 0x348 PUSH2 0x4E5 JUMP JUMPDEST PUSH2 0x353 PUSH1 0x1 DUP3 PUSH2 0x566 JUMP JUMPDEST ISZERO PUSH2 0x3BA JUMPI PUSH1 0x40 MLOAD PUSH32 0x8C379A000000000000000000000000000000000000000000000000000000000 DUP2 MSTORE PUSH1 0x20 PUSH1 0x4 DUP3 ADD MSTORE PUSH1 0x1E PUSH1 0x24 DUP3 ADD MSTORE PUSH32 0x50726F746F636F6C3A20416C72656164792057686974656C6973746564210000 PUSH1 0x44 DUP3 ADD MSTORE PUSH1 0x64 ADD PUSH2 0x1D1 JUMP JUMPDEST PUSH2 0x3C5 PUSH1 0x1 DUP3 PUSH2 0x645 JUMP JUMPDEST POP PUSH1 0x40 MLOAD PUSH20 0xFFFFFFFFFFFFFFFFFFFFFFFFFFFFFFFFFFFFFFFF DUP3 AND SWAP1 PUSH32 0x5EC654392567A6E4D201B682C6ED6803D120C307FD0B8BA2CCA51F73E36F4338 SWAP1 PUSH1 0x0 SWAP1 LOG2 POP JUMP JUMPDEST PUSH1 0x0 PUSH2 0x417 PUSH1 0x1 DUP4 PUSH2 0x566 JUMP JUMPDEST SWAP3 SWAP2 POP POP JUMP JUMPDEST PUSH1 0x0 PUSH2 0x429 PUSH1 0x1 PUSH2 0x5BA JUMP JUMPDEST SWAP1 POP SWAP1 JUMP JUMPDEST PUSH2 0x436 PUSH2 0x4E5 JUMP JUMPDEST PUSH20 0xFFFFFFFFFFFFFFFFFFFFFFFFFFFFFFFFFFFFFFFF DUP2 AND PUSH2 0x4D9 JUMPI PUSH1 0x40 MLOAD PUSH32 0x8C379A000000000000000000000000000000000000000000000000000000000 DUP2 MSTORE PUSH1 0x20 PUSH1 0x4 DUP3 ADD MSTORE PUSH1 0x26 PUSH1 0x24 DUP3 ADD MSTORE PUSH32 0x4F776E61626C653A206E6577206F776E657220697320746865207A65726F2061 PUSH1 0x44 DUP3 ADD MSTORE PUSH32 0x6464726573730000000000000000000000000000000000000000000000000000 PUSH1 0x64 DUP3 ADD MSTORE PUSH1 0x84 ADD PUSH2 0x1D1 JUMP JUMPDEST PUSH2 0x4E2 DUP2 PUSH2 0x5D0 JUMP JUMPDEST POP JUMP JUMPDEST PUSH1 0x0 SLOAD PUSH20 0xFFFFFFFFFFFFFFFFFFFFFFFFFFFFFFFFFFFFFFFF AND CALLER EQ PUSH2 0x33E JUMPI PUSH1 0x40 MLOAD PUSH32 0x8C379A000000000000000000000000000000000000000000000000000000000 DUP2 MSTORE PUSH1 0x20 PUSH1 0x4 DUP3 ADD DUP2 SWAP1 MSTORE PUSH1 0x24 DUP3 ADD MSTORE PUSH32 0x4F776E61626C653A2063616C6C6572206973206E6F7420746865206F776E6572 PUSH1 0x44 DUP3 ADD MSTORE PUSH1 0x64 ADD PUSH2 0x1D1 JUMP JUMPDEST PUSH20 0xFFFFFFFFFFFFFFFFFFFFFFFFFFFFFFFFFFFFFFFF DUP2 AND PUSH1 0x0 SWAP1 DUP2 MSTORE PUSH1 0x1 DUP4 ADD PUSH1 0x20 MSTORE PUSH1 0x40 DUP2 KECCAK256 SLOAD ISZERO ISZERO JUMPDEST SWAP4 SWAP3 POP POP POP JUMP JUMPDEST PUSH1 0x0 PUSH2 0x591 DUP4 PUSH20 0xFFFFFFFFFFFFFFFFFFFFFFFFFFFFFFFFFFFFFFFF DUP5 AND PUSH2 0x667 JUMP JUMPDEST PUSH1 0x0 PUSH2 0x417 DUP3 SLOAD SWAP1 JUMP JUMPDEST PUSH1 0x0 PUSH2 0x591 DUP4 DUP4 PUSH2 0x75A JUMP JUMPDEST PUSH1 0x0 DUP1 SLOAD PUSH20 0xFFFFFFFFFFFFFFFFFFFFFFFFFFFFFFFFFFFFFFFF DUP4 DUP2 AND PUSH32 0xFFFFFFFFFFFFFFFFFFFFFFFF0000000000000000000000000000000000000000 DUP4 AND DUP2 OR DUP5 SSTORE PUSH1 0x40 MLOAD SWAP2 SWAP1 SWAP3 AND SWAP3 DUP4 SWAP2 PUSH32 0x8BE0079C531659141344CD1FD0A4F28419497F9722A3DAAFE3B4186F6B6457E0 SWAP2 SWAP1 LOG3 POP POP JUMP JUMPDEST PUSH1 0x0 PUSH2 0x591 DUP4 PUSH20 0xFFFFFFFFFFFFFFFFFFFFFFFFFFFFFFFFFFFFFFFF DUP5 AND PUSH2 0x784 JUMP JUMPDEST PUSH1 0x0 DUP2 DUP2 MSTORE PUSH1 0x1 DUP4 ADD PUSH1 0x20 MSTORE PUSH1 0x40 DUP2 KECCAK256 SLOAD DUP1 ISZERO PUSH2 0x750 JUMPI PUSH1 0x0 PUSH2 0x68B PUSH1 0x1 DUP4 PUSH2 0x8B8 JUMP JUMPDEST DUP6 SLOAD SWAP1 SWAP2 POP PUSH1 0x0 SWAP1 PUSH2 0x69F SWAP1 PUSH1 0x1 SWAP1 PUSH2 0x8B8 JUMP JUMPDEST SWAP1 POP DUP2 DUP2 EQ PUSH2 0x704 JUMPI PUSH1 0x0 DUP7 PUSH1 0x0 ADD DUP3 DUP2 SLOAD DUP2 LT PUSH2 0x6BF JUMPI PUSH2 0x6BF PUSH2 0x90D JUMP JUMPDEST SWAP1 PUSH1 0x0 MSTORE PUSH1 0x20 PUSH1 0x0 KECCAK256 ADD SLOAD SWAP1 POP DUP1 DUP8 PUSH1 0x0 ADD DUP5 DUP2 SLOAD DUP2 LT PUSH2 0x6E2 JUMPI PUSH2 0x6E2 PUSH2 0x90D JUMP JUMPDEST PUSH1 0x0 SWAP2 DUP3 MSTORE PUSH1 0x20 DUP1 DUP4 KECCAK256 SWAP1 SWAP2 ADD SWAP3 SWAP1 SWAP3 SSTORE SWAP2 DUP3 MSTORE PUSH1 0x1 DUP9 ADD SWAP1 MSTORE PUSH1 0x40 SWAP1 KECCAK256 DUP4 SWAP1 SSTORE JUMPDEST DUP6 SLOAD DUP7 SWAP1 DUP1 PUSH2 0x715 JUMPI PUSH2 0x715 PUSH2 0x974 JUMP JUMPDEST PUSH1 0x1 SWAP1 SUB DUP2 DUP2 SWAP1 PUSH1 0x0 MSTORE PUSH1 0x20 PUSH1 0x0 KECCAK256 ADD PUSH1 0x0 SWAP1 SSTORE SWAP1 SSTORE DUP6 PUSH1 0x1 ADD PUSH1 0x0 DUP7 DUP2 MSTORE PUSH1 0x20 ADD SWAP1 DUP2 MSTORE PUSH1 0x20 ADD PUSH1 0x0 KECCAK256 PUSH1 0x0 SWAP1 SSTORE PUSH1 0x1 SWAP4 POP POP POP POP PUSH2 0x417 JUMP JUMPDEST PUSH1 0x0 SWAP2 POP POP PUSH2 0x417 JUMP JUMPDEST PUSH1 0x0 DUP3 PUSH1 0x0 ADD DUP3 DUP2 SLOAD DUP2 LT PUSH2 0x771 JUMPI PUSH2 0x771 PUSH2 0x90D JUMP JUMPDEST SWAP1 PUSH1 0x0 MSTORE PUSH1 0x20 PUSH1 0x0 KECCAK256 ADD SLOAD SWAP1 POP SWAP3 SWAP2 POP POP JUMP JUMPDEST PUSH1 0x0 DUP2 DUP2 MSTORE PUSH1 0x1 DUP4 ADD PUSH1 0x20 MSTORE PUSH1 0x40 DUP2 KECCAK256 SLOAD PUSH2 0x7CB JUMPI POP DUP2 SLOAD PUSH1 0x1 DUP2 DUP2 ADD DUP5 SSTORE PUSH1 0x0 DUP5 DUP2 MSTORE PUSH1 0x20 DUP1 DUP3 KECCAK256 SWAP1 SWAP4 ADD DUP5 SWAP1 SSTORE DUP5 SLOAD DUP5 DUP3 MSTORE DUP3 DUP7 ADD SWAP1 SWAP4 MSTORE PUSH1 0x40 SWAP1 KECCAK256 SWAP2 SWAP1 SWAP2 SSTORE PUSH2 0x417 JUMP JUMPDEST POP PUSH1 0x0 PUSH2 0x417 JUMP JUMPDEST PUSH1 0x0 PUSH1 0x20 DUP3 DUP5 SUB SLT ISZERO PUSH2 0x7E5 JUMPI PUSH1 0x0 DUP1 REVERT JUMPDEST DUP2 CALLDATALOAD PUSH20 0xFFFFFFFFFFFFFFFFFFFFFFFFFFFFFFFFFFFFFFFF DUP2 AND DUP2 EQ PUSH2 0x591 JUMPI PUSH1 0x0 DUP1 REVERT JUMPDEST PUSH1 0x0 DUP1 PUSH1 0x40 DUP4 DUP6 SUB SLT ISZERO PUSH2 0x81C JUMPI PUSH1 0x0 DUP1 REVERT JUMPDEST POP POP DUP1 CALLDATALOAD SWAP3 PUSH1 0x20 SWAP1 SWAP2 ADD CALLDATALOAD SWAP2 POP JUMP JUMPDEST PUSH1 0x40 DUP1 DUP3 MSTORE DUP4 MLOAD SWAP1 DUP3 ADD DUP2 SWAP1 MSTORE PUSH1 0x0 SWAP1 PUSH1 0x20 SWAP1 PUSH1 0x60 DUP5 ADD SWAP1 DUP3 DUP8 ADD DUP5 JUMPDEST DUP3 DUP2 LT ISZERO PUSH2 0x87A JUMPI DUP2 MLOAD PUSH20 0xFFFFFFFFFFFFFFFFFFFFFFFFFFFFFFFFFFFFFFFF AND DUP5 MSTORE SWAP3 DUP5 ADD SWAP3 SWAP1 DUP5 ADD SWAP1 PUSH1 0x1 ADD PUSH2 0x848 JUMP JUMPDEST POP POP POP SWAP3 ADD SWAP3 SWAP1 SWAP3 MSTORE SWAP3 SWAP2 POP POP JUMP JUMPDEST PUSH32 0x4E487B7100000000000000000000000000000000000000000000000000000000 PUSH1 0x0 MSTORE PUSH1 0x11 PUSH1 0x4 MSTORE PUSH1 0x24 PUSH1 0x0 REVERT JUMPDEST DUP2 DUP2 SUB DUP2 DUP2 GT ISZERO PUSH2 0x417 JUMPI PUSH2 0x417 PUSH2 0x889 JUMP JUMPDEST PUSH32 0x4E487B7100000000000000000000000000000000000000000000000000000000 PUSH1 0x0 MSTORE PUSH1 0x41 PUSH1 0x4 MSTORE PUSH1 0x24 PUSH1 0x0 REVERT JUMPDEST DUP1 DUP3 ADD DUP1 DUP3 GT ISZERO PUSH2 0x417 JUMPI PUSH2 0x417 PUSH2 0x889 JUMP JUMPDEST PUSH32 0x4E487B7100000000000000000000000000000000000000000000000000000000 PUSH1 0x0 MSTORE PUSH1 0x32 PUSH1 0x4 MSTORE PUSH1 0x24 PUSH1 0x0 REVERT JUMPDEST PUSH1 0x0 PUSH32 0xFFFFFFFFFFFFFFFFFFFFFFFFFFFFFFFFFFFFFFFFFFFFFFFFFFFFFFFFFFFFFFFF DUP3 SUB PUSH2 0x96D JUMPI PUSH2 0x96D PUSH2 0x889 JUMP JUMPDEST POP PUSH1 0x1 ADD SWAP1 JUMP JUMPDEST PUSH32 0x4E487B7100000000000000000000000000000000000000000000000000000000 PUSH1 0x0 MSTORE PUSH1 0x31 PUSH1 0x4 MSTORE PUSH1 0x24 PUSH1 0x0 REVERT INVALID LOG2 PUSH5 0x6970667358 0x22 SLT KECCAK256 CALLDATALOAD JUMPI 0xB1 0xE2 RETURNDATACOPY SSTORE 0xBE LOG4 SWAP14 0xBC 0xC9 0x25 COINBASE 0x5E 0xC8 POP SAR SUB MSTORE8 0xAA CODECOPY CODESIZE 0xC1 CALLDATACOPY STATICCALL KECCAK256 0xD0 0xDA STATICCALL 0xAF DUP7 PUSH6 0x64736F6C6343 STOP ADDMOD GT STOP CALLER "},"methodIdentifiers":{"addProtocol(address)":"771d4c28","isProtocolWhitelisted(address)":"9387bbd4","owner()":"8da5cb5b","removeProtocol(address)":"18ff5768","renounceOwnership()":"715018a6","transferOwnership(address)":"f2fde38b","viewCountWhitelistedProtocol()":"b663d534","viewWhitelistedProtocol(uint256,uint256)":"26905c50"}}}}}