{"contracts/protocols/ProtocolAndExecution.sol":{"ProtocolAndExecution":{"abi":[{"anonymous":false,"inputs":[{"indexed":false,"internalType":"uint256","name":"protocolFee","type":"uint256"}],"name":"NewProtocolFee","type":"event"},{"anonymous":false,"inputs":[{"indexed":true,"internalType":"address","name":"previousOwner","type":"address"},{"indexed":true,"internalType":"address","name":"newOwner","type":"address"}],"name":"OwnershipTransferred","type":"event"},{"inputs":[],"name":"owner","outputs":[{"internalType":"address","name":"","type":"address"}],"stateMutability":"view","type":"function"},{"inputs":[{"components":[{"internalType":"bool","name":"isDealer","type":"bool"},{"internalType":"address","name":"takerAddress","type":"address"},{"internalType":"uint256","name":"price","type":"uint256"},{"internalType":"uint256","name":"tokenId","type":"uint256"}],"internalType":"struct MarketTypes.User","name":"userSeller","type":"tuple"},{"components":[{"internalType":"bool","name":"isDealer","type":"bool"},{"internalType":"address","name":"edemSigner","type":"address"},{"internalType":"address","name":"collection","type":"address"},{"internalType":"uint256","name":"tokenId","type":"uint256"},{"internalType":"uint256","name":"nftAmount","type":"uint256"},{"internalType":"uint256","name":"price","type":"uint256"},{"internalType":"address","name":"protocolAddress","type":"address"},{"internalType":"address","name":"tradeTokenAddress","type":"address"},{"internalType":"uint256","name":"nonce","type":"uint256"},{"internalType":"uint256","name":"startTime","type":"uint256"},{"internalType":"uint256","name":"endTime","type":"uint256"},{"internalType":"bool","name":"isCombo","type":"bool"},{"internalType":"uint256[]","name":"combos","type":"uint256[]"},{"internalType":"uint8","name":"v","type":"uint8"},{"internalType":"bytes32","name":"r","type":"bytes32"},{"internalType":"bytes32","name":"s","type":"bytes32"}],"internalType":"struct MarketTypes.MarketPlace","name":"marketProposer","type":"tuple"}],"name":"possibleAcceptSuggest","outputs":[{"internalType":"bool","name":"","type":"bool"},{"internalType":"uint256","name":"","type":"uint256"},{"internalType":"uint256","name":"","type":"uint256"}],"stateMutability":"view","type":"function"},{"inputs":[{"components":[{"internalType":"bool","name":"isDealer","type":"bool"},{"internalType":"address","name":"takerAddress","type":"address"},{"internalType":"uint256","name":"price","type":"uint256"},{"internalType":"uint256","name":"tokenId","type":"uint256"}],"internalType":"struct MarketTypes.User","name":"userProposer","type":"tuple"},{"components":[{"internalType":"bool","name":"isDealer","type":"bool"},{"internalType":"address","name":"edemSigner","type":"address"},{"internalType":"address","name":"collection","type":"address"},{"internalType":"uint256","name":"tokenId","type":"uint256"},{"internalType":"uint256","name":"nftAmount","type":"uint256"},{"internalType":"uint256","name":"price","type":"uint256"},{"internalType":"address","name":"protocolAddress","type":"address"},{"internalType":"address","name":"tradeTokenAddress","type":"address"},{"internalType":"uint256","name":"nonce","type":"uint256"},{"internalType":"uint256","name":"startTime","type":"uint256"},{"internalType":"uint256","name":"endTime","type":"uint256"},{"internalType":"bool","name":"isCombo","type":"bool"},{"internalType":"uint256[]","name":"combos","type":"uint256[]"},{"internalType":"uint8","name":"v","type":"uint8"},{"internalType":"bytes32","name":"r","type":"bytes32"},{"internalType":"bytes32","name":"s","type":"bytes32"}],"internalType":"struct MarketTypes.MarketPlace","name":"marketSeller","type":"tuple"}],"name":"possiblePurchase","outputs":[{"internalType":"bool","name":"","type":"bool"},{"internalType":"uint256","name":"","type":"uint256"},{"internalType":"uint256","name":"","type":"uint256"}],"stateMutability":"view","type":"function"},{"inputs":[],"name":"renounceOwnership","outputs":[],"stateMutability":"nonpayable","type":"function"},{"inputs":[{"internalType":"uint256","name":"newProtocolFee","type":"uint256"}],"name":"setProtocolFee","outputs":[],"stateMutability":"nonpayable","type":"function"},{"inputs":[{"internalType":"address","name":"newOwner","type":"address"}],"name":"transferOwnership","outputs":[],"stateMutability":"nonpayable","type":"function"},{"inputs":[],"name":"viewProtocolFee","outputs":[{"internalType":"uint256","name":"","type":"uint256"}],"stateMutability":"view","type":"function"}],"evm":{"bytecode":{"linkReferences":{},"object":"60806040526103e860015534801561001657600080fd5b5061002033610025565b610075565b600080546001600160a01b038381166001600160a01b0319831681178455604051919092169283917f8be0079c531659141344cd1fd0a4f28419497f9722a3daafe3b4186f6b6457e09190a35050565b61050e806100846000396000f3fe608060405234801561001057600080fd5b506004361061007d5760003560e01c8063787dce3d1161005b578063787dce3d146100d45780638da5cb5b146100e75780639dd1cda61461010f578063f2fde38b1461012057600080fd5b80630b6b132a1461008257806314b14048146100b7578063715018a6146100ca575b600080fd5b610095610090366004610402565b610133565b6040805193151584526020840192909252908201526060015b60405180910390f35b6100956100c5366004610402565b61018d565b6100d26101f9565b005b6100d26100e2366004610460565b61020d565b60005460405173ffffffffffffffffffffffffffffffffffffffff90911681526020016100ae565b6001546040519081526020016100ae565b6100d261012e366004610479565b610250565b600080600084604001358460a00135148015610156575084606001358460600135145b801561016757504284610140013510155b801561017857504284610120013511155b92505050606083013560808301359250925092565b600080600084604001358460a001351480156101a7575060015b80156101b857504284610120013511155b80156101c957504284610140013510155b80156101e457506101e2610180850161016086016104b6565b155b92505050606082013560808301359250925092565b61020161030c565b61020b600061038d565b565b61021561030c565b60018190556040518181527f3e1c6f794380f768303ee10adb978482d0ee037b0517bdabf3118141632078a69060200160405180910390a150565b61025861030c565b73ffffffffffffffffffffffffffffffffffffffff8116610300576040517f08c379a000000000000000000000000000000000000000000000000000000000815260206004820152602660248201527f4f776e61626c653a206e6577206f776e657220697320746865207a65726f206160448201527f646472657373000000000000000000000000000000000000000000000000000060648201526084015b60405180910390fd5b6103098161038d565b50565b60005473ffffffffffffffffffffffffffffffffffffffff16331461020b576040517f08c379a000000000000000000000000000000000000000000000000000000000815260206004820181905260248201527f4f776e61626c653a2063616c6c6572206973206e6f7420746865206f776e657260448201526064016102f7565b6000805473ffffffffffffffffffffffffffffffffffffffff8381167fffffffffffffffffffffffff0000000000000000000000000000000000000000831681178455604051919092169283917f8be0079c531659141344cd1fd0a4f28419497f9722a3daafe3b4186f6b6457e09190a35050565b60008082840360a081121561041657600080fd5b608081121561042457600080fd5b50829150608083013567ffffffffffffffff81111561044257600080fd5b8301610200818603121561045557600080fd5b809150509250929050565b60006020828403121561047257600080fd5b5035919050565b60006020828403121561048b57600080fd5b813573ffffffffffffffffffffffffffffffffffffffff811681146104af57600080fd5b9392505050565b6000602082840312156104c857600080fd5b813580151581146104af57600080fdfea2646970667358221220d7277b2ae4b55631d5ba7aae87919e4bb9806af6cda4d079bb8f16d606bcff4f64736f6c63430008110033","opcodes":"PUSH1 0x80 PUSH1 0x40 MSTORE PUSH2 0x3E8 PUSH1 0x1 SSTORE CALLVALUE DUP1 ISZERO PUSH2 0x16 JUMPI PUSH1 0x0 DUP1 REVERT JUMPDEST POP PUSH2 0x20 CALLER PUSH2 0x25 JUMP JUMPDEST PUSH2 0x75 JUMP JUMPDEST PUSH1 0x0 DUP1 SLOAD PUSH1 0x1 PUSH1 0x1 PUSH1 0xA0 SHL SUB DUP4 DUP2 AND PUSH1 0x1 PUSH1 0x1 PUSH1 0xA0 SHL SUB NOT DUP4 AND DUP2 OR DUP5 SSTORE PUSH1 0x40 MLOAD SWAP2 SWAP1 SWAP3 AND SWAP3 DUP4 SWAP2 PUSH32 0x8BE0079C531659141344CD1FD0A4F28419497F9722A3DAAFE3B4186F6B6457E0 SWAP2 SWAP1 LOG3 POP POP JUMP JUMPDEST PUSH2 0x50E DUP1 PUSH2 0x84 PUSH1 0x0 CODECOPY PUSH1 0x0 RETURN INVALID PUSH1 0x80 PUSH1 0x40 MSTORE CALLVALUE DUP1 ISZERO PUSH2 0x10 JUMPI PUSH1 0x0 DUP1 REVERT JUMPDEST POP PUSH1 0x4 CALLDATASIZE LT PUSH2 0x7D JUMPI PUSH1 0x0 CALLDATALOAD PUSH1 0xE0 SHR DUP1 PUSH4 0x787DCE3D GT PUSH2 0x5B JUMPI DUP1 PUSH4 0x787DCE3D EQ PUSH2 0xD4 JUMPI DUP1 PUSH4 0x8DA5CB5B EQ PUSH2 0xE7 JUMPI DUP1 PUSH4 0x9DD1CDA6 EQ PUSH2 0x10F JUMPI DUP1 PUSH4 0xF2FDE38B EQ PUSH2 0x120 JUMPI PUSH1 0x0 DUP1 REVERT JUMPDEST DUP1 PUSH4 0xB6B132A EQ PUSH2 0x82 JUMPI DUP1 PUSH4 0x14B14048 EQ PUSH2 0xB7 JUMPI DUP1 PUSH4 0x715018A6 EQ PUSH2 0xCA JUMPI JUMPDEST PUSH1 0x0 DUP1 REVERT JUMPDEST PUSH2 0x95 PUSH2 0x90 CALLDATASIZE PUSH1 0x4 PUSH2 0x402 JUMP JUMPDEST PUSH2 0x133 JUMP JUMPDEST PUSH1 0x40 DUP1 MLOAD SWAP4 ISZERO ISZERO DUP5 MSTORE PUSH1 0x20 DUP5 ADD SWAP3 SWAP1 SWAP3 MSTORE SWAP1 DUP3 ADD MSTORE PUSH1 0x60 ADD JUMPDEST PUSH1 0x40 MLOAD DUP1 SWAP2 SUB SWAP1 RETURN JUMPDEST PUSH2 0x95 PUSH2 0xC5 CALLDATASIZE PUSH1 0x4 PUSH2 0x402 JUMP JUMPDEST PUSH2 0x18D JUMP JUMPDEST PUSH2 0xD2 PUSH2 0x1F9 JUMP JUMPDEST STOP JUMPDEST PUSH2 0xD2 PUSH2 0xE2 CALLDATASIZE PUSH1 0x4 PUSH2 0x460 JUMP JUMPDEST PUSH2 0x20D JUMP JUMPDEST PUSH1 0x0 SLOAD PUSH1 0x40 MLOAD PUSH20 0xFFFFFFFFFFFFFFFFFFFFFFFFFFFFFFFFFFFFFFFF SWAP1 SWAP2 AND DUP2 MSTORE PUSH1 0x20 ADD PUSH2 0xAE JUMP JUMPDEST PUSH1 0x1 SLOAD PUSH1 0x40 MLOAD SWAP1 DUP2 MSTORE PUSH1 0x20 ADD PUSH2 0xAE JUMP JUMPDEST PUSH2 0xD2 PUSH2 0x12E CALLDATASIZE PUSH1 0x4 PUSH2 0x479 JUMP JUMPDEST PUSH2 0x250 JUMP JUMPDEST PUSH1 0x0 DUP1 PUSH1 0x0 DUP5 PUSH1 0x40 ADD CALLDATALOAD DUP5 PUSH1 0xA0 ADD CALLDATALOAD EQ DUP1 ISZERO PUSH2 0x156 JUMPI POP DUP5 PUSH1 0x60 ADD CALLDATALOAD DUP5 PUSH1 0x60 ADD CALLDATALOAD EQ JUMPDEST DUP1 ISZERO PUSH2 0x167 JUMPI POP TIMESTAMP DUP5 PUSH2 0x140 ADD CALLDATALOAD LT ISZERO JUMPDEST DUP1 ISZERO PUSH2 0x178 JUMPI POP TIMESTAMP DUP5 PUSH2 0x120 ADD CALLDATALOAD GT ISZERO JUMPDEST SWAP3 POP POP POP PUSH1 0x60 DUP4 ADD CALLDATALOAD PUSH1 0x80 DUP4 ADD CALLDATALOAD SWAP3 POP SWAP3 POP SWAP3 JUMP JUMPDEST PUSH1 0x0 DUP1 PUSH1 0x0 DUP5 PUSH1 0x40 ADD CALLDATALOAD DUP5 PUSH1 0xA0 ADD CALLDATALOAD EQ DUP1 ISZERO PUSH2 0x1A7 JUMPI POP PUSH1 0x1 JUMPDEST DUP1 ISZERO PUSH2 0x1B8 JUMPI POP TIMESTAMP DUP5 PUSH2 0x120 ADD CALLDATALOAD GT ISZERO JUMPDEST DUP1 ISZERO PUSH2 0x1C9 JUMPI POP TIMESTAMP DUP5 PUSH2 0x140 ADD CALLDATALOAD LT ISZERO JUMPDEST DUP1 ISZERO PUSH2 0x1E4 JUMPI POP PUSH2 0x1E2 PUSH2 0x180 DUP6 ADD PUSH2 0x160 DUP7 ADD PUSH2 0x4B6 JUMP JUMPDEST ISZERO JUMPDEST SWAP3 POP POP POP PUSH1 0x60 DUP3 ADD CALLDATALOAD PUSH1 0x80 DUP4 ADD CALLDATALOAD SWAP3 POP SWAP3 POP SWAP3 JUMP JUMPDEST PUSH2 0x201 PUSH2 0x30C JUMP JUMPDEST PUSH2 0x20B PUSH1 0x0 PUSH2 0x38D JUMP JUMPDEST JUMP JUMPDEST PUSH2 0x215 PUSH2 0x30C JUMP JUMPDEST PUSH1 0x1 DUP2 SWAP1 SSTORE PUSH1 0x40 MLOAD DUP2 DUP2 MSTORE PUSH32 0x3E1C6F794380F768303EE10ADB978482D0EE037B0517BDABF3118141632078A6 SWAP1 PUSH1 0x20 ADD PUSH1 0x40 MLOAD DUP1 SWAP2 SUB SWAP1 LOG1 POP JUMP JUMPDEST PUSH2 0x258 PUSH2 0x30C JUMP JUMPDEST PUSH20 0xFFFFFFFFFFFFFFFFFFFFFFFFFFFFFFFFFFFFFFFF DUP2 AND PUSH2 0x300 JUMPI PUSH1 0x40 MLOAD PUSH32 0x8C379A000000000000000000000000000000000000000000000000000000000 DUP2 MSTORE PUSH1 0x20 PUSH1 0x4 DUP3 ADD MSTORE PUSH1 0x26 PUSH1 0x24 DUP3 ADD MSTORE PUSH32 0x4F776E61626C653A206E6577206F776E657220697320746865207A65726F2061 PUSH1 0x44 DUP3 ADD MSTORE PUSH32 0x6464726573730000000000000000000000000000000000000000000000000000 PUSH1 0x64 DUP3 ADD MSTORE PUSH1 0x84 ADD JUMPDEST PUSH1 0x40 MLOAD DUP1 SWAP2 SUB SWAP1 REVERT JUMPDEST PUSH2 0x309 DUP2 PUSH2 0x38D JUMP JUMPDEST POP JUMP JUMPDEST PUSH1 0x0 SLOAD PUSH20 0xFFFFFFFFFFFFFFFFFFFFFFFFFFFFFFFFFFFFFFFF AND CALLER EQ PUSH2 0x20B JUMPI PUSH1 0x40 MLOAD PUSH32 0x8C379A000000000000000000000000000000000000000000000000000000000 DUP2 MSTORE PUSH1 0x20 PUSH1 0x4 DUP3 ADD DUP2 SWAP1 MSTORE PUSH1 0x24 DUP3 ADD MSTORE PUSH32 0x4F776E61626C653A2063616C6C6572206973206E6F7420746865206F776E6572 PUSH1 0x44 DUP3 ADD MSTORE PUSH1 0x64 ADD PUSH2 0x2F7 JUMP JUMPDEST PUSH1 0x0 DUP1 SLOAD PUSH20 0xFFFFFFFFFFFFFFFFFFFFFFFFFFFFFFFFFFFFFFFF DUP4 DUP2 AND PUSH32 0xFFFFFFFFFFFFFFFFFFFFFFFF0000000000000000000000000000000000000000 DUP4 AND DUP2 OR DUP5 SSTORE PUSH1 0x40 MLOAD SWAP2 SWAP1 SWAP3 AND SWAP3 DUP4 SWAP2 PUSH32 0x8BE0079C531659141344CD1FD0A4F28419497F9722A3DAAFE3B4186F6B6457E0 SWAP2 SWAP1 LOG3 POP POP JUMP JUMPDEST PUSH1 0x0 DUP1 DUP3 DUP5 SUB PUSH1 0xA0 DUP2 SLT ISZERO PUSH2 0x416 JUMPI PUSH1 0x0 DUP1 REVERT JUMPDEST PUSH1 0x80 DUP2 SLT ISZERO PUSH2 0x424 JUMPI PUSH1 0x0 DUP1 REVERT JUMPDEST POP DUP3 SWAP2 POP PUSH1 0x80 DUP4 ADD CALLDATALOAD PUSH8 0xFFFFFFFFFFFFFFFF DUP2 GT ISZERO PUSH2 0x442 JUMPI PUSH1 0x0 DUP1 REVERT JUMPDEST DUP4 ADD PUSH2 0x200 DUP2 DUP7 SUB SLT ISZERO PUSH2 0x455 JUMPI PUSH1 0x0 DUP1 REVERT JUMPDEST DUP1 SWAP2 POP POP SWAP3 POP SWAP3 SWAP1 POP JUMP JUMPDEST PUSH1 0x0 PUSH1 0x20 DUP3 DUP5 SUB SLT ISZERO PUSH2 0x472 JUMPI PUSH1 0x0 DUP1 REVERT JUMPDEST POP CALLDATALOAD SWAP2 SWAP1 POP JUMP JUMPDEST PUSH1 0x0 PUSH1 0x20 DUP3 DUP5 SUB SLT ISZERO PUSH2 0x48B JUMPI PUSH1 0x0 DUP1 REVERT JUMPDEST DUP2 CALLDATALOAD PUSH20 0xFFFFFFFFFFFFFFFFFFFFFFFFFFFFFFFFFFFFFFFF DUP2 AND DUP2 EQ PUSH2 0x4AF JUMPI PUSH1 0x0 DUP1 REVERT JUMPDEST SWAP4 SWAP3 POP POP POP JUMP JUMPDEST PUSH1 0x0 PUSH1 0x20 DUP3 DUP5 SUB SLT ISZERO PUSH2 0x4C8 JUMPI PUSH1 0x0 DUP1 REVERT JUMPDEST DUP2 CALLDATALOAD DUP1 ISZERO ISZERO DUP2 EQ PUSH2 0x4AF JUMPI PUSH1 0x0 DUP1 REVERT INVALID LOG2 PUSH5 0x6970667358 0x22 SLT KECCAK256 0xD7 0x27 PUSH28 0x2AE4B55631D5BA7AAE87919E4BB9806AF6CDA4D079BB8F16D606BCFF 0x4F PUSH5 0x736F6C6343 STOP ADDMOD GT STOP CALLER "},"methodIdentifiers":{"owner()":"8da5cb5b","possibleAcceptSuggest((bool,address,uint256,uint256),(bool,address,address,uint256,uint256,uint256,address,address,uint256,uint256,uint256,bool,uint256[],uint8,bytes32,bytes32))":"0b6b132a","possiblePurchase((bool,address,uint256,uint256),(bool,address,address,uint256,uint256,uint256,address,address,uint256,uint256,uint256,bool,uint256[],uint8,bytes32,bytes32))":"14b14048","renounceOwnership()":"715018a6","setProtocolFee(uint256)":"787dce3d","transferOwnership(address)":"f2fde38b","viewProtocolFee()":"9dd1cda6"}}}}}