{"contracts/Edem.sol":{"Edem":{"abi":[{"inputs":[{"internalType":"address","name":"_tradeTokenManager","type":"address"},{"internalType":"address","name":"_protocolExecutionManager","type":"address"},{"internalType":"address","name":"_royaltyManager","type":"address"},{"internalType":"address","name":"_transferManager","type":"address"},{"internalType":"address","name":"_WETH","type":"address"},{"internalType":"address","name":"_protocolFeeRecipient","type":"address"}],"stateMutability":"nonpayable","type":"constructor"},{"anonymous":false,"inputs":[{"indexed":true,"internalType":"address","name":"user","type":"address"},{"indexed":false,"internalType":"uint256","name":"newMinNonce","type":"uint256"}],"name":"CancelAllOrders","type":"event"},{"anonymous":false,"inputs":[{"indexed":true,"internalType":"address","name":"user","type":"address"},{"indexed":false,"internalType":"uint256[]","name":"orderNonces","type":"uint256[]"}],"name":"CancelMultipleOrders","type":"event"},{"anonymous":false,"inputs":[{"indexed":true,"internalType":"address","name":"protocolExecutionManager","type":"address"}],"name":"NewProtocolExecutionManager","type":"event"},{"anonymous":false,"inputs":[{"indexed":true,"internalType":"address","name":"protocoleFeeRecipient","type":"address"}],"name":"NewProtocolFeeRecipient","type":"event"},{"anonymous":false,"inputs":[{"indexed":true,"internalType":"address","name":"royaltyManager","type":"address"}],"name":"NewRoyaltyManager","type":"event"},{"anonymous":false,"inputs":[{"indexed":true,"internalType":"address","name":"tradeTokenManager","type":"address"}],"name":"NewTradeTokenManager","type":"event"},{"anonymous":false,"inputs":[{"indexed":true,"internalType":"address","name":"transferManager","type":"address"}],"name":"NewTransferManager","type":"event"},{"anonymous":false,"inputs":[{"indexed":true,"internalType":"address","name":"previousOwner","type":"address"},{"indexed":true,"internalType":"address","name":"newOwner","type":"address"}],"name":"OwnershipTransferred","type":"event"},{"anonymous":false,"inputs":[{"indexed":true,"internalType":"address","name":"collection","type":"address"},{"indexed":true,"internalType":"uint256","name":"tokenId","type":"uint256"},{"indexed":true,"internalType":"address","name":"royaltyRecipient","type":"address"},{"indexed":false,"internalType":"address","name":"currency","type":"address"},{"indexed":false,"internalType":"uint256","name":"amount","type":"uint256"}],"name":"RoyaltyPayment","type":"event"},{"anonymous":false,"inputs":[{"indexed":false,"internalType":"bytes32","name":"marketPlaceHash","type":"bytes32"},{"indexed":false,"internalType":"uint256","name":"orderNonce","type":"uint256"},{"indexed":true,"internalType":"address","name":"userProposer","type":"address"},{"indexed":true,"internalType":"address","name":"marketSeller","type":"address"},{"indexed":true,"internalType":"address","name":"protocolAddress","type":"address"},{"indexed":false,"internalType":"address","name":"tradeTokenAddress","type":"address"},{"indexed":false,"internalType":"address","name":"collection","type":"address"},{"indexed":false,"internalType":"uint256","name":"tokenId","type":"uint256"},{"indexed":false,"internalType":"uint256","name":"amount","type":"uint256"},{"indexed":false,"internalType":"uint256","name":"price","type":"uint256"}],"name":"UserProposer","type":"event"},{"anonymous":false,"inputs":[{"indexed":false,"internalType":"bytes32","name":"marketPlaceHash","type":"bytes32"},{"indexed":false,"internalType":"uint256","name":"orderNonce","type":"uint256"},{"indexed":true,"internalType":"address","name":"userSeller","type":"address"},{"indexed":true,"internalType":"address","name":"marketProposer","type":"address"},{"indexed":true,"internalType":"address","name":"protocolAddress","type":"address"},{"indexed":false,"internalType":"address","name":"tradeTokenAddress","type":"address"},{"indexed":false,"internalType":"address","name":"collection","type":"address"},{"indexed":false,"internalType":"uint256","name":"tokenId","type":"uint256"},{"indexed":false,"internalType":"uint256","name":"nftAmount","type":"uint256"},{"indexed":false,"internalType":"uint256","name":"price","type":"uint256"}],"name":"UserSeller","type":"event"},{"inputs":[],"name":"DOMAIN_SEPARATOR","outputs":[{"internalType":"bytes32","name":"","type":"bytes32"}],"stateMutability":"view","type":"function"},{"inputs":[],"name":"INTERFACE_ID_ERC1155","outputs":[{"internalType":"bytes4","name":"","type":"bytes4"}],"stateMutability":"view","type":"function"},{"inputs":[],"name":"INTERFACE_ID_ERC721","outputs":[{"internalType":"bytes4","name":"","type":"bytes4"}],"stateMutability":"view","type":"function"},{"inputs":[],"name":"WETH","outputs":[{"internalType":"address","name":"","type":"address"}],"stateMutability":"view","type":"function"},{"inputs":[{"internalType":"uint256","name":"minNonce","type":"uint256"}],"name":"cancelAll","outputs":[],"stateMutability":"nonpayable","type":"function"},{"inputs":[{"internalType":"uint256[]","name":"orderNonces","type":"uint256[]"}],"name":"cancelSellAndSuggest","outputs":[],"stateMutability":"nonpayable","type":"function"},{"inputs":[{"internalType":"address","name":"user","type":"address"},{"internalType":"uint256","name":"orderNonces","type":"uint256"}],"name":"isUserOrderNonceExecutedOrCancelled","outputs":[{"internalType":"bool","name":"","type":"bool"}],"stateMutability":"view","type":"function"},{"inputs":[],"name":"owner","outputs":[{"internalType":"address","name":"","type":"address"}],"stateMutability":"view","type":"function"},{"inputs":[{"components":[{"internalType":"bool","name":"isDealer","type":"bool"},{"internalType":"address","name":"takerAddress","type":"address"},{"internalType":"uint256","name":"price","type":"uint256"},{"internalType":"uint256","name":"tokenId","type":"uint256"}],"internalType":"struct MarketTypes.User","name":"userProposer","type":"tuple"},{"components":[{"internalType":"bool","name":"isDealer","type":"bool"},{"internalType":"address","name":"edemSigner","type":"address"},{"internalType":"address","name":"collection","type":"address"},{"internalType":"uint256","name":"tokenId","type":"uint256"},{"internalType":"uint256","name":"nftAmount","type":"uint256"},{"internalType":"uint256","name":"price","type":"uint256"},{"internalType":"address","name":"protocolAddress","type":"address"},{"internalType":"address","name":"tradeTokenAddress","type":"address"},{"internalType":"uint256","name":"nonce","type":"uint256"},{"internalType":"uint256","name":"startTime","type":"uint256"},{"internalType":"uint256","name":"endTime","type":"uint256"},{"internalType":"bool","name":"isCombo","type":"bool"},{"internalType":"uint256[]","name":"combos","type":"uint256[]"},{"internalType":"uint8","name":"v","type":"uint8"},{"internalType":"bytes32","name":"r","type":"bytes32"},{"internalType":"bytes32","name":"s","type":"bytes32"}],"internalType":"struct MarketTypes.MarketPlace","name":"marketSeller","type":"tuple"}],"name":"proposerPay","outputs":[],"stateMutability":"nonpayable","type":"function"},{"inputs":[{"components":[{"internalType":"bool","name":"isDealer","type":"bool"},{"internalType":"address","name":"takerAddress","type":"address"},{"internalType":"uint256","name":"price","type":"uint256"},{"internalType":"uint256","name":"tokenId","type":"uint256"}],"internalType":"struct MarketTypes.User","name":"userProposer","type":"tuple"},{"components":[{"internalType":"bool","name":"isDealer","type":"bool"},{"internalType":"address","name":"edemSigner","type":"address"},{"internalType":"address","name":"collection","type":"address"},{"internalType":"uint256","name":"tokenId","type":"uint256"},{"internalType":"uint256","name":"nftAmount","type":"uint256"},{"internalType":"uint256","name":"price","type":"uint256"},{"internalType":"address","name":"protocolAddress","type":"address"},{"internalType":"address","name":"tradeTokenAddress","type":"address"},{"internalType":"uint256","name":"nonce","type":"uint256"},{"internalType":"uint256","name":"startTime","type":"uint256"},{"internalType":"uint256","name":"endTime","type":"uint256"},{"internalType":"bool","name":"isCombo","type":"bool"},{"internalType":"uint256[]","name":"combos","type":"uint256[]"},{"internalType":"uint8","name":"v","type":"uint8"},{"internalType":"bytes32","name":"r","type":"bytes32"},{"internalType":"bytes32","name":"s","type":"bytes32"}],"internalType":"struct MarketTypes.MarketPlace","name":"marketSeller","type":"tuple"}],"name":"proposerPayETHAndWETH","outputs":[],"stateMutability":"payable","type":"function"},{"inputs":[],"name":"protocolExecutionManager","outputs":[{"internalType":"contract IProtocolExecutionManager","name":"","type":"address"}],"stateMutability":"view","type":"function"},{"inputs":[],"name":"protocoleFeeRecipient","outputs":[{"internalType":"address","name":"","type":"address"}],"stateMutability":"view","type":"function"},{"inputs":[],"name":"renounceOwnership","outputs":[],"stateMutability":"nonpayable","type":"function"},{"inputs":[],"name":"royaltyManager","outputs":[{"internalType":"contract IRoyaltyManager","name":"","type":"address"}],"stateMutability":"view","type":"function"},{"inputs":[{"components":[{"internalType":"bool","name":"isDealer","type":"bool"},{"internalType":"address","name":"takerAddress","type":"address"},{"internalType":"uint256","name":"price","type":"uint256"},{"internalType":"uint256","name":"tokenId","type":"uint256"}],"internalType":"struct MarketTypes.User","name":"userSeller","type":"tuple"},{"components":[{"internalType":"bool","name":"isDealer","type":"bool"},{"internalType":"address","name":"edemSigner","type":"address"},{"internalType":"address","name":"collection","type":"address"},{"internalType":"uint256","name":"tokenId","type":"uint256"},{"internalType":"uint256","name":"nftAmount","type":"uint256"},{"internalType":"uint256","name":"price","type":"uint256"},{"internalType":"address","name":"protocolAddress","type":"address"},{"internalType":"address","name":"tradeTokenAddress","type":"address"},{"internalType":"uint256","name":"nonce","type":"uint256"},{"internalType":"uint256","name":"startTime","type":"uint256"},{"internalType":"uint256","name":"endTime","type":"uint256"},{"internalType":"bool","name":"isCombo","type":"bool"},{"internalType":"uint256[]","name":"combos","type":"uint256[]"},{"internalType":"uint8","name":"v","type":"uint8"},{"internalType":"bytes32","name":"r","type":"bytes32"},{"internalType":"bytes32","name":"s","type":"bytes32"}],"internalType":"struct MarketTypes.MarketPlace","name":"marketProposer","type":"tuple"}],"name":"suggestApprove","outputs":[],"stateMutability":"nonpayable","type":"function"},{"inputs":[],"name":"tradeTokenManager","outputs":[{"internalType":"contract ITradeTokenManager","name":"","type":"address"}],"stateMutability":"view","type":"function"},{"inputs":[],"name":"transferManager","outputs":[{"internalType":"contract ITransferManager","name":"","type":"address"}],"stateMutability":"view","type":"function"},{"inputs":[{"internalType":"address","name":"newOwner","type":"address"}],"name":"transferOwnership","outputs":[],"stateMutability":"nonpayable","type":"function"},{"inputs":[{"internalType":"address","name":"_protocolExecutionManager","type":"address"}],"name":"updateProtocolExecutionManager","outputs":[],"stateMutability":"nonpayable","type":"function"},{"inputs":[{"internalType":"address","name":"_royaltyManager","type":"address"}],"name":"updateRoyaltyManager","outputs":[],"stateMutability":"nonpayable","type":"function"},{"inputs":[{"internalType":"address","name":"_tradeTokenManager","type":"address"}],"name":"updateTradeTokenManager","outputs":[],"stateMutability":"nonpayable","type":"function"},{"inputs":[{"internalType":"address","name":"_transferManager","type":"address"}],"name":"updateTransferManager","outputs":[],"stateMutability":"nonpayable","type":"function"}],"evm":{"bytecode":{"linkReferences":{},"object":"60c06040523480156200001157600080fd5b5060405162003e5f38038062003e5f8339810160408190526200003491620001be565b600160005562000044336200014f565b604080517f8b73c3c69bb8fe3d512ecc4cf759cc79239f7b179b0ffacaa9a75d522b39400f60208201527f5c2e51296adc65c422761a1ef052bfdfcda1c13890d56b8aaeeb9b358abfe854918101919091527fc89efdaa54c0f20c7adf612882df0950f5a951637e0307cdcb4c672f298b8bc660608201524660808201523060a082015260c00160408051808303601f19018152919052805160209091012060a052600380546001600160a01b03199081166001600160a01b039889161790915560048054821696881696909617909555600580548616948716949094179093556006805485169286169290921790915583166080526002805490921692169190911790556200023f565b600180546001600160a01b038381166001600160a01b0319831681179093556040519116919082907f8be0079c531659141344cd1fd0a4f28419497f9722a3daafe3b4186f6b6457e090600090a35050565b80516001600160a01b0381168114620001b957600080fd5b919050565b60008060008060008060c08789031215620001d857600080fd5b620001e387620001a1565b9550620001f360208801620001a1565b94506200020360408801620001a1565b93506200021360608801620001a1565b92506200022360808801620001a1565b91506200023360a08801620001a1565b90509295509295509295565b60805160a051613bc26200029d600039600081816102880152611e030152600081816103f601528181611409015281816115910152818161162d015281816126f80152818161281c015281816128a101526129a50152613bc26000f3fe6080604052600436106101755760003560e01c80639bbc6d88116100cb578063bc6bc0cd1161007f578063ebf1decc11610059578063ebf1decc146104bf578063ee295d62146104ec578063f2fde38b1461051957600080fd5b8063bc6bc0cd14610458578063c86350771461048c578063c8f935091461049f57600080fd5b8063ad5c4648116100b0578063ad5c4648146103e4578063b4b634c614610418578063b6cdf8211461043857600080fd5b80639bbc6d8814610397578063aa747d3a146103c457600080fd5b80633644e5151161012d578063715018a611610107578063715018a61461032a5780638b655ee01461033f5780638da5cb5b1461036c57600080fd5b80633644e5151461027657806346ea2552146102b85780636c01ad9c1461030a57600080fd5b806331e27e271161015e57806331e27e27146101bc57806332b941fd146101f157806333bf61561461021157600080fd5b8063146fce321461017a5780632dd85ad91461019c575b600080fd5b34801561018657600080fd5b5061019a61019536600461311f565b610539565b005b3480156101a857600080fd5b5061019a6101b736600461316a565b61063e565b3480156101c857600080fd5b506101dc6101d736600461318e565b610732565b60405190151581526020015b60405180910390f35b3480156101fd57600080fd5b5061019a61020c3660046131ba565b61076d565b34801561021d57600080fd5b506102457fd9b67a260000000000000000000000000000000000000000000000000000000081565b6040517fffffffff0000000000000000000000000000000000000000000000000000000090911681526020016101e8565b34801561028257600080fd5b506102aa7f000000000000000000000000000000000000000000000000000000000000000081565b6040519081526020016101e8565b3480156102c457600080fd5b506006546102e59073ffffffffffffffffffffffffffffffffffffffff1681565b60405173ffffffffffffffffffffffffffffffffffffffff90911681526020016101e8565b34801561031657600080fd5b5061019a6103253660046131ba565b610bb9565b34801561033657600080fd5b5061019a610faa565b34801561034b57600080fd5b506002546102e59073ffffffffffffffffffffffffffffffffffffffff1681565b34801561037857600080fd5b5060015473ffffffffffffffffffffffffffffffffffffffff166102e5565b3480156103a357600080fd5b506003546102e59073ffffffffffffffffffffffffffffffffffffffff1681565b3480156103d057600080fd5b5061019a6103df366004613218565b610fbe565b3480156103f057600080fd5b506102e57f000000000000000000000000000000000000000000000000000000000000000081565b34801561042457600080fd5b5061019a61043336600461316a565b611179565b34801561044457600080fd5b5061019a61045336600461316a565b61126d565b34801561046457600080fd5b506102457f80ac58cd0000000000000000000000000000000000000000000000000000000081565b61019a61049a3660046131ba565b611361565b3480156104ab57600080fd5b5061019a6104ba36600461316a565b61187c565b3480156104cb57600080fd5b506004546102e59073ffffffffffffffffffffffffffffffffffffffff1681565b3480156104f857600080fd5b506005546102e59073ffffffffffffffffffffffffffffffffffffffff1681565b34801561052557600080fd5b5061019a61053436600461316a565b611970565b336000908152600760205260409020548111610590576040517f08c379a000000000000000000000000000000000000000000000000000000000815260206004820152600060248201526044015b60405180910390fd5b336000908152600760205260409020546105ad906207a1206132bc565b81106105ef576040517f08c379a00000000000000000000000000000000000000000000000000000000081526020600482015260006024820152604401610587565b3360008181526007602052604090819020839055517f1e7178d84f0b0825c65795cd62e7972809ad3aac6917843aaec596161b2c0a97906106339084815260200190565b60405180910390a250565b610646611a27565b73ffffffffffffffffffffffffffffffffffffffff81166106c3576040517f08c379a000000000000000000000000000000000000000000000000000000000815260206004820152601660248201527f43616e6e6f74206265206e756c6c2061646472657373000000000000000000006044820152606401610587565b600680547fffffffffffffffffffffffff00000000000000000000000000000000000000001673ffffffffffffffffffffffffffffffffffffffff83169081179091556040517fbb34fee0d3bb7c602ecfe1c8bed62b67a720f718e0eaf72246d3457fcb25be1790600090a250565b73ffffffffffffffffffffffffffffffffffffffff8216600090815260086020908152604080832084845290915290205460ff165b92915050565b610775611aa8565b61078260208201826132e8565b8015610798575061079660208301836132e8565b155b6107fe576040517f08c379a000000000000000000000000000000000000000000000000000000000815260206004820152601b60248201527f54686174206973207468652077726f6e6720617070726f6163682e00000000006044820152606401610587565b61080e604083016020840161316a565b73ffffffffffffffffffffffffffffffffffffffff163373ffffffffffffffffffffffffffffffffffffffff161461087c576040517f08c379a00000000000000000000000000000000000000000000000000000000081526020600482015260006024820152604401610587565b600061088f61088a8361341d565b611b1b565b905061089b8282611bbc565b600080806108af60e0860160c0870161316a565b73ffffffffffffffffffffffffffffffffffffffff166314b1404887876040518363ffffffff1660e01b81526004016108e99291906135ee565b606060405180830381865afa158015610906573d6000803e3d6000fd5b505050506040513d601f19601f8201168201806040525081019061092a91906137d4565b92509250925082610997576040517f08c379a000000000000000000000000000000000000000000000000000000000815260206004820152601160248201527f496e76616c6964205472616465204e66740000000000000000000000000000006044820152606401610587565b6001600860006109ad6040890160208a0161316a565b73ffffffffffffffffffffffffffffffffffffffff168152602080820192909252604090810160009081206101008a01358252909252902080547fffffffffffffffffffffffffffffffffffffffffffffffffffffffffffffff0016911515919091179055610a62610a2560e0870160c0880161316a565b610a35606088016040890161316a565b84610a476101008a0160e08b0161316a565b33610a5860408c0160208d0161316a565b8c604001356120d0565b610a9c610a75606087016040880161316a565b610a85604088016020890161316a565b610a9560408a0160208b0161316a565b858561238b565b610aac60e0860160c0870161316a565b73ffffffffffffffffffffffffffffffffffffffff16610ad2604087016020880161316a565b73ffffffffffffffffffffffffffffffffffffffff16610af86040890160208a0161316a565b73ffffffffffffffffffffffffffffffffffffffff167f50d3c79a72acf972e873ec1c16c55eecf26a8bb67b60b136dd0ca2e1c6565ad7876101008a01803590610b459060e08d0161316a565b610b5560608d0160408e0161316a565b60408051948552602085019390935273ffffffffffffffffffffffffffffffffffffffff918216848401521660608301526080820188905260a082018790528b013560c082015260e00160405180910390a450505050610bb56001600055565b5050565b610bc1611aa8565b610bce60208201826132e8565b158015610be35750610be360208301836132e8565b610c49576040517f08c379a000000000000000000000000000000000000000000000000000000000815260206004820152601b60248201527f54686174206973207468652077726f6e6720617070726f6163682e00000000006044820152606401610587565b610c59604083016020840161316a565b73ffffffffffffffffffffffffffffffffffffffff163373ffffffffffffffffffffffffffffffffffffffff1614610ced576040517f08c379a000000000000000000000000000000000000000000000000000000000815260206004820152601460248201527f54616b6572206d7573742062652073656e6465720000000000000000000000006044820152606401610587565b6000610cfb61088a8361341d565b9050610d078282611bbc565b60008080610d1b60e0860160c0870161316a565b73ffffffffffffffffffffffffffffffffffffffff16630b6b132a87876040518363ffffffff1660e01b8152600401610d559291906135ee565b606060405180830381865afa158015610d72573d6000803e3d6000fd5b505050506040513d601f19601f82011682018060405250810190610d9691906137d4565b92509250925082610e03576040517f08c379a000000000000000000000000000000000000000000000000000000000815260206004820152601160248201527f496e76616c6964205472616465204e66740000000000000000000000000000006044820152606401610587565b600160086000610e196040890160208a0161316a565b73ffffffffffffffffffffffffffffffffffffffff168152602080820192909252604090810160009081206101008a013582529092529081902080547fffffffffffffffffffffffffffffffffffffffffffffffffffffffffffffff001692151592909217909155610ea690610e95906060880190880161316a565b33610a956040890160208a0161316a565b610f01610eb960e0870160c0880161316a565b610ec9606088016040890161316a565b84610edb6101008a0160e08b0161316a565b610eeb60408b0160208c0161316a565b610efb60408d0160208e0161316a565b876120d0565b610f1160e0860160c0870161316a565b73ffffffffffffffffffffffffffffffffffffffff16610f37604087016020880161316a565b73ffffffffffffffffffffffffffffffffffffffff16610f5d6040890160208a0161316a565b73ffffffffffffffffffffffffffffffffffffffff167f8ce1a009c26eecc60e31b457e624e94f61c3d5f4149f76e8f43f73ebc27b9300876101008a01803590610b459060e08d0161316a565b610fb2611a27565b610fbc6000612546565b565b80611025576040517f08c379a000000000000000000000000000000000000000000000000000000000815260206004820152601960248201527f4174206c65617374206f6e652069732072657175697265642e000000000000006044820152606401610587565b60005b8181101561112457336000908152600760205260409020548383838181106110525761105261380b565b9050602002013510156110c1576040517f08c379a000000000000000000000000000000000000000000000000000000000815260206004820152601860248201527f4e6f6e6365206c6f776572207468616e2063757272656e7400000000000000006044820152606401610587565b3360009081526008602052604081206001918585858181106110e5576110e561380b565b90506020020135815260200190815260200160002060006101000a81548160ff021916908315150217905550808061111c9061383a565b915050611028565b503373ffffffffffffffffffffffffffffffffffffffff167ffa0ae5d80fe3763c880a3839fab0294171a6f730d1f82c4cd5392c6f67b41732838360405161116d929190613872565b60405180910390a25050565b611181611a27565b73ffffffffffffffffffffffffffffffffffffffff81166111fe576040517f08c379a000000000000000000000000000000000000000000000000000000000815260206004820152601660248201527f43616e6e6f74206265206e756c6c2061646472657373000000000000000000006044820152606401610587565b600380547fffffffffffffffffffffffff00000000000000000000000000000000000000001673ffffffffffffffffffffffffffffffffffffffff83169081179091556040517f2c3e29f8b5d22d1cfa8497a6c45621ed49f95178416c7ef3ee1c2193c8812eb490600090a250565b611275611a27565b73ffffffffffffffffffffffffffffffffffffffff81166112f2576040517f08c379a000000000000000000000000000000000000000000000000000000000815260206004820152601660248201527f43616e6e6f74206265206e756c6c2061646472657373000000000000000000006044820152606401610587565b600480547fffffffffffffffffffffffff00000000000000000000000000000000000000001673ffffffffffffffffffffffffffffffffffffffff83169081179091556040517f418a3785ac5fd0d0b92e92d1e814233310678c13b024a3741d41c6db3c803fc390600090a250565b611369611aa8565b61137660208201826132e8565b801561138c575061138a60208301836132e8565b155b6113f2576040517f08c379a000000000000000000000000000000000000000000000000000000000815260206004820152601b60248201527f54686174206973207468652077726f6e6720617070726f6163682e00000000006044820152606401610587565b73ffffffffffffffffffffffffffffffffffffffff7f00000000000000000000000000000000000000000000000000000000000000001661143a610100830160e0840161316a565b73ffffffffffffffffffffffffffffffffffffffff16146114b7576040517f08c379a000000000000000000000000000000000000000000000000000000000815260206004820152601260248201527f556e737570706f7274656420746f6b656e2e00000000000000000000000000006044820152606401610587565b6114c7604083016020840161316a565b73ffffffffffffffffffffffffffffffffffffffff163373ffffffffffffffffffffffffffffffffffffffff161461155b576040517f08c379a000000000000000000000000000000000000000000000000000000000815260206004820152601560248201527f436c69656e74206d7573742062652073656e64657200000000000000000000006044820152606401610587565b34826040013511156115be576115b9333061157a346040870135613886565b73ffffffffffffffffffffffffffffffffffffffff7f0000000000000000000000000000000000000000000000000000000000000000169291906125bd565b61162b565b3482604001351461162b576040517f08c379a000000000000000000000000000000000000000000000000000000000815260206004820152600d60248201527f546f6f204869676820436f696e000000000000000000000000000000000000006044820152606401610587565b7f000000000000000000000000000000000000000000000000000000000000000073ffffffffffffffffffffffffffffffffffffffff1663d0e30db0346040518263ffffffff1660e01b81526004016000604051808303818588803b15801561169357600080fd5b505af11580156116a7573d6000803e3d6000fd5b505050505060006116bb8261088a9061341d565b90506116c78282611bbc565b600080806116db60e0860160c0870161316a565b73ffffffffffffffffffffffffffffffffffffffff166314b1404887876040518363ffffffff1660e01b81526004016117159291906135ee565b606060405180830381865afa158015611732573d6000803e3d6000fd5b505050506040513d601f19601f8201168201806040525081019061175691906137d4565b925092509250826117c3576040517f08c379a000000000000000000000000000000000000000000000000000000000815260206004820152601160248201527f496e76616c6964205472616465204e66740000000000000000000000000000006044820152606401610587565b6001600860006117d96040890160208a0161316a565b73ffffffffffffffffffffffffffffffffffffffff168152602080820192909252604090810160009081206101008a01358252909252902080547fffffffffffffffffffffffffffffffffffffffffffffffffffffffffffffff0016911515919091179055610a6261185160e0870160c0880161316a565b611861606088016040890161316a565b8461187260408a0160208b0161316a565b8a6040013561269f565b611884611a27565b73ffffffffffffffffffffffffffffffffffffffff8116611901576040517f08c379a000000000000000000000000000000000000000000000000000000000815260206004820152601660248201527f43616e6e6f74206265206e756c6c2061646472657373000000000000000000006044820152606401610587565b600580547fffffffffffffffffffffffff00000000000000000000000000000000000000001673ffffffffffffffffffffffffffffffffffffffff83169081179091556040517f23e4135208439ee9f05d104daf57025ac32a6842326405d76852f0434085e93390600090a250565b611978611a27565b73ffffffffffffffffffffffffffffffffffffffff8116611a1b576040517f08c379a000000000000000000000000000000000000000000000000000000000815260206004820152602660248201527f4f776e61626c653a206e6577206f776e657220697320746865207a65726f206160448201527f64647265737300000000000000000000000000000000000000000000000000006064820152608401610587565b611a2481612546565b50565b60015473ffffffffffffffffffffffffffffffffffffffff163314610fbc576040517f08c379a000000000000000000000000000000000000000000000000000000000815260206004820181905260248201527f4f776e61626c653a2063616c6c6572206973206e6f7420746865206f776e65726044820152606401610587565b600260005403611b14576040517f08c379a000000000000000000000000000000000000000000000000000000000815260206004820152601f60248201527f5265656e7472616e637947756172643a207265656e7472616e742063616c6c006044820152606401610587565b6002600055565b80516020808301516040808501516060860151608087015160a088015160c089015160e08a01516101008b01516101208c01516101408d01516101608e01516101808f01519a5160009e611b9f9e7f1bb1b70d1589d811d0ea870ccb0da21dc9f4a701e3b41a486bb9489901024cb09e919d919c9b9a9998979695949392016138d4565b604051602081830303815290604052805190602001209050919050565b60086000611bd0604085016020860161316a565b73ffffffffffffffffffffffffffffffffffffffff16815260208082019290925260409081016000908120610100860135825290925290205460ff16158015611c6c575060076000611c28604085016020860161316a565b73ffffffffffffffffffffffffffffffffffffffff1673ffffffffffffffffffffffffffffffffffffffff1681526020019081526020016000205482610100013510155b611cd2576040517f08c379a000000000000000000000000000000000000000000000000000000000815260206004820181905260248201527f4564656d2073696e676572206e6f742076616c6964206f7220657870697265646044820152606401610587565b6000611ce4604084016020850161316a565b73ffffffffffffffffffffffffffffffffffffffff1603611d61576040517f08c379a000000000000000000000000000000000000000000000000000000000815260206004820152600e60248201527f496e76616c6964207369676e65720000000000000000000000000000000000006044820152606401610587565b6000826080013511611dcf576040517f08c379a000000000000000000000000000000000000000000000000000000000815260206004820152601960248201527f4e667420616d6f756e74206d7573742062652031206f72202b000000000000006044820152606401610587565b611e2781611de3604085016020860161316a565b611df56101c086016101a087016139a6565b856101c00135866101e001357f00000000000000000000000000000000000000000000000000000000000000006129d4565b611e8d576040517f08c379a000000000000000000000000000000000000000000000000000000000815260206004820152601060248201527f5369676e4861736820496e76616c6964000000000000000000000000000000006044820152606401610587565b60035473ffffffffffffffffffffffffffffffffffffffff1663b5af090f611ebc610100850160e0860161316a565b6040517fffffffff0000000000000000000000000000000000000000000000000000000060e084901b16815273ffffffffffffffffffffffffffffffffffffffff9091166004820152602401602060405180830381865afa158015611f25573d6000803e3d6000fd5b505050506040513d601f19601f82011682018060405250810190611f4991906139c1565b611faf576040517f08c379a000000000000000000000000000000000000000000000000000000000815260206004820152600f60248201527f4e6f7420617574686f72697a65642e00000000000000000000000000000000006044820152606401610587565b60045473ffffffffffffffffffffffffffffffffffffffff16639387bbd4611fdd60e0850160c0860161316a565b6040517fffffffff0000000000000000000000000000000000000000000000000000000060e084901b16815273ffffffffffffffffffffffffffffffffffffffff9091166004820152602401602060405180830381865afa158015612046573d6000803e3d6000fd5b505050506040513d601f19601f8201168201806040525081019061206a91906139c1565b610bb5576040517f08c379a000000000000000000000000000000000000000000000000000000000815260206004820152600f60248201527f4e6f7420617574686f72697a65642e00000000000000000000000000000000006044820152606401610587565b8060006120dd8983612ba8565b60025490915073ffffffffffffffffffffffffffffffffffffffff161580159061210657508015155b15612141576002546121349073ffffffffffffffffffffffffffffffffffffffff88811691889116846125bd565b61213e8183613886565b91505b506005546040517f40e7b54000000000000000000000000000000000000000000000000000000000815273ffffffffffffffffffffffffffffffffffffffff8981166004830152602482018990526044820185905260009283929116906340e7b540906064016040805180830381865afa1580156121c3573d6000803e3d6000fd5b505050506040513d601f19601f820116820180604052508101906121e791906139de565b909250905073ffffffffffffffffffffffffffffffffffffffff82161580159061221057508015155b156122cd5761223773ffffffffffffffffffffffffffffffffffffffff88168784846125bd565b6122418184613886565b92508173ffffffffffffffffffffffffffffffffffffffff16888a73ffffffffffffffffffffffffffffffffffffffff167f27c4f0403323142b599832f26acd21c74a9e5b809f2215726e244a4ac588cd7d8a856040516122c492919073ffffffffffffffffffffffffffffffffffffffff929092168252602082015260400190565b60405180910390a45b50506000811161235f576040517f08c379a000000000000000000000000000000000000000000000000000000000815260206004820152602760248201527f5468652066656520697320746f6f206869676820746f2063686172676520616e60448201527f797468696e672e000000000000000000000000000000000000000000000000006064820152608401610587565b61238173ffffffffffffffffffffffffffffffffffffffff86168585846125bd565b5050505050505050565b6006546040517f15f0496600000000000000000000000000000000000000000000000000000000815273ffffffffffffffffffffffffffffffffffffffff878116600483015260009216906315f0496690602401602060405180830381865afa1580156123fc573d6000803e3d6000fd5b505050506040513d601f19601f820116820180604052508101906124209190613a0c565b905073ffffffffffffffffffffffffffffffffffffffff811661249f576040517f08c379a000000000000000000000000000000000000000000000000000000000815260206004820152601560248201527f526571756972657320726567697374726174696f6e00000000000000000000006044820152606401610587565b6040517f10f0211300000000000000000000000000000000000000000000000000000000815273ffffffffffffffffffffffffffffffffffffffff87811660048301528681166024830152858116604483015260648201859052608482018490528216906310f021139060a401600060405180830381600087803b15801561252657600080fd5b505af115801561253a573d6000803e3d6000fd5b50505050505050505050565b6001805473ffffffffffffffffffffffffffffffffffffffff8381167fffffffffffffffffffffffff0000000000000000000000000000000000000000831681179093556040519116919082907f8be0079c531659141344cd1fd0a4f28419497f9722a3daafe3b4186f6b6457e090600090a35050565b60405173ffffffffffffffffffffffffffffffffffffffff808516602483015283166044820152606481018290526126999085907f23b872dd00000000000000000000000000000000000000000000000000000000906084015b604080517fffffffffffffffffffffffffffffffffffffffffffffffffffffffffffffffe08184030181529190526020810180517bffffffffffffffffffffffffffffffffffffffffffffffffffffffff167fffffffff0000000000000000000000000000000000000000000000000000000090931692909217909152612c3b565b50505050565b8060006126ac8783612ba8565b60025490915073ffffffffffffffffffffffffffffffffffffffff16158015906126d557508015155b1561272e576002546127219073ffffffffffffffffffffffffffffffffffffffff7f00000000000000000000000000000000000000000000000000000000000000008116911683612d4c565b61272b8183613886565b91505b506005546040517f40e7b54000000000000000000000000000000000000000000000000000000000815273ffffffffffffffffffffffffffffffffffffffff8781166004830152602482018790526044820185905260009283929116906340e7b540906064016040805180830381865afa1580156127b0573d6000803e3d6000fd5b505050506040513d601f19601f820116820180604052508101906127d491906139de565b909250905073ffffffffffffffffffffffffffffffffffffffff8216158015906127fd57508015155b156128f95761284373ffffffffffffffffffffffffffffffffffffffff7f0000000000000000000000000000000000000000000000000000000000000000168383612d4c565b61284d8184613886565b92508173ffffffffffffffffffffffffffffffffffffffff16868873ffffffffffffffffffffffffffffffffffffffff167f27c4f0403323142b599832f26acd21c74a9e5b809f2215726e244a4ac588cd7d7f0000000000000000000000000000000000000000000000000000000000000000856040516128f092919073ffffffffffffffffffffffffffffffffffffffff929092168252602082015260400190565b60405180910390a45b50506000811161298b576040517f08c379a000000000000000000000000000000000000000000000000000000000815260206004820152602760248201527f5468652066656520697320746f6f206869676820746f2063686172676520616e60448201527f797468696e672e000000000000000000000000000000000000000000000000006064820152608401610587565b6129cc73ffffffffffffffffffffffffffffffffffffffff7f0000000000000000000000000000000000000000000000000000000000000000168483612d4c565b505050505050565b6040517f1901000000000000000000000000000000000000000000000000000000000000602082015260228101829052604281018790526000908190606201604051602081830303815290604052805190602001209050612a4b8773ffffffffffffffffffffffffffffffffffffffff163b151590565b15612b6057604080516020810187905280820186905260f888901b7fff000000000000000000000000000000000000000000000000000000000000001660608201528151604181830301815260618201928390527f1626ba7e0000000000000000000000000000000000000000000000000000000090925273ffffffffffffffffffffffffffffffffffffffff891691631626ba7e91612aef918591606501613a97565b602060405180830381865afa158015612b0c573d6000803e3d6000fd5b505050506040513d601f19601f82011682018060405250810190612b309190613ab0565b7bffffffffffffffffffffffffffffffffffffffffffffffffffffffff1916631626ba7e60e01b14915050612b9e565b8673ffffffffffffffffffffffffffffffffffffffff16612b8382888888612da2565b73ffffffffffffffffffffffffffffffffffffffff16149150505b9695505050505050565b6000808373ffffffffffffffffffffffffffffffffffffffff16639dd1cda66040518163ffffffff1660e01b8152600401602060405180830381865afa158015612bf6573d6000803e3d6000fd5b505050506040513d601f19601f82011682018060405250810190612c1a9190613af2565b9050612710612c298483613b0b565b612c339190613b22565b949350505050565b6000612c9d826040518060400160405280602081526020017f5361666545524332303a206c6f772d6c6576656c2063616c6c206661696c65648152508573ffffffffffffffffffffffffffffffffffffffff16612fae9092919063ffffffff16565b805190915015612d475780806020019051810190612cbb91906139c1565b612d47576040517f08c379a000000000000000000000000000000000000000000000000000000000815260206004820152602a60248201527f5361666545524332303a204552433230206f7065726174696f6e20646964206e60448201527f6f742073756363656564000000000000000000000000000000000000000000006064820152608401610587565b505050565b60405173ffffffffffffffffffffffffffffffffffffffff8316602482015260448101829052612d479084907fa9059cbb0000000000000000000000000000000000000000000000000000000090606401612617565b60007f7fffffffffffffffffffffffffffffff5d576e7357a4501ddfe92f46681b20a0821115612e2e576040517f08c379a000000000000000000000000000000000000000000000000000000000815260206004820152601e60248201527f5369676e61747572653a20496e76616c6964207320706172616d6574657200006044820152606401610587565b8360ff16601b1480612e4357508360ff16601c145b612ea9576040517f08c379a000000000000000000000000000000000000000000000000000000000815260206004820152601e60248201527f5369676e61747572653a20496e76616c6964207620706172616d6574657200006044820152606401610587565b6040805160008082526020820180845288905260ff871692820192909252606081018590526080810184905260019060a0016020604051602081039080840390855afa158015612efd573d6000803e3d6000fd5b50506040517fffffffffffffffffffffffffffffffffffffffffffffffffffffffffffffffe0015191505073ffffffffffffffffffffffffffffffffffffffff8116612fa5576040517f08c379a000000000000000000000000000000000000000000000000000000000815260206004820152601960248201527f5369676e61747572653a20496e76616c6964207369676e6572000000000000006044820152606401610587565b95945050505050565b6060612c338484600085856000808673ffffffffffffffffffffffffffffffffffffffff168587604051612fe29190613b5d565b60006040518083038185875af1925050503d806000811461301f576040519150601f19603f3d011682016040523d82523d6000602084013e613024565b606091505b509150915061303587838387613040565b979650505050505050565b606083156130d65782516000036130cf5773ffffffffffffffffffffffffffffffffffffffff85163b6130cf576040517f08c379a000000000000000000000000000000000000000000000000000000000815260206004820152601d60248201527f416464726573733a2063616c6c20746f206e6f6e2d636f6e74726163740000006044820152606401610587565b5081612c33565b612c3383838151156130eb5781518083602001fd5b806040517f08c379a00000000000000000000000000000000000000000000000000000000081526004016105879190613b79565b60006020828403121561313157600080fd5b5035919050565b73ffffffffffffffffffffffffffffffffffffffff81168114611a2457600080fd5b803561316581613138565b919050565b60006020828403121561317c57600080fd5b813561318781613138565b9392505050565b600080604083850312156131a157600080fd5b82356131ac81613138565b946020939093013593505050565b60008082840360a08112156131ce57600080fd5b60808112156131dc57600080fd5b50829150608083013567ffffffffffffffff8111156131fa57600080fd5b8301610200818603121561320d57600080fd5b809150509250929050565b6000806020838503121561322b57600080fd5b823567ffffffffffffffff8082111561324357600080fd5b818501915085601f83011261325757600080fd5b81358181111561326657600080fd5b8660208260051b850101111561327b57600080fd5b60209290920196919550909350505050565b7f4e487b7100000000000000000000000000000000000000000000000000000000600052601160045260246000fd5b808201808211156107675761076761328d565b8015158114611a2457600080fd5b8035613165816132cf565b6000602082840312156132fa57600080fd5b8135613187816132cf565b7f4e487b7100000000000000000000000000000000000000000000000000000000600052604160045260246000fd5b604051610200810167ffffffffffffffff8111828210171561335857613358613305565b60405290565b600082601f83011261336f57600080fd5b8135602067ffffffffffffffff8083111561338c5761338c613305565b8260051b6040517fffffffffffffffffffffffffffffffffffffffffffffffffffffffffffffffe0603f830116810181811084821117156133cf576133cf613305565b6040529384528581018301938381019250878511156133ed57600080fd5b83870191505b84821015613035578135835291830191908301906133f3565b803560ff8116811461316557600080fd5b6000610200823603121561343057600080fd5b613438613334565b613441836132dd565b815261344f6020840161315a565b60208201526134606040840161315a565b6040820152606083013560608201526080830135608082015260a083013560a082015261348f60c0840161315a565b60c08201526134a060e0840161315a565b60e08201526101008381013590820152610120808401359082015261014080840135908201526101606134d48185016132dd565b908201526101808381013567ffffffffffffffff8111156134f457600080fd5b6135003682870161335e565b8284015250506101a061351481850161340c565b908201526101c083810135908201526101e092830135928101929092525090565b60008083357fffffffffffffffffffffffffffffffffffffffffffffffffffffffffffffffe184360301811261356a57600080fd5b830160208101925035905067ffffffffffffffff81111561358a57600080fd5b8060051b360382131561359c57600080fd5b9250929050565b81835260007f07ffffffffffffffffffffffffffffffffffffffffffffffffffffffffffffff8311156135d557600080fd5b8260051b80836020870137939093016020019392505050565b600083356135fb816132cf565b15158252602084013561360d81613138565b73ffffffffffffffffffffffffffffffffffffffff8116602084015250604084013560408301526060840135606083015260a0608083015261365b60a08301613655856132dd565b15159052565b6136676020840161315a565b73ffffffffffffffffffffffffffffffffffffffff1660c083015261368e6040840161315a565b73ffffffffffffffffffffffffffffffffffffffff811660e08401525061010060608401358184015261012060808501358185015261014060a0860135818601526136db60c0870161315a565b6101606136ff8188018373ffffffffffffffffffffffffffffffffffffffff169052565b61370b60e0890161315a565b91506101806137318189018473ffffffffffffffffffffffffffffffffffffffff169052565b6101a0925085890135838901526101c0955084890135868901526101e094508389013585890152613763828a016132dd565b935061020091506137778289018515159052565b613783818a018a613535565b945090508161022089015261379d6102a0890185836135a3565b935050506137ac81880161340c565b60ff166102408701525091850135610260850152909301356102809092019190915250919050565b6000806000606084860312156137e957600080fd5b83516137f4816132cf565b602085015160409095015190969495509392505050565b7f4e487b7100000000000000000000000000000000000000000000000000000000600052603260045260246000fd5b60007fffffffffffffffffffffffffffffffffffffffffffffffffffffffffffffffff820361386b5761386b61328d565b5060010190565b602081526000612c336020830184866135a3565b818103818111156107675761076761328d565b600081518084526020808501945080840160005b838110156138c9578151875295820195908201906001016138ad565b509495945050505050565b8e81528d1515602082015273ffffffffffffffffffffffffffffffffffffffff8d811660408301528c1660608201528a60808201528960a08201528860c082015261393760e082018973ffffffffffffffffffffffffffffffffffffffff169052565b73ffffffffffffffffffffffffffffffffffffffff871661010082015285610120820152846101408201528361016082015261397861018082018415159052565b6101c06101a082015260006139916101c0830184613899565b90509f9e505050505050505050505050505050565b6000602082840312156139b857600080fd5b6131878261340c565b6000602082840312156139d357600080fd5b8151613187816132cf565b600080604083850312156139f157600080fd5b82516139fc81613138565b6020939093015192949293505050565b600060208284031215613a1e57600080fd5b815161318781613138565b60005b83811015613a44578181015183820152602001613a2c565b50506000910152565b60008151808452613a65816020860160208601613a29565b601f017fffffffffffffffffffffffffffffffffffffffffffffffffffffffffffffffe0169290920160200192915050565b828152604060208201526000612c336040830184613a4d565b600060208284031215613ac257600080fd5b81517fffffffff000000000000000000000000000000000000000000000000000000008116811461318757600080fd5b600060208284031215613b0457600080fd5b5051919050565b80820281158282048414176107675761076761328d565b600082613b58577f4e487b7100000000000000000000000000000000000000000000000000000000600052601260045260246000fd5b500490565b60008251613b6f818460208701613a29565b9190910192915050565b6020815260006131876020830184613a4d56fea264697066735822122003fbb25ceba5f3fa0bd83b6d1e603cc98587a64201f44fb1ee232064d58798ab64736f6c63430008110033","opcodes":"PUSH1 0xC0 PUSH1 0x40 MSTORE CALLVALUE DUP1 ISZERO PUSH3 0x11 JUMPI PUSH1 0x0 DUP1 REVERT JUMPDEST POP PUSH1 0x40 MLOAD PUSH3 0x3E5F CODESIZE SUB DUP1 PUSH3 0x3E5F DUP4 CODECOPY DUP2 ADD PUSH1 0x40 DUP2 SWAP1 MSTORE PUSH3 0x34 SWAP2 PUSH3 0x1BE JUMP JUMPDEST PUSH1 0x1 PUSH1 0x0 SSTORE PUSH3 0x44 CALLER PUSH3 0x14F JUMP JUMPDEST PUSH1 0x40 DUP1 MLOAD PUSH32 0x8B73C3C69BB8FE3D512ECC4CF759CC79239F7B179B0FFACAA9A75D522B39400F PUSH1 0x20 DUP3 ADD MSTORE PUSH32 0x5C2E51296ADC65C422761A1EF052BFDFCDA1C13890D56B8AAEEB9B358ABFE854 SWAP2 DUP2 ADD SWAP2 SWAP1 SWAP2 MSTORE PUSH32 0xC89EFDAA54C0F20C7ADF612882DF0950F5A951637E0307CDCB4C672F298B8BC6 PUSH1 0x60 DUP3 ADD MSTORE CHAINID PUSH1 0x80 DUP3 ADD MSTORE ADDRESS PUSH1 0xA0 DUP3 ADD MSTORE PUSH1 0xC0 ADD PUSH1 0x40 DUP1 MLOAD DUP1 DUP4 SUB PUSH1 0x1F NOT ADD DUP2 MSTORE SWAP2 SWAP1 MSTORE DUP1 MLOAD PUSH1 0x20 SWAP1 SWAP2 ADD KECCAK256 PUSH1 0xA0 MSTORE PUSH1 0x3 DUP1 SLOAD PUSH1 0x1 PUSH1 0x1 PUSH1 0xA0 SHL SUB NOT SWAP1 DUP2 AND PUSH1 0x1 PUSH1 0x1 PUSH1 0xA0 SHL SUB SWAP9 DUP10 AND OR SWAP1 SWAP2 SSTORE PUSH1 0x4 DUP1 SLOAD DUP3 AND SWAP7 DUP9 AND SWAP7 SWAP1 SWAP7 OR SWAP1 SWAP6 SSTORE PUSH1 0x5 DUP1 SLOAD DUP7 AND SWAP5 DUP8 AND SWAP5 SWAP1 SWAP5 OR SWAP1 SWAP4 SSTORE PUSH1 0x6 DUP1 SLOAD DUP6 AND SWAP3 DUP7 AND SWAP3 SWAP1 SWAP3 OR SWAP1 SWAP2 SSTORE DUP4 AND PUSH1 0x80 MSTORE PUSH1 0x2 DUP1 SLOAD SWAP1 SWAP3 AND SWAP3 AND SWAP2 SWAP1 SWAP2 OR SWAP1 SSTORE PUSH3 0x23F JUMP JUMPDEST PUSH1 0x1 DUP1 SLOAD PUSH1 0x1 PUSH1 0x1 PUSH1 0xA0 SHL SUB DUP4 DUP2 AND PUSH1 0x1 PUSH1 0x1 PUSH1 0xA0 SHL SUB NOT DUP4 AND DUP2 OR SWAP1 SWAP4 SSTORE PUSH1 0x40 MLOAD SWAP2 AND SWAP2 SWAP1 DUP3 SWAP1 PUSH32 0x8BE0079C531659141344CD1FD0A4F28419497F9722A3DAAFE3B4186F6B6457E0 SWAP1 PUSH1 0x0 SWAP1 LOG3 POP POP JUMP JUMPDEST DUP1 MLOAD PUSH1 0x1 PUSH1 0x1 PUSH1 0xA0 SHL SUB DUP2 AND DUP2 EQ PUSH3 0x1B9 JUMPI PUSH1 0x0 DUP1 REVERT JUMPDEST SWAP2 SWAP1 POP JUMP JUMPDEST PUSH1 0x0 DUP1 PUSH1 0x0 DUP1 PUSH1 0x0 DUP1 PUSH1 0xC0 DUP8 DUP10 SUB SLT ISZERO PUSH3 0x1D8 JUMPI PUSH1 0x0 DUP1 REVERT JUMPDEST PUSH3 0x1E3 DUP8 PUSH3 0x1A1 JUMP JUMPDEST SWAP6 POP PUSH3 0x1F3 PUSH1 0x20 DUP9 ADD PUSH3 0x1A1 JUMP JUMPDEST SWAP5 POP PUSH3 0x203 PUSH1 0x40 DUP9 ADD PUSH3 0x1A1 JUMP JUMPDEST SWAP4 POP PUSH3 0x213 PUSH1 0x60 DUP9 ADD PUSH3 0x1A1 JUMP JUMPDEST SWAP3 POP PUSH3 0x223 PUSH1 0x80 DUP9 ADD PUSH3 0x1A1 JUMP JUMPDEST SWAP2 POP PUSH3 0x233 PUSH1 0xA0 DUP9 ADD PUSH3 0x1A1 JUMP JUMPDEST SWAP1 POP SWAP3 SWAP6 POP SWAP3 SWAP6 POP SWAP3 SWAP6 JUMP JUMPDEST PUSH1 0x80 MLOAD PUSH1 0xA0 MLOAD PUSH2 0x3BC2 PUSH3 0x29D PUSH1 0x0 CODECOPY PUSH1 0x0 DUP2 DUP2 PUSH2 0x288 ADD MSTORE PUSH2 0x1E03 ADD MSTORE PUSH1 0x0 DUP2 DUP2 PUSH2 0x3F6 ADD MSTORE DUP2 DUP2 PUSH2 0x1409 ADD MSTORE DUP2 DUP2 PUSH2 0x1591 ADD MSTORE DUP2 DUP2 PUSH2 0x162D ADD MSTORE DUP2 DUP2 PUSH2 0x26F8 ADD MSTORE DUP2 DUP2 PUSH2 0x281C ADD MSTORE DUP2 DUP2 PUSH2 0x28A1 ADD MSTORE PUSH2 0x29A5 ADD MSTORE PUSH2 0x3BC2 PUSH1 0x0 RETURN INVALID PUSH1 0x80 PUSH1 0x40 MSTORE PUSH1 0x4 CALLDATASIZE LT PUSH2 0x175 JUMPI PUSH1 0x0 CALLDATALOAD PUSH1 0xE0 SHR DUP1 PUSH4 0x9BBC6D88 GT PUSH2 0xCB JUMPI DUP1 PUSH4 0xBC6BC0CD GT PUSH2 0x7F JUMPI DUP1 PUSH4 0xEBF1DECC GT PUSH2 0x59 JUMPI DUP1 PUSH4 0xEBF1DECC EQ PUSH2 0x4BF JUMPI DUP1 PUSH4 0xEE295D62 EQ PUSH2 0x4EC JUMPI DUP1 PUSH4 0xF2FDE38B EQ PUSH2 0x519 JUMPI PUSH1 0x0 DUP1 REVERT JUMPDEST DUP1 PUSH4 0xBC6BC0CD EQ PUSH2 0x458 JUMPI DUP1 PUSH4 0xC8635077 EQ PUSH2 0x48C JUMPI DUP1 PUSH4 0xC8F93509 EQ PUSH2 0x49F JUMPI PUSH1 0x0 DUP1 REVERT JUMPDEST DUP1 PUSH4 0xAD5C4648 GT PUSH2 0xB0 JUMPI DUP1 PUSH4 0xAD5C4648 EQ PUSH2 0x3E4 JUMPI DUP1 PUSH4 0xB4B634C6 EQ PUSH2 0x418 JUMPI DUP1 PUSH4 0xB6CDF821 EQ PUSH2 0x438 JUMPI PUSH1 0x0 DUP1 REVERT JUMPDEST DUP1 PUSH4 0x9BBC6D88 EQ PUSH2 0x397 JUMPI DUP1 PUSH4 0xAA747D3A EQ PUSH2 0x3C4 JUMPI PUSH1 0x0 DUP1 REVERT JUMPDEST DUP1 PUSH4 0x3644E515 GT PUSH2 0x12D JUMPI DUP1 PUSH4 0x715018A6 GT PUSH2 0x107 JUMPI DUP1 PUSH4 0x715018A6 EQ PUSH2 0x32A JUMPI DUP1 PUSH4 0x8B655EE0 EQ PUSH2 0x33F JUMPI DUP1 PUSH4 0x8DA5CB5B EQ PUSH2 0x36C JUMPI PUSH1 0x0 DUP1 REVERT JUMPDEST DUP1 PUSH4 0x3644E515 EQ PUSH2 0x276 JUMPI DUP1 PUSH4 0x46EA2552 EQ PUSH2 0x2B8 JUMPI DUP1 PUSH4 0x6C01AD9C EQ PUSH2 0x30A JUMPI PUSH1 0x0 DUP1 REVERT JUMPDEST DUP1 PUSH4 0x31E27E27 GT PUSH2 0x15E JUMPI DUP1 PUSH4 0x31E27E27 EQ PUSH2 0x1BC JUMPI DUP1 PUSH4 0x32B941FD EQ PUSH2 0x1F1 JUMPI DUP1 PUSH4 0x33BF6156 EQ PUSH2 0x211 JUMPI PUSH1 0x0 DUP1 REVERT JUMPDEST DUP1 PUSH4 0x146FCE32 EQ PUSH2 0x17A JUMPI DUP1 PUSH4 0x2DD85AD9 EQ PUSH2 0x19C JUMPI JUMPDEST PUSH1 0x0 DUP1 REVERT JUMPDEST CALLVALUE DUP1 ISZERO PUSH2 0x186 JUMPI PUSH1 0x0 DUP1 REVERT JUMPDEST POP PUSH2 0x19A PUSH2 0x195 CALLDATASIZE PUSH1 0x4 PUSH2 0x311F JUMP JUMPDEST PUSH2 0x539 JUMP JUMPDEST STOP JUMPDEST CALLVALUE DUP1 ISZERO PUSH2 0x1A8 JUMPI PUSH1 0x0 DUP1 REVERT JUMPDEST POP PUSH2 0x19A PUSH2 0x1B7 CALLDATASIZE PUSH1 0x4 PUSH2 0x316A JUMP JUMPDEST PUSH2 0x63E JUMP JUMPDEST CALLVALUE DUP1 ISZERO PUSH2 0x1C8 JUMPI PUSH1 0x0 DUP1 REVERT JUMPDEST POP PUSH2 0x1DC PUSH2 0x1D7 CALLDATASIZE PUSH1 0x4 PUSH2 0x318E JUMP JUMPDEST PUSH2 0x732 JUMP JUMPDEST PUSH1 0x40 MLOAD SWAP1 ISZERO ISZERO DUP2 MSTORE PUSH1 0x20 ADD JUMPDEST PUSH1 0x40 MLOAD DUP1 SWAP2 SUB SWAP1 RETURN JUMPDEST CALLVALUE DUP1 ISZERO PUSH2 0x1FD JUMPI PUSH1 0x0 DUP1 REVERT JUMPDEST POP PUSH2 0x19A PUSH2 0x20C CALLDATASIZE PUSH1 0x4 PUSH2 0x31BA JUMP JUMPDEST PUSH2 0x76D JUMP JUMPDEST CALLVALUE DUP1 ISZERO PUSH2 0x21D JUMPI PUSH1 0x0 DUP1 REVERT JUMPDEST POP PUSH2 0x245 PUSH32 0xD9B67A2600000000000000000000000000000000000000000000000000000000 DUP2 JUMP JUMPDEST PUSH1 0x40 MLOAD PUSH32 0xFFFFFFFF00000000000000000000000000000000000000000000000000000000 SWAP1 SWAP2 AND DUP2 MSTORE PUSH1 0x20 ADD PUSH2 0x1E8 JUMP JUMPDEST CALLVALUE DUP1 ISZERO PUSH2 0x282 JUMPI PUSH1 0x0 DUP1 REVERT JUMPDEST POP PUSH2 0x2AA PUSH32 0x0 DUP2 JUMP JUMPDEST PUSH1 0x40 MLOAD SWAP1 DUP2 MSTORE PUSH1 0x20 ADD PUSH2 0x1E8 JUMP JUMPDEST CALLVALUE DUP1 ISZERO PUSH2 0x2C4 JUMPI PUSH1 0x0 DUP1 REVERT JUMPDEST POP PUSH1 0x6 SLOAD PUSH2 0x2E5 SWAP1 PUSH20 0xFFFFFFFFFFFFFFFFFFFFFFFFFFFFFFFFFFFFFFFF AND DUP2 JUMP JUMPDEST PUSH1 0x40 MLOAD PUSH20 0xFFFFFFFFFFFFFFFFFFFFFFFFFFFFFFFFFFFFFFFF SWAP1 SWAP2 AND DUP2 MSTORE PUSH1 0x20 ADD PUSH2 0x1E8 JUMP JUMPDEST CALLVALUE DUP1 ISZERO PUSH2 0x316 JUMPI PUSH1 0x0 DUP1 REVERT JUMPDEST POP PUSH2 0x19A PUSH2 0x325 CALLDATASIZE PUSH1 0x4 PUSH2 0x31BA JUMP JUMPDEST PUSH2 0xBB9 JUMP JUMPDEST CALLVALUE DUP1 ISZERO PUSH2 0x336 JUMPI PUSH1 0x0 DUP1 REVERT JUMPDEST POP PUSH2 0x19A PUSH2 0xFAA JUMP JUMPDEST CALLVALUE DUP1 ISZERO PUSH2 0x34B JUMPI PUSH1 0x0 DUP1 REVERT JUMPDEST POP PUSH1 0x2 SLOAD PUSH2 0x2E5 SWAP1 PUSH20 0xFFFFFFFFFFFFFFFFFFFFFFFFFFFFFFFFFFFFFFFF AND DUP2 JUMP JUMPDEST CALLVALUE DUP1 ISZERO PUSH2 0x378 JUMPI PUSH1 0x0 DUP1 REVERT JUMPDEST POP PUSH1 0x1 SLOAD PUSH20 0xFFFFFFFFFFFFFFFFFFFFFFFFFFFFFFFFFFFFFFFF AND PUSH2 0x2E5 JUMP JUMPDEST CALLVALUE DUP1 ISZERO PUSH2 0x3A3 JUMPI PUSH1 0x0 DUP1 REVERT JUMPDEST POP PUSH1 0x3 SLOAD PUSH2 0x2E5 SWAP1 PUSH20 0xFFFFFFFFFFFFFFFFFFFFFFFFFFFFFFFFFFFFFFFF AND DUP2 JUMP JUMPDEST CALLVALUE DUP1 ISZERO PUSH2 0x3D0 JUMPI PUSH1 0x0 DUP1 REVERT JUMPDEST POP PUSH2 0x19A PUSH2 0x3DF CALLDATASIZE PUSH1 0x4 PUSH2 0x3218 JUMP JUMPDEST PUSH2 0xFBE JUMP JUMPDEST CALLVALUE DUP1 ISZERO PUSH2 0x3F0 JUMPI PUSH1 0x0 DUP1 REVERT JUMPDEST POP PUSH2 0x2E5 PUSH32 0x0 DUP2 JUMP JUMPDEST CALLVALUE DUP1 ISZERO PUSH2 0x424 JUMPI PUSH1 0x0 DUP1 REVERT JUMPDEST POP PUSH2 0x19A PUSH2 0x433 CALLDATASIZE PUSH1 0x4 PUSH2 0x316A JUMP JUMPDEST PUSH2 0x1179 JUMP JUMPDEST CALLVALUE DUP1 ISZERO PUSH2 0x444 JUMPI PUSH1 0x0 DUP1 REVERT JUMPDEST POP PUSH2 0x19A PUSH2 0x453 CALLDATASIZE PUSH1 0x4 PUSH2 0x316A JUMP JUMPDEST PUSH2 0x126D JUMP JUMPDEST CALLVALUE DUP1 ISZERO PUSH2 0x464 JUMPI PUSH1 0x0 DUP1 REVERT JUMPDEST POP PUSH2 0x245 PUSH32 0x80AC58CD00000000000000000000000000000000000000000000000000000000 DUP2 JUMP JUMPDEST PUSH2 0x19A PUSH2 0x49A CALLDATASIZE PUSH1 0x4 PUSH2 0x31BA JUMP JUMPDEST PUSH2 0x1361 JUMP JUMPDEST CALLVALUE DUP1 ISZERO PUSH2 0x4AB JUMPI PUSH1 0x0 DUP1 REVERT JUMPDEST POP PUSH2 0x19A PUSH2 0x4BA CALLDATASIZE PUSH1 0x4 PUSH2 0x316A JUMP JUMPDEST PUSH2 0x187C JUMP JUMPDEST CALLVALUE DUP1 ISZERO PUSH2 0x4CB JUMPI PUSH1 0x0 DUP1 REVERT JUMPDEST POP PUSH1 0x4 SLOAD PUSH2 0x2E5 SWAP1 PUSH20 0xFFFFFFFFFFFFFFFFFFFFFFFFFFFFFFFFFFFFFFFF AND DUP2 JUMP JUMPDEST CALLVALUE DUP1 ISZERO PUSH2 0x4F8 JUMPI PUSH1 0x0 DUP1 REVERT JUMPDEST POP PUSH1 0x5 SLOAD PUSH2 0x2E5 SWAP1 PUSH20 0xFFFFFFFFFFFFFFFFFFFFFFFFFFFFFFFFFFFFFFFF AND DUP2 JUMP JUMPDEST CALLVALUE DUP1 ISZERO PUSH2 0x525 JUMPI PUSH1 0x0 DUP1 REVERT JUMPDEST POP PUSH2 0x19A PUSH2 0x534 CALLDATASIZE PUSH1 0x4 PUSH2 0x316A JUMP JUMPDEST PUSH2 0x1970 JUMP JUMPDEST CALLER PUSH1 0x0 SWAP1 DUP2 MSTORE PUSH1 0x7 PUSH1 0x20 MSTORE PUSH1 0x40 SWAP1 KECCAK256 SLOAD DUP2 GT PUSH2 0x590 JUMPI PUSH1 0x40 MLOAD PUSH32 0x8C379A000000000000000000000000000000000000000000000000000000000 DUP2 MSTORE PUSH1 0x20 PUSH1 0x4 DUP3 ADD MSTORE PUSH1 0x0 PUSH1 0x24 DUP3 ADD MSTORE PUSH1 0x44 ADD JUMPDEST PUSH1 0x40 MLOAD DUP1 SWAP2 SUB SWAP1 REVERT JUMPDEST CALLER PUSH1 0x0 SWAP1 DUP2 MSTORE PUSH1 0x7 PUSH1 0x20 MSTORE PUSH1 0x40 SWAP1 KECCAK256 SLOAD PUSH2 0x5AD SWAP1 PUSH3 0x7A120 PUSH2 0x32BC JUMP JUMPDEST DUP2 LT PUSH2 0x5EF JUMPI PUSH1 0x40 MLOAD PUSH32 0x8C379A000000000000000000000000000000000000000000000000000000000 DUP2 MSTORE PUSH1 0x20 PUSH1 0x4 DUP3 ADD MSTORE PUSH1 0x0 PUSH1 0x24 DUP3 ADD MSTORE PUSH1 0x44 ADD PUSH2 0x587 JUMP JUMPDEST CALLER PUSH1 0x0 DUP2 DUP2 MSTORE PUSH1 0x7 PUSH1 0x20 MSTORE PUSH1 0x40 SWAP1 DUP2 SWAP1 KECCAK256 DUP4 SWAP1 SSTORE MLOAD PUSH32 0x1E7178D84F0B0825C65795CD62E7972809AD3AAC6917843AAEC596161B2C0A97 SWAP1 PUSH2 0x633 SWAP1 DUP5 DUP2 MSTORE PUSH1 0x20 ADD SWAP1 JUMP JUMPDEST PUSH1 0x40 MLOAD DUP1 SWAP2 SUB SWAP1 LOG2 POP JUMP JUMPDEST PUSH2 0x646 PUSH2 0x1A27 JUMP JUMPDEST PUSH20 0xFFFFFFFFFFFFFFFFFFFFFFFFFFFFFFFFFFFFFFFF DUP2 AND PUSH2 0x6C3 JUMPI PUSH1 0x40 MLOAD PUSH32 0x8C379A000000000000000000000000000000000000000000000000000000000 DUP2 MSTORE PUSH1 0x20 PUSH1 0x4 DUP3 ADD MSTORE PUSH1 0x16 PUSH1 0x24 DUP3 ADD MSTORE PUSH32 0x43616E6E6F74206265206E756C6C206164647265737300000000000000000000 PUSH1 0x44 DUP3 ADD MSTORE PUSH1 0x64 ADD PUSH2 0x587 JUMP JUMPDEST PUSH1 0x6 DUP1 SLOAD PUSH32 0xFFFFFFFFFFFFFFFFFFFFFFFF0000000000000000000000000000000000000000 AND PUSH20 0xFFFFFFFFFFFFFFFFFFFFFFFFFFFFFFFFFFFFFFFF DUP4 AND SWAP1 DUP2 OR SWAP1 SWAP2 SSTORE PUSH1 0x40 MLOAD PUSH32 0xBB34FEE0D3BB7C602ECFE1C8BED62B67A720F718E0EAF72246D3457FCB25BE17 SWAP1 PUSH1 0x0 SWAP1 LOG2 POP JUMP JUMPDEST PUSH20 0xFFFFFFFFFFFFFFFFFFFFFFFFFFFFFFFFFFFFFFFF DUP3 AND PUSH1 0x0 SWAP1 DUP2 MSTORE PUSH1 0x8 PUSH1 0x20 SWAP1 DUP2 MSTORE PUSH1 0x40 DUP1 DUP4 KECCAK256 DUP5 DUP5 MSTORE SWAP1 SWAP2 MSTORE SWAP1 KECCAK256 SLOAD PUSH1 0xFF AND JUMPDEST SWAP3 SWAP2 POP POP JUMP JUMPDEST PUSH2 0x775 PUSH2 0x1AA8 JUMP JUMPDEST PUSH2 0x782 PUSH1 0x20 DUP3 ADD DUP3 PUSH2 0x32E8 JUMP JUMPDEST DUP1 ISZERO PUSH2 0x798 JUMPI POP PUSH2 0x796 PUSH1 0x20 DUP4 ADD DUP4 PUSH2 0x32E8 JUMP JUMPDEST ISZERO JUMPDEST PUSH2 0x7FE JUMPI PUSH1 0x40 MLOAD PUSH32 0x8C379A000000000000000000000000000000000000000000000000000000000 DUP2 MSTORE PUSH1 0x20 PUSH1 0x4 DUP3 ADD MSTORE PUSH1 0x1B PUSH1 0x24 DUP3 ADD MSTORE PUSH32 0x54686174206973207468652077726F6E6720617070726F6163682E0000000000 PUSH1 0x44 DUP3 ADD MSTORE PUSH1 0x64 ADD PUSH2 0x587 JUMP JUMPDEST PUSH2 0x80E PUSH1 0x40 DUP4 ADD PUSH1 0x20 DUP5 ADD PUSH2 0x316A JUMP JUMPDEST PUSH20 0xFFFFFFFFFFFFFFFFFFFFFFFFFFFFFFFFFFFFFFFF AND CALLER PUSH20 0xFFFFFFFFFFFFFFFFFFFFFFFFFFFFFFFFFFFFFFFF AND EQ PUSH2 0x87C JUMPI PUSH1 0x40 MLOAD PUSH32 0x8C379A000000000000000000000000000000000000000000000000000000000 DUP2 MSTORE PUSH1 0x20 PUSH1 0x4 DUP3 ADD MSTORE PUSH1 0x0 PUSH1 0x24 DUP3 ADD MSTORE PUSH1 0x44 ADD PUSH2 0x587 JUMP JUMPDEST PUSH1 0x0 PUSH2 0x88F PUSH2 0x88A DUP4 PUSH2 0x341D JUMP JUMPDEST PUSH2 0x1B1B JUMP JUMPDEST SWAP1 POP PUSH2 0x89B DUP3 DUP3 PUSH2 0x1BBC JUMP JUMPDEST PUSH1 0x0 DUP1 DUP1 PUSH2 0x8AF PUSH1 0xE0 DUP7 ADD PUSH1 0xC0 DUP8 ADD PUSH2 0x316A JUMP JUMPDEST PUSH20 0xFFFFFFFFFFFFFFFFFFFFFFFFFFFFFFFFFFFFFFFF AND PUSH4 0x14B14048 DUP8 DUP8 PUSH1 0x40 MLOAD DUP4 PUSH4 0xFFFFFFFF AND PUSH1 0xE0 SHL DUP2 MSTORE PUSH1 0x4 ADD PUSH2 0x8E9 SWAP3 SWAP2 SWAP1 PUSH2 0x35EE JUMP JUMPDEST PUSH1 0x60 PUSH1 0x40 MLOAD DUP1 DUP4 SUB DUP2 DUP7 GAS STATICCALL ISZERO DUP1 ISZERO PUSH2 0x906 JUMPI RETURNDATASIZE PUSH1 0x0 DUP1 RETURNDATACOPY RETURNDATASIZE PUSH1 0x0 REVERT JUMPDEST POP POP POP POP PUSH1 0x40 MLOAD RETURNDATASIZE PUSH1 0x1F NOT PUSH1 0x1F DUP3 ADD AND DUP3 ADD DUP1 PUSH1 0x40 MSTORE POP DUP2 ADD SWAP1 PUSH2 0x92A SWAP2 SWAP1 PUSH2 0x37D4 JUMP JUMPDEST SWAP3 POP SWAP3 POP SWAP3 POP DUP3 PUSH2 0x997 JUMPI PUSH1 0x40 MLOAD PUSH32 0x8C379A000000000000000000000000000000000000000000000000000000000 DUP2 MSTORE PUSH1 0x20 PUSH1 0x4 DUP3 ADD MSTORE PUSH1 0x11 PUSH1 0x24 DUP3 ADD MSTORE PUSH32 0x496E76616C6964205472616465204E6674000000000000000000000000000000 PUSH1 0x44 DUP3 ADD MSTORE PUSH1 0x64 ADD PUSH2 0x587 JUMP JUMPDEST PUSH1 0x1 PUSH1 0x8 PUSH1 0x0 PUSH2 0x9AD PUSH1 0x40 DUP10 ADD PUSH1 0x20 DUP11 ADD PUSH2 0x316A JUMP JUMPDEST PUSH20 0xFFFFFFFFFFFFFFFFFFFFFFFFFFFFFFFFFFFFFFFF AND DUP2 MSTORE PUSH1 0x20 DUP1 DUP3 ADD SWAP3 SWAP1 SWAP3 MSTORE PUSH1 0x40 SWAP1 DUP2 ADD PUSH1 0x0 SWAP1 DUP2 KECCAK256 PUSH2 0x100 DUP11 ADD CALLDATALOAD DUP3 MSTORE SWAP1 SWAP3 MSTORE SWAP1 KECCAK256 DUP1 SLOAD PUSH32 0xFFFFFFFFFFFFFFFFFFFFFFFFFFFFFFFFFFFFFFFFFFFFFFFFFFFFFFFFFFFFFF00 AND SWAP2 ISZERO ISZERO SWAP2 SWAP1 SWAP2 OR SWAP1 SSTORE PUSH2 0xA62 PUSH2 0xA25 PUSH1 0xE0 DUP8 ADD PUSH1 0xC0 DUP9 ADD PUSH2 0x316A JUMP JUMPDEST PUSH2 0xA35 PUSH1 0x60 DUP9 ADD PUSH1 0x40 DUP10 ADD PUSH2 0x316A JUMP JUMPDEST DUP5 PUSH2 0xA47 PUSH2 0x100 DUP11 ADD PUSH1 0xE0 DUP12 ADD PUSH2 0x316A JUMP JUMPDEST CALLER PUSH2 0xA58 PUSH1 0x40 DUP13 ADD PUSH1 0x20 DUP14 ADD PUSH2 0x316A JUMP JUMPDEST DUP13 PUSH1 0x40 ADD CALLDATALOAD PUSH2 0x20D0 JUMP JUMPDEST PUSH2 0xA9C PUSH2 0xA75 PUSH1 0x60 DUP8 ADD PUSH1 0x40 DUP9 ADD PUSH2 0x316A JUMP JUMPDEST PUSH2 0xA85 PUSH1 0x40 DUP9 ADD PUSH1 0x20 DUP10 ADD PUSH2 0x316A JUMP JUMPDEST PUSH2 0xA95 PUSH1 0x40 DUP11 ADD PUSH1 0x20 DUP12 ADD PUSH2 0x316A JUMP JUMPDEST DUP6 DUP6 PUSH2 0x238B JUMP JUMPDEST PUSH2 0xAAC PUSH1 0xE0 DUP7 ADD PUSH1 0xC0 DUP8 ADD PUSH2 0x316A JUMP JUMPDEST PUSH20 0xFFFFFFFFFFFFFFFFFFFFFFFFFFFFFFFFFFFFFFFF AND PUSH2 0xAD2 PUSH1 0x40 DUP8 ADD PUSH1 0x20 DUP9 ADD PUSH2 0x316A JUMP JUMPDEST PUSH20 0xFFFFFFFFFFFFFFFFFFFFFFFFFFFFFFFFFFFFFFFF AND PUSH2 0xAF8 PUSH1 0x40 DUP10 ADD PUSH1 0x20 DUP11 ADD PUSH2 0x316A JUMP JUMPDEST PUSH20 0xFFFFFFFFFFFFFFFFFFFFFFFFFFFFFFFFFFFFFFFF AND PUSH32 0x50D3C79A72ACF972E873EC1C16C55EECF26A8BB67B60B136DD0CA2E1C6565AD7 DUP8 PUSH2 0x100 DUP11 ADD DUP1 CALLDATALOAD SWAP1 PUSH2 0xB45 SWAP1 PUSH1 0xE0 DUP14 ADD PUSH2 0x316A JUMP JUMPDEST PUSH2 0xB55 PUSH1 0x60 DUP14 ADD PUSH1 0x40 DUP15 ADD PUSH2 0x316A JUMP JUMPDEST PUSH1 0x40 DUP1 MLOAD SWAP5 DUP6 MSTORE PUSH1 0x20 DUP6 ADD SWAP4 SWAP1 SWAP4 MSTORE PUSH20 0xFFFFFFFFFFFFFFFFFFFFFFFFFFFFFFFFFFFFFFFF SWAP2 DUP3 AND DUP5 DUP5 ADD MSTORE AND PUSH1 0x60 DUP4 ADD MSTORE PUSH1 0x80 DUP3 ADD DUP9 SWAP1 MSTORE PUSH1 0xA0 DUP3 ADD DUP8 SWAP1 MSTORE DUP12 ADD CALLDATALOAD PUSH1 0xC0 DUP3 ADD MSTORE PUSH1 0xE0 ADD PUSH1 0x40 MLOAD DUP1 SWAP2 SUB SWAP1 LOG4 POP POP POP POP PUSH2 0xBB5 PUSH1 0x1 PUSH1 0x0 SSTORE JUMP JUMPDEST POP POP JUMP JUMPDEST PUSH2 0xBC1 PUSH2 0x1AA8 JUMP JUMPDEST PUSH2 0xBCE PUSH1 0x20 DUP3 ADD DUP3 PUSH2 0x32E8 JUMP JUMPDEST ISZERO DUP1 ISZERO PUSH2 0xBE3 JUMPI POP PUSH2 0xBE3 PUSH1 0x20 DUP4 ADD DUP4 PUSH2 0x32E8 JUMP JUMPDEST PUSH2 0xC49 JUMPI PUSH1 0x40 MLOAD PUSH32 0x8C379A000000000000000000000000000000000000000000000000000000000 DUP2 MSTORE PUSH1 0x20 PUSH1 0x4 DUP3 ADD MSTORE PUSH1 0x1B PUSH1 0x24 DUP3 ADD MSTORE PUSH32 0x54686174206973207468652077726F6E6720617070726F6163682E0000000000 PUSH1 0x44 DUP3 ADD MSTORE PUSH1 0x64 ADD PUSH2 0x587 JUMP JUMPDEST PUSH2 0xC59 PUSH1 0x40 DUP4 ADD PUSH1 0x20 DUP5 ADD PUSH2 0x316A JUMP JUMPDEST PUSH20 0xFFFFFFFFFFFFFFFFFFFFFFFFFFFFFFFFFFFFFFFF AND CALLER PUSH20 0xFFFFFFFFFFFFFFFFFFFFFFFFFFFFFFFFFFFFFFFF AND EQ PUSH2 0xCED JUMPI PUSH1 0x40 MLOAD PUSH32 0x8C379A000000000000000000000000000000000000000000000000000000000 DUP2 MSTORE PUSH1 0x20 PUSH1 0x4 DUP3 ADD MSTORE PUSH1 0x14 PUSH1 0x24 DUP3 ADD MSTORE PUSH32 0x54616B6572206D7573742062652073656E646572000000000000000000000000 PUSH1 0x44 DUP3 ADD MSTORE PUSH1 0x64 ADD PUSH2 0x587 JUMP JUMPDEST PUSH1 0x0 PUSH2 0xCFB PUSH2 0x88A DUP4 PUSH2 0x341D JUMP JUMPDEST SWAP1 POP PUSH2 0xD07 DUP3 DUP3 PUSH2 0x1BBC JUMP JUMPDEST PUSH1 0x0 DUP1 DUP1 PUSH2 0xD1B PUSH1 0xE0 DUP7 ADD PUSH1 0xC0 DUP8 ADD PUSH2 0x316A JUMP JUMPDEST PUSH20 0xFFFFFFFFFFFFFFFFFFFFFFFFFFFFFFFFFFFFFFFF AND PUSH4 0xB6B132A DUP8 DUP8 PUSH1 0x40 MLOAD DUP4 PUSH4 0xFFFFFFFF AND PUSH1 0xE0 SHL DUP2 MSTORE PUSH1 0x4 ADD PUSH2 0xD55 SWAP3 SWAP2 SWAP1 PUSH2 0x35EE JUMP JUMPDEST PUSH1 0x60 PUSH1 0x40 MLOAD DUP1 DUP4 SUB DUP2 DUP7 GAS STATICCALL ISZERO DUP1 ISZERO PUSH2 0xD72 JUMPI RETURNDATASIZE PUSH1 0x0 DUP1 RETURNDATACOPY RETURNDATASIZE PUSH1 0x0 REVERT JUMPDEST POP POP POP POP PUSH1 0x40 MLOAD RETURNDATASIZE PUSH1 0x1F NOT PUSH1 0x1F DUP3 ADD AND DUP3 ADD DUP1 PUSH1 0x40 MSTORE POP DUP2 ADD SWAP1 PUSH2 0xD96 SWAP2 SWAP1 PUSH2 0x37D4 JUMP JUMPDEST SWAP3 POP SWAP3 POP SWAP3 POP DUP3 PUSH2 0xE03 JUMPI PUSH1 0x40 MLOAD PUSH32 0x8C379A000000000000000000000000000000000000000000000000000000000 DUP2 MSTORE PUSH1 0x20 PUSH1 0x4 DUP3 ADD MSTORE PUSH1 0x11 PUSH1 0x24 DUP3 ADD MSTORE PUSH32 0x496E76616C6964205472616465204E6674000000000000000000000000000000 PUSH1 0x44 DUP3 ADD MSTORE PUSH1 0x64 ADD PUSH2 0x587 JUMP JUMPDEST PUSH1 0x1 PUSH1 0x8 PUSH1 0x0 PUSH2 0xE19 PUSH1 0x40 DUP10 ADD PUSH1 0x20 DUP11 ADD PUSH2 0x316A JUMP JUMPDEST PUSH20 0xFFFFFFFFFFFFFFFFFFFFFFFFFFFFFFFFFFFFFFFF AND DUP2 MSTORE PUSH1 0x20 DUP1 DUP3 ADD SWAP3 SWAP1 SWAP3 MSTORE PUSH1 0x40 SWAP1 DUP2 ADD PUSH1 0x0 SWAP1 DUP2 KECCAK256 PUSH2 0x100 DUP11 ADD CALLDATALOAD DUP3 MSTORE SWAP1 SWAP3 MSTORE SWAP1 DUP2 SWAP1 KECCAK256 DUP1 SLOAD PUSH32 0xFFFFFFFFFFFFFFFFFFFFFFFFFFFFFFFFFFFFFFFFFFFFFFFFFFFFFFFFFFFFFF00 AND SWAP3 ISZERO ISZERO SWAP3 SWAP1 SWAP3 OR SWAP1 SWAP2 SSTORE PUSH2 0xEA6 SWAP1 PUSH2 0xE95 SWAP1 PUSH1 0x60 DUP9 ADD SWAP1 DUP9 ADD PUSH2 0x316A JUMP JUMPDEST CALLER PUSH2 0xA95 PUSH1 0x40 DUP10 ADD PUSH1 0x20 DUP11 ADD PUSH2 0x316A JUMP JUMPDEST PUSH2 0xF01 PUSH2 0xEB9 PUSH1 0xE0 DUP8 ADD PUSH1 0xC0 DUP9 ADD PUSH2 0x316A JUMP JUMPDEST PUSH2 0xEC9 PUSH1 0x60 DUP9 ADD PUSH1 0x40 DUP10 ADD PUSH2 0x316A JUMP JUMPDEST DUP5 PUSH2 0xEDB PUSH2 0x100 DUP11 ADD PUSH1 0xE0 DUP12 ADD PUSH2 0x316A JUMP JUMPDEST PUSH2 0xEEB PUSH1 0x40 DUP12 ADD PUSH1 0x20 DUP13 ADD PUSH2 0x316A JUMP JUMPDEST PUSH2 0xEFB PUSH1 0x40 DUP14 ADD PUSH1 0x20 DUP15 ADD PUSH2 0x316A JUMP JUMPDEST DUP8 PUSH2 0x20D0 JUMP JUMPDEST PUSH2 0xF11 PUSH1 0xE0 DUP7 ADD PUSH1 0xC0 DUP8 ADD PUSH2 0x316A JUMP JUMPDEST PUSH20 0xFFFFFFFFFFFFFFFFFFFFFFFFFFFFFFFFFFFFFFFF AND PUSH2 0xF37 PUSH1 0x40 DUP8 ADD PUSH1 0x20 DUP9 ADD PUSH2 0x316A JUMP JUMPDEST PUSH20 0xFFFFFFFFFFFFFFFFFFFFFFFFFFFFFFFFFFFFFFFF AND PUSH2 0xF5D PUSH1 0x40 DUP10 ADD PUSH1 0x20 DUP11 ADD PUSH2 0x316A JUMP JUMPDEST PUSH20 0xFFFFFFFFFFFFFFFFFFFFFFFFFFFFFFFFFFFFFFFF AND PUSH32 0x8CE1A009C26EECC60E31B457E624E94F61C3D5F4149F76E8F43F73EBC27B9300 DUP8 PUSH2 0x100 DUP11 ADD DUP1 CALLDATALOAD SWAP1 PUSH2 0xB45 SWAP1 PUSH1 0xE0 DUP14 ADD PUSH2 0x316A JUMP JUMPDEST PUSH2 0xFB2 PUSH2 0x1A27 JUMP JUMPDEST PUSH2 0xFBC PUSH1 0x0 PUSH2 0x2546 JUMP JUMPDEST JUMP JUMPDEST DUP1 PUSH2 0x1025 JUMPI PUSH1 0x40 MLOAD PUSH32 0x8C379A000000000000000000000000000000000000000000000000000000000 DUP2 MSTORE PUSH1 0x20 PUSH1 0x4 DUP3 ADD MSTORE PUSH1 0x19 PUSH1 0x24 DUP3 ADD MSTORE PUSH32 0x4174206C65617374206F6E652069732072657175697265642E00000000000000 PUSH1 0x44 DUP3 ADD MSTORE PUSH1 0x64 ADD PUSH2 0x587 JUMP JUMPDEST PUSH1 0x0 JUMPDEST DUP2 DUP2 LT ISZERO PUSH2 0x1124 JUMPI CALLER PUSH1 0x0 SWAP1 DUP2 MSTORE PUSH1 0x7 PUSH1 0x20 MSTORE PUSH1 0x40 SWAP1 KECCAK256 SLOAD DUP4 DUP4 DUP4 DUP2 DUP2 LT PUSH2 0x1052 JUMPI PUSH2 0x1052 PUSH2 0x380B JUMP JUMPDEST SWAP1 POP PUSH1 0x20 MUL ADD CALLDATALOAD LT ISZERO PUSH2 0x10C1 JUMPI PUSH1 0x40 MLOAD PUSH32 0x8C379A000000000000000000000000000000000000000000000000000000000 DUP2 MSTORE PUSH1 0x20 PUSH1 0x4 DUP3 ADD MSTORE PUSH1 0x18 PUSH1 0x24 DUP3 ADD MSTORE PUSH32 0x4E6F6E6365206C6F776572207468616E2063757272656E740000000000000000 PUSH1 0x44 DUP3 ADD MSTORE PUSH1 0x64 ADD PUSH2 0x587 JUMP JUMPDEST CALLER PUSH1 0x0 SWAP1 DUP2 MSTORE PUSH1 0x8 PUSH1 0x20 MSTORE PUSH1 0x40 DUP2 KECCAK256 PUSH1 0x1 SWAP2 DUP6 DUP6 DUP6 DUP2 DUP2 LT PUSH2 0x10E5 JUMPI PUSH2 0x10E5 PUSH2 0x380B JUMP JUMPDEST SWAP1 POP PUSH1 0x20 MUL ADD CALLDATALOAD DUP2 MSTORE PUSH1 0x20 ADD SWAP1 DUP2 MSTORE PUSH1 0x20 ADD PUSH1 0x0 KECCAK256 PUSH1 0x0 PUSH2 0x100 EXP DUP2 SLOAD DUP2 PUSH1 0xFF MUL NOT AND SWAP1 DUP4 ISZERO ISZERO MUL OR SWAP1 SSTORE POP DUP1 DUP1 PUSH2 0x111C SWAP1 PUSH2 0x383A JUMP JUMPDEST SWAP2 POP POP PUSH2 0x1028 JUMP JUMPDEST POP CALLER PUSH20 0xFFFFFFFFFFFFFFFFFFFFFFFFFFFFFFFFFFFFFFFF AND PUSH32 0xFA0AE5D80FE3763C880A3839FAB0294171A6F730D1F82C4CD5392C6F67B41732 DUP4 DUP4 PUSH1 0x40 MLOAD PUSH2 0x116D SWAP3 SWAP2 SWAP1 PUSH2 0x3872 JUMP JUMPDEST PUSH1 0x40 MLOAD DUP1 SWAP2 SUB SWAP1 LOG2 POP POP JUMP JUMPDEST PUSH2 0x1181 PUSH2 0x1A27 JUMP JUMPDEST PUSH20 0xFFFFFFFFFFFFFFFFFFFFFFFFFFFFFFFFFFFFFFFF DUP2 AND PUSH2 0x11FE JUMPI PUSH1 0x40 MLOAD PUSH32 0x8C379A000000000000000000000000000000000000000000000000000000000 DUP2 MSTORE PUSH1 0x20 PUSH1 0x4 DUP3 ADD MSTORE PUSH1 0x16 PUSH1 0x24 DUP3 ADD MSTORE PUSH32 0x43616E6E6F74206265206E756C6C206164647265737300000000000000000000 PUSH1 0x44 DUP3 ADD MSTORE PUSH1 0x64 ADD PUSH2 0x587 JUMP JUMPDEST PUSH1 0x3 DUP1 SLOAD PUSH32 0xFFFFFFFFFFFFFFFFFFFFFFFF0000000000000000000000000000000000000000 AND PUSH20 0xFFFFFFFFFFFFFFFFFFFFFFFFFFFFFFFFFFFFFFFF DUP4 AND SWAP1 DUP2 OR SWAP1 SWAP2 SSTORE PUSH1 0x40 MLOAD PUSH32 0x2C3E29F8B5D22D1CFA8497A6C45621ED49F95178416C7EF3EE1C2193C8812EB4 SWAP1 PUSH1 0x0 SWAP1 LOG2 POP JUMP JUMPDEST PUSH2 0x1275 PUSH2 0x1A27 JUMP JUMPDEST PUSH20 0xFFFFFFFFFFFFFFFFFFFFFFFFFFFFFFFFFFFFFFFF DUP2 AND PUSH2 0x12F2 JUMPI PUSH1 0x40 MLOAD PUSH32 0x8C379A000000000000000000000000000000000000000000000000000000000 DUP2 MSTORE PUSH1 0x20 PUSH1 0x4 DUP3 ADD MSTORE PUSH1 0x16 PUSH1 0x24 DUP3 ADD MSTORE PUSH32 0x43616E6E6F74206265206E756C6C206164647265737300000000000000000000 PUSH1 0x44 DUP3 ADD MSTORE PUSH1 0x64 ADD PUSH2 0x587 JUMP JUMPDEST PUSH1 0x4 DUP1 SLOAD PUSH32 0xFFFFFFFFFFFFFFFFFFFFFFFF0000000000000000000000000000000000000000 AND PUSH20 0xFFFFFFFFFFFFFFFFFFFFFFFFFFFFFFFFFFFFFFFF DUP4 AND SWAP1 DUP2 OR SWAP1 SWAP2 SSTORE PUSH1 0x40 MLOAD PUSH32 0x418A3785AC5FD0D0B92E92D1E814233310678C13B024A3741D41C6DB3C803FC3 SWAP1 PUSH1 0x0 SWAP1 LOG2 POP JUMP JUMPDEST PUSH2 0x1369 PUSH2 0x1AA8 JUMP JUMPDEST PUSH2 0x1376 PUSH1 0x20 DUP3 ADD DUP3 PUSH2 0x32E8 JUMP JUMPDEST DUP1 ISZERO PUSH2 0x138C JUMPI POP PUSH2 0x138A PUSH1 0x20 DUP4 ADD DUP4 PUSH2 0x32E8 JUMP JUMPDEST ISZERO JUMPDEST PUSH2 0x13F2 JUMPI PUSH1 0x40 MLOAD PUSH32 0x8C379A000000000000000000000000000000000000000000000000000000000 DUP2 MSTORE PUSH1 0x20 PUSH1 0x4 DUP3 ADD MSTORE PUSH1 0x1B PUSH1 0x24 DUP3 ADD MSTORE PUSH32 0x54686174206973207468652077726F6E6720617070726F6163682E0000000000 PUSH1 0x44 DUP3 ADD MSTORE PUSH1 0x64 ADD PUSH2 0x587 JUMP JUMPDEST PUSH20 0xFFFFFFFFFFFFFFFFFFFFFFFFFFFFFFFFFFFFFFFF PUSH32 0x0 AND PUSH2 0x143A PUSH2 0x100 DUP4 ADD PUSH1 0xE0 DUP5 ADD PUSH2 0x316A JUMP JUMPDEST PUSH20 0xFFFFFFFFFFFFFFFFFFFFFFFFFFFFFFFFFFFFFFFF AND EQ PUSH2 0x14B7 JUMPI PUSH1 0x40 MLOAD PUSH32 0x8C379A000000000000000000000000000000000000000000000000000000000 DUP2 MSTORE PUSH1 0x20 PUSH1 0x4 DUP3 ADD MSTORE PUSH1 0x12 PUSH1 0x24 DUP3 ADD MSTORE PUSH32 0x556E737570706F7274656420746F6B656E2E0000000000000000000000000000 PUSH1 0x44 DUP3 ADD MSTORE PUSH1 0x64 ADD PUSH2 0x587 JUMP JUMPDEST PUSH2 0x14C7 PUSH1 0x40 DUP4 ADD PUSH1 0x20 DUP5 ADD PUSH2 0x316A JUMP JUMPDEST PUSH20 0xFFFFFFFFFFFFFFFFFFFFFFFFFFFFFFFFFFFFFFFF AND CALLER PUSH20 0xFFFFFFFFFFFFFFFFFFFFFFFFFFFFFFFFFFFFFFFF AND EQ PUSH2 0x155B JUMPI PUSH1 0x40 MLOAD PUSH32 0x8C379A000000000000000000000000000000000000000000000000000000000 DUP2 MSTORE PUSH1 0x20 PUSH1 0x4 DUP3 ADD MSTORE PUSH1 0x15 PUSH1 0x24 DUP3 ADD MSTORE PUSH32 0x436C69656E74206D7573742062652073656E6465720000000000000000000000 PUSH1 0x44 DUP3 ADD MSTORE PUSH1 0x64 ADD PUSH2 0x587 JUMP JUMPDEST CALLVALUE DUP3 PUSH1 0x40 ADD CALLDATALOAD GT ISZERO PUSH2 0x15BE JUMPI PUSH2 0x15B9 CALLER ADDRESS PUSH2 0x157A CALLVALUE PUSH1 0x40 DUP8 ADD CALLDATALOAD PUSH2 0x3886 JUMP JUMPDEST PUSH20 0xFFFFFFFFFFFFFFFFFFFFFFFFFFFFFFFFFFFFFFFF PUSH32 0x0 AND SWAP3 SWAP2 SWAP1 PUSH2 0x25BD JUMP JUMPDEST PUSH2 0x162B JUMP JUMPDEST CALLVALUE DUP3 PUSH1 0x40 ADD CALLDATALOAD EQ PUSH2 0x162B JUMPI PUSH1 0x40 MLOAD PUSH32 0x8C379A000000000000000000000000000000000000000000000000000000000 DUP2 MSTORE PUSH1 0x20 PUSH1 0x4 DUP3 ADD MSTORE PUSH1 0xD PUSH1 0x24 DUP3 ADD MSTORE PUSH32 0x546F6F204869676820436F696E00000000000000000000000000000000000000 PUSH1 0x44 DUP3 ADD MSTORE PUSH1 0x64 ADD PUSH2 0x587 JUMP JUMPDEST PUSH32 0x0 PUSH20 0xFFFFFFFFFFFFFFFFFFFFFFFFFFFFFFFFFFFFFFFF AND PUSH4 0xD0E30DB0 CALLVALUE PUSH1 0x40 MLOAD DUP3 PUSH4 0xFFFFFFFF AND PUSH1 0xE0 SHL DUP2 MSTORE PUSH1 0x4 ADD PUSH1 0x0 PUSH1 0x40 MLOAD DUP1 DUP4 SUB DUP2 DUP6 DUP9 DUP1 EXTCODESIZE ISZERO DUP1 ISZERO PUSH2 0x1693 JUMPI PUSH1 0x0 DUP1 REVERT JUMPDEST POP GAS CALL ISZERO DUP1 ISZERO PUSH2 0x16A7 JUMPI RETURNDATASIZE PUSH1 0x0 DUP1 RETURNDATACOPY RETURNDATASIZE PUSH1 0x0 REVERT JUMPDEST POP POP POP POP POP PUSH1 0x0 PUSH2 0x16BB DUP3 PUSH2 0x88A SWAP1 PUSH2 0x341D JUMP JUMPDEST SWAP1 POP PUSH2 0x16C7 DUP3 DUP3 PUSH2 0x1BBC JUMP JUMPDEST PUSH1 0x0 DUP1 DUP1 PUSH2 0x16DB PUSH1 0xE0 DUP7 ADD PUSH1 0xC0 DUP8 ADD PUSH2 0x316A JUMP JUMPDEST PUSH20 0xFFFFFFFFFFFFFFFFFFFFFFFFFFFFFFFFFFFFFFFF AND PUSH4 0x14B14048 DUP8 DUP8 PUSH1 0x40 MLOAD DUP4 PUSH4 0xFFFFFFFF AND PUSH1 0xE0 SHL DUP2 MSTORE PUSH1 0x4 ADD PUSH2 0x1715 SWAP3 SWAP2 SWAP1 PUSH2 0x35EE JUMP JUMPDEST PUSH1 0x60 PUSH1 0x40 MLOAD DUP1 DUP4 SUB DUP2 DUP7 GAS STATICCALL ISZERO DUP1 ISZERO PUSH2 0x1732 JUMPI RETURNDATASIZE PUSH1 0x0 DUP1 RETURNDATACOPY RETURNDATASIZE PUSH1 0x0 REVERT JUMPDEST POP POP POP POP PUSH1 0x40 MLOAD RETURNDATASIZE PUSH1 0x1F NOT PUSH1 0x1F DUP3 ADD AND DUP3 ADD DUP1 PUSH1 0x40 MSTORE POP DUP2 ADD SWAP1 PUSH2 0x1756 SWAP2 SWAP1 PUSH2 0x37D4 JUMP JUMPDEST SWAP3 POP SWAP3 POP SWAP3 POP DUP3 PUSH2 0x17C3 JUMPI PUSH1 0x40 MLOAD PUSH32 0x8C379A000000000000000000000000000000000000000000000000000000000 DUP2 MSTORE PUSH1 0x20 PUSH1 0x4 DUP3 ADD MSTORE PUSH1 0x11 PUSH1 0x24 DUP3 ADD MSTORE PUSH32 0x496E76616C6964205472616465204E6674000000000000000000000000000000 PUSH1 0x44 DUP3 ADD MSTORE PUSH1 0x64 ADD PUSH2 0x587 JUMP JUMPDEST PUSH1 0x1 PUSH1 0x8 PUSH1 0x0 PUSH2 0x17D9 PUSH1 0x40 DUP10 ADD PUSH1 0x20 DUP11 ADD PUSH2 0x316A JUMP JUMPDEST PUSH20 0xFFFFFFFFFFFFFFFFFFFFFFFFFFFFFFFFFFFFFFFF AND DUP2 MSTORE PUSH1 0x20 DUP1 DUP3 ADD SWAP3 SWAP1 SWAP3 MSTORE PUSH1 0x40 SWAP1 DUP2 ADD PUSH1 0x0 SWAP1 DUP2 KECCAK256 PUSH2 0x100 DUP11 ADD CALLDATALOAD DUP3 MSTORE SWAP1 SWAP3 MSTORE SWAP1 KECCAK256 DUP1 SLOAD PUSH32 0xFFFFFFFFFFFFFFFFFFFFFFFFFFFFFFFFFFFFFFFFFFFFFFFFFFFFFFFFFFFFFF00 AND SWAP2 ISZERO ISZERO SWAP2 SWAP1 SWAP2 OR SWAP1 SSTORE PUSH2 0xA62 PUSH2 0x1851 PUSH1 0xE0 DUP8 ADD PUSH1 0xC0 DUP9 ADD PUSH2 0x316A JUMP JUMPDEST PUSH2 0x1861 PUSH1 0x60 DUP9 ADD PUSH1 0x40 DUP10 ADD PUSH2 0x316A JUMP JUMPDEST DUP5 PUSH2 0x1872 PUSH1 0x40 DUP11 ADD PUSH1 0x20 DUP12 ADD PUSH2 0x316A JUMP JUMPDEST DUP11 PUSH1 0x40 ADD CALLDATALOAD PUSH2 0x269F JUMP JUMPDEST PUSH2 0x1884 PUSH2 0x1A27 JUMP JUMPDEST PUSH20 0xFFFFFFFFFFFFFFFFFFFFFFFFFFFFFFFFFFFFFFFF DUP2 AND PUSH2 0x1901 JUMPI PUSH1 0x40 MLOAD PUSH32 0x8C379A000000000000000000000000000000000000000000000000000000000 DUP2 MSTORE PUSH1 0x20 PUSH1 0x4 DUP3 ADD MSTORE PUSH1 0x16 PUSH1 0x24 DUP3 ADD MSTORE PUSH32 0x43616E6E6F74206265206E756C6C206164647265737300000000000000000000 PUSH1 0x44 DUP3 ADD MSTORE PUSH1 0x64 ADD PUSH2 0x587 JUMP JUMPDEST PUSH1 0x5 DUP1 SLOAD PUSH32 0xFFFFFFFFFFFFFFFFFFFFFFFF0000000000000000000000000000000000000000 AND PUSH20 0xFFFFFFFFFFFFFFFFFFFFFFFFFFFFFFFFFFFFFFFF DUP4 AND SWAP1 DUP2 OR SWAP1 SWAP2 SSTORE PUSH1 0x40 MLOAD PUSH32 0x23E4135208439EE9F05D104DAF57025AC32A6842326405D76852F0434085E933 SWAP1 PUSH1 0x0 SWAP1 LOG2 POP JUMP JUMPDEST PUSH2 0x1978 PUSH2 0x1A27 JUMP JUMPDEST PUSH20 0xFFFFFFFFFFFFFFFFFFFFFFFFFFFFFFFFFFFFFFFF DUP2 AND PUSH2 0x1A1B JUMPI PUSH1 0x40 MLOAD PUSH32 0x8C379A000000000000000000000000000000000000000000000000000000000 DUP2 MSTORE PUSH1 0x20 PUSH1 0x4 DUP3 ADD MSTORE PUSH1 0x26 PUSH1 0x24 DUP3 ADD MSTORE PUSH32 0x4F776E61626C653A206E6577206F776E657220697320746865207A65726F2061 PUSH1 0x44 DUP3 ADD MSTORE PUSH32 0x6464726573730000000000000000000000000000000000000000000000000000 PUSH1 0x64 DUP3 ADD MSTORE PUSH1 0x84 ADD PUSH2 0x587 JUMP JUMPDEST PUSH2 0x1A24 DUP2 PUSH2 0x2546 JUMP JUMPDEST POP JUMP JUMPDEST PUSH1 0x1 SLOAD PUSH20 0xFFFFFFFFFFFFFFFFFFFFFFFFFFFFFFFFFFFFFFFF AND CALLER EQ PUSH2 0xFBC JUMPI PUSH1 0x40 MLOAD PUSH32 0x8C379A000000000000000000000000000000000000000000000000000000000 DUP2 MSTORE PUSH1 0x20 PUSH1 0x4 DUP3 ADD DUP2 SWAP1 MSTORE PUSH1 0x24 DUP3 ADD MSTORE PUSH32 0x4F776E61626C653A2063616C6C6572206973206E6F7420746865206F776E6572 PUSH1 0x44 DUP3 ADD MSTORE PUSH1 0x64 ADD PUSH2 0x587 JUMP JUMPDEST PUSH1 0x2 PUSH1 0x0 SLOAD SUB PUSH2 0x1B14 JUMPI PUSH1 0x40 MLOAD PUSH32 0x8C379A000000000000000000000000000000000000000000000000000000000 DUP2 MSTORE PUSH1 0x20 PUSH1 0x4 DUP3 ADD MSTORE PUSH1 0x1F PUSH1 0x24 DUP3 ADD MSTORE PUSH32 0x5265656E7472616E637947756172643A207265656E7472616E742063616C6C00 PUSH1 0x44 DUP3 ADD MSTORE PUSH1 0x64 ADD PUSH2 0x587 JUMP JUMPDEST PUSH1 0x2 PUSH1 0x0 SSTORE JUMP JUMPDEST DUP1 MLOAD PUSH1 0x20 DUP1 DUP4 ADD MLOAD PUSH1 0x40 DUP1 DUP6 ADD MLOAD PUSH1 0x60 DUP7 ADD MLOAD PUSH1 0x80 DUP8 ADD MLOAD PUSH1 0xA0 DUP9 ADD MLOAD PUSH1 0xC0 DUP10 ADD MLOAD PUSH1 0xE0 DUP11 ADD MLOAD PUSH2 0x100 DUP12 ADD MLOAD PUSH2 0x120 DUP13 ADD MLOAD PUSH2 0x140 DUP14 ADD MLOAD PUSH2 0x160 DUP15 ADD MLOAD PUSH2 0x180 DUP16 ADD MLOAD SWAP11 MLOAD PUSH1 0x0 SWAP15 PUSH2 0x1B9F SWAP15 PUSH32 0x1BB1B70D1589D811D0EA870CCB0DA21DC9F4A701E3B41A486BB9489901024CB0 SWAP15 SWAP2 SWAP14 SWAP2 SWAP13 SWAP12 SWAP11 SWAP10 SWAP9 SWAP8 SWAP7 SWAP6 SWAP5 SWAP4 SWAP3 ADD PUSH2 0x38D4 JUMP JUMPDEST PUSH1 0x40 MLOAD PUSH1 0x20 DUP2 DUP4 SUB SUB DUP2 MSTORE SWAP1 PUSH1 0x40 MSTORE DUP1 MLOAD SWAP1 PUSH1 0x20 ADD KECCAK256 SWAP1 POP SWAP2 SWAP1 POP JUMP JUMPDEST PUSH1 0x8 PUSH1 0x0 PUSH2 0x1BD0 PUSH1 0x40 DUP6 ADD PUSH1 0x20 DUP7 ADD PUSH2 0x316A JUMP JUMPDEST PUSH20 0xFFFFFFFFFFFFFFFFFFFFFFFFFFFFFFFFFFFFFFFF AND DUP2 MSTORE PUSH1 0x20 DUP1 DUP3 ADD SWAP3 SWAP1 SWAP3 MSTORE PUSH1 0x40 SWAP1 DUP2 ADD PUSH1 0x0 SWAP1 DUP2 KECCAK256 PUSH2 0x100 DUP7 ADD CALLDATALOAD DUP3 MSTORE SWAP1 SWAP3 MSTORE SWAP1 KECCAK256 SLOAD PUSH1 0xFF AND ISZERO DUP1 ISZERO PUSH2 0x1C6C JUMPI POP PUSH1 0x7 PUSH1 0x0 PUSH2 0x1C28 PUSH1 0x40 DUP6 ADD PUSH1 0x20 DUP7 ADD PUSH2 0x316A JUMP JUMPDEST PUSH20 0xFFFFFFFFFFFFFFFFFFFFFFFFFFFFFFFFFFFFFFFF AND PUSH20 0xFFFFFFFFFFFFFFFFFFFFFFFFFFFFFFFFFFFFFFFF AND DUP2 MSTORE PUSH1 0x20 ADD SWAP1 DUP2 MSTORE PUSH1 0x20 ADD PUSH1 0x0 KECCAK256 SLOAD DUP3 PUSH2 0x100 ADD CALLDATALOAD LT ISZERO JUMPDEST PUSH2 0x1CD2 JUMPI PUSH1 0x40 MLOAD PUSH32 0x8C379A000000000000000000000000000000000000000000000000000000000 DUP2 MSTORE PUSH1 0x20 PUSH1 0x4 DUP3 ADD DUP2 SWAP1 MSTORE PUSH1 0x24 DUP3 ADD MSTORE PUSH32 0x4564656D2073696E676572206E6F742076616C6964206F722065787069726564 PUSH1 0x44 DUP3 ADD MSTORE PUSH1 0x64 ADD PUSH2 0x587 JUMP JUMPDEST PUSH1 0x0 PUSH2 0x1CE4 PUSH1 0x40 DUP5 ADD PUSH1 0x20 DUP6 ADD PUSH2 0x316A JUMP JUMPDEST PUSH20 0xFFFFFFFFFFFFFFFFFFFFFFFFFFFFFFFFFFFFFFFF AND SUB PUSH2 0x1D61 JUMPI PUSH1 0x40 MLOAD PUSH32 0x8C379A000000000000000000000000000000000000000000000000000000000 DUP2 MSTORE PUSH1 0x20 PUSH1 0x4 DUP3 ADD MSTORE PUSH1 0xE PUSH1 0x24 DUP3 ADD MSTORE PUSH32 0x496E76616C6964207369676E6572000000000000000000000000000000000000 PUSH1 0x44 DUP3 ADD MSTORE PUSH1 0x64 ADD PUSH2 0x587 JUMP JUMPDEST PUSH1 0x0 DUP3 PUSH1 0x80 ADD CALLDATALOAD GT PUSH2 0x1DCF JUMPI PUSH1 0x40 MLOAD PUSH32 0x8C379A000000000000000000000000000000000000000000000000000000000 DUP2 MSTORE PUSH1 0x20 PUSH1 0x4 DUP3 ADD MSTORE PUSH1 0x19 PUSH1 0x24 DUP3 ADD MSTORE PUSH32 0x4E667420616D6F756E74206D7573742062652031206F72202B00000000000000 PUSH1 0x44 DUP3 ADD MSTORE PUSH1 0x64 ADD PUSH2 0x587 JUMP JUMPDEST PUSH2 0x1E27 DUP2 PUSH2 0x1DE3 PUSH1 0x40 DUP6 ADD PUSH1 0x20 DUP7 ADD PUSH2 0x316A JUMP JUMPDEST PUSH2 0x1DF5 PUSH2 0x1C0 DUP7 ADD PUSH2 0x1A0 DUP8 ADD PUSH2 0x39A6 JUMP JUMPDEST DUP6 PUSH2 0x1C0 ADD CALLDATALOAD DUP7 PUSH2 0x1E0 ADD CALLDATALOAD PUSH32 0x0 PUSH2 0x29D4 JUMP JUMPDEST PUSH2 0x1E8D JUMPI PUSH1 0x40 MLOAD PUSH32 0x8C379A000000000000000000000000000000000000000000000000000000000 DUP2 MSTORE PUSH1 0x20 PUSH1 0x4 DUP3 ADD MSTORE PUSH1 0x10 PUSH1 0x24 DUP3 ADD MSTORE PUSH32 0x5369676E4861736820496E76616C696400000000000000000000000000000000 PUSH1 0x44 DUP3 ADD MSTORE PUSH1 0x64 ADD PUSH2 0x587 JUMP JUMPDEST PUSH1 0x3 SLOAD PUSH20 0xFFFFFFFFFFFFFFFFFFFFFFFFFFFFFFFFFFFFFFFF AND PUSH4 0xB5AF090F PUSH2 0x1EBC PUSH2 0x100 DUP6 ADD PUSH1 0xE0 DUP7 ADD PUSH2 0x316A JUMP JUMPDEST PUSH1 0x40 MLOAD PUSH32 0xFFFFFFFF00000000000000000000000000000000000000000000000000000000 PUSH1 0xE0 DUP5 SWAP1 SHL AND DUP2 MSTORE PUSH20 0xFFFFFFFFFFFFFFFFFFFFFFFFFFFFFFFFFFFFFFFF SWAP1 SWAP2 AND PUSH1 0x4 DUP3 ADD MSTORE PUSH1 0x24 ADD PUSH1 0x20 PUSH1 0x40 MLOAD DUP1 DUP4 SUB DUP2 DUP7 GAS STATICCALL ISZERO DUP1 ISZERO PUSH2 0x1F25 JUMPI RETURNDATASIZE PUSH1 0x0 DUP1 RETURNDATACOPY RETURNDATASIZE PUSH1 0x0 REVERT JUMPDEST POP POP POP POP PUSH1 0x40 MLOAD RETURNDATASIZE PUSH1 0x1F NOT PUSH1 0x1F DUP3 ADD AND DUP3 ADD DUP1 PUSH1 0x40 MSTORE POP DUP2 ADD SWAP1 PUSH2 0x1F49 SWAP2 SWAP1 PUSH2 0x39C1 JUMP JUMPDEST PUSH2 0x1FAF JUMPI PUSH1 0x40 MLOAD PUSH32 0x8C379A000000000000000000000000000000000000000000000000000000000 DUP2 MSTORE PUSH1 0x20 PUSH1 0x4 DUP3 ADD MSTORE PUSH1 0xF PUSH1 0x24 DUP3 ADD MSTORE PUSH32 0x4E6F7420617574686F72697A65642E0000000000000000000000000000000000 PUSH1 0x44 DUP3 ADD MSTORE PUSH1 0x64 ADD PUSH2 0x587 JUMP JUMPDEST PUSH1 0x4 SLOAD PUSH20 0xFFFFFFFFFFFFFFFFFFFFFFFFFFFFFFFFFFFFFFFF AND PUSH4 0x9387BBD4 PUSH2 0x1FDD PUSH1 0xE0 DUP6 ADD PUSH1 0xC0 DUP7 ADD PUSH2 0x316A JUMP JUMPDEST PUSH1 0x40 MLOAD PUSH32 0xFFFFFFFF00000000000000000000000000000000000000000000000000000000 PUSH1 0xE0 DUP5 SWAP1 SHL AND DUP2 MSTORE PUSH20 0xFFFFFFFFFFFFFFFFFFFFFFFFFFFFFFFFFFFFFFFF SWAP1 SWAP2 AND PUSH1 0x4 DUP3 ADD MSTORE PUSH1 0x24 ADD PUSH1 0x20 PUSH1 0x40 MLOAD DUP1 DUP4 SUB DUP2 DUP7 GAS STATICCALL ISZERO DUP1 ISZERO PUSH2 0x2046 JUMPI RETURNDATASIZE PUSH1 0x0 DUP1 RETURNDATACOPY RETURNDATASIZE PUSH1 0x0 REVERT JUMPDEST POP POP POP POP PUSH1 0x40 MLOAD RETURNDATASIZE PUSH1 0x1F NOT PUSH1 0x1F DUP3 ADD AND DUP3 ADD DUP1 PUSH1 0x40 MSTORE POP DUP2 ADD SWAP1 PUSH2 0x206A SWAP2 SWAP1 PUSH2 0x39C1 JUMP JUMPDEST PUSH2 0xBB5 JUMPI PUSH1 0x40 MLOAD PUSH32 0x8C379A000000000000000000000000000000000000000000000000000000000 DUP2 MSTORE PUSH1 0x20 PUSH1 0x4 DUP3 ADD MSTORE PUSH1 0xF PUSH1 0x24 DUP3 ADD MSTORE PUSH32 0x4E6F7420617574686F72697A65642E0000000000000000000000000000000000 PUSH1 0x44 DUP3 ADD MSTORE PUSH1 0x64 ADD PUSH2 0x587 JUMP JUMPDEST DUP1 PUSH1 0x0 PUSH2 0x20DD DUP10 DUP4 PUSH2 0x2BA8 JUMP JUMPDEST PUSH1 0x2 SLOAD SWAP1 SWAP2 POP PUSH20 0xFFFFFFFFFFFFFFFFFFFFFFFFFFFFFFFFFFFFFFFF AND ISZERO DUP1 ISZERO SWAP1 PUSH2 0x2106 JUMPI POP DUP1 ISZERO ISZERO JUMPDEST ISZERO PUSH2 0x2141 JUMPI PUSH1 0x2 SLOAD PUSH2 0x2134 SWAP1 PUSH20 0xFFFFFFFFFFFFFFFFFFFFFFFFFFFFFFFFFFFFFFFF DUP9 DUP2 AND SWAP2 DUP9 SWAP2 AND DUP5 PUSH2 0x25BD JUMP JUMPDEST PUSH2 0x213E DUP2 DUP4 PUSH2 0x3886 JUMP JUMPDEST SWAP2 POP JUMPDEST POP PUSH1 0x5 SLOAD PUSH1 0x40 MLOAD PUSH32 0x40E7B54000000000000000000000000000000000000000000000000000000000 DUP2 MSTORE PUSH20 0xFFFFFFFFFFFFFFFFFFFFFFFFFFFFFFFFFFFFFFFF DUP10 DUP2 AND PUSH1 0x4 DUP4 ADD MSTORE PUSH1 0x24 DUP3 ADD DUP10 SWAP1 MSTORE PUSH1 0x44 DUP3 ADD DUP6 SWAP1 MSTORE PUSH1 0x0 SWAP3 DUP4 SWAP3 SWAP2 AND SWAP1 PUSH4 0x40E7B540 SWAP1 PUSH1 0x64 ADD PUSH1 0x40 DUP1 MLOAD DUP1 DUP4 SUB DUP2 DUP7 GAS STATICCALL ISZERO DUP1 ISZERO PUSH2 0x21C3 JUMPI RETURNDATASIZE PUSH1 0x0 DUP1 RETURNDATACOPY RETURNDATASIZE PUSH1 0x0 REVERT JUMPDEST POP POP POP POP PUSH1 0x40 MLOAD RETURNDATASIZE PUSH1 0x1F NOT PUSH1 0x1F DUP3 ADD AND DUP3 ADD DUP1 PUSH1 0x40 MSTORE POP DUP2 ADD SWAP1 PUSH2 0x21E7 SWAP2 SWAP1 PUSH2 0x39DE JUMP JUMPDEST SWAP1 SWAP3 POP SWAP1 POP PUSH20 0xFFFFFFFFFFFFFFFFFFFFFFFFFFFFFFFFFFFFFFFF DUP3 AND ISZERO DUP1 ISZERO SWAP1 PUSH2 0x2210 JUMPI POP DUP1 ISZERO ISZERO JUMPDEST ISZERO PUSH2 0x22CD JUMPI PUSH2 0x2237 PUSH20 0xFFFFFFFFFFFFFFFFFFFFFFFFFFFFFFFFFFFFFFFF DUP9 AND DUP8 DUP5 DUP5 PUSH2 0x25BD JUMP JUMPDEST PUSH2 0x2241 DUP2 DUP5 PUSH2 0x3886 JUMP JUMPDEST SWAP3 POP DUP2 PUSH20 0xFFFFFFFFFFFFFFFFFFFFFFFFFFFFFFFFFFFFFFFF AND DUP9 DUP11 PUSH20 0xFFFFFFFFFFFFFFFFFFFFFFFFFFFFFFFFFFFFFFFF AND PUSH32 0x27C4F0403323142B599832F26ACD21C74A9E5B809F2215726E244A4AC588CD7D DUP11 DUP6 PUSH1 0x40 MLOAD PUSH2 0x22C4 SWAP3 SWAP2 SWAP1 PUSH20 0xFFFFFFFFFFFFFFFFFFFFFFFFFFFFFFFFFFFFFFFF SWAP3 SWAP1 SWAP3 AND DUP3 MSTORE PUSH1 0x20 DUP3 ADD MSTORE PUSH1 0x40 ADD SWAP1 JUMP JUMPDEST PUSH1 0x40 MLOAD DUP1 SWAP2 SUB SWAP1 LOG4 JUMPDEST POP POP PUSH1 0x0 DUP2 GT PUSH2 0x235F JUMPI PUSH1 0x40 MLOAD PUSH32 0x8C379A000000000000000000000000000000000000000000000000000000000 DUP2 MSTORE PUSH1 0x20 PUSH1 0x4 DUP3 ADD MSTORE PUSH1 0x27 PUSH1 0x24 DUP3 ADD MSTORE PUSH32 0x5468652066656520697320746F6F206869676820746F2063686172676520616E PUSH1 0x44 DUP3 ADD MSTORE PUSH32 0x797468696E672E00000000000000000000000000000000000000000000000000 PUSH1 0x64 DUP3 ADD MSTORE PUSH1 0x84 ADD PUSH2 0x587 JUMP JUMPDEST PUSH2 0x2381 PUSH20 0xFFFFFFFFFFFFFFFFFFFFFFFFFFFFFFFFFFFFFFFF DUP7 AND DUP6 DUP6 DUP5 PUSH2 0x25BD JUMP JUMPDEST POP POP POP POP POP POP POP POP JUMP JUMPDEST PUSH1 0x6 SLOAD PUSH1 0x40 MLOAD PUSH32 0x15F0496600000000000000000000000000000000000000000000000000000000 DUP2 MSTORE PUSH20 0xFFFFFFFFFFFFFFFFFFFFFFFFFFFFFFFFFFFFFFFF DUP8 DUP2 AND PUSH1 0x4 DUP4 ADD MSTORE PUSH1 0x0 SWAP3 AND SWAP1 PUSH4 0x15F04966 SWAP1 PUSH1 0x24 ADD PUSH1 0x20 PUSH1 0x40 MLOAD DUP1 DUP4 SUB DUP2 DUP7 GAS STATICCALL ISZERO DUP1 ISZERO PUSH2 0x23FC JUMPI RETURNDATASIZE PUSH1 0x0 DUP1 RETURNDATACOPY RETURNDATASIZE PUSH1 0x0 REVERT JUMPDEST POP POP POP POP PUSH1 0x40 MLOAD RETURNDATASIZE PUSH1 0x1F NOT PUSH1 0x1F DUP3 ADD AND DUP3 ADD DUP1 PUSH1 0x40 MSTORE POP DUP2 ADD SWAP1 PUSH2 0x2420 SWAP2 SWAP1 PUSH2 0x3A0C JUMP JUMPDEST SWAP1 POP PUSH20 0xFFFFFFFFFFFFFFFFFFFFFFFFFFFFFFFFFFFFFFFF DUP2 AND PUSH2 0x249F JUMPI PUSH1 0x40 MLOAD PUSH32 0x8C379A000000000000000000000000000000000000000000000000000000000 DUP2 MSTORE PUSH1 0x20 PUSH1 0x4 DUP3 ADD MSTORE PUSH1 0x15 PUSH1 0x24 DUP3 ADD MSTORE PUSH32 0x526571756972657320726567697374726174696F6E0000000000000000000000 PUSH1 0x44 DUP3 ADD MSTORE PUSH1 0x64 ADD PUSH2 0x587 JUMP JUMPDEST PUSH1 0x40 MLOAD PUSH32 0x10F0211300000000000000000000000000000000000000000000000000000000 DUP2 MSTORE PUSH20 0xFFFFFFFFFFFFFFFFFFFFFFFFFFFFFFFFFFFFFFFF DUP8 DUP2 AND PUSH1 0x4 DUP4 ADD MSTORE DUP7 DUP2 AND PUSH1 0x24 DUP4 ADD MSTORE DUP6 DUP2 AND PUSH1 0x44 DUP4 ADD MSTORE PUSH1 0x64 DUP3 ADD DUP6 SWAP1 MSTORE PUSH1 0x84 DUP3 ADD DUP5 SWAP1 MSTORE DUP3 AND SWAP1 PUSH4 0x10F02113 SWAP1 PUSH1 0xA4 ADD PUSH1 0x0 PUSH1 0x40 MLOAD DUP1 DUP4 SUB DUP2 PUSH1 0x0 DUP8 DUP1 EXTCODESIZE ISZERO DUP1 ISZERO PUSH2 0x2526 JUMPI PUSH1 0x0 DUP1 REVERT JUMPDEST POP GAS CALL ISZERO DUP1 ISZERO PUSH2 0x253A JUMPI RETURNDATASIZE PUSH1 0x0 DUP1 RETURNDATACOPY RETURNDATASIZE PUSH1 0x0 REVERT JUMPDEST POP POP POP POP POP POP POP POP POP POP JUMP JUMPDEST PUSH1 0x1 DUP1 SLOAD PUSH20 0xFFFFFFFFFFFFFFFFFFFFFFFFFFFFFFFFFFFFFFFF DUP4 DUP2 AND PUSH32 0xFFFFFFFFFFFFFFFFFFFFFFFF0000000000000000000000000000000000000000 DUP4 AND DUP2 OR SWAP1 SWAP4 SSTORE PUSH1 0x40 MLOAD SWAP2 AND SWAP2 SWAP1 DUP3 SWAP1 PUSH32 0x8BE0079C531659141344CD1FD0A4F28419497F9722A3DAAFE3B4186F6B6457E0 SWAP1 PUSH1 0x0 SWAP1 LOG3 POP POP JUMP JUMPDEST PUSH1 0x40 MLOAD PUSH20 0xFFFFFFFFFFFFFFFFFFFFFFFFFFFFFFFFFFFFFFFF DUP1 DUP6 AND PUSH1 0x24 DUP4 ADD MSTORE DUP4 AND PUSH1 0x44 DUP3 ADD MSTORE PUSH1 0x64 DUP2 ADD DUP3 SWAP1 MSTORE PUSH2 0x2699 SWAP1 DUP6 SWAP1 PUSH32 0x23B872DD00000000000000000000000000000000000000000000000000000000 SWAP1 PUSH1 0x84 ADD JUMPDEST PUSH1 0x40 DUP1 MLOAD PUSH32 0xFFFFFFFFFFFFFFFFFFFFFFFFFFFFFFFFFFFFFFFFFFFFFFFFFFFFFFFFFFFFFFE0 DUP2 DUP5 SUB ADD DUP2 MSTORE SWAP2 SWAP1 MSTORE PUSH1 0x20 DUP2 ADD DUP1 MLOAD PUSH28 0xFFFFFFFFFFFFFFFFFFFFFFFFFFFFFFFFFFFFFFFFFFFFFFFFFFFFFFFF AND PUSH32 0xFFFFFFFF00000000000000000000000000000000000000000000000000000000 SWAP1 SWAP4 AND SWAP3 SWAP1 SWAP3 OR SWAP1 SWAP2 MSTORE PUSH2 0x2C3B JUMP JUMPDEST POP POP POP POP JUMP JUMPDEST DUP1 PUSH1 0x0 PUSH2 0x26AC DUP8 DUP4 PUSH2 0x2BA8 JUMP JUMPDEST PUSH1 0x2 SLOAD SWAP1 SWAP2 POP PUSH20 0xFFFFFFFFFFFFFFFFFFFFFFFFFFFFFFFFFFFFFFFF AND ISZERO DUP1 ISZERO SWAP1 PUSH2 0x26D5 JUMPI POP DUP1 ISZERO ISZERO JUMPDEST ISZERO PUSH2 0x272E JUMPI PUSH1 0x2 SLOAD PUSH2 0x2721 SWAP1 PUSH20 0xFFFFFFFFFFFFFFFFFFFFFFFFFFFFFFFFFFFFFFFF PUSH32 0x0 DUP2 AND SWAP2 AND DUP4 PUSH2 0x2D4C JUMP JUMPDEST PUSH2 0x272B DUP2 DUP4 PUSH2 0x3886 JUMP JUMPDEST SWAP2 POP JUMPDEST POP PUSH1 0x5 SLOAD PUSH1 0x40 MLOAD PUSH32 0x40E7B54000000000000000000000000000000000000000000000000000000000 DUP2 MSTORE PUSH20 0xFFFFFFFFFFFFFFFFFFFFFFFFFFFFFFFFFFFFFFFF DUP8 DUP2 AND PUSH1 0x4 DUP4 ADD MSTORE PUSH1 0x24 DUP3 ADD DUP8 SWAP1 MSTORE PUSH1 0x44 DUP3 ADD DUP6 SWAP1 MSTORE PUSH1 0x0 SWAP3 DUP4 SWAP3 SWAP2 AND SWAP1 PUSH4 0x40E7B540 SWAP1 PUSH1 0x64 ADD PUSH1 0x40 DUP1 MLOAD DUP1 DUP4 SUB DUP2 DUP7 GAS STATICCALL ISZERO DUP1 ISZERO PUSH2 0x27B0 JUMPI RETURNDATASIZE PUSH1 0x0 DUP1 RETURNDATACOPY RETURNDATASIZE PUSH1 0x0 REVERT JUMPDEST POP POP POP POP PUSH1 0x40 MLOAD RETURNDATASIZE PUSH1 0x1F NOT PUSH1 0x1F DUP3 ADD AND DUP3 ADD DUP1 PUSH1 0x40 MSTORE POP DUP2 ADD SWAP1 PUSH2 0x27D4 SWAP2 SWAP1 PUSH2 0x39DE JUMP JUMPDEST SWAP1 SWAP3 POP SWAP1 POP PUSH20 0xFFFFFFFFFFFFFFFFFFFFFFFFFFFFFFFFFFFFFFFF DUP3 AND ISZERO DUP1 ISZERO SWAP1 PUSH2 0x27FD JUMPI POP DUP1 ISZERO ISZERO JUMPDEST ISZERO PUSH2 0x28F9 JUMPI PUSH2 0x2843 PUSH20 0xFFFFFFFFFFFFFFFFFFFFFFFFFFFFFFFFFFFFFFFF PUSH32 0x0 AND DUP4 DUP4 PUSH2 0x2D4C JUMP JUMPDEST PUSH2 0x284D DUP2 DUP5 PUSH2 0x3886 JUMP JUMPDEST SWAP3 POP DUP2 PUSH20 0xFFFFFFFFFFFFFFFFFFFFFFFFFFFFFFFFFFFFFFFF AND DUP7 DUP9 PUSH20 0xFFFFFFFFFFFFFFFFFFFFFFFFFFFFFFFFFFFFFFFF AND PUSH32 0x27C4F0403323142B599832F26ACD21C74A9E5B809F2215726E244A4AC588CD7D PUSH32 0x0 DUP6 PUSH1 0x40 MLOAD PUSH2 0x28F0 SWAP3 SWAP2 SWAP1 PUSH20 0xFFFFFFFFFFFFFFFFFFFFFFFFFFFFFFFFFFFFFFFF SWAP3 SWAP1 SWAP3 AND DUP3 MSTORE PUSH1 0x20 DUP3 ADD MSTORE PUSH1 0x40 ADD SWAP1 JUMP JUMPDEST PUSH1 0x40 MLOAD DUP1 SWAP2 SUB SWAP1 LOG4 JUMPDEST POP POP PUSH1 0x0 DUP2 GT PUSH2 0x298B JUMPI PUSH1 0x40 MLOAD PUSH32 0x8C379A000000000000000000000000000000000000000000000000000000000 DUP2 MSTORE PUSH1 0x20 PUSH1 0x4 DUP3 ADD MSTORE PUSH1 0x27 PUSH1 0x24 DUP3 ADD MSTORE PUSH32 0x5468652066656520697320746F6F206869676820746F2063686172676520616E PUSH1 0x44 DUP3 ADD MSTORE PUSH32 0x797468696E672E00000000000000000000000000000000000000000000000000 PUSH1 0x64 DUP3 ADD MSTORE PUSH1 0x84 ADD PUSH2 0x587 JUMP JUMPDEST PUSH2 0x29CC PUSH20 0xFFFFFFFFFFFFFFFFFFFFFFFFFFFFFFFFFFFFFFFF PUSH32 0x0 AND DUP5 DUP4 PUSH2 0x2D4C JUMP JUMPDEST POP POP POP POP POP POP JUMP JUMPDEST PUSH1 0x40 MLOAD PUSH32 0x1901000000000000000000000000000000000000000000000000000000000000 PUSH1 0x20 DUP3 ADD MSTORE PUSH1 0x22 DUP2 ADD DUP3 SWAP1 MSTORE PUSH1 0x42 DUP2 ADD DUP8 SWAP1 MSTORE PUSH1 0x0 SWAP1 DUP2 SWAP1 PUSH1 0x62 ADD PUSH1 0x40 MLOAD PUSH1 0x20 DUP2 DUP4 SUB SUB DUP2 MSTORE SWAP1 PUSH1 0x40 MSTORE DUP1 MLOAD SWAP1 PUSH1 0x20 ADD KECCAK256 SWAP1 POP PUSH2 0x2A4B DUP8 PUSH20 0xFFFFFFFFFFFFFFFFFFFFFFFFFFFFFFFFFFFFFFFF AND EXTCODESIZE ISZERO ISZERO SWAP1 JUMP JUMPDEST ISZERO PUSH2 0x2B60 JUMPI PUSH1 0x40 DUP1 MLOAD PUSH1 0x20 DUP2 ADD DUP8 SWAP1 MSTORE DUP1 DUP3 ADD DUP7 SWAP1 MSTORE PUSH1 0xF8 DUP9 SWAP1 SHL PUSH32 0xFF00000000000000000000000000000000000000000000000000000000000000 AND PUSH1 0x60 DUP3 ADD MSTORE DUP2 MLOAD PUSH1 0x41 DUP2 DUP4 SUB ADD DUP2 MSTORE PUSH1 0x61 DUP3 ADD SWAP3 DUP4 SWAP1 MSTORE PUSH32 0x1626BA7E00000000000000000000000000000000000000000000000000000000 SWAP1 SWAP3 MSTORE PUSH20 0xFFFFFFFFFFFFFFFFFFFFFFFFFFFFFFFFFFFFFFFF DUP10 AND SWAP2 PUSH4 0x1626BA7E SWAP2 PUSH2 0x2AEF SWAP2 DUP6 SWAP2 PUSH1 0x65 ADD PUSH2 0x3A97 JUMP JUMPDEST PUSH1 0x20 PUSH1 0x40 MLOAD DUP1 DUP4 SUB DUP2 DUP7 GAS STATICCALL ISZERO DUP1 ISZERO PUSH2 0x2B0C JUMPI RETURNDATASIZE PUSH1 0x0 DUP1 RETURNDATACOPY RETURNDATASIZE PUSH1 0x0 REVERT JUMPDEST POP POP POP POP PUSH1 0x40 MLOAD RETURNDATASIZE PUSH1 0x1F NOT PUSH1 0x1F DUP3 ADD AND DUP3 ADD DUP1 PUSH1 0x40 MSTORE POP DUP2 ADD SWAP1 PUSH2 0x2B30 SWAP2 SWAP1 PUSH2 0x3AB0 JUMP JUMPDEST PUSH28 0xFFFFFFFFFFFFFFFFFFFFFFFFFFFFFFFFFFFFFFFFFFFFFFFFFFFFFFFF NOT AND PUSH4 0x1626BA7E PUSH1 0xE0 SHL EQ SWAP2 POP POP PUSH2 0x2B9E JUMP JUMPDEST DUP7 PUSH20 0xFFFFFFFFFFFFFFFFFFFFFFFFFFFFFFFFFFFFFFFF AND PUSH2 0x2B83 DUP3 DUP9 DUP9 DUP9 PUSH2 0x2DA2 JUMP JUMPDEST PUSH20 0xFFFFFFFFFFFFFFFFFFFFFFFFFFFFFFFFFFFFFFFF AND EQ SWAP2 POP POP JUMPDEST SWAP7 SWAP6 POP POP POP POP POP POP JUMP JUMPDEST PUSH1 0x0 DUP1 DUP4 PUSH20 0xFFFFFFFFFFFFFFFFFFFFFFFFFFFFFFFFFFFFFFFF AND PUSH4 0x9DD1CDA6 PUSH1 0x40 MLOAD DUP2 PUSH4 0xFFFFFFFF AND PUSH1 0xE0 SHL DUP2 MSTORE PUSH1 0x4 ADD PUSH1 0x20 PUSH1 0x40 MLOAD DUP1 DUP4 SUB DUP2 DUP7 GAS STATICCALL ISZERO DUP1 ISZERO PUSH2 0x2BF6 JUMPI RETURNDATASIZE PUSH1 0x0 DUP1 RETURNDATACOPY RETURNDATASIZE PUSH1 0x0 REVERT JUMPDEST POP POP POP POP PUSH1 0x40 MLOAD RETURNDATASIZE PUSH1 0x1F NOT PUSH1 0x1F DUP3 ADD AND DUP3 ADD DUP1 PUSH1 0x40 MSTORE POP DUP2 ADD SWAP1 PUSH2 0x2C1A SWAP2 SWAP1 PUSH2 0x3AF2 JUMP JUMPDEST SWAP1 POP PUSH2 0x2710 PUSH2 0x2C29 DUP5 DUP4 PUSH2 0x3B0B JUMP JUMPDEST PUSH2 0x2C33 SWAP2 SWAP1 PUSH2 0x3B22 JUMP JUMPDEST SWAP5 SWAP4 POP POP POP POP JUMP JUMPDEST PUSH1 0x0 PUSH2 0x2C9D DUP3 PUSH1 0x40 MLOAD DUP1 PUSH1 0x40 ADD PUSH1 0x40 MSTORE DUP1 PUSH1 0x20 DUP2 MSTORE PUSH1 0x20 ADD PUSH32 0x5361666545524332303A206C6F772D6C6576656C2063616C6C206661696C6564 DUP2 MSTORE POP DUP6 PUSH20 0xFFFFFFFFFFFFFFFFFFFFFFFFFFFFFFFFFFFFFFFF AND PUSH2 0x2FAE SWAP1 SWAP3 SWAP2 SWAP1 PUSH4 0xFFFFFFFF AND JUMP JUMPDEST DUP1 MLOAD SWAP1 SWAP2 POP ISZERO PUSH2 0x2D47 JUMPI DUP1 DUP1 PUSH1 0x20 ADD SWAP1 MLOAD DUP2 ADD SWAP1 PUSH2 0x2CBB SWAP2 SWAP1 PUSH2 0x39C1 JUMP JUMPDEST PUSH2 0x2D47 JUMPI PUSH1 0x40 MLOAD PUSH32 0x8C379A000000000000000000000000000000000000000000000000000000000 DUP2 MSTORE PUSH1 0x20 PUSH1 0x4 DUP3 ADD MSTORE PUSH1 0x2A PUSH1 0x24 DUP3 ADD MSTORE PUSH32 0x5361666545524332303A204552433230206F7065726174696F6E20646964206E PUSH1 0x44 DUP3 ADD MSTORE PUSH32 0x6F74207375636365656400000000000000000000000000000000000000000000 PUSH1 0x64 DUP3 ADD MSTORE PUSH1 0x84 ADD PUSH2 0x587 JUMP JUMPDEST POP POP POP JUMP JUMPDEST PUSH1 0x40 MLOAD PUSH20 0xFFFFFFFFFFFFFFFFFFFFFFFFFFFFFFFFFFFFFFFF DUP4 AND PUSH1 0x24 DUP3 ADD MSTORE PUSH1 0x44 DUP2 ADD DUP3 SWAP1 MSTORE PUSH2 0x2D47 SWAP1 DUP5 SWAP1 PUSH32 0xA9059CBB00000000000000000000000000000000000000000000000000000000 SWAP1 PUSH1 0x64 ADD PUSH2 0x2617 JUMP JUMPDEST PUSH1 0x0 PUSH32 0x7FFFFFFFFFFFFFFFFFFFFFFFFFFFFFFF5D576E7357A4501DDFE92F46681B20A0 DUP3 GT ISZERO PUSH2 0x2E2E JUMPI PUSH1 0x40 MLOAD PUSH32 0x8C379A000000000000000000000000000000000000000000000000000000000 DUP2 MSTORE PUSH1 0x20 PUSH1 0x4 DUP3 ADD MSTORE PUSH1 0x1E PUSH1 0x24 DUP3 ADD MSTORE PUSH32 0x5369676E61747572653A20496E76616C6964207320706172616D657465720000 PUSH1 0x44 DUP3 ADD MSTORE PUSH1 0x64 ADD PUSH2 0x587 JUMP JUMPDEST DUP4 PUSH1 0xFF AND PUSH1 0x1B EQ DUP1 PUSH2 0x2E43 JUMPI POP DUP4 PUSH1 0xFF AND PUSH1 0x1C EQ JUMPDEST PUSH2 0x2EA9 JUMPI PUSH1 0x40 MLOAD PUSH32 0x8C379A000000000000000000000000000000000000000000000000000000000 DUP2 MSTORE PUSH1 0x20 PUSH1 0x4 DUP3 ADD MSTORE PUSH1 0x1E PUSH1 0x24 DUP3 ADD MSTORE PUSH32 0x5369676E61747572653A20496E76616C6964207620706172616D657465720000 PUSH1 0x44 DUP3 ADD MSTORE PUSH1 0x64 ADD PUSH2 0x587 JUMP JUMPDEST PUSH1 0x40 DUP1 MLOAD PUSH1 0x0 DUP1 DUP3 MSTORE PUSH1 0x20 DUP3 ADD DUP1 DUP5 MSTORE DUP9 SWAP1 MSTORE PUSH1 0xFF DUP8 AND SWAP3 DUP3 ADD SWAP3 SWAP1 SWAP3 MSTORE PUSH1 0x60 DUP2 ADD DUP6 SWAP1 MSTORE PUSH1 0x80 DUP2 ADD DUP5 SWAP1 MSTORE PUSH1 0x1 SWAP1 PUSH1 0xA0 ADD PUSH1 0x20 PUSH1 0x40 MLOAD PUSH1 0x20 DUP2 SUB SWAP1 DUP1 DUP5 SUB SWAP1 DUP6 GAS STATICCALL ISZERO DUP1 ISZERO PUSH2 0x2EFD JUMPI RETURNDATASIZE PUSH1 0x0 DUP1 RETURNDATACOPY RETURNDATASIZE PUSH1 0x0 REVERT JUMPDEST POP POP PUSH1 0x40 MLOAD PUSH32 0xFFFFFFFFFFFFFFFFFFFFFFFFFFFFFFFFFFFFFFFFFFFFFFFFFFFFFFFFFFFFFFE0 ADD MLOAD SWAP2 POP POP PUSH20 0xFFFFFFFFFFFFFFFFFFFFFFFFFFFFFFFFFFFFFFFF DUP2 AND PUSH2 0x2FA5 JUMPI PUSH1 0x40 MLOAD PUSH32 0x8C379A000000000000000000000000000000000000000000000000000000000 DUP2 MSTORE PUSH1 0x20 PUSH1 0x4 DUP3 ADD MSTORE PUSH1 0x19 PUSH1 0x24 DUP3 ADD MSTORE PUSH32 0x5369676E61747572653A20496E76616C6964207369676E657200000000000000 PUSH1 0x44 DUP3 ADD MSTORE PUSH1 0x64 ADD PUSH2 0x587 JUMP JUMPDEST SWAP6 SWAP5 POP POP POP POP POP JUMP JUMPDEST PUSH1 0x60 PUSH2 0x2C33 DUP5 DUP5 PUSH1 0x0 DUP6 DUP6 PUSH1 0x0 DUP1 DUP7 PUSH20 0xFFFFFFFFFFFFFFFFFFFFFFFFFFFFFFFFFFFFFFFF AND DUP6 DUP8 PUSH1 0x40 MLOAD PUSH2 0x2FE2 SWAP2 SWAP1 PUSH2 0x3B5D JUMP JUMPDEST PUSH1 0x0 PUSH1 0x40 MLOAD DUP1 DUP4 SUB DUP2 DUP6 DUP8 GAS CALL SWAP3 POP POP POP RETURNDATASIZE DUP1 PUSH1 0x0 DUP2 EQ PUSH2 0x301F JUMPI PUSH1 0x40 MLOAD SWAP2 POP PUSH1 0x1F NOT PUSH1 0x3F RETURNDATASIZE ADD AND DUP3 ADD PUSH1 0x40 MSTORE RETURNDATASIZE DUP3 MSTORE RETURNDATASIZE PUSH1 0x0 PUSH1 0x20 DUP5 ADD RETURNDATACOPY PUSH2 0x3024 JUMP JUMPDEST PUSH1 0x60 SWAP2 POP JUMPDEST POP SWAP2 POP SWAP2 POP PUSH2 0x3035 DUP8 DUP4 DUP4 DUP8 PUSH2 0x3040 JUMP JUMPDEST SWAP8 SWAP7 POP POP POP POP POP POP POP JUMP JUMPDEST PUSH1 0x60 DUP4 ISZERO PUSH2 0x30D6 JUMPI DUP3 MLOAD PUSH1 0x0 SUB PUSH2 0x30CF JUMPI PUSH20 0xFFFFFFFFFFFFFFFFFFFFFFFFFFFFFFFFFFFFFFFF DUP6 AND EXTCODESIZE PUSH2 0x30CF JUMPI PUSH1 0x40 MLOAD PUSH32 0x8C379A000000000000000000000000000000000000000000000000000000000 DUP2 MSTORE PUSH1 0x20 PUSH1 0x4 DUP3 ADD MSTORE PUSH1 0x1D PUSH1 0x24 DUP3 ADD MSTORE PUSH32 0x416464726573733A2063616C6C20746F206E6F6E2D636F6E7472616374000000 PUSH1 0x44 DUP3 ADD MSTORE PUSH1 0x64 ADD PUSH2 0x587 JUMP JUMPDEST POP DUP2 PUSH2 0x2C33 JUMP JUMPDEST PUSH2 0x2C33 DUP4 DUP4 DUP2 MLOAD ISZERO PUSH2 0x30EB JUMPI DUP2 MLOAD DUP1 DUP4 PUSH1 0x20 ADD REVERT JUMPDEST DUP1 PUSH1 0x40 MLOAD PUSH32 0x8C379A000000000000000000000000000000000000000000000000000000000 DUP2 MSTORE PUSH1 0x4 ADD PUSH2 0x587 SWAP2 SWAP1 PUSH2 0x3B79 JUMP JUMPDEST PUSH1 0x0 PUSH1 0x20 DUP3 DUP5 SUB SLT ISZERO PUSH2 0x3131 JUMPI PUSH1 0x0 DUP1 REVERT JUMPDEST POP CALLDATALOAD SWAP2 SWAP1 POP JUMP JUMPDEST PUSH20 0xFFFFFFFFFFFFFFFFFFFFFFFFFFFFFFFFFFFFFFFF DUP2 AND DUP2 EQ PUSH2 0x1A24 JUMPI PUSH1 0x0 DUP1 REVERT JUMPDEST DUP1 CALLDATALOAD PUSH2 0x3165 DUP2 PUSH2 0x3138 JUMP JUMPDEST SWAP2 SWAP1 POP JUMP JUMPDEST PUSH1 0x0 PUSH1 0x20 DUP3 DUP5 SUB SLT ISZERO PUSH2 0x317C JUMPI PUSH1 0x0 DUP1 REVERT JUMPDEST DUP2 CALLDATALOAD PUSH2 0x3187 DUP2 PUSH2 0x3138 JUMP JUMPDEST SWAP4 SWAP3 POP POP POP JUMP JUMPDEST PUSH1 0x0 DUP1 PUSH1 0x40 DUP4 DUP6 SUB SLT ISZERO PUSH2 0x31A1 JUMPI PUSH1 0x0 DUP1 REVERT JUMPDEST DUP3 CALLDATALOAD PUSH2 0x31AC DUP2 PUSH2 0x3138 JUMP JUMPDEST SWAP5 PUSH1 0x20 SWAP4 SWAP1 SWAP4 ADD CALLDATALOAD SWAP4 POP POP POP JUMP JUMPDEST PUSH1 0x0 DUP1 DUP3 DUP5 SUB PUSH1 0xA0 DUP2 SLT ISZERO PUSH2 0x31CE JUMPI PUSH1 0x0 DUP1 REVERT JUMPDEST PUSH1 0x80 DUP2 SLT ISZERO PUSH2 0x31DC JUMPI PUSH1 0x0 DUP1 REVERT JUMPDEST POP DUP3 SWAP2 POP PUSH1 0x80 DUP4 ADD CALLDATALOAD PUSH8 0xFFFFFFFFFFFFFFFF DUP2 GT ISZERO PUSH2 0x31FA JUMPI PUSH1 0x0 DUP1 REVERT JUMPDEST DUP4 ADD PUSH2 0x200 DUP2 DUP7 SUB SLT ISZERO PUSH2 0x320D JUMPI PUSH1 0x0 DUP1 REVERT JUMPDEST DUP1 SWAP2 POP POP SWAP3 POP SWAP3 SWAP1 POP JUMP JUMPDEST PUSH1 0x0 DUP1 PUSH1 0x20 DUP4 DUP6 SUB SLT ISZERO PUSH2 0x322B JUMPI PUSH1 0x0 DUP1 REVERT JUMPDEST DUP3 CALLDATALOAD PUSH8 0xFFFFFFFFFFFFFFFF DUP1 DUP3 GT ISZERO PUSH2 0x3243 JUMPI PUSH1 0x0 DUP1 REVERT JUMPDEST DUP2 DUP6 ADD SWAP2 POP DUP6 PUSH1 0x1F DUP4 ADD SLT PUSH2 0x3257 JUMPI PUSH1 0x0 DUP1 REVERT JUMPDEST DUP2 CALLDATALOAD DUP2 DUP2 GT ISZERO PUSH2 0x3266 JUMPI PUSH1 0x0 DUP1 REVERT JUMPDEST DUP7 PUSH1 0x20 DUP3 PUSH1 0x5 SHL DUP6 ADD ADD GT ISZERO PUSH2 0x327B JUMPI PUSH1 0x0 DUP1 REVERT JUMPDEST PUSH1 0x20 SWAP3 SWAP1 SWAP3 ADD SWAP7 SWAP2 SWAP6 POP SWAP1 SWAP4 POP POP POP POP JUMP JUMPDEST PUSH32 0x4E487B7100000000000000000000000000000000000000000000000000000000 PUSH1 0x0 MSTORE PUSH1 0x11 PUSH1 0x4 MSTORE PUSH1 0x24 PUSH1 0x0 REVERT JUMPDEST DUP1 DUP3 ADD DUP1 DUP3 GT ISZERO PUSH2 0x767 JUMPI PUSH2 0x767 PUSH2 0x328D JUMP JUMPDEST DUP1 ISZERO ISZERO DUP2 EQ PUSH2 0x1A24 JUMPI PUSH1 0x0 DUP1 REVERT JUMPDEST DUP1 CALLDATALOAD PUSH2 0x3165 DUP2 PUSH2 0x32CF JUMP JUMPDEST PUSH1 0x0 PUSH1 0x20 DUP3 DUP5 SUB SLT ISZERO PUSH2 0x32FA JUMPI PUSH1 0x0 DUP1 REVERT JUMPDEST DUP2 CALLDATALOAD PUSH2 0x3187 DUP2 PUSH2 0x32CF JUMP JUMPDEST PUSH32 0x4E487B7100000000000000000000000000000000000000000000000000000000 PUSH1 0x0 MSTORE PUSH1 0x41 PUSH1 0x4 MSTORE PUSH1 0x24 PUSH1 0x0 REVERT JUMPDEST PUSH1 0x40 MLOAD PUSH2 0x200 DUP2 ADD PUSH8 0xFFFFFFFFFFFFFFFF DUP2 GT DUP3 DUP3 LT OR ISZERO PUSH2 0x3358 JUMPI PUSH2 0x3358 PUSH2 0x3305 JUMP JUMPDEST PUSH1 0x40 MSTORE SWAP1 JUMP JUMPDEST PUSH1 0x0 DUP3 PUSH1 0x1F DUP4 ADD SLT PUSH2 0x336F JUMPI PUSH1 0x0 DUP1 REVERT JUMPDEST DUP2 CALLDATALOAD PUSH1 0x20 PUSH8 0xFFFFFFFFFFFFFFFF DUP1 DUP4 GT ISZERO PUSH2 0x338C JUMPI PUSH2 0x338C PUSH2 0x3305 JUMP JUMPDEST DUP3 PUSH1 0x5 SHL PUSH1 0x40 MLOAD PUSH32 0xFFFFFFFFFFFFFFFFFFFFFFFFFFFFFFFFFFFFFFFFFFFFFFFFFFFFFFFFFFFFFFE0 PUSH1 0x3F DUP4 ADD AND DUP2 ADD DUP2 DUP2 LT DUP5 DUP3 GT OR ISZERO PUSH2 0x33CF JUMPI PUSH2 0x33CF PUSH2 0x3305 JUMP JUMPDEST PUSH1 0x40 MSTORE SWAP4 DUP5 MSTORE DUP6 DUP2 ADD DUP4 ADD SWAP4 DUP4 DUP2 ADD SWAP3 POP DUP8 DUP6 GT ISZERO PUSH2 0x33ED JUMPI PUSH1 0x0 DUP1 REVERT JUMPDEST DUP4 DUP8 ADD SWAP2 POP JUMPDEST DUP5 DUP3 LT ISZERO PUSH2 0x3035 JUMPI DUP2 CALLDATALOAD DUP4 MSTORE SWAP2 DUP4 ADD SWAP2 SWAP1 DUP4 ADD SWAP1 PUSH2 0x33F3 JUMP JUMPDEST DUP1 CALLDATALOAD PUSH1 0xFF DUP2 AND DUP2 EQ PUSH2 0x3165 JUMPI PUSH1 0x0 DUP1 REVERT JUMPDEST PUSH1 0x0 PUSH2 0x200 DUP3 CALLDATASIZE SUB SLT ISZERO PUSH2 0x3430 JUMPI PUSH1 0x0 DUP1 REVERT JUMPDEST PUSH2 0x3438 PUSH2 0x3334 JUMP JUMPDEST PUSH2 0x3441 DUP4 PUSH2 0x32DD JUMP JUMPDEST DUP2 MSTORE PUSH2 0x344F PUSH1 0x20 DUP5 ADD PUSH2 0x315A JUMP JUMPDEST PUSH1 0x20 DUP3 ADD MSTORE PUSH2 0x3460 PUSH1 0x40 DUP5 ADD PUSH2 0x315A JUMP JUMPDEST PUSH1 0x40 DUP3 ADD MSTORE PUSH1 0x60 DUP4 ADD CALLDATALOAD PUSH1 0x60 DUP3 ADD MSTORE PUSH1 0x80 DUP4 ADD CALLDATALOAD PUSH1 0x80 DUP3 ADD MSTORE PUSH1 0xA0 DUP4 ADD CALLDATALOAD PUSH1 0xA0 DUP3 ADD MSTORE PUSH2 0x348F PUSH1 0xC0 DUP5 ADD PUSH2 0x315A JUMP JUMPDEST PUSH1 0xC0 DUP3 ADD MSTORE PUSH2 0x34A0 PUSH1 0xE0 DUP5 ADD PUSH2 0x315A JUMP JUMPDEST PUSH1 0xE0 DUP3 ADD MSTORE PUSH2 0x100 DUP4 DUP2 ADD CALLDATALOAD SWAP1 DUP3 ADD MSTORE PUSH2 0x120 DUP1 DUP5 ADD CALLDATALOAD SWAP1 DUP3 ADD MSTORE PUSH2 0x140 DUP1 DUP5 ADD CALLDATALOAD SWAP1 DUP3 ADD MSTORE PUSH2 0x160 PUSH2 0x34D4 DUP2 DUP6 ADD PUSH2 0x32DD JUMP JUMPDEST SWAP1 DUP3 ADD MSTORE PUSH2 0x180 DUP4 DUP2 ADD CALLDATALOAD PUSH8 0xFFFFFFFFFFFFFFFF DUP2 GT ISZERO PUSH2 0x34F4 JUMPI PUSH1 0x0 DUP1 REVERT JUMPDEST PUSH2 0x3500 CALLDATASIZE DUP3 DUP8 ADD PUSH2 0x335E JUMP JUMPDEST DUP3 DUP5 ADD MSTORE POP POP PUSH2 0x1A0 PUSH2 0x3514 DUP2 DUP6 ADD PUSH2 0x340C JUMP JUMPDEST SWAP1 DUP3 ADD MSTORE PUSH2 0x1C0 DUP4 DUP2 ADD CALLDATALOAD SWAP1 DUP3 ADD MSTORE PUSH2 0x1E0 SWAP3 DUP4 ADD CALLDATALOAD SWAP3 DUP2 ADD SWAP3 SWAP1 SWAP3 MSTORE POP SWAP1 JUMP JUMPDEST PUSH1 0x0 DUP1 DUP4 CALLDATALOAD PUSH32 0xFFFFFFFFFFFFFFFFFFFFFFFFFFFFFFFFFFFFFFFFFFFFFFFFFFFFFFFFFFFFFFE1 DUP5 CALLDATASIZE SUB ADD DUP2 SLT PUSH2 0x356A JUMPI PUSH1 0x0 DUP1 REVERT JUMPDEST DUP4 ADD PUSH1 0x20 DUP2 ADD SWAP3 POP CALLDATALOAD SWAP1 POP PUSH8 0xFFFFFFFFFFFFFFFF DUP2 GT ISZERO PUSH2 0x358A JUMPI PUSH1 0x0 DUP1 REVERT JUMPDEST DUP1 PUSH1 0x5 SHL CALLDATASIZE SUB DUP3 SGT ISZERO PUSH2 0x359C JUMPI PUSH1 0x0 DUP1 REVERT JUMPDEST SWAP3 POP SWAP3 SWAP1 POP JUMP JUMPDEST DUP2 DUP4 MSTORE PUSH1 0x0 PUSH32 0x7FFFFFFFFFFFFFFFFFFFFFFFFFFFFFFFFFFFFFFFFFFFFFFFFFFFFFFFFFFFFFF DUP4 GT ISZERO PUSH2 0x35D5 JUMPI PUSH1 0x0 DUP1 REVERT JUMPDEST DUP3 PUSH1 0x5 SHL DUP1 DUP4 PUSH1 0x20 DUP8 ADD CALLDATACOPY SWAP4 SWAP1 SWAP4 ADD PUSH1 0x20 ADD SWAP4 SWAP3 POP POP POP JUMP JUMPDEST PUSH1 0x0 DUP4 CALLDATALOAD PUSH2 0x35FB DUP2 PUSH2 0x32CF JUMP JUMPDEST ISZERO ISZERO DUP3 MSTORE PUSH1 0x20 DUP5 ADD CALLDATALOAD PUSH2 0x360D DUP2 PUSH2 0x3138 JUMP JUMPDEST PUSH20 0xFFFFFFFFFFFFFFFFFFFFFFFFFFFFFFFFFFFFFFFF DUP2 AND PUSH1 0x20 DUP5 ADD MSTORE POP PUSH1 0x40 DUP5 ADD CALLDATALOAD PUSH1 0x40 DUP4 ADD MSTORE PUSH1 0x60 DUP5 ADD CALLDATALOAD PUSH1 0x60 DUP4 ADD MSTORE PUSH1 0xA0 PUSH1 0x80 DUP4 ADD MSTORE PUSH2 0x365B PUSH1 0xA0 DUP4 ADD PUSH2 0x3655 DUP6 PUSH2 0x32DD JUMP JUMPDEST ISZERO ISZERO SWAP1 MSTORE JUMP JUMPDEST PUSH2 0x3667 PUSH1 0x20 DUP5 ADD PUSH2 0x315A JUMP JUMPDEST PUSH20 0xFFFFFFFFFFFFFFFFFFFFFFFFFFFFFFFFFFFFFFFF AND PUSH1 0xC0 DUP4 ADD MSTORE PUSH2 0x368E PUSH1 0x40 DUP5 ADD PUSH2 0x315A JUMP JUMPDEST PUSH20 0xFFFFFFFFFFFFFFFFFFFFFFFFFFFFFFFFFFFFFFFF DUP2 AND PUSH1 0xE0 DUP5 ADD MSTORE POP PUSH2 0x100 PUSH1 0x60 DUP5 ADD CALLDATALOAD DUP2 DUP5 ADD MSTORE PUSH2 0x120 PUSH1 0x80 DUP6 ADD CALLDATALOAD DUP2 DUP6 ADD MSTORE PUSH2 0x140 PUSH1 0xA0 DUP7 ADD CALLDATALOAD DUP2 DUP7 ADD MSTORE PUSH2 0x36DB PUSH1 0xC0 DUP8 ADD PUSH2 0x315A JUMP JUMPDEST PUSH2 0x160 PUSH2 0x36FF DUP2 DUP9 ADD DUP4 PUSH20 0xFFFFFFFFFFFFFFFFFFFFFFFFFFFFFFFFFFFFFFFF AND SWAP1 MSTORE JUMP JUMPDEST PUSH2 0x370B PUSH1 0xE0 DUP10 ADD PUSH2 0x315A JUMP JUMPDEST SWAP2 POP PUSH2 0x180 PUSH2 0x3731 DUP2 DUP10 ADD DUP5 PUSH20 0xFFFFFFFFFFFFFFFFFFFFFFFFFFFFFFFFFFFFFFFF AND SWAP1 MSTORE JUMP JUMPDEST PUSH2 0x1A0 SWAP3 POP DUP6 DUP10 ADD CALLDATALOAD DUP4 DUP10 ADD MSTORE PUSH2 0x1C0 SWAP6 POP DUP5 DUP10 ADD CALLDATALOAD DUP7 DUP10 ADD MSTORE PUSH2 0x1E0 SWAP5 POP DUP4 DUP10 ADD CALLDATALOAD DUP6 DUP10 ADD MSTORE PUSH2 0x3763 DUP3 DUP11 ADD PUSH2 0x32DD JUMP JUMPDEST SWAP4 POP PUSH2 0x200 SWAP2 POP PUSH2 0x3777 DUP3 DUP10 ADD DUP6 ISZERO ISZERO SWAP1 MSTORE JUMP JUMPDEST PUSH2 0x3783 DUP2 DUP11 ADD DUP11 PUSH2 0x3535 JUMP JUMPDEST SWAP5 POP SWAP1 POP DUP2 PUSH2 0x220 DUP10 ADD MSTORE PUSH2 0x379D PUSH2 0x2A0 DUP10 ADD DUP6 DUP4 PUSH2 0x35A3 JUMP JUMPDEST SWAP4 POP POP POP PUSH2 0x37AC DUP2 DUP9 ADD PUSH2 0x340C JUMP JUMPDEST PUSH1 0xFF AND PUSH2 0x240 DUP8 ADD MSTORE POP SWAP2 DUP6 ADD CALLDATALOAD PUSH2 0x260 DUP6 ADD MSTORE SWAP1 SWAP4 ADD CALLDATALOAD PUSH2 0x280 SWAP1 SWAP3 ADD SWAP2 SWAP1 SWAP2 MSTORE POP SWAP2 SWAP1 POP JUMP JUMPDEST PUSH1 0x0 DUP1 PUSH1 0x0 PUSH1 0x60 DUP5 DUP7 SUB SLT ISZERO PUSH2 0x37E9 JUMPI PUSH1 0x0 DUP1 REVERT JUMPDEST DUP4 MLOAD PUSH2 0x37F4 DUP2 PUSH2 0x32CF JUMP JUMPDEST PUSH1 0x20 DUP6 ADD MLOAD PUSH1 0x40 SWAP1 SWAP6 ADD MLOAD SWAP1 SWAP7 SWAP5 SWAP6 POP SWAP4 SWAP3 POP POP POP JUMP JUMPDEST PUSH32 0x4E487B7100000000000000000000000000000000000000000000000000000000 PUSH1 0x0 MSTORE PUSH1 0x32 PUSH1 0x4 MSTORE PUSH1 0x24 PUSH1 0x0 REVERT JUMPDEST PUSH1 0x0 PUSH32 0xFFFFFFFFFFFFFFFFFFFFFFFFFFFFFFFFFFFFFFFFFFFFFFFFFFFFFFFFFFFFFFFF DUP3 SUB PUSH2 0x386B JUMPI PUSH2 0x386B PUSH2 0x328D JUMP JUMPDEST POP PUSH1 0x1 ADD SWAP1 JUMP JUMPDEST PUSH1 0x20 DUP2 MSTORE PUSH1 0x0 PUSH2 0x2C33 PUSH1 0x20 DUP4 ADD DUP5 DUP7 PUSH2 0x35A3 JUMP JUMPDEST DUP2 DUP2 SUB DUP2 DUP2 GT ISZERO PUSH2 0x767 JUMPI PUSH2 0x767 PUSH2 0x328D JUMP JUMPDEST PUSH1 0x0 DUP2 MLOAD DUP1 DUP5 MSTORE PUSH1 0x20 DUP1 DUP6 ADD SWAP5 POP DUP1 DUP5 ADD PUSH1 0x0 JUMPDEST DUP4 DUP2 LT ISZERO PUSH2 0x38C9 JUMPI DUP2 MLOAD DUP8 MSTORE SWAP6 DUP3 ADD SWAP6 SWAP1 DUP3 ADD SWAP1 PUSH1 0x1 ADD PUSH2 0x38AD JUMP JUMPDEST POP SWAP5 SWAP6 SWAP5 POP POP POP POP POP JUMP JUMPDEST DUP15 DUP2 MSTORE DUP14 ISZERO ISZERO PUSH1 0x20 DUP3 ADD MSTORE PUSH20 0xFFFFFFFFFFFFFFFFFFFFFFFFFFFFFFFFFFFFFFFF DUP14 DUP2 AND PUSH1 0x40 DUP4 ADD MSTORE DUP13 AND PUSH1 0x60 DUP3 ADD MSTORE DUP11 PUSH1 0x80 DUP3 ADD MSTORE DUP10 PUSH1 0xA0 DUP3 ADD MSTORE DUP9 PUSH1 0xC0 DUP3 ADD MSTORE PUSH2 0x3937 PUSH1 0xE0 DUP3 ADD DUP10 PUSH20 0xFFFFFFFFFFFFFFFFFFFFFFFFFFFFFFFFFFFFFFFF AND SWAP1 MSTORE JUMP JUMPDEST PUSH20 0xFFFFFFFFFFFFFFFFFFFFFFFFFFFFFFFFFFFFFFFF DUP8 AND PUSH2 0x100 DUP3 ADD MSTORE DUP6 PUSH2 0x120 DUP3 ADD MSTORE DUP5 PUSH2 0x140 DUP3 ADD MSTORE DUP4 PUSH2 0x160 DUP3 ADD MSTORE PUSH2 0x3978 PUSH2 0x180 DUP3 ADD DUP5 ISZERO ISZERO SWAP1 MSTORE JUMP JUMPDEST PUSH2 0x1C0 PUSH2 0x1A0 DUP3 ADD MSTORE PUSH1 0x0 PUSH2 0x3991 PUSH2 0x1C0 DUP4 ADD DUP5 PUSH2 0x3899 JUMP JUMPDEST SWAP1 POP SWAP16 SWAP15 POP POP POP POP POP POP POP POP POP POP POP POP POP POP POP JUMP JUMPDEST PUSH1 0x0 PUSH1 0x20 DUP3 DUP5 SUB SLT ISZERO PUSH2 0x39B8 JUMPI PUSH1 0x0 DUP1 REVERT JUMPDEST PUSH2 0x3187 DUP3 PUSH2 0x340C JUMP JUMPDEST PUSH1 0x0 PUSH1 0x20 DUP3 DUP5 SUB SLT ISZERO PUSH2 0x39D3 JUMPI PUSH1 0x0 DUP1 REVERT JUMPDEST DUP2 MLOAD PUSH2 0x3187 DUP2 PUSH2 0x32CF JUMP JUMPDEST PUSH1 0x0 DUP1 PUSH1 0x40 DUP4 DUP6 SUB SLT ISZERO PUSH2 0x39F1 JUMPI PUSH1 0x0 DUP1 REVERT JUMPDEST DUP3 MLOAD PUSH2 0x39FC DUP2 PUSH2 0x3138 JUMP JUMPDEST PUSH1 0x20 SWAP4 SWAP1 SWAP4 ADD MLOAD SWAP3 SWAP5 SWAP3 SWAP4 POP POP POP JUMP JUMPDEST PUSH1 0x0 PUSH1 0x20 DUP3 DUP5 SUB SLT ISZERO PUSH2 0x3A1E JUMPI PUSH1 0x0 DUP1 REVERT JUMPDEST DUP2 MLOAD PUSH2 0x3187 DUP2 PUSH2 0x3138 JUMP JUMPDEST PUSH1 0x0 JUMPDEST DUP4 DUP2 LT ISZERO PUSH2 0x3A44 JUMPI DUP2 DUP2 ADD MLOAD DUP4 DUP3 ADD MSTORE PUSH1 0x20 ADD PUSH2 0x3A2C JUMP JUMPDEST POP POP PUSH1 0x0 SWAP2 ADD MSTORE JUMP JUMPDEST PUSH1 0x0 DUP2 MLOAD DUP1 DUP5 MSTORE PUSH2 0x3A65 DUP2 PUSH1 0x20 DUP7 ADD PUSH1 0x20 DUP7 ADD PUSH2 0x3A29 JUMP JUMPDEST PUSH1 0x1F ADD PUSH32 0xFFFFFFFFFFFFFFFFFFFFFFFFFFFFFFFFFFFFFFFFFFFFFFFFFFFFFFFFFFFFFFE0 AND SWAP3 SWAP1 SWAP3 ADD PUSH1 0x20 ADD SWAP3 SWAP2 POP POP JUMP JUMPDEST DUP3 DUP2 MSTORE PUSH1 0x40 PUSH1 0x20 DUP3 ADD MSTORE PUSH1 0x0 PUSH2 0x2C33 PUSH1 0x40 DUP4 ADD DUP5 PUSH2 0x3A4D JUMP JUMPDEST PUSH1 0x0 PUSH1 0x20 DUP3 DUP5 SUB SLT ISZERO PUSH2 0x3AC2 JUMPI PUSH1 0x0 DUP1 REVERT JUMPDEST DUP2 MLOAD PUSH32 0xFFFFFFFF00000000000000000000000000000000000000000000000000000000 DUP2 AND DUP2 EQ PUSH2 0x3187 JUMPI PUSH1 0x0 DUP1 REVERT JUMPDEST PUSH1 0x0 PUSH1 0x20 DUP3 DUP5 SUB SLT ISZERO PUSH2 0x3B04 JUMPI PUSH1 0x0 DUP1 REVERT JUMPDEST POP MLOAD SWAP2 SWAP1 POP JUMP JUMPDEST DUP1 DUP3 MUL DUP2 ISZERO DUP3 DUP3 DIV DUP5 EQ OR PUSH2 0x767 JUMPI PUSH2 0x767 PUSH2 0x328D JUMP JUMPDEST PUSH1 0x0 DUP3 PUSH2 0x3B58 JUMPI PUSH32 0x4E487B7100000000000000000000000000000000000000000000000000000000 PUSH1 0x0 MSTORE PUSH1 0x12 PUSH1 0x4 MSTORE PUSH1 0x24 PUSH1 0x0 REVERT JUMPDEST POP DIV SWAP1 JUMP JUMPDEST PUSH1 0x0 DUP3 MLOAD PUSH2 0x3B6F DUP2 DUP5 PUSH1 0x20 DUP8 ADD PUSH2 0x3A29 JUMP JUMPDEST SWAP2 SWAP1 SWAP2 ADD SWAP3 SWAP2 POP POP JUMP JUMPDEST PUSH1 0x20 DUP2 MSTORE PUSH1 0x0 PUSH2 0x3187 PUSH1 0x20 DUP4 ADD DUP5 PUSH2 0x3A4D JUMP INVALID LOG2 PUSH5 0x6970667358 0x22 SLT KECCAK256 SUB 0xFB 0xB2 0x5C 0xEB 0xA5 RETURN STATICCALL SIGNEXTEND 0xD8 EXTCODESIZE PUSH14 0x1E603CC98587A64201F44FB1EE23 KECCAK256 PUSH5 0xD58798AB64 PUSH20 0x6F6C634300081100330000000000000000000000 "},"methodIdentifiers":{"DOMAIN_SEPARATOR()":"3644e515","INTERFACE_ID_ERC1155()":"33bf6156","INTERFACE_ID_ERC721()":"bc6bc0cd","WETH()":"ad5c4648","cancelAll(uint256)":"146fce32","cancelSellAndSuggest(uint256[])":"aa747d3a","isUserOrderNonceExecutedOrCancelled(address,uint256)":"31e27e27","owner()":"8da5cb5b","proposerPay((bool,address,uint256,uint256),(bool,address,address,uint256,uint256,uint256,address,address,uint256,uint256,uint256,bool,uint256[],uint8,bytes32,bytes32))":"32b941fd","proposerPayETHAndWETH((bool,address,uint256,uint256),(bool,address,address,uint256,uint256,uint256,address,address,uint256,uint256,uint256,bool,uint256[],uint8,bytes32,bytes32))":"c8635077","protocolExecutionManager()":"ebf1decc","protocoleFeeRecipient()":"8b655ee0","renounceOwnership()":"715018a6","royaltyManager()":"ee295d62","suggestApprove((bool,address,uint256,uint256),(bool,address,address,uint256,uint256,uint256,address,address,uint256,uint256,uint256,bool,uint256[],uint8,bytes32,bytes32))":"6c01ad9c","tradeTokenManager()":"9bbc6d88","transferManager()":"46ea2552","transferOwnership(address)":"f2fde38b","updateProtocolExecutionManager(address)":"b6cdf821","updateRoyaltyManager(address)":"c8f93509","updateTradeTokenManager(address)":"b4b634c6","updateTransferManager(address)":"2dd85ad9"}}}}}