{"contracts/TransferManager.sol":{"TransferManager":{"abi":[{"inputs":[{"internalType":"address","name":"_transfer721","type":"address"},{"internalType":"address","name":"_transfer1155","type":"address"}],"stateMutability":"nonpayable","type":"constructor"},{"anonymous":false,"inputs":[{"indexed":true,"internalType":"address","name":"collection","type":"address"},{"indexed":true,"internalType":"address","name":"transferManager","type":"address"}],"name":"CollectionTransferManagerAdded","type":"event"},{"anonymous":false,"inputs":[{"indexed":true,"internalType":"address","name":"collection","type":"address"}],"name":"CollectionTransferManagerRemoved","type":"event"},{"anonymous":false,"inputs":[{"indexed":true,"internalType":"address","name":"previousOwner","type":"address"},{"indexed":true,"internalType":"address","name":"newOwner","type":"address"}],"name":"OwnershipTransferred","type":"event"},{"inputs":[],"name":"INTERFACE_ID_ERC1155","outputs":[{"internalType":"bytes4","name":"","type":"bytes4"}],"stateMutability":"view","type":"function"},{"inputs":[],"name":"INTERFACE_ID_ERC721","outputs":[{"internalType":"bytes4","name":"","type":"bytes4"}],"stateMutability":"view","type":"function"},{"inputs":[],"name":"TRANSFER_MANAGER_ERC1155","outputs":[{"internalType":"address","name":"","type":"address"}],"stateMutability":"view","type":"function"},{"inputs":[],"name":"TRANSFER_MANAGER_ERC721","outputs":[{"internalType":"address","name":"","type":"address"}],"stateMutability":"view","type":"function"},{"inputs":[{"internalType":"address","name":"collection","type":"address"},{"internalType":"address","name":"transferManager","type":"address"}],"name":"addTransferManagerCollection","outputs":[],"stateMutability":"nonpayable","type":"function"},{"inputs":[],"name":"owner","outputs":[{"internalType":"address","name":"","type":"address"}],"stateMutability":"view","type":"function"},{"inputs":[{"internalType":"address","name":"collection","type":"address"}],"name":"removeTransferManagerCollection","outputs":[],"stateMutability":"nonpayable","type":"function"},{"inputs":[],"name":"renounceOwnership","outputs":[],"stateMutability":"nonpayable","type":"function"},{"inputs":[{"internalType":"address","name":"collection","type":"address"}],"name":"transferManagerAddress","outputs":[{"internalType":"address","name":"transferManager","type":"address"}],"stateMutability":"view","type":"function"},{"inputs":[{"internalType":"address","name":"","type":"address"}],"name":"transferManagerForCollection","outputs":[{"internalType":"address","name":"","type":"address"}],"stateMutability":"view","type":"function"},{"inputs":[{"internalType":"address","name":"newOwner","type":"address"}],"name":"transferOwnership","outputs":[],"stateMutability":"nonpayable","type":"function"}],"evm":{"bytecode":{"linkReferences":{},"object":"60c060405234801561001057600080fd5b50604051610a91380380610a9183398101604081905261002f916100bb565b6100383361004f565b6001600160a01b039182166080521660a0526100ee565b600080546001600160a01b038381166001600160a01b0319831681178455604051919092169283917f8be0079c531659141344cd1fd0a4f28419497f9722a3daafe3b4186f6b6457e09190a35050565b80516001600160a01b03811681146100b657600080fd5b919050565b600080604083850312156100ce57600080fd5b6100d78361009f565b91506100e56020840161009f565b90509250929050565b60805160a0516109706101216000396000818161017d015261042c0152600081816101ca015261035201526109706000f3fe608060405234801561001057600080fd5b50600436106100c95760003560e01c80638da5cb5b11610081578063d297772f1161005b578063d297772f14610213578063e58c7c3914610249578063f2fde38b1461025c57600080fd5b80638da5cb5b146101a7578063b1357ddd146101c5578063bc6bc0cd146101ec57600080fd5b806333bf6156116100b257806333bf6156146101205780633892895614610178578063715018a61461019f57600080fd5b806315f04966146100ce578063301b25071461010b575b600080fd5b6100e16100dc3660046108c3565b61026f565b60405173ffffffffffffffffffffffffffffffffffffffff90911681526020015b60405180910390f35b61011e6101193660046108e5565b610451565b005b6101477fd9b67a260000000000000000000000000000000000000000000000000000000081565b6040517fffffffff000000000000000000000000000000000000000000000000000000009091168152602001610102565b6100e17f000000000000000000000000000000000000000000000000000000000000000081565b61011e6105d4565b60005473ffffffffffffffffffffffffffffffffffffffff166100e1565b6100e17f000000000000000000000000000000000000000000000000000000000000000081565b6101477f80ac58cd0000000000000000000000000000000000000000000000000000000081565b6100e16102213660046108c3565b60016020526000908152604090205473ffffffffffffffffffffffffffffffffffffffff1681565b61011e6102573660046108c3565b6105e8565b61011e61026a3660046108c3565b6106f2565b73ffffffffffffffffffffffffffffffffffffffff808216600090815260016020526040902054168061044c576040517f01ffc9a70000000000000000000000000000000000000000000000000000000081527f80ac58cd00000000000000000000000000000000000000000000000000000000600482015273ffffffffffffffffffffffffffffffffffffffff8316906301ffc9a790602401602060405180830381865afa158015610326573d6000803e3d6000fd5b505050506040513d601f19601f8201168201806040525081019061034a9190610918565b1561037657507f0000000000000000000000000000000000000000000000000000000000000000919050565b6040517f01ffc9a70000000000000000000000000000000000000000000000000000000081527fd9b67a2600000000000000000000000000000000000000000000000000000000600482015273ffffffffffffffffffffffffffffffffffffffff8316906301ffc9a790602401602060405180830381865afa158015610400573d6000803e3d6000fd5b505050506040513d601f19601f820116820180604052508101906104249190610918565b1561044c57507f00000000000000000000000000000000000000000000000000000000000000005b919050565b6104596107a9565b73ffffffffffffffffffffffffffffffffffffffff82166104db576040517f08c379a000000000000000000000000000000000000000000000000000000000815260206004820152601760248201527f436f6c6c656374696f6e206e756c6c206164647265737300000000000000000060448201526064015b60405180910390fd5b73ffffffffffffffffffffffffffffffffffffffff8116610558576040517f08c379a000000000000000000000000000000000000000000000000000000000815260206004820152601c60248201527f5472616e736665724d616e61676572206e756c6c20616464726573730000000060448201526064016104d2565b73ffffffffffffffffffffffffffffffffffffffff82811660008181526001602052604080822080547fffffffffffffffffffffffff0000000000000000000000000000000000000000169486169485179055517fda166be6ba0ebb71be3f83e7d669765de552ea08978bfe3e3e42d54174111b629190a35050565b6105dc6107a9565b6105e6600061082a565b565b6105f06107a9565b73ffffffffffffffffffffffffffffffffffffffff8181166000908152600160205260409020541661067e576040517f08c379a000000000000000000000000000000000000000000000000000000000815260206004820152601760248201527f436f6c6c656374696f6e206e756c6c206164647265737300000000000000000060448201526064016104d2565b73ffffffffffffffffffffffffffffffffffffffff811660008181526001602052604080822080547fffffffffffffffffffffffff0000000000000000000000000000000000000000169055517f8c3bf4babc197f3db0e7ec65aaf23fc0efb0e689436aeea8514c3f01fd97841f9190a250565b6106fa6107a9565b73ffffffffffffffffffffffffffffffffffffffff811661079d576040517f08c379a000000000000000000000000000000000000000000000000000000000815260206004820152602660248201527f4f776e61626c653a206e6577206f776e657220697320746865207a65726f206160448201527f646472657373000000000000000000000000000000000000000000000000000060648201526084016104d2565b6107a68161082a565b50565b60005473ffffffffffffffffffffffffffffffffffffffff1633146105e6576040517f08c379a000000000000000000000000000000000000000000000000000000000815260206004820181905260248201527f4f776e61626c653a2063616c6c6572206973206e6f7420746865206f776e657260448201526064016104d2565b6000805473ffffffffffffffffffffffffffffffffffffffff8381167fffffffffffffffffffffffff0000000000000000000000000000000000000000831681178455604051919092169283917f8be0079c531659141344cd1fd0a4f28419497f9722a3daafe3b4186f6b6457e09190a35050565b803573ffffffffffffffffffffffffffffffffffffffff8116811461044c57600080fd5b6000602082840312156108d557600080fd5b6108de8261089f565b9392505050565b600080604083850312156108f857600080fd5b6109018361089f565b915061090f6020840161089f565b90509250929050565b60006020828403121561092a57600080fd5b815180151581146108de57600080fdfea2646970667358221220c41ef3070cd35f67884494b4e8d5923bd3310d3456adfcd015afcb76efb8238464736f6c63430008110033","opcodes":"PUSH1 0xC0 PUSH1 0x40 MSTORE CALLVALUE DUP1 ISZERO PUSH2 0x10 JUMPI PUSH1 0x0 DUP1 REVERT JUMPDEST POP PUSH1 0x40 MLOAD PUSH2 0xA91 CODESIZE SUB DUP1 PUSH2 0xA91 DUP4 CODECOPY DUP2 ADD PUSH1 0x40 DUP2 SWAP1 MSTORE PUSH2 0x2F SWAP2 PUSH2 0xBB JUMP JUMPDEST PUSH2 0x38 CALLER PUSH2 0x4F JUMP JUMPDEST PUSH1 0x1 PUSH1 0x1 PUSH1 0xA0 SHL SUB SWAP2 DUP3 AND PUSH1 0x80 MSTORE AND PUSH1 0xA0 MSTORE PUSH2 0xEE JUMP JUMPDEST PUSH1 0x0 DUP1 SLOAD PUSH1 0x1 PUSH1 0x1 PUSH1 0xA0 SHL SUB DUP4 DUP2 AND PUSH1 0x1 PUSH1 0x1 PUSH1 0xA0 SHL SUB NOT DUP4 AND DUP2 OR DUP5 SSTORE PUSH1 0x40 MLOAD SWAP2 SWAP1 SWAP3 AND SWAP3 DUP4 SWAP2 PUSH32 0x8BE0079C531659141344CD1FD0A4F28419497F9722A3DAAFE3B4186F6B6457E0 SWAP2 SWAP1 LOG3 POP POP JUMP JUMPDEST DUP1 MLOAD PUSH1 0x1 PUSH1 0x1 PUSH1 0xA0 SHL SUB DUP2 AND DUP2 EQ PUSH2 0xB6 JUMPI PUSH1 0x0 DUP1 REVERT JUMPDEST SWAP2 SWAP1 POP JUMP JUMPDEST PUSH1 0x0 DUP1 PUSH1 0x40 DUP4 DUP6 SUB SLT ISZERO PUSH2 0xCE JUMPI PUSH1 0x0 DUP1 REVERT JUMPDEST PUSH2 0xD7 DUP4 PUSH2 0x9F JUMP JUMPDEST SWAP2 POP PUSH2 0xE5 PUSH1 0x20 DUP5 ADD PUSH2 0x9F JUMP JUMPDEST SWAP1 POP SWAP3 POP SWAP3 SWAP1 POP JUMP JUMPDEST PUSH1 0x80 MLOAD PUSH1 0xA0 MLOAD PUSH2 0x970 PUSH2 0x121 PUSH1 0x0 CODECOPY PUSH1 0x0 DUP2 DUP2 PUSH2 0x17D ADD MSTORE PUSH2 0x42C ADD MSTORE PUSH1 0x0 DUP2 DUP2 PUSH2 0x1CA ADD MSTORE PUSH2 0x352 ADD MSTORE PUSH2 0x970 PUSH1 0x0 RETURN INVALID PUSH1 0x80 PUSH1 0x40 MSTORE CALLVALUE DUP1 ISZERO PUSH2 0x10 JUMPI PUSH1 0x0 DUP1 REVERT JUMPDEST POP PUSH1 0x4 CALLDATASIZE LT PUSH2 0xC9 JUMPI PUSH1 0x0 CALLDATALOAD PUSH1 0xE0 SHR DUP1 PUSH4 0x8DA5CB5B GT PUSH2 0x81 JUMPI DUP1 PUSH4 0xD297772F GT PUSH2 0x5B JUMPI DUP1 PUSH4 0xD297772F EQ PUSH2 0x213 JUMPI DUP1 PUSH4 0xE58C7C39 EQ PUSH2 0x249 JUMPI DUP1 PUSH4 0xF2FDE38B EQ PUSH2 0x25C JUMPI PUSH1 0x0 DUP1 REVERT JUMPDEST DUP1 PUSH4 0x8DA5CB5B EQ PUSH2 0x1A7 JUMPI DUP1 PUSH4 0xB1357DDD EQ PUSH2 0x1C5 JUMPI DUP1 PUSH4 0xBC6BC0CD EQ PUSH2 0x1EC JUMPI PUSH1 0x0 DUP1 REVERT JUMPDEST DUP1 PUSH4 0x33BF6156 GT PUSH2 0xB2 JUMPI DUP1 PUSH4 0x33BF6156 EQ PUSH2 0x120 JUMPI DUP1 PUSH4 0x38928956 EQ PUSH2 0x178 JUMPI DUP1 PUSH4 0x715018A6 EQ PUSH2 0x19F JUMPI PUSH1 0x0 DUP1 REVERT JUMPDEST DUP1 PUSH4 0x15F04966 EQ PUSH2 0xCE JUMPI DUP1 PUSH4 0x301B2507 EQ PUSH2 0x10B JUMPI JUMPDEST PUSH1 0x0 DUP1 REVERT JUMPDEST PUSH2 0xE1 PUSH2 0xDC CALLDATASIZE PUSH1 0x4 PUSH2 0x8C3 JUMP JUMPDEST PUSH2 0x26F JUMP JUMPDEST PUSH1 0x40 MLOAD PUSH20 0xFFFFFFFFFFFFFFFFFFFFFFFFFFFFFFFFFFFFFFFF SWAP1 SWAP2 AND DUP2 MSTORE PUSH1 0x20 ADD JUMPDEST PUSH1 0x40 MLOAD DUP1 SWAP2 SUB SWAP1 RETURN JUMPDEST PUSH2 0x11E PUSH2 0x119 CALLDATASIZE PUSH1 0x4 PUSH2 0x8E5 JUMP JUMPDEST PUSH2 0x451 JUMP JUMPDEST STOP JUMPDEST PUSH2 0x147 PUSH32 0xD9B67A2600000000000000000000000000000000000000000000000000000000 DUP2 JUMP JUMPDEST PUSH1 0x40 MLOAD PUSH32 0xFFFFFFFF00000000000000000000000000000000000000000000000000000000 SWAP1 SWAP2 AND DUP2 MSTORE PUSH1 0x20 ADD PUSH2 0x102 JUMP JUMPDEST PUSH2 0xE1 PUSH32 0x0 DUP2 JUMP JUMPDEST PUSH2 0x11E PUSH2 0x5D4 JUMP JUMPDEST PUSH1 0x0 SLOAD PUSH20 0xFFFFFFFFFFFFFFFFFFFFFFFFFFFFFFFFFFFFFFFF AND PUSH2 0xE1 JUMP JUMPDEST PUSH2 0xE1 PUSH32 0x0 DUP2 JUMP JUMPDEST PUSH2 0x147 PUSH32 0x80AC58CD00000000000000000000000000000000000000000000000000000000 DUP2 JUMP JUMPDEST PUSH2 0xE1 PUSH2 0x221 CALLDATASIZE PUSH1 0x4 PUSH2 0x8C3 JUMP JUMPDEST PUSH1 0x1 PUSH1 0x20 MSTORE PUSH1 0x0 SWAP1 DUP2 MSTORE PUSH1 0x40 SWAP1 KECCAK256 SLOAD PUSH20 0xFFFFFFFFFFFFFFFFFFFFFFFFFFFFFFFFFFFFFFFF AND DUP2 JUMP JUMPDEST PUSH2 0x11E PUSH2 0x257 CALLDATASIZE PUSH1 0x4 PUSH2 0x8C3 JUMP JUMPDEST PUSH2 0x5E8 JUMP JUMPDEST PUSH2 0x11E PUSH2 0x26A CALLDATASIZE PUSH1 0x4 PUSH2 0x8C3 JUMP JUMPDEST PUSH2 0x6F2 JUMP JUMPDEST PUSH20 0xFFFFFFFFFFFFFFFFFFFFFFFFFFFFFFFFFFFFFFFF DUP1 DUP3 AND PUSH1 0x0 SWAP1 DUP2 MSTORE PUSH1 0x1 PUSH1 0x20 MSTORE PUSH1 0x40 SWAP1 KECCAK256 SLOAD AND DUP1 PUSH2 0x44C JUMPI PUSH1 0x40 MLOAD PUSH32 0x1FFC9A700000000000000000000000000000000000000000000000000000000 DUP2 MSTORE PUSH32 0x80AC58CD00000000000000000000000000000000000000000000000000000000 PUSH1 0x4 DUP3 ADD MSTORE PUSH20 0xFFFFFFFFFFFFFFFFFFFFFFFFFFFFFFFFFFFFFFFF DUP4 AND SWAP1 PUSH4 0x1FFC9A7 SWAP1 PUSH1 0x24 ADD PUSH1 0x20 PUSH1 0x40 MLOAD DUP1 DUP4 SUB DUP2 DUP7 GAS STATICCALL ISZERO DUP1 ISZERO PUSH2 0x326 JUMPI RETURNDATASIZE PUSH1 0x0 DUP1 RETURNDATACOPY RETURNDATASIZE PUSH1 0x0 REVERT JUMPDEST POP POP POP POP PUSH1 0x40 MLOAD RETURNDATASIZE PUSH1 0x1F NOT PUSH1 0x1F DUP3 ADD AND DUP3 ADD DUP1 PUSH1 0x40 MSTORE POP DUP2 ADD SWAP1 PUSH2 0x34A SWAP2 SWAP1 PUSH2 0x918 JUMP JUMPDEST ISZERO PUSH2 0x376 JUMPI POP PUSH32 0x0 SWAP2 SWAP1 POP JUMP JUMPDEST PUSH1 0x40 MLOAD PUSH32 0x1FFC9A700000000000000000000000000000000000000000000000000000000 DUP2 MSTORE PUSH32 0xD9B67A2600000000000000000000000000000000000000000000000000000000 PUSH1 0x4 DUP3 ADD MSTORE PUSH20 0xFFFFFFFFFFFFFFFFFFFFFFFFFFFFFFFFFFFFFFFF DUP4 AND SWAP1 PUSH4 0x1FFC9A7 SWAP1 PUSH1 0x24 ADD PUSH1 0x20 PUSH1 0x40 MLOAD DUP1 DUP4 SUB DUP2 DUP7 GAS STATICCALL ISZERO DUP1 ISZERO PUSH2 0x400 JUMPI RETURNDATASIZE PUSH1 0x0 DUP1 RETURNDATACOPY RETURNDATASIZE PUSH1 0x0 REVERT JUMPDEST POP POP POP POP PUSH1 0x40 MLOAD RETURNDATASIZE PUSH1 0x1F NOT PUSH1 0x1F DUP3 ADD AND DUP3 ADD DUP1 PUSH1 0x40 MSTORE POP DUP2 ADD SWAP1 PUSH2 0x424 SWAP2 SWAP1 PUSH2 0x918 JUMP JUMPDEST ISZERO PUSH2 0x44C JUMPI POP PUSH32 0x0 JUMPDEST SWAP2 SWAP1 POP JUMP JUMPDEST PUSH2 0x459 PUSH2 0x7A9 JUMP JUMPDEST PUSH20 0xFFFFFFFFFFFFFFFFFFFFFFFFFFFFFFFFFFFFFFFF DUP3 AND PUSH2 0x4DB JUMPI PUSH1 0x40 MLOAD PUSH32 0x8C379A000000000000000000000000000000000000000000000000000000000 DUP2 MSTORE PUSH1 0x20 PUSH1 0x4 DUP3 ADD MSTORE PUSH1 0x17 PUSH1 0x24 DUP3 ADD MSTORE PUSH32 0x436F6C6C656374696F6E206E756C6C2061646472657373000000000000000000 PUSH1 0x44 DUP3 ADD MSTORE PUSH1 0x64 ADD JUMPDEST PUSH1 0x40 MLOAD DUP1 SWAP2 SUB SWAP1 REVERT JUMPDEST PUSH20 0xFFFFFFFFFFFFFFFFFFFFFFFFFFFFFFFFFFFFFFFF DUP2 AND PUSH2 0x558 JUMPI PUSH1 0x40 MLOAD PUSH32 0x8C379A000000000000000000000000000000000000000000000000000000000 DUP2 MSTORE PUSH1 0x20 PUSH1 0x4 DUP3 ADD MSTORE PUSH1 0x1C PUSH1 0x24 DUP3 ADD MSTORE PUSH32 0x5472616E736665724D616E61676572206E756C6C206164647265737300000000 PUSH1 0x44 DUP3 ADD MSTORE PUSH1 0x64 ADD PUSH2 0x4D2 JUMP JUMPDEST PUSH20 0xFFFFFFFFFFFFFFFFFFFFFFFFFFFFFFFFFFFFFFFF DUP3 DUP2 AND PUSH1 0x0 DUP2 DUP2 MSTORE PUSH1 0x1 PUSH1 0x20 MSTORE PUSH1 0x40 DUP1 DUP3 KECCAK256 DUP1 SLOAD PUSH32 0xFFFFFFFFFFFFFFFFFFFFFFFF0000000000000000000000000000000000000000 AND SWAP5 DUP7 AND SWAP5 DUP6 OR SWAP1 SSTORE MLOAD PUSH32 0xDA166BE6BA0EBB71BE3F83E7D669765DE552EA08978BFE3E3E42D54174111B62 SWAP2 SWAP1 LOG3 POP POP JUMP JUMPDEST PUSH2 0x5DC PUSH2 0x7A9 JUMP JUMPDEST PUSH2 0x5E6 PUSH1 0x0 PUSH2 0x82A JUMP JUMPDEST JUMP JUMPDEST PUSH2 0x5F0 PUSH2 0x7A9 JUMP JUMPDEST PUSH20 0xFFFFFFFFFFFFFFFFFFFFFFFFFFFFFFFFFFFFFFFF DUP2 DUP2 AND PUSH1 0x0 SWAP1 DUP2 MSTORE PUSH1 0x1 PUSH1 0x20 MSTORE PUSH1 0x40 SWAP1 KECCAK256 SLOAD AND PUSH2 0x67E JUMPI PUSH1 0x40 MLOAD PUSH32 0x8C379A000000000000000000000000000000000000000000000000000000000 DUP2 MSTORE PUSH1 0x20 PUSH1 0x4 DUP3 ADD MSTORE PUSH1 0x17 PUSH1 0x24 DUP3 ADD MSTORE PUSH32 0x436F6C6C656374696F6E206E756C6C2061646472657373000000000000000000 PUSH1 0x44 DUP3 ADD MSTORE PUSH1 0x64 ADD PUSH2 0x4D2 JUMP JUMPDEST PUSH20 0xFFFFFFFFFFFFFFFFFFFFFFFFFFFFFFFFFFFFFFFF DUP2 AND PUSH1 0x0 DUP2 DUP2 MSTORE PUSH1 0x1 PUSH1 0x20 MSTORE PUSH1 0x40 DUP1 DUP3 KECCAK256 DUP1 SLOAD PUSH32 0xFFFFFFFFFFFFFFFFFFFFFFFF0000000000000000000000000000000000000000 AND SWAP1 SSTORE MLOAD PUSH32 0x8C3BF4BABC197F3DB0E7EC65AAF23FC0EFB0E689436AEEA8514C3F01FD97841F SWAP2 SWAP1 LOG2 POP JUMP JUMPDEST PUSH2 0x6FA PUSH2 0x7A9 JUMP JUMPDEST PUSH20 0xFFFFFFFFFFFFFFFFFFFFFFFFFFFFFFFFFFFFFFFF DUP2 AND PUSH2 0x79D JUMPI PUSH1 0x40 MLOAD PUSH32 0x8C379A000000000000000000000000000000000000000000000000000000000 DUP2 MSTORE PUSH1 0x20 PUSH1 0x4 DUP3 ADD MSTORE PUSH1 0x26 PUSH1 0x24 DUP3 ADD MSTORE PUSH32 0x4F776E61626C653A206E6577206F776E657220697320746865207A65726F2061 PUSH1 0x44 DUP3 ADD MSTORE PUSH32 0x6464726573730000000000000000000000000000000000000000000000000000 PUSH1 0x64 DUP3 ADD MSTORE PUSH1 0x84 ADD PUSH2 0x4D2 JUMP JUMPDEST PUSH2 0x7A6 DUP2 PUSH2 0x82A JUMP JUMPDEST POP JUMP JUMPDEST PUSH1 0x0 SLOAD PUSH20 0xFFFFFFFFFFFFFFFFFFFFFFFFFFFFFFFFFFFFFFFF AND CALLER EQ PUSH2 0x5E6 JUMPI PUSH1 0x40 MLOAD PUSH32 0x8C379A000000000000000000000000000000000000000000000000000000000 DUP2 MSTORE PUSH1 0x20 PUSH1 0x4 DUP3 ADD DUP2 SWAP1 MSTORE PUSH1 0x24 DUP3 ADD MSTORE PUSH32 0x4F776E61626C653A2063616C6C6572206973206E6F7420746865206F776E6572 PUSH1 0x44 DUP3 ADD MSTORE PUSH1 0x64 ADD PUSH2 0x4D2 JUMP JUMPDEST PUSH1 0x0 DUP1 SLOAD PUSH20 0xFFFFFFFFFFFFFFFFFFFFFFFFFFFFFFFFFFFFFFFF DUP4 DUP2 AND PUSH32 0xFFFFFFFFFFFFFFFFFFFFFFFF0000000000000000000000000000000000000000 DUP4 AND DUP2 OR DUP5 SSTORE PUSH1 0x40 MLOAD SWAP2 SWAP1 SWAP3 AND SWAP3 DUP4 SWAP2 PUSH32 0x8BE0079C531659141344CD1FD0A4F28419497F9722A3DAAFE3B4186F6B6457E0 SWAP2 SWAP1 LOG3 POP POP JUMP JUMPDEST DUP1 CALLDATALOAD PUSH20 0xFFFFFFFFFFFFFFFFFFFFFFFFFFFFFFFFFFFFFFFF DUP2 AND DUP2 EQ PUSH2 0x44C JUMPI PUSH1 0x0 DUP1 REVERT JUMPDEST PUSH1 0x0 PUSH1 0x20 DUP3 DUP5 SUB SLT ISZERO PUSH2 0x8D5 JUMPI PUSH1 0x0 DUP1 REVERT JUMPDEST PUSH2 0x8DE DUP3 PUSH2 0x89F JUMP JUMPDEST SWAP4 SWAP3 POP POP POP JUMP JUMPDEST PUSH1 0x0 DUP1 PUSH1 0x40 DUP4 DUP6 SUB SLT ISZERO PUSH2 0x8F8 JUMPI PUSH1 0x0 DUP1 REVERT JUMPDEST PUSH2 0x901 DUP4 PUSH2 0x89F JUMP JUMPDEST SWAP2 POP PUSH2 0x90F PUSH1 0x20 DUP5 ADD PUSH2 0x89F JUMP JUMPDEST SWAP1 POP SWAP3 POP SWAP3 SWAP1 POP JUMP JUMPDEST PUSH1 0x0 PUSH1 0x20 DUP3 DUP5 SUB SLT ISZERO PUSH2 0x92A JUMPI PUSH1 0x0 DUP1 REVERT JUMPDEST DUP2 MLOAD DUP1 ISZERO ISZERO DUP2 EQ PUSH2 0x8DE JUMPI PUSH1 0x0 DUP1 REVERT INVALID LOG2 PUSH5 0x6970667358 0x22 SLT KECCAK256 0xC4 0x1E RETURN SMOD 0xC 0xD3 0x5F PUSH8 0x884494B4E8D5923B 0xD3 BALANCE 0xD CALLVALUE JUMP 0xAD 0xFC 0xD0 ISZERO 0xAF 0xCB PUSH23 0xEFB8238464736F6C634300081100330000000000000000 "},"methodIdentifiers":{"INTERFACE_ID_ERC1155()":"33bf6156","INTERFACE_ID_ERC721()":"bc6bc0cd","TRANSFER_MANAGER_ERC1155()":"38928956","TRANSFER_MANAGER_ERC721()":"b1357ddd","addTransferManagerCollection(address,address)":"301b2507","owner()":"8da5cb5b","removeTransferManagerCollection(address)":"e58c7c39","renounceOwnership()":"715018a6","transferManagerAddress(address)":"15f04966","transferManagerForCollection(address)":"d297772f","transferOwnership(address)":"f2fde38b"}}}}}