{
	"hardhat/contracts/protocols/ProtocolAndExecution.sol": {
		"ProtocolAndExecution": {
			"abi": [
				{
					"anonymous": false,
					"inputs": [
						{
							"indexed": false,
							"internalType": "uint256",
							"name": "protocolFee",
							"type": "uint256"
						}
					],
					"name": "NewProtocolFee",
					"type": "event"
				},
				{
					"anonymous": false,
					"inputs": [
						{
							"indexed": true,
							"internalType": "address",
							"name": "previousOwner",
							"type": "address"
						},
						{
							"indexed": true,
							"internalType": "address",
							"name": "newOwner",
							"type": "address"
						}
					],
					"name": "OwnershipTransferred",
					"type": "event"
				},
				{
					"inputs": [],
					"name": "owner",
					"outputs": [
						{
							"internalType": "address",
							"name": "",
							"type": "address"
						}
					],
					"stateMutability": "view",
					"type": "function"
				},
				{
					"inputs": [
						{
							"components": [
								{
									"internalType": "bool",
									"name": "isDealer",
									"type": "bool"
								},
								{
									"internalType": "address",
									"name": "takerAddress",
									"type": "address"
								},
								{
									"internalType": "uint256",
									"name": "price",
									"type": "uint256"
								},
								{
									"internalType": "uint256",
									"name": "tokenId",
									"type": "uint256"
								}
							],
							"internalType": "struct MarketTypes.User",
							"name": "userSeller",
							"type": "tuple"
						},
						{
							"components": [
								{
									"internalType": "bool",
									"name": "isDealer",
									"type": "bool"
								},
								{
									"internalType": "address",
									"name": "edemSigner",
									"type": "address"
								},
								{
									"internalType": "address",
									"name": "collection",
									"type": "address"
								},
								{
									"internalType": "uint256",
									"name": "tokenId",
									"type": "uint256"
								},
								{
									"internalType": "uint256",
									"name": "nftAmount",
									"type": "uint256"
								},
								{
									"internalType": "uint256",
									"name": "price",
									"type": "uint256"
								},
								{
									"internalType": "address",
									"name": "protocolAddress",
									"type": "address"
								},
								{
									"internalType": "address",
									"name": "tradeTokenAddress",
									"type": "address"
								},
								{
									"internalType": "uint256",
									"name": "nonce",
									"type": "uint256"
								},
								{
									"internalType": "uint256",
									"name": "startTime",
									"type": "uint256"
								},
								{
									"internalType": "uint256",
									"name": "endTime",
									"type": "uint256"
								},
								{
									"internalType": "uint8",
									"name": "v",
									"type": "uint8"
								},
								{
									"internalType": "bytes32",
									"name": "r",
									"type": "bytes32"
								},
								{
									"internalType": "bytes32",
									"name": "s",
									"type": "bytes32"
								}
							],
							"internalType": "struct MarketTypes.MarketPlace",
							"name": "marketProposer",
							"type": "tuple"
						}
					],
					"name": "possibleAcceptSuggest",
					"outputs": [
						{
							"internalType": "bool",
							"name": "",
							"type": "bool"
						},
						{
							"internalType": "uint256",
							"name": "",
							"type": "uint256"
						},
						{
							"internalType": "uint256",
							"name": "",
							"type": "uint256"
						}
					],
					"stateMutability": "view",
					"type": "function"
				},
				{
					"inputs": [
						{
							"components": [
								{
									"internalType": "bool",
									"name": "isDealer",
									"type": "bool"
								},
								{
									"internalType": "address",
									"name": "takerAddress",
									"type": "address"
								},
								{
									"internalType": "uint256",
									"name": "price",
									"type": "uint256"
								},
								{
									"internalType": "uint256",
									"name": "tokenId",
									"type": "uint256"
								}
							],
							"internalType": "struct MarketTypes.User",
							"name": "userProposer",
							"type": "tuple"
						},
						{
							"components": [
								{
									"internalType": "bool",
									"name": "isDealer",
									"type": "bool"
								},
								{
									"internalType": "address",
									"name": "edemSigner",
									"type": "address"
								},
								{
									"internalType": "address",
									"name": "collection",
									"type": "address"
								},
								{
									"internalType": "uint256",
									"name": "tokenId",
									"type": "uint256"
								},
								{
									"internalType": "uint256",
									"name": "nftAmount",
									"type": "uint256"
								},
								{
									"internalType": "uint256",
									"name": "price",
									"type": "uint256"
								},
								{
									"internalType": "address",
									"name": "protocolAddress",
									"type": "address"
								},
								{
									"internalType": "address",
									"name": "tradeTokenAddress",
									"type": "address"
								},
								{
									"internalType": "uint256",
									"name": "nonce",
									"type": "uint256"
								},
								{
									"internalType": "uint256",
									"name": "startTime",
									"type": "uint256"
								},
								{
									"internalType": "uint256",
									"name": "endTime",
									"type": "uint256"
								},
								{
									"internalType": "uint8",
									"name": "v",
									"type": "uint8"
								},
								{
									"internalType": "bytes32",
									"name": "r",
									"type": "bytes32"
								},
								{
									"internalType": "bytes32",
									"name": "s",
									"type": "bytes32"
								}
							],
							"internalType": "struct MarketTypes.MarketPlace",
							"name": "marketSeller",
							"type": "tuple"
						}
					],
					"name": "possiblePurchase",
					"outputs": [
						{
							"internalType": "bool",
							"name": "",
							"type": "bool"
						},
						{
							"internalType": "uint256",
							"name": "",
							"type": "uint256"
						},
						{
							"internalType": "uint256",
							"name": "",
							"type": "uint256"
						}
					],
					"stateMutability": "view",
					"type": "function"
				},
				{
					"inputs": [],
					"name": "renounceOwnership",
					"outputs": [],
					"stateMutability": "nonpayable",
					"type": "function"
				},
				{
					"inputs": [
						{
							"internalType": "uint256",
							"name": "newProtocolFee",
							"type": "uint256"
						}
					],
					"name": "setProtocolFee",
					"outputs": [],
					"stateMutability": "nonpayable",
					"type": "function"
				},
				{
					"inputs": [
						{
							"internalType": "address",
							"name": "newOwner",
							"type": "address"
						}
					],
					"name": "transferOwnership",
					"outputs": [],
					"stateMutability": "nonpayable",
					"type": "function"
				},
				{
					"inputs": [],
					"name": "viewProtocolFee",
					"outputs": [
						{
							"internalType": "uint256",
							"name": "",
							"type": "uint256"
						}
					],
					"stateMutability": "view",
					"type": "function"
				}
			],
			"devdoc": {
				"kind": "dev",
				"methods": {
					"owner()": {
						"details": "Returns the address of the current owner."
					},
					"renounceOwnership()": {
						"details": "Leaves the contract without owner. It will not be possible to call `onlyOwner` functions anymore. Can only be called by the current owner. NOTE: Renouncing ownership will leave the contract without an owner, thereby removing any functionality that is only available to the owner."
					},
					"transferOwnership(address)": {
						"details": "Transfers ownership of the contract to a new account (`newOwner`). Can only be called by the current owner."
					}
				},
				"version": 1
			},
			"evm": {
				"assembly": "    /* \"hardhat/contracts/protocols/ProtocolAndExecution.sol\":300:2239  contract ProtocolAndExecution is Ownable, IProtocolAndExecution {... */\n  mstore(0x40, 0x80)\n    /* \"hardhat/contracts/protocols/ProtocolAndExecution.sol\":579:581  10 */\n  0x0a\n    /* \"hardhat/contracts/protocols/ProtocolAndExecution.sol\":547:581  uint256 internal _protocolFee = 10 */\n  0x01\n  sstore\n    /* \"hardhat/contracts/protocols/ProtocolAndExecution.sol\":300:2239  contract ProtocolAndExecution is Ownable, IProtocolAndExecution {... */\n  callvalue\n  dup1\n  iszero\n  tag_1\n  jumpi\n  0x00\n  dup1\n  revert\ntag_1:\n  pop\n    /* \"@openzeppelin/contracts/access/Ownable.sol\":936:968  _transferOwnership(_msgSender()) */\n  tag_4\n    /* \"@openzeppelin/contracts/access/Ownable.sol\":955:967  _msgSender() */\n  tag_5\n    /* \"@openzeppelin/contracts/access/Ownable.sol\":955:965  _msgSender */\n  shl(0x20, tag_6)\n    /* \"@openzeppelin/contracts/access/Ownable.sol\":955:967  _msgSender() */\n  0x20\n  shr\n  jump\t// in\ntag_5:\n    /* \"@openzeppelin/contracts/access/Ownable.sol\":936:954  _transferOwnership */\n  shl(0x20, tag_7)\n    /* \"@openzeppelin/contracts/access/Ownable.sol\":936:968  _transferOwnership(_msgSender()) */\n  0x20\n  shr\n  jump\t// in\ntag_4:\n    /* \"hardhat/contracts/protocols/ProtocolAndExecution.sol\":300:2239  contract ProtocolAndExecution is Ownable, IProtocolAndExecution {... */\n  jump(tag_8)\n    /* \"@openzeppelin/contracts/utils/Context.sol\":640:736  function _msgSender() internal view virtual returns (address) {... */\ntag_6:\n    /* \"@openzeppelin/contracts/utils/Context.sol\":693:700  address */\n  0x00\n    /* \"@openzeppelin/contracts/utils/Context.sol\":719:729  msg.sender */\n  caller\n    /* \"@openzeppelin/contracts/utils/Context.sol\":712:729  return msg.sender */\n  swap1\n  pop\n    /* \"@openzeppelin/contracts/utils/Context.sol\":640:736  function _msgSender() internal view virtual returns (address) {... */\n  swap1\n  jump\t// out\n    /* \"@openzeppelin/contracts/access/Ownable.sol\":2433:2620  function _transferOwnership(address newOwner) internal virtual {... */\ntag_7:\n    /* \"@openzeppelin/contracts/access/Ownable.sol\":2506:2522  address oldOwner */\n  0x00\n    /* \"@openzeppelin/contracts/access/Ownable.sol\":2525:2531  _owner */\n  dup1\n  0x00\n  swap1\n  sload\n  swap1\n  0x0100\n  exp\n  swap1\n  div\n  0xffffffffffffffffffffffffffffffffffffffff\n  and\n    /* \"@openzeppelin/contracts/access/Ownable.sol\":2506:2531  address oldOwner = _owner */\n  swap1\n  pop\n    /* \"@openzeppelin/contracts/access/Ownable.sol\":2550:2558  newOwner */\n  dup2\n    /* \"@openzeppelin/contracts/access/Ownable.sol\":2541:2547  _owner */\n  0x00\n  dup1\n    /* \"@openzeppelin/contracts/access/Ownable.sol\":2541:2558  _owner = newOwner */\n  0x0100\n  exp\n  dup2\n  sload\n  dup2\n  0xffffffffffffffffffffffffffffffffffffffff\n  mul\n  not\n  and\n  swap1\n  dup4\n  0xffffffffffffffffffffffffffffffffffffffff\n  and\n  mul\n  or\n  swap1\n  sstore\n  pop\n    /* \"@openzeppelin/contracts/access/Ownable.sol\":2604:2612  newOwner */\n  dup2\n    /* \"@openzeppelin/contracts/access/Ownable.sol\":2573:2613  OwnershipTransferred(oldOwner, newOwner) */\n  0xffffffffffffffffffffffffffffffffffffffff\n  and\n    /* \"@openzeppelin/contracts/access/Ownable.sol\":2594:2602  oldOwner */\n  dup2\n    /* \"@openzeppelin/contracts/access/Ownable.sol\":2573:2613  OwnershipTransferred(oldOwner, newOwner) */\n  0xffffffffffffffffffffffffffffffffffffffff\n  and\n  0x8be0079c531659141344cd1fd0a4f28419497f9722a3daafe3b4186f6b6457e0\n  mload(0x40)\n  mload(0x40)\n  dup1\n  swap2\n  sub\n  swap1\n  log3\n    /* \"@openzeppelin/contracts/access/Ownable.sol\":2496:2620  {... */\n  pop\n    /* \"@openzeppelin/contracts/access/Ownable.sol\":2433:2620  function _transferOwnership(address newOwner) internal virtual {... */\n  pop\n  jump\t// out\n    /* \"hardhat/contracts/protocols/ProtocolAndExecution.sol\":300:2239  contract ProtocolAndExecution is Ownable, IProtocolAndExecution {... */\ntag_8:\n  dataSize(sub_0)\n  dup1\n  dataOffset(sub_0)\n  0x00\n  codecopy\n  0x00\n  return\nstop\n\nsub_0: assembly {\n        /* \"hardhat/contracts/protocols/ProtocolAndExecution.sol\":300:2239  contract ProtocolAndExecution is Ownable, IProtocolAndExecution {... */\n      mstore(0x40, 0x80)\n      callvalue\n      dup1\n      iszero\n      tag_1\n      jumpi\n      0x00\n      dup1\n      revert\n    tag_1:\n      pop\n      jumpi(tag_2, lt(calldatasize, 0x04))\n      shr(0xe0, calldataload(0x00))\n      dup1\n      0x8da5cb5b\n      gt\n      tag_10\n      jumpi\n      dup1\n      0x8da5cb5b\n      eq\n      tag_6\n      jumpi\n      dup1\n      0x9dd1cda6\n      eq\n      tag_7\n      jumpi\n      dup1\n      0xf2fde38b\n      eq\n      tag_8\n      jumpi\n      dup1\n      0xfceb5d6c\n      eq\n      tag_9\n      jumpi\n      jump(tag_2)\n    tag_10:\n      dup1\n      0x27891057\n      eq\n      tag_3\n      jumpi\n      dup1\n      0x715018a6\n      eq\n      tag_4\n      jumpi\n      dup1\n      0x787dce3d\n      eq\n      tag_5\n      jumpi\n    tag_2:\n      0x00\n      dup1\n      revert\n        /* \"hardhat/contracts/protocols/ProtocolAndExecution.sol\":658:1210  function possibleAcceptSuggest(... */\n    tag_3:\n      tag_11\n      0x04\n      dup1\n      calldatasize\n      sub\n      dup2\n      add\n      swap1\n      tag_12\n      swap2\n      swap1\n      tag_13\n      jump\t// in\n    tag_12:\n      tag_14\n      jump\t// in\n    tag_11:\n      mload(0x40)\n      tag_15\n      swap4\n      swap3\n      swap2\n      swap1\n      tag_16\n      jump\t// in\n    tag_15:\n      mload(0x40)\n      dup1\n      swap2\n      sub\n      swap1\n      return\n        /* \"@openzeppelin/contracts/access/Ownable.sol\":1831:1932  function renounceOwnership() public virtual onlyOwner {... */\n    tag_4:\n      tag_17\n      tag_18\n      jump\t// in\n    tag_17:\n      stop\n        /* \"hardhat/contracts/protocols/ProtocolAndExecution.sol\":1927:2085  function setProtocolFee(uint256 newProtocolFee) external onlyOwner {... */\n    tag_5:\n      tag_19\n      0x04\n      dup1\n      calldatasize\n      sub\n      dup2\n      add\n      swap1\n      tag_20\n      swap2\n      swap1\n      tag_21\n      jump\t// in\n    tag_20:\n      tag_22\n      jump\t// in\n    tag_19:\n      stop\n        /* \"@openzeppelin/contracts/access/Ownable.sol\":1201:1286  function owner() public view virtual returns (address) {... */\n    tag_6:\n      tag_23\n      tag_24\n      jump\t// in\n    tag_23:\n      mload(0x40)\n      tag_25\n      swap2\n      swap1\n      tag_26\n      jump\t// in\n    tag_25:\n      mload(0x40)\n      dup1\n      swap2\n      sub\n      swap1\n      return\n        /* \"hardhat/contracts/protocols/ProtocolAndExecution.sol\":2133:2237  function viewProtocolFee() external view override returns (uint256) {... */\n    tag_7:\n      tag_27\n      tag_28\n      jump\t// in\n    tag_27:\n      mload(0x40)\n      tag_29\n      swap2\n      swap1\n      tag_30\n      jump\t// in\n    tag_29:\n      mload(0x40)\n      dup1\n      swap2\n      sub\n      swap1\n      return\n        /* \"@openzeppelin/contracts/access/Ownable.sol\":2081:2279  function transferOwnership(address newOwner) public virtual onlyOwner {... */\n    tag_8:\n      tag_31\n      0x04\n      dup1\n      calldatasize\n      sub\n      dup2\n      add\n      swap1\n      tag_32\n      swap2\n      swap1\n      tag_33\n      jump\t// in\n    tag_32:\n      tag_34\n      jump\t// in\n    tag_31:\n      stop\n        /* \"hardhat/contracts/protocols/ProtocolAndExecution.sol\":1286:1879  function possiblePurchase(... */\n    tag_9:\n      tag_35\n      0x04\n      dup1\n      calldatasize\n      sub\n      dup2\n      add\n      swap1\n      tag_36\n      swap2\n      swap1\n      tag_13\n      jump\t// in\n    tag_36:\n      tag_37\n      jump\t// in\n    tag_35:\n      mload(0x40)\n      tag_38\n      swap4\n      swap3\n      swap2\n      swap1\n      tag_16\n      jump\t// in\n    tag_38:\n      mload(0x40)\n      dup1\n      swap2\n      sub\n      swap1\n      return\n        /* \"hardhat/contracts/protocols/ProtocolAndExecution.sol\":658:1210  function possibleAcceptSuggest(... */\n    tag_14:\n        /* \"hardhat/contracts/protocols/ProtocolAndExecution.sol\":830:834  bool */\n      0x00\n        /* \"hardhat/contracts/protocols/ProtocolAndExecution.sol\":836:843  uint256 */\n      dup1\n        /* \"hardhat/contracts/protocols/ProtocolAndExecution.sol\":845:852  uint256 */\n      0x00\n        /* \"hardhat/contracts/protocols/ProtocolAndExecution.sol\":911:921  userSeller */\n      dup5\n        /* \"hardhat/contracts/protocols/ProtocolAndExecution.sol\":911:927  userSeller.price */\n      0x40\n      add\n      calldataload\n        /* \"hardhat/contracts/protocols/ProtocolAndExecution.sol\":887:901  marketProposer */\n      dup5\n        /* \"hardhat/contracts/protocols/ProtocolAndExecution.sol\":887:907  marketProposer.price */\n      0xa0\n      add\n      calldataload\n        /* \"hardhat/contracts/protocols/ProtocolAndExecution.sol\":887:927  marketProposer.price == userSeller.price */\n      eq\n        /* \"hardhat/contracts/protocols/ProtocolAndExecution.sol\":886:994  (marketProposer.price == userSeller.price) &&... */\n      dup1\n      iszero\n      tag_40\n      jumpi\n      pop\n        /* \"hardhat/contracts/protocols/ProtocolAndExecution.sol\":975:985  userSeller */\n      dup5\n        /* \"hardhat/contracts/protocols/ProtocolAndExecution.sol\":975:993  userSeller.tokenId */\n      0x60\n      add\n      calldataload\n        /* \"hardhat/contracts/protocols/ProtocolAndExecution.sol\":949:963  marketProposer */\n      dup5\n        /* \"hardhat/contracts/protocols/ProtocolAndExecution.sol\":949:971  marketProposer.tokenId */\n      0x60\n      add\n      calldataload\n        /* \"hardhat/contracts/protocols/ProtocolAndExecution.sol\":949:993  marketProposer.tokenId == userSeller.tokenId */\n      eq\n        /* \"hardhat/contracts/protocols/ProtocolAndExecution.sol\":886:994  (marketProposer.price == userSeller.price) &&... */\n    tag_40:\n        /* \"hardhat/contracts/protocols/ProtocolAndExecution.sol\":886:1057  (marketProposer.price == userSeller.price) &&... */\n      dup1\n      iszero\n      tag_41\n      jumpi\n      pop\n        /* \"hardhat/contracts/protocols/ProtocolAndExecution.sol\":1041:1056  block.timestamp */\n      timestamp\n        /* \"hardhat/contracts/protocols/ProtocolAndExecution.sol\":1015:1029  marketProposer */\n      dup5\n        /* \"hardhat/contracts/protocols/ProtocolAndExecution.sol\":1015:1037  marketProposer.endTime */\n      0x0140\n      add\n      calldataload\n        /* \"hardhat/contracts/protocols/ProtocolAndExecution.sol\":1015:1056  marketProposer.endTime >= block.timestamp */\n      lt\n      iszero\n        /* \"hardhat/contracts/protocols/ProtocolAndExecution.sol\":886:1057  (marketProposer.price == userSeller.price) &&... */\n    tag_41:\n        /* \"hardhat/contracts/protocols/ProtocolAndExecution.sol\":886:1122  (marketProposer.price == userSeller.price) &&... */\n      dup1\n      iszero\n      tag_42\n      jumpi\n      pop\n        /* \"hardhat/contracts/protocols/ProtocolAndExecution.sol\":1106:1121  block.timestamp */\n      timestamp\n        /* \"hardhat/contracts/protocols/ProtocolAndExecution.sol\":1078:1092  marketProposer */\n      dup5\n        /* \"hardhat/contracts/protocols/ProtocolAndExecution.sol\":1078:1102  marketProposer.startTime */\n      0x0120\n      add\n      calldataload\n        /* \"hardhat/contracts/protocols/ProtocolAndExecution.sol\":1078:1121  marketProposer.startTime <= block.timestamp */\n      gt\n      iszero\n        /* \"hardhat/contracts/protocols/ProtocolAndExecution.sol\":886:1122  (marketProposer.price == userSeller.price) &&... */\n    tag_42:\n        /* \"hardhat/contracts/protocols/ProtocolAndExecution.sol\":1137:1147  userSeller */\n      dup6\n        /* \"hardhat/contracts/protocols/ProtocolAndExecution.sol\":1137:1155  userSeller.tokenId */\n      0x60\n      add\n      calldataload\n        /* \"hardhat/contracts/protocols/ProtocolAndExecution.sol\":1169:1183  marketProposer */\n      dup6\n        /* \"hardhat/contracts/protocols/ProtocolAndExecution.sol\":1169:1193  marketProposer.nftAmount */\n      0x80\n      add\n      calldataload\n        /* \"hardhat/contracts/protocols/ProtocolAndExecution.sol\":864:1203  return (... */\n      swap3\n      pop\n      swap3\n      pop\n      swap3\n      pop\n        /* \"hardhat/contracts/protocols/ProtocolAndExecution.sol\":658:1210  function possibleAcceptSuggest(... */\n      swap3\n      pop\n      swap3\n      pop\n      swap3\n      jump\t// out\n        /* \"@openzeppelin/contracts/access/Ownable.sol\":1831:1932  function renounceOwnership() public virtual onlyOwner {... */\n    tag_18:\n        /* \"@openzeppelin/contracts/access/Ownable.sol\":1094:1107  _checkOwner() */\n      tag_44\n        /* \"@openzeppelin/contracts/access/Ownable.sol\":1094:1105  _checkOwner */\n      tag_45\n        /* \"@openzeppelin/contracts/access/Ownable.sol\":1094:1107  _checkOwner() */\n      jump\t// in\n    tag_44:\n        /* \"@openzeppelin/contracts/access/Ownable.sol\":1895:1925  _transferOwnership(address(0)) */\n      tag_47\n        /* \"@openzeppelin/contracts/access/Ownable.sol\":1922:1923  0 */\n      0x00\n        /* \"@openzeppelin/contracts/access/Ownable.sol\":1895:1913  _transferOwnership */\n      tag_48\n        /* \"@openzeppelin/contracts/access/Ownable.sol\":1895:1925  _transferOwnership(address(0)) */\n      jump\t// in\n    tag_47:\n        /* \"@openzeppelin/contracts/access/Ownable.sol\":1831:1932  function renounceOwnership() public virtual onlyOwner {... */\n      jump\t// out\n        /* \"hardhat/contracts/protocols/ProtocolAndExecution.sol\":1927:2085  function setProtocolFee(uint256 newProtocolFee) external onlyOwner {... */\n    tag_22:\n        /* \"@openzeppelin/contracts/access/Ownable.sol\":1094:1107  _checkOwner() */\n      tag_50\n        /* \"@openzeppelin/contracts/access/Ownable.sol\":1094:1105  _checkOwner */\n      tag_45\n        /* \"@openzeppelin/contracts/access/Ownable.sol\":1094:1107  _checkOwner() */\n      jump\t// in\n    tag_50:\n        /* \"hardhat/contracts/protocols/ProtocolAndExecution.sol\":2019:2033  newProtocolFee */\n      dup1\n        /* \"hardhat/contracts/protocols/ProtocolAndExecution.sol\":2004:2016  _protocolFee */\n      0x01\n        /* \"hardhat/contracts/protocols/ProtocolAndExecution.sol\":2004:2033  _protocolFee = newProtocolFee */\n      dup2\n      swap1\n      sstore\n      pop\n        /* \"hardhat/contracts/protocols/ProtocolAndExecution.sol\":2048:2078  NewProtocolFee(newProtocolFee) */\n      0x3e1c6f794380f768303ee10adb978482d0ee037b0517bdabf3118141632078a6\n        /* \"hardhat/contracts/protocols/ProtocolAndExecution.sol\":2063:2077  newProtocolFee */\n      dup2\n        /* \"hardhat/contracts/protocols/ProtocolAndExecution.sol\":2048:2078  NewProtocolFee(newProtocolFee) */\n      mload(0x40)\n      tag_52\n      swap2\n      swap1\n      tag_30\n      jump\t// in\n    tag_52:\n      mload(0x40)\n      dup1\n      swap2\n      sub\n      swap1\n      log1\n        /* \"hardhat/contracts/protocols/ProtocolAndExecution.sol\":1927:2085  function setProtocolFee(uint256 newProtocolFee) external onlyOwner {... */\n      pop\n      jump\t// out\n        /* \"@openzeppelin/contracts/access/Ownable.sol\":1201:1286  function owner() public view virtual returns (address) {... */\n    tag_24:\n        /* \"@openzeppelin/contracts/access/Ownable.sol\":1247:1254  address */\n      0x00\n        /* \"@openzeppelin/contracts/access/Ownable.sol\":1273:1279  _owner */\n      dup1\n      0x00\n      swap1\n      sload\n      swap1\n      0x0100\n      exp\n      swap1\n      div\n      0xffffffffffffffffffffffffffffffffffffffff\n      and\n        /* \"@openzeppelin/contracts/access/Ownable.sol\":1266:1279  return _owner */\n      swap1\n      pop\n        /* \"@openzeppelin/contracts/access/Ownable.sol\":1201:1286  function owner() public view virtual returns (address) {... */\n      swap1\n      jump\t// out\n        /* \"hardhat/contracts/protocols/ProtocolAndExecution.sol\":2133:2237  function viewProtocolFee() external view override returns (uint256) {... */\n    tag_28:\n        /* \"hardhat/contracts/protocols/ProtocolAndExecution.sol\":2192:2199  uint256 */\n      0x00\n        /* \"hardhat/contracts/protocols/ProtocolAndExecution.sol\":2218:2230  _protocolFee */\n      sload(0x01)\n        /* \"hardhat/contracts/protocols/ProtocolAndExecution.sol\":2211:2230  return _protocolFee */\n      swap1\n      pop\n        /* \"hardhat/contracts/protocols/ProtocolAndExecution.sol\":2133:2237  function viewProtocolFee() external view override returns (uint256) {... */\n      swap1\n      jump\t// out\n        /* \"@openzeppelin/contracts/access/Ownable.sol\":2081:2279  function transferOwnership(address newOwner) public virtual onlyOwner {... */\n    tag_34:\n        /* \"@openzeppelin/contracts/access/Ownable.sol\":1094:1107  _checkOwner() */\n      tag_56\n        /* \"@openzeppelin/contracts/access/Ownable.sol\":1094:1105  _checkOwner */\n      tag_45\n        /* \"@openzeppelin/contracts/access/Ownable.sol\":1094:1107  _checkOwner() */\n      jump\t// in\n    tag_56:\n        /* \"@openzeppelin/contracts/access/Ownable.sol\":2189:2190  0 */\n      0x00\n        /* \"@openzeppelin/contracts/access/Ownable.sol\":2169:2191  newOwner != address(0) */\n      0xffffffffffffffffffffffffffffffffffffffff\n      and\n        /* \"@openzeppelin/contracts/access/Ownable.sol\":2169:2177  newOwner */\n      dup2\n        /* \"@openzeppelin/contracts/access/Ownable.sol\":2169:2191  newOwner != address(0) */\n      0xffffffffffffffffffffffffffffffffffffffff\n      and\n      sub\n        /* \"@openzeppelin/contracts/access/Ownable.sol\":2161:2234  require(newOwner != address(0), \"Ownable: new owner is the zero address\") */\n      tag_58\n      jumpi\n      mload(0x40)\n      0x08c379a000000000000000000000000000000000000000000000000000000000\n      dup2\n      mstore\n      0x04\n      add\n      tag_59\n      swap1\n      tag_60\n      jump\t// in\n    tag_59:\n      mload(0x40)\n      dup1\n      swap2\n      sub\n      swap1\n      revert\n    tag_58:\n        /* \"@openzeppelin/contracts/access/Ownable.sol\":2244:2272  _transferOwnership(newOwner) */\n      tag_61\n        /* \"@openzeppelin/contracts/access/Ownable.sol\":2263:2271  newOwner */\n      dup2\n        /* \"@openzeppelin/contracts/access/Ownable.sol\":2244:2262  _transferOwnership */\n      tag_48\n        /* \"@openzeppelin/contracts/access/Ownable.sol\":2244:2272  _transferOwnership(newOwner) */\n      jump\t// in\n    tag_61:\n        /* \"@openzeppelin/contracts/access/Ownable.sol\":2081:2279  function transferOwnership(address newOwner) public virtual onlyOwner {... */\n      pop\n      jump\t// out\n        /* \"hardhat/contracts/protocols/ProtocolAndExecution.sol\":1286:1879  function possiblePurchase(... */\n    tag_37:\n        /* \"hardhat/contracts/protocols/ProtocolAndExecution.sol\":1453:1457  bool */\n      0x00\n        /* \"hardhat/contracts/protocols/ProtocolAndExecution.sol\":1459:1466  uint256 */\n      dup1\n        /* \"hardhat/contracts/protocols/ProtocolAndExecution.sol\":1468:1475  uint256 */\n      0x00\n        /* \"hardhat/contracts/protocols/ProtocolAndExecution.sol\":1549:1561  userProposer */\n      dup5\n        /* \"hardhat/contracts/protocols/ProtocolAndExecution.sol\":1549:1567  userProposer.price */\n      0x40\n      add\n      calldataload\n        /* \"hardhat/contracts/protocols/ProtocolAndExecution.sol\":1527:1539  marketSeller */\n      dup5\n        /* \"hardhat/contracts/protocols/ProtocolAndExecution.sol\":1527:1545  marketSeller.price */\n      0xa0\n      add\n      calldataload\n        /* \"hardhat/contracts/protocols/ProtocolAndExecution.sol\":1527:1567  marketSeller.price == userProposer.price */\n      eq\n        /* \"hardhat/contracts/protocols/ProtocolAndExecution.sol\":1526:1638  (marketSeller.price == userProposer.price) &&... */\n      dup1\n      iszero\n      tag_63\n      jumpi\n      pop\n        /* \"hardhat/contracts/protocols/ProtocolAndExecution.sol\":1617:1629  marketSeller */\n      dup4\n        /* \"hardhat/contracts/protocols/ProtocolAndExecution.sol\":1617:1637  marketSeller.tokenId */\n      0x60\n      add\n      calldataload\n        /* \"hardhat/contracts/protocols/ProtocolAndExecution.sol\":1593:1605  marketSeller */\n      dup5\n        /* \"hardhat/contracts/protocols/ProtocolAndExecution.sol\":1593:1613  marketSeller.tokenId */\n      0x60\n      add\n      calldataload\n        /* \"hardhat/contracts/protocols/ProtocolAndExecution.sol\":1593:1637  marketSeller.tokenId == marketSeller.tokenId */\n      eq\n        /* \"hardhat/contracts/protocols/ProtocolAndExecution.sol\":1526:1638  (marketSeller.price == userProposer.price) &&... */\n    tag_63:\n        /* \"hardhat/contracts/protocols/ProtocolAndExecution.sol\":1526:1705  (marketSeller.price == userProposer.price) &&... */\n      dup1\n      iszero\n      tag_64\n      jumpi\n      pop\n        /* \"hardhat/contracts/protocols/ProtocolAndExecution.sol\":1689:1704  block.timestamp */\n      timestamp\n        /* \"hardhat/contracts/protocols/ProtocolAndExecution.sol\":1663:1675  marketSeller */\n      dup5\n        /* \"hardhat/contracts/protocols/ProtocolAndExecution.sol\":1663:1685  marketSeller.startTime */\n      0x0120\n      add\n      calldataload\n        /* \"hardhat/contracts/protocols/ProtocolAndExecution.sol\":1663:1704  marketSeller.startTime <= block.timestamp */\n      gt\n      iszero\n        /* \"hardhat/contracts/protocols/ProtocolAndExecution.sol\":1526:1705  (marketSeller.price == userProposer.price) &&... */\n    tag_64:\n        /* \"hardhat/contracts/protocols/ProtocolAndExecution.sol\":1526:1770  (marketSeller.price == userProposer.price) &&... */\n      dup1\n      iszero\n      tag_65\n      jumpi\n      pop\n        /* \"hardhat/contracts/protocols/ProtocolAndExecution.sol\":1754:1769  block.timestamp */\n      timestamp\n        /* \"hardhat/contracts/protocols/ProtocolAndExecution.sol\":1730:1742  marketSeller */\n      dup5\n        /* \"hardhat/contracts/protocols/ProtocolAndExecution.sol\":1730:1750  marketSeller.endTime */\n      0x0140\n      add\n      calldataload\n        /* \"hardhat/contracts/protocols/ProtocolAndExecution.sol\":1730:1769  marketSeller.endTime >= block.timestamp */\n      lt\n      iszero\n        /* \"hardhat/contracts/protocols/ProtocolAndExecution.sol\":1526:1770  (marketSeller.price == userProposer.price) &&... */\n    tag_65:\n        /* \"hardhat/contracts/protocols/ProtocolAndExecution.sol\":1788:1800  marketSeller */\n      dup5\n        /* \"hardhat/contracts/protocols/ProtocolAndExecution.sol\":1788:1808  marketSeller.tokenId */\n      0x60\n      add\n      calldataload\n        /* \"hardhat/contracts/protocols/ProtocolAndExecution.sol\":1826:1838  marketSeller */\n      dup6\n        /* \"hardhat/contracts/protocols/ProtocolAndExecution.sol\":1826:1848  marketSeller.nftAmount */\n      0x80\n      add\n      calldataload\n        /* \"hardhat/contracts/protocols/ProtocolAndExecution.sol\":1487:1872  return (... */\n      swap3\n      pop\n      swap3\n      pop\n      swap3\n      pop\n        /* \"hardhat/contracts/protocols/ProtocolAndExecution.sol\":1286:1879  function possiblePurchase(... */\n      swap3\n      pop\n      swap3\n      pop\n      swap3\n      jump\t// out\n        /* \"@openzeppelin/contracts/access/Ownable.sol\":1359:1489  function _checkOwner() internal view virtual {... */\n    tag_45:\n        /* \"@openzeppelin/contracts/access/Ownable.sol\":1433:1445  _msgSender() */\n      tag_67\n        /* \"@openzeppelin/contracts/access/Ownable.sol\":1433:1443  _msgSender */\n      tag_68\n        /* \"@openzeppelin/contracts/access/Ownable.sol\":1433:1445  _msgSender() */\n      jump\t// in\n    tag_67:\n        /* \"@openzeppelin/contracts/access/Ownable.sol\":1422:1445  owner() == _msgSender() */\n      0xffffffffffffffffffffffffffffffffffffffff\n      and\n        /* \"@openzeppelin/contracts/access/Ownable.sol\":1422:1429  owner() */\n      tag_69\n        /* \"@openzeppelin/contracts/access/Ownable.sol\":1422:1427  owner */\n      tag_24\n        /* \"@openzeppelin/contracts/access/Ownable.sol\":1422:1429  owner() */\n      jump\t// in\n    tag_69:\n        /* \"@openzeppelin/contracts/access/Ownable.sol\":1422:1445  owner() == _msgSender() */\n      0xffffffffffffffffffffffffffffffffffffffff\n      and\n      eq\n        /* \"@openzeppelin/contracts/access/Ownable.sol\":1414:1482  require(owner() == _msgSender(), \"Ownable: caller is not the owner\") */\n      tag_70\n      jumpi\n      mload(0x40)\n      0x08c379a000000000000000000000000000000000000000000000000000000000\n      dup2\n      mstore\n      0x04\n      add\n      tag_71\n      swap1\n      tag_72\n      jump\t// in\n    tag_71:\n      mload(0x40)\n      dup1\n      swap2\n      sub\n      swap1\n      revert\n    tag_70:\n        /* \"@openzeppelin/contracts/access/Ownable.sol\":1359:1489  function _checkOwner() internal view virtual {... */\n      jump\t// out\n        /* \"@openzeppelin/contracts/access/Ownable.sol\":2433:2620  function _transferOwnership(address newOwner) internal virtual {... */\n    tag_48:\n        /* \"@openzeppelin/contracts/access/Ownable.sol\":2506:2522  address oldOwner */\n      0x00\n        /* \"@openzeppelin/contracts/access/Ownable.sol\":2525:2531  _owner */\n      dup1\n      0x00\n      swap1\n      sload\n      swap1\n      0x0100\n      exp\n      swap1\n      div\n      0xffffffffffffffffffffffffffffffffffffffff\n      and\n        /* \"@openzeppelin/contracts/access/Ownable.sol\":2506:2531  address oldOwner = _owner */\n      swap1\n      pop\n        /* \"@openzeppelin/contracts/access/Ownable.sol\":2550:2558  newOwner */\n      dup2\n        /* \"@openzeppelin/contracts/access/Ownable.sol\":2541:2547  _owner */\n      0x00\n      dup1\n        /* \"@openzeppelin/contracts/access/Ownable.sol\":2541:2558  _owner = newOwner */\n      0x0100\n      exp\n      dup2\n      sload\n      dup2\n      0xffffffffffffffffffffffffffffffffffffffff\n      mul\n      not\n      and\n      swap1\n      dup4\n      0xffffffffffffffffffffffffffffffffffffffff\n      and\n      mul\n      or\n      swap1\n      sstore\n      pop\n        /* \"@openzeppelin/contracts/access/Ownable.sol\":2604:2612  newOwner */\n      dup2\n        /* \"@openzeppelin/contracts/access/Ownable.sol\":2573:2613  OwnershipTransferred(oldOwner, newOwner) */\n      0xffffffffffffffffffffffffffffffffffffffff\n      and\n        /* \"@openzeppelin/contracts/access/Ownable.sol\":2594:2602  oldOwner */\n      dup2\n        /* \"@openzeppelin/contracts/access/Ownable.sol\":2573:2613  OwnershipTransferred(oldOwner, newOwner) */\n      0xffffffffffffffffffffffffffffffffffffffff\n      and\n      0x8be0079c531659141344cd1fd0a4f28419497f9722a3daafe3b4186f6b6457e0\n      mload(0x40)\n      mload(0x40)\n      dup1\n      swap2\n      sub\n      swap1\n      log3\n        /* \"@openzeppelin/contracts/access/Ownable.sol\":2496:2620  {... */\n      pop\n        /* \"@openzeppelin/contracts/access/Ownable.sol\":2433:2620  function _transferOwnership(address newOwner) internal virtual {... */\n      pop\n      jump\t// out\n        /* \"@openzeppelin/contracts/utils/Context.sol\":640:736  function _msgSender() internal view virtual returns (address) {... */\n    tag_68:\n        /* \"@openzeppelin/contracts/utils/Context.sol\":693:700  address */\n      0x00\n        /* \"@openzeppelin/contracts/utils/Context.sol\":719:729  msg.sender */\n      caller\n        /* \"@openzeppelin/contracts/utils/Context.sol\":712:729  return msg.sender */\n      swap1\n      pop\n        /* \"@openzeppelin/contracts/utils/Context.sol\":640:736  function _msgSender() internal view virtual returns (address) {... */\n      swap1\n      jump\t// out\n        /* \"#utility.yul\":88:205   */\n    tag_76:\n        /* \"#utility.yul\":197:198   */\n      0x00\n        /* \"#utility.yul\":194:195   */\n      dup1\n        /* \"#utility.yul\":187:199   */\n      revert\n        /* \"#utility.yul\":334:451   */\n    tag_78:\n        /* \"#utility.yul\":443:444   */\n      0x00\n        /* \"#utility.yul\":440:441   */\n      dup1\n        /* \"#utility.yul\":433:445   */\n      revert\n        /* \"#utility.yul\":488:716   */\n    tag_79:\n        /* \"#utility.yul\":557:562   */\n      0x00\n        /* \"#utility.yul\":598:601   */\n      0x80\n        /* \"#utility.yul\":589:595   */\n      dup3\n        /* \"#utility.yul\":584:587   */\n      dup5\n        /* \"#utility.yul\":580:596   */\n      sub\n        /* \"#utility.yul\":576:602   */\n      slt\n        /* \"#utility.yul\":573:686   */\n      iszero\n      tag_103\n      jumpi\n        /* \"#utility.yul\":605:684   */\n      tag_104\n      tag_78\n      jump\t// in\n    tag_104:\n        /* \"#utility.yul\":573:686   */\n    tag_103:\n        /* \"#utility.yul\":704:710   */\n      dup2\n        /* \"#utility.yul\":695:710   */\n      swap1\n      pop\n        /* \"#utility.yul\":488:716   */\n      swap3\n      swap2\n      pop\n      pop\n      jump\t// out\n        /* \"#utility.yul\":760:995   */\n    tag_80:\n        /* \"#utility.yul\":836:841   */\n      0x00\n        /* \"#utility.yul\":877:880   */\n      0x01c0\n        /* \"#utility.yul\":868:874   */\n      dup3\n        /* \"#utility.yul\":863:866   */\n      dup5\n        /* \"#utility.yul\":859:875   */\n      sub\n        /* \"#utility.yul\":855:881   */\n      slt\n        /* \"#utility.yul\":852:965   */\n      iszero\n      tag_106\n      jumpi\n        /* \"#utility.yul\":884:963   */\n      tag_107\n      tag_78\n      jump\t// in\n    tag_107:\n        /* \"#utility.yul\":852:965   */\n    tag_106:\n        /* \"#utility.yul\":983:989   */\n      dup2\n        /* \"#utility.yul\":974:989   */\n      swap1\n      pop\n        /* \"#utility.yul\":760:995   */\n      swap3\n      swap2\n      pop\n      pop\n      jump\t// out\n        /* \"#utility.yul\":1001:1583   */\n    tag_13:\n        /* \"#utility.yul\":1122:1128   */\n      0x00\n        /* \"#utility.yul\":1130:1136   */\n      dup1\n        /* \"#utility.yul\":1179:1182   */\n      0x0240\n        /* \"#utility.yul\":1167:1176   */\n      dup4\n        /* \"#utility.yul\":1158:1165   */\n      dup6\n        /* \"#utility.yul\":1154:1177   */\n      sub\n        /* \"#utility.yul\":1150:1183   */\n      slt\n        /* \"#utility.yul\":1147:1267   */\n      iszero\n      tag_109\n      jumpi\n        /* \"#utility.yul\":1186:1265   */\n      tag_110\n      tag_76\n      jump\t// in\n    tag_110:\n        /* \"#utility.yul\":1147:1267   */\n    tag_109:\n        /* \"#utility.yul\":1306:1307   */\n      0x00\n        /* \"#utility.yul\":1331:1407   */\n      tag_111\n        /* \"#utility.yul\":1399:1406   */\n      dup6\n        /* \"#utility.yul\":1390:1396   */\n      dup3\n        /* \"#utility.yul\":1379:1388   */\n      dup7\n        /* \"#utility.yul\":1375:1397   */\n      add\n        /* \"#utility.yul\":1331:1407   */\n      tag_79\n      jump\t// in\n    tag_111:\n        /* \"#utility.yul\":1321:1407   */\n      swap3\n      pop\n        /* \"#utility.yul\":1277:1417   */\n      pop\n        /* \"#utility.yul\":1456:1459   */\n      0x80\n        /* \"#utility.yul\":1483:1566   */\n      tag_112\n        /* \"#utility.yul\":1558:1565   */\n      dup6\n        /* \"#utility.yul\":1549:1555   */\n      dup3\n        /* \"#utility.yul\":1538:1547   */\n      dup7\n        /* \"#utility.yul\":1534:1556   */\n      add\n        /* \"#utility.yul\":1483:1566   */\n      tag_80\n      jump\t// in\n    tag_112:\n        /* \"#utility.yul\":1473:1566   */\n      swap2\n      pop\n        /* \"#utility.yul\":1427:1576   */\n      pop\n        /* \"#utility.yul\":1001:1583   */\n      swap3\n      pop\n      swap3\n      swap1\n      pop\n      jump\t// out\n        /* \"#utility.yul\":1589:1679   */\n    tag_81:\n        /* \"#utility.yul\":1623:1630   */\n      0x00\n        /* \"#utility.yul\":1666:1671   */\n      dup2\n        /* \"#utility.yul\":1659:1672   */\n      iszero\n        /* \"#utility.yul\":1652:1673   */\n      iszero\n        /* \"#utility.yul\":1641:1673   */\n      swap1\n      pop\n        /* \"#utility.yul\":1589:1679   */\n      swap2\n      swap1\n      pop\n      jump\t// out\n        /* \"#utility.yul\":1685:1794   */\n    tag_82:\n        /* \"#utility.yul\":1766:1787   */\n      tag_115\n        /* \"#utility.yul\":1781:1786   */\n      dup2\n        /* \"#utility.yul\":1766:1787   */\n      tag_81\n      jump\t// in\n    tag_115:\n        /* \"#utility.yul\":1761:1764   */\n      dup3\n        /* \"#utility.yul\":1754:1788   */\n      mstore\n        /* \"#utility.yul\":1685:1794   */\n      pop\n      pop\n      jump\t// out\n        /* \"#utility.yul\":1800:1877   */\n    tag_83:\n        /* \"#utility.yul\":1837:1844   */\n      0x00\n        /* \"#utility.yul\":1866:1871   */\n      dup2\n        /* \"#utility.yul\":1855:1871   */\n      swap1\n      pop\n        /* \"#utility.yul\":1800:1877   */\n      swap2\n      swap1\n      pop\n      jump\t// out\n        /* \"#utility.yul\":1883:2001   */\n    tag_84:\n        /* \"#utility.yul\":1970:1994   */\n      tag_118\n        /* \"#utility.yul\":1988:1993   */\n      dup2\n        /* \"#utility.yul\":1970:1994   */\n      tag_83\n      jump\t// in\n    tag_118:\n        /* \"#utility.yul\":1965:1968   */\n      dup3\n        /* \"#utility.yul\":1958:1995   */\n      mstore\n        /* \"#utility.yul\":1883:2001   */\n      pop\n      pop\n      jump\t// out\n        /* \"#utility.yul\":2007:2437   */\n    tag_16:\n        /* \"#utility.yul\":2150:2154   */\n      0x00\n        /* \"#utility.yul\":2188:2190   */\n      0x60\n        /* \"#utility.yul\":2177:2186   */\n      dup3\n        /* \"#utility.yul\":2173:2191   */\n      add\n        /* \"#utility.yul\":2165:2191   */\n      swap1\n      pop\n        /* \"#utility.yul\":2201:2266   */\n      tag_120\n        /* \"#utility.yul\":2263:2264   */\n      0x00\n        /* \"#utility.yul\":2252:2261   */\n      dup4\n        /* \"#utility.yul\":2248:2265   */\n      add\n        /* \"#utility.yul\":2239:2245   */\n      dup7\n        /* \"#utility.yul\":2201:2266   */\n      tag_82\n      jump\t// in\n    tag_120:\n        /* \"#utility.yul\":2276:2348   */\n      tag_121\n        /* \"#utility.yul\":2344:2346   */\n      0x20\n        /* \"#utility.yul\":2333:2342   */\n      dup4\n        /* \"#utility.yul\":2329:2347   */\n      add\n        /* \"#utility.yul\":2320:2326   */\n      dup6\n        /* \"#utility.yul\":2276:2348   */\n      tag_84\n      jump\t// in\n    tag_121:\n        /* \"#utility.yul\":2358:2430   */\n      tag_122\n        /* \"#utility.yul\":2426:2428   */\n      0x40\n        /* \"#utility.yul\":2415:2424   */\n      dup4\n        /* \"#utility.yul\":2411:2429   */\n      add\n        /* \"#utility.yul\":2402:2408   */\n      dup5\n        /* \"#utility.yul\":2358:2430   */\n      tag_84\n      jump\t// in\n    tag_122:\n        /* \"#utility.yul\":2007:2437   */\n      swap5\n      swap4\n      pop\n      pop\n      pop\n      pop\n      jump\t// out\n        /* \"#utility.yul\":2443:2565   */\n    tag_85:\n        /* \"#utility.yul\":2516:2540   */\n      tag_124\n        /* \"#utility.yul\":2534:2539   */\n      dup2\n        /* \"#utility.yul\":2516:2540   */\n      tag_83\n      jump\t// in\n    tag_124:\n        /* \"#utility.yul\":2509:2514   */\n      dup2\n        /* \"#utility.yul\":2506:2541   */\n      eq\n        /* \"#utility.yul\":2496:2559   */\n      tag_125\n      jumpi\n        /* \"#utility.yul\":2555:2556   */\n      0x00\n        /* \"#utility.yul\":2552:2553   */\n      dup1\n        /* \"#utility.yul\":2545:2557   */\n      revert\n        /* \"#utility.yul\":2496:2559   */\n    tag_125:\n        /* \"#utility.yul\":2443:2565   */\n      pop\n      jump\t// out\n        /* \"#utility.yul\":2571:2710   */\n    tag_86:\n        /* \"#utility.yul\":2617:2622   */\n      0x00\n        /* \"#utility.yul\":2655:2661   */\n      dup2\n        /* \"#utility.yul\":2642:2662   */\n      calldataload\n        /* \"#utility.yul\":2633:2662   */\n      swap1\n      pop\n        /* \"#utility.yul\":2671:2704   */\n      tag_127\n        /* \"#utility.yul\":2698:2703   */\n      dup2\n        /* \"#utility.yul\":2671:2704   */\n      tag_85\n      jump\t// in\n    tag_127:\n        /* \"#utility.yul\":2571:2710   */\n      swap3\n      swap2\n      pop\n      pop\n      jump\t// out\n        /* \"#utility.yul\":2716:3045   */\n    tag_21:\n        /* \"#utility.yul\":2775:2781   */\n      0x00\n        /* \"#utility.yul\":2824:2826   */\n      0x20\n        /* \"#utility.yul\":2812:2821   */\n      dup3\n        /* \"#utility.yul\":2803:2810   */\n      dup5\n        /* \"#utility.yul\":2799:2822   */\n      sub\n        /* \"#utility.yul\":2795:2827   */\n      slt\n        /* \"#utility.yul\":2792:2911   */\n      iszero\n      tag_129\n      jumpi\n        /* \"#utility.yul\":2830:2909   */\n      tag_130\n      tag_76\n      jump\t// in\n    tag_130:\n        /* \"#utility.yul\":2792:2911   */\n    tag_129:\n        /* \"#utility.yul\":2950:2951   */\n      0x00\n        /* \"#utility.yul\":2975:3028   */\n      tag_131\n        /* \"#utility.yul\":3020:3027   */\n      dup5\n        /* \"#utility.yul\":3011:3017   */\n      dup3\n        /* \"#utility.yul\":3000:3009   */\n      dup6\n        /* \"#utility.yul\":2996:3018   */\n      add\n        /* \"#utility.yul\":2975:3028   */\n      tag_86\n      jump\t// in\n    tag_131:\n        /* \"#utility.yul\":2965:3028   */\n      swap2\n      pop\n        /* \"#utility.yul\":2921:3038   */\n      pop\n        /* \"#utility.yul\":2716:3045   */\n      swap3\n      swap2\n      pop\n      pop\n      jump\t// out\n        /* \"#utility.yul\":3051:3177   */\n    tag_87:\n        /* \"#utility.yul\":3088:3095   */\n      0x00\n        /* \"#utility.yul\":3128:3170   */\n      0xffffffffffffffffffffffffffffffffffffffff\n        /* \"#utility.yul\":3121:3126   */\n      dup3\n        /* \"#utility.yul\":3117:3171   */\n      and\n        /* \"#utility.yul\":3106:3171   */\n      swap1\n      pop\n        /* \"#utility.yul\":3051:3177   */\n      swap2\n      swap1\n      pop\n      jump\t// out\n        /* \"#utility.yul\":3183:3279   */\n    tag_88:\n        /* \"#utility.yul\":3220:3227   */\n      0x00\n        /* \"#utility.yul\":3249:3273   */\n      tag_134\n        /* \"#utility.yul\":3267:3272   */\n      dup3\n        /* \"#utility.yul\":3249:3273   */\n      tag_87\n      jump\t// in\n    tag_134:\n        /* \"#utility.yul\":3238:3273   */\n      swap1\n      pop\n        /* \"#utility.yul\":3183:3279   */\n      swap2\n      swap1\n      pop\n      jump\t// out\n        /* \"#utility.yul\":3285:3403   */\n    tag_89:\n        /* \"#utility.yul\":3372:3396   */\n      tag_136\n        /* \"#utility.yul\":3390:3395   */\n      dup2\n        /* \"#utility.yul\":3372:3396   */\n      tag_88\n      jump\t// in\n    tag_136:\n        /* \"#utility.yul\":3367:3370   */\n      dup3\n        /* \"#utility.yul\":3360:3397   */\n      mstore\n        /* \"#utility.yul\":3285:3403   */\n      pop\n      pop\n      jump\t// out\n        /* \"#utility.yul\":3409:3631   */\n    tag_26:\n        /* \"#utility.yul\":3502:3506   */\n      0x00\n        /* \"#utility.yul\":3540:3542   */\n      0x20\n        /* \"#utility.yul\":3529:3538   */\n      dup3\n        /* \"#utility.yul\":3525:3543   */\n      add\n        /* \"#utility.yul\":3517:3543   */\n      swap1\n      pop\n        /* \"#utility.yul\":3553:3624   */\n      tag_138\n        /* \"#utility.yul\":3621:3622   */\n      0x00\n        /* \"#utility.yul\":3610:3619   */\n      dup4\n        /* \"#utility.yul\":3606:3623   */\n      add\n        /* \"#utility.yul\":3597:3603   */\n      dup5\n        /* \"#utility.yul\":3553:3624   */\n      tag_89\n      jump\t// in\n    tag_138:\n        /* \"#utility.yul\":3409:3631   */\n      swap3\n      swap2\n      pop\n      pop\n      jump\t// out\n        /* \"#utility.yul\":3637:3859   */\n    tag_30:\n        /* \"#utility.yul\":3730:3734   */\n      0x00\n        /* \"#utility.yul\":3768:3770   */\n      0x20\n        /* \"#utility.yul\":3757:3766   */\n      dup3\n        /* \"#utility.yul\":3753:3771   */\n      add\n        /* \"#utility.yul\":3745:3771   */\n      swap1\n      pop\n        /* \"#utility.yul\":3781:3852   */\n      tag_140\n        /* \"#utility.yul\":3849:3850   */\n      0x00\n        /* \"#utility.yul\":3838:3847   */\n      dup4\n        /* \"#utility.yul\":3834:3851   */\n      add\n        /* \"#utility.yul\":3825:3831   */\n      dup5\n        /* \"#utility.yul\":3781:3852   */\n      tag_84\n      jump\t// in\n    tag_140:\n        /* \"#utility.yul\":3637:3859   */\n      swap3\n      swap2\n      pop\n      pop\n      jump\t// out\n        /* \"#utility.yul\":3865:3987   */\n    tag_90:\n        /* \"#utility.yul\":3938:3962   */\n      tag_142\n        /* \"#utility.yul\":3956:3961   */\n      dup2\n        /* \"#utility.yul\":3938:3962   */\n      tag_88\n      jump\t// in\n    tag_142:\n        /* \"#utility.yul\":3931:3936   */\n      dup2\n        /* \"#utility.yul\":3928:3963   */\n      eq\n        /* \"#utility.yul\":3918:3981   */\n      tag_143\n      jumpi\n        /* \"#utility.yul\":3977:3978   */\n      0x00\n        /* \"#utility.yul\":3974:3975   */\n      dup1\n        /* \"#utility.yul\":3967:3979   */\n      revert\n        /* \"#utility.yul\":3918:3981   */\n    tag_143:\n        /* \"#utility.yul\":3865:3987   */\n      pop\n      jump\t// out\n        /* \"#utility.yul\":3993:4132   */\n    tag_91:\n        /* \"#utility.yul\":4039:4044   */\n      0x00\n        /* \"#utility.yul\":4077:4083   */\n      dup2\n        /* \"#utility.yul\":4064:4084   */\n      calldataload\n        /* \"#utility.yul\":4055:4084   */\n      swap1\n      pop\n        /* \"#utility.yul\":4093:4126   */\n      tag_145\n        /* \"#utility.yul\":4120:4125   */\n      dup2\n        /* \"#utility.yul\":4093:4126   */\n      tag_90\n      jump\t// in\n    tag_145:\n        /* \"#utility.yul\":3993:4132   */\n      swap3\n      swap2\n      pop\n      pop\n      jump\t// out\n        /* \"#utility.yul\":4138:4467   */\n    tag_33:\n        /* \"#utility.yul\":4197:4203   */\n      0x00\n        /* \"#utility.yul\":4246:4248   */\n      0x20\n        /* \"#utility.yul\":4234:4243   */\n      dup3\n        /* \"#utility.yul\":4225:4232   */\n      dup5\n        /* \"#utility.yul\":4221:4244   */\n      sub\n        /* \"#utility.yul\":4217:4249   */\n      slt\n        /* \"#utility.yul\":4214:4333   */\n      iszero\n      tag_147\n      jumpi\n        /* \"#utility.yul\":4252:4331   */\n      tag_148\n      tag_76\n      jump\t// in\n    tag_148:\n        /* \"#utility.yul\":4214:4333   */\n    tag_147:\n        /* \"#utility.yul\":4372:4373   */\n      0x00\n        /* \"#utility.yul\":4397:4450   */\n      tag_149\n        /* \"#utility.yul\":4442:4449   */\n      dup5\n        /* \"#utility.yul\":4433:4439   */\n      dup3\n        /* \"#utility.yul\":4422:4431   */\n      dup6\n        /* \"#utility.yul\":4418:4440   */\n      add\n        /* \"#utility.yul\":4397:4450   */\n      tag_91\n      jump\t// in\n    tag_149:\n        /* \"#utility.yul\":4387:4450   */\n      swap2\n      pop\n        /* \"#utility.yul\":4343:4460   */\n      pop\n        /* \"#utility.yul\":4138:4467   */\n      swap3\n      swap2\n      pop\n      pop\n      jump\t// out\n        /* \"#utility.yul\":4473:4642   */\n    tag_92:\n        /* \"#utility.yul\":4557:4568   */\n      0x00\n        /* \"#utility.yul\":4591:4597   */\n      dup3\n        /* \"#utility.yul\":4586:4589   */\n      dup3\n        /* \"#utility.yul\":4579:4598   */\n      mstore\n        /* \"#utility.yul\":4631:4635   */\n      0x20\n        /* \"#utility.yul\":4626:4629   */\n      dup3\n        /* \"#utility.yul\":4622:4636   */\n      add\n        /* \"#utility.yul\":4607:4636   */\n      swap1\n      pop\n        /* \"#utility.yul\":4473:4642   */\n      swap3\n      swap2\n      pop\n      pop\n      jump\t// out\n        /* \"#utility.yul\":4648:4873   */\n    tag_93:\n        /* \"#utility.yul\":4788:4822   */\n      0x4f776e61626c653a206e6577206f776e657220697320746865207a65726f2061\n        /* \"#utility.yul\":4784:4785   */\n      0x00\n        /* \"#utility.yul\":4776:4782   */\n      dup3\n        /* \"#utility.yul\":4772:4786   */\n      add\n        /* \"#utility.yul\":4765:4823   */\n      mstore\n        /* \"#utility.yul\":4857:4865   */\n      0x6464726573730000000000000000000000000000000000000000000000000000\n        /* \"#utility.yul\":4852:4854   */\n      0x20\n        /* \"#utility.yul\":4844:4850   */\n      dup3\n        /* \"#utility.yul\":4840:4855   */\n      add\n        /* \"#utility.yul\":4833:4866   */\n      mstore\n        /* \"#utility.yul\":4648:4873   */\n      pop\n      jump\t// out\n        /* \"#utility.yul\":4879:5245   */\n    tag_94:\n        /* \"#utility.yul\":5021:5024   */\n      0x00\n        /* \"#utility.yul\":5042:5109   */\n      tag_153\n        /* \"#utility.yul\":5106:5108   */\n      0x26\n        /* \"#utility.yul\":5101:5104   */\n      dup4\n        /* \"#utility.yul\":5042:5109   */\n      tag_92\n      jump\t// in\n    tag_153:\n        /* \"#utility.yul\":5035:5109   */\n      swap2\n      pop\n        /* \"#utility.yul\":5118:5211   */\n      tag_154\n        /* \"#utility.yul\":5207:5210   */\n      dup3\n        /* \"#utility.yul\":5118:5211   */\n      tag_93\n      jump\t// in\n    tag_154:\n        /* \"#utility.yul\":5236:5238   */\n      0x40\n        /* \"#utility.yul\":5231:5234   */\n      dup3\n        /* \"#utility.yul\":5227:5239   */\n      add\n        /* \"#utility.yul\":5220:5239   */\n      swap1\n      pop\n        /* \"#utility.yul\":4879:5245   */\n      swap2\n      swap1\n      pop\n      jump\t// out\n        /* \"#utility.yul\":5251:5670   */\n    tag_60:\n        /* \"#utility.yul\":5417:5421   */\n      0x00\n        /* \"#utility.yul\":5455:5457   */\n      0x20\n        /* \"#utility.yul\":5444:5453   */\n      dup3\n        /* \"#utility.yul\":5440:5458   */\n      add\n        /* \"#utility.yul\":5432:5458   */\n      swap1\n      pop\n        /* \"#utility.yul\":5504:5513   */\n      dup2\n        /* \"#utility.yul\":5498:5502   */\n      dup2\n        /* \"#utility.yul\":5494:5514   */\n      sub\n        /* \"#utility.yul\":5490:5491   */\n      0x00\n        /* \"#utility.yul\":5479:5488   */\n      dup4\n        /* \"#utility.yul\":5475:5492   */\n      add\n        /* \"#utility.yul\":5468:5515   */\n      mstore\n        /* \"#utility.yul\":5532:5663   */\n      tag_156\n        /* \"#utility.yul\":5658:5662   */\n      dup2\n        /* \"#utility.yul\":5532:5663   */\n      tag_94\n      jump\t// in\n    tag_156:\n        /* \"#utility.yul\":5524:5663   */\n      swap1\n      pop\n        /* \"#utility.yul\":5251:5670   */\n      swap2\n      swap1\n      pop\n      jump\t// out\n        /* \"#utility.yul\":5676:5858   */\n    tag_95:\n        /* \"#utility.yul\":5816:5850   */\n      0x4f776e61626c653a2063616c6c6572206973206e6f7420746865206f776e6572\n        /* \"#utility.yul\":5812:5813   */\n      0x00\n        /* \"#utility.yul\":5804:5810   */\n      dup3\n        /* \"#utility.yul\":5800:5814   */\n      add\n        /* \"#utility.yul\":5793:5851   */\n      mstore\n        /* \"#utility.yul\":5676:5858   */\n      pop\n      jump\t// out\n        /* \"#utility.yul\":5864:6230   */\n    tag_96:\n        /* \"#utility.yul\":6006:6009   */\n      0x00\n        /* \"#utility.yul\":6027:6094   */\n      tag_159\n        /* \"#utility.yul\":6091:6093   */\n      0x20\n        /* \"#utility.yul\":6086:6089   */\n      dup4\n        /* \"#utility.yul\":6027:6094   */\n      tag_92\n      jump\t// in\n    tag_159:\n        /* \"#utility.yul\":6020:6094   */\n      swap2\n      pop\n        /* \"#utility.yul\":6103:6196   */\n      tag_160\n        /* \"#utility.yul\":6192:6195   */\n      dup3\n        /* \"#utility.yul\":6103:6196   */\n      tag_95\n      jump\t// in\n    tag_160:\n        /* \"#utility.yul\":6221:6223   */\n      0x20\n        /* \"#utility.yul\":6216:6219   */\n      dup3\n        /* \"#utility.yul\":6212:6224   */\n      add\n        /* \"#utility.yul\":6205:6224   */\n      swap1\n      pop\n        /* \"#utility.yul\":5864:6230   */\n      swap2\n      swap1\n      pop\n      jump\t// out\n        /* \"#utility.yul\":6236:6655   */\n    tag_72:\n        /* \"#utility.yul\":6402:6406   */\n      0x00\n        /* \"#utility.yul\":6440:6442   */\n      0x20\n        /* \"#utility.yul\":6429:6438   */\n      dup3\n        /* \"#utility.yul\":6425:6443   */\n      add\n        /* \"#utility.yul\":6417:6443   */\n      swap1\n      pop\n        /* \"#utility.yul\":6489:6498   */\n      dup2\n        /* \"#utility.yul\":6483:6487   */\n      dup2\n        /* \"#utility.yul\":6479:6499   */\n      sub\n        /* \"#utility.yul\":6475:6476   */\n      0x00\n        /* \"#utility.yul\":6464:6473   */\n      dup4\n        /* \"#utility.yul\":6460:6477   */\n      add\n        /* \"#utility.yul\":6453:6500   */\n      mstore\n        /* \"#utility.yul\":6517:6648   */\n      tag_162\n        /* \"#utility.yul\":6643:6647   */\n      dup2\n        /* \"#utility.yul\":6517:6648   */\n      tag_96\n      jump\t// in\n    tag_162:\n        /* \"#utility.yul\":6509:6648   */\n      swap1\n      pop\n        /* \"#utility.yul\":6236:6655   */\n      swap2\n      swap1\n      pop\n      jump\t// out\n\n    auxdata: 0xa2646970667358221220d4457924015178bccbda9f58a2f70efbb3945f4fb16d3c97c1e92d6e496051ea64736f6c63430008130033\n}\n",
				"bytecode": {
					"linkReferences": {},
					"object": "6080604052600a60015534801561001557600080fd5b5061003261002761003760201b60201c565b61003f60201b60201c565b610103565b600033905090565b60008060009054906101000a900473ffffffffffffffffffffffffffffffffffffffff169050816000806101000a81548173ffffffffffffffffffffffffffffffffffffffff021916908373ffffffffffffffffffffffffffffffffffffffff1602179055508173ffffffffffffffffffffffffffffffffffffffff168173ffffffffffffffffffffffffffffffffffffffff167f8be0079c531659141344cd1fd0a4f28419497f9722a3daafe3b4186f6b6457e060405160405180910390a35050565b6107dc806101126000396000f3fe608060405234801561001057600080fd5b506004361061007d5760003560e01c80638da5cb5b1161005b5780638da5cb5b146100da5780639dd1cda6146100f8578063f2fde38b14610116578063fceb5d6c146101325761007d565b80632789105714610082578063715018a6146100b4578063787dce3d146100be575b600080fd5b61009c600480360381019061009791906104c2565b610164565b6040516100ab93929190610537565b60405180910390f35b6100bc6101c0565b005b6100d860048036038101906100d3919061059a565b6101d4565b005b6100e261021d565b6040516100ef9190610608565b60405180910390f35b610100610246565b60405161010d9190610623565b60405180910390f35b610130600480360381019061012b919061066a565b610250565b005b61014c600480360381019061014791906104c2565b6102d3565b60405161015b93929190610537565b60405180910390f35b600080600084604001358460a00135148015610187575084606001358460600135145b801561019857504284610140013510155b80156101a957504284610120013511155b856060013585608001359250925092509250925092565b6101c861032f565b6101d260006103ad565b565b6101dc61032f565b806001819055507f3e1c6f794380f768303ee10adb978482d0ee037b0517bdabf3118141632078a6816040516102129190610623565b60405180910390a150565b60008060009054906101000a900473ffffffffffffffffffffffffffffffffffffffff16905090565b6000600154905090565b61025861032f565b600073ffffffffffffffffffffffffffffffffffffffff168173ffffffffffffffffffffffffffffffffffffffff16036102c7576040517f08c379a00000000000000000000000000000000000000000000000000000000081526004016102be9061071a565b60405180910390fd5b6102d0816103ad565b50565b600080600084604001358460a001351480156102f6575083606001358460600135145b801561030757504284610120013511155b801561031857504284610140013510155b846060013585608001359250925092509250925092565b610337610471565b73ffffffffffffffffffffffffffffffffffffffff1661035561021d565b73ffffffffffffffffffffffffffffffffffffffff16146103ab576040517f08c379a00000000000000000000000000000000000000000000000000000000081526004016103a290610786565b60405180910390fd5b565b60008060009054906101000a900473ffffffffffffffffffffffffffffffffffffffff169050816000806101000a81548173ffffffffffffffffffffffffffffffffffffffff021916908373ffffffffffffffffffffffffffffffffffffffff1602179055508173ffffffffffffffffffffffffffffffffffffffff168173ffffffffffffffffffffffffffffffffffffffff167f8be0079c531659141344cd1fd0a4f28419497f9722a3daafe3b4186f6b6457e060405160405180910390a35050565b600033905090565b600080fd5b600080fd5b6000608082840312156104995761049861047e565b5b81905092915050565b60006101c082840312156104b9576104b861047e565b5b81905092915050565b60008061024083850312156104da576104d9610479565b5b60006104e885828601610483565b92505060806104f9858286016104a2565b9150509250929050565b60008115159050919050565b61051881610503565b82525050565b6000819050919050565b6105318161051e565b82525050565b600060608201905061054c600083018661050f565b6105596020830185610528565b6105666040830184610528565b949350505050565b6105778161051e565b811461058257600080fd5b50565b6000813590506105948161056e565b92915050565b6000602082840312156105b0576105af610479565b5b60006105be84828501610585565b91505092915050565b600073ffffffffffffffffffffffffffffffffffffffff82169050919050565b60006105f2826105c7565b9050919050565b610602816105e7565b82525050565b600060208201905061061d60008301846105f9565b92915050565b60006020820190506106386000830184610528565b92915050565b610647816105e7565b811461065257600080fd5b50565b6000813590506106648161063e565b92915050565b6000602082840312156106805761067f610479565b5b600061068e84828501610655565b91505092915050565b600082825260208201905092915050565b7f4f776e61626c653a206e6577206f776e657220697320746865207a65726f206160008201527f6464726573730000000000000000000000000000000000000000000000000000602082015250565b6000610704602683610697565b915061070f826106a8565b604082019050919050565b60006020820190508181036000830152610733816106f7565b9050919050565b7f4f776e61626c653a2063616c6c6572206973206e6f7420746865206f776e6572600082015250565b6000610770602083610697565b915061077b8261073a565b602082019050919050565b6000602082019050818103600083015261079f81610763565b905091905056fea2646970667358221220d4457924015178bccbda9f58a2f70efbb3945f4fb16d3c97c1e92d6e496051ea64736f6c63430008130033",
					"opcodes": "PUSH1 0x80 PUSH1 0x40 MSTORE PUSH1 0xA PUSH1 0x1 SSTORE CALLVALUE DUP1 ISZERO PUSH2 0x15 JUMPI PUSH1 0x0 DUP1 REVERT JUMPDEST POP PUSH2 0x32 PUSH2 0x27 PUSH2 0x37 PUSH1 0x20 SHL PUSH1 0x20 SHR JUMP JUMPDEST PUSH2 0x3F PUSH1 0x20 SHL PUSH1 0x20 SHR JUMP JUMPDEST PUSH2 0x103 JUMP JUMPDEST PUSH1 0x0 CALLER SWAP1 POP SWAP1 JUMP JUMPDEST PUSH1 0x0 DUP1 PUSH1 0x0 SWAP1 SLOAD SWAP1 PUSH2 0x100 EXP SWAP1 DIV PUSH20 0xFFFFFFFFFFFFFFFFFFFFFFFFFFFFFFFFFFFFFFFF AND SWAP1 POP DUP2 PUSH1 0x0 DUP1 PUSH2 0x100 EXP DUP2 SLOAD DUP2 PUSH20 0xFFFFFFFFFFFFFFFFFFFFFFFFFFFFFFFFFFFFFFFF MUL NOT AND SWAP1 DUP4 PUSH20 0xFFFFFFFFFFFFFFFFFFFFFFFFFFFFFFFFFFFFFFFF AND MUL OR SWAP1 SSTORE POP DUP2 PUSH20 0xFFFFFFFFFFFFFFFFFFFFFFFFFFFFFFFFFFFFFFFF AND DUP2 PUSH20 0xFFFFFFFFFFFFFFFFFFFFFFFFFFFFFFFFFFFFFFFF AND PUSH32 0x8BE0079C531659141344CD1FD0A4F28419497F9722A3DAAFE3B4186F6B6457E0 PUSH1 0x40 MLOAD PUSH1 0x40 MLOAD DUP1 SWAP2 SUB SWAP1 LOG3 POP POP JUMP JUMPDEST PUSH2 0x7DC DUP1 PUSH2 0x112 PUSH1 0x0 CODECOPY PUSH1 0x0 RETURN INVALID PUSH1 0x80 PUSH1 0x40 MSTORE CALLVALUE DUP1 ISZERO PUSH2 0x10 JUMPI PUSH1 0x0 DUP1 REVERT JUMPDEST POP PUSH1 0x4 CALLDATASIZE LT PUSH2 0x7D JUMPI PUSH1 0x0 CALLDATALOAD PUSH1 0xE0 SHR DUP1 PUSH4 0x8DA5CB5B GT PUSH2 0x5B JUMPI DUP1 PUSH4 0x8DA5CB5B EQ PUSH2 0xDA JUMPI DUP1 PUSH4 0x9DD1CDA6 EQ PUSH2 0xF8 JUMPI DUP1 PUSH4 0xF2FDE38B EQ PUSH2 0x116 JUMPI DUP1 PUSH4 0xFCEB5D6C EQ PUSH2 0x132 JUMPI PUSH2 0x7D JUMP JUMPDEST DUP1 PUSH4 0x27891057 EQ PUSH2 0x82 JUMPI DUP1 PUSH4 0x715018A6 EQ PUSH2 0xB4 JUMPI DUP1 PUSH4 0x787DCE3D EQ PUSH2 0xBE JUMPI JUMPDEST PUSH1 0x0 DUP1 REVERT JUMPDEST PUSH2 0x9C PUSH1 0x4 DUP1 CALLDATASIZE SUB DUP2 ADD SWAP1 PUSH2 0x97 SWAP2 SWAP1 PUSH2 0x4C2 JUMP JUMPDEST PUSH2 0x164 JUMP JUMPDEST PUSH1 0x40 MLOAD PUSH2 0xAB SWAP4 SWAP3 SWAP2 SWAP1 PUSH2 0x537 JUMP JUMPDEST PUSH1 0x40 MLOAD DUP1 SWAP2 SUB SWAP1 RETURN JUMPDEST PUSH2 0xBC PUSH2 0x1C0 JUMP JUMPDEST STOP JUMPDEST PUSH2 0xD8 PUSH1 0x4 DUP1 CALLDATASIZE SUB DUP2 ADD SWAP1 PUSH2 0xD3 SWAP2 SWAP1 PUSH2 0x59A JUMP JUMPDEST PUSH2 0x1D4 JUMP JUMPDEST STOP JUMPDEST PUSH2 0xE2 PUSH2 0x21D JUMP JUMPDEST PUSH1 0x40 MLOAD PUSH2 0xEF SWAP2 SWAP1 PUSH2 0x608 JUMP JUMPDEST PUSH1 0x40 MLOAD DUP1 SWAP2 SUB SWAP1 RETURN JUMPDEST PUSH2 0x100 PUSH2 0x246 JUMP JUMPDEST PUSH1 0x40 MLOAD PUSH2 0x10D SWAP2 SWAP1 PUSH2 0x623 JUMP JUMPDEST PUSH1 0x40 MLOAD DUP1 SWAP2 SUB SWAP1 RETURN JUMPDEST PUSH2 0x130 PUSH1 0x4 DUP1 CALLDATASIZE SUB DUP2 ADD SWAP1 PUSH2 0x12B SWAP2 SWAP1 PUSH2 0x66A JUMP JUMPDEST PUSH2 0x250 JUMP JUMPDEST STOP JUMPDEST PUSH2 0x14C PUSH1 0x4 DUP1 CALLDATASIZE SUB DUP2 ADD SWAP1 PUSH2 0x147 SWAP2 SWAP1 PUSH2 0x4C2 JUMP JUMPDEST PUSH2 0x2D3 JUMP JUMPDEST PUSH1 0x40 MLOAD PUSH2 0x15B SWAP4 SWAP3 SWAP2 SWAP1 PUSH2 0x537 JUMP JUMPDEST PUSH1 0x40 MLOAD DUP1 SWAP2 SUB SWAP1 RETURN JUMPDEST PUSH1 0x0 DUP1 PUSH1 0x0 DUP5 PUSH1 0x40 ADD CALLDATALOAD DUP5 PUSH1 0xA0 ADD CALLDATALOAD EQ DUP1 ISZERO PUSH2 0x187 JUMPI POP DUP5 PUSH1 0x60 ADD CALLDATALOAD DUP5 PUSH1 0x60 ADD CALLDATALOAD EQ JUMPDEST DUP1 ISZERO PUSH2 0x198 JUMPI POP TIMESTAMP DUP5 PUSH2 0x140 ADD CALLDATALOAD LT ISZERO JUMPDEST DUP1 ISZERO PUSH2 0x1A9 JUMPI POP TIMESTAMP DUP5 PUSH2 0x120 ADD CALLDATALOAD GT ISZERO JUMPDEST DUP6 PUSH1 0x60 ADD CALLDATALOAD DUP6 PUSH1 0x80 ADD CALLDATALOAD SWAP3 POP SWAP3 POP SWAP3 POP SWAP3 POP SWAP3 POP SWAP3 JUMP JUMPDEST PUSH2 0x1C8 PUSH2 0x32F JUMP JUMPDEST PUSH2 0x1D2 PUSH1 0x0 PUSH2 0x3AD JUMP JUMPDEST JUMP JUMPDEST PUSH2 0x1DC PUSH2 0x32F JUMP JUMPDEST DUP1 PUSH1 0x1 DUP2 SWAP1 SSTORE POP PUSH32 0x3E1C6F794380F768303EE10ADB978482D0EE037B0517BDABF3118141632078A6 DUP2 PUSH1 0x40 MLOAD PUSH2 0x212 SWAP2 SWAP1 PUSH2 0x623 JUMP JUMPDEST PUSH1 0x40 MLOAD DUP1 SWAP2 SUB SWAP1 LOG1 POP JUMP JUMPDEST PUSH1 0x0 DUP1 PUSH1 0x0 SWAP1 SLOAD SWAP1 PUSH2 0x100 EXP SWAP1 DIV PUSH20 0xFFFFFFFFFFFFFFFFFFFFFFFFFFFFFFFFFFFFFFFF AND SWAP1 POP SWAP1 JUMP JUMPDEST PUSH1 0x0 PUSH1 0x1 SLOAD SWAP1 POP SWAP1 JUMP JUMPDEST PUSH2 0x258 PUSH2 0x32F JUMP JUMPDEST PUSH1 0x0 PUSH20 0xFFFFFFFFFFFFFFFFFFFFFFFFFFFFFFFFFFFFFFFF AND DUP2 PUSH20 0xFFFFFFFFFFFFFFFFFFFFFFFFFFFFFFFFFFFFFFFF AND SUB PUSH2 0x2C7 JUMPI PUSH1 0x40 MLOAD PUSH32 0x8C379A000000000000000000000000000000000000000000000000000000000 DUP2 MSTORE PUSH1 0x4 ADD PUSH2 0x2BE SWAP1 PUSH2 0x71A JUMP JUMPDEST PUSH1 0x40 MLOAD DUP1 SWAP2 SUB SWAP1 REVERT JUMPDEST PUSH2 0x2D0 DUP2 PUSH2 0x3AD JUMP JUMPDEST POP JUMP JUMPDEST PUSH1 0x0 DUP1 PUSH1 0x0 DUP5 PUSH1 0x40 ADD CALLDATALOAD DUP5 PUSH1 0xA0 ADD CALLDATALOAD EQ DUP1 ISZERO PUSH2 0x2F6 JUMPI POP DUP4 PUSH1 0x60 ADD CALLDATALOAD DUP5 PUSH1 0x60 ADD CALLDATALOAD EQ JUMPDEST DUP1 ISZERO PUSH2 0x307 JUMPI POP TIMESTAMP DUP5 PUSH2 0x120 ADD CALLDATALOAD GT ISZERO JUMPDEST DUP1 ISZERO PUSH2 0x318 JUMPI POP TIMESTAMP DUP5 PUSH2 0x140 ADD CALLDATALOAD LT ISZERO JUMPDEST DUP5 PUSH1 0x60 ADD CALLDATALOAD DUP6 PUSH1 0x80 ADD CALLDATALOAD SWAP3 POP SWAP3 POP SWAP3 POP SWAP3 POP SWAP3 POP SWAP3 JUMP JUMPDEST PUSH2 0x337 PUSH2 0x471 JUMP JUMPDEST PUSH20 0xFFFFFFFFFFFFFFFFFFFFFFFFFFFFFFFFFFFFFFFF AND PUSH2 0x355 PUSH2 0x21D JUMP JUMPDEST PUSH20 0xFFFFFFFFFFFFFFFFFFFFFFFFFFFFFFFFFFFFFFFF AND EQ PUSH2 0x3AB JUMPI PUSH1 0x40 MLOAD PUSH32 0x8C379A000000000000000000000000000000000000000000000000000000000 DUP2 MSTORE PUSH1 0x4 ADD PUSH2 0x3A2 SWAP1 PUSH2 0x786 JUMP JUMPDEST PUSH1 0x40 MLOAD DUP1 SWAP2 SUB SWAP1 REVERT JUMPDEST JUMP JUMPDEST PUSH1 0x0 DUP1 PUSH1 0x0 SWAP1 SLOAD SWAP1 PUSH2 0x100 EXP SWAP1 DIV PUSH20 0xFFFFFFFFFFFFFFFFFFFFFFFFFFFFFFFFFFFFFFFF AND SWAP1 POP DUP2 PUSH1 0x0 DUP1 PUSH2 0x100 EXP DUP2 SLOAD DUP2 PUSH20 0xFFFFFFFFFFFFFFFFFFFFFFFFFFFFFFFFFFFFFFFF MUL NOT AND SWAP1 DUP4 PUSH20 0xFFFFFFFFFFFFFFFFFFFFFFFFFFFFFFFFFFFFFFFF AND MUL OR SWAP1 SSTORE POP DUP2 PUSH20 0xFFFFFFFFFFFFFFFFFFFFFFFFFFFFFFFFFFFFFFFF AND DUP2 PUSH20 0xFFFFFFFFFFFFFFFFFFFFFFFFFFFFFFFFFFFFFFFF AND PUSH32 0x8BE0079C531659141344CD1FD0A4F28419497F9722A3DAAFE3B4186F6B6457E0 PUSH1 0x40 MLOAD PUSH1 0x40 MLOAD DUP1 SWAP2 SUB SWAP1 LOG3 POP POP JUMP JUMPDEST PUSH1 0x0 CALLER SWAP1 POP SWAP1 JUMP JUMPDEST PUSH1 0x0 DUP1 REVERT JUMPDEST PUSH1 0x0 DUP1 REVERT JUMPDEST PUSH1 0x0 PUSH1 0x80 DUP3 DUP5 SUB SLT ISZERO PUSH2 0x499 JUMPI PUSH2 0x498 PUSH2 0x47E JUMP JUMPDEST JUMPDEST DUP2 SWAP1 POP SWAP3 SWAP2 POP POP JUMP JUMPDEST PUSH1 0x0 PUSH2 0x1C0 DUP3 DUP5 SUB SLT ISZERO PUSH2 0x4B9 JUMPI PUSH2 0x4B8 PUSH2 0x47E JUMP JUMPDEST JUMPDEST DUP2 SWAP1 POP SWAP3 SWAP2 POP POP JUMP JUMPDEST PUSH1 0x0 DUP1 PUSH2 0x240 DUP4 DUP6 SUB SLT ISZERO PUSH2 0x4DA JUMPI PUSH2 0x4D9 PUSH2 0x479 JUMP JUMPDEST JUMPDEST PUSH1 0x0 PUSH2 0x4E8 DUP6 DUP3 DUP7 ADD PUSH2 0x483 JUMP JUMPDEST SWAP3 POP POP PUSH1 0x80 PUSH2 0x4F9 DUP6 DUP3 DUP7 ADD PUSH2 0x4A2 JUMP JUMPDEST SWAP2 POP POP SWAP3 POP SWAP3 SWAP1 POP JUMP JUMPDEST PUSH1 0x0 DUP2 ISZERO ISZERO SWAP1 POP SWAP2 SWAP1 POP JUMP JUMPDEST PUSH2 0x518 DUP2 PUSH2 0x503 JUMP JUMPDEST DUP3 MSTORE POP POP JUMP JUMPDEST PUSH1 0x0 DUP2 SWAP1 POP SWAP2 SWAP1 POP JUMP JUMPDEST PUSH2 0x531 DUP2 PUSH2 0x51E JUMP JUMPDEST DUP3 MSTORE POP POP JUMP JUMPDEST PUSH1 0x0 PUSH1 0x60 DUP3 ADD SWAP1 POP PUSH2 0x54C PUSH1 0x0 DUP4 ADD DUP7 PUSH2 0x50F JUMP JUMPDEST PUSH2 0x559 PUSH1 0x20 DUP4 ADD DUP6 PUSH2 0x528 JUMP JUMPDEST PUSH2 0x566 PUSH1 0x40 DUP4 ADD DUP5 PUSH2 0x528 JUMP JUMPDEST SWAP5 SWAP4 POP POP POP POP JUMP JUMPDEST PUSH2 0x577 DUP2 PUSH2 0x51E JUMP JUMPDEST DUP2 EQ PUSH2 0x582 JUMPI PUSH1 0x0 DUP1 REVERT JUMPDEST POP JUMP JUMPDEST PUSH1 0x0 DUP2 CALLDATALOAD SWAP1 POP PUSH2 0x594 DUP2 PUSH2 0x56E JUMP JUMPDEST SWAP3 SWAP2 POP POP JUMP JUMPDEST PUSH1 0x0 PUSH1 0x20 DUP3 DUP5 SUB SLT ISZERO PUSH2 0x5B0 JUMPI PUSH2 0x5AF PUSH2 0x479 JUMP JUMPDEST JUMPDEST PUSH1 0x0 PUSH2 0x5BE DUP5 DUP3 DUP6 ADD PUSH2 0x585 JUMP JUMPDEST SWAP2 POP POP SWAP3 SWAP2 POP POP JUMP JUMPDEST PUSH1 0x0 PUSH20 0xFFFFFFFFFFFFFFFFFFFFFFFFFFFFFFFFFFFFFFFF DUP3 AND SWAP1 POP SWAP2 SWAP1 POP JUMP JUMPDEST PUSH1 0x0 PUSH2 0x5F2 DUP3 PUSH2 0x5C7 JUMP JUMPDEST SWAP1 POP SWAP2 SWAP1 POP JUMP JUMPDEST PUSH2 0x602 DUP2 PUSH2 0x5E7 JUMP JUMPDEST DUP3 MSTORE POP POP JUMP JUMPDEST PUSH1 0x0 PUSH1 0x20 DUP3 ADD SWAP1 POP PUSH2 0x61D PUSH1 0x0 DUP4 ADD DUP5 PUSH2 0x5F9 JUMP JUMPDEST SWAP3 SWAP2 POP POP JUMP JUMPDEST PUSH1 0x0 PUSH1 0x20 DUP3 ADD SWAP1 POP PUSH2 0x638 PUSH1 0x0 DUP4 ADD DUP5 PUSH2 0x528 JUMP JUMPDEST SWAP3 SWAP2 POP POP JUMP JUMPDEST PUSH2 0x647 DUP2 PUSH2 0x5E7 JUMP JUMPDEST DUP2 EQ PUSH2 0x652 JUMPI PUSH1 0x0 DUP1 REVERT JUMPDEST POP JUMP JUMPDEST PUSH1 0x0 DUP2 CALLDATALOAD SWAP1 POP PUSH2 0x664 DUP2 PUSH2 0x63E JUMP JUMPDEST SWAP3 SWAP2 POP POP JUMP JUMPDEST PUSH1 0x0 PUSH1 0x20 DUP3 DUP5 SUB SLT ISZERO PUSH2 0x680 JUMPI PUSH2 0x67F PUSH2 0x479 JUMP JUMPDEST JUMPDEST PUSH1 0x0 PUSH2 0x68E DUP5 DUP3 DUP6 ADD PUSH2 0x655 JUMP JUMPDEST SWAP2 POP POP SWAP3 SWAP2 POP POP JUMP JUMPDEST PUSH1 0x0 DUP3 DUP3 MSTORE PUSH1 0x20 DUP3 ADD SWAP1 POP SWAP3 SWAP2 POP POP JUMP JUMPDEST PUSH32 0x4F776E61626C653A206E6577206F776E657220697320746865207A65726F2061 PUSH1 0x0 DUP3 ADD MSTORE PUSH32 0x6464726573730000000000000000000000000000000000000000000000000000 PUSH1 0x20 DUP3 ADD MSTORE POP JUMP JUMPDEST PUSH1 0x0 PUSH2 0x704 PUSH1 0x26 DUP4 PUSH2 0x697 JUMP JUMPDEST SWAP2 POP PUSH2 0x70F DUP3 PUSH2 0x6A8 JUMP JUMPDEST PUSH1 0x40 DUP3 ADD SWAP1 POP SWAP2 SWAP1 POP JUMP JUMPDEST PUSH1 0x0 PUSH1 0x20 DUP3 ADD SWAP1 POP DUP2 DUP2 SUB PUSH1 0x0 DUP4 ADD MSTORE PUSH2 0x733 DUP2 PUSH2 0x6F7 JUMP JUMPDEST SWAP1 POP SWAP2 SWAP1 POP JUMP JUMPDEST PUSH32 0x4F776E61626C653A2063616C6C6572206973206E6F7420746865206F776E6572 PUSH1 0x0 DUP3 ADD MSTORE POP JUMP JUMPDEST PUSH1 0x0 PUSH2 0x770 PUSH1 0x20 DUP4 PUSH2 0x697 JUMP JUMPDEST SWAP2 POP PUSH2 0x77B DUP3 PUSH2 0x73A JUMP JUMPDEST PUSH1 0x20 DUP3 ADD SWAP1 POP SWAP2 SWAP1 POP JUMP JUMPDEST PUSH1 0x0 PUSH1 0x20 DUP3 ADD SWAP1 POP DUP2 DUP2 SUB PUSH1 0x0 DUP4 ADD MSTORE PUSH2 0x79F DUP2 PUSH2 0x763 JUMP JUMPDEST SWAP1 POP SWAP2 SWAP1 POP JUMP INVALID LOG2 PUSH5 0x6970667358 0x22 SLT KECCAK256 0xD4 GASLIMIT PUSH26 0x24015178BCCBDA9F58A2F70EFBB3945F4FB16D3C97C1E92D6E49 PUSH1 0x51 0xEA PUSH5 0x736F6C6343 STOP ADDMOD SGT STOP CALLER "
				},
				"gasEstimates": {
					"creation": {
						"codeDepositCost": "402400",
						"executionCost": "infinite",
						"totalCost": "infinite"
					},
					"external": {
						"owner()": "2522",
						"possibleAcceptSuggest((bool,address,uint256,uint256),(bool,address,address,uint256,uint256,uint256,address,address,uint256,uint256,uint256,uint8,bytes32,bytes32))": "infinite",
						"possiblePurchase((bool,address,uint256,uint256),(bool,address,address,uint256,uint256,uint256,address,address,uint256,uint256,uint256,uint8,bytes32,bytes32))": "infinite",
						"renounceOwnership()": "30421",
						"setProtocolFee(uint256)": "infinite",
						"transferOwnership(address)": "30788",
						"viewProtocolFee()": "2459"
					}
				},
				"methodIdentifiers": {
					"owner()": "8da5cb5b",
					"possibleAcceptSuggest((bool,address,uint256,uint256),(bool,address,address,uint256,uint256,uint256,address,address,uint256,uint256,uint256,uint8,bytes32,bytes32))": "27891057",
					"possiblePurchase((bool,address,uint256,uint256),(bool,address,address,uint256,uint256,uint256,address,address,uint256,uint256,uint256,uint8,bytes32,bytes32))": "fceb5d6c",
					"renounceOwnership()": "715018a6",
					"setProtocolFee(uint256)": "787dce3d",
					"transferOwnership(address)": "f2fde38b",
					"viewProtocolFee()": "9dd1cda6"
				}
			},
			"storageLayout": {
				"storage": [
					{
						"astId": 7,
						"contract": "hardhat/contracts/protocols/ProtocolAndExecution.sol:ProtocolAndExecution",
						"label": "_owner",
						"offset": 0,
						"slot": "0",
						"type": "t_address"
					},
					{
						"astId": 276,
						"contract": "hardhat/contracts/protocols/ProtocolAndExecution.sol:ProtocolAndExecution",
						"label": "_protocolFee",
						"offset": 0,
						"slot": "1",
						"type": "t_uint256"
					}
				],
				"types": {
					"t_address": {
						"encoding": "inplace",
						"label": "address",
						"numberOfBytes": "20"
					},
					"t_uint256": {
						"encoding": "inplace",
						"label": "uint256",
						"numberOfBytes": "32"
					}
				}
			},
			"userdoc": {
				"kind": "user",
				"methods": {},
				"version": 1
			}
		}
	}
}