{
  "_format": "hh-sol-artifact-1",
  "contractName": "Transfer1155",
  "sourceName": "contracts/transfer/Transfer1155.sol",
  "abi": [
    {
      "inputs": [
        {
          "internalType": "address",
          "name": "_edem",
          "type": "address"
        }
      ],
      "stateMutability": "nonpayable",
      "type": "constructor"
    },
    {
      "inputs": [],
      "name": "EDEM",
      "outputs": [
        {
          "internalType": "address",
          "name": "",
          "type": "address"
        }
      ],
      "stateMutability": "view",
      "type": "function"
    },
    {
      "inputs": [
        {
          "internalType": "address",
          "name": "collection",
          "type": "address"
        },
        {
          "internalType": "address",
          "name": "from",
          "type": "address"
        },
        {
          "internalType": "address",
          "name": "to",
          "type": "address"
        },
        {
          "internalType": "uint256",
          "name": "tokenId",
          "type": "uint256"
        },
        {
          "internalType": "uint256",
          "name": "amount",
          "type": "uint256"
        }
      ],
      "name": "transferFrom",
      "outputs": [],
      "stateMutability": "nonpayable",
      "type": "function"
    }
  ],
  "bytecode": "0x60a060405234801561001057600080fd5b5060405161033338038061033383398101604081905261002f91610040565b6001600160a01b0316608052610070565b60006020828403121561005257600080fd5b81516001600160a01b038116811461006957600080fd5b9392505050565b6080516102a3610090600039600081816055015260b801526102a36000f3fe608060405234801561001057600080fd5b50600436106100365760003560e01c806310f021131461003b5780633320750f14610050575b600080fd5b61004e610049366004610218565b6100a0565b005b6100777f000000000000000000000000000000000000000000000000000000000000000081565b60405173ffffffffffffffffffffffffffffffffffffffff909116815260200160405180910390f35b3373ffffffffffffffffffffffffffffffffffffffff7f00000000000000000000000000000000000000000000000000000000000000001614610143576040517f08c379a000000000000000000000000000000000000000000000000000000000815260206004820152601d60248201527f4e6f7420617661696c61626c65206f757473696465206f66204544454d000000604482015260640160405180910390fd5b6040517ff242432a00000000000000000000000000000000000000000000000000000000815273ffffffffffffffffffffffffffffffffffffffff85811660048301528481166024830152604482018490526064820183905260a06084830152600060a483015286169063f242432a9060c401600060405180830381600087803b1580156101d057600080fd5b505af11580156101e4573d6000803e3d6000fd5b505050505050505050565b803573ffffffffffffffffffffffffffffffffffffffff8116811461021357600080fd5b919050565b600080600080600060a0868803121561023057600080fd5b610239866101ef565b9450610247602087016101ef565b9350610255604087016101ef565b9497939650939460608101359450608001359291505056fea26469706673582212202b820ce6c461be551a3dc6b72a22c7fe94146ce6f10663b30752d5347968e03964736f6c63430008110033",
  "linkReferences": {},
  "deployedLinkReferences": {}
}