{
	"hardhat/contracts/TradeTokenManager.sol": {
		"TradeTokenManager": {
			"abi": [
				{
					"anonymous": false,
					"inputs": [
						{
							"indexed": true,
							"internalType": "address",
							"name": "previousOwner",
							"type": "address"
						},
						{
							"indexed": true,
							"internalType": "address",
							"name": "newOwner",
							"type": "address"
						}
					],
					"name": "OwnershipTransferred",
					"type": "event"
				},
				{
					"anonymous": false,
					"inputs": [
						{
							"indexed": true,
							"internalType": "address",
							"name": "token",
							"type": "address"
						}
					],
					"name": "TokenDelete",
					"type": "event"
				},
				{
					"anonymous": false,
					"inputs": [
						{
							"indexed": true,
							"internalType": "address",
							"name": "token",
							"type": "address"
						}
					],
					"name": "TokenWhitelisted",
					"type": "event"
				},
				{
					"inputs": [
						{
							"internalType": "address",
							"name": "token",
							"type": "address"
						}
					],
					"name": "addToken",
					"outputs": [],
					"stateMutability": "nonpayable",
					"type": "function"
				},
				{
					"inputs": [
						{
							"internalType": "address",
							"name": "token",
							"type": "address"
						}
					],
					"name": "isTokenWhitelisted",
					"outputs": [
						{
							"internalType": "bool",
							"name": "",
							"type": "bool"
						}
					],
					"stateMutability": "view",
					"type": "function"
				},
				{
					"inputs": [],
					"name": "owner",
					"outputs": [
						{
							"internalType": "address",
							"name": "",
							"type": "address"
						}
					],
					"stateMutability": "view",
					"type": "function"
				},
				{
					"inputs": [
						{
							"internalType": "address",
							"name": "token",
							"type": "address"
						}
					],
					"name": "removeToken",
					"outputs": [],
					"stateMutability": "nonpayable",
					"type": "function"
				},
				{
					"inputs": [],
					"name": "renounceOwnership",
					"outputs": [],
					"stateMutability": "nonpayable",
					"type": "function"
				},
				{
					"inputs": [
						{
							"internalType": "address",
							"name": "newOwner",
							"type": "address"
						}
					],
					"name": "transferOwnership",
					"outputs": [],
					"stateMutability": "nonpayable",
					"type": "function"
				},
				{
					"inputs": [],
					"name": "viewCountWhitelistedToken",
					"outputs": [
						{
							"internalType": "uint256",
							"name": "",
							"type": "uint256"
						}
					],
					"stateMutability": "view",
					"type": "function"
				},
				{
					"inputs": [
						{
							"internalType": "uint256",
							"name": "cursor",
							"type": "uint256"
						},
						{
							"internalType": "uint256",
							"name": "size",
							"type": "uint256"
						}
					],
					"name": "viewWhitelistedToken",
					"outputs": [
						{
							"internalType": "address[]",
							"name": "",
							"type": "address[]"
						},
						{
							"internalType": "uint256",
							"name": "",
							"type": "uint256"
						}
					],
					"stateMutability": "view",
					"type": "function"
				}
			],
			"devdoc": {
				"kind": "dev",
				"methods": {
					"owner()": {
						"details": "Returns the address of the current owner."
					},
					"renounceOwnership()": {
						"details": "Leaves the contract without owner. It will not be possible to call `onlyOwner` functions anymore. Can only be called by the current owner. NOTE: Renouncing ownership will leave the contract without an owner, thereby removing any functionality that is only available to the owner."
					},
					"transferOwnership(address)": {
						"details": "Transfers ownership of the contract to a new account (`newOwner`). Can only be called by the current owner."
					}
				},
				"version": 1
			},
			"evm": {
				"assembly": "    /* \"hardhat/contracts/TradeTokenManager.sol\":316:2203  contract TradeTokenManager is ITradeTokenManager, Ownable {... */\n  mstore(0x40, 0x80)\n  callvalue\n  dup1\n  iszero\n  tag_1\n  jumpi\n  0x00\n  dup1\n  revert\ntag_1:\n  pop\n    /* \"@openzeppelin/contracts/access/Ownable.sol\":936:968  _transferOwnership(_msgSender()) */\n  tag_4\n    /* \"@openzeppelin/contracts/access/Ownable.sol\":955:967  _msgSender() */\n  tag_5\n    /* \"@openzeppelin/contracts/access/Ownable.sol\":955:965  _msgSender */\n  shl(0x20, tag_6)\n    /* \"@openzeppelin/contracts/access/Ownable.sol\":955:967  _msgSender() */\n  0x20\n  shr\n  jump\t// in\ntag_5:\n    /* \"@openzeppelin/contracts/access/Ownable.sol\":936:954  _transferOwnership */\n  shl(0x20, tag_7)\n    /* \"@openzeppelin/contracts/access/Ownable.sol\":936:968  _transferOwnership(_msgSender()) */\n  0x20\n  shr\n  jump\t// in\ntag_4:\n    /* \"hardhat/contracts/TradeTokenManager.sol\":316:2203  contract TradeTokenManager is ITradeTokenManager, Ownable {... */\n  jump(tag_8)\n    /* \"@openzeppelin/contracts/utils/Context.sol\":640:736  function _msgSender() internal view virtual returns (address) {... */\ntag_6:\n    /* \"@openzeppelin/contracts/utils/Context.sol\":693:700  address */\n  0x00\n    /* \"@openzeppelin/contracts/utils/Context.sol\":719:729  msg.sender */\n  caller\n    /* \"@openzeppelin/contracts/utils/Context.sol\":712:729  return msg.sender */\n  swap1\n  pop\n    /* \"@openzeppelin/contracts/utils/Context.sol\":640:736  function _msgSender() internal view virtual returns (address) {... */\n  swap1\n  jump\t// out\n    /* \"@openzeppelin/contracts/access/Ownable.sol\":2433:2620  function _transferOwnership(address newOwner) internal virtual {... */\ntag_7:\n    /* \"@openzeppelin/contracts/access/Ownable.sol\":2506:2522  address oldOwner */\n  0x00\n    /* \"@openzeppelin/contracts/access/Ownable.sol\":2525:2531  _owner */\n  dup1\n  0x00\n  swap1\n  sload\n  swap1\n  0x0100\n  exp\n  swap1\n  div\n  0xffffffffffffffffffffffffffffffffffffffff\n  and\n    /* \"@openzeppelin/contracts/access/Ownable.sol\":2506:2531  address oldOwner = _owner */\n  swap1\n  pop\n    /* \"@openzeppelin/contracts/access/Ownable.sol\":2550:2558  newOwner */\n  dup2\n    /* \"@openzeppelin/contracts/access/Ownable.sol\":2541:2547  _owner */\n  0x00\n  dup1\n    /* \"@openzeppelin/contracts/access/Ownable.sol\":2541:2558  _owner = newOwner */\n  0x0100\n  exp\n  dup2\n  sload\n  dup2\n  0xffffffffffffffffffffffffffffffffffffffff\n  mul\n  not\n  and\n  swap1\n  dup4\n  0xffffffffffffffffffffffffffffffffffffffff\n  and\n  mul\n  or\n  swap1\n  sstore\n  pop\n    /* \"@openzeppelin/contracts/access/Ownable.sol\":2604:2612  newOwner */\n  dup2\n    /* \"@openzeppelin/contracts/access/Ownable.sol\":2573:2613  OwnershipTransferred(oldOwner, newOwner) */\n  0xffffffffffffffffffffffffffffffffffffffff\n  and\n    /* \"@openzeppelin/contracts/access/Ownable.sol\":2594:2602  oldOwner */\n  dup2\n    /* \"@openzeppelin/contracts/access/Ownable.sol\":2573:2613  OwnershipTransferred(oldOwner, newOwner) */\n  0xffffffffffffffffffffffffffffffffffffffff\n  and\n  0x8be0079c531659141344cd1fd0a4f28419497f9722a3daafe3b4186f6b6457e0\n  mload(0x40)\n  mload(0x40)\n  dup1\n  swap2\n  sub\n  swap1\n  log3\n    /* \"@openzeppelin/contracts/access/Ownable.sol\":2496:2620  {... */\n  pop\n    /* \"@openzeppelin/contracts/access/Ownable.sol\":2433:2620  function _transferOwnership(address newOwner) internal virtual {... */\n  pop\n  jump\t// out\n    /* \"hardhat/contracts/TradeTokenManager.sol\":316:2203  contract TradeTokenManager is ITradeTokenManager, Ownable {... */\ntag_8:\n  dataSize(sub_0)\n  dup1\n  dataOffset(sub_0)\n  0x00\n  codecopy\n  0x00\n  return\nstop\n\nsub_0: assembly {\n        /* \"hardhat/contracts/TradeTokenManager.sol\":316:2203  contract TradeTokenManager is ITradeTokenManager, Ownable {... */\n      mstore(0x40, 0x80)\n      callvalue\n      dup1\n      iszero\n      tag_1\n      jumpi\n      0x00\n      dup1\n      revert\n    tag_1:\n      pop\n      jumpi(tag_2, lt(calldatasize, 0x04))\n      shr(0xe0, calldataload(0x00))\n      dup1\n      0xb5af090f\n      gt\n      tag_11\n      jumpi\n      dup1\n      0xb5af090f\n      eq\n      tag_7\n      jumpi\n      dup1\n      0xd48bfca7\n      eq\n      tag_8\n      jumpi\n      dup1\n      0xdb4f69af\n      eq\n      tag_9\n      jumpi\n      dup1\n      0xf2fde38b\n      eq\n      tag_10\n      jumpi\n      jump(tag_2)\n    tag_11:\n      dup1\n      0x018162f2\n      eq\n      tag_3\n      jumpi\n      dup1\n      0x5fa7b584\n      eq\n      tag_4\n      jumpi\n      dup1\n      0x715018a6\n      eq\n      tag_5\n      jumpi\n      dup1\n      0x8da5cb5b\n      eq\n      tag_6\n      jumpi\n    tag_2:\n      0x00\n      dup1\n      revert\n        /* \"hardhat/contracts/TradeTokenManager.sol\":1439:1982  function viewWhitelistedToken(... */\n    tag_3:\n      tag_12\n      0x04\n      dup1\n      calldatasize\n      sub\n      dup2\n      add\n      swap1\n      tag_13\n      swap2\n      swap1\n      tag_14\n      jump\t// in\n    tag_13:\n      tag_15\n      jump\t// in\n    tag_12:\n      mload(0x40)\n      tag_16\n      swap3\n      swap2\n      swap1\n      tag_17\n      jump\t// in\n    tag_16:\n      mload(0x40)\n      dup1\n      swap2\n      sub\n      swap1\n      return\n        /* \"hardhat/contracts/TradeTokenManager.sol\":946:1169  function removeToken(address token) external override onlyOwner {... */\n    tag_4:\n      tag_18\n      0x04\n      dup1\n      calldatasize\n      sub\n      dup2\n      add\n      swap1\n      tag_19\n      swap2\n      swap1\n      tag_20\n      jump\t// in\n    tag_19:\n      tag_21\n      jump\t// in\n    tag_18:\n      stop\n        /* \"@openzeppelin/contracts/access/Ownable.sol\":1831:1932  function renounceOwnership() public virtual onlyOwner {... */\n    tag_5:\n      tag_22\n      tag_23\n      jump\t// in\n    tag_22:\n      stop\n        /* \"@openzeppelin/contracts/access/Ownable.sol\":1201:1286  function owner() public view virtual returns (address) {... */\n    tag_6:\n      tag_24\n      tag_25\n      jump\t// in\n    tag_24:\n      mload(0x40)\n      tag_26\n      swap2\n      swap1\n      tag_27\n      jump\t// in\n    tag_26:\n      mload(0x40)\n      dup1\n      swap2\n      sub\n      swap1\n      return\n        /* \"hardhat/contracts/TradeTokenManager.sol\":1216:1369  function isTokenWhitelisted(... */\n    tag_7:\n      tag_28\n      0x04\n      dup1\n      calldatasize\n      sub\n      dup2\n      add\n      swap1\n      tag_29\n      swap2\n      swap1\n      tag_20\n      jump\t// in\n    tag_29:\n      tag_30\n      jump\t// in\n    tag_28:\n      mload(0x40)\n      tag_31\n      swap2\n      swap1\n      tag_32\n      jump\t// in\n    tag_31:\n      mload(0x40)\n      dup1\n      swap2\n      sub\n      swap1\n      return\n        /* \"hardhat/contracts/TradeTokenManager.sol\":632:899  function addToken(address token) external override onlyOwner {... */\n    tag_8:\n      tag_33\n      0x04\n      dup1\n      calldatasize\n      sub\n      dup2\n      add\n      swap1\n      tag_34\n      swap2\n      swap1\n      tag_20\n      jump\t// in\n    tag_34:\n      tag_35\n      jump\t// in\n    tag_33:\n      stop\n        /* \"hardhat/contracts/TradeTokenManager.sol\":2036:2201  function viewCountWhitelistedToken()... */\n    tag_9:\n      tag_36\n      tag_37\n      jump\t// in\n    tag_36:\n      mload(0x40)\n      tag_38\n      swap2\n      swap1\n      tag_39\n      jump\t// in\n    tag_38:\n      mload(0x40)\n      dup1\n      swap2\n      sub\n      swap1\n      return\n        /* \"@openzeppelin/contracts/access/Ownable.sol\":2081:2279  function transferOwnership(address newOwner) public virtual onlyOwner {... */\n    tag_10:\n      tag_40\n      0x04\n      dup1\n      calldatasize\n      sub\n      dup2\n      add\n      swap1\n      tag_41\n      swap2\n      swap1\n      tag_20\n      jump\t// in\n    tag_41:\n      tag_42\n      jump\t// in\n    tag_40:\n      stop\n        /* \"hardhat/contracts/TradeTokenManager.sol\":1439:1982  function viewWhitelistedToken(... */\n    tag_15:\n        /* \"hardhat/contracts/TradeTokenManager.sol\":1553:1569  address[] memory */\n      0x60\n        /* \"hardhat/contracts/TradeTokenManager.sol\":1571:1578  uint256 */\n      0x00\n        /* \"hardhat/contracts/TradeTokenManager.sol\":1590:1601  uint256 len */\n      dup1\n        /* \"hardhat/contracts/TradeTokenManager.sol\":1604:1608  size */\n      dup4\n        /* \"hardhat/contracts/TradeTokenManager.sol\":1590:1608  uint256 len = size */\n      swap1\n      pop\n        /* \"hardhat/contracts/TradeTokenManager.sol\":1659:1665  cursor */\n      dup5\n        /* \"hardhat/contracts/TradeTokenManager.sol\":1629:1656  _whitelistedTokens.length() */\n      tag_44\n        /* \"hardhat/contracts/TradeTokenManager.sol\":1629:1647  _whitelistedTokens */\n      0x01\n        /* \"hardhat/contracts/TradeTokenManager.sol\":1629:1654  _whitelistedTokens.length */\n      tag_45\n        /* \"hardhat/contracts/TradeTokenManager.sol\":1629:1656  _whitelistedTokens.length() */\n      jump\t// in\n    tag_44:\n        /* \"hardhat/contracts/TradeTokenManager.sol\":1629:1665  _whitelistedTokens.length() - cursor */\n      tag_46\n      swap2\n      swap1\n      tag_47\n      jump\t// in\n    tag_46:\n        /* \"hardhat/contracts/TradeTokenManager.sol\":1623:1626  len */\n      dup2\n        /* \"hardhat/contracts/TradeTokenManager.sol\":1623:1665  len > _whitelistedTokens.length() - cursor */\n      gt\n        /* \"hardhat/contracts/TradeTokenManager.sol\":1619:1734  if (len > _whitelistedTokens.length() - cursor) {... */\n      iszero\n      tag_48\n      jumpi\n        /* \"hardhat/contracts/TradeTokenManager.sol\":1717:1723  cursor */\n      dup5\n        /* \"hardhat/contracts/TradeTokenManager.sol\":1687:1714  _whitelistedTokens.length() */\n      tag_49\n        /* \"hardhat/contracts/TradeTokenManager.sol\":1687:1705  _whitelistedTokens */\n      0x01\n        /* \"hardhat/contracts/TradeTokenManager.sol\":1687:1712  _whitelistedTokens.length */\n      tag_45\n        /* \"hardhat/contracts/TradeTokenManager.sol\":1687:1714  _whitelistedTokens.length() */\n      jump\t// in\n    tag_49:\n        /* \"hardhat/contracts/TradeTokenManager.sol\":1687:1723  _whitelistedTokens.length() - cursor */\n      tag_50\n      swap2\n      swap1\n      tag_47\n      jump\t// in\n    tag_50:\n        /* \"hardhat/contracts/TradeTokenManager.sol\":1681:1723  len = _whitelistedTokens.length() - cursor */\n      swap1\n      pop\n        /* \"hardhat/contracts/TradeTokenManager.sol\":1619:1734  if (len > _whitelistedTokens.length() - cursor) {... */\n    tag_48:\n        /* \"hardhat/contracts/TradeTokenManager.sol\":1744:1778  address[] memory whitelistedTokens */\n      0x00\n        /* \"hardhat/contracts/TradeTokenManager.sol\":1795:1798  len */\n      dup2\n        /* \"hardhat/contracts/TradeTokenManager.sol\":1781:1799  new address[](len) */\n      0xffffffffffffffff\n      dup2\n      gt\n      iszero\n      tag_51\n      jumpi\n      tag_52\n      tag_53\n      jump\t// in\n    tag_52:\n    tag_51:\n      mload(0x40)\n      swap1\n      dup1\n      dup3\n      mstore\n      dup1\n      0x20\n      mul\n      0x20\n      add\n      dup3\n      add\n      0x40\n      mstore\n      dup1\n      iszero\n      tag_54\n      jumpi\n      dup2\n      0x20\n      add\n      0x20\n      dup3\n      mul\n      dup1\n      calldatasize\n      dup4\n      calldatacopy\n      dup1\n      dup3\n      add\n      swap2\n      pop\n      pop\n      swap1\n      pop\n    tag_54:\n      pop\n        /* \"hardhat/contracts/TradeTokenManager.sol\":1744:1799  address[] memory whitelistedTokens = new address[](len) */\n      swap1\n      pop\n        /* \"hardhat/contracts/TradeTokenManager.sol\":1815:1824  uint256 i */\n      0x00\n        /* \"hardhat/contracts/TradeTokenManager.sol\":1810:1925  for (uint256 i = 0; i < len; i++) {... */\n    tag_55:\n        /* \"hardhat/contracts/TradeTokenManager.sol\":1834:1837  len */\n      dup3\n        /* \"hardhat/contracts/TradeTokenManager.sol\":1830:1831  i */\n      dup2\n        /* \"hardhat/contracts/TradeTokenManager.sol\":1830:1837  i < len */\n      lt\n        /* \"hardhat/contracts/TradeTokenManager.sol\":1810:1925  for (uint256 i = 0; i < len; i++) {... */\n      iszero\n      tag_56\n      jumpi\n        /* \"hardhat/contracts/TradeTokenManager.sol\":1881:1914  _whitelistedTokens.at(cursor + i) */\n      tag_58\n        /* \"hardhat/contracts/TradeTokenManager.sol\":1912:1913  i */\n      dup2\n        /* \"hardhat/contracts/TradeTokenManager.sol\":1903:1909  cursor */\n      dup9\n        /* \"hardhat/contracts/TradeTokenManager.sol\":1903:1913  cursor + i */\n      tag_59\n      swap2\n      swap1\n      tag_60\n      jump\t// in\n    tag_59:\n        /* \"hardhat/contracts/TradeTokenManager.sol\":1881:1899  _whitelistedTokens */\n      0x01\n        /* \"hardhat/contracts/TradeTokenManager.sol\":1881:1902  _whitelistedTokens.at */\n      tag_61\n      swap1\n        /* \"hardhat/contracts/TradeTokenManager.sol\":1881:1914  _whitelistedTokens.at(cursor + i) */\n      swap2\n      swap1\n      0xffffffff\n      and\n      jump\t// in\n    tag_58:\n        /* \"hardhat/contracts/TradeTokenManager.sol\":1858:1875  whitelistedTokens */\n      dup3\n        /* \"hardhat/contracts/TradeTokenManager.sol\":1876:1877  i */\n      dup3\n        /* \"hardhat/contracts/TradeTokenManager.sol\":1858:1878  whitelistedTokens[i] */\n      dup2\n      mload\n      dup2\n      lt\n      tag_62\n      jumpi\n      tag_63\n      tag_64\n      jump\t// in\n    tag_63:\n    tag_62:\n      0x20\n      mul\n      0x20\n      add\n      add\n        /* \"hardhat/contracts/TradeTokenManager.sol\":1858:1914  whitelistedTokens[i] = _whitelistedTokens.at(cursor + i) */\n      swap1\n      0xffffffffffffffffffffffffffffffffffffffff\n      and\n      swap1\n      dup2\n      0xffffffffffffffffffffffffffffffffffffffff\n      and\n      dup2\n      mstore\n      pop\n      pop\n        /* \"hardhat/contracts/TradeTokenManager.sol\":1839:1842  i++ */\n      dup1\n      dup1\n      tag_65\n      swap1\n      tag_66\n      jump\t// in\n    tag_65:\n      swap2\n      pop\n      pop\n        /* \"hardhat/contracts/TradeTokenManager.sol\":1810:1925  for (uint256 i = 0; i < len; i++) {... */\n      jump(tag_55)\n    tag_56:\n      pop\n        /* \"hardhat/contracts/TradeTokenManager.sol\":1943:1960  whitelistedTokens */\n      dup1\n        /* \"hardhat/contracts/TradeTokenManager.sol\":1971:1974  len */\n      dup3\n        /* \"hardhat/contracts/TradeTokenManager.sol\":1962:1968  cursor */\n      dup8\n        /* \"hardhat/contracts/TradeTokenManager.sol\":1962:1974  cursor + len */\n      tag_67\n      swap2\n      swap1\n      tag_60\n      jump\t// in\n    tag_67:\n        /* \"hardhat/contracts/TradeTokenManager.sol\":1935:1975  return (whitelistedTokens, cursor + len) */\n      swap4\n      pop\n      swap4\n      pop\n      pop\n      pop\n        /* \"hardhat/contracts/TradeTokenManager.sol\":1439:1982  function viewWhitelistedToken(... */\n      swap3\n      pop\n      swap3\n      swap1\n      pop\n      jump\t// out\n        /* \"hardhat/contracts/TradeTokenManager.sol\":946:1169  function removeToken(address token) external override onlyOwner {... */\n    tag_21:\n        /* \"@openzeppelin/contracts/access/Ownable.sol\":1094:1107  _checkOwner() */\n      tag_69\n        /* \"@openzeppelin/contracts/access/Ownable.sol\":1094:1105  _checkOwner */\n      tag_70\n        /* \"@openzeppelin/contracts/access/Ownable.sol\":1094:1107  _checkOwner() */\n      jump\t// in\n    tag_69:\n        /* \"hardhat/contracts/TradeTokenManager.sol\":1028:1062  _whitelistedTokens.contains(token) */\n      tag_72\n        /* \"hardhat/contracts/TradeTokenManager.sol\":1056:1061  token */\n      dup2\n        /* \"hardhat/contracts/TradeTokenManager.sol\":1028:1046  _whitelistedTokens */\n      0x01\n        /* \"hardhat/contracts/TradeTokenManager.sol\":1028:1055  _whitelistedTokens.contains */\n      tag_73\n      swap1\n        /* \"hardhat/contracts/TradeTokenManager.sol\":1028:1062  _whitelistedTokens.contains(token) */\n      swap2\n      swap1\n      0xffffffff\n      and\n      jump\t// in\n    tag_72:\n        /* \"hardhat/contracts/TradeTokenManager.sol\":1020:1085  require(_whitelistedTokens.contains(token), \"Token: Not Existed\") */\n      tag_74\n      jumpi\n      mload(0x40)\n      0x08c379a000000000000000000000000000000000000000000000000000000000\n      dup2\n      mstore\n      0x04\n      add\n      tag_75\n      swap1\n      tag_76\n      jump\t// in\n    tag_75:\n      mload(0x40)\n      dup1\n      swap2\n      sub\n      swap1\n      revert\n    tag_74:\n        /* \"hardhat/contracts/TradeTokenManager.sol\":1096:1128  _whitelistedTokens.remove(token) */\n      tag_77\n        /* \"hardhat/contracts/TradeTokenManager.sol\":1122:1127  token */\n      dup2\n        /* \"hardhat/contracts/TradeTokenManager.sol\":1096:1114  _whitelistedTokens */\n      0x01\n        /* \"hardhat/contracts/TradeTokenManager.sol\":1096:1121  _whitelistedTokens.remove */\n      tag_78\n      swap1\n        /* \"hardhat/contracts/TradeTokenManager.sol\":1096:1128  _whitelistedTokens.remove(token) */\n      swap2\n      swap1\n      0xffffffff\n      and\n      jump\t// in\n    tag_77:\n      pop\n        /* \"hardhat/contracts/TradeTokenManager.sol\":1156:1161  token */\n      dup1\n        /* \"hardhat/contracts/TradeTokenManager.sol\":1144:1162  TokenDelete(token) */\n      0xffffffffffffffffffffffffffffffffffffffff\n      and\n      0x505eec0b2cb995482dc58407253d70f68a3cb27c89ec211ba13c7240557b9353\n      mload(0x40)\n      mload(0x40)\n      dup1\n      swap2\n      sub\n      swap1\n      log2\n        /* \"hardhat/contracts/TradeTokenManager.sol\":946:1169  function removeToken(address token) external override onlyOwner {... */\n      pop\n      jump\t// out\n        /* \"@openzeppelin/contracts/access/Ownable.sol\":1831:1932  function renounceOwnership() public virtual onlyOwner {... */\n    tag_23:\n        /* \"@openzeppelin/contracts/access/Ownable.sol\":1094:1107  _checkOwner() */\n      tag_80\n        /* \"@openzeppelin/contracts/access/Ownable.sol\":1094:1105  _checkOwner */\n      tag_70\n        /* \"@openzeppelin/contracts/access/Ownable.sol\":1094:1107  _checkOwner() */\n      jump\t// in\n    tag_80:\n        /* \"@openzeppelin/contracts/access/Ownable.sol\":1895:1925  _transferOwnership(address(0)) */\n      tag_82\n        /* \"@openzeppelin/contracts/access/Ownable.sol\":1922:1923  0 */\n      0x00\n        /* \"@openzeppelin/contracts/access/Ownable.sol\":1895:1913  _transferOwnership */\n      tag_83\n        /* \"@openzeppelin/contracts/access/Ownable.sol\":1895:1925  _transferOwnership(address(0)) */\n      jump\t// in\n    tag_82:\n        /* \"@openzeppelin/contracts/access/Ownable.sol\":1831:1932  function renounceOwnership() public virtual onlyOwner {... */\n      jump\t// out\n        /* \"@openzeppelin/contracts/access/Ownable.sol\":1201:1286  function owner() public view virtual returns (address) {... */\n    tag_25:\n        /* \"@openzeppelin/contracts/access/Ownable.sol\":1247:1254  address */\n      0x00\n        /* \"@openzeppelin/contracts/access/Ownable.sol\":1273:1279  _owner */\n      dup1\n      0x00\n      swap1\n      sload\n      swap1\n      0x0100\n      exp\n      swap1\n      div\n      0xffffffffffffffffffffffffffffffffffffffff\n      and\n        /* \"@openzeppelin/contracts/access/Ownable.sol\":1266:1279  return _owner */\n      swap1\n      pop\n        /* \"@openzeppelin/contracts/access/Ownable.sol\":1201:1286  function owner() public view virtual returns (address) {... */\n      swap1\n      jump\t// out\n        /* \"hardhat/contracts/TradeTokenManager.sol\":1216:1369  function isTokenWhitelisted(... */\n    tag_30:\n        /* \"hardhat/contracts/TradeTokenManager.sol\":1305:1309  bool */\n      0x00\n        /* \"hardhat/contracts/TradeTokenManager.sol\":1328:1362  _whitelistedTokens.contains(token) */\n      tag_86\n        /* \"hardhat/contracts/TradeTokenManager.sol\":1356:1361  token */\n      dup3\n        /* \"hardhat/contracts/TradeTokenManager.sol\":1328:1346  _whitelistedTokens */\n      0x01\n        /* \"hardhat/contracts/TradeTokenManager.sol\":1328:1355  _whitelistedTokens.contains */\n      tag_73\n      swap1\n        /* \"hardhat/contracts/TradeTokenManager.sol\":1328:1362  _whitelistedTokens.contains(token) */\n      swap2\n      swap1\n      0xffffffff\n      and\n      jump\t// in\n    tag_86:\n        /* \"hardhat/contracts/TradeTokenManager.sol\":1321:1362  return _whitelistedTokens.contains(token) */\n      swap1\n      pop\n        /* \"hardhat/contracts/TradeTokenManager.sol\":1216:1369  function isTokenWhitelisted(... */\n      swap2\n      swap1\n      pop\n      jump\t// out\n        /* \"hardhat/contracts/TradeTokenManager.sol\":632:899  function addToken(address token) external override onlyOwner {... */\n    tag_35:\n        /* \"@openzeppelin/contracts/access/Ownable.sol\":1094:1107  _checkOwner() */\n      tag_88\n        /* \"@openzeppelin/contracts/access/Ownable.sol\":1094:1105  _checkOwner */\n      tag_70\n        /* \"@openzeppelin/contracts/access/Ownable.sol\":1094:1107  _checkOwner() */\n      jump\t// in\n    tag_88:\n        /* \"hardhat/contracts/TradeTokenManager.sol\":725:759  _whitelistedTokens.contains(token) */\n      tag_90\n        /* \"hardhat/contracts/TradeTokenManager.sol\":753:758  token */\n      dup2\n        /* \"hardhat/contracts/TradeTokenManager.sol\":725:743  _whitelistedTokens */\n      0x01\n        /* \"hardhat/contracts/TradeTokenManager.sol\":725:752  _whitelistedTokens.contains */\n      tag_73\n      swap1\n        /* \"hardhat/contracts/TradeTokenManager.sol\":725:759  _whitelistedTokens.contains(token) */\n      swap2\n      swap1\n      0xffffffff\n      and\n      jump\t// in\n    tag_90:\n        /* \"hardhat/contracts/TradeTokenManager.sol\":724:759  !_whitelistedTokens.contains(token) */\n      iszero\n        /* \"hardhat/contracts/TradeTokenManager.sol\":703:813  require(... */\n      tag_91\n      jumpi\n      mload(0x40)\n      0x08c379a000000000000000000000000000000000000000000000000000000000\n      dup2\n      mstore\n      0x04\n      add\n      tag_92\n      swap1\n      tag_93\n      jump\t// in\n    tag_92:\n      mload(0x40)\n      dup1\n      swap2\n      sub\n      swap1\n      revert\n    tag_91:\n        /* \"hardhat/contracts/TradeTokenManager.sol\":824:853  _whitelistedTokens.add(token) */\n      tag_94\n        /* \"hardhat/contracts/TradeTokenManager.sol\":847:852  token */\n      dup2\n        /* \"hardhat/contracts/TradeTokenManager.sol\":824:842  _whitelistedTokens */\n      0x01\n        /* \"hardhat/contracts/TradeTokenManager.sol\":824:846  _whitelistedTokens.add */\n      tag_95\n      swap1\n        /* \"hardhat/contracts/TradeTokenManager.sol\":824:853  _whitelistedTokens.add(token) */\n      swap2\n      swap1\n      0xffffffff\n      and\n      jump\t// in\n    tag_94:\n      pop\n        /* \"hardhat/contracts/TradeTokenManager.sol\":886:891  token */\n      dup1\n        /* \"hardhat/contracts/TradeTokenManager.sol\":869:892  TokenWhitelisted(token) */\n      0xffffffffffffffffffffffffffffffffffffffff\n      and\n      0x6a65f90b1a644d2faac467a21e07e50e3f8fa5846e26231d30ae79a417d3d262\n      mload(0x40)\n      mload(0x40)\n      dup1\n      swap2\n      sub\n      swap1\n      log2\n        /* \"hardhat/contracts/TradeTokenManager.sol\":632:899  function addToken(address token) external override onlyOwner {... */\n      pop\n      jump\t// out\n        /* \"hardhat/contracts/TradeTokenManager.sol\":2036:2201  function viewCountWhitelistedToken()... */\n    tag_37:\n        /* \"hardhat/contracts/TradeTokenManager.sol\":2137:2144  uint256 */\n      0x00\n        /* \"hardhat/contracts/TradeTokenManager.sol\":2167:2194  _whitelistedTokens.length() */\n      tag_97\n        /* \"hardhat/contracts/TradeTokenManager.sol\":2167:2185  _whitelistedTokens */\n      0x01\n        /* \"hardhat/contracts/TradeTokenManager.sol\":2167:2192  _whitelistedTokens.length */\n      tag_45\n        /* \"hardhat/contracts/TradeTokenManager.sol\":2167:2194  _whitelistedTokens.length() */\n      jump\t// in\n    tag_97:\n        /* \"hardhat/contracts/TradeTokenManager.sol\":2160:2194  return _whitelistedTokens.length() */\n      swap1\n      pop\n        /* \"hardhat/contracts/TradeTokenManager.sol\":2036:2201  function viewCountWhitelistedToken()... */\n      swap1\n      jump\t// out\n        /* \"@openzeppelin/contracts/access/Ownable.sol\":2081:2279  function transferOwnership(address newOwner) public virtual onlyOwner {... */\n    tag_42:\n        /* \"@openzeppelin/contracts/access/Ownable.sol\":1094:1107  _checkOwner() */\n      tag_99\n        /* \"@openzeppelin/contracts/access/Ownable.sol\":1094:1105  _checkOwner */\n      tag_70\n        /* \"@openzeppelin/contracts/access/Ownable.sol\":1094:1107  _checkOwner() */\n      jump\t// in\n    tag_99:\n        /* \"@openzeppelin/contracts/access/Ownable.sol\":2189:2190  0 */\n      0x00\n        /* \"@openzeppelin/contracts/access/Ownable.sol\":2169:2191  newOwner != address(0) */\n      0xffffffffffffffffffffffffffffffffffffffff\n      and\n        /* \"@openzeppelin/contracts/access/Ownable.sol\":2169:2177  newOwner */\n      dup2\n        /* \"@openzeppelin/contracts/access/Ownable.sol\":2169:2191  newOwner != address(0) */\n      0xffffffffffffffffffffffffffffffffffffffff\n      and\n      sub\n        /* \"@openzeppelin/contracts/access/Ownable.sol\":2161:2234  require(newOwner != address(0), \"Ownable: new owner is the zero address\") */\n      tag_101\n      jumpi\n      mload(0x40)\n      0x08c379a000000000000000000000000000000000000000000000000000000000\n      dup2\n      mstore\n      0x04\n      add\n      tag_102\n      swap1\n      tag_103\n      jump\t// in\n    tag_102:\n      mload(0x40)\n      dup1\n      swap2\n      sub\n      swap1\n      revert\n    tag_101:\n        /* \"@openzeppelin/contracts/access/Ownable.sol\":2244:2272  _transferOwnership(newOwner) */\n      tag_104\n        /* \"@openzeppelin/contracts/access/Ownable.sol\":2263:2271  newOwner */\n      dup2\n        /* \"@openzeppelin/contracts/access/Ownable.sol\":2244:2262  _transferOwnership */\n      tag_83\n        /* \"@openzeppelin/contracts/access/Ownable.sol\":2244:2272  _transferOwnership(newOwner) */\n      jump\t// in\n    tag_104:\n        /* \"@openzeppelin/contracts/access/Ownable.sol\":2081:2279  function transferOwnership(address newOwner) public virtual onlyOwner {... */\n      pop\n      jump\t// out\n        /* \"@openzeppelin/contracts/utils/structs/EnumerableSet.sol\":9098:9213  function length(AddressSet storage set) internal view returns (uint256) {... */\n    tag_45:\n        /* \"@openzeppelin/contracts/utils/structs/EnumerableSet.sol\":9161:9168  uint256 */\n      0x00\n        /* \"@openzeppelin/contracts/utils/structs/EnumerableSet.sol\":9187:9206  _length(set._inner) */\n      tag_106\n        /* \"@openzeppelin/contracts/utils/structs/EnumerableSet.sol\":9195:9198  set */\n      dup3\n        /* \"@openzeppelin/contracts/utils/structs/EnumerableSet.sol\":9195:9205  set._inner */\n      0x00\n      add\n        /* \"@openzeppelin/contracts/utils/structs/EnumerableSet.sol\":9187:9194  _length */\n      tag_107\n        /* \"@openzeppelin/contracts/utils/structs/EnumerableSet.sol\":9187:9206  _length(set._inner) */\n      jump\t// in\n    tag_106:\n        /* \"@openzeppelin/contracts/utils/structs/EnumerableSet.sol\":9180:9206  return _length(set._inner) */\n      swap1\n      pop\n        /* \"@openzeppelin/contracts/utils/structs/EnumerableSet.sol\":9098:9213  function length(AddressSet storage set) internal view returns (uint256) {... */\n      swap2\n      swap1\n      pop\n      jump\t// out\n        /* \"@openzeppelin/contracts/utils/structs/EnumerableSet.sol\":9555:9711  function at(AddressSet storage set, uint256 index) internal view returns (address) {... */\n    tag_61:\n        /* \"@openzeppelin/contracts/utils/structs/EnumerableSet.sol\":9629:9636  address */\n      0x00\n        /* \"@openzeppelin/contracts/utils/structs/EnumerableSet.sol\":9679:9701  _at(set._inner, index) */\n      tag_109\n        /* \"@openzeppelin/contracts/utils/structs/EnumerableSet.sol\":9683:9686  set */\n      dup4\n        /* \"@openzeppelin/contracts/utils/structs/EnumerableSet.sol\":9683:9693  set._inner */\n      0x00\n      add\n        /* \"@openzeppelin/contracts/utils/structs/EnumerableSet.sol\":9695:9700  index */\n      dup4\n        /* \"@openzeppelin/contracts/utils/structs/EnumerableSet.sol\":9679:9682  _at */\n      tag_110\n        /* \"@openzeppelin/contracts/utils/structs/EnumerableSet.sol\":9679:9701  _at(set._inner, index) */\n      jump\t// in\n    tag_109:\n        /* \"@openzeppelin/contracts/utils/structs/EnumerableSet.sol\":9671:9702  uint256(_at(set._inner, index)) */\n      0x00\n      shr\n        /* \"@openzeppelin/contracts/utils/structs/EnumerableSet.sol\":9648:9704  return address(uint160(uint256(_at(set._inner, index)))) */\n      swap1\n      pop\n        /* \"@openzeppelin/contracts/utils/structs/EnumerableSet.sol\":9555:9711  function at(AddressSet storage set, uint256 index) internal view returns (address) {... */\n      swap3\n      swap2\n      pop\n      pop\n      jump\t// out\n        /* \"@openzeppelin/contracts/access/Ownable.sol\":1359:1489  function _checkOwner() internal view virtual {... */\n    tag_70:\n        /* \"@openzeppelin/contracts/access/Ownable.sol\":1433:1445  _msgSender() */\n      tag_112\n        /* \"@openzeppelin/contracts/access/Ownable.sol\":1433:1443  _msgSender */\n      tag_113\n        /* \"@openzeppelin/contracts/access/Ownable.sol\":1433:1445  _msgSender() */\n      jump\t// in\n    tag_112:\n        /* \"@openzeppelin/contracts/access/Ownable.sol\":1422:1445  owner() == _msgSender() */\n      0xffffffffffffffffffffffffffffffffffffffff\n      and\n        /* \"@openzeppelin/contracts/access/Ownable.sol\":1422:1429  owner() */\n      tag_114\n        /* \"@openzeppelin/contracts/access/Ownable.sol\":1422:1427  owner */\n      tag_25\n        /* \"@openzeppelin/contracts/access/Ownable.sol\":1422:1429  owner() */\n      jump\t// in\n    tag_114:\n        /* \"@openzeppelin/contracts/access/Ownable.sol\":1422:1445  owner() == _msgSender() */\n      0xffffffffffffffffffffffffffffffffffffffff\n      and\n      eq\n        /* \"@openzeppelin/contracts/access/Ownable.sol\":1414:1482  require(owner() == _msgSender(), \"Ownable: caller is not the owner\") */\n      tag_115\n      jumpi\n      mload(0x40)\n      0x08c379a000000000000000000000000000000000000000000000000000000000\n      dup2\n      mstore\n      0x04\n      add\n      tag_116\n      swap1\n      tag_117\n      jump\t// in\n    tag_116:\n      mload(0x40)\n      dup1\n      swap2\n      sub\n      swap1\n      revert\n    tag_115:\n        /* \"@openzeppelin/contracts/access/Ownable.sol\":1359:1489  function _checkOwner() internal view virtual {... */\n      jump\t// out\n        /* \"@openzeppelin/contracts/utils/structs/EnumerableSet.sol\":8852:9017  function contains(AddressSet storage set, address value) internal view returns (bool) {... */\n    tag_73:\n        /* \"@openzeppelin/contracts/utils/structs/EnumerableSet.sol\":8932:8936  bool */\n      0x00\n        /* \"@openzeppelin/contracts/utils/structs/EnumerableSet.sol\":8955:9010  _contains(set._inner, bytes32(uint256(uint160(value)))) */\n      tag_119\n        /* \"@openzeppelin/contracts/utils/structs/EnumerableSet.sol\":8965:8968  set */\n      dup4\n        /* \"@openzeppelin/contracts/utils/structs/EnumerableSet.sol\":8965:8975  set._inner */\n      0x00\n      add\n        /* \"@openzeppelin/contracts/utils/structs/EnumerableSet.sol\":9001:9006  value */\n      dup4\n        /* \"@openzeppelin/contracts/utils/structs/EnumerableSet.sol\":8985:9008  uint256(uint160(value)) */\n      0xffffffffffffffffffffffffffffffffffffffff\n      and\n        /* \"@openzeppelin/contracts/utils/structs/EnumerableSet.sol\":8977:9009  bytes32(uint256(uint160(value))) */\n      0x00\n      shl\n        /* \"@openzeppelin/contracts/utils/structs/EnumerableSet.sol\":8955:8964  _contains */\n      tag_120\n        /* \"@openzeppelin/contracts/utils/structs/EnumerableSet.sol\":8955:9010  _contains(set._inner, bytes32(uint256(uint160(value)))) */\n      jump\t// in\n    tag_119:\n        /* \"@openzeppelin/contracts/utils/structs/EnumerableSet.sol\":8948:9010  return _contains(set._inner, bytes32(uint256(uint160(value)))) */\n      swap1\n      pop\n        /* \"@openzeppelin/contracts/utils/structs/EnumerableSet.sol\":8852:9017  function contains(AddressSet storage set, address value) internal view returns (bool) {... */\n      swap3\n      swap2\n      pop\n      pop\n      jump\t// out\n        /* \"@openzeppelin/contracts/utils/structs/EnumerableSet.sol\":8615:8771  function remove(AddressSet storage set, address value) internal returns (bool) {... */\n    tag_78:\n        /* \"@openzeppelin/contracts/utils/structs/EnumerableSet.sol\":8688:8692  bool */\n      0x00\n        /* \"@openzeppelin/contracts/utils/structs/EnumerableSet.sol\":8711:8764  _remove(set._inner, bytes32(uint256(uint160(value)))) */\n      tag_122\n        /* \"@openzeppelin/contracts/utils/structs/EnumerableSet.sol\":8719:8722  set */\n      dup4\n        /* \"@openzeppelin/contracts/utils/structs/EnumerableSet.sol\":8719:8729  set._inner */\n      0x00\n      add\n        /* \"@openzeppelin/contracts/utils/structs/EnumerableSet.sol\":8755:8760  value */\n      dup4\n        /* \"@openzeppelin/contracts/utils/structs/EnumerableSet.sol\":8739:8762  uint256(uint160(value)) */\n      0xffffffffffffffffffffffffffffffffffffffff\n      and\n        /* \"@openzeppelin/contracts/utils/structs/EnumerableSet.sol\":8731:8763  bytes32(uint256(uint160(value))) */\n      0x00\n      shl\n        /* \"@openzeppelin/contracts/utils/structs/EnumerableSet.sol\":8711:8718  _remove */\n      tag_123\n        /* \"@openzeppelin/contracts/utils/structs/EnumerableSet.sol\":8711:8764  _remove(set._inner, bytes32(uint256(uint160(value)))) */\n      jump\t// in\n    tag_122:\n        /* \"@openzeppelin/contracts/utils/structs/EnumerableSet.sol\":8704:8764  return _remove(set._inner, bytes32(uint256(uint160(value)))) */\n      swap1\n      pop\n        /* \"@openzeppelin/contracts/utils/structs/EnumerableSet.sol\":8615:8771  function remove(AddressSet storage set, address value) internal returns (bool) {... */\n      swap3\n      swap2\n      pop\n      pop\n      jump\t// out\n        /* \"@openzeppelin/contracts/access/Ownable.sol\":2433:2620  function _transferOwnership(address newOwner) internal virtual {... */\n    tag_83:\n        /* \"@openzeppelin/contracts/access/Ownable.sol\":2506:2522  address oldOwner */\n      0x00\n        /* \"@openzeppelin/contracts/access/Ownable.sol\":2525:2531  _owner */\n      dup1\n      0x00\n      swap1\n      sload\n      swap1\n      0x0100\n      exp\n      swap1\n      div\n      0xffffffffffffffffffffffffffffffffffffffff\n      and\n        /* \"@openzeppelin/contracts/access/Ownable.sol\":2506:2531  address oldOwner = _owner */\n      swap1\n      pop\n        /* \"@openzeppelin/contracts/access/Ownable.sol\":2550:2558  newOwner */\n      dup2\n        /* \"@openzeppelin/contracts/access/Ownable.sol\":2541:2547  _owner */\n      0x00\n      dup1\n        /* \"@openzeppelin/contracts/access/Ownable.sol\":2541:2558  _owner = newOwner */\n      0x0100\n      exp\n      dup2\n      sload\n      dup2\n      0xffffffffffffffffffffffffffffffffffffffff\n      mul\n      not\n      and\n      swap1\n      dup4\n      0xffffffffffffffffffffffffffffffffffffffff\n      and\n      mul\n      or\n      swap1\n      sstore\n      pop\n        /* \"@openzeppelin/contracts/access/Ownable.sol\":2604:2612  newOwner */\n      dup2\n        /* \"@openzeppelin/contracts/access/Ownable.sol\":2573:2613  OwnershipTransferred(oldOwner, newOwner) */\n      0xffffffffffffffffffffffffffffffffffffffff\n      and\n        /* \"@openzeppelin/contracts/access/Ownable.sol\":2594:2602  oldOwner */\n      dup2\n        /* \"@openzeppelin/contracts/access/Ownable.sol\":2573:2613  OwnershipTransferred(oldOwner, newOwner) */\n      0xffffffffffffffffffffffffffffffffffffffff\n      and\n      0x8be0079c531659141344cd1fd0a4f28419497f9722a3daafe3b4186f6b6457e0\n      mload(0x40)\n      mload(0x40)\n      dup1\n      swap2\n      sub\n      swap1\n      log3\n        /* \"@openzeppelin/contracts/access/Ownable.sol\":2496:2620  {... */\n      pop\n        /* \"@openzeppelin/contracts/access/Ownable.sol\":2433:2620  function _transferOwnership(address newOwner) internal virtual {... */\n      pop\n      jump\t// out\n        /* \"@openzeppelin/contracts/utils/structs/EnumerableSet.sol\":8297:8447  function add(AddressSet storage set, address value) internal returns (bool) {... */\n    tag_95:\n        /* \"@openzeppelin/contracts/utils/structs/EnumerableSet.sol\":8367:8371  bool */\n      0x00\n        /* \"@openzeppelin/contracts/utils/structs/EnumerableSet.sol\":8390:8440  _add(set._inner, bytes32(uint256(uint160(value)))) */\n      tag_126\n        /* \"@openzeppelin/contracts/utils/structs/EnumerableSet.sol\":8395:8398  set */\n      dup4\n        /* \"@openzeppelin/contracts/utils/structs/EnumerableSet.sol\":8395:8405  set._inner */\n      0x00\n      add\n        /* \"@openzeppelin/contracts/utils/structs/EnumerableSet.sol\":8431:8436  value */\n      dup4\n        /* \"@openzeppelin/contracts/utils/structs/EnumerableSet.sol\":8415:8438  uint256(uint160(value)) */\n      0xffffffffffffffffffffffffffffffffffffffff\n      and\n        /* \"@openzeppelin/contracts/utils/structs/EnumerableSet.sol\":8407:8439  bytes32(uint256(uint160(value))) */\n      0x00\n      shl\n        /* \"@openzeppelin/contracts/utils/structs/EnumerableSet.sol\":8390:8394  _add */\n      tag_127\n        /* \"@openzeppelin/contracts/utils/structs/EnumerableSet.sol\":8390:8440  _add(set._inner, bytes32(uint256(uint160(value)))) */\n      jump\t// in\n    tag_126:\n        /* \"@openzeppelin/contracts/utils/structs/EnumerableSet.sol\":8383:8440  return _add(set._inner, bytes32(uint256(uint160(value)))) */\n      swap1\n      pop\n        /* \"@openzeppelin/contracts/utils/structs/EnumerableSet.sol\":8297:8447  function add(AddressSet storage set, address value) internal returns (bool) {... */\n      swap3\n      swap2\n      pop\n      pop\n      jump\t// out\n        /* \"@openzeppelin/contracts/utils/structs/EnumerableSet.sol\":4455:4562  function _length(Set storage set) private view returns (uint256) {... */\n    tag_107:\n        /* \"@openzeppelin/contracts/utils/structs/EnumerableSet.sol\":4511:4518  uint256 */\n      0x00\n        /* \"@openzeppelin/contracts/utils/structs/EnumerableSet.sol\":4537:4540  set */\n      dup2\n        /* \"@openzeppelin/contracts/utils/structs/EnumerableSet.sol\":4537:4548  set._values */\n      0x00\n      add\n        /* \"@openzeppelin/contracts/utils/structs/EnumerableSet.sol\":4537:4555  set._values.length */\n      dup1\n      sload\n      swap1\n      pop\n        /* \"@openzeppelin/contracts/utils/structs/EnumerableSet.sol\":4530:4555  return set._values.length */\n      swap1\n      pop\n        /* \"@openzeppelin/contracts/utils/structs/EnumerableSet.sol\":4455:4562  function _length(Set storage set) private view returns (uint256) {... */\n      swap2\n      swap1\n      pop\n      jump\t// out\n        /* \"@openzeppelin/contracts/utils/structs/EnumerableSet.sol\":4904:5022  function _at(Set storage set, uint256 index) private view returns (bytes32) {... */\n    tag_110:\n        /* \"@openzeppelin/contracts/utils/structs/EnumerableSet.sol\":4971:4978  bytes32 */\n      0x00\n        /* \"@openzeppelin/contracts/utils/structs/EnumerableSet.sol\":4997:5000  set */\n      dup3\n        /* \"@openzeppelin/contracts/utils/structs/EnumerableSet.sol\":4997:5008  set._values */\n      0x00\n      add\n        /* \"@openzeppelin/contracts/utils/structs/EnumerableSet.sol\":5009:5014  index */\n      dup3\n        /* \"@openzeppelin/contracts/utils/structs/EnumerableSet.sol\":4997:5015  set._values[index] */\n      dup2\n      sload\n      dup2\n      lt\n      tag_130\n      jumpi\n      tag_131\n      tag_64\n      jump\t// in\n    tag_131:\n    tag_130:\n      swap1\n      0x00\n      mstore\n      keccak256(0x00, 0x20)\n      add\n      sload\n        /* \"@openzeppelin/contracts/utils/structs/EnumerableSet.sol\":4990:5015  return set._values[index] */\n      swap1\n      pop\n        /* \"@openzeppelin/contracts/utils/structs/EnumerableSet.sol\":4904:5022  function _at(Set storage set, uint256 index) private view returns (bytes32) {... */\n      swap3\n      swap2\n      pop\n      pop\n      jump\t// out\n        /* \"@openzeppelin/contracts/utils/Context.sol\":640:736  function _msgSender() internal view virtual returns (address) {... */\n    tag_113:\n        /* \"@openzeppelin/contracts/utils/Context.sol\":693:700  address */\n      0x00\n        /* \"@openzeppelin/contracts/utils/Context.sol\":719:729  msg.sender */\n      caller\n        /* \"@openzeppelin/contracts/utils/Context.sol\":712:729  return msg.sender */\n      swap1\n      pop\n        /* \"@openzeppelin/contracts/utils/Context.sol\":640:736  function _msgSender() internal view virtual returns (address) {... */\n      swap1\n      jump\t// out\n        /* \"@openzeppelin/contracts/utils/structs/EnumerableSet.sol\":4247:4374  function _contains(Set storage set, bytes32 value) private view returns (bool) {... */\n    tag_120:\n        /* \"@openzeppelin/contracts/utils/structs/EnumerableSet.sol\":4320:4324  bool */\n      0x00\n        /* \"@openzeppelin/contracts/utils/structs/EnumerableSet.sol\":4366:4367  0 */\n      dup1\n        /* \"@openzeppelin/contracts/utils/structs/EnumerableSet.sol\":4343:4346  set */\n      dup4\n        /* \"@openzeppelin/contracts/utils/structs/EnumerableSet.sol\":4343:4355  set._indexes */\n      0x01\n      add\n        /* \"@openzeppelin/contracts/utils/structs/EnumerableSet.sol\":4343:4362  set._indexes[value] */\n      0x00\n        /* \"@openzeppelin/contracts/utils/structs/EnumerableSet.sol\":4356:4361  value */\n      dup5\n        /* \"@openzeppelin/contracts/utils/structs/EnumerableSet.sol\":4343:4362  set._indexes[value] */\n      dup2\n      mstore\n      0x20\n      add\n      swap1\n      dup2\n      mstore\n      0x20\n      add\n      0x00\n      keccak256\n      sload\n        /* \"@openzeppelin/contracts/utils/structs/EnumerableSet.sol\":4343:4367  set._indexes[value] != 0 */\n      eq\n      iszero\n        /* \"@openzeppelin/contracts/utils/structs/EnumerableSet.sol\":4336:4367  return set._indexes[value] != 0 */\n      swap1\n      pop\n        /* \"@openzeppelin/contracts/utils/structs/EnumerableSet.sol\":4247:4374  function _contains(Set storage set, bytes32 value) private view returns (bool) {... */\n      swap3\n      swap2\n      pop\n      pop\n      jump\t// out\n        /* \"@openzeppelin/contracts/utils/structs/EnumerableSet.sol\":2778:4166  function _remove(Set storage set, bytes32 value) private returns (bool) {... */\n    tag_123:\n        /* \"@openzeppelin/contracts/utils/structs/EnumerableSet.sol\":2844:2848  bool */\n      0x00\n        /* \"@openzeppelin/contracts/utils/structs/EnumerableSet.sol\":2960:2978  uint256 valueIndex */\n      dup1\n        /* \"@openzeppelin/contracts/utils/structs/EnumerableSet.sol\":2981:2984  set */\n      dup4\n        /* \"@openzeppelin/contracts/utils/structs/EnumerableSet.sol\":2981:2993  set._indexes */\n      0x01\n      add\n        /* \"@openzeppelin/contracts/utils/structs/EnumerableSet.sol\":2981:3000  set._indexes[value] */\n      0x00\n        /* \"@openzeppelin/contracts/utils/structs/EnumerableSet.sol\":2994:2999  value */\n      dup5\n        /* \"@openzeppelin/contracts/utils/structs/EnumerableSet.sol\":2981:3000  set._indexes[value] */\n      dup2\n      mstore\n      0x20\n      add\n      swap1\n      dup2\n      mstore\n      0x20\n      add\n      0x00\n      keccak256\n      sload\n        /* \"@openzeppelin/contracts/utils/structs/EnumerableSet.sol\":2960:3000  uint256 valueIndex = set._indexes[value] */\n      swap1\n      pop\n        /* \"@openzeppelin/contracts/utils/structs/EnumerableSet.sol\":3029:3030  0 */\n      0x00\n        /* \"@openzeppelin/contracts/utils/structs/EnumerableSet.sol\":3015:3025  valueIndex */\n      dup2\n        /* \"@openzeppelin/contracts/utils/structs/EnumerableSet.sol\":3015:3030  valueIndex != 0 */\n      eq\n        /* \"@openzeppelin/contracts/utils/structs/EnumerableSet.sol\":3011:4160  if (valueIndex != 0) {... */\n      tag_136\n      jumpi\n        /* \"@openzeppelin/contracts/utils/structs/EnumerableSet.sol\":3384:3405  uint256 toDeleteIndex */\n      0x00\n        /* \"@openzeppelin/contracts/utils/structs/EnumerableSet.sol\":3421:3422  1 */\n      0x01\n        /* \"@openzeppelin/contracts/utils/structs/EnumerableSet.sol\":3408:3418  valueIndex */\n      dup3\n        /* \"@openzeppelin/contracts/utils/structs/EnumerableSet.sol\":3408:3422  valueIndex - 1 */\n      tag_137\n      swap2\n      swap1\n      tag_47\n      jump\t// in\n    tag_137:\n        /* \"@openzeppelin/contracts/utils/structs/EnumerableSet.sol\":3384:3422  uint256 toDeleteIndex = valueIndex - 1 */\n      swap1\n      pop\n        /* \"@openzeppelin/contracts/utils/structs/EnumerableSet.sol\":3436:3453  uint256 lastIndex */\n      0x00\n        /* \"@openzeppelin/contracts/utils/structs/EnumerableSet.sol\":3477:3478  1 */\n      0x01\n        /* \"@openzeppelin/contracts/utils/structs/EnumerableSet.sol\":3456:3459  set */\n      dup7\n        /* \"@openzeppelin/contracts/utils/structs/EnumerableSet.sol\":3456:3467  set._values */\n      0x00\n      add\n        /* \"@openzeppelin/contracts/utils/structs/EnumerableSet.sol\":3456:3474  set._values.length */\n      dup1\n      sload\n      swap1\n      pop\n        /* \"@openzeppelin/contracts/utils/structs/EnumerableSet.sol\":3456:3478  set._values.length - 1 */\n      tag_138\n      swap2\n      swap1\n      tag_47\n      jump\t// in\n    tag_138:\n        /* \"@openzeppelin/contracts/utils/structs/EnumerableSet.sol\":3436:3478  uint256 lastIndex = set._values.length - 1 */\n      swap1\n      pop\n        /* \"@openzeppelin/contracts/utils/structs/EnumerableSet.sol\":3510:3523  toDeleteIndex */\n      dup2\n        /* \"@openzeppelin/contracts/utils/structs/EnumerableSet.sol\":3497:3506  lastIndex */\n      dup2\n        /* \"@openzeppelin/contracts/utils/structs/EnumerableSet.sol\":3497:3523  lastIndex != toDeleteIndex */\n      eq\n        /* \"@openzeppelin/contracts/utils/structs/EnumerableSet.sol\":3493:3891  if (lastIndex != toDeleteIndex) {... */\n      tag_139\n      jumpi\n        /* \"@openzeppelin/contracts/utils/structs/EnumerableSet.sol\":3543:3560  bytes32 lastValue */\n      0x00\n        /* \"@openzeppelin/contracts/utils/structs/EnumerableSet.sol\":3563:3566  set */\n      dup7\n        /* \"@openzeppelin/contracts/utils/structs/EnumerableSet.sol\":3563:3574  set._values */\n      0x00\n      add\n        /* \"@openzeppelin/contracts/utils/structs/EnumerableSet.sol\":3575:3584  lastIndex */\n      dup3\n        /* \"@openzeppelin/contracts/utils/structs/EnumerableSet.sol\":3563:3585  set._values[lastIndex] */\n      dup2\n      sload\n      dup2\n      lt\n      tag_140\n      jumpi\n      tag_141\n      tag_64\n      jump\t// in\n    tag_141:\n    tag_140:\n      swap1\n      0x00\n      mstore\n      keccak256(0x00, 0x20)\n      add\n      sload\n        /* \"@openzeppelin/contracts/utils/structs/EnumerableSet.sol\":3543:3585  bytes32 lastValue = set._values[lastIndex] */\n      swap1\n      pop\n        /* \"@openzeppelin/contracts/utils/structs/EnumerableSet.sol\":3714:3723  lastValue */\n      dup1\n        /* \"@openzeppelin/contracts/utils/structs/EnumerableSet.sol\":3685:3688  set */\n      dup8\n        /* \"@openzeppelin/contracts/utils/structs/EnumerableSet.sol\":3685:3696  set._values */\n      0x00\n      add\n        /* \"@openzeppelin/contracts/utils/structs/EnumerableSet.sol\":3697:3710  toDeleteIndex */\n      dup5\n        /* \"@openzeppelin/contracts/utils/structs/EnumerableSet.sol\":3685:3711  set._values[toDeleteIndex] */\n      dup2\n      sload\n      dup2\n      lt\n      tag_143\n      jumpi\n      tag_144\n      tag_64\n      jump\t// in\n    tag_144:\n    tag_143:\n      swap1\n      0x00\n      mstore\n      keccak256(0x00, 0x20)\n      add\n        /* \"@openzeppelin/contracts/utils/structs/EnumerableSet.sol\":3685:3723  set._values[toDeleteIndex] = lastValue */\n      dup2\n      swap1\n      sstore\n      pop\n        /* \"@openzeppelin/contracts/utils/structs/EnumerableSet.sol\":3823:3833  valueIndex */\n      dup4\n        /* \"@openzeppelin/contracts/utils/structs/EnumerableSet.sol\":3797:3800  set */\n      dup8\n        /* \"@openzeppelin/contracts/utils/structs/EnumerableSet.sol\":3797:3809  set._indexes */\n      0x01\n      add\n        /* \"@openzeppelin/contracts/utils/structs/EnumerableSet.sol\":3797:3820  set._indexes[lastValue] */\n      0x00\n        /* \"@openzeppelin/contracts/utils/structs/EnumerableSet.sol\":3810:3819  lastValue */\n      dup4\n        /* \"@openzeppelin/contracts/utils/structs/EnumerableSet.sol\":3797:3820  set._indexes[lastValue] */\n      dup2\n      mstore\n      0x20\n      add\n      swap1\n      dup2\n      mstore\n      0x20\n      add\n      0x00\n      keccak256\n        /* \"@openzeppelin/contracts/utils/structs/EnumerableSet.sol\":3797:3833  set._indexes[lastValue] = valueIndex */\n      dup2\n      swap1\n      sstore\n      pop\n        /* \"@openzeppelin/contracts/utils/structs/EnumerableSet.sol\":3525:3891  {... */\n      pop\n        /* \"@openzeppelin/contracts/utils/structs/EnumerableSet.sol\":3493:3891  if (lastIndex != toDeleteIndex) {... */\n    tag_139:\n        /* \"@openzeppelin/contracts/utils/structs/EnumerableSet.sol\":3969:3972  set */\n      dup6\n        /* \"@openzeppelin/contracts/utils/structs/EnumerableSet.sol\":3969:3980  set._values */\n      0x00\n      add\n        /* \"@openzeppelin/contracts/utils/structs/EnumerableSet.sol\":3969:3986  set._values.pop() */\n      dup1\n      sload\n      dup1\n      tag_146\n      jumpi\n      tag_147\n      tag_148\n      jump\t// in\n    tag_147:\n    tag_146:\n      0x01\n      swap1\n      sub\n      dup2\n      dup2\n      swap1\n      0x00\n      mstore\n      keccak256(0x00, 0x20)\n      add\n      0x00\n      swap1\n      sstore\n      swap1\n      sstore\n        /* \"@openzeppelin/contracts/utils/structs/EnumerableSet.sol\":4061:4064  set */\n      dup6\n        /* \"@openzeppelin/contracts/utils/structs/EnumerableSet.sol\":4061:4073  set._indexes */\n      0x01\n      add\n        /* \"@openzeppelin/contracts/utils/structs/EnumerableSet.sol\":4061:4080  set._indexes[value] */\n      0x00\n        /* \"@openzeppelin/contracts/utils/structs/EnumerableSet.sol\":4074:4079  value */\n      dup7\n        /* \"@openzeppelin/contracts/utils/structs/EnumerableSet.sol\":4061:4080  set._indexes[value] */\n      dup2\n      mstore\n      0x20\n      add\n      swap1\n      dup2\n      mstore\n      0x20\n      add\n      0x00\n      keccak256\n        /* \"@openzeppelin/contracts/utils/structs/EnumerableSet.sol\":4054:4080  delete set._indexes[value] */\n      0x00\n      swap1\n      sstore\n        /* \"@openzeppelin/contracts/utils/structs/EnumerableSet.sol\":4102:4106  true */\n      0x01\n        /* \"@openzeppelin/contracts/utils/structs/EnumerableSet.sol\":4095:4106  return true */\n      swap4\n      pop\n      pop\n      pop\n      pop\n      jump(tag_135)\n        /* \"@openzeppelin/contracts/utils/structs/EnumerableSet.sol\":3011:4160  if (valueIndex != 0) {... */\n    tag_136:\n        /* \"@openzeppelin/contracts/utils/structs/EnumerableSet.sol\":4144:4149  false */\n      0x00\n        /* \"@openzeppelin/contracts/utils/structs/EnumerableSet.sol\":4137:4149  return false */\n      swap2\n      pop\n      pop\n        /* \"@openzeppelin/contracts/utils/structs/EnumerableSet.sol\":2778:4166  function _remove(Set storage set, bytes32 value) private returns (bool) {... */\n    tag_135:\n      swap3\n      swap2\n      pop\n      pop\n      jump\t// out\n        /* \"@openzeppelin/contracts/utils/structs/EnumerableSet.sol\":2206:2610  function _add(Set storage set, bytes32 value) private returns (bool) {... */\n    tag_127:\n        /* \"@openzeppelin/contracts/utils/structs/EnumerableSet.sol\":2269:2273  bool */\n      0x00\n        /* \"@openzeppelin/contracts/utils/structs/EnumerableSet.sol\":2290:2311  _contains(set, value) */\n      tag_152\n        /* \"@openzeppelin/contracts/utils/structs/EnumerableSet.sol\":2300:2303  set */\n      dup4\n        /* \"@openzeppelin/contracts/utils/structs/EnumerableSet.sol\":2305:2310  value */\n      dup4\n        /* \"@openzeppelin/contracts/utils/structs/EnumerableSet.sol\":2290:2299  _contains */\n      tag_120\n        /* \"@openzeppelin/contracts/utils/structs/EnumerableSet.sol\":2290:2311  _contains(set, value) */\n      jump\t// in\n    tag_152:\n        /* \"@openzeppelin/contracts/utils/structs/EnumerableSet.sol\":2285:2604  if (!_contains(set, value)) {... */\n      tag_153\n      jumpi\n        /* \"@openzeppelin/contracts/utils/structs/EnumerableSet.sol\":2327:2330  set */\n      dup3\n        /* \"@openzeppelin/contracts/utils/structs/EnumerableSet.sol\":2327:2338  set._values */\n      0x00\n      add\n        /* \"@openzeppelin/contracts/utils/structs/EnumerableSet.sol\":2344:2349  value */\n      dup3\n        /* \"@openzeppelin/contracts/utils/structs/EnumerableSet.sol\":2327:2350  set._values.push(value) */\n      swap1\n      dup1\n      0x01\n      dup2\n      sload\n      add\n      dup1\n      dup3\n      sstore\n      dup1\n      swap2\n      pop\n      pop\n      0x01\n      swap1\n      sub\n      swap1\n      0x00\n      mstore\n      keccak256(0x00, 0x20)\n      add\n      0x00\n      swap1\n      swap2\n      swap1\n      swap2\n      swap1\n      swap2\n      pop\n      sstore\n        /* \"@openzeppelin/contracts/utils/structs/EnumerableSet.sol\":2507:2510  set */\n      dup3\n        /* \"@openzeppelin/contracts/utils/structs/EnumerableSet.sol\":2507:2518  set._values */\n      0x00\n      add\n        /* \"@openzeppelin/contracts/utils/structs/EnumerableSet.sol\":2507:2525  set._values.length */\n      dup1\n      sload\n      swap1\n      pop\n        /* \"@openzeppelin/contracts/utils/structs/EnumerableSet.sol\":2485:2488  set */\n      dup4\n        /* \"@openzeppelin/contracts/utils/structs/EnumerableSet.sol\":2485:2497  set._indexes */\n      0x01\n      add\n        /* \"@openzeppelin/contracts/utils/structs/EnumerableSet.sol\":2485:2504  set._indexes[value] */\n      0x00\n        /* \"@openzeppelin/contracts/utils/structs/EnumerableSet.sol\":2498:2503  value */\n      dup5\n        /* \"@openzeppelin/contracts/utils/structs/EnumerableSet.sol\":2485:2504  set._indexes[value] */\n      dup2\n      mstore\n      0x20\n      add\n      swap1\n      dup2\n      mstore\n      0x20\n      add\n      0x00\n      keccak256\n        /* \"@openzeppelin/contracts/utils/structs/EnumerableSet.sol\":2485:2525  set._indexes[value] = set._values.length */\n      dup2\n      swap1\n      sstore\n      pop\n        /* \"@openzeppelin/contracts/utils/structs/EnumerableSet.sol\":2546:2550  true */\n      0x01\n        /* \"@openzeppelin/contracts/utils/structs/EnumerableSet.sol\":2539:2550  return true */\n      swap1\n      pop\n      jump(tag_151)\n        /* \"@openzeppelin/contracts/utils/structs/EnumerableSet.sol\":2285:2604  if (!_contains(set, value)) {... */\n    tag_153:\n        /* \"@openzeppelin/contracts/utils/structs/EnumerableSet.sol\":2588:2593  false */\n      0x00\n        /* \"@openzeppelin/contracts/utils/structs/EnumerableSet.sol\":2581:2593  return false */\n      swap1\n      pop\n        /* \"@openzeppelin/contracts/utils/structs/EnumerableSet.sol\":2206:2610  function _add(Set storage set, bytes32 value) private returns (bool) {... */\n    tag_151:\n      swap3\n      swap2\n      pop\n      pop\n      jump\t// out\n        /* \"#utility.yul\":88:205   */\n    tag_157:\n        /* \"#utility.yul\":197:198   */\n      0x00\n        /* \"#utility.yul\":194:195   */\n      dup1\n        /* \"#utility.yul\":187:199   */\n      revert\n        /* \"#utility.yul\":334:411   */\n    tag_159:\n        /* \"#utility.yul\":371:378   */\n      0x00\n        /* \"#utility.yul\":400:405   */\n      dup2\n        /* \"#utility.yul\":389:405   */\n      swap1\n      pop\n        /* \"#utility.yul\":334:411   */\n      swap2\n      swap1\n      pop\n      jump\t// out\n        /* \"#utility.yul\":417:539   */\n    tag_160:\n        /* \"#utility.yul\":490:514   */\n      tag_193\n        /* \"#utility.yul\":508:513   */\n      dup2\n        /* \"#utility.yul\":490:514   */\n      tag_159\n      jump\t// in\n    tag_193:\n        /* \"#utility.yul\":483:488   */\n      dup2\n        /* \"#utility.yul\":480:515   */\n      eq\n        /* \"#utility.yul\":470:533   */\n      tag_194\n      jumpi\n        /* \"#utility.yul\":529:530   */\n      0x00\n        /* \"#utility.yul\":526:527   */\n      dup1\n        /* \"#utility.yul\":519:531   */\n      revert\n        /* \"#utility.yul\":470:533   */\n    tag_194:\n        /* \"#utility.yul\":417:539   */\n      pop\n      jump\t// out\n        /* \"#utility.yul\":545:684   */\n    tag_161:\n        /* \"#utility.yul\":591:596   */\n      0x00\n        /* \"#utility.yul\":629:635   */\n      dup2\n        /* \"#utility.yul\":616:636   */\n      calldataload\n        /* \"#utility.yul\":607:636   */\n      swap1\n      pop\n        /* \"#utility.yul\":645:678   */\n      tag_196\n        /* \"#utility.yul\":672:677   */\n      dup2\n        /* \"#utility.yul\":645:678   */\n      tag_160\n      jump\t// in\n    tag_196:\n        /* \"#utility.yul\":545:684   */\n      swap3\n      swap2\n      pop\n      pop\n      jump\t// out\n        /* \"#utility.yul\":690:1164   */\n    tag_14:\n        /* \"#utility.yul\":758:764   */\n      0x00\n        /* \"#utility.yul\":766:772   */\n      dup1\n        /* \"#utility.yul\":815:817   */\n      0x40\n        /* \"#utility.yul\":803:812   */\n      dup4\n        /* \"#utility.yul\":794:801   */\n      dup6\n        /* \"#utility.yul\":790:813   */\n      sub\n        /* \"#utility.yul\":786:818   */\n      slt\n        /* \"#utility.yul\":783:902   */\n      iszero\n      tag_198\n      jumpi\n        /* \"#utility.yul\":821:900   */\n      tag_199\n      tag_157\n      jump\t// in\n    tag_199:\n        /* \"#utility.yul\":783:902   */\n    tag_198:\n        /* \"#utility.yul\":941:942   */\n      0x00\n        /* \"#utility.yul\":966:1019   */\n      tag_200\n        /* \"#utility.yul\":1011:1018   */\n      dup6\n        /* \"#utility.yul\":1002:1008   */\n      dup3\n        /* \"#utility.yul\":991:1000   */\n      dup7\n        /* \"#utility.yul\":987:1009   */\n      add\n        /* \"#utility.yul\":966:1019   */\n      tag_161\n      jump\t// in\n    tag_200:\n        /* \"#utility.yul\":956:1019   */\n      swap3\n      pop\n        /* \"#utility.yul\":912:1029   */\n      pop\n        /* \"#utility.yul\":1068:1070   */\n      0x20\n        /* \"#utility.yul\":1094:1147   */\n      tag_201\n        /* \"#utility.yul\":1139:1146   */\n      dup6\n        /* \"#utility.yul\":1130:1136   */\n      dup3\n        /* \"#utility.yul\":1119:1128   */\n      dup7\n        /* \"#utility.yul\":1115:1137   */\n      add\n        /* \"#utility.yul\":1094:1147   */\n      tag_161\n      jump\t// in\n    tag_201:\n        /* \"#utility.yul\":1084:1147   */\n      swap2\n      pop\n        /* \"#utility.yul\":1039:1157   */\n      pop\n        /* \"#utility.yul\":690:1164   */\n      swap3\n      pop\n      swap3\n      swap1\n      pop\n      jump\t// out\n        /* \"#utility.yul\":1170:1284   */\n    tag_162:\n        /* \"#utility.yul\":1237:1243   */\n      0x00\n        /* \"#utility.yul\":1271:1276   */\n      dup2\n        /* \"#utility.yul\":1265:1277   */\n      mload\n        /* \"#utility.yul\":1255:1277   */\n      swap1\n      pop\n        /* \"#utility.yul\":1170:1284   */\n      swap2\n      swap1\n      pop\n      jump\t// out\n        /* \"#utility.yul\":1290:1474   */\n    tag_163:\n        /* \"#utility.yul\":1389:1400   */\n      0x00\n        /* \"#utility.yul\":1423:1429   */\n      dup3\n        /* \"#utility.yul\":1418:1421   */\n      dup3\n        /* \"#utility.yul\":1411:1430   */\n      mstore\n        /* \"#utility.yul\":1463:1467   */\n      0x20\n        /* \"#utility.yul\":1458:1461   */\n      dup3\n        /* \"#utility.yul\":1454:1468   */\n      add\n        /* \"#utility.yul\":1439:1468   */\n      swap1\n      pop\n        /* \"#utility.yul\":1290:1474   */\n      swap3\n      swap2\n      pop\n      pop\n      jump\t// out\n        /* \"#utility.yul\":1480:1612   */\n    tag_164:\n        /* \"#utility.yul\":1547:1551   */\n      0x00\n        /* \"#utility.yul\":1570:1573   */\n      dup2\n        /* \"#utility.yul\":1562:1573   */\n      swap1\n      pop\n        /* \"#utility.yul\":1600:1604   */\n      0x20\n        /* \"#utility.yul\":1595:1598   */\n      dup3\n        /* \"#utility.yul\":1591:1605   */\n      add\n        /* \"#utility.yul\":1583:1605   */\n      swap1\n      pop\n        /* \"#utility.yul\":1480:1612   */\n      swap2\n      swap1\n      pop\n      jump\t// out\n        /* \"#utility.yul\":1618:1744   */\n    tag_165:\n        /* \"#utility.yul\":1655:1662   */\n      0x00\n        /* \"#utility.yul\":1695:1737   */\n      0xffffffffffffffffffffffffffffffffffffffff\n        /* \"#utility.yul\":1688:1693   */\n      dup3\n        /* \"#utility.yul\":1684:1738   */\n      and\n        /* \"#utility.yul\":1673:1738   */\n      swap1\n      pop\n        /* \"#utility.yul\":1618:1744   */\n      swap2\n      swap1\n      pop\n      jump\t// out\n        /* \"#utility.yul\":1750:1846   */\n    tag_166:\n        /* \"#utility.yul\":1787:1794   */\n      0x00\n        /* \"#utility.yul\":1816:1840   */\n      tag_207\n        /* \"#utility.yul\":1834:1839   */\n      dup3\n        /* \"#utility.yul\":1816:1840   */\n      tag_165\n      jump\t// in\n    tag_207:\n        /* \"#utility.yul\":1805:1840   */\n      swap1\n      pop\n        /* \"#utility.yul\":1750:1846   */\n      swap2\n      swap1\n      pop\n      jump\t// out\n        /* \"#utility.yul\":1852:1960   */\n    tag_167:\n        /* \"#utility.yul\":1929:1953   */\n      tag_209\n        /* \"#utility.yul\":1947:1952   */\n      dup2\n        /* \"#utility.yul\":1929:1953   */\n      tag_166\n      jump\t// in\n    tag_209:\n        /* \"#utility.yul\":1924:1927   */\n      dup3\n        /* \"#utility.yul\":1917:1954   */\n      mstore\n        /* \"#utility.yul\":1852:1960   */\n      pop\n      pop\n      jump\t// out\n        /* \"#utility.yul\":1966:2145   */\n    tag_168:\n        /* \"#utility.yul\":2035:2045   */\n      0x00\n        /* \"#utility.yul\":2056:2102   */\n      tag_211\n        /* \"#utility.yul\":2098:2101   */\n      dup4\n        /* \"#utility.yul\":2090:2096   */\n      dup4\n        /* \"#utility.yul\":2056:2102   */\n      tag_167\n      jump\t// in\n    tag_211:\n        /* \"#utility.yul\":2134:2138   */\n      0x20\n        /* \"#utility.yul\":2129:2132   */\n      dup4\n        /* \"#utility.yul\":2125:2139   */\n      add\n        /* \"#utility.yul\":2111:2139   */\n      swap1\n      pop\n        /* \"#utility.yul\":1966:2145   */\n      swap3\n      swap2\n      pop\n      pop\n      jump\t// out\n        /* \"#utility.yul\":2151:2264   */\n    tag_169:\n        /* \"#utility.yul\":2221:2225   */\n      0x00\n        /* \"#utility.yul\":2253:2257   */\n      0x20\n        /* \"#utility.yul\":2248:2251   */\n      dup3\n        /* \"#utility.yul\":2244:2258   */\n      add\n        /* \"#utility.yul\":2236:2258   */\n      swap1\n      pop\n        /* \"#utility.yul\":2151:2264   */\n      swap2\n      swap1\n      pop\n      jump\t// out\n        /* \"#utility.yul\":2300:3032   */\n    tag_170:\n        /* \"#utility.yul\":2419:2422   */\n      0x00\n        /* \"#utility.yul\":2448:2502   */\n      tag_214\n        /* \"#utility.yul\":2496:2501   */\n      dup3\n        /* \"#utility.yul\":2448:2502   */\n      tag_162\n      jump\t// in\n    tag_214:\n        /* \"#utility.yul\":2518:2604   */\n      tag_215\n        /* \"#utility.yul\":2597:2603   */\n      dup2\n        /* \"#utility.yul\":2592:2595   */\n      dup6\n        /* \"#utility.yul\":2518:2604   */\n      tag_163\n      jump\t// in\n    tag_215:\n        /* \"#utility.yul\":2511:2604   */\n      swap4\n      pop\n        /* \"#utility.yul\":2628:2684   */\n      tag_216\n        /* \"#utility.yul\":2678:2683   */\n      dup4\n        /* \"#utility.yul\":2628:2684   */\n      tag_164\n      jump\t// in\n    tag_216:\n        /* \"#utility.yul\":2707:2714   */\n      dup1\n        /* \"#utility.yul\":2738:2739   */\n      0x00\n        /* \"#utility.yul\":2723:3007   */\n    tag_217:\n        /* \"#utility.yul\":2748:2754   */\n      dup4\n        /* \"#utility.yul\":2745:2746   */\n      dup2\n        /* \"#utility.yul\":2742:2755   */\n      lt\n        /* \"#utility.yul\":2723:3007   */\n      iszero\n      tag_219\n      jumpi\n        /* \"#utility.yul\":2824:2830   */\n      dup2\n        /* \"#utility.yul\":2818:2831   */\n      mload\n        /* \"#utility.yul\":2851:2914   */\n      tag_220\n        /* \"#utility.yul\":2910:2913   */\n      dup9\n        /* \"#utility.yul\":2895:2908   */\n      dup3\n        /* \"#utility.yul\":2851:2914   */\n      tag_168\n      jump\t// in\n    tag_220:\n        /* \"#utility.yul\":2844:2914   */\n      swap8\n      pop\n        /* \"#utility.yul\":2937:2997   */\n      tag_221\n        /* \"#utility.yul\":2990:2996   */\n      dup4\n        /* \"#utility.yul\":2937:2997   */\n      tag_169\n      jump\t// in\n    tag_221:\n        /* \"#utility.yul\":2927:2997   */\n      swap3\n      pop\n        /* \"#utility.yul\":2783:3007   */\n      pop\n        /* \"#utility.yul\":2770:2771   */\n      0x01\n        /* \"#utility.yul\":2767:2768   */\n      dup2\n        /* \"#utility.yul\":2763:2772   */\n      add\n        /* \"#utility.yul\":2758:2772   */\n      swap1\n      pop\n        /* \"#utility.yul\":2723:3007   */\n      jump(tag_217)\n    tag_219:\n        /* \"#utility.yul\":2727:2741   */\n      pop\n        /* \"#utility.yul\":3023:3026   */\n      dup6\n        /* \"#utility.yul\":3016:3026   */\n      swap4\n      pop\n        /* \"#utility.yul\":2424:3032   */\n      pop\n      pop\n      pop\n        /* \"#utility.yul\":2300:3032   */\n      swap3\n      swap2\n      pop\n      pop\n      jump\t// out\n        /* \"#utility.yul\":3038:3156   */\n    tag_171:\n        /* \"#utility.yul\":3125:3149   */\n      tag_223\n        /* \"#utility.yul\":3143:3148   */\n      dup2\n        /* \"#utility.yul\":3125:3149   */\n      tag_159\n      jump\t// in\n    tag_223:\n        /* \"#utility.yul\":3120:3123   */\n      dup3\n        /* \"#utility.yul\":3113:3150   */\n      mstore\n        /* \"#utility.yul\":3038:3156   */\n      pop\n      pop\n      jump\t// out\n        /* \"#utility.yul\":3162:3645   */\n    tag_17:\n        /* \"#utility.yul\":3333:3337   */\n      0x00\n        /* \"#utility.yul\":3371:3373   */\n      0x40\n        /* \"#utility.yul\":3360:3369   */\n      dup3\n        /* \"#utility.yul\":3356:3374   */\n      add\n        /* \"#utility.yul\":3348:3374   */\n      swap1\n      pop\n        /* \"#utility.yul\":3420:3429   */\n      dup2\n        /* \"#utility.yul\":3414:3418   */\n      dup2\n        /* \"#utility.yul\":3410:3430   */\n      sub\n        /* \"#utility.yul\":3406:3407   */\n      0x00\n        /* \"#utility.yul\":3395:3404   */\n      dup4\n        /* \"#utility.yul\":3391:3408   */\n      add\n        /* \"#utility.yul\":3384:3431   */\n      mstore\n        /* \"#utility.yul\":3448:3556   */\n      tag_225\n        /* \"#utility.yul\":3551:3555   */\n      dup2\n        /* \"#utility.yul\":3542:3548   */\n      dup6\n        /* \"#utility.yul\":3448:3556   */\n      tag_170\n      jump\t// in\n    tag_225:\n        /* \"#utility.yul\":3440:3556   */\n      swap1\n      pop\n        /* \"#utility.yul\":3566:3638   */\n      tag_226\n        /* \"#utility.yul\":3634:3636   */\n      0x20\n        /* \"#utility.yul\":3623:3632   */\n      dup4\n        /* \"#utility.yul\":3619:3637   */\n      add\n        /* \"#utility.yul\":3610:3616   */\n      dup5\n        /* \"#utility.yul\":3566:3638   */\n      tag_171\n      jump\t// in\n    tag_226:\n        /* \"#utility.yul\":3162:3645   */\n      swap4\n      swap3\n      pop\n      pop\n      pop\n      jump\t// out\n        /* \"#utility.yul\":3651:3773   */\n    tag_172:\n        /* \"#utility.yul\":3724:3748   */\n      tag_228\n        /* \"#utility.yul\":3742:3747   */\n      dup2\n        /* \"#utility.yul\":3724:3748   */\n      tag_166\n      jump\t// in\n    tag_228:\n        /* \"#utility.yul\":3717:3722   */\n      dup2\n        /* \"#utility.yul\":3714:3749   */\n      eq\n        /* \"#utility.yul\":3704:3767   */\n      tag_229\n      jumpi\n        /* \"#utility.yul\":3763:3764   */\n      0x00\n        /* \"#utility.yul\":3760:3761   */\n      dup1\n        /* \"#utility.yul\":3753:3765   */\n      revert\n        /* \"#utility.yul\":3704:3767   */\n    tag_229:\n        /* \"#utility.yul\":3651:3773   */\n      pop\n      jump\t// out\n        /* \"#utility.yul\":3779:3918   */\n    tag_173:\n        /* \"#utility.yul\":3825:3830   */\n      0x00\n        /* \"#utility.yul\":3863:3869   */\n      dup2\n        /* \"#utility.yul\":3850:3870   */\n      calldataload\n        /* \"#utility.yul\":3841:3870   */\n      swap1\n      pop\n        /* \"#utility.yul\":3879:3912   */\n      tag_231\n        /* \"#utility.yul\":3906:3911   */\n      dup2\n        /* \"#utility.yul\":3879:3912   */\n      tag_172\n      jump\t// in\n    tag_231:\n        /* \"#utility.yul\":3779:3918   */\n      swap3\n      swap2\n      pop\n      pop\n      jump\t// out\n        /* \"#utility.yul\":3924:4253   */\n    tag_20:\n        /* \"#utility.yul\":3983:3989   */\n      0x00\n        /* \"#utility.yul\":4032:4034   */\n      0x20\n        /* \"#utility.yul\":4020:4029   */\n      dup3\n        /* \"#utility.yul\":4011:4018   */\n      dup5\n        /* \"#utility.yul\":4007:4030   */\n      sub\n        /* \"#utility.yul\":4003:4035   */\n      slt\n        /* \"#utility.yul\":4000:4119   */\n      iszero\n      tag_233\n      jumpi\n        /* \"#utility.yul\":4038:4117   */\n      tag_234\n      tag_157\n      jump\t// in\n    tag_234:\n        /* \"#utility.yul\":4000:4119   */\n    tag_233:\n        /* \"#utility.yul\":4158:4159   */\n      0x00\n        /* \"#utility.yul\":4183:4236   */\n      tag_235\n        /* \"#utility.yul\":4228:4235   */\n      dup5\n        /* \"#utility.yul\":4219:4225   */\n      dup3\n        /* \"#utility.yul\":4208:4217   */\n      dup6\n        /* \"#utility.yul\":4204:4226   */\n      add\n        /* \"#utility.yul\":4183:4236   */\n      tag_173\n      jump\t// in\n    tag_235:\n        /* \"#utility.yul\":4173:4236   */\n      swap2\n      pop\n        /* \"#utility.yul\":4129:4246   */\n      pop\n        /* \"#utility.yul\":3924:4253   */\n      swap3\n      swap2\n      pop\n      pop\n      jump\t// out\n        /* \"#utility.yul\":4259:4377   */\n    tag_174:\n        /* \"#utility.yul\":4346:4370   */\n      tag_237\n        /* \"#utility.yul\":4364:4369   */\n      dup2\n        /* \"#utility.yul\":4346:4370   */\n      tag_166\n      jump\t// in\n    tag_237:\n        /* \"#utility.yul\":4341:4344   */\n      dup3\n        /* \"#utility.yul\":4334:4371   */\n      mstore\n        /* \"#utility.yul\":4259:4377   */\n      pop\n      pop\n      jump\t// out\n        /* \"#utility.yul\":4383:4605   */\n    tag_27:\n        /* \"#utility.yul\":4476:4480   */\n      0x00\n        /* \"#utility.yul\":4514:4516   */\n      0x20\n        /* \"#utility.yul\":4503:4512   */\n      dup3\n        /* \"#utility.yul\":4499:4517   */\n      add\n        /* \"#utility.yul\":4491:4517   */\n      swap1\n      pop\n        /* \"#utility.yul\":4527:4598   */\n      tag_239\n        /* \"#utility.yul\":4595:4596   */\n      0x00\n        /* \"#utility.yul\":4584:4593   */\n      dup4\n        /* \"#utility.yul\":4580:4597   */\n      add\n        /* \"#utility.yul\":4571:4577   */\n      dup5\n        /* \"#utility.yul\":4527:4598   */\n      tag_174\n      jump\t// in\n    tag_239:\n        /* \"#utility.yul\":4383:4605   */\n      swap3\n      swap2\n      pop\n      pop\n      jump\t// out\n        /* \"#utility.yul\":4611:4701   */\n    tag_175:\n        /* \"#utility.yul\":4645:4652   */\n      0x00\n        /* \"#utility.yul\":4688:4693   */\n      dup2\n        /* \"#utility.yul\":4681:4694   */\n      iszero\n        /* \"#utility.yul\":4674:4695   */\n      iszero\n        /* \"#utility.yul\":4663:4695   */\n      swap1\n      pop\n        /* \"#utility.yul\":4611:4701   */\n      swap2\n      swap1\n      pop\n      jump\t// out\n        /* \"#utility.yul\":4707:4816   */\n    tag_176:\n        /* \"#utility.yul\":4788:4809   */\n      tag_242\n        /* \"#utility.yul\":4803:4808   */\n      dup2\n        /* \"#utility.yul\":4788:4809   */\n      tag_175\n      jump\t// in\n    tag_242:\n        /* \"#utility.yul\":4783:4786   */\n      dup3\n        /* \"#utility.yul\":4776:4810   */\n      mstore\n        /* \"#utility.yul\":4707:4816   */\n      pop\n      pop\n      jump\t// out\n        /* \"#utility.yul\":4822:5032   */\n    tag_32:\n        /* \"#utility.yul\":4909:4913   */\n      0x00\n        /* \"#utility.yul\":4947:4949   */\n      0x20\n        /* \"#utility.yul\":4936:4945   */\n      dup3\n        /* \"#utility.yul\":4932:4950   */\n      add\n        /* \"#utility.yul\":4924:4950   */\n      swap1\n      pop\n        /* \"#utility.yul\":4960:5025   */\n      tag_244\n        /* \"#utility.yul\":5022:5023   */\n      0x00\n        /* \"#utility.yul\":5011:5020   */\n      dup4\n        /* \"#utility.yul\":5007:5024   */\n      add\n        /* \"#utility.yul\":4998:5004   */\n      dup5\n        /* \"#utility.yul\":4960:5025   */\n      tag_176\n      jump\t// in\n    tag_244:\n        /* \"#utility.yul\":4822:5032   */\n      swap3\n      swap2\n      pop\n      pop\n      jump\t// out\n        /* \"#utility.yul\":5038:5260   */\n    tag_39:\n        /* \"#utility.yul\":5131:5135   */\n      0x00\n        /* \"#utility.yul\":5169:5171   */\n      0x20\n        /* \"#utility.yul\":5158:5167   */\n      dup3\n        /* \"#utility.yul\":5154:5172   */\n      add\n        /* \"#utility.yul\":5146:5172   */\n      swap1\n      pop\n        /* \"#utility.yul\":5182:5253   */\n      tag_246\n        /* \"#utility.yul\":5250:5251   */\n      0x00\n        /* \"#utility.yul\":5239:5248   */\n      dup4\n        /* \"#utility.yul\":5235:5252   */\n      add\n        /* \"#utility.yul\":5226:5232   */\n      dup5\n        /* \"#utility.yul\":5182:5253   */\n      tag_171\n      jump\t// in\n    tag_246:\n        /* \"#utility.yul\":5038:5260   */\n      swap3\n      swap2\n      pop\n      pop\n      jump\t// out\n        /* \"#utility.yul\":5266:5446   */\n    tag_177:\n        /* \"#utility.yul\":5314:5391   */\n      0x4e487b7100000000000000000000000000000000000000000000000000000000\n        /* \"#utility.yul\":5311:5312   */\n      0x00\n        /* \"#utility.yul\":5304:5392   */\n      mstore\n        /* \"#utility.yul\":5411:5415   */\n      0x11\n        /* \"#utility.yul\":5408:5409   */\n      0x04\n        /* \"#utility.yul\":5401:5416   */\n      mstore\n        /* \"#utility.yul\":5435:5439   */\n      0x24\n        /* \"#utility.yul\":5432:5433   */\n      0x00\n        /* \"#utility.yul\":5425:5440   */\n      revert\n        /* \"#utility.yul\":5452:5646   */\n    tag_47:\n        /* \"#utility.yul\":5492:5496   */\n      0x00\n        /* \"#utility.yul\":5512:5532   */\n      tag_249\n        /* \"#utility.yul\":5530:5531   */\n      dup3\n        /* \"#utility.yul\":5512:5532   */\n      tag_159\n      jump\t// in\n    tag_249:\n        /* \"#utility.yul\":5507:5532   */\n      swap2\n      pop\n        /* \"#utility.yul\":5546:5566   */\n      tag_250\n        /* \"#utility.yul\":5564:5565   */\n      dup4\n        /* \"#utility.yul\":5546:5566   */\n      tag_159\n      jump\t// in\n    tag_250:\n        /* \"#utility.yul\":5541:5566   */\n      swap3\n      pop\n        /* \"#utility.yul\":5590:5591   */\n      dup3\n        /* \"#utility.yul\":5587:5588   */\n      dup3\n        /* \"#utility.yul\":5583:5592   */\n      sub\n        /* \"#utility.yul\":5575:5592   */\n      swap1\n      pop\n        /* \"#utility.yul\":5614:5615   */\n      dup2\n        /* \"#utility.yul\":5608:5612   */\n      dup2\n        /* \"#utility.yul\":5605:5616   */\n      gt\n        /* \"#utility.yul\":5602:5639   */\n      iszero\n      tag_251\n      jumpi\n        /* \"#utility.yul\":5619:5637   */\n      tag_252\n      tag_177\n      jump\t// in\n    tag_252:\n        /* \"#utility.yul\":5602:5639   */\n    tag_251:\n        /* \"#utility.yul\":5452:5646   */\n      swap3\n      swap2\n      pop\n      pop\n      jump\t// out\n        /* \"#utility.yul\":5652:5832   */\n    tag_53:\n        /* \"#utility.yul\":5700:5777   */\n      0x4e487b7100000000000000000000000000000000000000000000000000000000\n        /* \"#utility.yul\":5697:5698   */\n      0x00\n        /* \"#utility.yul\":5690:5778   */\n      mstore\n        /* \"#utility.yul\":5797:5801   */\n      0x41\n        /* \"#utility.yul\":5794:5795   */\n      0x04\n        /* \"#utility.yul\":5787:5802   */\n      mstore\n        /* \"#utility.yul\":5821:5825   */\n      0x24\n        /* \"#utility.yul\":5818:5819   */\n      0x00\n        /* \"#utility.yul\":5811:5826   */\n      revert\n        /* \"#utility.yul\":5838:6029   */\n    tag_60:\n        /* \"#utility.yul\":5878:5881   */\n      0x00\n        /* \"#utility.yul\":5897:5917   */\n      tag_255\n        /* \"#utility.yul\":5915:5916   */\n      dup3\n        /* \"#utility.yul\":5897:5917   */\n      tag_159\n      jump\t// in\n    tag_255:\n        /* \"#utility.yul\":5892:5917   */\n      swap2\n      pop\n        /* \"#utility.yul\":5931:5951   */\n      tag_256\n        /* \"#utility.yul\":5949:5950   */\n      dup4\n        /* \"#utility.yul\":5931:5951   */\n      tag_159\n      jump\t// in\n    tag_256:\n        /* \"#utility.yul\":5926:5951   */\n      swap3\n      pop\n        /* \"#utility.yul\":5974:5975   */\n      dup3\n        /* \"#utility.yul\":5971:5972   */\n      dup3\n        /* \"#utility.yul\":5967:5976   */\n      add\n        /* \"#utility.yul\":5960:5976   */\n      swap1\n      pop\n        /* \"#utility.yul\":5995:5998   */\n      dup1\n        /* \"#utility.yul\":5992:5993   */\n      dup3\n        /* \"#utility.yul\":5989:5999   */\n      gt\n        /* \"#utility.yul\":5986:6022   */\n      iszero\n      tag_257\n      jumpi\n        /* \"#utility.yul\":6002:6020   */\n      tag_258\n      tag_177\n      jump\t// in\n    tag_258:\n        /* \"#utility.yul\":5986:6022   */\n    tag_257:\n        /* \"#utility.yul\":5838:6029   */\n      swap3\n      swap2\n      pop\n      pop\n      jump\t// out\n        /* \"#utility.yul\":6035:6215   */\n    tag_64:\n        /* \"#utility.yul\":6083:6160   */\n      0x4e487b7100000000000000000000000000000000000000000000000000000000\n        /* \"#utility.yul\":6080:6081   */\n      0x00\n        /* \"#utility.yul\":6073:6161   */\n      mstore\n        /* \"#utility.yul\":6180:6184   */\n      0x32\n        /* \"#utility.yul\":6177:6178   */\n      0x04\n        /* \"#utility.yul\":6170:6185   */\n      mstore\n        /* \"#utility.yul\":6204:6208   */\n      0x24\n        /* \"#utility.yul\":6201:6202   */\n      0x00\n        /* \"#utility.yul\":6194:6209   */\n      revert\n        /* \"#utility.yul\":6221:6454   */\n    tag_66:\n        /* \"#utility.yul\":6260:6263   */\n      0x00\n        /* \"#utility.yul\":6283:6307   */\n      tag_261\n        /* \"#utility.yul\":6301:6306   */\n      dup3\n        /* \"#utility.yul\":6283:6307   */\n      tag_159\n      jump\t// in\n    tag_261:\n        /* \"#utility.yul\":6274:6307   */\n      swap2\n      pop\n        /* \"#utility.yul\":6329:6395   */\n      0xffffffffffffffffffffffffffffffffffffffffffffffffffffffffffffffff\n        /* \"#utility.yul\":6322:6327   */\n      dup3\n        /* \"#utility.yul\":6319:6396   */\n      sub\n        /* \"#utility.yul\":6316:6419   */\n      tag_262\n      jumpi\n        /* \"#utility.yul\":6399:6417   */\n      tag_263\n      tag_177\n      jump\t// in\n    tag_263:\n        /* \"#utility.yul\":6316:6419   */\n    tag_262:\n        /* \"#utility.yul\":6446:6447   */\n      0x01\n        /* \"#utility.yul\":6439:6444   */\n      dup3\n        /* \"#utility.yul\":6435:6448   */\n      add\n        /* \"#utility.yul\":6428:6448   */\n      swap1\n      pop\n        /* \"#utility.yul\":6221:6454   */\n      swap2\n      swap1\n      pop\n      jump\t// out\n        /* \"#utility.yul\":6460:6629   */\n    tag_178:\n        /* \"#utility.yul\":6544:6555   */\n      0x00\n        /* \"#utility.yul\":6578:6584   */\n      dup3\n        /* \"#utility.yul\":6573:6576   */\n      dup3\n        /* \"#utility.yul\":6566:6585   */\n      mstore\n        /* \"#utility.yul\":6618:6622   */\n      0x20\n        /* \"#utility.yul\":6613:6616   */\n      dup3\n        /* \"#utility.yul\":6609:6623   */\n      add\n        /* \"#utility.yul\":6594:6623   */\n      swap1\n      pop\n        /* \"#utility.yul\":6460:6629   */\n      swap3\n      swap2\n      pop\n      pop\n      jump\t// out\n        /* \"#utility.yul\":6635:6803   */\n    tag_179:\n        /* \"#utility.yul\":6775:6795   */\n      0x546f6b656e3a204e6f7420457869737465640000000000000000000000000000\n        /* \"#utility.yul\":6771:6772   */\n      0x00\n        /* \"#utility.yul\":6763:6769   */\n      dup3\n        /* \"#utility.yul\":6759:6773   */\n      add\n        /* \"#utility.yul\":6752:6796   */\n      mstore\n        /* \"#utility.yul\":6635:6803   */\n      pop\n      jump\t// out\n        /* \"#utility.yul\":6809:7175   */\n    tag_180:\n        /* \"#utility.yul\":6951:6954   */\n      0x00\n        /* \"#utility.yul\":6972:7039   */\n      tag_267\n        /* \"#utility.yul\":7036:7038   */\n      0x12\n        /* \"#utility.yul\":7031:7034   */\n      dup4\n        /* \"#utility.yul\":6972:7039   */\n      tag_178\n      jump\t// in\n    tag_267:\n        /* \"#utility.yul\":6965:7039   */\n      swap2\n      pop\n        /* \"#utility.yul\":7048:7141   */\n      tag_268\n        /* \"#utility.yul\":7137:7140   */\n      dup3\n        /* \"#utility.yul\":7048:7141   */\n      tag_179\n      jump\t// in\n    tag_268:\n        /* \"#utility.yul\":7166:7168   */\n      0x20\n        /* \"#utility.yul\":7161:7164   */\n      dup3\n        /* \"#utility.yul\":7157:7169   */\n      add\n        /* \"#utility.yul\":7150:7169   */\n      swap1\n      pop\n        /* \"#utility.yul\":6809:7175   */\n      swap2\n      swap1\n      pop\n      jump\t// out\n        /* \"#utility.yul\":7181:7600   */\n    tag_76:\n        /* \"#utility.yul\":7347:7351   */\n      0x00\n        /* \"#utility.yul\":7385:7387   */\n      0x20\n        /* \"#utility.yul\":7374:7383   */\n      dup3\n        /* \"#utility.yul\":7370:7388   */\n      add\n        /* \"#utility.yul\":7362:7388   */\n      swap1\n      pop\n        /* \"#utility.yul\":7434:7443   */\n      dup2\n        /* \"#utility.yul\":7428:7432   */\n      dup2\n        /* \"#utility.yul\":7424:7444   */\n      sub\n        /* \"#utility.yul\":7420:7421   */\n      0x00\n        /* \"#utility.yul\":7409:7418   */\n      dup4\n        /* \"#utility.yul\":7405:7422   */\n      add\n        /* \"#utility.yul\":7398:7445   */\n      mstore\n        /* \"#utility.yul\":7462:7593   */\n      tag_270\n        /* \"#utility.yul\":7588:7592   */\n      dup2\n        /* \"#utility.yul\":7462:7593   */\n      tag_180\n      jump\t// in\n    tag_270:\n        /* \"#utility.yul\":7454:7593   */\n      swap1\n      pop\n        /* \"#utility.yul\":7181:7600   */\n      swap2\n      swap1\n      pop\n      jump\t// out\n        /* \"#utility.yul\":7606:7784   */\n    tag_181:\n        /* \"#utility.yul\":7746:7776   */\n      0x546f6b656e3a20416c726561647920546f6b656e204164647265737300000000\n        /* \"#utility.yul\":7742:7743   */\n      0x00\n        /* \"#utility.yul\":7734:7740   */\n      dup3\n        /* \"#utility.yul\":7730:7744   */\n      add\n        /* \"#utility.yul\":7723:7777   */\n      mstore\n        /* \"#utility.yul\":7606:7784   */\n      pop\n      jump\t// out\n        /* \"#utility.yul\":7790:8156   */\n    tag_182:\n        /* \"#utility.yul\":7932:7935   */\n      0x00\n        /* \"#utility.yul\":7953:8020   */\n      tag_273\n        /* \"#utility.yul\":8017:8019   */\n      0x1c\n        /* \"#utility.yul\":8012:8015   */\n      dup4\n        /* \"#utility.yul\":7953:8020   */\n      tag_178\n      jump\t// in\n    tag_273:\n        /* \"#utility.yul\":7946:8020   */\n      swap2\n      pop\n        /* \"#utility.yul\":8029:8122   */\n      tag_274\n        /* \"#utility.yul\":8118:8121   */\n      dup3\n        /* \"#utility.yul\":8029:8122   */\n      tag_181\n      jump\t// in\n    tag_274:\n        /* \"#utility.yul\":8147:8149   */\n      0x20\n        /* \"#utility.yul\":8142:8145   */\n      dup3\n        /* \"#utility.yul\":8138:8150   */\n      add\n        /* \"#utility.yul\":8131:8150   */\n      swap1\n      pop\n        /* \"#utility.yul\":7790:8156   */\n      swap2\n      swap1\n      pop\n      jump\t// out\n        /* \"#utility.yul\":8162:8581   */\n    tag_93:\n        /* \"#utility.yul\":8328:8332   */\n      0x00\n        /* \"#utility.yul\":8366:8368   */\n      0x20\n        /* \"#utility.yul\":8355:8364   */\n      dup3\n        /* \"#utility.yul\":8351:8369   */\n      add\n        /* \"#utility.yul\":8343:8369   */\n      swap1\n      pop\n        /* \"#utility.yul\":8415:8424   */\n      dup2\n        /* \"#utility.yul\":8409:8413   */\n      dup2\n        /* \"#utility.yul\":8405:8425   */\n      sub\n        /* \"#utility.yul\":8401:8402   */\n      0x00\n        /* \"#utility.yul\":8390:8399   */\n      dup4\n        /* \"#utility.yul\":8386:8403   */\n      add\n        /* \"#utility.yul\":8379:8426   */\n      mstore\n        /* \"#utility.yul\":8443:8574   */\n      tag_276\n        /* \"#utility.yul\":8569:8573   */\n      dup2\n        /* \"#utility.yul\":8443:8574   */\n      tag_182\n      jump\t// in\n    tag_276:\n        /* \"#utility.yul\":8435:8574   */\n      swap1\n      pop\n        /* \"#utility.yul\":8162:8581   */\n      swap2\n      swap1\n      pop\n      jump\t// out\n        /* \"#utility.yul\":8587:8812   */\n    tag_183:\n        /* \"#utility.yul\":8727:8761   */\n      0x4f776e61626c653a206e6577206f776e657220697320746865207a65726f2061\n        /* \"#utility.yul\":8723:8724   */\n      0x00\n        /* \"#utility.yul\":8715:8721   */\n      dup3\n        /* \"#utility.yul\":8711:8725   */\n      add\n        /* \"#utility.yul\":8704:8762   */\n      mstore\n        /* \"#utility.yul\":8796:8804   */\n      0x6464726573730000000000000000000000000000000000000000000000000000\n        /* \"#utility.yul\":8791:8793   */\n      0x20\n        /* \"#utility.yul\":8783:8789   */\n      dup3\n        /* \"#utility.yul\":8779:8794   */\n      add\n        /* \"#utility.yul\":8772:8805   */\n      mstore\n        /* \"#utility.yul\":8587:8812   */\n      pop\n      jump\t// out\n        /* \"#utility.yul\":8818:9184   */\n    tag_184:\n        /* \"#utility.yul\":8960:8963   */\n      0x00\n        /* \"#utility.yul\":8981:9048   */\n      tag_279\n        /* \"#utility.yul\":9045:9047   */\n      0x26\n        /* \"#utility.yul\":9040:9043   */\n      dup4\n        /* \"#utility.yul\":8981:9048   */\n      tag_178\n      jump\t// in\n    tag_279:\n        /* \"#utility.yul\":8974:9048   */\n      swap2\n      pop\n        /* \"#utility.yul\":9057:9150   */\n      tag_280\n        /* \"#utility.yul\":9146:9149   */\n      dup3\n        /* \"#utility.yul\":9057:9150   */\n      tag_183\n      jump\t// in\n    tag_280:\n        /* \"#utility.yul\":9175:9177   */\n      0x40\n        /* \"#utility.yul\":9170:9173   */\n      dup3\n        /* \"#utility.yul\":9166:9178   */\n      add\n        /* \"#utility.yul\":9159:9178   */\n      swap1\n      pop\n        /* \"#utility.yul\":8818:9184   */\n      swap2\n      swap1\n      pop\n      jump\t// out\n        /* \"#utility.yul\":9190:9609   */\n    tag_103:\n        /* \"#utility.yul\":9356:9360   */\n      0x00\n        /* \"#utility.yul\":9394:9396   */\n      0x20\n        /* \"#utility.yul\":9383:9392   */\n      dup3\n        /* \"#utility.yul\":9379:9397   */\n      add\n        /* \"#utility.yul\":9371:9397   */\n      swap1\n      pop\n        /* \"#utility.yul\":9443:9452   */\n      dup2\n        /* \"#utility.yul\":9437:9441   */\n      dup2\n        /* \"#utility.yul\":9433:9453   */\n      sub\n        /* \"#utility.yul\":9429:9430   */\n      0x00\n        /* \"#utility.yul\":9418:9427   */\n      dup4\n        /* \"#utility.yul\":9414:9431   */\n      add\n        /* \"#utility.yul\":9407:9454   */\n      mstore\n        /* \"#utility.yul\":9471:9602   */\n      tag_282\n        /* \"#utility.yul\":9597:9601   */\n      dup2\n        /* \"#utility.yul\":9471:9602   */\n      tag_184\n      jump\t// in\n    tag_282:\n        /* \"#utility.yul\":9463:9602   */\n      swap1\n      pop\n        /* \"#utility.yul\":9190:9609   */\n      swap2\n      swap1\n      pop\n      jump\t// out\n        /* \"#utility.yul\":9615:9797   */\n    tag_185:\n        /* \"#utility.yul\":9755:9789   */\n      0x4f776e61626c653a2063616c6c6572206973206e6f7420746865206f776e6572\n        /* \"#utility.yul\":9751:9752   */\n      0x00\n        /* \"#utility.yul\":9743:9749   */\n      dup3\n        /* \"#utility.yul\":9739:9753   */\n      add\n        /* \"#utility.yul\":9732:9790   */\n      mstore\n        /* \"#utility.yul\":9615:9797   */\n      pop\n      jump\t// out\n        /* \"#utility.yul\":9803:10169   */\n    tag_186:\n        /* \"#utility.yul\":9945:9948   */\n      0x00\n        /* \"#utility.yul\":9966:10033   */\n      tag_285\n        /* \"#utility.yul\":10030:10032   */\n      0x20\n        /* \"#utility.yul\":10025:10028   */\n      dup4\n        /* \"#utility.yul\":9966:10033   */\n      tag_178\n      jump\t// in\n    tag_285:\n        /* \"#utility.yul\":9959:10033   */\n      swap2\n      pop\n        /* \"#utility.yul\":10042:10135   */\n      tag_286\n        /* \"#utility.yul\":10131:10134   */\n      dup3\n        /* \"#utility.yul\":10042:10135   */\n      tag_185\n      jump\t// in\n    tag_286:\n        /* \"#utility.yul\":10160:10162   */\n      0x20\n        /* \"#utility.yul\":10155:10158   */\n      dup3\n        /* \"#utility.yul\":10151:10163   */\n      add\n        /* \"#utility.yul\":10144:10163   */\n      swap1\n      pop\n        /* \"#utility.yul\":9803:10169   */\n      swap2\n      swap1\n      pop\n      jump\t// out\n        /* \"#utility.yul\":10175:10594   */\n    tag_117:\n        /* \"#utility.yul\":10341:10345   */\n      0x00\n        /* \"#utility.yul\":10379:10381   */\n      0x20\n        /* \"#utility.yul\":10368:10377   */\n      dup3\n        /* \"#utility.yul\":10364:10382   */\n      add\n        /* \"#utility.yul\":10356:10382   */\n      swap1\n      pop\n        /* \"#utility.yul\":10428:10437   */\n      dup2\n        /* \"#utility.yul\":10422:10426   */\n      dup2\n        /* \"#utility.yul\":10418:10438   */\n      sub\n        /* \"#utility.yul\":10414:10415   */\n      0x00\n        /* \"#utility.yul\":10403:10412   */\n      dup4\n        /* \"#utility.yul\":10399:10416   */\n      add\n        /* \"#utility.yul\":10392:10439   */\n      mstore\n        /* \"#utility.yul\":10456:10587   */\n      tag_288\n        /* \"#utility.yul\":10582:10586   */\n      dup2\n        /* \"#utility.yul\":10456:10587   */\n      tag_186\n      jump\t// in\n    tag_288:\n        /* \"#utility.yul\":10448:10587   */\n      swap1\n      pop\n        /* \"#utility.yul\":10175:10594   */\n      swap2\n      swap1\n      pop\n      jump\t// out\n        /* \"#utility.yul\":10600:10780   */\n    tag_148:\n        /* \"#utility.yul\":10648:10725   */\n      0x4e487b7100000000000000000000000000000000000000000000000000000000\n        /* \"#utility.yul\":10645:10646   */\n      0x00\n        /* \"#utility.yul\":10638:10726   */\n      mstore\n        /* \"#utility.yul\":10745:10749   */\n      0x31\n        /* \"#utility.yul\":10742:10743   */\n      0x04\n        /* \"#utility.yul\":10735:10750   */\n      mstore\n        /* \"#utility.yul\":10769:10773   */\n      0x24\n        /* \"#utility.yul\":10766:10767   */\n      0x00\n        /* \"#utility.yul\":10759:10774   */\n      revert\n\n    auxdata: 0xa2646970667358221220b785d9283e5c16407b1528a1d3ba3b8ac6c8df8562de4d60d291929ec430d5a664736f6c63430008130033\n}\n",
				"bytecode": {
					"linkReferences": {},
					"object": "608060405234801561001057600080fd5b5061002d61002261003260201b60201c565b61003a60201b60201c565b6100fe565b600033905090565b60008060009054906101000a900473ffffffffffffffffffffffffffffffffffffffff169050816000806101000a81548173ffffffffffffffffffffffffffffffffffffffff021916908373ffffffffffffffffffffffffffffffffffffffff1602179055508173ffffffffffffffffffffffffffffffffffffffff168173ffffffffffffffffffffffffffffffffffffffff167f8be0079c531659141344cd1fd0a4f28419497f9722a3daafe3b4186f6b6457e060405160405180910390a35050565b610f048061010d6000396000f3fe608060405234801561001057600080fd5b50600436106100885760003560e01c8063b5af090f1161005b578063b5af090f14610102578063d48bfca714610132578063db4f69af1461014e578063f2fde38b1461016c57610088565b8063018162f21461008d5780635fa7b584146100be578063715018a6146100da5780638da5cb5b146100e4575b600080fd5b6100a760048036038101906100a29190610938565b610188565b6040516100b5929190610a77565b60405180910390f35b6100d860048036038101906100d39190610ad3565b6102b6565b005b6100e261036c565b005b6100ec610380565b6040516100f99190610b0f565b60405180910390f35b61011c60048036038101906101179190610ad3565b6103a9565b6040516101299190610b45565b60405180910390f35b61014c60048036038101906101479190610ad3565b6103c6565b005b61015661047d565b6040516101639190610b60565b60405180910390f35b61018660048036038101906101819190610ad3565b61048e565b005b60606000808390508461019b6001610511565b6101a59190610baa565b8111156101c457846101b76001610511565b6101c19190610baa565b90505b60008167ffffffffffffffff8111156101e0576101df610bde565b5b60405190808252806020026020018201604052801561020e5781602001602082028036833780820191505090505b50905060005b8281101561029b5761023b818861022b9190610c0d565b600161052690919063ffffffff16565b82828151811061024e5761024d610c41565b5b602002602001019073ffffffffffffffffffffffffffffffffffffffff16908173ffffffffffffffffffffffffffffffffffffffff1681525050808061029390610c70565b915050610214565b508082876102a99190610c0d565b9350935050509250929050565b6102be610540565b6102d28160016105be90919063ffffffff16565b610311576040517f08c379a000000000000000000000000000000000000000000000000000000000815260040161030890610d15565b60405180910390fd5b6103258160016105ee90919063ffffffff16565b508073ffffffffffffffffffffffffffffffffffffffff167f505eec0b2cb995482dc58407253d70f68a3cb27c89ec211ba13c7240557b935360405160405180910390a250565b610374610540565b61037e600061061e565b565b60008060009054906101000a900473ffffffffffffffffffffffffffffffffffffffff16905090565b60006103bf8260016105be90919063ffffffff16565b9050919050565b6103ce610540565b6103e28160016105be90919063ffffffff16565b15610422576040517f08c379a000000000000000000000000000000000000000000000000000000000815260040161041990610d81565b60405180910390fd5b6104368160016106e290919063ffffffff16565b508073ffffffffffffffffffffffffffffffffffffffff167f6a65f90b1a644d2faac467a21e07e50e3f8fa5846e26231d30ae79a417d3d26260405160405180910390a250565b60006104896001610511565b905090565b610496610540565b600073ffffffffffffffffffffffffffffffffffffffff168173ffffffffffffffffffffffffffffffffffffffff1603610505576040517f08c379a00000000000000000000000000000000000000000000000000000000081526004016104fc90610e13565b60405180910390fd5b61050e8161061e565b50565b600061051f82600001610712565b9050919050565b60006105358360000183610723565b60001c905092915050565b61054861074e565b73ffffffffffffffffffffffffffffffffffffffff16610566610380565b73ffffffffffffffffffffffffffffffffffffffff16146105bc576040517f08c379a00000000000000000000000000000000000000000000000000000000081526004016105b390610e7f565b60405180910390fd5b565b60006105e6836000018373ffffffffffffffffffffffffffffffffffffffff1660001b610756565b905092915050565b6000610616836000018373ffffffffffffffffffffffffffffffffffffffff1660001b610779565b905092915050565b60008060009054906101000a900473ffffffffffffffffffffffffffffffffffffffff169050816000806101000a81548173ffffffffffffffffffffffffffffffffffffffff021916908373ffffffffffffffffffffffffffffffffffffffff1602179055508173ffffffffffffffffffffffffffffffffffffffff168173ffffffffffffffffffffffffffffffffffffffff167f8be0079c531659141344cd1fd0a4f28419497f9722a3daafe3b4186f6b6457e060405160405180910390a35050565b600061070a836000018373ffffffffffffffffffffffffffffffffffffffff1660001b61088d565b905092915050565b600081600001805490509050919050565b600082600001828154811061073b5761073a610c41565b5b9060005260206000200154905092915050565b600033905090565b600080836001016000848152602001908152602001600020541415905092915050565b600080836001016000848152602001908152602001600020549050600081146108815760006001826107ab9190610baa565b90506000600186600001805490506107c39190610baa565b90508181146108325760008660000182815481106107e4576107e3610c41565b5b906000526020600020015490508087600001848154811061080857610807610c41565b5b90600052602060002001819055508387600101600083815260200190815260200160002081905550505b8560000180548061084657610845610e9f565b5b600190038181906000526020600020016000905590558560010160008681526020019081526020016000206000905560019350505050610887565b60009150505b92915050565b60006108998383610756565b6108f25782600001829080600181540180825580915050600190039060005260206000200160009091909190915055826000018054905083600101600084815260200190815260200160002081905550600190506108f7565b600090505b92915050565b600080fd5b6000819050919050565b61091581610902565b811461092057600080fd5b50565b6000813590506109328161090c565b92915050565b6000806040838503121561094f5761094e6108fd565b5b600061095d85828601610923565b925050602061096e85828601610923565b9150509250929050565b600081519050919050565b600082825260208201905092915050565b6000819050602082019050919050565b600073ffffffffffffffffffffffffffffffffffffffff82169050919050565b60006109cf826109a4565b9050919050565b6109df816109c4565b82525050565b60006109f183836109d6565b60208301905092915050565b6000602082019050919050565b6000610a1582610978565b610a1f8185610983565b9350610a2a83610994565b8060005b83811015610a5b578151610a4288826109e5565b9750610a4d836109fd565b925050600181019050610a2e565b5085935050505092915050565b610a7181610902565b82525050565b60006040820190508181036000830152610a918185610a0a565b9050610aa06020830184610a68565b9392505050565b610ab0816109c4565b8114610abb57600080fd5b50565b600081359050610acd81610aa7565b92915050565b600060208284031215610ae957610ae86108fd565b5b6000610af784828501610abe565b91505092915050565b610b09816109c4565b82525050565b6000602082019050610b246000830184610b00565b92915050565b60008115159050919050565b610b3f81610b2a565b82525050565b6000602082019050610b5a6000830184610b36565b92915050565b6000602082019050610b756000830184610a68565b92915050565b7f4e487b7100000000000000000000000000000000000000000000000000000000600052601160045260246000fd5b6000610bb582610902565b9150610bc083610902565b9250828203905081811115610bd857610bd7610b7b565b5b92915050565b7f4e487b7100000000000000000000000000000000000000000000000000000000600052604160045260246000fd5b6000610c1882610902565b9150610c2383610902565b9250828201905080821115610c3b57610c3a610b7b565b5b92915050565b7f4e487b7100000000000000000000000000000000000000000000000000000000600052603260045260246000fd5b6000610c7b82610902565b91507fffffffffffffffffffffffffffffffffffffffffffffffffffffffffffffffff8203610cad57610cac610b7b565b5b600182019050919050565b600082825260208201905092915050565b7f546f6b656e3a204e6f7420457869737465640000000000000000000000000000600082015250565b6000610cff601283610cb8565b9150610d0a82610cc9565b602082019050919050565b60006020820190508181036000830152610d2e81610cf2565b9050919050565b7f546f6b656e3a20416c726561647920546f6b656e204164647265737300000000600082015250565b6000610d6b601c83610cb8565b9150610d7682610d35565b602082019050919050565b60006020820190508181036000830152610d9a81610d5e565b9050919050565b7f4f776e61626c653a206e6577206f776e657220697320746865207a65726f206160008201527f6464726573730000000000000000000000000000000000000000000000000000602082015250565b6000610dfd602683610cb8565b9150610e0882610da1565b604082019050919050565b60006020820190508181036000830152610e2c81610df0565b9050919050565b7f4f776e61626c653a2063616c6c6572206973206e6f7420746865206f776e6572600082015250565b6000610e69602083610cb8565b9150610e7482610e33565b602082019050919050565b60006020820190508181036000830152610e9881610e5c565b9050919050565b7f4e487b7100000000000000000000000000000000000000000000000000000000600052603160045260246000fdfea2646970667358221220b785d9283e5c16407b1528a1d3ba3b8ac6c8df8562de4d60d291929ec430d5a664736f6c63430008130033",
					"opcodes": "PUSH1 0x80 PUSH1 0x40 MSTORE CALLVALUE DUP1 ISZERO PUSH2 0x10 JUMPI PUSH1 0x0 DUP1 REVERT JUMPDEST POP PUSH2 0x2D PUSH2 0x22 PUSH2 0x32 PUSH1 0x20 SHL PUSH1 0x20 SHR JUMP JUMPDEST PUSH2 0x3A PUSH1 0x20 SHL PUSH1 0x20 SHR JUMP JUMPDEST PUSH2 0xFE JUMP JUMPDEST PUSH1 0x0 CALLER SWAP1 POP SWAP1 JUMP JUMPDEST PUSH1 0x0 DUP1 PUSH1 0x0 SWAP1 SLOAD SWAP1 PUSH2 0x100 EXP SWAP1 DIV PUSH20 0xFFFFFFFFFFFFFFFFFFFFFFFFFFFFFFFFFFFFFFFF AND SWAP1 POP DUP2 PUSH1 0x0 DUP1 PUSH2 0x100 EXP DUP2 SLOAD DUP2 PUSH20 0xFFFFFFFFFFFFFFFFFFFFFFFFFFFFFFFFFFFFFFFF MUL NOT AND SWAP1 DUP4 PUSH20 0xFFFFFFFFFFFFFFFFFFFFFFFFFFFFFFFFFFFFFFFF AND MUL OR SWAP1 SSTORE POP DUP2 PUSH20 0xFFFFFFFFFFFFFFFFFFFFFFFFFFFFFFFFFFFFFFFF AND DUP2 PUSH20 0xFFFFFFFFFFFFFFFFFFFFFFFFFFFFFFFFFFFFFFFF AND PUSH32 0x8BE0079C531659141344CD1FD0A4F28419497F9722A3DAAFE3B4186F6B6457E0 PUSH1 0x40 MLOAD PUSH1 0x40 MLOAD DUP1 SWAP2 SUB SWAP1 LOG3 POP POP JUMP JUMPDEST PUSH2 0xF04 DUP1 PUSH2 0x10D PUSH1 0x0 CODECOPY PUSH1 0x0 RETURN INVALID PUSH1 0x80 PUSH1 0x40 MSTORE CALLVALUE DUP1 ISZERO PUSH2 0x10 JUMPI PUSH1 0x0 DUP1 REVERT JUMPDEST POP PUSH1 0x4 CALLDATASIZE LT PUSH2 0x88 JUMPI PUSH1 0x0 CALLDATALOAD PUSH1 0xE0 SHR DUP1 PUSH4 0xB5AF090F GT PUSH2 0x5B JUMPI DUP1 PUSH4 0xB5AF090F EQ PUSH2 0x102 JUMPI DUP1 PUSH4 0xD48BFCA7 EQ PUSH2 0x132 JUMPI DUP1 PUSH4 0xDB4F69AF EQ PUSH2 0x14E JUMPI DUP1 PUSH4 0xF2FDE38B EQ PUSH2 0x16C JUMPI PUSH2 0x88 JUMP JUMPDEST DUP1 PUSH4 0x18162F2 EQ PUSH2 0x8D JUMPI DUP1 PUSH4 0x5FA7B584 EQ PUSH2 0xBE JUMPI DUP1 PUSH4 0x715018A6 EQ PUSH2 0xDA JUMPI DUP1 PUSH4 0x8DA5CB5B EQ PUSH2 0xE4 JUMPI JUMPDEST PUSH1 0x0 DUP1 REVERT JUMPDEST PUSH2 0xA7 PUSH1 0x4 DUP1 CALLDATASIZE SUB DUP2 ADD SWAP1 PUSH2 0xA2 SWAP2 SWAP1 PUSH2 0x938 JUMP JUMPDEST PUSH2 0x188 JUMP JUMPDEST PUSH1 0x40 MLOAD PUSH2 0xB5 SWAP3 SWAP2 SWAP1 PUSH2 0xA77 JUMP JUMPDEST PUSH1 0x40 MLOAD DUP1 SWAP2 SUB SWAP1 RETURN JUMPDEST PUSH2 0xD8 PUSH1 0x4 DUP1 CALLDATASIZE SUB DUP2 ADD SWAP1 PUSH2 0xD3 SWAP2 SWAP1 PUSH2 0xAD3 JUMP JUMPDEST PUSH2 0x2B6 JUMP JUMPDEST STOP JUMPDEST PUSH2 0xE2 PUSH2 0x36C JUMP JUMPDEST STOP JUMPDEST PUSH2 0xEC PUSH2 0x380 JUMP JUMPDEST PUSH1 0x40 MLOAD PUSH2 0xF9 SWAP2 SWAP1 PUSH2 0xB0F JUMP JUMPDEST PUSH1 0x40 MLOAD DUP1 SWAP2 SUB SWAP1 RETURN JUMPDEST PUSH2 0x11C PUSH1 0x4 DUP1 CALLDATASIZE SUB DUP2 ADD SWAP1 PUSH2 0x117 SWAP2 SWAP1 PUSH2 0xAD3 JUMP JUMPDEST PUSH2 0x3A9 JUMP JUMPDEST PUSH1 0x40 MLOAD PUSH2 0x129 SWAP2 SWAP1 PUSH2 0xB45 JUMP JUMPDEST PUSH1 0x40 MLOAD DUP1 SWAP2 SUB SWAP1 RETURN JUMPDEST PUSH2 0x14C PUSH1 0x4 DUP1 CALLDATASIZE SUB DUP2 ADD SWAP1 PUSH2 0x147 SWAP2 SWAP1 PUSH2 0xAD3 JUMP JUMPDEST PUSH2 0x3C6 JUMP JUMPDEST STOP JUMPDEST PUSH2 0x156 PUSH2 0x47D JUMP JUMPDEST PUSH1 0x40 MLOAD PUSH2 0x163 SWAP2 SWAP1 PUSH2 0xB60 JUMP JUMPDEST PUSH1 0x40 MLOAD DUP1 SWAP2 SUB SWAP1 RETURN JUMPDEST PUSH2 0x186 PUSH1 0x4 DUP1 CALLDATASIZE SUB DUP2 ADD SWAP1 PUSH2 0x181 SWAP2 SWAP1 PUSH2 0xAD3 JUMP JUMPDEST PUSH2 0x48E JUMP JUMPDEST STOP JUMPDEST PUSH1 0x60 PUSH1 0x0 DUP1 DUP4 SWAP1 POP DUP5 PUSH2 0x19B PUSH1 0x1 PUSH2 0x511 JUMP JUMPDEST PUSH2 0x1A5 SWAP2 SWAP1 PUSH2 0xBAA JUMP JUMPDEST DUP2 GT ISZERO PUSH2 0x1C4 JUMPI DUP5 PUSH2 0x1B7 PUSH1 0x1 PUSH2 0x511 JUMP JUMPDEST PUSH2 0x1C1 SWAP2 SWAP1 PUSH2 0xBAA JUMP JUMPDEST SWAP1 POP JUMPDEST PUSH1 0x0 DUP2 PUSH8 0xFFFFFFFFFFFFFFFF DUP2 GT ISZERO PUSH2 0x1E0 JUMPI PUSH2 0x1DF PUSH2 0xBDE JUMP JUMPDEST JUMPDEST PUSH1 0x40 MLOAD SWAP1 DUP1 DUP3 MSTORE DUP1 PUSH1 0x20 MUL PUSH1 0x20 ADD DUP3 ADD PUSH1 0x40 MSTORE DUP1 ISZERO PUSH2 0x20E JUMPI DUP2 PUSH1 0x20 ADD PUSH1 0x20 DUP3 MUL DUP1 CALLDATASIZE DUP4 CALLDATACOPY DUP1 DUP3 ADD SWAP2 POP POP SWAP1 POP JUMPDEST POP SWAP1 POP PUSH1 0x0 JUMPDEST DUP3 DUP2 LT ISZERO PUSH2 0x29B JUMPI PUSH2 0x23B DUP2 DUP9 PUSH2 0x22B SWAP2 SWAP1 PUSH2 0xC0D JUMP JUMPDEST PUSH1 0x1 PUSH2 0x526 SWAP1 SWAP2 SWAP1 PUSH4 0xFFFFFFFF AND JUMP JUMPDEST DUP3 DUP3 DUP2 MLOAD DUP2 LT PUSH2 0x24E JUMPI PUSH2 0x24D PUSH2 0xC41 JUMP JUMPDEST JUMPDEST PUSH1 0x20 MUL PUSH1 0x20 ADD ADD SWAP1 PUSH20 0xFFFFFFFFFFFFFFFFFFFFFFFFFFFFFFFFFFFFFFFF AND SWAP1 DUP2 PUSH20 0xFFFFFFFFFFFFFFFFFFFFFFFFFFFFFFFFFFFFFFFF AND DUP2 MSTORE POP POP DUP1 DUP1 PUSH2 0x293 SWAP1 PUSH2 0xC70 JUMP JUMPDEST SWAP2 POP POP PUSH2 0x214 JUMP JUMPDEST POP DUP1 DUP3 DUP8 PUSH2 0x2A9 SWAP2 SWAP1 PUSH2 0xC0D JUMP JUMPDEST SWAP4 POP SWAP4 POP POP POP SWAP3 POP SWAP3 SWAP1 POP JUMP JUMPDEST PUSH2 0x2BE PUSH2 0x540 JUMP JUMPDEST PUSH2 0x2D2 DUP2 PUSH1 0x1 PUSH2 0x5BE SWAP1 SWAP2 SWAP1 PUSH4 0xFFFFFFFF AND JUMP JUMPDEST PUSH2 0x311 JUMPI PUSH1 0x40 MLOAD PUSH32 0x8C379A000000000000000000000000000000000000000000000000000000000 DUP2 MSTORE PUSH1 0x4 ADD PUSH2 0x308 SWAP1 PUSH2 0xD15 JUMP JUMPDEST PUSH1 0x40 MLOAD DUP1 SWAP2 SUB SWAP1 REVERT JUMPDEST PUSH2 0x325 DUP2 PUSH1 0x1 PUSH2 0x5EE SWAP1 SWAP2 SWAP1 PUSH4 0xFFFFFFFF AND JUMP JUMPDEST POP DUP1 PUSH20 0xFFFFFFFFFFFFFFFFFFFFFFFFFFFFFFFFFFFFFFFF AND PUSH32 0x505EEC0B2CB995482DC58407253D70F68A3CB27C89EC211BA13C7240557B9353 PUSH1 0x40 MLOAD PUSH1 0x40 MLOAD DUP1 SWAP2 SUB SWAP1 LOG2 POP JUMP JUMPDEST PUSH2 0x374 PUSH2 0x540 JUMP JUMPDEST PUSH2 0x37E PUSH1 0x0 PUSH2 0x61E JUMP JUMPDEST JUMP JUMPDEST PUSH1 0x0 DUP1 PUSH1 0x0 SWAP1 SLOAD SWAP1 PUSH2 0x100 EXP SWAP1 DIV PUSH20 0xFFFFFFFFFFFFFFFFFFFFFFFFFFFFFFFFFFFFFFFF AND SWAP1 POP SWAP1 JUMP JUMPDEST PUSH1 0x0 PUSH2 0x3BF DUP3 PUSH1 0x1 PUSH2 0x5BE SWAP1 SWAP2 SWAP1 PUSH4 0xFFFFFFFF AND JUMP JUMPDEST SWAP1 POP SWAP2 SWAP1 POP JUMP JUMPDEST PUSH2 0x3CE PUSH2 0x540 JUMP JUMPDEST PUSH2 0x3E2 DUP2 PUSH1 0x1 PUSH2 0x5BE SWAP1 SWAP2 SWAP1 PUSH4 0xFFFFFFFF AND JUMP JUMPDEST ISZERO PUSH2 0x422 JUMPI PUSH1 0x40 MLOAD PUSH32 0x8C379A000000000000000000000000000000000000000000000000000000000 DUP2 MSTORE PUSH1 0x4 ADD PUSH2 0x419 SWAP1 PUSH2 0xD81 JUMP JUMPDEST PUSH1 0x40 MLOAD DUP1 SWAP2 SUB SWAP1 REVERT JUMPDEST PUSH2 0x436 DUP2 PUSH1 0x1 PUSH2 0x6E2 SWAP1 SWAP2 SWAP1 PUSH4 0xFFFFFFFF AND JUMP JUMPDEST POP DUP1 PUSH20 0xFFFFFFFFFFFFFFFFFFFFFFFFFFFFFFFFFFFFFFFF AND PUSH32 0x6A65F90B1A644D2FAAC467A21E07E50E3F8FA5846E26231D30AE79A417D3D262 PUSH1 0x40 MLOAD PUSH1 0x40 MLOAD DUP1 SWAP2 SUB SWAP1 LOG2 POP JUMP JUMPDEST PUSH1 0x0 PUSH2 0x489 PUSH1 0x1 PUSH2 0x511 JUMP JUMPDEST SWAP1 POP SWAP1 JUMP JUMPDEST PUSH2 0x496 PUSH2 0x540 JUMP JUMPDEST PUSH1 0x0 PUSH20 0xFFFFFFFFFFFFFFFFFFFFFFFFFFFFFFFFFFFFFFFF AND DUP2 PUSH20 0xFFFFFFFFFFFFFFFFFFFFFFFFFFFFFFFFFFFFFFFF AND SUB PUSH2 0x505 JUMPI PUSH1 0x40 MLOAD PUSH32 0x8C379A000000000000000000000000000000000000000000000000000000000 DUP2 MSTORE PUSH1 0x4 ADD PUSH2 0x4FC SWAP1 PUSH2 0xE13 JUMP JUMPDEST PUSH1 0x40 MLOAD DUP1 SWAP2 SUB SWAP1 REVERT JUMPDEST PUSH2 0x50E DUP2 PUSH2 0x61E JUMP JUMPDEST POP JUMP JUMPDEST PUSH1 0x0 PUSH2 0x51F DUP3 PUSH1 0x0 ADD PUSH2 0x712 JUMP JUMPDEST SWAP1 POP SWAP2 SWAP1 POP JUMP JUMPDEST PUSH1 0x0 PUSH2 0x535 DUP4 PUSH1 0x0 ADD DUP4 PUSH2 0x723 JUMP JUMPDEST PUSH1 0x0 SHR SWAP1 POP SWAP3 SWAP2 POP POP JUMP JUMPDEST PUSH2 0x548 PUSH2 0x74E JUMP JUMPDEST PUSH20 0xFFFFFFFFFFFFFFFFFFFFFFFFFFFFFFFFFFFFFFFF AND PUSH2 0x566 PUSH2 0x380 JUMP JUMPDEST PUSH20 0xFFFFFFFFFFFFFFFFFFFFFFFFFFFFFFFFFFFFFFFF AND EQ PUSH2 0x5BC JUMPI PUSH1 0x40 MLOAD PUSH32 0x8C379A000000000000000000000000000000000000000000000000000000000 DUP2 MSTORE PUSH1 0x4 ADD PUSH2 0x5B3 SWAP1 PUSH2 0xE7F JUMP JUMPDEST PUSH1 0x40 MLOAD DUP1 SWAP2 SUB SWAP1 REVERT JUMPDEST JUMP JUMPDEST PUSH1 0x0 PUSH2 0x5E6 DUP4 PUSH1 0x0 ADD DUP4 PUSH20 0xFFFFFFFFFFFFFFFFFFFFFFFFFFFFFFFFFFFFFFFF AND PUSH1 0x0 SHL PUSH2 0x756 JUMP JUMPDEST SWAP1 POP SWAP3 SWAP2 POP POP JUMP JUMPDEST PUSH1 0x0 PUSH2 0x616 DUP4 PUSH1 0x0 ADD DUP4 PUSH20 0xFFFFFFFFFFFFFFFFFFFFFFFFFFFFFFFFFFFFFFFF AND PUSH1 0x0 SHL PUSH2 0x779 JUMP JUMPDEST SWAP1 POP SWAP3 SWAP2 POP POP JUMP JUMPDEST PUSH1 0x0 DUP1 PUSH1 0x0 SWAP1 SLOAD SWAP1 PUSH2 0x100 EXP SWAP1 DIV PUSH20 0xFFFFFFFFFFFFFFFFFFFFFFFFFFFFFFFFFFFFFFFF AND SWAP1 POP DUP2 PUSH1 0x0 DUP1 PUSH2 0x100 EXP DUP2 SLOAD DUP2 PUSH20 0xFFFFFFFFFFFFFFFFFFFFFFFFFFFFFFFFFFFFFFFF MUL NOT AND SWAP1 DUP4 PUSH20 0xFFFFFFFFFFFFFFFFFFFFFFFFFFFFFFFFFFFFFFFF AND MUL OR SWAP1 SSTORE POP DUP2 PUSH20 0xFFFFFFFFFFFFFFFFFFFFFFFFFFFFFFFFFFFFFFFF AND DUP2 PUSH20 0xFFFFFFFFFFFFFFFFFFFFFFFFFFFFFFFFFFFFFFFF AND PUSH32 0x8BE0079C531659141344CD1FD0A4F28419497F9722A3DAAFE3B4186F6B6457E0 PUSH1 0x40 MLOAD PUSH1 0x40 MLOAD DUP1 SWAP2 SUB SWAP1 LOG3 POP POP JUMP JUMPDEST PUSH1 0x0 PUSH2 0x70A DUP4 PUSH1 0x0 ADD DUP4 PUSH20 0xFFFFFFFFFFFFFFFFFFFFFFFFFFFFFFFFFFFFFFFF AND PUSH1 0x0 SHL PUSH2 0x88D JUMP JUMPDEST SWAP1 POP SWAP3 SWAP2 POP POP JUMP JUMPDEST PUSH1 0x0 DUP2 PUSH1 0x0 ADD DUP1 SLOAD SWAP1 POP SWAP1 POP SWAP2 SWAP1 POP JUMP JUMPDEST PUSH1 0x0 DUP3 PUSH1 0x0 ADD DUP3 DUP2 SLOAD DUP2 LT PUSH2 0x73B JUMPI PUSH2 0x73A PUSH2 0xC41 JUMP JUMPDEST JUMPDEST SWAP1 PUSH1 0x0 MSTORE PUSH1 0x20 PUSH1 0x0 KECCAK256 ADD SLOAD SWAP1 POP SWAP3 SWAP2 POP POP JUMP JUMPDEST PUSH1 0x0 CALLER SWAP1 POP SWAP1 JUMP JUMPDEST PUSH1 0x0 DUP1 DUP4 PUSH1 0x1 ADD PUSH1 0x0 DUP5 DUP2 MSTORE PUSH1 0x20 ADD SWAP1 DUP2 MSTORE PUSH1 0x20 ADD PUSH1 0x0 KECCAK256 SLOAD EQ ISZERO SWAP1 POP SWAP3 SWAP2 POP POP JUMP JUMPDEST PUSH1 0x0 DUP1 DUP4 PUSH1 0x1 ADD PUSH1 0x0 DUP5 DUP2 MSTORE PUSH1 0x20 ADD SWAP1 DUP2 MSTORE PUSH1 0x20 ADD PUSH1 0x0 KECCAK256 SLOAD SWAP1 POP PUSH1 0x0 DUP2 EQ PUSH2 0x881 JUMPI PUSH1 0x0 PUSH1 0x1 DUP3 PUSH2 0x7AB SWAP2 SWAP1 PUSH2 0xBAA JUMP JUMPDEST SWAP1 POP PUSH1 0x0 PUSH1 0x1 DUP7 PUSH1 0x0 ADD DUP1 SLOAD SWAP1 POP PUSH2 0x7C3 SWAP2 SWAP1 PUSH2 0xBAA JUMP JUMPDEST SWAP1 POP DUP2 DUP2 EQ PUSH2 0x832 JUMPI PUSH1 0x0 DUP7 PUSH1 0x0 ADD DUP3 DUP2 SLOAD DUP2 LT PUSH2 0x7E4 JUMPI PUSH2 0x7E3 PUSH2 0xC41 JUMP JUMPDEST JUMPDEST SWAP1 PUSH1 0x0 MSTORE PUSH1 0x20 PUSH1 0x0 KECCAK256 ADD SLOAD SWAP1 POP DUP1 DUP8 PUSH1 0x0 ADD DUP5 DUP2 SLOAD DUP2 LT PUSH2 0x808 JUMPI PUSH2 0x807 PUSH2 0xC41 JUMP JUMPDEST JUMPDEST SWAP1 PUSH1 0x0 MSTORE PUSH1 0x20 PUSH1 0x0 KECCAK256 ADD DUP2 SWAP1 SSTORE POP DUP4 DUP8 PUSH1 0x1 ADD PUSH1 0x0 DUP4 DUP2 MSTORE PUSH1 0x20 ADD SWAP1 DUP2 MSTORE PUSH1 0x20 ADD PUSH1 0x0 KECCAK256 DUP2 SWAP1 SSTORE POP POP JUMPDEST DUP6 PUSH1 0x0 ADD DUP1 SLOAD DUP1 PUSH2 0x846 JUMPI PUSH2 0x845 PUSH2 0xE9F JUMP JUMPDEST JUMPDEST PUSH1 0x1 SWAP1 SUB DUP2 DUP2 SWAP1 PUSH1 0x0 MSTORE PUSH1 0x20 PUSH1 0x0 KECCAK256 ADD PUSH1 0x0 SWAP1 SSTORE SWAP1 SSTORE DUP6 PUSH1 0x1 ADD PUSH1 0x0 DUP7 DUP2 MSTORE PUSH1 0x20 ADD SWAP1 DUP2 MSTORE PUSH1 0x20 ADD PUSH1 0x0 KECCAK256 PUSH1 0x0 SWAP1 SSTORE PUSH1 0x1 SWAP4 POP POP POP POP PUSH2 0x887 JUMP JUMPDEST PUSH1 0x0 SWAP2 POP POP JUMPDEST SWAP3 SWAP2 POP POP JUMP JUMPDEST PUSH1 0x0 PUSH2 0x899 DUP4 DUP4 PUSH2 0x756 JUMP JUMPDEST PUSH2 0x8F2 JUMPI DUP3 PUSH1 0x0 ADD DUP3 SWAP1 DUP1 PUSH1 0x1 DUP2 SLOAD ADD DUP1 DUP3 SSTORE DUP1 SWAP2 POP POP PUSH1 0x1 SWAP1 SUB SWAP1 PUSH1 0x0 MSTORE PUSH1 0x20 PUSH1 0x0 KECCAK256 ADD PUSH1 0x0 SWAP1 SWAP2 SWAP1 SWAP2 SWAP1 SWAP2 POP SSTORE DUP3 PUSH1 0x0 ADD DUP1 SLOAD SWAP1 POP DUP4 PUSH1 0x1 ADD PUSH1 0x0 DUP5 DUP2 MSTORE PUSH1 0x20 ADD SWAP1 DUP2 MSTORE PUSH1 0x20 ADD PUSH1 0x0 KECCAK256 DUP2 SWAP1 SSTORE POP PUSH1 0x1 SWAP1 POP PUSH2 0x8F7 JUMP JUMPDEST PUSH1 0x0 SWAP1 POP JUMPDEST SWAP3 SWAP2 POP POP JUMP JUMPDEST PUSH1 0x0 DUP1 REVERT JUMPDEST PUSH1 0x0 DUP2 SWAP1 POP SWAP2 SWAP1 POP JUMP JUMPDEST PUSH2 0x915 DUP2 PUSH2 0x902 JUMP JUMPDEST DUP2 EQ PUSH2 0x920 JUMPI PUSH1 0x0 DUP1 REVERT JUMPDEST POP JUMP JUMPDEST PUSH1 0x0 DUP2 CALLDATALOAD SWAP1 POP PUSH2 0x932 DUP2 PUSH2 0x90C JUMP JUMPDEST SWAP3 SWAP2 POP POP JUMP JUMPDEST PUSH1 0x0 DUP1 PUSH1 0x40 DUP4 DUP6 SUB SLT ISZERO PUSH2 0x94F JUMPI PUSH2 0x94E PUSH2 0x8FD JUMP JUMPDEST JUMPDEST PUSH1 0x0 PUSH2 0x95D DUP6 DUP3 DUP7 ADD PUSH2 0x923 JUMP JUMPDEST SWAP3 POP POP PUSH1 0x20 PUSH2 0x96E DUP6 DUP3 DUP7 ADD PUSH2 0x923 JUMP JUMPDEST SWAP2 POP POP SWAP3 POP SWAP3 SWAP1 POP JUMP JUMPDEST PUSH1 0x0 DUP2 MLOAD SWAP1 POP SWAP2 SWAP1 POP JUMP JUMPDEST PUSH1 0x0 DUP3 DUP3 MSTORE PUSH1 0x20 DUP3 ADD SWAP1 POP SWAP3 SWAP2 POP POP JUMP JUMPDEST PUSH1 0x0 DUP2 SWAP1 POP PUSH1 0x20 DUP3 ADD SWAP1 POP SWAP2 SWAP1 POP JUMP JUMPDEST PUSH1 0x0 PUSH20 0xFFFFFFFFFFFFFFFFFFFFFFFFFFFFFFFFFFFFFFFF DUP3 AND SWAP1 POP SWAP2 SWAP1 POP JUMP JUMPDEST PUSH1 0x0 PUSH2 0x9CF DUP3 PUSH2 0x9A4 JUMP JUMPDEST SWAP1 POP SWAP2 SWAP1 POP JUMP JUMPDEST PUSH2 0x9DF DUP2 PUSH2 0x9C4 JUMP JUMPDEST DUP3 MSTORE POP POP JUMP JUMPDEST PUSH1 0x0 PUSH2 0x9F1 DUP4 DUP4 PUSH2 0x9D6 JUMP JUMPDEST PUSH1 0x20 DUP4 ADD SWAP1 POP SWAP3 SWAP2 POP POP JUMP JUMPDEST PUSH1 0x0 PUSH1 0x20 DUP3 ADD SWAP1 POP SWAP2 SWAP1 POP JUMP JUMPDEST PUSH1 0x0 PUSH2 0xA15 DUP3 PUSH2 0x978 JUMP JUMPDEST PUSH2 0xA1F DUP2 DUP6 PUSH2 0x983 JUMP JUMPDEST SWAP4 POP PUSH2 0xA2A DUP4 PUSH2 0x994 JUMP JUMPDEST DUP1 PUSH1 0x0 JUMPDEST DUP4 DUP2 LT ISZERO PUSH2 0xA5B JUMPI DUP2 MLOAD PUSH2 0xA42 DUP9 DUP3 PUSH2 0x9E5 JUMP JUMPDEST SWAP8 POP PUSH2 0xA4D DUP4 PUSH2 0x9FD JUMP JUMPDEST SWAP3 POP POP PUSH1 0x1 DUP2 ADD SWAP1 POP PUSH2 0xA2E JUMP JUMPDEST POP DUP6 SWAP4 POP POP POP POP SWAP3 SWAP2 POP POP JUMP JUMPDEST PUSH2 0xA71 DUP2 PUSH2 0x902 JUMP JUMPDEST DUP3 MSTORE POP POP JUMP JUMPDEST PUSH1 0x0 PUSH1 0x40 DUP3 ADD SWAP1 POP DUP2 DUP2 SUB PUSH1 0x0 DUP4 ADD MSTORE PUSH2 0xA91 DUP2 DUP6 PUSH2 0xA0A JUMP JUMPDEST SWAP1 POP PUSH2 0xAA0 PUSH1 0x20 DUP4 ADD DUP5 PUSH2 0xA68 JUMP JUMPDEST SWAP4 SWAP3 POP POP POP JUMP JUMPDEST PUSH2 0xAB0 DUP2 PUSH2 0x9C4 JUMP JUMPDEST DUP2 EQ PUSH2 0xABB JUMPI PUSH1 0x0 DUP1 REVERT JUMPDEST POP JUMP JUMPDEST PUSH1 0x0 DUP2 CALLDATALOAD SWAP1 POP PUSH2 0xACD DUP2 PUSH2 0xAA7 JUMP JUMPDEST SWAP3 SWAP2 POP POP JUMP JUMPDEST PUSH1 0x0 PUSH1 0x20 DUP3 DUP5 SUB SLT ISZERO PUSH2 0xAE9 JUMPI PUSH2 0xAE8 PUSH2 0x8FD JUMP JUMPDEST JUMPDEST PUSH1 0x0 PUSH2 0xAF7 DUP5 DUP3 DUP6 ADD PUSH2 0xABE JUMP JUMPDEST SWAP2 POP POP SWAP3 SWAP2 POP POP JUMP JUMPDEST PUSH2 0xB09 DUP2 PUSH2 0x9C4 JUMP JUMPDEST DUP3 MSTORE POP POP JUMP JUMPDEST PUSH1 0x0 PUSH1 0x20 DUP3 ADD SWAP1 POP PUSH2 0xB24 PUSH1 0x0 DUP4 ADD DUP5 PUSH2 0xB00 JUMP JUMPDEST SWAP3 SWAP2 POP POP JUMP JUMPDEST PUSH1 0x0 DUP2 ISZERO ISZERO SWAP1 POP SWAP2 SWAP1 POP JUMP JUMPDEST PUSH2 0xB3F DUP2 PUSH2 0xB2A JUMP JUMPDEST DUP3 MSTORE POP POP JUMP JUMPDEST PUSH1 0x0 PUSH1 0x20 DUP3 ADD SWAP1 POP PUSH2 0xB5A PUSH1 0x0 DUP4 ADD DUP5 PUSH2 0xB36 JUMP JUMPDEST SWAP3 SWAP2 POP POP JUMP JUMPDEST PUSH1 0x0 PUSH1 0x20 DUP3 ADD SWAP1 POP PUSH2 0xB75 PUSH1 0x0 DUP4 ADD DUP5 PUSH2 0xA68 JUMP JUMPDEST SWAP3 SWAP2 POP POP JUMP JUMPDEST PUSH32 0x4E487B7100000000000000000000000000000000000000000000000000000000 PUSH1 0x0 MSTORE PUSH1 0x11 PUSH1 0x4 MSTORE PUSH1 0x24 PUSH1 0x0 REVERT JUMPDEST PUSH1 0x0 PUSH2 0xBB5 DUP3 PUSH2 0x902 JUMP JUMPDEST SWAP2 POP PUSH2 0xBC0 DUP4 PUSH2 0x902 JUMP JUMPDEST SWAP3 POP DUP3 DUP3 SUB SWAP1 POP DUP2 DUP2 GT ISZERO PUSH2 0xBD8 JUMPI PUSH2 0xBD7 PUSH2 0xB7B JUMP JUMPDEST JUMPDEST SWAP3 SWAP2 POP POP JUMP JUMPDEST PUSH32 0x4E487B7100000000000000000000000000000000000000000000000000000000 PUSH1 0x0 MSTORE PUSH1 0x41 PUSH1 0x4 MSTORE PUSH1 0x24 PUSH1 0x0 REVERT JUMPDEST PUSH1 0x0 PUSH2 0xC18 DUP3 PUSH2 0x902 JUMP JUMPDEST SWAP2 POP PUSH2 0xC23 DUP4 PUSH2 0x902 JUMP JUMPDEST SWAP3 POP DUP3 DUP3 ADD SWAP1 POP DUP1 DUP3 GT ISZERO PUSH2 0xC3B JUMPI PUSH2 0xC3A PUSH2 0xB7B JUMP JUMPDEST JUMPDEST SWAP3 SWAP2 POP POP JUMP JUMPDEST PUSH32 0x4E487B7100000000000000000000000000000000000000000000000000000000 PUSH1 0x0 MSTORE PUSH1 0x32 PUSH1 0x4 MSTORE PUSH1 0x24 PUSH1 0x0 REVERT JUMPDEST PUSH1 0x0 PUSH2 0xC7B DUP3 PUSH2 0x902 JUMP JUMPDEST SWAP2 POP PUSH32 0xFFFFFFFFFFFFFFFFFFFFFFFFFFFFFFFFFFFFFFFFFFFFFFFFFFFFFFFFFFFFFFFF DUP3 SUB PUSH2 0xCAD JUMPI PUSH2 0xCAC PUSH2 0xB7B JUMP JUMPDEST JUMPDEST PUSH1 0x1 DUP3 ADD SWAP1 POP SWAP2 SWAP1 POP JUMP JUMPDEST PUSH1 0x0 DUP3 DUP3 MSTORE PUSH1 0x20 DUP3 ADD SWAP1 POP SWAP3 SWAP2 POP POP JUMP JUMPDEST PUSH32 0x546F6B656E3A204E6F7420457869737465640000000000000000000000000000 PUSH1 0x0 DUP3 ADD MSTORE POP JUMP JUMPDEST PUSH1 0x0 PUSH2 0xCFF PUSH1 0x12 DUP4 PUSH2 0xCB8 JUMP JUMPDEST SWAP2 POP PUSH2 0xD0A DUP3 PUSH2 0xCC9 JUMP JUMPDEST PUSH1 0x20 DUP3 ADD SWAP1 POP SWAP2 SWAP1 POP JUMP JUMPDEST PUSH1 0x0 PUSH1 0x20 DUP3 ADD SWAP1 POP DUP2 DUP2 SUB PUSH1 0x0 DUP4 ADD MSTORE PUSH2 0xD2E DUP2 PUSH2 0xCF2 JUMP JUMPDEST SWAP1 POP SWAP2 SWAP1 POP JUMP JUMPDEST PUSH32 0x546F6B656E3A20416C726561647920546F6B656E204164647265737300000000 PUSH1 0x0 DUP3 ADD MSTORE POP JUMP JUMPDEST PUSH1 0x0 PUSH2 0xD6B PUSH1 0x1C DUP4 PUSH2 0xCB8 JUMP JUMPDEST SWAP2 POP PUSH2 0xD76 DUP3 PUSH2 0xD35 JUMP JUMPDEST PUSH1 0x20 DUP3 ADD SWAP1 POP SWAP2 SWAP1 POP JUMP JUMPDEST PUSH1 0x0 PUSH1 0x20 DUP3 ADD SWAP1 POP DUP2 DUP2 SUB PUSH1 0x0 DUP4 ADD MSTORE PUSH2 0xD9A DUP2 PUSH2 0xD5E JUMP JUMPDEST SWAP1 POP SWAP2 SWAP1 POP JUMP JUMPDEST PUSH32 0x4F776E61626C653A206E6577206F776E657220697320746865207A65726F2061 PUSH1 0x0 DUP3 ADD MSTORE PUSH32 0x6464726573730000000000000000000000000000000000000000000000000000 PUSH1 0x20 DUP3 ADD MSTORE POP JUMP JUMPDEST PUSH1 0x0 PUSH2 0xDFD PUSH1 0x26 DUP4 PUSH2 0xCB8 JUMP JUMPDEST SWAP2 POP PUSH2 0xE08 DUP3 PUSH2 0xDA1 JUMP JUMPDEST PUSH1 0x40 DUP3 ADD SWAP1 POP SWAP2 SWAP1 POP JUMP JUMPDEST PUSH1 0x0 PUSH1 0x20 DUP3 ADD SWAP1 POP DUP2 DUP2 SUB PUSH1 0x0 DUP4 ADD MSTORE PUSH2 0xE2C DUP2 PUSH2 0xDF0 JUMP JUMPDEST SWAP1 POP SWAP2 SWAP1 POP JUMP JUMPDEST PUSH32 0x4F776E61626C653A2063616C6C6572206973206E6F7420746865206F776E6572 PUSH1 0x0 DUP3 ADD MSTORE POP JUMP JUMPDEST PUSH1 0x0 PUSH2 0xE69 PUSH1 0x20 DUP4 PUSH2 0xCB8 JUMP JUMPDEST SWAP2 POP PUSH2 0xE74 DUP3 PUSH2 0xE33 JUMP JUMPDEST PUSH1 0x20 DUP3 ADD SWAP1 POP SWAP2 SWAP1 POP JUMP JUMPDEST PUSH1 0x0 PUSH1 0x20 DUP3 ADD SWAP1 POP DUP2 DUP2 SUB PUSH1 0x0 DUP4 ADD MSTORE PUSH2 0xE98 DUP2 PUSH2 0xE5C JUMP JUMPDEST SWAP1 POP SWAP2 SWAP1 POP JUMP JUMPDEST PUSH32 0x4E487B7100000000000000000000000000000000000000000000000000000000 PUSH1 0x0 MSTORE PUSH1 0x31 PUSH1 0x4 MSTORE PUSH1 0x24 PUSH1 0x0 REVERT INVALID LOG2 PUSH5 0x6970667358 0x22 SLT KECCAK256 0xB7 DUP6 0xD9 0x28 RETURNDATACOPY 0x5C AND BLOCKHASH PUSH28 0x1528A1D3BA3B8AC6C8DF8562DE4D60D291929EC430D5A664736F6C63 NUMBER STOP ADDMOD SGT STOP CALLER "
				},
				"gasEstimates": {
					"creation": {
						"codeDepositCost": "768800",
						"executionCost": "infinite",
						"totalCost": "infinite"
					},
					"external": {
						"addToken(address)": "infinite",
						"isTokenWhitelisted(address)": "infinite",
						"owner()": "2589",
						"removeToken(address)": "infinite",
						"renounceOwnership()": "30443",
						"transferOwnership(address)": "30810",
						"viewCountWhitelistedToken()": "2587",
						"viewWhitelistedToken(uint256,uint256)": "infinite"
					}
				},
				"methodIdentifiers": {
					"addToken(address)": "d48bfca7",
					"isTokenWhitelisted(address)": "b5af090f",
					"owner()": "8da5cb5b",
					"removeToken(address)": "5fa7b584",
					"renounceOwnership()": "715018a6",
					"transferOwnership(address)": "f2fde38b",
					"viewCountWhitelistedToken()": "db4f69af",
					"viewWhitelistedToken(uint256,uint256)": "018162f2"
				}
			},
			"storageLayout": {
				"storage": [
					{
						"astId": 7,
						"contract": "hardhat/contracts/TradeTokenManager.sol:TradeTokenManager",
						"label": "_owner",
						"offset": 0,
						"slot": "0",
						"type": "t_address"
					},
					{
						"astId": 766,
						"contract": "hardhat/contracts/TradeTokenManager.sol:TradeTokenManager",
						"label": "_whitelistedTokens",
						"offset": 0,
						"slot": "1",
						"type": "t_struct(AddressSet)460_storage"
					}
				],
				"types": {
					"t_address": {
						"encoding": "inplace",
						"label": "address",
						"numberOfBytes": "20"
					},
					"t_array(t_bytes32)dyn_storage": {
						"base": "t_bytes32",
						"encoding": "dynamic_array",
						"label": "bytes32[]",
						"numberOfBytes": "32"
					},
					"t_bytes32": {
						"encoding": "inplace",
						"label": "bytes32",
						"numberOfBytes": "32"
					},
					"t_mapping(t_bytes32,t_uint256)": {
						"encoding": "mapping",
						"key": "t_bytes32",
						"label": "mapping(bytes32 => uint256)",
						"numberOfBytes": "32",
						"value": "t_uint256"
					},
					"t_struct(AddressSet)460_storage": {
						"encoding": "inplace",
						"label": "struct EnumerableSet.AddressSet",
						"members": [
							{
								"astId": 459,
								"contract": "hardhat/contracts/TradeTokenManager.sol:TradeTokenManager",
								"label": "_inner",
								"offset": 0,
								"slot": "0",
								"type": "t_struct(Set)145_storage"
							}
						],
						"numberOfBytes": "64"
					},
					"t_struct(Set)145_storage": {
						"encoding": "inplace",
						"label": "struct EnumerableSet.Set",
						"members": [
							{
								"astId": 140,
								"contract": "hardhat/contracts/TradeTokenManager.sol:TradeTokenManager",
								"label": "_values",
								"offset": 0,
								"slot": "0",
								"type": "t_array(t_bytes32)dyn_storage"
							},
							{
								"astId": 144,
								"contract": "hardhat/contracts/TradeTokenManager.sol:TradeTokenManager",
								"label": "_indexes",
								"offset": 0,
								"slot": "1",
								"type": "t_mapping(t_bytes32,t_uint256)"
							}
						],
						"numberOfBytes": "64"
					},
					"t_uint256": {
						"encoding": "inplace",
						"label": "uint256",
						"numberOfBytes": "32"
					}
				}
			},
			"userdoc": {
				"kind": "user",
				"methods": {},
				"version": 1
			}
		}
	}
}