{
	"hardhat/contracts/TransferManager.sol": {
		"TransferManager": {
			"abi": [
				{
					"inputs": [
						{
							"internalType": "address",
							"name": "_transfer721",
							"type": "address"
						},
						{
							"internalType": "address",
							"name": "_transfer1155",
							"type": "address"
						}
					],
					"stateMutability": "nonpayable",
					"type": "constructor"
				},
				{
					"anonymous": false,
					"inputs": [
						{
							"indexed": true,
							"internalType": "address",
							"name": "collection",
							"type": "address"
						},
						{
							"indexed": true,
							"internalType": "address",
							"name": "transferManager",
							"type": "address"
						}
					],
					"name": "CollectionTransferManagerAdded",
					"type": "event"
				},
				{
					"anonymous": false,
					"inputs": [
						{
							"indexed": true,
							"internalType": "address",
							"name": "collection",
							"type": "address"
						}
					],
					"name": "CollectionTransferManagerRemoved",
					"type": "event"
				},
				{
					"anonymous": false,
					"inputs": [
						{
							"indexed": true,
							"internalType": "address",
							"name": "previousOwner",
							"type": "address"
						},
						{
							"indexed": true,
							"internalType": "address",
							"name": "newOwner",
							"type": "address"
						}
					],
					"name": "OwnershipTransferred",
					"type": "event"
				},
				{
					"inputs": [],
					"name": "INTERFACE_ID_ERC1155",
					"outputs": [
						{
							"internalType": "bytes4",
							"name": "",
							"type": "bytes4"
						}
					],
					"stateMutability": "view",
					"type": "function"
				},
				{
					"inputs": [],
					"name": "INTERFACE_ID_ERC721",
					"outputs": [
						{
							"internalType": "bytes4",
							"name": "",
							"type": "bytes4"
						}
					],
					"stateMutability": "view",
					"type": "function"
				},
				{
					"inputs": [],
					"name": "TRANSFER_MANAGER_ERC1155",
					"outputs": [
						{
							"internalType": "address",
							"name": "",
							"type": "address"
						}
					],
					"stateMutability": "view",
					"type": "function"
				},
				{
					"inputs": [],
					"name": "TRANSFER_MANAGER_ERC721",
					"outputs": [
						{
							"internalType": "address",
							"name": "",
							"type": "address"
						}
					],
					"stateMutability": "view",
					"type": "function"
				},
				{
					"inputs": [
						{
							"internalType": "address",
							"name": "collection",
							"type": "address"
						},
						{
							"internalType": "address",
							"name": "transferManager",
							"type": "address"
						}
					],
					"name": "addTransferManagerCollection",
					"outputs": [],
					"stateMutability": "nonpayable",
					"type": "function"
				},
				{
					"inputs": [],
					"name": "owner",
					"outputs": [
						{
							"internalType": "address",
							"name": "",
							"type": "address"
						}
					],
					"stateMutability": "view",
					"type": "function"
				},
				{
					"inputs": [
						{
							"internalType": "address",
							"name": "collection",
							"type": "address"
						}
					],
					"name": "removeTransferManagerCollection",
					"outputs": [],
					"stateMutability": "nonpayable",
					"type": "function"
				},
				{
					"inputs": [],
					"name": "renounceOwnership",
					"outputs": [],
					"stateMutability": "nonpayable",
					"type": "function"
				},
				{
					"inputs": [
						{
							"internalType": "address",
							"name": "collection",
							"type": "address"
						}
					],
					"name": "transferManagerAddress",
					"outputs": [
						{
							"internalType": "address",
							"name": "transferManager",
							"type": "address"
						}
					],
					"stateMutability": "view",
					"type": "function"
				},
				{
					"inputs": [
						{
							"internalType": "address",
							"name": "",
							"type": "address"
						}
					],
					"name": "transferManagerForCollection",
					"outputs": [
						{
							"internalType": "address",
							"name": "",
							"type": "address"
						}
					],
					"stateMutability": "view",
					"type": "function"
				},
				{
					"inputs": [
						{
							"internalType": "address",
							"name": "newOwner",
							"type": "address"
						}
					],
					"name": "transferOwnership",
					"outputs": [],
					"stateMutability": "nonpayable",
					"type": "function"
				}
			],
			"devdoc": {
				"kind": "dev",
				"methods": {
					"owner()": {
						"details": "Returns the address of the current owner."
					},
					"renounceOwnership()": {
						"details": "Leaves the contract without owner. It will not be possible to call `onlyOwner` functions anymore. Can only be called by the current owner. NOTE: Renouncing ownership will leave the contract without an owner, thereby removing any functionality that is only available to the owner."
					},
					"transferOwnership(address)": {
						"details": "Transfers ownership of the contract to a new account (`newOwner`). Can only be called by the current owner."
					}
				},
				"version": 1
			},
			"evm": {
				"assembly": "    /* \"hardhat/contracts/TransferManager.sol\":306:2797  contract TransferManager is ITransferManager, Ownable {... */\n  mstore(0x40, 0xc0)\n    /* \"hardhat/contracts/TransferManager.sol\":921:1083  constructor(address _transfer721, address _transfer1155) {... */\n  callvalue\n  dup1\n  iszero\n  tag_1\n  jumpi\n  0x00\n  dup1\n  revert\ntag_1:\n  pop\n  mload(0x40)\n  sub(codesize, bytecodeSize)\n  dup1\n  bytecodeSize\n  dup4\n  codecopy\n  dup2\n  dup2\n  add\n  0x40\n  mstore\n  dup2\n  add\n  swap1\n  tag_2\n  swap2\n  swap1\n  tag_3\n  jump\t// in\ntag_2:\n    /* \"@openzeppelin/contracts/access/Ownable.sol\":936:968  _transferOwnership(_msgSender()) */\n  tag_7\n    /* \"@openzeppelin/contracts/access/Ownable.sol\":955:967  _msgSender() */\n  tag_8\n    /* \"@openzeppelin/contracts/access/Ownable.sol\":955:965  _msgSender */\n  shl(0x20, tag_9)\n    /* \"@openzeppelin/contracts/access/Ownable.sol\":955:967  _msgSender() */\n  0x20\n  shr\n  jump\t// in\ntag_8:\n    /* \"@openzeppelin/contracts/access/Ownable.sol\":936:954  _transferOwnership */\n  shl(0x20, tag_10)\n    /* \"@openzeppelin/contracts/access/Ownable.sol\":936:968  _transferOwnership(_msgSender()) */\n  0x20\n  shr\n  jump\t// in\ntag_7:\n    /* \"hardhat/contracts/TransferManager.sol\":1014:1026  _transfer721 */\n  dup2\n    /* \"hardhat/contracts/TransferManager.sol\":988:1026  TRANSFER_MANAGER_ERC721 = _transfer721 */\n  0xffffffffffffffffffffffffffffffffffffffff\n  and\n  0x80\n  dup2\n  0xffffffffffffffffffffffffffffffffffffffff\n  and\n  dup2\n  mstore\n  pop\n  pop\n    /* \"hardhat/contracts/TransferManager.sol\":1063:1076  _transfer1155 */\n  dup1\n    /* \"hardhat/contracts/TransferManager.sol\":1036:1076  TRANSFER_MANAGER_ERC1155 = _transfer1155 */\n  0xffffffffffffffffffffffffffffffffffffffff\n  and\n  0xa0\n  dup2\n  0xffffffffffffffffffffffffffffffffffffffff\n  and\n  dup2\n  mstore\n  pop\n  pop\n    /* \"hardhat/contracts/TransferManager.sol\":921:1083  constructor(address _transfer721, address _transfer1155) {... */\n  pop\n  pop\n    /* \"hardhat/contracts/TransferManager.sol\":306:2797  contract TransferManager is ITransferManager, Ownable {... */\n  jump(tag_12)\n    /* \"@openzeppelin/contracts/utils/Context.sol\":640:736  function _msgSender() internal view virtual returns (address) {... */\ntag_9:\n    /* \"@openzeppelin/contracts/utils/Context.sol\":693:700  address */\n  0x00\n    /* \"@openzeppelin/contracts/utils/Context.sol\":719:729  msg.sender */\n  caller\n    /* \"@openzeppelin/contracts/utils/Context.sol\":712:729  return msg.sender */\n  swap1\n  pop\n    /* \"@openzeppelin/contracts/utils/Context.sol\":640:736  function _msgSender() internal view virtual returns (address) {... */\n  swap1\n  jump\t// out\n    /* \"@openzeppelin/contracts/access/Ownable.sol\":2433:2620  function _transferOwnership(address newOwner) internal virtual {... */\ntag_10:\n    /* \"@openzeppelin/contracts/access/Ownable.sol\":2506:2522  address oldOwner */\n  0x00\n    /* \"@openzeppelin/contracts/access/Ownable.sol\":2525:2531  _owner */\n  dup1\n  0x00\n  swap1\n  sload\n  swap1\n  0x0100\n  exp\n  swap1\n  div\n  0xffffffffffffffffffffffffffffffffffffffff\n  and\n    /* \"@openzeppelin/contracts/access/Ownable.sol\":2506:2531  address oldOwner = _owner */\n  swap1\n  pop\n    /* \"@openzeppelin/contracts/access/Ownable.sol\":2550:2558  newOwner */\n  dup2\n    /* \"@openzeppelin/contracts/access/Ownable.sol\":2541:2547  _owner */\n  0x00\n  dup1\n    /* \"@openzeppelin/contracts/access/Ownable.sol\":2541:2558  _owner = newOwner */\n  0x0100\n  exp\n  dup2\n  sload\n  dup2\n  0xffffffffffffffffffffffffffffffffffffffff\n  mul\n  not\n  and\n  swap1\n  dup4\n  0xffffffffffffffffffffffffffffffffffffffff\n  and\n  mul\n  or\n  swap1\n  sstore\n  pop\n    /* \"@openzeppelin/contracts/access/Ownable.sol\":2604:2612  newOwner */\n  dup2\n    /* \"@openzeppelin/contracts/access/Ownable.sol\":2573:2613  OwnershipTransferred(oldOwner, newOwner) */\n  0xffffffffffffffffffffffffffffffffffffffff\n  and\n    /* \"@openzeppelin/contracts/access/Ownable.sol\":2594:2602  oldOwner */\n  dup2\n    /* \"@openzeppelin/contracts/access/Ownable.sol\":2573:2613  OwnershipTransferred(oldOwner, newOwner) */\n  0xffffffffffffffffffffffffffffffffffffffff\n  and\n  0x8be0079c531659141344cd1fd0a4f28419497f9722a3daafe3b4186f6b6457e0\n  mload(0x40)\n  mload(0x40)\n  dup1\n  swap2\n  sub\n  swap1\n  log3\n    /* \"@openzeppelin/contracts/access/Ownable.sol\":2496:2620  {... */\n  pop\n    /* \"@openzeppelin/contracts/access/Ownable.sol\":2433:2620  function _transferOwnership(address newOwner) internal virtual {... */\n  pop\n  jump\t// out\n    /* \"#utility.yul\":88:205   */\ntag_16:\n    /* \"#utility.yul\":197:198   */\n  0x00\n    /* \"#utility.yul\":194:195   */\n  dup1\n    /* \"#utility.yul\":187:199   */\n  revert\n    /* \"#utility.yul\":334:460   */\ntag_18:\n    /* \"#utility.yul\":371:378   */\n  0x00\n    /* \"#utility.yul\":411:453   */\n  0xffffffffffffffffffffffffffffffffffffffff\n    /* \"#utility.yul\":404:409   */\n  dup3\n    /* \"#utility.yul\":400:454   */\n  and\n    /* \"#utility.yul\":389:454   */\n  swap1\n  pop\n    /* \"#utility.yul\":334:460   */\n  swap2\n  swap1\n  pop\n  jump\t// out\n    /* \"#utility.yul\":466:562   */\ntag_19:\n    /* \"#utility.yul\":503:510   */\n  0x00\n    /* \"#utility.yul\":532:556   */\n  tag_28\n    /* \"#utility.yul\":550:555   */\n  dup3\n    /* \"#utility.yul\":532:556   */\n  tag_18\n  jump\t// in\ntag_28:\n    /* \"#utility.yul\":521:556   */\n  swap1\n  pop\n    /* \"#utility.yul\":466:562   */\n  swap2\n  swap1\n  pop\n  jump\t// out\n    /* \"#utility.yul\":568:690   */\ntag_20:\n    /* \"#utility.yul\":641:665   */\n  tag_30\n    /* \"#utility.yul\":659:664   */\n  dup2\n    /* \"#utility.yul\":641:665   */\n  tag_19\n  jump\t// in\ntag_30:\n    /* \"#utility.yul\":634:639   */\n  dup2\n    /* \"#utility.yul\":631:666   */\n  eq\n    /* \"#utility.yul\":621:684   */\n  tag_31\n  jumpi\n    /* \"#utility.yul\":680:681   */\n  0x00\n    /* \"#utility.yul\":677:678   */\n  dup1\n    /* \"#utility.yul\":670:682   */\n  revert\n    /* \"#utility.yul\":621:684   */\ntag_31:\n    /* \"#utility.yul\":568:690   */\n  pop\n  jump\t// out\n    /* \"#utility.yul\":696:839   */\ntag_21:\n    /* \"#utility.yul\":753:758   */\n  0x00\n    /* \"#utility.yul\":784:790   */\n  dup2\n    /* \"#utility.yul\":778:791   */\n  mload\n    /* \"#utility.yul\":769:791   */\n  swap1\n  pop\n    /* \"#utility.yul\":800:833   */\n  tag_33\n    /* \"#utility.yul\":827:832   */\n  dup2\n    /* \"#utility.yul\":800:833   */\n  tag_20\n  jump\t// in\ntag_33:\n    /* \"#utility.yul\":696:839   */\n  swap3\n  swap2\n  pop\n  pop\n  jump\t// out\n    /* \"#utility.yul\":845:1352   */\ntag_3:\n    /* \"#utility.yul\":924:930   */\n  0x00\n    /* \"#utility.yul\":932:938   */\n  dup1\n    /* \"#utility.yul\":981:983   */\n  0x40\n    /* \"#utility.yul\":969:978   */\n  dup4\n    /* \"#utility.yul\":960:967   */\n  dup6\n    /* \"#utility.yul\":956:979   */\n  sub\n    /* \"#utility.yul\":952:984   */\n  slt\n    /* \"#utility.yul\":949:1068   */\n  iszero\n  tag_35\n  jumpi\n    /* \"#utility.yul\":987:1066   */\n  tag_36\n  tag_16\n  jump\t// in\ntag_36:\n    /* \"#utility.yul\":949:1068   */\ntag_35:\n    /* \"#utility.yul\":1107:1108   */\n  0x00\n    /* \"#utility.yul\":1132:1196   */\n  tag_37\n    /* \"#utility.yul\":1188:1195   */\n  dup6\n    /* \"#utility.yul\":1179:1185   */\n  dup3\n    /* \"#utility.yul\":1168:1177   */\n  dup7\n    /* \"#utility.yul\":1164:1186   */\n  add\n    /* \"#utility.yul\":1132:1196   */\n  tag_21\n  jump\t// in\ntag_37:\n    /* \"#utility.yul\":1122:1196   */\n  swap3\n  pop\n    /* \"#utility.yul\":1078:1206   */\n  pop\n    /* \"#utility.yul\":1245:1247   */\n  0x20\n    /* \"#utility.yul\":1271:1335   */\n  tag_38\n    /* \"#utility.yul\":1327:1334   */\n  dup6\n    /* \"#utility.yul\":1318:1324   */\n  dup3\n    /* \"#utility.yul\":1307:1316   */\n  dup7\n    /* \"#utility.yul\":1303:1325   */\n  add\n    /* \"#utility.yul\":1271:1335   */\n  tag_21\n  jump\t// in\ntag_38:\n    /* \"#utility.yul\":1261:1335   */\n  swap2\n  pop\n    /* \"#utility.yul\":1216:1345   */\n  pop\n    /* \"#utility.yul\":845:1352   */\n  swap3\n  pop\n  swap3\n  swap1\n  pop\n  jump\t// out\n    /* \"hardhat/contracts/TransferManager.sol\":306:2797  contract TransferManager is ITransferManager, Ownable {... */\ntag_12:\n  mload(0x80)\n  mload(0xa0)\n  codecopy(0x00, dataOffset(sub_0), dataSize(sub_0))\n  0x00\n  assignImmutable(\"0xbf08d8a2d7c7780024ba6e6dbe12d3d5a5a747ea3071fca63d8a2ede50d3472a\")\n  0x00\n  assignImmutable(\"0x566674f71911cd3b7cbc2fd66353711d31aaa96f269440d186374a017f53f324\")\n  return(0x00, dataSize(sub_0))\nstop\n\nsub_0: assembly {\n        /* \"hardhat/contracts/TransferManager.sol\":306:2797  contract TransferManager is ITransferManager, Ownable {... */\n      mstore(0x40, 0x80)\n      callvalue\n      dup1\n      iszero\n      tag_1\n      jumpi\n      0x00\n      dup1\n      revert\n    tag_1:\n      pop\n      jumpi(tag_2, lt(calldatasize, 0x04))\n      shr(0xe0, calldataload(0x00))\n      dup1\n      0x8da5cb5b\n      gt\n      tag_14\n      jumpi\n      dup1\n      0x8da5cb5b\n      eq\n      tag_8\n      jumpi\n      dup1\n      0xb1357ddd\n      eq\n      tag_9\n      jumpi\n      dup1\n      0xbc6bc0cd\n      eq\n      tag_10\n      jumpi\n      dup1\n      0xd297772f\n      eq\n      tag_11\n      jumpi\n      dup1\n      0xe58c7c39\n      eq\n      tag_12\n      jumpi\n      dup1\n      0xf2fde38b\n      eq\n      tag_13\n      jumpi\n      jump(tag_2)\n    tag_14:\n      dup1\n      0x15f04966\n      eq\n      tag_3\n      jumpi\n      dup1\n      0x301b2507\n      eq\n      tag_4\n      jumpi\n      dup1\n      0x33bf6156\n      eq\n      tag_5\n      jumpi\n      dup1\n      0x38928956\n      eq\n      tag_6\n      jumpi\n      dup1\n      0x715018a6\n      eq\n      tag_7\n      jumpi\n    tag_2:\n      0x00\n      dup1\n      revert\n        /* \"hardhat/contracts/TransferManager.sol\":2181:2795  function transferManagerAddress(... */\n    tag_3:\n      tag_15\n      0x04\n      dup1\n      calldatasize\n      sub\n      dup2\n      add\n      swap1\n      tag_16\n      swap2\n      swap1\n      tag_17\n      jump\t// in\n    tag_16:\n      tag_18\n      jump\t// in\n    tag_15:\n      mload(0x40)\n      tag_19\n      swap2\n      swap1\n      tag_20\n      jump\t// in\n    tag_19:\n      mload(0x40)\n      dup1\n      swap2\n      sub\n      swap1\n      return\n        /* \"hardhat/contracts/TransferManager.sol\":1184:1609  function addTransferManagerCollection(... */\n    tag_4:\n      tag_21\n      0x04\n      dup1\n      calldatasize\n      sub\n      dup2\n      add\n      swap1\n      tag_22\n      swap2\n      swap1\n      tag_23\n      jump\t// in\n    tag_22:\n      tag_24\n      jump\t// in\n    tag_21:\n      stop\n        /* \"hardhat/contracts/TransferManager.sol\":480:536  bytes4 public constant INTERFACE_ID_ERC1155 = 0xd9b67a26 */\n    tag_5:\n      tag_25\n      tag_26\n      jump\t// in\n    tag_25:\n      mload(0x40)\n      tag_27\n      swap2\n      swap1\n      tag_28\n      jump\t// in\n    tag_27:\n      mload(0x40)\n      dup1\n      swap2\n      sub\n      swap1\n      return\n        /* \"hardhat/contracts/TransferManager.sol\":597:646  address public immutable TRANSFER_MANAGER_ERC1155 */\n    tag_6:\n      tag_29\n      tag_30\n      jump\t// in\n    tag_29:\n      mload(0x40)\n      tag_31\n      swap2\n      swap1\n      tag_20\n      jump\t// in\n    tag_31:\n      mload(0x40)\n      dup1\n      swap2\n      sub\n      swap1\n      return\n        /* \"@openzeppelin/contracts/access/Ownable.sol\":1831:1932  function renounceOwnership() public virtual onlyOwner {... */\n    tag_7:\n      tag_32\n      tag_33\n      jump\t// in\n    tag_32:\n      stop\n        /* \"@openzeppelin/contracts/access/Ownable.sol\":1201:1286  function owner() public view virtual returns (address) {... */\n    tag_8:\n      tag_34\n      tag_35\n      jump\t// in\n    tag_34:\n      mload(0x40)\n      tag_36\n      swap2\n      swap1\n      tag_20\n      jump\t// in\n    tag_36:\n      mload(0x40)\n      dup1\n      swap2\n      sub\n      swap1\n      return\n        /* \"hardhat/contracts/TransferManager.sol\":543:591  address public immutable TRANSFER_MANAGER_ERC721 */\n    tag_9:\n      tag_37\n      tag_38\n      jump\t// in\n    tag_37:\n      mload(0x40)\n      tag_39\n      swap2\n      swap1\n      tag_20\n      jump\t// in\n    tag_39:\n      mload(0x40)\n      dup1\n      swap2\n      sub\n      swap1\n      return\n        /* \"hardhat/contracts/TransferManager.sol\":392:447  bytes4 public constant INTERFACE_ID_ERC721 = 0x80ac58cd */\n    tag_10:\n      tag_40\n      tag_41\n      jump\t// in\n    tag_40:\n      mload(0x40)\n      tag_42\n      swap2\n      swap1\n      tag_28\n      jump\t// in\n    tag_42:\n      mload(0x40)\n      dup1\n      swap2\n      sub\n      swap1\n      return\n        /* \"hardhat/contracts/TransferManager.sol\":653:716  mapping(address => address) public transferManagerForCollection */\n    tag_11:\n      tag_43\n      0x04\n      dup1\n      calldatasize\n      sub\n      dup2\n      add\n      swap1\n      tag_44\n      swap2\n      swap1\n      tag_17\n      jump\t// in\n    tag_44:\n      tag_45\n      jump\t// in\n    tag_43:\n      mload(0x40)\n      tag_46\n      swap2\n      swap1\n      tag_20\n      jump\t// in\n    tag_46:\n      mload(0x40)\n      dup1\n      swap2\n      sub\n      swap1\n      return\n        /* \"hardhat/contracts/TransferManager.sol\":1711:2070  function removeTransferManagerCollection(... */\n    tag_12:\n      tag_47\n      0x04\n      dup1\n      calldatasize\n      sub\n      dup2\n      add\n      swap1\n      tag_48\n      swap2\n      swap1\n      tag_17\n      jump\t// in\n    tag_48:\n      tag_49\n      jump\t// in\n    tag_47:\n      stop\n        /* \"@openzeppelin/contracts/access/Ownable.sol\":2081:2279  function transferOwnership(address newOwner) public virtual onlyOwner {... */\n    tag_13:\n      tag_50\n      0x04\n      dup1\n      calldatasize\n      sub\n      dup2\n      add\n      swap1\n      tag_51\n      swap2\n      swap1\n      tag_17\n      jump\t// in\n    tag_51:\n      tag_52\n      jump\t// in\n    tag_50:\n      stop\n        /* \"hardhat/contracts/TransferManager.sol\":2181:2795  function transferManagerAddress(... */\n    tag_18:\n        /* \"hardhat/contracts/TransferManager.sol\":2279:2302  address transferManager */\n      0x00\n        /* \"hardhat/contracts/TransferManager.sol\":2332:2360  transferManagerForCollection */\n      0x01\n        /* \"hardhat/contracts/TransferManager.sol\":2332:2372  transferManagerForCollection[collection] */\n      0x00\n        /* \"hardhat/contracts/TransferManager.sol\":2361:2371  collection */\n      dup4\n        /* \"hardhat/contracts/TransferManager.sol\":2332:2372  transferManagerForCollection[collection] */\n      0xffffffffffffffffffffffffffffffffffffffff\n      and\n      0xffffffffffffffffffffffffffffffffffffffff\n      and\n      dup2\n      mstore\n      0x20\n      add\n      swap1\n      dup2\n      mstore\n      0x20\n      add\n      0x00\n      keccak256\n      0x00\n      swap1\n      sload\n      swap1\n      0x0100\n      exp\n      swap1\n      div\n      0xffffffffffffffffffffffffffffffffffffffff\n      and\n        /* \"hardhat/contracts/TransferManager.sol\":2314:2372  transferManager = transferManagerForCollection[collection] */\n      swap1\n      pop\n        /* \"hardhat/contracts/TransferManager.sol\":2414:2415  0 */\n      0x00\n        /* \"hardhat/contracts/TransferManager.sol\":2387:2416  transferManager == address(0) */\n      0xffffffffffffffffffffffffffffffffffffffff\n      and\n        /* \"hardhat/contracts/TransferManager.sol\":2387:2402  transferManager */\n      dup2\n        /* \"hardhat/contracts/TransferManager.sol\":2387:2416  transferManager == address(0) */\n      0xffffffffffffffffffffffffffffffffffffffff\n      and\n      sub\n        /* \"hardhat/contracts/TransferManager.sol\":2383:2756  if (transferManager == address(0)) {... */\n      tag_54\n      jumpi\n        /* \"hardhat/contracts/TransferManager.sol\":2444:2454  collection */\n      dup2\n        /* \"hardhat/contracts/TransferManager.sol\":2436:2473  IERC165(collection).supportsInterface */\n      0xffffffffffffffffffffffffffffffffffffffff\n      and\n      0x01ffc9a7\n        /* \"hardhat/contracts/TransferManager.sol\":437:447  0x80ac58cd */\n      0x80ac58cd\n        /* \"hardhat/contracts/TransferManager.sol\":2474:2493  INTERFACE_ID_ERC721 */\n      0xe0\n      shl\n        /* \"hardhat/contracts/TransferManager.sol\":2436:2494  IERC165(collection).supportsInterface(INTERFACE_ID_ERC721) */\n      mload(0x40)\n      dup3\n      0xffffffff\n      and\n      0xe0\n      shl\n      dup2\n      mstore\n      0x04\n      add\n      tag_55\n      swap2\n      swap1\n      tag_28\n      jump\t// in\n    tag_55:\n      0x20\n      mload(0x40)\n      dup1\n      dup4\n      sub\n      dup2\n      dup7\n      gas\n      staticcall\n      iszero\n      dup1\n      iszero\n      tag_57\n      jumpi\n      returndatasize\n      0x00\n      dup1\n      returndatacopy\n      revert(0x00, returndatasize)\n    tag_57:\n      pop\n      pop\n      pop\n      pop\n      mload(0x40)\n      returndatasize\n      not(0x1f)\n      0x1f\n      dup3\n      add\n      and\n      dup3\n      add\n      dup1\n      0x40\n      mstore\n      pop\n      dup2\n      add\n      swap1\n      tag_58\n      swap2\n      swap1\n      tag_59\n      jump\t// in\n    tag_58:\n        /* \"hardhat/contracts/TransferManager.sol\":2432:2746  if (IERC165(collection).supportsInterface(INTERFACE_ID_ERC721)) {... */\n      iszero\n      tag_60\n      jumpi\n        /* \"hardhat/contracts/TransferManager.sol\":2532:2555  TRANSFER_MANAGER_ERC721 */\n      immutable(\"0x566674f71911cd3b7cbc2fd66353711d31aaa96f269440d186374a017f53f324\")\n        /* \"hardhat/contracts/TransferManager.sol\":2514:2555  transferManager = TRANSFER_MANAGER_ERC721 */\n      swap1\n      pop\n        /* \"hardhat/contracts/TransferManager.sol\":2432:2746  if (IERC165(collection).supportsInterface(INTERFACE_ID_ERC721)) {... */\n      jump(tag_61)\n    tag_60:\n        /* \"hardhat/contracts/TransferManager.sol\":2605:2615  collection */\n      dup2\n        /* \"hardhat/contracts/TransferManager.sol\":2597:2634  IERC165(collection).supportsInterface */\n      0xffffffffffffffffffffffffffffffffffffffff\n      and\n      0x01ffc9a7\n        /* \"hardhat/contracts/TransferManager.sol\":526:536  0xd9b67a26 */\n      0xd9b67a26\n        /* \"hardhat/contracts/TransferManager.sol\":2635:2655  INTERFACE_ID_ERC1155 */\n      0xe0\n      shl\n        /* \"hardhat/contracts/TransferManager.sol\":2597:2656  IERC165(collection).supportsInterface(INTERFACE_ID_ERC1155) */\n      mload(0x40)\n      dup3\n      0xffffffff\n      and\n      0xe0\n      shl\n      dup2\n      mstore\n      0x04\n      add\n      tag_62\n      swap2\n      swap1\n      tag_28\n      jump\t// in\n    tag_62:\n      0x20\n      mload(0x40)\n      dup1\n      dup4\n      sub\n      dup2\n      dup7\n      gas\n      staticcall\n      iszero\n      dup1\n      iszero\n      tag_64\n      jumpi\n      returndatasize\n      0x00\n      dup1\n      returndatacopy\n      revert(0x00, returndatasize)\n    tag_64:\n      pop\n      pop\n      pop\n      pop\n      mload(0x40)\n      returndatasize\n      not(0x1f)\n      0x1f\n      dup3\n      add\n      and\n      dup3\n      add\n      dup1\n      0x40\n      mstore\n      pop\n      dup2\n      add\n      swap1\n      tag_65\n      swap2\n      swap1\n      tag_59\n      jump\t// in\n    tag_65:\n        /* \"hardhat/contracts/TransferManager.sol\":2576:2746  if (... */\n      iszero\n      tag_66\n      jumpi\n        /* \"hardhat/contracts/TransferManager.sol\":2707:2731  TRANSFER_MANAGER_ERC1155 */\n      immutable(\"0xbf08d8a2d7c7780024ba6e6dbe12d3d5a5a747ea3071fca63d8a2ede50d3472a\")\n        /* \"hardhat/contracts/TransferManager.sol\":2689:2731  transferManager = TRANSFER_MANAGER_ERC1155 */\n      swap1\n      pop\n        /* \"hardhat/contracts/TransferManager.sol\":2576:2746  if (... */\n    tag_66:\n        /* \"hardhat/contracts/TransferManager.sol\":2432:2746  if (IERC165(collection).supportsInterface(INTERFACE_ID_ERC721)) {... */\n    tag_61:\n        /* \"hardhat/contracts/TransferManager.sol\":2383:2756  if (transferManager == address(0)) {... */\n    tag_54:\n        /* \"hardhat/contracts/TransferManager.sol\":2181:2795  function transferManagerAddress(... */\n      swap2\n      swap1\n      pop\n      jump\t// out\n        /* \"hardhat/contracts/TransferManager.sol\":1184:1609  function addTransferManagerCollection(... */\n    tag_24:\n        /* \"@openzeppelin/contracts/access/Ownable.sol\":1094:1107  _checkOwner() */\n      tag_68\n        /* \"@openzeppelin/contracts/access/Ownable.sol\":1094:1105  _checkOwner */\n      tag_69\n        /* \"@openzeppelin/contracts/access/Ownable.sol\":1094:1107  _checkOwner() */\n      jump\t// in\n    tag_68:\n        /* \"hardhat/contracts/TransferManager.sol\":1348:1349  0 */\n      0x00\n        /* \"hardhat/contracts/TransferManager.sol\":1326:1350  collection != address(0) */\n      0xffffffffffffffffffffffffffffffffffffffff\n      and\n        /* \"hardhat/contracts/TransferManager.sol\":1326:1336  collection */\n      dup3\n        /* \"hardhat/contracts/TransferManager.sol\":1326:1350  collection != address(0) */\n      0xffffffffffffffffffffffffffffffffffffffff\n      and\n      sub\n        /* \"hardhat/contracts/TransferManager.sol\":1318:1378  require(collection != address(0), \"Collection null address\") */\n      tag_71\n      jumpi\n      mload(0x40)\n      0x08c379a000000000000000000000000000000000000000000000000000000000\n      dup2\n      mstore\n      0x04\n      add\n      tag_72\n      swap1\n      tag_73\n      jump\t// in\n    tag_72:\n      mload(0x40)\n      dup1\n      swap2\n      sub\n      swap1\n      revert\n    tag_71:\n        /* \"hardhat/contracts/TransferManager.sol\":1423:1424  0 */\n      0x00\n        /* \"hardhat/contracts/TransferManager.sol\":1396:1425  transferManager != address(0) */\n      0xffffffffffffffffffffffffffffffffffffffff\n      and\n        /* \"hardhat/contracts/TransferManager.sol\":1396:1411  transferManager */\n      dup2\n        /* \"hardhat/contracts/TransferManager.sol\":1396:1425  transferManager != address(0) */\n      0xffffffffffffffffffffffffffffffffffffffff\n      and\n      sub\n        /* \"hardhat/contracts/TransferManager.sol\":1388:1458  require(transferManager != address(0), \"TransferManager null address\") */\n      tag_74\n      jumpi\n      mload(0x40)\n      0x08c379a000000000000000000000000000000000000000000000000000000000\n      dup2\n      mstore\n      0x04\n      add\n      tag_75\n      swap1\n      tag_76\n      jump\t// in\n    tag_75:\n      mload(0x40)\n      dup1\n      swap2\n      sub\n      swap1\n      revert\n    tag_74:\n        /* \"hardhat/contracts/TransferManager.sol\":1512:1527  transferManager */\n      dup1\n        /* \"hardhat/contracts/TransferManager.sol\":1469:1497  transferManagerForCollection */\n      0x01\n        /* \"hardhat/contracts/TransferManager.sol\":1469:1509  transferManagerForCollection[collection] */\n      0x00\n        /* \"hardhat/contracts/TransferManager.sol\":1498:1508  collection */\n      dup5\n        /* \"hardhat/contracts/TransferManager.sol\":1469:1509  transferManagerForCollection[collection] */\n      0xffffffffffffffffffffffffffffffffffffffff\n      and\n      0xffffffffffffffffffffffffffffffffffffffff\n      and\n      dup2\n      mstore\n      0x20\n      add\n      swap1\n      dup2\n      mstore\n      0x20\n      add\n      0x00\n      keccak256\n      0x00\n        /* \"hardhat/contracts/TransferManager.sol\":1469:1527  transferManagerForCollection[collection] = transferManager */\n      0x0100\n      exp\n      dup2\n      sload\n      dup2\n      0xffffffffffffffffffffffffffffffffffffffff\n      mul\n      not\n      and\n      swap1\n      dup4\n      0xffffffffffffffffffffffffffffffffffffffff\n      and\n      mul\n      or\n      swap1\n      sstore\n      pop\n        /* \"hardhat/contracts/TransferManager.sol\":1586:1601  transferManager */\n      dup1\n        /* \"hardhat/contracts/TransferManager.sol\":1543:1602  CollectionTransferManagerAdded(collection, transferManager) */\n      0xffffffffffffffffffffffffffffffffffffffff\n      and\n        /* \"hardhat/contracts/TransferManager.sol\":1574:1584  collection */\n      dup3\n        /* \"hardhat/contracts/TransferManager.sol\":1543:1602  CollectionTransferManagerAdded(collection, transferManager) */\n      0xffffffffffffffffffffffffffffffffffffffff\n      and\n      0xda166be6ba0ebb71be3f83e7d669765de552ea08978bfe3e3e42d54174111b62\n      mload(0x40)\n      mload(0x40)\n      dup1\n      swap2\n      sub\n      swap1\n      log3\n        /* \"hardhat/contracts/TransferManager.sol\":1184:1609  function addTransferManagerCollection(... */\n      pop\n      pop\n      jump\t// out\n        /* \"hardhat/contracts/TransferManager.sol\":480:536  bytes4 public constant INTERFACE_ID_ERC1155 = 0xd9b67a26 */\n    tag_26:\n        /* \"hardhat/contracts/TransferManager.sol\":526:536  0xd9b67a26 */\n      0xd9b67a26\n        /* \"hardhat/contracts/TransferManager.sol\":480:536  bytes4 public constant INTERFACE_ID_ERC1155 = 0xd9b67a26 */\n      0xe0\n      shl\n      dup2\n      jump\t// out\n        /* \"hardhat/contracts/TransferManager.sol\":597:646  address public immutable TRANSFER_MANAGER_ERC1155 */\n    tag_30:\n      immutable(\"0xbf08d8a2d7c7780024ba6e6dbe12d3d5a5a747ea3071fca63d8a2ede50d3472a\")\n      dup2\n      jump\t// out\n        /* \"@openzeppelin/contracts/access/Ownable.sol\":1831:1932  function renounceOwnership() public virtual onlyOwner {... */\n    tag_33:\n        /* \"@openzeppelin/contracts/access/Ownable.sol\":1094:1107  _checkOwner() */\n      tag_78\n        /* \"@openzeppelin/contracts/access/Ownable.sol\":1094:1105  _checkOwner */\n      tag_69\n        /* \"@openzeppelin/contracts/access/Ownable.sol\":1094:1107  _checkOwner() */\n      jump\t// in\n    tag_78:\n        /* \"@openzeppelin/contracts/access/Ownable.sol\":1895:1925  _transferOwnership(address(0)) */\n      tag_80\n        /* \"@openzeppelin/contracts/access/Ownable.sol\":1922:1923  0 */\n      0x00\n        /* \"@openzeppelin/contracts/access/Ownable.sol\":1895:1913  _transferOwnership */\n      tag_81\n        /* \"@openzeppelin/contracts/access/Ownable.sol\":1895:1925  _transferOwnership(address(0)) */\n      jump\t// in\n    tag_80:\n        /* \"@openzeppelin/contracts/access/Ownable.sol\":1831:1932  function renounceOwnership() public virtual onlyOwner {... */\n      jump\t// out\n        /* \"@openzeppelin/contracts/access/Ownable.sol\":1201:1286  function owner() public view virtual returns (address) {... */\n    tag_35:\n        /* \"@openzeppelin/contracts/access/Ownable.sol\":1247:1254  address */\n      0x00\n        /* \"@openzeppelin/contracts/access/Ownable.sol\":1273:1279  _owner */\n      dup1\n      0x00\n      swap1\n      sload\n      swap1\n      0x0100\n      exp\n      swap1\n      div\n      0xffffffffffffffffffffffffffffffffffffffff\n      and\n        /* \"@openzeppelin/contracts/access/Ownable.sol\":1266:1279  return _owner */\n      swap1\n      pop\n        /* \"@openzeppelin/contracts/access/Ownable.sol\":1201:1286  function owner() public view virtual returns (address) {... */\n      swap1\n      jump\t// out\n        /* \"hardhat/contracts/TransferManager.sol\":543:591  address public immutable TRANSFER_MANAGER_ERC721 */\n    tag_38:\n      immutable(\"0x566674f71911cd3b7cbc2fd66353711d31aaa96f269440d186374a017f53f324\")\n      dup2\n      jump\t// out\n        /* \"hardhat/contracts/TransferManager.sol\":392:447  bytes4 public constant INTERFACE_ID_ERC721 = 0x80ac58cd */\n    tag_41:\n        /* \"hardhat/contracts/TransferManager.sol\":437:447  0x80ac58cd */\n      0x80ac58cd\n        /* \"hardhat/contracts/TransferManager.sol\":392:447  bytes4 public constant INTERFACE_ID_ERC721 = 0x80ac58cd */\n      0xe0\n      shl\n      dup2\n      jump\t// out\n        /* \"hardhat/contracts/TransferManager.sol\":653:716  mapping(address => address) public transferManagerForCollection */\n    tag_45:\n      mstore(0x20, 0x01)\n      dup1\n      0x00\n      mstore\n      keccak256(0x00, 0x40)\n      0x00\n      swap2\n      pop\n      sload\n      swap1\n      0x0100\n      exp\n      swap1\n      div\n      0xffffffffffffffffffffffffffffffffffffffff\n      and\n      dup2\n      jump\t// out\n        /* \"hardhat/contracts/TransferManager.sol\":1711:2070  function removeTransferManagerCollection(... */\n    tag_49:\n        /* \"@openzeppelin/contracts/access/Ownable.sol\":1094:1107  _checkOwner() */\n      tag_84\n        /* \"@openzeppelin/contracts/access/Ownable.sol\":1094:1105  _checkOwner */\n      tag_69\n        /* \"@openzeppelin/contracts/access/Ownable.sol\":1094:1107  _checkOwner() */\n      jump\t// in\n    tag_84:\n        /* \"hardhat/contracts/TransferManager.sol\":1888:1889  0 */\n      0x00\n        /* \"hardhat/contracts/TransferManager.sol\":1836:1890  transferManagerForCollection[collection] != address(0) */\n      0xffffffffffffffffffffffffffffffffffffffff\n      and\n        /* \"hardhat/contracts/TransferManager.sol\":1836:1864  transferManagerForCollection */\n      0x01\n        /* \"hardhat/contracts/TransferManager.sol\":1836:1876  transferManagerForCollection[collection] */\n      0x00\n        /* \"hardhat/contracts/TransferManager.sol\":1865:1875  collection */\n      dup4\n        /* \"hardhat/contracts/TransferManager.sol\":1836:1876  transferManagerForCollection[collection] */\n      0xffffffffffffffffffffffffffffffffffffffff\n      and\n      0xffffffffffffffffffffffffffffffffffffffff\n      and\n      dup2\n      mstore\n      0x20\n      add\n      swap1\n      dup2\n      mstore\n      0x20\n      add\n      0x00\n      keccak256\n      0x00\n      swap1\n      sload\n      swap1\n      0x0100\n      exp\n      swap1\n      div\n      0xffffffffffffffffffffffffffffffffffffffff\n      and\n        /* \"hardhat/contracts/TransferManager.sol\":1836:1890  transferManagerForCollection[collection] != address(0) */\n      0xffffffffffffffffffffffffffffffffffffffff\n      and\n      sub\n        /* \"hardhat/contracts/TransferManager.sol\":1815:1939  require(... */\n      tag_86\n      jumpi\n      mload(0x40)\n      0x08c379a000000000000000000000000000000000000000000000000000000000\n      dup2\n      mstore\n      0x04\n      add\n      tag_87\n      swap1\n      tag_73\n      jump\t// in\n    tag_87:\n      mload(0x40)\n      dup1\n      swap2\n      sub\n      swap1\n      revert\n    tag_86:\n        /* \"hardhat/contracts/TransferManager.sol\":2001:2002  0 */\n      0x00\n        /* \"hardhat/contracts/TransferManager.sol\":1950:1978  transferManagerForCollection */\n      0x01\n        /* \"hardhat/contracts/TransferManager.sol\":1950:1990  transferManagerForCollection[collection] */\n      0x00\n        /* \"hardhat/contracts/TransferManager.sol\":1979:1989  collection */\n      dup4\n        /* \"hardhat/contracts/TransferManager.sol\":1950:1990  transferManagerForCollection[collection] */\n      0xffffffffffffffffffffffffffffffffffffffff\n      and\n      0xffffffffffffffffffffffffffffffffffffffff\n      and\n      dup2\n      mstore\n      0x20\n      add\n      swap1\n      dup2\n      mstore\n      0x20\n      add\n      0x00\n      keccak256\n      0x00\n        /* \"hardhat/contracts/TransferManager.sol\":1950:2003  transferManagerForCollection[collection] = address(0) */\n      0x0100\n      exp\n      dup2\n      sload\n      dup2\n      0xffffffffffffffffffffffffffffffffffffffff\n      mul\n      not\n      and\n      swap1\n      dup4\n      0xffffffffffffffffffffffffffffffffffffffff\n      and\n      mul\n      or\n      swap1\n      sstore\n      pop\n        /* \"hardhat/contracts/TransferManager.sol\":2052:2062  collection */\n      dup1\n        /* \"hardhat/contracts/TransferManager.sol\":2019:2063  CollectionTransferManagerRemoved(collection) */\n      0xffffffffffffffffffffffffffffffffffffffff\n      and\n      0x8c3bf4babc197f3db0e7ec65aaf23fc0efb0e689436aeea8514c3f01fd97841f\n      mload(0x40)\n      mload(0x40)\n      dup1\n      swap2\n      sub\n      swap1\n      log2\n        /* \"hardhat/contracts/TransferManager.sol\":1711:2070  function removeTransferManagerCollection(... */\n      pop\n      jump\t// out\n        /* \"@openzeppelin/contracts/access/Ownable.sol\":2081:2279  function transferOwnership(address newOwner) public virtual onlyOwner {... */\n    tag_52:\n        /* \"@openzeppelin/contracts/access/Ownable.sol\":1094:1107  _checkOwner() */\n      tag_89\n        /* \"@openzeppelin/contracts/access/Ownable.sol\":1094:1105  _checkOwner */\n      tag_69\n        /* \"@openzeppelin/contracts/access/Ownable.sol\":1094:1107  _checkOwner() */\n      jump\t// in\n    tag_89:\n        /* \"@openzeppelin/contracts/access/Ownable.sol\":2189:2190  0 */\n      0x00\n        /* \"@openzeppelin/contracts/access/Ownable.sol\":2169:2191  newOwner != address(0) */\n      0xffffffffffffffffffffffffffffffffffffffff\n      and\n        /* \"@openzeppelin/contracts/access/Ownable.sol\":2169:2177  newOwner */\n      dup2\n        /* \"@openzeppelin/contracts/access/Ownable.sol\":2169:2191  newOwner != address(0) */\n      0xffffffffffffffffffffffffffffffffffffffff\n      and\n      sub\n        /* \"@openzeppelin/contracts/access/Ownable.sol\":2161:2234  require(newOwner != address(0), \"Ownable: new owner is the zero address\") */\n      tag_91\n      jumpi\n      mload(0x40)\n      0x08c379a000000000000000000000000000000000000000000000000000000000\n      dup2\n      mstore\n      0x04\n      add\n      tag_92\n      swap1\n      tag_93\n      jump\t// in\n    tag_92:\n      mload(0x40)\n      dup1\n      swap2\n      sub\n      swap1\n      revert\n    tag_91:\n        /* \"@openzeppelin/contracts/access/Ownable.sol\":2244:2272  _transferOwnership(newOwner) */\n      tag_94\n        /* \"@openzeppelin/contracts/access/Ownable.sol\":2263:2271  newOwner */\n      dup2\n        /* \"@openzeppelin/contracts/access/Ownable.sol\":2244:2262  _transferOwnership */\n      tag_81\n        /* \"@openzeppelin/contracts/access/Ownable.sol\":2244:2272  _transferOwnership(newOwner) */\n      jump\t// in\n    tag_94:\n        /* \"@openzeppelin/contracts/access/Ownable.sol\":2081:2279  function transferOwnership(address newOwner) public virtual onlyOwner {... */\n      pop\n      jump\t// out\n        /* \"@openzeppelin/contracts/access/Ownable.sol\":1359:1489  function _checkOwner() internal view virtual {... */\n    tag_69:\n        /* \"@openzeppelin/contracts/access/Ownable.sol\":1433:1445  _msgSender() */\n      tag_96\n        /* \"@openzeppelin/contracts/access/Ownable.sol\":1433:1443  _msgSender */\n      tag_97\n        /* \"@openzeppelin/contracts/access/Ownable.sol\":1433:1445  _msgSender() */\n      jump\t// in\n    tag_96:\n        /* \"@openzeppelin/contracts/access/Ownable.sol\":1422:1445  owner() == _msgSender() */\n      0xffffffffffffffffffffffffffffffffffffffff\n      and\n        /* \"@openzeppelin/contracts/access/Ownable.sol\":1422:1429  owner() */\n      tag_98\n        /* \"@openzeppelin/contracts/access/Ownable.sol\":1422:1427  owner */\n      tag_35\n        /* \"@openzeppelin/contracts/access/Ownable.sol\":1422:1429  owner() */\n      jump\t// in\n    tag_98:\n        /* \"@openzeppelin/contracts/access/Ownable.sol\":1422:1445  owner() == _msgSender() */\n      0xffffffffffffffffffffffffffffffffffffffff\n      and\n      eq\n        /* \"@openzeppelin/contracts/access/Ownable.sol\":1414:1482  require(owner() == _msgSender(), \"Ownable: caller is not the owner\") */\n      tag_99\n      jumpi\n      mload(0x40)\n      0x08c379a000000000000000000000000000000000000000000000000000000000\n      dup2\n      mstore\n      0x04\n      add\n      tag_100\n      swap1\n      tag_101\n      jump\t// in\n    tag_100:\n      mload(0x40)\n      dup1\n      swap2\n      sub\n      swap1\n      revert\n    tag_99:\n        /* \"@openzeppelin/contracts/access/Ownable.sol\":1359:1489  function _checkOwner() internal view virtual {... */\n      jump\t// out\n        /* \"@openzeppelin/contracts/access/Ownable.sol\":2433:2620  function _transferOwnership(address newOwner) internal virtual {... */\n    tag_81:\n        /* \"@openzeppelin/contracts/access/Ownable.sol\":2506:2522  address oldOwner */\n      0x00\n        /* \"@openzeppelin/contracts/access/Ownable.sol\":2525:2531  _owner */\n      dup1\n      0x00\n      swap1\n      sload\n      swap1\n      0x0100\n      exp\n      swap1\n      div\n      0xffffffffffffffffffffffffffffffffffffffff\n      and\n        /* \"@openzeppelin/contracts/access/Ownable.sol\":2506:2531  address oldOwner = _owner */\n      swap1\n      pop\n        /* \"@openzeppelin/contracts/access/Ownable.sol\":2550:2558  newOwner */\n      dup2\n        /* \"@openzeppelin/contracts/access/Ownable.sol\":2541:2547  _owner */\n      0x00\n      dup1\n        /* \"@openzeppelin/contracts/access/Ownable.sol\":2541:2558  _owner = newOwner */\n      0x0100\n      exp\n      dup2\n      sload\n      dup2\n      0xffffffffffffffffffffffffffffffffffffffff\n      mul\n      not\n      and\n      swap1\n      dup4\n      0xffffffffffffffffffffffffffffffffffffffff\n      and\n      mul\n      or\n      swap1\n      sstore\n      pop\n        /* \"@openzeppelin/contracts/access/Ownable.sol\":2604:2612  newOwner */\n      dup2\n        /* \"@openzeppelin/contracts/access/Ownable.sol\":2573:2613  OwnershipTransferred(oldOwner, newOwner) */\n      0xffffffffffffffffffffffffffffffffffffffff\n      and\n        /* \"@openzeppelin/contracts/access/Ownable.sol\":2594:2602  oldOwner */\n      dup2\n        /* \"@openzeppelin/contracts/access/Ownable.sol\":2573:2613  OwnershipTransferred(oldOwner, newOwner) */\n      0xffffffffffffffffffffffffffffffffffffffff\n      and\n      0x8be0079c531659141344cd1fd0a4f28419497f9722a3daafe3b4186f6b6457e0\n      mload(0x40)\n      mload(0x40)\n      dup1\n      swap2\n      sub\n      swap1\n      log3\n        /* \"@openzeppelin/contracts/access/Ownable.sol\":2496:2620  {... */\n      pop\n        /* \"@openzeppelin/contracts/access/Ownable.sol\":2433:2620  function _transferOwnership(address newOwner) internal virtual {... */\n      pop\n      jump\t// out\n        /* \"@openzeppelin/contracts/utils/Context.sol\":640:736  function _msgSender() internal view virtual returns (address) {... */\n    tag_97:\n        /* \"@openzeppelin/contracts/utils/Context.sol\":693:700  address */\n      0x00\n        /* \"@openzeppelin/contracts/utils/Context.sol\":719:729  msg.sender */\n      caller\n        /* \"@openzeppelin/contracts/utils/Context.sol\":712:729  return msg.sender */\n      swap1\n      pop\n        /* \"@openzeppelin/contracts/utils/Context.sol\":640:736  function _msgSender() internal view virtual returns (address) {... */\n      swap1\n      jump\t// out\n        /* \"#utility.yul\":88:205   */\n    tag_105:\n        /* \"#utility.yul\":197:198   */\n      0x00\n        /* \"#utility.yul\":194:195   */\n      dup1\n        /* \"#utility.yul\":187:199   */\n      revert\n        /* \"#utility.yul\":334:460   */\n    tag_107:\n        /* \"#utility.yul\":371:378   */\n      0x00\n        /* \"#utility.yul\":411:453   */\n      0xffffffffffffffffffffffffffffffffffffffff\n        /* \"#utility.yul\":404:409   */\n      dup3\n        /* \"#utility.yul\":400:454   */\n      and\n        /* \"#utility.yul\":389:454   */\n      swap1\n      pop\n        /* \"#utility.yul\":334:460   */\n      swap2\n      swap1\n      pop\n      jump\t// out\n        /* \"#utility.yul\":466:562   */\n    tag_108:\n        /* \"#utility.yul\":503:510   */\n      0x00\n        /* \"#utility.yul\":532:556   */\n      tag_132\n        /* \"#utility.yul\":550:555   */\n      dup3\n        /* \"#utility.yul\":532:556   */\n      tag_107\n      jump\t// in\n    tag_132:\n        /* \"#utility.yul\":521:556   */\n      swap1\n      pop\n        /* \"#utility.yul\":466:562   */\n      swap2\n      swap1\n      pop\n      jump\t// out\n        /* \"#utility.yul\":568:690   */\n    tag_109:\n        /* \"#utility.yul\":641:665   */\n      tag_134\n        /* \"#utility.yul\":659:664   */\n      dup2\n        /* \"#utility.yul\":641:665   */\n      tag_108\n      jump\t// in\n    tag_134:\n        /* \"#utility.yul\":634:639   */\n      dup2\n        /* \"#utility.yul\":631:666   */\n      eq\n        /* \"#utility.yul\":621:684   */\n      tag_135\n      jumpi\n        /* \"#utility.yul\":680:681   */\n      0x00\n        /* \"#utility.yul\":677:678   */\n      dup1\n        /* \"#utility.yul\":670:682   */\n      revert\n        /* \"#utility.yul\":621:684   */\n    tag_135:\n        /* \"#utility.yul\":568:690   */\n      pop\n      jump\t// out\n        /* \"#utility.yul\":696:835   */\n    tag_110:\n        /* \"#utility.yul\":742:747   */\n      0x00\n        /* \"#utility.yul\":780:786   */\n      dup2\n        /* \"#utility.yul\":767:787   */\n      calldataload\n        /* \"#utility.yul\":758:787   */\n      swap1\n      pop\n        /* \"#utility.yul\":796:829   */\n      tag_137\n        /* \"#utility.yul\":823:828   */\n      dup2\n        /* \"#utility.yul\":796:829   */\n      tag_109\n      jump\t// in\n    tag_137:\n        /* \"#utility.yul\":696:835   */\n      swap3\n      swap2\n      pop\n      pop\n      jump\t// out\n        /* \"#utility.yul\":841:1170   */\n    tag_17:\n        /* \"#utility.yul\":900:906   */\n      0x00\n        /* \"#utility.yul\":949:951   */\n      0x20\n        /* \"#utility.yul\":937:946   */\n      dup3\n        /* \"#utility.yul\":928:935   */\n      dup5\n        /* \"#utility.yul\":924:947   */\n      sub\n        /* \"#utility.yul\":920:952   */\n      slt\n        /* \"#utility.yul\":917:1036   */\n      iszero\n      tag_139\n      jumpi\n        /* \"#utility.yul\":955:1034   */\n      tag_140\n      tag_105\n      jump\t// in\n    tag_140:\n        /* \"#utility.yul\":917:1036   */\n    tag_139:\n        /* \"#utility.yul\":1075:1076   */\n      0x00\n        /* \"#utility.yul\":1100:1153   */\n      tag_141\n        /* \"#utility.yul\":1145:1152   */\n      dup5\n        /* \"#utility.yul\":1136:1142   */\n      dup3\n        /* \"#utility.yul\":1125:1134   */\n      dup6\n        /* \"#utility.yul\":1121:1143   */\n      add\n        /* \"#utility.yul\":1100:1153   */\n      tag_110\n      jump\t// in\n    tag_141:\n        /* \"#utility.yul\":1090:1153   */\n      swap2\n      pop\n        /* \"#utility.yul\":1046:1163   */\n      pop\n        /* \"#utility.yul\":841:1170   */\n      swap3\n      swap2\n      pop\n      pop\n      jump\t// out\n        /* \"#utility.yul\":1176:1294   */\n    tag_111:\n        /* \"#utility.yul\":1263:1287   */\n      tag_143\n        /* \"#utility.yul\":1281:1286   */\n      dup2\n        /* \"#utility.yul\":1263:1287   */\n      tag_108\n      jump\t// in\n    tag_143:\n        /* \"#utility.yul\":1258:1261   */\n      dup3\n        /* \"#utility.yul\":1251:1288   */\n      mstore\n        /* \"#utility.yul\":1176:1294   */\n      pop\n      pop\n      jump\t// out\n        /* \"#utility.yul\":1300:1522   */\n    tag_20:\n        /* \"#utility.yul\":1393:1397   */\n      0x00\n        /* \"#utility.yul\":1431:1433   */\n      0x20\n        /* \"#utility.yul\":1420:1429   */\n      dup3\n        /* \"#utility.yul\":1416:1434   */\n      add\n        /* \"#utility.yul\":1408:1434   */\n      swap1\n      pop\n        /* \"#utility.yul\":1444:1515   */\n      tag_145\n        /* \"#utility.yul\":1512:1513   */\n      0x00\n        /* \"#utility.yul\":1501:1510   */\n      dup4\n        /* \"#utility.yul\":1497:1514   */\n      add\n        /* \"#utility.yul\":1488:1494   */\n      dup5\n        /* \"#utility.yul\":1444:1515   */\n      tag_111\n      jump\t// in\n    tag_145:\n        /* \"#utility.yul\":1300:1522   */\n      swap3\n      swap2\n      pop\n      pop\n      jump\t// out\n        /* \"#utility.yul\":1528:2002   */\n    tag_23:\n        /* \"#utility.yul\":1596:1602   */\n      0x00\n        /* \"#utility.yul\":1604:1610   */\n      dup1\n        /* \"#utility.yul\":1653:1655   */\n      0x40\n        /* \"#utility.yul\":1641:1650   */\n      dup4\n        /* \"#utility.yul\":1632:1639   */\n      dup6\n        /* \"#utility.yul\":1628:1651   */\n      sub\n        /* \"#utility.yul\":1624:1656   */\n      slt\n        /* \"#utility.yul\":1621:1740   */\n      iszero\n      tag_147\n      jumpi\n        /* \"#utility.yul\":1659:1738   */\n      tag_148\n      tag_105\n      jump\t// in\n    tag_148:\n        /* \"#utility.yul\":1621:1740   */\n    tag_147:\n        /* \"#utility.yul\":1779:1780   */\n      0x00\n        /* \"#utility.yul\":1804:1857   */\n      tag_149\n        /* \"#utility.yul\":1849:1856   */\n      dup6\n        /* \"#utility.yul\":1840:1846   */\n      dup3\n        /* \"#utility.yul\":1829:1838   */\n      dup7\n        /* \"#utility.yul\":1825:1847   */\n      add\n        /* \"#utility.yul\":1804:1857   */\n      tag_110\n      jump\t// in\n    tag_149:\n        /* \"#utility.yul\":1794:1857   */\n      swap3\n      pop\n        /* \"#utility.yul\":1750:1867   */\n      pop\n        /* \"#utility.yul\":1906:1908   */\n      0x20\n        /* \"#utility.yul\":1932:1985   */\n      tag_150\n        /* \"#utility.yul\":1977:1984   */\n      dup6\n        /* \"#utility.yul\":1968:1974   */\n      dup3\n        /* \"#utility.yul\":1957:1966   */\n      dup7\n        /* \"#utility.yul\":1953:1975   */\n      add\n        /* \"#utility.yul\":1932:1985   */\n      tag_110\n      jump\t// in\n    tag_150:\n        /* \"#utility.yul\":1922:1985   */\n      swap2\n      pop\n        /* \"#utility.yul\":1877:1995   */\n      pop\n        /* \"#utility.yul\":1528:2002   */\n      swap3\n      pop\n      swap3\n      swap1\n      pop\n      jump\t// out\n        /* \"#utility.yul\":2008:2157   */\n    tag_112:\n        /* \"#utility.yul\":2044:2051   */\n      0x00\n        /* \"#utility.yul\":2084:2150   */\n      0xffffffff00000000000000000000000000000000000000000000000000000000\n        /* \"#utility.yul\":2077:2082   */\n      dup3\n        /* \"#utility.yul\":2073:2151   */\n      and\n        /* \"#utility.yul\":2062:2151   */\n      swap1\n      pop\n        /* \"#utility.yul\":2008:2157   */\n      swap2\n      swap1\n      pop\n      jump\t// out\n        /* \"#utility.yul\":2163:2278   */\n    tag_113:\n        /* \"#utility.yul\":2248:2271   */\n      tag_153\n        /* \"#utility.yul\":2265:2270   */\n      dup2\n        /* \"#utility.yul\":2248:2271   */\n      tag_112\n      jump\t// in\n    tag_153:\n        /* \"#utility.yul\":2243:2246   */\n      dup3\n        /* \"#utility.yul\":2236:2272   */\n      mstore\n        /* \"#utility.yul\":2163:2278   */\n      pop\n      pop\n      jump\t// out\n        /* \"#utility.yul\":2284:2502   */\n    tag_28:\n        /* \"#utility.yul\":2375:2379   */\n      0x00\n        /* \"#utility.yul\":2413:2415   */\n      0x20\n        /* \"#utility.yul\":2402:2411   */\n      dup3\n        /* \"#utility.yul\":2398:2416   */\n      add\n        /* \"#utility.yul\":2390:2416   */\n      swap1\n      pop\n        /* \"#utility.yul\":2426:2495   */\n      tag_155\n        /* \"#utility.yul\":2492:2493   */\n      0x00\n        /* \"#utility.yul\":2481:2490   */\n      dup4\n        /* \"#utility.yul\":2477:2494   */\n      add\n        /* \"#utility.yul\":2468:2474   */\n      dup5\n        /* \"#utility.yul\":2426:2495   */\n      tag_113\n      jump\t// in\n    tag_155:\n        /* \"#utility.yul\":2284:2502   */\n      swap3\n      swap2\n      pop\n      pop\n      jump\t// out\n        /* \"#utility.yul\":2508:2598   */\n    tag_114:\n        /* \"#utility.yul\":2542:2549   */\n      0x00\n        /* \"#utility.yul\":2585:2590   */\n      dup2\n        /* \"#utility.yul\":2578:2591   */\n      iszero\n        /* \"#utility.yul\":2571:2592   */\n      iszero\n        /* \"#utility.yul\":2560:2592   */\n      swap1\n      pop\n        /* \"#utility.yul\":2508:2598   */\n      swap2\n      swap1\n      pop\n      jump\t// out\n        /* \"#utility.yul\":2604:2720   */\n    tag_115:\n        /* \"#utility.yul\":2674:2695   */\n      tag_158\n        /* \"#utility.yul\":2689:2694   */\n      dup2\n        /* \"#utility.yul\":2674:2695   */\n      tag_114\n      jump\t// in\n    tag_158:\n        /* \"#utility.yul\":2667:2672   */\n      dup2\n        /* \"#utility.yul\":2664:2696   */\n      eq\n        /* \"#utility.yul\":2654:2714   */\n      tag_159\n      jumpi\n        /* \"#utility.yul\":2710:2711   */\n      0x00\n        /* \"#utility.yul\":2707:2708   */\n      dup1\n        /* \"#utility.yul\":2700:2712   */\n      revert\n        /* \"#utility.yul\":2654:2714   */\n    tag_159:\n        /* \"#utility.yul\":2604:2720   */\n      pop\n      jump\t// out\n        /* \"#utility.yul\":2726:2863   */\n    tag_116:\n        /* \"#utility.yul\":2780:2785   */\n      0x00\n        /* \"#utility.yul\":2811:2817   */\n      dup2\n        /* \"#utility.yul\":2805:2818   */\n      mload\n        /* \"#utility.yul\":2796:2818   */\n      swap1\n      pop\n        /* \"#utility.yul\":2827:2857   */\n      tag_161\n        /* \"#utility.yul\":2851:2856   */\n      dup2\n        /* \"#utility.yul\":2827:2857   */\n      tag_115\n      jump\t// in\n    tag_161:\n        /* \"#utility.yul\":2726:2863   */\n      swap3\n      swap2\n      pop\n      pop\n      jump\t// out\n        /* \"#utility.yul\":2869:3214   */\n    tag_59:\n        /* \"#utility.yul\":2936:2942   */\n      0x00\n        /* \"#utility.yul\":2985:2987   */\n      0x20\n        /* \"#utility.yul\":2973:2982   */\n      dup3\n        /* \"#utility.yul\":2964:2971   */\n      dup5\n        /* \"#utility.yul\":2960:2983   */\n      sub\n        /* \"#utility.yul\":2956:2988   */\n      slt\n        /* \"#utility.yul\":2953:3072   */\n      iszero\n      tag_163\n      jumpi\n        /* \"#utility.yul\":2991:3070   */\n      tag_164\n      tag_105\n      jump\t// in\n    tag_164:\n        /* \"#utility.yul\":2953:3072   */\n    tag_163:\n        /* \"#utility.yul\":3111:3112   */\n      0x00\n        /* \"#utility.yul\":3136:3197   */\n      tag_165\n        /* \"#utility.yul\":3189:3196   */\n      dup5\n        /* \"#utility.yul\":3180:3186   */\n      dup3\n        /* \"#utility.yul\":3169:3178   */\n      dup6\n        /* \"#utility.yul\":3165:3187   */\n      add\n        /* \"#utility.yul\":3136:3197   */\n      tag_116\n      jump\t// in\n    tag_165:\n        /* \"#utility.yul\":3126:3197   */\n      swap2\n      pop\n        /* \"#utility.yul\":3082:3207   */\n      pop\n        /* \"#utility.yul\":2869:3214   */\n      swap3\n      swap2\n      pop\n      pop\n      jump\t// out\n        /* \"#utility.yul\":3220:3389   */\n    tag_117:\n        /* \"#utility.yul\":3304:3315   */\n      0x00\n        /* \"#utility.yul\":3338:3344   */\n      dup3\n        /* \"#utility.yul\":3333:3336   */\n      dup3\n        /* \"#utility.yul\":3326:3345   */\n      mstore\n        /* \"#utility.yul\":3378:3382   */\n      0x20\n        /* \"#utility.yul\":3373:3376   */\n      dup3\n        /* \"#utility.yul\":3369:3383   */\n      add\n        /* \"#utility.yul\":3354:3383   */\n      swap1\n      pop\n        /* \"#utility.yul\":3220:3389   */\n      swap3\n      swap2\n      pop\n      pop\n      jump\t// out\n        /* \"#utility.yul\":3395:3568   */\n    tag_118:\n        /* \"#utility.yul\":3535:3560   */\n      0x436f6c6c656374696f6e206e756c6c2061646472657373000000000000000000\n        /* \"#utility.yul\":3531:3532   */\n      0x00\n        /* \"#utility.yul\":3523:3529   */\n      dup3\n        /* \"#utility.yul\":3519:3533   */\n      add\n        /* \"#utility.yul\":3512:3561   */\n      mstore\n        /* \"#utility.yul\":3395:3568   */\n      pop\n      jump\t// out\n        /* \"#utility.yul\":3574:3940   */\n    tag_119:\n        /* \"#utility.yul\":3716:3719   */\n      0x00\n        /* \"#utility.yul\":3737:3804   */\n      tag_169\n        /* \"#utility.yul\":3801:3803   */\n      0x17\n        /* \"#utility.yul\":3796:3799   */\n      dup4\n        /* \"#utility.yul\":3737:3804   */\n      tag_117\n      jump\t// in\n    tag_169:\n        /* \"#utility.yul\":3730:3804   */\n      swap2\n      pop\n        /* \"#utility.yul\":3813:3906   */\n      tag_170\n        /* \"#utility.yul\":3902:3905   */\n      dup3\n        /* \"#utility.yul\":3813:3906   */\n      tag_118\n      jump\t// in\n    tag_170:\n        /* \"#utility.yul\":3931:3933   */\n      0x20\n        /* \"#utility.yul\":3926:3929   */\n      dup3\n        /* \"#utility.yul\":3922:3934   */\n      add\n        /* \"#utility.yul\":3915:3934   */\n      swap1\n      pop\n        /* \"#utility.yul\":3574:3940   */\n      swap2\n      swap1\n      pop\n      jump\t// out\n        /* \"#utility.yul\":3946:4365   */\n    tag_73:\n        /* \"#utility.yul\":4112:4116   */\n      0x00\n        /* \"#utility.yul\":4150:4152   */\n      0x20\n        /* \"#utility.yul\":4139:4148   */\n      dup3\n        /* \"#utility.yul\":4135:4153   */\n      add\n        /* \"#utility.yul\":4127:4153   */\n      swap1\n      pop\n        /* \"#utility.yul\":4199:4208   */\n      dup2\n        /* \"#utility.yul\":4193:4197   */\n      dup2\n        /* \"#utility.yul\":4189:4209   */\n      sub\n        /* \"#utility.yul\":4185:4186   */\n      0x00\n        /* \"#utility.yul\":4174:4183   */\n      dup4\n        /* \"#utility.yul\":4170:4187   */\n      add\n        /* \"#utility.yul\":4163:4210   */\n      mstore\n        /* \"#utility.yul\":4227:4358   */\n      tag_172\n        /* \"#utility.yul\":4353:4357   */\n      dup2\n        /* \"#utility.yul\":4227:4358   */\n      tag_119\n      jump\t// in\n    tag_172:\n        /* \"#utility.yul\":4219:4358   */\n      swap1\n      pop\n        /* \"#utility.yul\":3946:4365   */\n      swap2\n      swap1\n      pop\n      jump\t// out\n        /* \"#utility.yul\":4371:4549   */\n    tag_120:\n        /* \"#utility.yul\":4511:4541   */\n      0x5472616e736665724d616e61676572206e756c6c206164647265737300000000\n        /* \"#utility.yul\":4507:4508   */\n      0x00\n        /* \"#utility.yul\":4499:4505   */\n      dup3\n        /* \"#utility.yul\":4495:4509   */\n      add\n        /* \"#utility.yul\":4488:4542   */\n      mstore\n        /* \"#utility.yul\":4371:4549   */\n      pop\n      jump\t// out\n        /* \"#utility.yul\":4555:4921   */\n    tag_121:\n        /* \"#utility.yul\":4697:4700   */\n      0x00\n        /* \"#utility.yul\":4718:4785   */\n      tag_175\n        /* \"#utility.yul\":4782:4784   */\n      0x1c\n        /* \"#utility.yul\":4777:4780   */\n      dup4\n        /* \"#utility.yul\":4718:4785   */\n      tag_117\n      jump\t// in\n    tag_175:\n        /* \"#utility.yul\":4711:4785   */\n      swap2\n      pop\n        /* \"#utility.yul\":4794:4887   */\n      tag_176\n        /* \"#utility.yul\":4883:4886   */\n      dup3\n        /* \"#utility.yul\":4794:4887   */\n      tag_120\n      jump\t// in\n    tag_176:\n        /* \"#utility.yul\":4912:4914   */\n      0x20\n        /* \"#utility.yul\":4907:4910   */\n      dup3\n        /* \"#utility.yul\":4903:4915   */\n      add\n        /* \"#utility.yul\":4896:4915   */\n      swap1\n      pop\n        /* \"#utility.yul\":4555:4921   */\n      swap2\n      swap1\n      pop\n      jump\t// out\n        /* \"#utility.yul\":4927:5346   */\n    tag_76:\n        /* \"#utility.yul\":5093:5097   */\n      0x00\n        /* \"#utility.yul\":5131:5133   */\n      0x20\n        /* \"#utility.yul\":5120:5129   */\n      dup3\n        /* \"#utility.yul\":5116:5134   */\n      add\n        /* \"#utility.yul\":5108:5134   */\n      swap1\n      pop\n        /* \"#utility.yul\":5180:5189   */\n      dup2\n        /* \"#utility.yul\":5174:5178   */\n      dup2\n        /* \"#utility.yul\":5170:5190   */\n      sub\n        /* \"#utility.yul\":5166:5167   */\n      0x00\n        /* \"#utility.yul\":5155:5164   */\n      dup4\n        /* \"#utility.yul\":5151:5168   */\n      add\n        /* \"#utility.yul\":5144:5191   */\n      mstore\n        /* \"#utility.yul\":5208:5339   */\n      tag_178\n        /* \"#utility.yul\":5334:5338   */\n      dup2\n        /* \"#utility.yul\":5208:5339   */\n      tag_121\n      jump\t// in\n    tag_178:\n        /* \"#utility.yul\":5200:5339   */\n      swap1\n      pop\n        /* \"#utility.yul\":4927:5346   */\n      swap2\n      swap1\n      pop\n      jump\t// out\n        /* \"#utility.yul\":5352:5577   */\n    tag_122:\n        /* \"#utility.yul\":5492:5526   */\n      0x4f776e61626c653a206e6577206f776e657220697320746865207a65726f2061\n        /* \"#utility.yul\":5488:5489   */\n      0x00\n        /* \"#utility.yul\":5480:5486   */\n      dup3\n        /* \"#utility.yul\":5476:5490   */\n      add\n        /* \"#utility.yul\":5469:5527   */\n      mstore\n        /* \"#utility.yul\":5561:5569   */\n      0x6464726573730000000000000000000000000000000000000000000000000000\n        /* \"#utility.yul\":5556:5558   */\n      0x20\n        /* \"#utility.yul\":5548:5554   */\n      dup3\n        /* \"#utility.yul\":5544:5559   */\n      add\n        /* \"#utility.yul\":5537:5570   */\n      mstore\n        /* \"#utility.yul\":5352:5577   */\n      pop\n      jump\t// out\n        /* \"#utility.yul\":5583:5949   */\n    tag_123:\n        /* \"#utility.yul\":5725:5728   */\n      0x00\n        /* \"#utility.yul\":5746:5813   */\n      tag_181\n        /* \"#utility.yul\":5810:5812   */\n      0x26\n        /* \"#utility.yul\":5805:5808   */\n      dup4\n        /* \"#utility.yul\":5746:5813   */\n      tag_117\n      jump\t// in\n    tag_181:\n        /* \"#utility.yul\":5739:5813   */\n      swap2\n      pop\n        /* \"#utility.yul\":5822:5915   */\n      tag_182\n        /* \"#utility.yul\":5911:5914   */\n      dup3\n        /* \"#utility.yul\":5822:5915   */\n      tag_122\n      jump\t// in\n    tag_182:\n        /* \"#utility.yul\":5940:5942   */\n      0x40\n        /* \"#utility.yul\":5935:5938   */\n      dup3\n        /* \"#utility.yul\":5931:5943   */\n      add\n        /* \"#utility.yul\":5924:5943   */\n      swap1\n      pop\n        /* \"#utility.yul\":5583:5949   */\n      swap2\n      swap1\n      pop\n      jump\t// out\n        /* \"#utility.yul\":5955:6374   */\n    tag_93:\n        /* \"#utility.yul\":6121:6125   */\n      0x00\n        /* \"#utility.yul\":6159:6161   */\n      0x20\n        /* \"#utility.yul\":6148:6157   */\n      dup3\n        /* \"#utility.yul\":6144:6162   */\n      add\n        /* \"#utility.yul\":6136:6162   */\n      swap1\n      pop\n        /* \"#utility.yul\":6208:6217   */\n      dup2\n        /* \"#utility.yul\":6202:6206   */\n      dup2\n        /* \"#utility.yul\":6198:6218   */\n      sub\n        /* \"#utility.yul\":6194:6195   */\n      0x00\n        /* \"#utility.yul\":6183:6192   */\n      dup4\n        /* \"#utility.yul\":6179:6196   */\n      add\n        /* \"#utility.yul\":6172:6219   */\n      mstore\n        /* \"#utility.yul\":6236:6367   */\n      tag_184\n        /* \"#utility.yul\":6362:6366   */\n      dup2\n        /* \"#utility.yul\":6236:6367   */\n      tag_123\n      jump\t// in\n    tag_184:\n        /* \"#utility.yul\":6228:6367   */\n      swap1\n      pop\n        /* \"#utility.yul\":5955:6374   */\n      swap2\n      swap1\n      pop\n      jump\t// out\n        /* \"#utility.yul\":6380:6562   */\n    tag_124:\n        /* \"#utility.yul\":6520:6554   */\n      0x4f776e61626c653a2063616c6c6572206973206e6f7420746865206f776e6572\n        /* \"#utility.yul\":6516:6517   */\n      0x00\n        /* \"#utility.yul\":6508:6514   */\n      dup3\n        /* \"#utility.yul\":6504:6518   */\n      add\n        /* \"#utility.yul\":6497:6555   */\n      mstore\n        /* \"#utility.yul\":6380:6562   */\n      pop\n      jump\t// out\n        /* \"#utility.yul\":6568:6934   */\n    tag_125:\n        /* \"#utility.yul\":6710:6713   */\n      0x00\n        /* \"#utility.yul\":6731:6798   */\n      tag_187\n        /* \"#utility.yul\":6795:6797   */\n      0x20\n        /* \"#utility.yul\":6790:6793   */\n      dup4\n        /* \"#utility.yul\":6731:6798   */\n      tag_117\n      jump\t// in\n    tag_187:\n        /* \"#utility.yul\":6724:6798   */\n      swap2\n      pop\n        /* \"#utility.yul\":6807:6900   */\n      tag_188\n        /* \"#utility.yul\":6896:6899   */\n      dup3\n        /* \"#utility.yul\":6807:6900   */\n      tag_124\n      jump\t// in\n    tag_188:\n        /* \"#utility.yul\":6925:6927   */\n      0x20\n        /* \"#utility.yul\":6920:6923   */\n      dup3\n        /* \"#utility.yul\":6916:6928   */\n      add\n        /* \"#utility.yul\":6909:6928   */\n      swap1\n      pop\n        /* \"#utility.yul\":6568:6934   */\n      swap2\n      swap1\n      pop\n      jump\t// out\n        /* \"#utility.yul\":6940:7359   */\n    tag_101:\n        /* \"#utility.yul\":7106:7110   */\n      0x00\n        /* \"#utility.yul\":7144:7146   */\n      0x20\n        /* \"#utility.yul\":7133:7142   */\n      dup3\n        /* \"#utility.yul\":7129:7147   */\n      add\n        /* \"#utility.yul\":7121:7147   */\n      swap1\n      pop\n        /* \"#utility.yul\":7193:7202   */\n      dup2\n        /* \"#utility.yul\":7187:7191   */\n      dup2\n        /* \"#utility.yul\":7183:7203   */\n      sub\n        /* \"#utility.yul\":7179:7180   */\n      0x00\n        /* \"#utility.yul\":7168:7177   */\n      dup4\n        /* \"#utility.yul\":7164:7181   */\n      add\n        /* \"#utility.yul\":7157:7204   */\n      mstore\n        /* \"#utility.yul\":7221:7352   */\n      tag_190\n        /* \"#utility.yul\":7347:7351   */\n      dup2\n        /* \"#utility.yul\":7221:7352   */\n      tag_125\n      jump\t// in\n    tag_190:\n        /* \"#utility.yul\":7213:7352   */\n      swap1\n      pop\n        /* \"#utility.yul\":6940:7359   */\n      swap2\n      swap1\n      pop\n      jump\t// out\n\n    auxdata: 0xa26469706673582212206247e2d30ab9b440422ebe6104993bb062efcaf7b6877f40093b287b9be5d7ce64736f6c63430008130033\n}\n",
				"bytecode": {
					"linkReferences": {},
					"object": "60c06040523480156200001157600080fd5b506040516200103b3803806200103b8339818101604052810190620000379190620001fd565b620000576200004b620000c760201b60201c565b620000cf60201b60201c565b8173ffffffffffffffffffffffffffffffffffffffff1660808173ffffffffffffffffffffffffffffffffffffffff16815250508073ffffffffffffffffffffffffffffffffffffffff1660a08173ffffffffffffffffffffffffffffffffffffffff1681525050505062000244565b600033905090565b60008060009054906101000a900473ffffffffffffffffffffffffffffffffffffffff169050816000806101000a81548173ffffffffffffffffffffffffffffffffffffffff021916908373ffffffffffffffffffffffffffffffffffffffff1602179055508173ffffffffffffffffffffffffffffffffffffffff168173ffffffffffffffffffffffffffffffffffffffff167f8be0079c531659141344cd1fd0a4f28419497f9722a3daafe3b4186f6b6457e060405160405180910390a35050565b600080fd5b600073ffffffffffffffffffffffffffffffffffffffff82169050919050565b6000620001c58262000198565b9050919050565b620001d781620001b8565b8114620001e357600080fd5b50565b600081519050620001f781620001cc565b92915050565b6000806040838503121562000217576200021662000193565b5b60006200022785828601620001e6565b92505060206200023a85828601620001e6565b9150509250929050565b60805160a051610dc362000278600039600081816103d001526105c801526000818161032201526106290152610dc36000f3fe608060405234801561001057600080fd5b50600436106100a95760003560e01c80638da5cb5b116100715780638da5cb5b14610140578063b1357ddd1461015e578063bc6bc0cd1461017c578063d297772f1461019a578063e58c7c39146101ca578063f2fde38b146101e6576100a9565b806315f04966146100ae578063301b2507146100de57806333bf6156146100fa5780633892895614610118578063715018a614610136575b600080fd5b6100c860048036038101906100c39190610a54565b610202565b6040516100d59190610a90565b60405180910390f35b6100f860048036038101906100f39190610aab565b6103f9565b005b6101026105bb565b60405161010f9190610b26565b60405180910390f35b6101206105c6565b60405161012d9190610a90565b60405180910390f35b61013e6105ea565b005b6101486105fe565b6040516101559190610a90565b60405180910390f35b610166610627565b6040516101739190610a90565b60405180910390f35b61018461064b565b6040516101919190610b26565b60405180910390f35b6101b460048036038101906101af9190610a54565b610656565b6040516101c19190610a90565b60405180910390f35b6101e460048036038101906101df9190610a54565b610689565b005b61020060048036038101906101fb9190610a54565b610824565b005b6000600160008373ffffffffffffffffffffffffffffffffffffffff1673ffffffffffffffffffffffffffffffffffffffff16815260200190815260200160002060009054906101000a900473ffffffffffffffffffffffffffffffffffffffff169050600073ffffffffffffffffffffffffffffffffffffffff168173ffffffffffffffffffffffffffffffffffffffff16036103f4578173ffffffffffffffffffffffffffffffffffffffff166301ffc9a76380ac58cd60e01b6040518263ffffffff1660e01b81526004016102da9190610b26565b602060405180830381865afa1580156102f7573d6000803e3d6000fd5b505050506040513d601f19601f8201168201806040525081019061031b9190610b79565b15610348577f000000000000000000000000000000000000000000000000000000000000000090506103f3565b8173ffffffffffffffffffffffffffffffffffffffff166301ffc9a763d9b67a2660e01b6040518263ffffffff1660e01b81526004016103889190610b26565b602060405180830381865afa1580156103a5573d6000803e3d6000fd5b505050506040513d601f19601f820116820180604052508101906103c99190610b79565b156103f2577f000000000000000000000000000000000000000000000000000000000000000090505b5b5b919050565b6104016108a7565b600073ffffffffffffffffffffffffffffffffffffffff168273ffffffffffffffffffffffffffffffffffffffff1603610470576040517f08c379a000000000000000000000000000000000000000000000000000000000815260040161046790610c03565b60405180910390fd5b600073ffffffffffffffffffffffffffffffffffffffff168173ffffffffffffffffffffffffffffffffffffffff16036104df576040517f08c379a00000000000000000000000000000000000000000000000000000000081526004016104d690610c6f565b60405180910390fd5b80600160008473ffffffffffffffffffffffffffffffffffffffff1673ffffffffffffffffffffffffffffffffffffffff16815260200190815260200160002060006101000a81548173ffffffffffffffffffffffffffffffffffffffff021916908373ffffffffffffffffffffffffffffffffffffffff1602179055508073ffffffffffffffffffffffffffffffffffffffff168273ffffffffffffffffffffffffffffffffffffffff167fda166be6ba0ebb71be3f83e7d669765de552ea08978bfe3e3e42d54174111b6260405160405180910390a35050565b63d9b67a2660e01b81565b7f000000000000000000000000000000000000000000000000000000000000000081565b6105f26108a7565b6105fc6000610925565b565b60008060009054906101000a900473ffffffffffffffffffffffffffffffffffffffff16905090565b7f000000000000000000000000000000000000000000000000000000000000000081565b6380ac58cd60e01b81565b60016020528060005260406000206000915054906101000a900473ffffffffffffffffffffffffffffffffffffffff1681565b6106916108a7565b600073ffffffffffffffffffffffffffffffffffffffff16600160008373ffffffffffffffffffffffffffffffffffffffff1673ffffffffffffffffffffffffffffffffffffffff16815260200190815260200160002060009054906101000a900473ffffffffffffffffffffffffffffffffffffffff1673ffffffffffffffffffffffffffffffffffffffff160361075f576040517f08c379a000000000000000000000000000000000000000000000000000000000815260040161075690610c03565b60405180910390fd5b6000600160008373ffffffffffffffffffffffffffffffffffffffff1673ffffffffffffffffffffffffffffffffffffffff16815260200190815260200160002060006101000a81548173ffffffffffffffffffffffffffffffffffffffff021916908373ffffffffffffffffffffffffffffffffffffffff1602179055508073ffffffffffffffffffffffffffffffffffffffff167f8c3bf4babc197f3db0e7ec65aaf23fc0efb0e689436aeea8514c3f01fd97841f60405160405180910390a250565b61082c6108a7565b600073ffffffffffffffffffffffffffffffffffffffff168173ffffffffffffffffffffffffffffffffffffffff160361089b576040517f08c379a000000000000000000000000000000000000000000000000000000000815260040161089290610d01565b60405180910390fd5b6108a481610925565b50565b6108af6109e9565b73ffffffffffffffffffffffffffffffffffffffff166108cd6105fe565b73ffffffffffffffffffffffffffffffffffffffff1614610923576040517f08c379a000000000000000000000000000000000000000000000000000000000815260040161091a90610d6d565b60405180910390fd5b565b60008060009054906101000a900473ffffffffffffffffffffffffffffffffffffffff169050816000806101000a81548173ffffffffffffffffffffffffffffffffffffffff021916908373ffffffffffffffffffffffffffffffffffffffff1602179055508173ffffffffffffffffffffffffffffffffffffffff168173ffffffffffffffffffffffffffffffffffffffff167f8be0079c531659141344cd1fd0a4f28419497f9722a3daafe3b4186f6b6457e060405160405180910390a35050565b600033905090565b600080fd5b600073ffffffffffffffffffffffffffffffffffffffff82169050919050565b6000610a21826109f6565b9050919050565b610a3181610a16565b8114610a3c57600080fd5b50565b600081359050610a4e81610a28565b92915050565b600060208284031215610a6a57610a696109f1565b5b6000610a7884828501610a3f565b91505092915050565b610a8a81610a16565b82525050565b6000602082019050610aa56000830184610a81565b92915050565b60008060408385031215610ac257610ac16109f1565b5b6000610ad085828601610a3f565b9250506020610ae185828601610a3f565b9150509250929050565b60007fffffffff0000000000000000000000000000000000000000000000000000000082169050919050565b610b2081610aeb565b82525050565b6000602082019050610b3b6000830184610b17565b92915050565b60008115159050919050565b610b5681610b41565b8114610b6157600080fd5b50565b600081519050610b7381610b4d565b92915050565b600060208284031215610b8f57610b8e6109f1565b5b6000610b9d84828501610b64565b91505092915050565b600082825260208201905092915050565b7f436f6c6c656374696f6e206e756c6c2061646472657373000000000000000000600082015250565b6000610bed601783610ba6565b9150610bf882610bb7565b602082019050919050565b60006020820190508181036000830152610c1c81610be0565b9050919050565b7f5472616e736665724d616e61676572206e756c6c206164647265737300000000600082015250565b6000610c59601c83610ba6565b9150610c6482610c23565b602082019050919050565b60006020820190508181036000830152610c8881610c4c565b9050919050565b7f4f776e61626c653a206e6577206f776e657220697320746865207a65726f206160008201527f6464726573730000000000000000000000000000000000000000000000000000602082015250565b6000610ceb602683610ba6565b9150610cf682610c8f565b604082019050919050565b60006020820190508181036000830152610d1a81610cde565b9050919050565b7f4f776e61626c653a2063616c6c6572206973206e6f7420746865206f776e6572600082015250565b6000610d57602083610ba6565b9150610d6282610d21565b602082019050919050565b60006020820190508181036000830152610d8681610d4a565b905091905056fea26469706673582212206247e2d30ab9b440422ebe6104993bb062efcaf7b6877f40093b287b9be5d7ce64736f6c63430008130033",
					"opcodes": "PUSH1 0xC0 PUSH1 0x40 MSTORE CALLVALUE DUP1 ISZERO PUSH3 0x11 JUMPI PUSH1 0x0 DUP1 REVERT JUMPDEST POP PUSH1 0x40 MLOAD PUSH3 0x103B CODESIZE SUB DUP1 PUSH3 0x103B DUP4 CODECOPY DUP2 DUP2 ADD PUSH1 0x40 MSTORE DUP2 ADD SWAP1 PUSH3 0x37 SWAP2 SWAP1 PUSH3 0x1FD JUMP JUMPDEST PUSH3 0x57 PUSH3 0x4B PUSH3 0xC7 PUSH1 0x20 SHL PUSH1 0x20 SHR JUMP JUMPDEST PUSH3 0xCF PUSH1 0x20 SHL PUSH1 0x20 SHR JUMP JUMPDEST DUP2 PUSH20 0xFFFFFFFFFFFFFFFFFFFFFFFFFFFFFFFFFFFFFFFF AND PUSH1 0x80 DUP2 PUSH20 0xFFFFFFFFFFFFFFFFFFFFFFFFFFFFFFFFFFFFFFFF AND DUP2 MSTORE POP POP DUP1 PUSH20 0xFFFFFFFFFFFFFFFFFFFFFFFFFFFFFFFFFFFFFFFF AND PUSH1 0xA0 DUP2 PUSH20 0xFFFFFFFFFFFFFFFFFFFFFFFFFFFFFFFFFFFFFFFF AND DUP2 MSTORE POP POP POP POP PUSH3 0x244 JUMP JUMPDEST PUSH1 0x0 CALLER SWAP1 POP SWAP1 JUMP JUMPDEST PUSH1 0x0 DUP1 PUSH1 0x0 SWAP1 SLOAD SWAP1 PUSH2 0x100 EXP SWAP1 DIV PUSH20 0xFFFFFFFFFFFFFFFFFFFFFFFFFFFFFFFFFFFFFFFF AND SWAP1 POP DUP2 PUSH1 0x0 DUP1 PUSH2 0x100 EXP DUP2 SLOAD DUP2 PUSH20 0xFFFFFFFFFFFFFFFFFFFFFFFFFFFFFFFFFFFFFFFF MUL NOT AND SWAP1 DUP4 PUSH20 0xFFFFFFFFFFFFFFFFFFFFFFFFFFFFFFFFFFFFFFFF AND MUL OR SWAP1 SSTORE POP DUP2 PUSH20 0xFFFFFFFFFFFFFFFFFFFFFFFFFFFFFFFFFFFFFFFF AND DUP2 PUSH20 0xFFFFFFFFFFFFFFFFFFFFFFFFFFFFFFFFFFFFFFFF AND PUSH32 0x8BE0079C531659141344CD1FD0A4F28419497F9722A3DAAFE3B4186F6B6457E0 PUSH1 0x40 MLOAD PUSH1 0x40 MLOAD DUP1 SWAP2 SUB SWAP1 LOG3 POP POP JUMP JUMPDEST PUSH1 0x0 DUP1 REVERT JUMPDEST PUSH1 0x0 PUSH20 0xFFFFFFFFFFFFFFFFFFFFFFFFFFFFFFFFFFFFFFFF DUP3 AND SWAP1 POP SWAP2 SWAP1 POP JUMP JUMPDEST PUSH1 0x0 PUSH3 0x1C5 DUP3 PUSH3 0x198 JUMP JUMPDEST SWAP1 POP SWAP2 SWAP1 POP JUMP JUMPDEST PUSH3 0x1D7 DUP2 PUSH3 0x1B8 JUMP JUMPDEST DUP2 EQ PUSH3 0x1E3 JUMPI PUSH1 0x0 DUP1 REVERT JUMPDEST POP JUMP JUMPDEST PUSH1 0x0 DUP2 MLOAD SWAP1 POP PUSH3 0x1F7 DUP2 PUSH3 0x1CC JUMP JUMPDEST SWAP3 SWAP2 POP POP JUMP JUMPDEST PUSH1 0x0 DUP1 PUSH1 0x40 DUP4 DUP6 SUB SLT ISZERO PUSH3 0x217 JUMPI PUSH3 0x216 PUSH3 0x193 JUMP JUMPDEST JUMPDEST PUSH1 0x0 PUSH3 0x227 DUP6 DUP3 DUP7 ADD PUSH3 0x1E6 JUMP JUMPDEST SWAP3 POP POP PUSH1 0x20 PUSH3 0x23A DUP6 DUP3 DUP7 ADD PUSH3 0x1E6 JUMP JUMPDEST SWAP2 POP POP SWAP3 POP SWAP3 SWAP1 POP JUMP JUMPDEST PUSH1 0x80 MLOAD PUSH1 0xA0 MLOAD PUSH2 0xDC3 PUSH3 0x278 PUSH1 0x0 CODECOPY PUSH1 0x0 DUP2 DUP2 PUSH2 0x3D0 ADD MSTORE PUSH2 0x5C8 ADD MSTORE PUSH1 0x0 DUP2 DUP2 PUSH2 0x322 ADD MSTORE PUSH2 0x629 ADD MSTORE PUSH2 0xDC3 PUSH1 0x0 RETURN INVALID PUSH1 0x80 PUSH1 0x40 MSTORE CALLVALUE DUP1 ISZERO PUSH2 0x10 JUMPI PUSH1 0x0 DUP1 REVERT JUMPDEST POP PUSH1 0x4 CALLDATASIZE LT PUSH2 0xA9 JUMPI PUSH1 0x0 CALLDATALOAD PUSH1 0xE0 SHR DUP1 PUSH4 0x8DA5CB5B GT PUSH2 0x71 JUMPI DUP1 PUSH4 0x8DA5CB5B EQ PUSH2 0x140 JUMPI DUP1 PUSH4 0xB1357DDD EQ PUSH2 0x15E JUMPI DUP1 PUSH4 0xBC6BC0CD EQ PUSH2 0x17C JUMPI DUP1 PUSH4 0xD297772F EQ PUSH2 0x19A JUMPI DUP1 PUSH4 0xE58C7C39 EQ PUSH2 0x1CA JUMPI DUP1 PUSH4 0xF2FDE38B EQ PUSH2 0x1E6 JUMPI PUSH2 0xA9 JUMP JUMPDEST DUP1 PUSH4 0x15F04966 EQ PUSH2 0xAE JUMPI DUP1 PUSH4 0x301B2507 EQ PUSH2 0xDE JUMPI DUP1 PUSH4 0x33BF6156 EQ PUSH2 0xFA JUMPI DUP1 PUSH4 0x38928956 EQ PUSH2 0x118 JUMPI DUP1 PUSH4 0x715018A6 EQ PUSH2 0x136 JUMPI JUMPDEST PUSH1 0x0 DUP1 REVERT JUMPDEST PUSH2 0xC8 PUSH1 0x4 DUP1 CALLDATASIZE SUB DUP2 ADD SWAP1 PUSH2 0xC3 SWAP2 SWAP1 PUSH2 0xA54 JUMP JUMPDEST PUSH2 0x202 JUMP JUMPDEST PUSH1 0x40 MLOAD PUSH2 0xD5 SWAP2 SWAP1 PUSH2 0xA90 JUMP JUMPDEST PUSH1 0x40 MLOAD DUP1 SWAP2 SUB SWAP1 RETURN JUMPDEST PUSH2 0xF8 PUSH1 0x4 DUP1 CALLDATASIZE SUB DUP2 ADD SWAP1 PUSH2 0xF3 SWAP2 SWAP1 PUSH2 0xAAB JUMP JUMPDEST PUSH2 0x3F9 JUMP JUMPDEST STOP JUMPDEST PUSH2 0x102 PUSH2 0x5BB JUMP JUMPDEST PUSH1 0x40 MLOAD PUSH2 0x10F SWAP2 SWAP1 PUSH2 0xB26 JUMP JUMPDEST PUSH1 0x40 MLOAD DUP1 SWAP2 SUB SWAP1 RETURN JUMPDEST PUSH2 0x120 PUSH2 0x5C6 JUMP JUMPDEST PUSH1 0x40 MLOAD PUSH2 0x12D SWAP2 SWAP1 PUSH2 0xA90 JUMP JUMPDEST PUSH1 0x40 MLOAD DUP1 SWAP2 SUB SWAP1 RETURN JUMPDEST PUSH2 0x13E PUSH2 0x5EA JUMP JUMPDEST STOP JUMPDEST PUSH2 0x148 PUSH2 0x5FE JUMP JUMPDEST PUSH1 0x40 MLOAD PUSH2 0x155 SWAP2 SWAP1 PUSH2 0xA90 JUMP JUMPDEST PUSH1 0x40 MLOAD DUP1 SWAP2 SUB SWAP1 RETURN JUMPDEST PUSH2 0x166 PUSH2 0x627 JUMP JUMPDEST PUSH1 0x40 MLOAD PUSH2 0x173 SWAP2 SWAP1 PUSH2 0xA90 JUMP JUMPDEST PUSH1 0x40 MLOAD DUP1 SWAP2 SUB SWAP1 RETURN JUMPDEST PUSH2 0x184 PUSH2 0x64B JUMP JUMPDEST PUSH1 0x40 MLOAD PUSH2 0x191 SWAP2 SWAP1 PUSH2 0xB26 JUMP JUMPDEST PUSH1 0x40 MLOAD DUP1 SWAP2 SUB SWAP1 RETURN JUMPDEST PUSH2 0x1B4 PUSH1 0x4 DUP1 CALLDATASIZE SUB DUP2 ADD SWAP1 PUSH2 0x1AF SWAP2 SWAP1 PUSH2 0xA54 JUMP JUMPDEST PUSH2 0x656 JUMP JUMPDEST PUSH1 0x40 MLOAD PUSH2 0x1C1 SWAP2 SWAP1 PUSH2 0xA90 JUMP JUMPDEST PUSH1 0x40 MLOAD DUP1 SWAP2 SUB SWAP1 RETURN JUMPDEST PUSH2 0x1E4 PUSH1 0x4 DUP1 CALLDATASIZE SUB DUP2 ADD SWAP1 PUSH2 0x1DF SWAP2 SWAP1 PUSH2 0xA54 JUMP JUMPDEST PUSH2 0x689 JUMP JUMPDEST STOP JUMPDEST PUSH2 0x200 PUSH1 0x4 DUP1 CALLDATASIZE SUB DUP2 ADD SWAP1 PUSH2 0x1FB SWAP2 SWAP1 PUSH2 0xA54 JUMP JUMPDEST PUSH2 0x824 JUMP JUMPDEST STOP JUMPDEST PUSH1 0x0 PUSH1 0x1 PUSH1 0x0 DUP4 PUSH20 0xFFFFFFFFFFFFFFFFFFFFFFFFFFFFFFFFFFFFFFFF AND PUSH20 0xFFFFFFFFFFFFFFFFFFFFFFFFFFFFFFFFFFFFFFFF AND DUP2 MSTORE PUSH1 0x20 ADD SWAP1 DUP2 MSTORE PUSH1 0x20 ADD PUSH1 0x0 KECCAK256 PUSH1 0x0 SWAP1 SLOAD SWAP1 PUSH2 0x100 EXP SWAP1 DIV PUSH20 0xFFFFFFFFFFFFFFFFFFFFFFFFFFFFFFFFFFFFFFFF AND SWAP1 POP PUSH1 0x0 PUSH20 0xFFFFFFFFFFFFFFFFFFFFFFFFFFFFFFFFFFFFFFFF AND DUP2 PUSH20 0xFFFFFFFFFFFFFFFFFFFFFFFFFFFFFFFFFFFFFFFF AND SUB PUSH2 0x3F4 JUMPI DUP2 PUSH20 0xFFFFFFFFFFFFFFFFFFFFFFFFFFFFFFFFFFFFFFFF AND PUSH4 0x1FFC9A7 PUSH4 0x80AC58CD PUSH1 0xE0 SHL PUSH1 0x40 MLOAD DUP3 PUSH4 0xFFFFFFFF AND PUSH1 0xE0 SHL DUP2 MSTORE PUSH1 0x4 ADD PUSH2 0x2DA SWAP2 SWAP1 PUSH2 0xB26 JUMP JUMPDEST PUSH1 0x20 PUSH1 0x40 MLOAD DUP1 DUP4 SUB DUP2 DUP7 GAS STATICCALL ISZERO DUP1 ISZERO PUSH2 0x2F7 JUMPI RETURNDATASIZE PUSH1 0x0 DUP1 RETURNDATACOPY RETURNDATASIZE PUSH1 0x0 REVERT JUMPDEST POP POP POP POP PUSH1 0x40 MLOAD RETURNDATASIZE PUSH1 0x1F NOT PUSH1 0x1F DUP3 ADD AND DUP3 ADD DUP1 PUSH1 0x40 MSTORE POP DUP2 ADD SWAP1 PUSH2 0x31B SWAP2 SWAP1 PUSH2 0xB79 JUMP JUMPDEST ISZERO PUSH2 0x348 JUMPI PUSH32 0x0 SWAP1 POP PUSH2 0x3F3 JUMP JUMPDEST DUP2 PUSH20 0xFFFFFFFFFFFFFFFFFFFFFFFFFFFFFFFFFFFFFFFF AND PUSH4 0x1FFC9A7 PUSH4 0xD9B67A26 PUSH1 0xE0 SHL PUSH1 0x40 MLOAD DUP3 PUSH4 0xFFFFFFFF AND PUSH1 0xE0 SHL DUP2 MSTORE PUSH1 0x4 ADD PUSH2 0x388 SWAP2 SWAP1 PUSH2 0xB26 JUMP JUMPDEST PUSH1 0x20 PUSH1 0x40 MLOAD DUP1 DUP4 SUB DUP2 DUP7 GAS STATICCALL ISZERO DUP1 ISZERO PUSH2 0x3A5 JUMPI RETURNDATASIZE PUSH1 0x0 DUP1 RETURNDATACOPY RETURNDATASIZE PUSH1 0x0 REVERT JUMPDEST POP POP POP POP PUSH1 0x40 MLOAD RETURNDATASIZE PUSH1 0x1F NOT PUSH1 0x1F DUP3 ADD AND DUP3 ADD DUP1 PUSH1 0x40 MSTORE POP DUP2 ADD SWAP1 PUSH2 0x3C9 SWAP2 SWAP1 PUSH2 0xB79 JUMP JUMPDEST ISZERO PUSH2 0x3F2 JUMPI PUSH32 0x0 SWAP1 POP JUMPDEST JUMPDEST JUMPDEST SWAP2 SWAP1 POP JUMP JUMPDEST PUSH2 0x401 PUSH2 0x8A7 JUMP JUMPDEST PUSH1 0x0 PUSH20 0xFFFFFFFFFFFFFFFFFFFFFFFFFFFFFFFFFFFFFFFF AND DUP3 PUSH20 0xFFFFFFFFFFFFFFFFFFFFFFFFFFFFFFFFFFFFFFFF AND SUB PUSH2 0x470 JUMPI PUSH1 0x40 MLOAD PUSH32 0x8C379A000000000000000000000000000000000000000000000000000000000 DUP2 MSTORE PUSH1 0x4 ADD PUSH2 0x467 SWAP1 PUSH2 0xC03 JUMP JUMPDEST PUSH1 0x40 MLOAD DUP1 SWAP2 SUB SWAP1 REVERT JUMPDEST PUSH1 0x0 PUSH20 0xFFFFFFFFFFFFFFFFFFFFFFFFFFFFFFFFFFFFFFFF AND DUP2 PUSH20 0xFFFFFFFFFFFFFFFFFFFFFFFFFFFFFFFFFFFFFFFF AND SUB PUSH2 0x4DF JUMPI PUSH1 0x40 MLOAD PUSH32 0x8C379A000000000000000000000000000000000000000000000000000000000 DUP2 MSTORE PUSH1 0x4 ADD PUSH2 0x4D6 SWAP1 PUSH2 0xC6F JUMP JUMPDEST PUSH1 0x40 MLOAD DUP1 SWAP2 SUB SWAP1 REVERT JUMPDEST DUP1 PUSH1 0x1 PUSH1 0x0 DUP5 PUSH20 0xFFFFFFFFFFFFFFFFFFFFFFFFFFFFFFFFFFFFFFFF AND PUSH20 0xFFFFFFFFFFFFFFFFFFFFFFFFFFFFFFFFFFFFFFFF AND DUP2 MSTORE PUSH1 0x20 ADD SWAP1 DUP2 MSTORE PUSH1 0x20 ADD PUSH1 0x0 KECCAK256 PUSH1 0x0 PUSH2 0x100 EXP DUP2 SLOAD DUP2 PUSH20 0xFFFFFFFFFFFFFFFFFFFFFFFFFFFFFFFFFFFFFFFF MUL NOT AND SWAP1 DUP4 PUSH20 0xFFFFFFFFFFFFFFFFFFFFFFFFFFFFFFFFFFFFFFFF AND MUL OR SWAP1 SSTORE POP DUP1 PUSH20 0xFFFFFFFFFFFFFFFFFFFFFFFFFFFFFFFFFFFFFFFF AND DUP3 PUSH20 0xFFFFFFFFFFFFFFFFFFFFFFFFFFFFFFFFFFFFFFFF AND PUSH32 0xDA166BE6BA0EBB71BE3F83E7D669765DE552EA08978BFE3E3E42D54174111B62 PUSH1 0x40 MLOAD PUSH1 0x40 MLOAD DUP1 SWAP2 SUB SWAP1 LOG3 POP POP JUMP JUMPDEST PUSH4 0xD9B67A26 PUSH1 0xE0 SHL DUP2 JUMP JUMPDEST PUSH32 0x0 DUP2 JUMP JUMPDEST PUSH2 0x5F2 PUSH2 0x8A7 JUMP JUMPDEST PUSH2 0x5FC PUSH1 0x0 PUSH2 0x925 JUMP JUMPDEST JUMP JUMPDEST PUSH1 0x0 DUP1 PUSH1 0x0 SWAP1 SLOAD SWAP1 PUSH2 0x100 EXP SWAP1 DIV PUSH20 0xFFFFFFFFFFFFFFFFFFFFFFFFFFFFFFFFFFFFFFFF AND SWAP1 POP SWAP1 JUMP JUMPDEST PUSH32 0x0 DUP2 JUMP JUMPDEST PUSH4 0x80AC58CD PUSH1 0xE0 SHL DUP2 JUMP JUMPDEST PUSH1 0x1 PUSH1 0x20 MSTORE DUP1 PUSH1 0x0 MSTORE PUSH1 0x40 PUSH1 0x0 KECCAK256 PUSH1 0x0 SWAP2 POP SLOAD SWAP1 PUSH2 0x100 EXP SWAP1 DIV PUSH20 0xFFFFFFFFFFFFFFFFFFFFFFFFFFFFFFFFFFFFFFFF AND DUP2 JUMP JUMPDEST PUSH2 0x691 PUSH2 0x8A7 JUMP JUMPDEST PUSH1 0x0 PUSH20 0xFFFFFFFFFFFFFFFFFFFFFFFFFFFFFFFFFFFFFFFF AND PUSH1 0x1 PUSH1 0x0 DUP4 PUSH20 0xFFFFFFFFFFFFFFFFFFFFFFFFFFFFFFFFFFFFFFFF AND PUSH20 0xFFFFFFFFFFFFFFFFFFFFFFFFFFFFFFFFFFFFFFFF AND DUP2 MSTORE PUSH1 0x20 ADD SWAP1 DUP2 MSTORE PUSH1 0x20 ADD PUSH1 0x0 KECCAK256 PUSH1 0x0 SWAP1 SLOAD SWAP1 PUSH2 0x100 EXP SWAP1 DIV PUSH20 0xFFFFFFFFFFFFFFFFFFFFFFFFFFFFFFFFFFFFFFFF AND PUSH20 0xFFFFFFFFFFFFFFFFFFFFFFFFFFFFFFFFFFFFFFFF AND SUB PUSH2 0x75F JUMPI PUSH1 0x40 MLOAD PUSH32 0x8C379A000000000000000000000000000000000000000000000000000000000 DUP2 MSTORE PUSH1 0x4 ADD PUSH2 0x756 SWAP1 PUSH2 0xC03 JUMP JUMPDEST PUSH1 0x40 MLOAD DUP1 SWAP2 SUB SWAP1 REVERT JUMPDEST PUSH1 0x0 PUSH1 0x1 PUSH1 0x0 DUP4 PUSH20 0xFFFFFFFFFFFFFFFFFFFFFFFFFFFFFFFFFFFFFFFF AND PUSH20 0xFFFFFFFFFFFFFFFFFFFFFFFFFFFFFFFFFFFFFFFF AND DUP2 MSTORE PUSH1 0x20 ADD SWAP1 DUP2 MSTORE PUSH1 0x20 ADD PUSH1 0x0 KECCAK256 PUSH1 0x0 PUSH2 0x100 EXP DUP2 SLOAD DUP2 PUSH20 0xFFFFFFFFFFFFFFFFFFFFFFFFFFFFFFFFFFFFFFFF MUL NOT AND SWAP1 DUP4 PUSH20 0xFFFFFFFFFFFFFFFFFFFFFFFFFFFFFFFFFFFFFFFF AND MUL OR SWAP1 SSTORE POP DUP1 PUSH20 0xFFFFFFFFFFFFFFFFFFFFFFFFFFFFFFFFFFFFFFFF AND PUSH32 0x8C3BF4BABC197F3DB0E7EC65AAF23FC0EFB0E689436AEEA8514C3F01FD97841F PUSH1 0x40 MLOAD PUSH1 0x40 MLOAD DUP1 SWAP2 SUB SWAP1 LOG2 POP JUMP JUMPDEST PUSH2 0x82C PUSH2 0x8A7 JUMP JUMPDEST PUSH1 0x0 PUSH20 0xFFFFFFFFFFFFFFFFFFFFFFFFFFFFFFFFFFFFFFFF AND DUP2 PUSH20 0xFFFFFFFFFFFFFFFFFFFFFFFFFFFFFFFFFFFFFFFF AND SUB PUSH2 0x89B JUMPI PUSH1 0x40 MLOAD PUSH32 0x8C379A000000000000000000000000000000000000000000000000000000000 DUP2 MSTORE PUSH1 0x4 ADD PUSH2 0x892 SWAP1 PUSH2 0xD01 JUMP JUMPDEST PUSH1 0x40 MLOAD DUP1 SWAP2 SUB SWAP1 REVERT JUMPDEST PUSH2 0x8A4 DUP2 PUSH2 0x925 JUMP JUMPDEST POP JUMP JUMPDEST PUSH2 0x8AF PUSH2 0x9E9 JUMP JUMPDEST PUSH20 0xFFFFFFFFFFFFFFFFFFFFFFFFFFFFFFFFFFFFFFFF AND PUSH2 0x8CD PUSH2 0x5FE JUMP JUMPDEST PUSH20 0xFFFFFFFFFFFFFFFFFFFFFFFFFFFFFFFFFFFFFFFF AND EQ PUSH2 0x923 JUMPI PUSH1 0x40 MLOAD PUSH32 0x8C379A000000000000000000000000000000000000000000000000000000000 DUP2 MSTORE PUSH1 0x4 ADD PUSH2 0x91A SWAP1 PUSH2 0xD6D JUMP JUMPDEST PUSH1 0x40 MLOAD DUP1 SWAP2 SUB SWAP1 REVERT JUMPDEST JUMP JUMPDEST PUSH1 0x0 DUP1 PUSH1 0x0 SWAP1 SLOAD SWAP1 PUSH2 0x100 EXP SWAP1 DIV PUSH20 0xFFFFFFFFFFFFFFFFFFFFFFFFFFFFFFFFFFFFFFFF AND SWAP1 POP DUP2 PUSH1 0x0 DUP1 PUSH2 0x100 EXP DUP2 SLOAD DUP2 PUSH20 0xFFFFFFFFFFFFFFFFFFFFFFFFFFFFFFFFFFFFFFFF MUL NOT AND SWAP1 DUP4 PUSH20 0xFFFFFFFFFFFFFFFFFFFFFFFFFFFFFFFFFFFFFFFF AND MUL OR SWAP1 SSTORE POP DUP2 PUSH20 0xFFFFFFFFFFFFFFFFFFFFFFFFFFFFFFFFFFFFFFFF AND DUP2 PUSH20 0xFFFFFFFFFFFFFFFFFFFFFFFFFFFFFFFFFFFFFFFF AND PUSH32 0x8BE0079C531659141344CD1FD0A4F28419497F9722A3DAAFE3B4186F6B6457E0 PUSH1 0x40 MLOAD PUSH1 0x40 MLOAD DUP1 SWAP2 SUB SWAP1 LOG3 POP POP JUMP JUMPDEST PUSH1 0x0 CALLER SWAP1 POP SWAP1 JUMP JUMPDEST PUSH1 0x0 DUP1 REVERT JUMPDEST PUSH1 0x0 PUSH20 0xFFFFFFFFFFFFFFFFFFFFFFFFFFFFFFFFFFFFFFFF DUP3 AND SWAP1 POP SWAP2 SWAP1 POP JUMP JUMPDEST PUSH1 0x0 PUSH2 0xA21 DUP3 PUSH2 0x9F6 JUMP JUMPDEST SWAP1 POP SWAP2 SWAP1 POP JUMP JUMPDEST PUSH2 0xA31 DUP2 PUSH2 0xA16 JUMP JUMPDEST DUP2 EQ PUSH2 0xA3C JUMPI PUSH1 0x0 DUP1 REVERT JUMPDEST POP JUMP JUMPDEST PUSH1 0x0 DUP2 CALLDATALOAD SWAP1 POP PUSH2 0xA4E DUP2 PUSH2 0xA28 JUMP JUMPDEST SWAP3 SWAP2 POP POP JUMP JUMPDEST PUSH1 0x0 PUSH1 0x20 DUP3 DUP5 SUB SLT ISZERO PUSH2 0xA6A JUMPI PUSH2 0xA69 PUSH2 0x9F1 JUMP JUMPDEST JUMPDEST PUSH1 0x0 PUSH2 0xA78 DUP5 DUP3 DUP6 ADD PUSH2 0xA3F JUMP JUMPDEST SWAP2 POP POP SWAP3 SWAP2 POP POP JUMP JUMPDEST PUSH2 0xA8A DUP2 PUSH2 0xA16 JUMP JUMPDEST DUP3 MSTORE POP POP JUMP JUMPDEST PUSH1 0x0 PUSH1 0x20 DUP3 ADD SWAP1 POP PUSH2 0xAA5 PUSH1 0x0 DUP4 ADD DUP5 PUSH2 0xA81 JUMP JUMPDEST SWAP3 SWAP2 POP POP JUMP JUMPDEST PUSH1 0x0 DUP1 PUSH1 0x40 DUP4 DUP6 SUB SLT ISZERO PUSH2 0xAC2 JUMPI PUSH2 0xAC1 PUSH2 0x9F1 JUMP JUMPDEST JUMPDEST PUSH1 0x0 PUSH2 0xAD0 DUP6 DUP3 DUP7 ADD PUSH2 0xA3F JUMP JUMPDEST SWAP3 POP POP PUSH1 0x20 PUSH2 0xAE1 DUP6 DUP3 DUP7 ADD PUSH2 0xA3F JUMP JUMPDEST SWAP2 POP POP SWAP3 POP SWAP3 SWAP1 POP JUMP JUMPDEST PUSH1 0x0 PUSH32 0xFFFFFFFF00000000000000000000000000000000000000000000000000000000 DUP3 AND SWAP1 POP SWAP2 SWAP1 POP JUMP JUMPDEST PUSH2 0xB20 DUP2 PUSH2 0xAEB JUMP JUMPDEST DUP3 MSTORE POP POP JUMP JUMPDEST PUSH1 0x0 PUSH1 0x20 DUP3 ADD SWAP1 POP PUSH2 0xB3B PUSH1 0x0 DUP4 ADD DUP5 PUSH2 0xB17 JUMP JUMPDEST SWAP3 SWAP2 POP POP JUMP JUMPDEST PUSH1 0x0 DUP2 ISZERO ISZERO SWAP1 POP SWAP2 SWAP1 POP JUMP JUMPDEST PUSH2 0xB56 DUP2 PUSH2 0xB41 JUMP JUMPDEST DUP2 EQ PUSH2 0xB61 JUMPI PUSH1 0x0 DUP1 REVERT JUMPDEST POP JUMP JUMPDEST PUSH1 0x0 DUP2 MLOAD SWAP1 POP PUSH2 0xB73 DUP2 PUSH2 0xB4D JUMP JUMPDEST SWAP3 SWAP2 POP POP JUMP JUMPDEST PUSH1 0x0 PUSH1 0x20 DUP3 DUP5 SUB SLT ISZERO PUSH2 0xB8F JUMPI PUSH2 0xB8E PUSH2 0x9F1 JUMP JUMPDEST JUMPDEST PUSH1 0x0 PUSH2 0xB9D DUP5 DUP3 DUP6 ADD PUSH2 0xB64 JUMP JUMPDEST SWAP2 POP POP SWAP3 SWAP2 POP POP JUMP JUMPDEST PUSH1 0x0 DUP3 DUP3 MSTORE PUSH1 0x20 DUP3 ADD SWAP1 POP SWAP3 SWAP2 POP POP JUMP JUMPDEST PUSH32 0x436F6C6C656374696F6E206E756C6C2061646472657373000000000000000000 PUSH1 0x0 DUP3 ADD MSTORE POP JUMP JUMPDEST PUSH1 0x0 PUSH2 0xBED PUSH1 0x17 DUP4 PUSH2 0xBA6 JUMP JUMPDEST SWAP2 POP PUSH2 0xBF8 DUP3 PUSH2 0xBB7 JUMP JUMPDEST PUSH1 0x20 DUP3 ADD SWAP1 POP SWAP2 SWAP1 POP JUMP JUMPDEST PUSH1 0x0 PUSH1 0x20 DUP3 ADD SWAP1 POP DUP2 DUP2 SUB PUSH1 0x0 DUP4 ADD MSTORE PUSH2 0xC1C DUP2 PUSH2 0xBE0 JUMP JUMPDEST SWAP1 POP SWAP2 SWAP1 POP JUMP JUMPDEST PUSH32 0x5472616E736665724D616E61676572206E756C6C206164647265737300000000 PUSH1 0x0 DUP3 ADD MSTORE POP JUMP JUMPDEST PUSH1 0x0 PUSH2 0xC59 PUSH1 0x1C DUP4 PUSH2 0xBA6 JUMP JUMPDEST SWAP2 POP PUSH2 0xC64 DUP3 PUSH2 0xC23 JUMP JUMPDEST PUSH1 0x20 DUP3 ADD SWAP1 POP SWAP2 SWAP1 POP JUMP JUMPDEST PUSH1 0x0 PUSH1 0x20 DUP3 ADD SWAP1 POP DUP2 DUP2 SUB PUSH1 0x0 DUP4 ADD MSTORE PUSH2 0xC88 DUP2 PUSH2 0xC4C JUMP JUMPDEST SWAP1 POP SWAP2 SWAP1 POP JUMP JUMPDEST PUSH32 0x4F776E61626C653A206E6577206F776E657220697320746865207A65726F2061 PUSH1 0x0 DUP3 ADD MSTORE PUSH32 0x6464726573730000000000000000000000000000000000000000000000000000 PUSH1 0x20 DUP3 ADD MSTORE POP JUMP JUMPDEST PUSH1 0x0 PUSH2 0xCEB PUSH1 0x26 DUP4 PUSH2 0xBA6 JUMP JUMPDEST SWAP2 POP PUSH2 0xCF6 DUP3 PUSH2 0xC8F JUMP JUMPDEST PUSH1 0x40 DUP3 ADD SWAP1 POP SWAP2 SWAP1 POP JUMP JUMPDEST PUSH1 0x0 PUSH1 0x20 DUP3 ADD SWAP1 POP DUP2 DUP2 SUB PUSH1 0x0 DUP4 ADD MSTORE PUSH2 0xD1A DUP2 PUSH2 0xCDE JUMP JUMPDEST SWAP1 POP SWAP2 SWAP1 POP JUMP JUMPDEST PUSH32 0x4F776E61626C653A2063616C6C6572206973206E6F7420746865206F776E6572 PUSH1 0x0 DUP3 ADD MSTORE POP JUMP JUMPDEST PUSH1 0x0 PUSH2 0xD57 PUSH1 0x20 DUP4 PUSH2 0xBA6 JUMP JUMPDEST SWAP2 POP PUSH2 0xD62 DUP3 PUSH2 0xD21 JUMP JUMPDEST PUSH1 0x20 DUP3 ADD SWAP1 POP SWAP2 SWAP1 POP JUMP JUMPDEST PUSH1 0x0 PUSH1 0x20 DUP3 ADD SWAP1 POP DUP2 DUP2 SUB PUSH1 0x0 DUP4 ADD MSTORE PUSH2 0xD86 DUP2 PUSH2 0xD4A JUMP JUMPDEST SWAP1 POP SWAP2 SWAP1 POP JUMP INVALID LOG2 PUSH5 0x6970667358 0x22 SLT KECCAK256 PUSH3 0x47E2D3 EXP 0xB9 0xB4 BLOCKHASH TIMESTAMP 0x2E 0xBE PUSH2 0x499 EXTCODESIZE 0xB0 PUSH3 0xEFCAF7 0xB6 DUP8 PUSH32 0x40093B287B9BE5D7CE64736F6C63430008130033000000000000000000000000 "
				},
				"gasEstimates": {
					"creation": {
						"codeDepositCost": "704600",
						"executionCost": "infinite",
						"totalCost": "infinite"
					},
					"external": {
						"INTERFACE_ID_ERC1155()": "386",
						"INTERFACE_ID_ERC721()": "385",
						"TRANSFER_MANAGER_ERC1155()": "infinite",
						"TRANSFER_MANAGER_ERC721()": "infinite",
						"addTransferManagerCollection(address,address)": "infinite",
						"owner()": "2522",
						"removeTransferManagerCollection(address)": "30586",
						"renounceOwnership()": "30487",
						"transferManagerAddress(address)": "infinite",
						"transferManagerForCollection(address)": "infinite",
						"transferOwnership(address)": "30854"
					}
				},
				"methodIdentifiers": {
					"INTERFACE_ID_ERC1155()": "33bf6156",
					"INTERFACE_ID_ERC721()": "bc6bc0cd",
					"TRANSFER_MANAGER_ERC1155()": "38928956",
					"TRANSFER_MANAGER_ERC721()": "b1357ddd",
					"addTransferManagerCollection(address,address)": "301b2507",
					"owner()": "8da5cb5b",
					"removeTransferManagerCollection(address)": "e58c7c39",
					"renounceOwnership()": "715018a6",
					"transferManagerAddress(address)": "15f04966",
					"transferManagerForCollection(address)": "d297772f",
					"transferOwnership(address)": "f2fde38b"
				}
			},
			"storageLayout": {
				"storage": [
					{
						"astId": 7,
						"contract": "hardhat/contracts/TransferManager.sol:TransferManager",
						"label": "_owner",
						"offset": 0,
						"slot": "0",
						"type": "t_address"
					},
					{
						"astId": 172,
						"contract": "hardhat/contracts/TransferManager.sol:TransferManager",
						"label": "transferManagerForCollection",
						"offset": 0,
						"slot": "1",
						"type": "t_mapping(t_address,t_address)"
					}
				],
				"types": {
					"t_address": {
						"encoding": "inplace",
						"label": "address",
						"numberOfBytes": "20"
					},
					"t_mapping(t_address,t_address)": {
						"encoding": "mapping",
						"key": "t_address",
						"label": "mapping(address => address)",
						"numberOfBytes": "32",
						"value": "t_address"
					}
				}
			},
			"userdoc": {
				"kind": "user",
				"methods": {},
				"version": 1
			}
		}
	}
}