{
	"hardhat/contracts/RoyaltyManager.sol": {
		"RoyaltyManager": {
			"abi": [
				{
					"inputs": [
						{
							"internalType": "address",
							"name": "_royalty",
							"type": "address"
						}
					],
					"stateMutability": "nonpayable",
					"type": "constructor"
				},
				{
					"anonymous": false,
					"inputs": [
						{
							"indexed": true,
							"internalType": "address",
							"name": "previousOwner",
							"type": "address"
						},
						{
							"indexed": true,
							"internalType": "address",
							"name": "newOwner",
							"type": "address"
						}
					],
					"name": "OwnershipTransferred",
					"type": "event"
				},
				{
					"inputs": [],
					"name": "INTERFACE_ID_ERC2981",
					"outputs": [
						{
							"internalType": "bytes4",
							"name": "",
							"type": "bytes4"
						}
					],
					"stateMutability": "view",
					"type": "function"
				},
				{
					"inputs": [],
					"name": "owner",
					"outputs": [
						{
							"internalType": "address",
							"name": "",
							"type": "address"
						}
					],
					"stateMutability": "view",
					"type": "function"
				},
				{
					"inputs": [
						{
							"internalType": "address",
							"name": "collection",
							"type": "address"
						},
						{
							"internalType": "uint256",
							"name": "tokenId",
							"type": "uint256"
						},
						{
							"internalType": "uint256",
							"name": "amount",
							"type": "uint256"
						}
					],
					"name": "recipientWithroyaltyDeductionAmount",
					"outputs": [
						{
							"internalType": "address",
							"name": "",
							"type": "address"
						},
						{
							"internalType": "uint256",
							"name": "",
							"type": "uint256"
						}
					],
					"stateMutability": "view",
					"type": "function"
				},
				{
					"inputs": [],
					"name": "renounceOwnership",
					"outputs": [],
					"stateMutability": "nonpayable",
					"type": "function"
				},
				{
					"inputs": [],
					"name": "royalty",
					"outputs": [
						{
							"internalType": "contract IRoyalty",
							"name": "",
							"type": "address"
						}
					],
					"stateMutability": "view",
					"type": "function"
				},
				{
					"inputs": [
						{
							"internalType": "address",
							"name": "newOwner",
							"type": "address"
						}
					],
					"name": "transferOwnership",
					"outputs": [],
					"stateMutability": "nonpayable",
					"type": "function"
				}
			],
			"devdoc": {
				"kind": "dev",
				"methods": {
					"owner()": {
						"details": "Returns the address of the current owner."
					},
					"renounceOwnership()": {
						"details": "Leaves the contract without owner. It will not be possible to call `onlyOwner` functions anymore. Can only be called by the current owner. NOTE: Renouncing ownership will leave the contract without an owner, thereby removing any functionality that is only available to the owner."
					},
					"transferOwnership(address)": {
						"details": "Transfers ownership of the contract to a new account (`newOwner`). Can only be called by the current owner."
					}
				},
				"version": 1
			},
			"evm": {
				"assembly": "    /* \"hardhat/contracts/RoyaltyManager.sol\":357:1324  contract RoyaltyManager is IRoyaltyManager, Ownable {... */\n  mstore(0x40, 0xa0)\n    /* \"hardhat/contracts/RoyaltyManager.sol\":565:640  constructor(address _royalty) {... */\n  callvalue\n  dup1\n  iszero\n  tag_1\n  jumpi\n  0x00\n  dup1\n  revert\ntag_1:\n  pop\n  mload(0x40)\n  sub(codesize, bytecodeSize)\n  dup1\n  bytecodeSize\n  dup4\n  codecopy\n  dup2\n  dup2\n  add\n  0x40\n  mstore\n  dup2\n  add\n  swap1\n  tag_2\n  swap2\n  swap1\n  tag_3\n  jump\t// in\ntag_2:\n    /* \"@openzeppelin/contracts/access/Ownable.sol\":936:968  _transferOwnership(_msgSender()) */\n  tag_7\n    /* \"@openzeppelin/contracts/access/Ownable.sol\":955:967  _msgSender() */\n  tag_8\n    /* \"@openzeppelin/contracts/access/Ownable.sol\":955:965  _msgSender */\n  shl(0x20, tag_9)\n    /* \"@openzeppelin/contracts/access/Ownable.sol\":955:967  _msgSender() */\n  0x20\n  shr\n  jump\t// in\ntag_8:\n    /* \"@openzeppelin/contracts/access/Ownable.sol\":936:954  _transferOwnership */\n  shl(0x20, tag_10)\n    /* \"@openzeppelin/contracts/access/Ownable.sol\":936:968  _transferOwnership(_msgSender()) */\n  0x20\n  shr\n  jump\t// in\ntag_7:\n    /* \"hardhat/contracts/RoyaltyManager.sol\":624:632  _royalty */\n  dup1\n    /* \"hardhat/contracts/RoyaltyManager.sol\":605:633  royalty = IRoyalty(_royalty) */\n  0xffffffffffffffffffffffffffffffffffffffff\n  and\n  0x80\n  dup2\n  0xffffffffffffffffffffffffffffffffffffffff\n  and\n  dup2\n  mstore\n  pop\n  pop\n    /* \"hardhat/contracts/RoyaltyManager.sol\":565:640  constructor(address _royalty) {... */\n  pop\n    /* \"hardhat/contracts/RoyaltyManager.sol\":357:1324  contract RoyaltyManager is IRoyaltyManager, Ownable {... */\n  jump(tag_12)\n    /* \"@openzeppelin/contracts/utils/Context.sol\":640:736  function _msgSender() internal view virtual returns (address) {... */\ntag_9:\n    /* \"@openzeppelin/contracts/utils/Context.sol\":693:700  address */\n  0x00\n    /* \"@openzeppelin/contracts/utils/Context.sol\":719:729  msg.sender */\n  caller\n    /* \"@openzeppelin/contracts/utils/Context.sol\":712:729  return msg.sender */\n  swap1\n  pop\n    /* \"@openzeppelin/contracts/utils/Context.sol\":640:736  function _msgSender() internal view virtual returns (address) {... */\n  swap1\n  jump\t// out\n    /* \"@openzeppelin/contracts/access/Ownable.sol\":2433:2620  function _transferOwnership(address newOwner) internal virtual {... */\ntag_10:\n    /* \"@openzeppelin/contracts/access/Ownable.sol\":2506:2522  address oldOwner */\n  0x00\n    /* \"@openzeppelin/contracts/access/Ownable.sol\":2525:2531  _owner */\n  dup1\n  0x00\n  swap1\n  sload\n  swap1\n  0x0100\n  exp\n  swap1\n  div\n  0xffffffffffffffffffffffffffffffffffffffff\n  and\n    /* \"@openzeppelin/contracts/access/Ownable.sol\":2506:2531  address oldOwner = _owner */\n  swap1\n  pop\n    /* \"@openzeppelin/contracts/access/Ownable.sol\":2550:2558  newOwner */\n  dup2\n    /* \"@openzeppelin/contracts/access/Ownable.sol\":2541:2547  _owner */\n  0x00\n  dup1\n    /* \"@openzeppelin/contracts/access/Ownable.sol\":2541:2558  _owner = newOwner */\n  0x0100\n  exp\n  dup2\n  sload\n  dup2\n  0xffffffffffffffffffffffffffffffffffffffff\n  mul\n  not\n  and\n  swap1\n  dup4\n  0xffffffffffffffffffffffffffffffffffffffff\n  and\n  mul\n  or\n  swap1\n  sstore\n  pop\n    /* \"@openzeppelin/contracts/access/Ownable.sol\":2604:2612  newOwner */\n  dup2\n    /* \"@openzeppelin/contracts/access/Ownable.sol\":2573:2613  OwnershipTransferred(oldOwner, newOwner) */\n  0xffffffffffffffffffffffffffffffffffffffff\n  and\n    /* \"@openzeppelin/contracts/access/Ownable.sol\":2594:2602  oldOwner */\n  dup2\n    /* \"@openzeppelin/contracts/access/Ownable.sol\":2573:2613  OwnershipTransferred(oldOwner, newOwner) */\n  0xffffffffffffffffffffffffffffffffffffffff\n  and\n  0x8be0079c531659141344cd1fd0a4f28419497f9722a3daafe3b4186f6b6457e0\n  mload(0x40)\n  mload(0x40)\n  dup1\n  swap2\n  sub\n  swap1\n  log3\n    /* \"@openzeppelin/contracts/access/Ownable.sol\":2496:2620  {... */\n  pop\n    /* \"@openzeppelin/contracts/access/Ownable.sol\":2433:2620  function _transferOwnership(address newOwner) internal virtual {... */\n  pop\n  jump\t// out\n    /* \"#utility.yul\":88:205   */\ntag_16:\n    /* \"#utility.yul\":197:198   */\n  0x00\n    /* \"#utility.yul\":194:195   */\n  dup1\n    /* \"#utility.yul\":187:199   */\n  revert\n    /* \"#utility.yul\":334:460   */\ntag_18:\n    /* \"#utility.yul\":371:378   */\n  0x00\n    /* \"#utility.yul\":411:453   */\n  0xffffffffffffffffffffffffffffffffffffffff\n    /* \"#utility.yul\":404:409   */\n  dup3\n    /* \"#utility.yul\":400:454   */\n  and\n    /* \"#utility.yul\":389:454   */\n  swap1\n  pop\n    /* \"#utility.yul\":334:460   */\n  swap2\n  swap1\n  pop\n  jump\t// out\n    /* \"#utility.yul\":466:562   */\ntag_19:\n    /* \"#utility.yul\":503:510   */\n  0x00\n    /* \"#utility.yul\":532:556   */\n  tag_28\n    /* \"#utility.yul\":550:555   */\n  dup3\n    /* \"#utility.yul\":532:556   */\n  tag_18\n  jump\t// in\ntag_28:\n    /* \"#utility.yul\":521:556   */\n  swap1\n  pop\n    /* \"#utility.yul\":466:562   */\n  swap2\n  swap1\n  pop\n  jump\t// out\n    /* \"#utility.yul\":568:690   */\ntag_20:\n    /* \"#utility.yul\":641:665   */\n  tag_30\n    /* \"#utility.yul\":659:664   */\n  dup2\n    /* \"#utility.yul\":641:665   */\n  tag_19\n  jump\t// in\ntag_30:\n    /* \"#utility.yul\":634:639   */\n  dup2\n    /* \"#utility.yul\":631:666   */\n  eq\n    /* \"#utility.yul\":621:684   */\n  tag_31\n  jumpi\n    /* \"#utility.yul\":680:681   */\n  0x00\n    /* \"#utility.yul\":677:678   */\n  dup1\n    /* \"#utility.yul\":670:682   */\n  revert\n    /* \"#utility.yul\":621:684   */\ntag_31:\n    /* \"#utility.yul\":568:690   */\n  pop\n  jump\t// out\n    /* \"#utility.yul\":696:839   */\ntag_21:\n    /* \"#utility.yul\":753:758   */\n  0x00\n    /* \"#utility.yul\":784:790   */\n  dup2\n    /* \"#utility.yul\":778:791   */\n  mload\n    /* \"#utility.yul\":769:791   */\n  swap1\n  pop\n    /* \"#utility.yul\":800:833   */\n  tag_33\n    /* \"#utility.yul\":827:832   */\n  dup2\n    /* \"#utility.yul\":800:833   */\n  tag_20\n  jump\t// in\ntag_33:\n    /* \"#utility.yul\":696:839   */\n  swap3\n  swap2\n  pop\n  pop\n  jump\t// out\n    /* \"#utility.yul\":845:1196   */\ntag_3:\n    /* \"#utility.yul\":915:921   */\n  0x00\n    /* \"#utility.yul\":964:966   */\n  0x20\n    /* \"#utility.yul\":952:961   */\n  dup3\n    /* \"#utility.yul\":943:950   */\n  dup5\n    /* \"#utility.yul\":939:962   */\n  sub\n    /* \"#utility.yul\":935:967   */\n  slt\n    /* \"#utility.yul\":932:1051   */\n  iszero\n  tag_35\n  jumpi\n    /* \"#utility.yul\":970:1049   */\n  tag_36\n  tag_16\n  jump\t// in\ntag_36:\n    /* \"#utility.yul\":932:1051   */\ntag_35:\n    /* \"#utility.yul\":1090:1091   */\n  0x00\n    /* \"#utility.yul\":1115:1179   */\n  tag_37\n    /* \"#utility.yul\":1171:1178   */\n  dup5\n    /* \"#utility.yul\":1162:1168   */\n  dup3\n    /* \"#utility.yul\":1151:1160   */\n  dup6\n    /* \"#utility.yul\":1147:1169   */\n  add\n    /* \"#utility.yul\":1115:1179   */\n  tag_21\n  jump\t// in\ntag_37:\n    /* \"#utility.yul\":1105:1179   */\n  swap2\n  pop\n    /* \"#utility.yul\":1061:1189   */\n  pop\n    /* \"#utility.yul\":845:1196   */\n  swap3\n  swap2\n  pop\n  pop\n  jump\t// out\n    /* \"hardhat/contracts/RoyaltyManager.sol\":357:1324  contract RoyaltyManager is IRoyaltyManager, Ownable {... */\ntag_12:\n  mload(0x80)\n  codecopy(0x00, dataOffset(sub_0), dataSize(sub_0))\n  0x00\n  assignImmutable(\"0xb7700257a9e4b89511ea592d7ef488a6959d733cec4df010484e5af3e427a407\")\n  return(0x00, dataSize(sub_0))\nstop\n\nsub_0: assembly {\n        /* \"hardhat/contracts/RoyaltyManager.sol\":357:1324  contract RoyaltyManager is IRoyaltyManager, Ownable {... */\n      mstore(0x40, 0x80)\n      callvalue\n      dup1\n      iszero\n      tag_1\n      jumpi\n      0x00\n      dup1\n      revert\n    tag_1:\n      pop\n      jumpi(tag_2, lt(calldatasize, 0x04))\n      shr(0xe0, calldataload(0x00))\n      dup1\n      0x29ee566c\n      eq\n      tag_3\n      jumpi\n      dup1\n      0x40e7b540\n      eq\n      tag_4\n      jumpi\n      dup1\n      0x715018a6\n      eq\n      tag_5\n      jumpi\n      dup1\n      0x8da5cb5b\n      eq\n      tag_6\n      jumpi\n      dup1\n      0xb060dd86\n      eq\n      tag_7\n      jumpi\n      dup1\n      0xf2fde38b\n      eq\n      tag_8\n      jumpi\n    tag_2:\n      0x00\n      dup1\n      revert\n        /* \"hardhat/contracts/RoyaltyManager.sol\":525:558  IRoyalty public immutable royalty */\n    tag_3:\n      tag_9\n      tag_10\n      jump\t// in\n    tag_9:\n      mload(0x40)\n      tag_11\n      swap2\n      swap1\n      tag_12\n      jump\t// in\n    tag_11:\n      mload(0x40)\n      dup1\n      swap2\n      sub\n      swap1\n      return\n        /* \"hardhat/contracts/RoyaltyManager.sol\":646:1322  function recipientWithroyaltyDeductionAmount(... */\n    tag_4:\n      tag_13\n      0x04\n      dup1\n      calldatasize\n      sub\n      dup2\n      add\n      swap1\n      tag_14\n      swap2\n      swap1\n      tag_15\n      jump\t// in\n    tag_14:\n      tag_16\n      jump\t// in\n    tag_13:\n      mload(0x40)\n      tag_17\n      swap3\n      swap2\n      swap1\n      tag_18\n      jump\t// in\n    tag_17:\n      mload(0x40)\n      dup1\n      swap2\n      sub\n      swap1\n      return\n        /* \"@openzeppelin/contracts/access/Ownable.sol\":1831:1932  function renounceOwnership() public virtual onlyOwner {... */\n    tag_5:\n      tag_19\n      tag_20\n      jump\t// in\n    tag_19:\n      stop\n        /* \"@openzeppelin/contracts/access/Ownable.sol\":1201:1286  function owner() public view virtual returns (address) {... */\n    tag_6:\n      tag_21\n      tag_22\n      jump\t// in\n    tag_21:\n      mload(0x40)\n      tag_23\n      swap2\n      swap1\n      tag_24\n      jump\t// in\n    tag_23:\n      mload(0x40)\n      dup1\n      swap2\n      sub\n      swap1\n      return\n        /* \"hardhat/contracts/RoyaltyManager.sol\":462:518  bytes4 public constant INTERFACE_ID_ERC2981 = 0x2a55205a */\n    tag_7:\n      tag_25\n      tag_26\n      jump\t// in\n    tag_25:\n      mload(0x40)\n      tag_27\n      swap2\n      swap1\n      tag_28\n      jump\t// in\n    tag_27:\n      mload(0x40)\n      dup1\n      swap2\n      sub\n      swap1\n      return\n        /* \"@openzeppelin/contracts/access/Ownable.sol\":2081:2279  function transferOwnership(address newOwner) public virtual onlyOwner {... */\n    tag_8:\n      tag_29\n      0x04\n      dup1\n      calldatasize\n      sub\n      dup2\n      add\n      swap1\n      tag_30\n      swap2\n      swap1\n      tag_31\n      jump\t// in\n    tag_30:\n      tag_32\n      jump\t// in\n    tag_29:\n      stop\n        /* \"hardhat/contracts/RoyaltyManager.sol\":525:558  IRoyalty public immutable royalty */\n    tag_10:\n      immutable(\"0xb7700257a9e4b89511ea592d7ef488a6959d733cec4df010484e5af3e427a407\")\n      dup2\n      jump\t// out\n        /* \"hardhat/contracts/RoyaltyManager.sol\":646:1322  function recipientWithroyaltyDeductionAmount(... */\n    tag_16:\n        /* \"hardhat/contracts/RoyaltyManager.sol\":806:813  address */\n      0x00\n        /* \"hardhat/contracts/RoyaltyManager.sol\":815:822  uint256 */\n      dup1\n        /* \"hardhat/contracts/RoyaltyManager.sol\":835:851  address receiver */\n      0x00\n        /* \"hardhat/contracts/RoyaltyManager.sol\":853:874  uint256 royaltyAmount */\n      dup1\n        /* \"hardhat/contracts/RoyaltyManager.sol\":878:885  royalty */\n      immutable(\"0xb7700257a9e4b89511ea592d7ef488a6959d733cec4df010484e5af3e427a407\")\n        /* \"hardhat/contracts/RoyaltyManager.sol\":878:897  royalty.royaltyInfo */\n      0xffffffffffffffffffffffffffffffffffffffff\n      and\n      0x2782d6c7\n        /* \"hardhat/contracts/RoyaltyManager.sol\":911:921  collection */\n      dup9\n        /* \"hardhat/contracts/RoyaltyManager.sol\":935:941  amount */\n      dup8\n        /* \"hardhat/contracts/RoyaltyManager.sol\":878:951  royalty.royaltyInfo(... */\n      mload(0x40)\n      dup4\n      0xffffffff\n      and\n      0xe0\n      shl\n      dup2\n      mstore\n      0x04\n      add\n      tag_34\n      swap3\n      swap2\n      swap1\n      tag_18\n      jump\t// in\n    tag_34:\n      0x40\n      dup1\n      mload\n      dup1\n      dup4\n      sub\n      dup2\n      dup7\n      gas\n      staticcall\n      iszero\n      dup1\n      iszero\n      tag_36\n      jumpi\n      returndatasize\n      0x00\n      dup1\n      returndatacopy\n      revert(0x00, returndatasize)\n    tag_36:\n      pop\n      pop\n      pop\n      pop\n      mload(0x40)\n      returndatasize\n      not(0x1f)\n      0x1f\n      dup3\n      add\n      and\n      dup3\n      add\n      dup1\n      0x40\n      mstore\n      pop\n      dup2\n      add\n      swap1\n      tag_37\n      swap2\n      swap1\n      tag_38\n      jump\t// in\n    tag_37:\n        /* \"hardhat/contracts/RoyaltyManager.sol\":834:951  (address receiver, uint256 royaltyAmount) = royalty.royaltyInfo(... */\n      swap2\n      pop\n      swap2\n      pop\n        /* \"hardhat/contracts/RoyaltyManager.sol\":987:988  0 */\n      0x00\n        /* \"hardhat/contracts/RoyaltyManager.sol\":967:989  receiver == address(0) */\n      0xffffffffffffffffffffffffffffffffffffffff\n      and\n        /* \"hardhat/contracts/RoyaltyManager.sol\":967:975  receiver */\n      dup3\n        /* \"hardhat/contracts/RoyaltyManager.sol\":967:989  receiver == address(0) */\n      0xffffffffffffffffffffffffffffffffffffffff\n      and\n      eq\n        /* \"hardhat/contracts/RoyaltyManager.sol\":966:1014  (receiver == address(0)) || (royaltyAmount == 0) */\n      dup1\n      tag_39\n      jumpi\n      pop\n        /* \"hardhat/contracts/RoyaltyManager.sol\":1012:1013  0 */\n      0x00\n        /* \"hardhat/contracts/RoyaltyManager.sol\":995:1008  royaltyAmount */\n      dup2\n        /* \"hardhat/contracts/RoyaltyManager.sol\":995:1013  royaltyAmount == 0 */\n      eq\n        /* \"hardhat/contracts/RoyaltyManager.sol\":966:1014  (receiver == address(0)) || (royaltyAmount == 0) */\n    tag_39:\n        /* \"hardhat/contracts/RoyaltyManager.sol\":962:1273  if ((receiver == address(0)) || (royaltyAmount == 0)) {... */\n      iszero\n      tag_40\n      jumpi\n        /* \"hardhat/contracts/RoyaltyManager.sol\":1042:1052  collection */\n      dup7\n        /* \"hardhat/contracts/RoyaltyManager.sol\":1034:1071  IERC165(collection).supportsInterface */\n      0xffffffffffffffffffffffffffffffffffffffff\n      and\n      0x01ffc9a7\n        /* \"hardhat/contracts/RoyaltyManager.sol\":508:518  0x2a55205a */\n      0x2a55205a\n        /* \"hardhat/contracts/RoyaltyManager.sol\":1072:1092  INTERFACE_ID_ERC2981 */\n      0xe0\n      shl\n        /* \"hardhat/contracts/RoyaltyManager.sol\":1034:1093  IERC165(collection).supportsInterface(INTERFACE_ID_ERC2981) */\n      mload(0x40)\n      dup3\n      0xffffffff\n      and\n      0xe0\n      shl\n      dup2\n      mstore\n      0x04\n      add\n      tag_41\n      swap2\n      swap1\n      tag_28\n      jump\t// in\n    tag_41:\n      0x20\n      mload(0x40)\n      dup1\n      dup4\n      sub\n      dup2\n      dup7\n      gas\n      staticcall\n      iszero\n      dup1\n      iszero\n      tag_43\n      jumpi\n      returndatasize\n      0x00\n      dup1\n      returndatacopy\n      revert(0x00, returndatasize)\n    tag_43:\n      pop\n      pop\n      pop\n      pop\n      mload(0x40)\n      returndatasize\n      not(0x1f)\n      0x1f\n      dup3\n      add\n      and\n      dup3\n      add\n      dup1\n      0x40\n      mstore\n      pop\n      dup2\n      add\n      swap1\n      tag_44\n      swap2\n      swap1\n      tag_45\n      jump\t// in\n    tag_44:\n        /* \"hardhat/contracts/RoyaltyManager.sol\":1030:1263  if (IERC165(collection).supportsInterface(INTERFACE_ID_ERC2981)) {... */\n      iszero\n      tag_46\n      jumpi\n        /* \"hardhat/contracts/RoyaltyManager.sol\":1150:1160  collection */\n      dup7\n        /* \"hardhat/contracts/RoyaltyManager.sol\":1141:1173  IERC2981(collection).royaltyInfo */\n      0xffffffffffffffffffffffffffffffffffffffff\n      and\n      0x2a55205a\n        /* \"hardhat/contracts/RoyaltyManager.sol\":1195:1202  tokenId */\n      dup8\n        /* \"hardhat/contracts/RoyaltyManager.sol\":1224:1230  amount */\n      dup8\n        /* \"hardhat/contracts/RoyaltyManager.sol\":1141:1248  IERC2981(collection).royaltyInfo(... */\n      mload(0x40)\n      dup4\n      0xffffffff\n      and\n      0xe0\n      shl\n      dup2\n      mstore\n      0x04\n      add\n      tag_47\n      swap3\n      swap2\n      swap1\n      tag_48\n      jump\t// in\n    tag_47:\n      0x40\n      dup1\n      mload\n      dup1\n      dup4\n      sub\n      dup2\n      dup7\n      gas\n      staticcall\n      iszero\n      dup1\n      iszero\n      tag_50\n      jumpi\n      returndatasize\n      0x00\n      dup1\n      returndatacopy\n      revert(0x00, returndatasize)\n    tag_50:\n      pop\n      pop\n      pop\n      pop\n      mload(0x40)\n      returndatasize\n      not(0x1f)\n      0x1f\n      dup3\n      add\n      and\n      dup3\n      add\n      dup1\n      0x40\n      mstore\n      pop\n      dup2\n      add\n      swap1\n      tag_51\n      swap2\n      swap1\n      tag_38\n      jump\t// in\n    tag_51:\n        /* \"hardhat/contracts/RoyaltyManager.sol\":1113:1248  (receiver, royaltyAmount) = IERC2981(collection).royaltyInfo(... */\n      dup1\n      swap3\n      pop\n      dup2\n      swap4\n      pop\n      pop\n      pop\n        /* \"hardhat/contracts/RoyaltyManager.sol\":1030:1263  if (IERC165(collection).supportsInterface(INTERFACE_ID_ERC2981)) {... */\n    tag_46:\n        /* \"hardhat/contracts/RoyaltyManager.sol\":962:1273  if ((receiver == address(0)) || (royaltyAmount == 0)) {... */\n    tag_40:\n        /* \"hardhat/contracts/RoyaltyManager.sol\":1291:1299  receiver */\n      dup2\n        /* \"hardhat/contracts/RoyaltyManager.sol\":1301:1314  royaltyAmount */\n      dup2\n        /* \"hardhat/contracts/RoyaltyManager.sol\":1283:1315  return (receiver, royaltyAmount) */\n      swap4\n      pop\n      swap4\n      pop\n      pop\n      pop\n        /* \"hardhat/contracts/RoyaltyManager.sol\":646:1322  function recipientWithroyaltyDeductionAmount(... */\n      swap4\n      pop\n      swap4\n      swap2\n      pop\n      pop\n      jump\t// out\n        /* \"@openzeppelin/contracts/access/Ownable.sol\":1831:1932  function renounceOwnership() public virtual onlyOwner {... */\n    tag_20:\n        /* \"@openzeppelin/contracts/access/Ownable.sol\":1094:1107  _checkOwner() */\n      tag_53\n        /* \"@openzeppelin/contracts/access/Ownable.sol\":1094:1105  _checkOwner */\n      tag_54\n        /* \"@openzeppelin/contracts/access/Ownable.sol\":1094:1107  _checkOwner() */\n      jump\t// in\n    tag_53:\n        /* \"@openzeppelin/contracts/access/Ownable.sol\":1895:1925  _transferOwnership(address(0)) */\n      tag_56\n        /* \"@openzeppelin/contracts/access/Ownable.sol\":1922:1923  0 */\n      0x00\n        /* \"@openzeppelin/contracts/access/Ownable.sol\":1895:1913  _transferOwnership */\n      tag_57\n        /* \"@openzeppelin/contracts/access/Ownable.sol\":1895:1925  _transferOwnership(address(0)) */\n      jump\t// in\n    tag_56:\n        /* \"@openzeppelin/contracts/access/Ownable.sol\":1831:1932  function renounceOwnership() public virtual onlyOwner {... */\n      jump\t// out\n        /* \"@openzeppelin/contracts/access/Ownable.sol\":1201:1286  function owner() public view virtual returns (address) {... */\n    tag_22:\n        /* \"@openzeppelin/contracts/access/Ownable.sol\":1247:1254  address */\n      0x00\n        /* \"@openzeppelin/contracts/access/Ownable.sol\":1273:1279  _owner */\n      dup1\n      0x00\n      swap1\n      sload\n      swap1\n      0x0100\n      exp\n      swap1\n      div\n      0xffffffffffffffffffffffffffffffffffffffff\n      and\n        /* \"@openzeppelin/contracts/access/Ownable.sol\":1266:1279  return _owner */\n      swap1\n      pop\n        /* \"@openzeppelin/contracts/access/Ownable.sol\":1201:1286  function owner() public view virtual returns (address) {... */\n      swap1\n      jump\t// out\n        /* \"hardhat/contracts/RoyaltyManager.sol\":462:518  bytes4 public constant INTERFACE_ID_ERC2981 = 0x2a55205a */\n    tag_26:\n        /* \"hardhat/contracts/RoyaltyManager.sol\":508:518  0x2a55205a */\n      0x2a55205a\n        /* \"hardhat/contracts/RoyaltyManager.sol\":462:518  bytes4 public constant INTERFACE_ID_ERC2981 = 0x2a55205a */\n      0xe0\n      shl\n      dup2\n      jump\t// out\n        /* \"@openzeppelin/contracts/access/Ownable.sol\":2081:2279  function transferOwnership(address newOwner) public virtual onlyOwner {... */\n    tag_32:\n        /* \"@openzeppelin/contracts/access/Ownable.sol\":1094:1107  _checkOwner() */\n      tag_60\n        /* \"@openzeppelin/contracts/access/Ownable.sol\":1094:1105  _checkOwner */\n      tag_54\n        /* \"@openzeppelin/contracts/access/Ownable.sol\":1094:1107  _checkOwner() */\n      jump\t// in\n    tag_60:\n        /* \"@openzeppelin/contracts/access/Ownable.sol\":2189:2190  0 */\n      0x00\n        /* \"@openzeppelin/contracts/access/Ownable.sol\":2169:2191  newOwner != address(0) */\n      0xffffffffffffffffffffffffffffffffffffffff\n      and\n        /* \"@openzeppelin/contracts/access/Ownable.sol\":2169:2177  newOwner */\n      dup2\n        /* \"@openzeppelin/contracts/access/Ownable.sol\":2169:2191  newOwner != address(0) */\n      0xffffffffffffffffffffffffffffffffffffffff\n      and\n      sub\n        /* \"@openzeppelin/contracts/access/Ownable.sol\":2161:2234  require(newOwner != address(0), \"Ownable: new owner is the zero address\") */\n      tag_62\n      jumpi\n      mload(0x40)\n      0x08c379a000000000000000000000000000000000000000000000000000000000\n      dup2\n      mstore\n      0x04\n      add\n      tag_63\n      swap1\n      tag_64\n      jump\t// in\n    tag_63:\n      mload(0x40)\n      dup1\n      swap2\n      sub\n      swap1\n      revert\n    tag_62:\n        /* \"@openzeppelin/contracts/access/Ownable.sol\":2244:2272  _transferOwnership(newOwner) */\n      tag_65\n        /* \"@openzeppelin/contracts/access/Ownable.sol\":2263:2271  newOwner */\n      dup2\n        /* \"@openzeppelin/contracts/access/Ownable.sol\":2244:2262  _transferOwnership */\n      tag_57\n        /* \"@openzeppelin/contracts/access/Ownable.sol\":2244:2272  _transferOwnership(newOwner) */\n      jump\t// in\n    tag_65:\n        /* \"@openzeppelin/contracts/access/Ownable.sol\":2081:2279  function transferOwnership(address newOwner) public virtual onlyOwner {... */\n      pop\n      jump\t// out\n        /* \"@openzeppelin/contracts/access/Ownable.sol\":1359:1489  function _checkOwner() internal view virtual {... */\n    tag_54:\n        /* \"@openzeppelin/contracts/access/Ownable.sol\":1433:1445  _msgSender() */\n      tag_67\n        /* \"@openzeppelin/contracts/access/Ownable.sol\":1433:1443  _msgSender */\n      tag_68\n        /* \"@openzeppelin/contracts/access/Ownable.sol\":1433:1445  _msgSender() */\n      jump\t// in\n    tag_67:\n        /* \"@openzeppelin/contracts/access/Ownable.sol\":1422:1445  owner() == _msgSender() */\n      0xffffffffffffffffffffffffffffffffffffffff\n      and\n        /* \"@openzeppelin/contracts/access/Ownable.sol\":1422:1429  owner() */\n      tag_69\n        /* \"@openzeppelin/contracts/access/Ownable.sol\":1422:1427  owner */\n      tag_22\n        /* \"@openzeppelin/contracts/access/Ownable.sol\":1422:1429  owner() */\n      jump\t// in\n    tag_69:\n        /* \"@openzeppelin/contracts/access/Ownable.sol\":1422:1445  owner() == _msgSender() */\n      0xffffffffffffffffffffffffffffffffffffffff\n      and\n      eq\n        /* \"@openzeppelin/contracts/access/Ownable.sol\":1414:1482  require(owner() == _msgSender(), \"Ownable: caller is not the owner\") */\n      tag_70\n      jumpi\n      mload(0x40)\n      0x08c379a000000000000000000000000000000000000000000000000000000000\n      dup2\n      mstore\n      0x04\n      add\n      tag_71\n      swap1\n      tag_72\n      jump\t// in\n    tag_71:\n      mload(0x40)\n      dup1\n      swap2\n      sub\n      swap1\n      revert\n    tag_70:\n        /* \"@openzeppelin/contracts/access/Ownable.sol\":1359:1489  function _checkOwner() internal view virtual {... */\n      jump\t// out\n        /* \"@openzeppelin/contracts/access/Ownable.sol\":2433:2620  function _transferOwnership(address newOwner) internal virtual {... */\n    tag_57:\n        /* \"@openzeppelin/contracts/access/Ownable.sol\":2506:2522  address oldOwner */\n      0x00\n        /* \"@openzeppelin/contracts/access/Ownable.sol\":2525:2531  _owner */\n      dup1\n      0x00\n      swap1\n      sload\n      swap1\n      0x0100\n      exp\n      swap1\n      div\n      0xffffffffffffffffffffffffffffffffffffffff\n      and\n        /* \"@openzeppelin/contracts/access/Ownable.sol\":2506:2531  address oldOwner = _owner */\n      swap1\n      pop\n        /* \"@openzeppelin/contracts/access/Ownable.sol\":2550:2558  newOwner */\n      dup2\n        /* \"@openzeppelin/contracts/access/Ownable.sol\":2541:2547  _owner */\n      0x00\n      dup1\n        /* \"@openzeppelin/contracts/access/Ownable.sol\":2541:2558  _owner = newOwner */\n      0x0100\n      exp\n      dup2\n      sload\n      dup2\n      0xffffffffffffffffffffffffffffffffffffffff\n      mul\n      not\n      and\n      swap1\n      dup4\n      0xffffffffffffffffffffffffffffffffffffffff\n      and\n      mul\n      or\n      swap1\n      sstore\n      pop\n        /* \"@openzeppelin/contracts/access/Ownable.sol\":2604:2612  newOwner */\n      dup2\n        /* \"@openzeppelin/contracts/access/Ownable.sol\":2573:2613  OwnershipTransferred(oldOwner, newOwner) */\n      0xffffffffffffffffffffffffffffffffffffffff\n      and\n        /* \"@openzeppelin/contracts/access/Ownable.sol\":2594:2602  oldOwner */\n      dup2\n        /* \"@openzeppelin/contracts/access/Ownable.sol\":2573:2613  OwnershipTransferred(oldOwner, newOwner) */\n      0xffffffffffffffffffffffffffffffffffffffff\n      and\n      0x8be0079c531659141344cd1fd0a4f28419497f9722a3daafe3b4186f6b6457e0\n      mload(0x40)\n      mload(0x40)\n      dup1\n      swap2\n      sub\n      swap1\n      log3\n        /* \"@openzeppelin/contracts/access/Ownable.sol\":2496:2620  {... */\n      pop\n        /* \"@openzeppelin/contracts/access/Ownable.sol\":2433:2620  function _transferOwnership(address newOwner) internal virtual {... */\n      pop\n      jump\t// out\n        /* \"@openzeppelin/contracts/utils/Context.sol\":640:736  function _msgSender() internal view virtual returns (address) {... */\n    tag_68:\n        /* \"@openzeppelin/contracts/utils/Context.sol\":693:700  address */\n      0x00\n        /* \"@openzeppelin/contracts/utils/Context.sol\":719:729  msg.sender */\n      caller\n        /* \"@openzeppelin/contracts/utils/Context.sol\":712:729  return msg.sender */\n      swap1\n      pop\n        /* \"@openzeppelin/contracts/utils/Context.sol\":640:736  function _msgSender() internal view virtual returns (address) {... */\n      swap1\n      jump\t// out\n        /* \"#utility.yul\":7:133   */\n    tag_75:\n        /* \"#utility.yul\":44:51   */\n      0x00\n        /* \"#utility.yul\":84:126   */\n      0xffffffffffffffffffffffffffffffffffffffff\n        /* \"#utility.yul\":77:82   */\n      dup3\n        /* \"#utility.yul\":73:127   */\n      and\n        /* \"#utility.yul\":62:127   */\n      swap1\n      pop\n        /* \"#utility.yul\":7:133   */\n      swap2\n      swap1\n      pop\n      jump\t// out\n        /* \"#utility.yul\":139:199   */\n    tag_76:\n        /* \"#utility.yul\":167:170   */\n      0x00\n        /* \"#utility.yul\":188:193   */\n      dup2\n        /* \"#utility.yul\":181:193   */\n      swap1\n      pop\n        /* \"#utility.yul\":139:199   */\n      swap2\n      swap1\n      pop\n      jump\t// out\n        /* \"#utility.yul\":205:347   */\n    tag_77:\n        /* \"#utility.yul\":255:264   */\n      0x00\n        /* \"#utility.yul\":288:341   */\n      tag_108\n        /* \"#utility.yul\":306:340   */\n      tag_109\n        /* \"#utility.yul\":315:339   */\n      tag_110\n        /* \"#utility.yul\":333:338   */\n      dup5\n        /* \"#utility.yul\":315:339   */\n      tag_75\n      jump\t// in\n    tag_110:\n        /* \"#utility.yul\":306:340   */\n      tag_76\n      jump\t// in\n    tag_109:\n        /* \"#utility.yul\":288:341   */\n      tag_75\n      jump\t// in\n    tag_108:\n        /* \"#utility.yul\":275:341   */\n      swap1\n      pop\n        /* \"#utility.yul\":205:347   */\n      swap2\n      swap1\n      pop\n      jump\t// out\n        /* \"#utility.yul\":353:479   */\n    tag_78:\n        /* \"#utility.yul\":403:412   */\n      0x00\n        /* \"#utility.yul\":436:473   */\n      tag_112\n        /* \"#utility.yul\":467:472   */\n      dup3\n        /* \"#utility.yul\":436:473   */\n      tag_77\n      jump\t// in\n    tag_112:\n        /* \"#utility.yul\":423:473   */\n      swap1\n      pop\n        /* \"#utility.yul\":353:479   */\n      swap2\n      swap1\n      pop\n      jump\t// out\n        /* \"#utility.yul\":485:627   */\n    tag_79:\n        /* \"#utility.yul\":551:560   */\n      0x00\n        /* \"#utility.yul\":584:621   */\n      tag_114\n        /* \"#utility.yul\":615:620   */\n      dup3\n        /* \"#utility.yul\":584:621   */\n      tag_78\n      jump\t// in\n    tag_114:\n        /* \"#utility.yul\":571:621   */\n      swap1\n      pop\n        /* \"#utility.yul\":485:627   */\n      swap2\n      swap1\n      pop\n      jump\t// out\n        /* \"#utility.yul\":633:796   */\n    tag_80:\n        /* \"#utility.yul\":736:789   */\n      tag_116\n        /* \"#utility.yul\":783:788   */\n      dup2\n        /* \"#utility.yul\":736:789   */\n      tag_79\n      jump\t// in\n    tag_116:\n        /* \"#utility.yul\":731:734   */\n      dup3\n        /* \"#utility.yul\":724:790   */\n      mstore\n        /* \"#utility.yul\":633:796   */\n      pop\n      pop\n      jump\t// out\n        /* \"#utility.yul\":802:1056   */\n    tag_12:\n        /* \"#utility.yul\":911:915   */\n      0x00\n        /* \"#utility.yul\":949:951   */\n      0x20\n        /* \"#utility.yul\":938:947   */\n      dup3\n        /* \"#utility.yul\":934:952   */\n      add\n        /* \"#utility.yul\":926:952   */\n      swap1\n      pop\n        /* \"#utility.yul\":962:1049   */\n      tag_118\n        /* \"#utility.yul\":1046:1047   */\n      0x00\n        /* \"#utility.yul\":1035:1044   */\n      dup4\n        /* \"#utility.yul\":1031:1048   */\n      add\n        /* \"#utility.yul\":1022:1028   */\n      dup5\n        /* \"#utility.yul\":962:1049   */\n      tag_80\n      jump\t// in\n    tag_118:\n        /* \"#utility.yul\":802:1056   */\n      swap3\n      swap2\n      pop\n      pop\n      jump\t// out\n        /* \"#utility.yul\":1143:1260   */\n    tag_82:\n        /* \"#utility.yul\":1252:1253   */\n      0x00\n        /* \"#utility.yul\":1249:1250   */\n      dup1\n        /* \"#utility.yul\":1242:1254   */\n      revert\n        /* \"#utility.yul\":1389:1485   */\n    tag_84:\n        /* \"#utility.yul\":1426:1433   */\n      0x00\n        /* \"#utility.yul\":1455:1479   */\n      tag_123\n        /* \"#utility.yul\":1473:1478   */\n      dup3\n        /* \"#utility.yul\":1455:1479   */\n      tag_75\n      jump\t// in\n    tag_123:\n        /* \"#utility.yul\":1444:1479   */\n      swap1\n      pop\n        /* \"#utility.yul\":1389:1485   */\n      swap2\n      swap1\n      pop\n      jump\t// out\n        /* \"#utility.yul\":1491:1613   */\n    tag_85:\n        /* \"#utility.yul\":1564:1588   */\n      tag_125\n        /* \"#utility.yul\":1582:1587   */\n      dup2\n        /* \"#utility.yul\":1564:1588   */\n      tag_84\n      jump\t// in\n    tag_125:\n        /* \"#utility.yul\":1557:1562   */\n      dup2\n        /* \"#utility.yul\":1554:1589   */\n      eq\n        /* \"#utility.yul\":1544:1607   */\n      tag_126\n      jumpi\n        /* \"#utility.yul\":1603:1604   */\n      0x00\n        /* \"#utility.yul\":1600:1601   */\n      dup1\n        /* \"#utility.yul\":1593:1605   */\n      revert\n        /* \"#utility.yul\":1544:1607   */\n    tag_126:\n        /* \"#utility.yul\":1491:1613   */\n      pop\n      jump\t// out\n        /* \"#utility.yul\":1619:1758   */\n    tag_86:\n        /* \"#utility.yul\":1665:1670   */\n      0x00\n        /* \"#utility.yul\":1703:1709   */\n      dup2\n        /* \"#utility.yul\":1690:1710   */\n      calldataload\n        /* \"#utility.yul\":1681:1710   */\n      swap1\n      pop\n        /* \"#utility.yul\":1719:1752   */\n      tag_128\n        /* \"#utility.yul\":1746:1751   */\n      dup2\n        /* \"#utility.yul\":1719:1752   */\n      tag_85\n      jump\t// in\n    tag_128:\n        /* \"#utility.yul\":1619:1758   */\n      swap3\n      swap2\n      pop\n      pop\n      jump\t// out\n        /* \"#utility.yul\":1764:1841   */\n    tag_87:\n        /* \"#utility.yul\":1801:1808   */\n      0x00\n        /* \"#utility.yul\":1830:1835   */\n      dup2\n        /* \"#utility.yul\":1819:1835   */\n      swap1\n      pop\n        /* \"#utility.yul\":1764:1841   */\n      swap2\n      swap1\n      pop\n      jump\t// out\n        /* \"#utility.yul\":1847:1969   */\n    tag_88:\n        /* \"#utility.yul\":1920:1944   */\n      tag_131\n        /* \"#utility.yul\":1938:1943   */\n      dup2\n        /* \"#utility.yul\":1920:1944   */\n      tag_87\n      jump\t// in\n    tag_131:\n        /* \"#utility.yul\":1913:1918   */\n      dup2\n        /* \"#utility.yul\":1910:1945   */\n      eq\n        /* \"#utility.yul\":1900:1963   */\n      tag_132\n      jumpi\n        /* \"#utility.yul\":1959:1960   */\n      0x00\n        /* \"#utility.yul\":1956:1957   */\n      dup1\n        /* \"#utility.yul\":1949:1961   */\n      revert\n        /* \"#utility.yul\":1900:1963   */\n    tag_132:\n        /* \"#utility.yul\":1847:1969   */\n      pop\n      jump\t// out\n        /* \"#utility.yul\":1975:2114   */\n    tag_89:\n        /* \"#utility.yul\":2021:2026   */\n      0x00\n        /* \"#utility.yul\":2059:2065   */\n      dup2\n        /* \"#utility.yul\":2046:2066   */\n      calldataload\n        /* \"#utility.yul\":2037:2066   */\n      swap1\n      pop\n        /* \"#utility.yul\":2075:2108   */\n      tag_134\n        /* \"#utility.yul\":2102:2107   */\n      dup2\n        /* \"#utility.yul\":2075:2108   */\n      tag_88\n      jump\t// in\n    tag_134:\n        /* \"#utility.yul\":1975:2114   */\n      swap3\n      swap2\n      pop\n      pop\n      jump\t// out\n        /* \"#utility.yul\":2120:2739   */\n    tag_15:\n        /* \"#utility.yul\":2197:2203   */\n      0x00\n        /* \"#utility.yul\":2205:2211   */\n      dup1\n        /* \"#utility.yul\":2213:2219   */\n      0x00\n        /* \"#utility.yul\":2262:2264   */\n      0x60\n        /* \"#utility.yul\":2250:2259   */\n      dup5\n        /* \"#utility.yul\":2241:2248   */\n      dup7\n        /* \"#utility.yul\":2237:2260   */\n      sub\n        /* \"#utility.yul\":2233:2265   */\n      slt\n        /* \"#utility.yul\":2230:2349   */\n      iszero\n      tag_136\n      jumpi\n        /* \"#utility.yul\":2268:2347   */\n      tag_137\n      tag_82\n      jump\t// in\n    tag_137:\n        /* \"#utility.yul\":2230:2349   */\n    tag_136:\n        /* \"#utility.yul\":2388:2389   */\n      0x00\n        /* \"#utility.yul\":2413:2466   */\n      tag_138\n        /* \"#utility.yul\":2458:2465   */\n      dup7\n        /* \"#utility.yul\":2449:2455   */\n      dup3\n        /* \"#utility.yul\":2438:2447   */\n      dup8\n        /* \"#utility.yul\":2434:2456   */\n      add\n        /* \"#utility.yul\":2413:2466   */\n      tag_86\n      jump\t// in\n    tag_138:\n        /* \"#utility.yul\":2403:2466   */\n      swap4\n      pop\n        /* \"#utility.yul\":2359:2476   */\n      pop\n        /* \"#utility.yul\":2515:2517   */\n      0x20\n        /* \"#utility.yul\":2541:2594   */\n      tag_139\n        /* \"#utility.yul\":2586:2593   */\n      dup7\n        /* \"#utility.yul\":2577:2583   */\n      dup3\n        /* \"#utility.yul\":2566:2575   */\n      dup8\n        /* \"#utility.yul\":2562:2584   */\n      add\n        /* \"#utility.yul\":2541:2594   */\n      tag_89\n      jump\t// in\n    tag_139:\n        /* \"#utility.yul\":2531:2594   */\n      swap3\n      pop\n        /* \"#utility.yul\":2486:2604   */\n      pop\n        /* \"#utility.yul\":2643:2645   */\n      0x40\n        /* \"#utility.yul\":2669:2722   */\n      tag_140\n        /* \"#utility.yul\":2714:2721   */\n      dup7\n        /* \"#utility.yul\":2705:2711   */\n      dup3\n        /* \"#utility.yul\":2694:2703   */\n      dup8\n        /* \"#utility.yul\":2690:2712   */\n      add\n        /* \"#utility.yul\":2669:2722   */\n      tag_89\n      jump\t// in\n    tag_140:\n        /* \"#utility.yul\":2659:2722   */\n      swap2\n      pop\n        /* \"#utility.yul\":2614:2732   */\n      pop\n        /* \"#utility.yul\":2120:2739   */\n      swap3\n      pop\n      swap3\n      pop\n      swap3\n      jump\t// out\n        /* \"#utility.yul\":2745:2863   */\n    tag_90:\n        /* \"#utility.yul\":2832:2856   */\n      tag_142\n        /* \"#utility.yul\":2850:2855   */\n      dup2\n        /* \"#utility.yul\":2832:2856   */\n      tag_84\n      jump\t// in\n    tag_142:\n        /* \"#utility.yul\":2827:2830   */\n      dup3\n        /* \"#utility.yul\":2820:2857   */\n      mstore\n        /* \"#utility.yul\":2745:2863   */\n      pop\n      pop\n      jump\t// out\n        /* \"#utility.yul\":2869:2987   */\n    tag_91:\n        /* \"#utility.yul\":2956:2980   */\n      tag_144\n        /* \"#utility.yul\":2974:2979   */\n      dup2\n        /* \"#utility.yul\":2956:2980   */\n      tag_87\n      jump\t// in\n    tag_144:\n        /* \"#utility.yul\":2951:2954   */\n      dup3\n        /* \"#utility.yul\":2944:2981   */\n      mstore\n        /* \"#utility.yul\":2869:2987   */\n      pop\n      pop\n      jump\t// out\n        /* \"#utility.yul\":2993:3325   */\n    tag_18:\n        /* \"#utility.yul\":3114:3118   */\n      0x00\n        /* \"#utility.yul\":3152:3154   */\n      0x40\n        /* \"#utility.yul\":3141:3150   */\n      dup3\n        /* \"#utility.yul\":3137:3155   */\n      add\n        /* \"#utility.yul\":3129:3155   */\n      swap1\n      pop\n        /* \"#utility.yul\":3165:3236   */\n      tag_146\n        /* \"#utility.yul\":3233:3234   */\n      0x00\n        /* \"#utility.yul\":3222:3231   */\n      dup4\n        /* \"#utility.yul\":3218:3235   */\n      add\n        /* \"#utility.yul\":3209:3215   */\n      dup6\n        /* \"#utility.yul\":3165:3236   */\n      tag_90\n      jump\t// in\n    tag_146:\n        /* \"#utility.yul\":3246:3318   */\n      tag_147\n        /* \"#utility.yul\":3314:3316   */\n      0x20\n        /* \"#utility.yul\":3303:3312   */\n      dup4\n        /* \"#utility.yul\":3299:3317   */\n      add\n        /* \"#utility.yul\":3290:3296   */\n      dup5\n        /* \"#utility.yul\":3246:3318   */\n      tag_91\n      jump\t// in\n    tag_147:\n        /* \"#utility.yul\":2993:3325   */\n      swap4\n      swap3\n      pop\n      pop\n      pop\n      jump\t// out\n        /* \"#utility.yul\":3331:3553   */\n    tag_24:\n        /* \"#utility.yul\":3424:3428   */\n      0x00\n        /* \"#utility.yul\":3462:3464   */\n      0x20\n        /* \"#utility.yul\":3451:3460   */\n      dup3\n        /* \"#utility.yul\":3447:3465   */\n      add\n        /* \"#utility.yul\":3439:3465   */\n      swap1\n      pop\n        /* \"#utility.yul\":3475:3546   */\n      tag_149\n        /* \"#utility.yul\":3543:3544   */\n      0x00\n        /* \"#utility.yul\":3532:3541   */\n      dup4\n        /* \"#utility.yul\":3528:3545   */\n      add\n        /* \"#utility.yul\":3519:3525   */\n      dup5\n        /* \"#utility.yul\":3475:3546   */\n      tag_90\n      jump\t// in\n    tag_149:\n        /* \"#utility.yul\":3331:3553   */\n      swap3\n      swap2\n      pop\n      pop\n      jump\t// out\n        /* \"#utility.yul\":3559:3708   */\n    tag_92:\n        /* \"#utility.yul\":3595:3602   */\n      0x00\n        /* \"#utility.yul\":3635:3701   */\n      0xffffffff00000000000000000000000000000000000000000000000000000000\n        /* \"#utility.yul\":3628:3633   */\n      dup3\n        /* \"#utility.yul\":3624:3702   */\n      and\n        /* \"#utility.yul\":3613:3702   */\n      swap1\n      pop\n        /* \"#utility.yul\":3559:3708   */\n      swap2\n      swap1\n      pop\n      jump\t// out\n        /* \"#utility.yul\":3714:3829   */\n    tag_93:\n        /* \"#utility.yul\":3799:3822   */\n      tag_152\n        /* \"#utility.yul\":3816:3821   */\n      dup2\n        /* \"#utility.yul\":3799:3822   */\n      tag_92\n      jump\t// in\n    tag_152:\n        /* \"#utility.yul\":3794:3797   */\n      dup3\n        /* \"#utility.yul\":3787:3823   */\n      mstore\n        /* \"#utility.yul\":3714:3829   */\n      pop\n      pop\n      jump\t// out\n        /* \"#utility.yul\":3835:4053   */\n    tag_28:\n        /* \"#utility.yul\":3926:3930   */\n      0x00\n        /* \"#utility.yul\":3964:3966   */\n      0x20\n        /* \"#utility.yul\":3953:3962   */\n      dup3\n        /* \"#utility.yul\":3949:3967   */\n      add\n        /* \"#utility.yul\":3941:3967   */\n      swap1\n      pop\n        /* \"#utility.yul\":3977:4046   */\n      tag_154\n        /* \"#utility.yul\":4043:4044   */\n      0x00\n        /* \"#utility.yul\":4032:4041   */\n      dup4\n        /* \"#utility.yul\":4028:4045   */\n      add\n        /* \"#utility.yul\":4019:4025   */\n      dup5\n        /* \"#utility.yul\":3977:4046   */\n      tag_93\n      jump\t// in\n    tag_154:\n        /* \"#utility.yul\":3835:4053   */\n      swap3\n      swap2\n      pop\n      pop\n      jump\t// out\n        /* \"#utility.yul\":4059:4388   */\n    tag_31:\n        /* \"#utility.yul\":4118:4124   */\n      0x00\n        /* \"#utility.yul\":4167:4169   */\n      0x20\n        /* \"#utility.yul\":4155:4164   */\n      dup3\n        /* \"#utility.yul\":4146:4153   */\n      dup5\n        /* \"#utility.yul\":4142:4165   */\n      sub\n        /* \"#utility.yul\":4138:4170   */\n      slt\n        /* \"#utility.yul\":4135:4254   */\n      iszero\n      tag_156\n      jumpi\n        /* \"#utility.yul\":4173:4252   */\n      tag_157\n      tag_82\n      jump\t// in\n    tag_157:\n        /* \"#utility.yul\":4135:4254   */\n    tag_156:\n        /* \"#utility.yul\":4293:4294   */\n      0x00\n        /* \"#utility.yul\":4318:4371   */\n      tag_158\n        /* \"#utility.yul\":4363:4370   */\n      dup5\n        /* \"#utility.yul\":4354:4360   */\n      dup3\n        /* \"#utility.yul\":4343:4352   */\n      dup6\n        /* \"#utility.yul\":4339:4361   */\n      add\n        /* \"#utility.yul\":4318:4371   */\n      tag_86\n      jump\t// in\n    tag_158:\n        /* \"#utility.yul\":4308:4371   */\n      swap2\n      pop\n        /* \"#utility.yul\":4264:4381   */\n      pop\n        /* \"#utility.yul\":4059:4388   */\n      swap3\n      swap2\n      pop\n      pop\n      jump\t// out\n        /* \"#utility.yul\":4394:4537   */\n    tag_94:\n        /* \"#utility.yul\":4451:4456   */\n      0x00\n        /* \"#utility.yul\":4482:4488   */\n      dup2\n        /* \"#utility.yul\":4476:4489   */\n      mload\n        /* \"#utility.yul\":4467:4489   */\n      swap1\n      pop\n        /* \"#utility.yul\":4498:4531   */\n      tag_160\n        /* \"#utility.yul\":4525:4530   */\n      dup2\n        /* \"#utility.yul\":4498:4531   */\n      tag_85\n      jump\t// in\n    tag_160:\n        /* \"#utility.yul\":4394:4537   */\n      swap3\n      swap2\n      pop\n      pop\n      jump\t// out\n        /* \"#utility.yul\":4543:4686   */\n    tag_95:\n        /* \"#utility.yul\":4600:4605   */\n      0x00\n        /* \"#utility.yul\":4631:4637   */\n      dup2\n        /* \"#utility.yul\":4625:4638   */\n      mload\n        /* \"#utility.yul\":4616:4638   */\n      swap1\n      pop\n        /* \"#utility.yul\":4647:4680   */\n      tag_162\n        /* \"#utility.yul\":4674:4679   */\n      dup2\n        /* \"#utility.yul\":4647:4680   */\n      tag_88\n      jump\t// in\n    tag_162:\n        /* \"#utility.yul\":4543:4686   */\n      swap3\n      swap2\n      pop\n      pop\n      jump\t// out\n        /* \"#utility.yul\":4692:5199   */\n    tag_38:\n        /* \"#utility.yul\":4771:4777   */\n      0x00\n        /* \"#utility.yul\":4779:4785   */\n      dup1\n        /* \"#utility.yul\":4828:4830   */\n      0x40\n        /* \"#utility.yul\":4816:4825   */\n      dup4\n        /* \"#utility.yul\":4807:4814   */\n      dup6\n        /* \"#utility.yul\":4803:4826   */\n      sub\n        /* \"#utility.yul\":4799:4831   */\n      slt\n        /* \"#utility.yul\":4796:4915   */\n      iszero\n      tag_164\n      jumpi\n        /* \"#utility.yul\":4834:4913   */\n      tag_165\n      tag_82\n      jump\t// in\n    tag_165:\n        /* \"#utility.yul\":4796:4915   */\n    tag_164:\n        /* \"#utility.yul\":4954:4955   */\n      0x00\n        /* \"#utility.yul\":4979:5043   */\n      tag_166\n        /* \"#utility.yul\":5035:5042   */\n      dup6\n        /* \"#utility.yul\":5026:5032   */\n      dup3\n        /* \"#utility.yul\":5015:5024   */\n      dup7\n        /* \"#utility.yul\":5011:5033   */\n      add\n        /* \"#utility.yul\":4979:5043   */\n      tag_94\n      jump\t// in\n    tag_166:\n        /* \"#utility.yul\":4969:5043   */\n      swap3\n      pop\n        /* \"#utility.yul\":4925:5053   */\n      pop\n        /* \"#utility.yul\":5092:5094   */\n      0x20\n        /* \"#utility.yul\":5118:5182   */\n      tag_167\n        /* \"#utility.yul\":5174:5181   */\n      dup6\n        /* \"#utility.yul\":5165:5171   */\n      dup3\n        /* \"#utility.yul\":5154:5163   */\n      dup7\n        /* \"#utility.yul\":5150:5172   */\n      add\n        /* \"#utility.yul\":5118:5182   */\n      tag_95\n      jump\t// in\n    tag_167:\n        /* \"#utility.yul\":5108:5182   */\n      swap2\n      pop\n        /* \"#utility.yul\":5063:5192   */\n      pop\n        /* \"#utility.yul\":4692:5199   */\n      swap3\n      pop\n      swap3\n      swap1\n      pop\n      jump\t// out\n        /* \"#utility.yul\":5205:5295   */\n    tag_96:\n        /* \"#utility.yul\":5239:5246   */\n      0x00\n        /* \"#utility.yul\":5282:5287   */\n      dup2\n        /* \"#utility.yul\":5275:5288   */\n      iszero\n        /* \"#utility.yul\":5268:5289   */\n      iszero\n        /* \"#utility.yul\":5257:5289   */\n      swap1\n      pop\n        /* \"#utility.yul\":5205:5295   */\n      swap2\n      swap1\n      pop\n      jump\t// out\n        /* \"#utility.yul\":5301:5417   */\n    tag_97:\n        /* \"#utility.yul\":5371:5392   */\n      tag_170\n        /* \"#utility.yul\":5386:5391   */\n      dup2\n        /* \"#utility.yul\":5371:5392   */\n      tag_96\n      jump\t// in\n    tag_170:\n        /* \"#utility.yul\":5364:5369   */\n      dup2\n        /* \"#utility.yul\":5361:5393   */\n      eq\n        /* \"#utility.yul\":5351:5411   */\n      tag_171\n      jumpi\n        /* \"#utility.yul\":5407:5408   */\n      0x00\n        /* \"#utility.yul\":5404:5405   */\n      dup1\n        /* \"#utility.yul\":5397:5409   */\n      revert\n        /* \"#utility.yul\":5351:5411   */\n    tag_171:\n        /* \"#utility.yul\":5301:5417   */\n      pop\n      jump\t// out\n        /* \"#utility.yul\":5423:5560   */\n    tag_98:\n        /* \"#utility.yul\":5477:5482   */\n      0x00\n        /* \"#utility.yul\":5508:5514   */\n      dup2\n        /* \"#utility.yul\":5502:5515   */\n      mload\n        /* \"#utility.yul\":5493:5515   */\n      swap1\n      pop\n        /* \"#utility.yul\":5524:5554   */\n      tag_173\n        /* \"#utility.yul\":5548:5553   */\n      dup2\n        /* \"#utility.yul\":5524:5554   */\n      tag_97\n      jump\t// in\n    tag_173:\n        /* \"#utility.yul\":5423:5560   */\n      swap3\n      swap2\n      pop\n      pop\n      jump\t// out\n        /* \"#utility.yul\":5566:5911   */\n    tag_45:\n        /* \"#utility.yul\":5633:5639   */\n      0x00\n        /* \"#utility.yul\":5682:5684   */\n      0x20\n        /* \"#utility.yul\":5670:5679   */\n      dup3\n        /* \"#utility.yul\":5661:5668   */\n      dup5\n        /* \"#utility.yul\":5657:5680   */\n      sub\n        /* \"#utility.yul\":5653:5685   */\n      slt\n        /* \"#utility.yul\":5650:5769   */\n      iszero\n      tag_175\n      jumpi\n        /* \"#utility.yul\":5688:5767   */\n      tag_176\n      tag_82\n      jump\t// in\n    tag_176:\n        /* \"#utility.yul\":5650:5769   */\n    tag_175:\n        /* \"#utility.yul\":5808:5809   */\n      0x00\n        /* \"#utility.yul\":5833:5894   */\n      tag_177\n        /* \"#utility.yul\":5886:5893   */\n      dup5\n        /* \"#utility.yul\":5877:5883   */\n      dup3\n        /* \"#utility.yul\":5866:5875   */\n      dup6\n        /* \"#utility.yul\":5862:5884   */\n      add\n        /* \"#utility.yul\":5833:5894   */\n      tag_98\n      jump\t// in\n    tag_177:\n        /* \"#utility.yul\":5823:5894   */\n      swap2\n      pop\n        /* \"#utility.yul\":5779:5904   */\n      pop\n        /* \"#utility.yul\":5566:5911   */\n      swap3\n      swap2\n      pop\n      pop\n      jump\t// out\n        /* \"#utility.yul\":5917:6249   */\n    tag_48:\n        /* \"#utility.yul\":6038:6042   */\n      0x00\n        /* \"#utility.yul\":6076:6078   */\n      0x40\n        /* \"#utility.yul\":6065:6074   */\n      dup3\n        /* \"#utility.yul\":6061:6079   */\n      add\n        /* \"#utility.yul\":6053:6079   */\n      swap1\n      pop\n        /* \"#utility.yul\":6089:6160   */\n      tag_179\n        /* \"#utility.yul\":6157:6158   */\n      0x00\n        /* \"#utility.yul\":6146:6155   */\n      dup4\n        /* \"#utility.yul\":6142:6159   */\n      add\n        /* \"#utility.yul\":6133:6139   */\n      dup6\n        /* \"#utility.yul\":6089:6160   */\n      tag_91\n      jump\t// in\n    tag_179:\n        /* \"#utility.yul\":6170:6242   */\n      tag_180\n        /* \"#utility.yul\":6238:6240   */\n      0x20\n        /* \"#utility.yul\":6227:6236   */\n      dup4\n        /* \"#utility.yul\":6223:6241   */\n      add\n        /* \"#utility.yul\":6214:6220   */\n      dup5\n        /* \"#utility.yul\":6170:6242   */\n      tag_91\n      jump\t// in\n    tag_180:\n        /* \"#utility.yul\":5917:6249   */\n      swap4\n      swap3\n      pop\n      pop\n      pop\n      jump\t// out\n        /* \"#utility.yul\":6255:6424   */\n    tag_99:\n        /* \"#utility.yul\":6339:6350   */\n      0x00\n        /* \"#utility.yul\":6373:6379   */\n      dup3\n        /* \"#utility.yul\":6368:6371   */\n      dup3\n        /* \"#utility.yul\":6361:6380   */\n      mstore\n        /* \"#utility.yul\":6413:6417   */\n      0x20\n        /* \"#utility.yul\":6408:6411   */\n      dup3\n        /* \"#utility.yul\":6404:6418   */\n      add\n        /* \"#utility.yul\":6389:6418   */\n      swap1\n      pop\n        /* \"#utility.yul\":6255:6424   */\n      swap3\n      swap2\n      pop\n      pop\n      jump\t// out\n        /* \"#utility.yul\":6430:6655   */\n    tag_100:\n        /* \"#utility.yul\":6570:6604   */\n      0x4f776e61626c653a206e6577206f776e657220697320746865207a65726f2061\n        /* \"#utility.yul\":6566:6567   */\n      0x00\n        /* \"#utility.yul\":6558:6564   */\n      dup3\n        /* \"#utility.yul\":6554:6568   */\n      add\n        /* \"#utility.yul\":6547:6605   */\n      mstore\n        /* \"#utility.yul\":6639:6647   */\n      0x6464726573730000000000000000000000000000000000000000000000000000\n        /* \"#utility.yul\":6634:6636   */\n      0x20\n        /* \"#utility.yul\":6626:6632   */\n      dup3\n        /* \"#utility.yul\":6622:6637   */\n      add\n        /* \"#utility.yul\":6615:6648   */\n      mstore\n        /* \"#utility.yul\":6430:6655   */\n      pop\n      jump\t// out\n        /* \"#utility.yul\":6661:7027   */\n    tag_101:\n        /* \"#utility.yul\":6803:6806   */\n      0x00\n        /* \"#utility.yul\":6824:6891   */\n      tag_184\n        /* \"#utility.yul\":6888:6890   */\n      0x26\n        /* \"#utility.yul\":6883:6886   */\n      dup4\n        /* \"#utility.yul\":6824:6891   */\n      tag_99\n      jump\t// in\n    tag_184:\n        /* \"#utility.yul\":6817:6891   */\n      swap2\n      pop\n        /* \"#utility.yul\":6900:6993   */\n      tag_185\n        /* \"#utility.yul\":6989:6992   */\n      dup3\n        /* \"#utility.yul\":6900:6993   */\n      tag_100\n      jump\t// in\n    tag_185:\n        /* \"#utility.yul\":7018:7020   */\n      0x40\n        /* \"#utility.yul\":7013:7016   */\n      dup3\n        /* \"#utility.yul\":7009:7021   */\n      add\n        /* \"#utility.yul\":7002:7021   */\n      swap1\n      pop\n        /* \"#utility.yul\":6661:7027   */\n      swap2\n      swap1\n      pop\n      jump\t// out\n        /* \"#utility.yul\":7033:7452   */\n    tag_64:\n        /* \"#utility.yul\":7199:7203   */\n      0x00\n        /* \"#utility.yul\":7237:7239   */\n      0x20\n        /* \"#utility.yul\":7226:7235   */\n      dup3\n        /* \"#utility.yul\":7222:7240   */\n      add\n        /* \"#utility.yul\":7214:7240   */\n      swap1\n      pop\n        /* \"#utility.yul\":7286:7295   */\n      dup2\n        /* \"#utility.yul\":7280:7284   */\n      dup2\n        /* \"#utility.yul\":7276:7296   */\n      sub\n        /* \"#utility.yul\":7272:7273   */\n      0x00\n        /* \"#utility.yul\":7261:7270   */\n      dup4\n        /* \"#utility.yul\":7257:7274   */\n      add\n        /* \"#utility.yul\":7250:7297   */\n      mstore\n        /* \"#utility.yul\":7314:7445   */\n      tag_187\n        /* \"#utility.yul\":7440:7444   */\n      dup2\n        /* \"#utility.yul\":7314:7445   */\n      tag_101\n      jump\t// in\n    tag_187:\n        /* \"#utility.yul\":7306:7445   */\n      swap1\n      pop\n        /* \"#utility.yul\":7033:7452   */\n      swap2\n      swap1\n      pop\n      jump\t// out\n        /* \"#utility.yul\":7458:7640   */\n    tag_102:\n        /* \"#utility.yul\":7598:7632   */\n      0x4f776e61626c653a2063616c6c6572206973206e6f7420746865206f776e6572\n        /* \"#utility.yul\":7594:7595   */\n      0x00\n        /* \"#utility.yul\":7586:7592   */\n      dup3\n        /* \"#utility.yul\":7582:7596   */\n      add\n        /* \"#utility.yul\":7575:7633   */\n      mstore\n        /* \"#utility.yul\":7458:7640   */\n      pop\n      jump\t// out\n        /* \"#utility.yul\":7646:8012   */\n    tag_103:\n        /* \"#utility.yul\":7788:7791   */\n      0x00\n        /* \"#utility.yul\":7809:7876   */\n      tag_190\n        /* \"#utility.yul\":7873:7875   */\n      0x20\n        /* \"#utility.yul\":7868:7871   */\n      dup4\n        /* \"#utility.yul\":7809:7876   */\n      tag_99\n      jump\t// in\n    tag_190:\n        /* \"#utility.yul\":7802:7876   */\n      swap2\n      pop\n        /* \"#utility.yul\":7885:7978   */\n      tag_191\n        /* \"#utility.yul\":7974:7977   */\n      dup3\n        /* \"#utility.yul\":7885:7978   */\n      tag_102\n      jump\t// in\n    tag_191:\n        /* \"#utility.yul\":8003:8005   */\n      0x20\n        /* \"#utility.yul\":7998:8001   */\n      dup3\n        /* \"#utility.yul\":7994:8006   */\n      add\n        /* \"#utility.yul\":7987:8006   */\n      swap1\n      pop\n        /* \"#utility.yul\":7646:8012   */\n      swap2\n      swap1\n      pop\n      jump\t// out\n        /* \"#utility.yul\":8018:8437   */\n    tag_72:\n        /* \"#utility.yul\":8184:8188   */\n      0x00\n        /* \"#utility.yul\":8222:8224   */\n      0x20\n        /* \"#utility.yul\":8211:8220   */\n      dup3\n        /* \"#utility.yul\":8207:8225   */\n      add\n        /* \"#utility.yul\":8199:8225   */\n      swap1\n      pop\n        /* \"#utility.yul\":8271:8280   */\n      dup2\n        /* \"#utility.yul\":8265:8269   */\n      dup2\n        /* \"#utility.yul\":8261:8281   */\n      sub\n        /* \"#utility.yul\":8257:8258   */\n      0x00\n        /* \"#utility.yul\":8246:8255   */\n      dup4\n        /* \"#utility.yul\":8242:8259   */\n      add\n        /* \"#utility.yul\":8235:8282   */\n      mstore\n        /* \"#utility.yul\":8299:8430   */\n      tag_193\n        /* \"#utility.yul\":8425:8429   */\n      dup2\n        /* \"#utility.yul\":8299:8430   */\n      tag_103\n      jump\t// in\n    tag_193:\n        /* \"#utility.yul\":8291:8430   */\n      swap1\n      pop\n        /* \"#utility.yul\":8018:8437   */\n      swap2\n      swap1\n      pop\n      jump\t// out\n\n    auxdata: 0xa26469706673582212206c59e2c64c28a84350b90a46e6d44fedb15ece943a6ae6aab2f5cfe497d327e664736f6c63430008130033\n}\n",
				"bytecode": {
					"linkReferences": {},
					"object": "60a060405234801561001057600080fd5b50604051610bdf380380610bdf833981810160405281019061003291906101b7565b61004e61004361008860201b60201c565b61009060201b60201c565b8073ffffffffffffffffffffffffffffffffffffffff1660808173ffffffffffffffffffffffffffffffffffffffff1681525050506101e4565b600033905090565b60008060009054906101000a900473ffffffffffffffffffffffffffffffffffffffff169050816000806101000a81548173ffffffffffffffffffffffffffffffffffffffff021916908373ffffffffffffffffffffffffffffffffffffffff1602179055508173ffffffffffffffffffffffffffffffffffffffff168173ffffffffffffffffffffffffffffffffffffffff167f8be0079c531659141344cd1fd0a4f28419497f9722a3daafe3b4186f6b6457e060405160405180910390a35050565b600080fd5b600073ffffffffffffffffffffffffffffffffffffffff82169050919050565b600061018482610159565b9050919050565b61019481610179565b811461019f57600080fd5b50565b6000815190506101b18161018b565b92915050565b6000602082840312156101cd576101cc610154565b5b60006101db848285016101a2565b91505092915050565b6080516109d96102066000396000818161011a015261014401526109d96000f3fe608060405234801561001057600080fd5b50600436106100625760003560e01c806329ee566c1461006757806340e7b54014610085578063715018a6146100b65780638da5cb5b146100c0578063b060dd86146100de578063f2fde38b146100fc575b600080fd5b61006f610118565b60405161007c91906105d0565b60405180910390f35b61009f600480360381019061009a9190610664565b61013c565b6040516100ad9291906106d5565b60405180910390f35b6100be61033c565b005b6100c8610350565b6040516100d591906106fe565b60405180910390f35b6100e6610379565b6040516100f39190610754565b60405180910390f35b6101166004803603810190610111919061076f565b610384565b005b7f000000000000000000000000000000000000000000000000000000000000000081565b6000806000807f000000000000000000000000000000000000000000000000000000000000000073ffffffffffffffffffffffffffffffffffffffff16632782d6c788876040518363ffffffff1660e01b815260040161019d9291906106d5565b6040805180830381865afa1580156101b9573d6000803e3d6000fd5b505050506040513d601f19601f820116820180604052508101906101dd91906107c6565b91509150600073ffffffffffffffffffffffffffffffffffffffff168273ffffffffffffffffffffffffffffffffffffffff16148061021c5750600081145b1561032c578673ffffffffffffffffffffffffffffffffffffffff166301ffc9a7632a55205a60e01b6040518263ffffffff1660e01b81526004016102619190610754565b602060405180830381865afa15801561027e573d6000803e3d6000fd5b505050506040513d601f19601f820116820180604052508101906102a2919061083e565b1561032b578673ffffffffffffffffffffffffffffffffffffffff16632a55205a87876040518363ffffffff1660e01b81526004016102e292919061086b565b6040805180830381865afa1580156102fe573d6000803e3d6000fd5b505050506040513d601f19601f8201168201806040525081019061032291906107c6565b80925081935050505b5b8181935093505050935093915050565b610344610407565b61034e6000610485565b565b60008060009054906101000a900473ffffffffffffffffffffffffffffffffffffffff16905090565b632a55205a60e01b81565b61038c610407565b600073ffffffffffffffffffffffffffffffffffffffff168173ffffffffffffffffffffffffffffffffffffffff16036103fb576040517f08c379a00000000000000000000000000000000000000000000000000000000081526004016103f290610917565b60405180910390fd5b61040481610485565b50565b61040f610549565b73ffffffffffffffffffffffffffffffffffffffff1661042d610350565b73ffffffffffffffffffffffffffffffffffffffff1614610483576040517f08c379a000000000000000000000000000000000000000000000000000000000815260040161047a90610983565b60405180910390fd5b565b60008060009054906101000a900473ffffffffffffffffffffffffffffffffffffffff169050816000806101000a81548173ffffffffffffffffffffffffffffffffffffffff021916908373ffffffffffffffffffffffffffffffffffffffff1602179055508173ffffffffffffffffffffffffffffffffffffffff168173ffffffffffffffffffffffffffffffffffffffff167f8be0079c531659141344cd1fd0a4f28419497f9722a3daafe3b4186f6b6457e060405160405180910390a35050565b600033905090565b600073ffffffffffffffffffffffffffffffffffffffff82169050919050565b6000819050919050565b600061059661059161058c84610551565b610571565b610551565b9050919050565b60006105a88261057b565b9050919050565b60006105ba8261059d565b9050919050565b6105ca816105af565b82525050565b60006020820190506105e560008301846105c1565b92915050565b600080fd5b60006105fb82610551565b9050919050565b61060b816105f0565b811461061657600080fd5b50565b60008135905061062881610602565b92915050565b6000819050919050565b6106418161062e565b811461064c57600080fd5b50565b60008135905061065e81610638565b92915050565b60008060006060848603121561067d5761067c6105eb565b5b600061068b86828701610619565b935050602061069c8682870161064f565b92505060406106ad8682870161064f565b9150509250925092565b6106c0816105f0565b82525050565b6106cf8161062e565b82525050565b60006040820190506106ea60008301856106b7565b6106f760208301846106c6565b9392505050565b600060208201905061071360008301846106b7565b92915050565b60007fffffffff0000000000000000000000000000000000000000000000000000000082169050919050565b61074e81610719565b82525050565b60006020820190506107696000830184610745565b92915050565b600060208284031215610785576107846105eb565b5b600061079384828501610619565b91505092915050565b6000815190506107ab81610602565b92915050565b6000815190506107c081610638565b92915050565b600080604083850312156107dd576107dc6105eb565b5b60006107eb8582860161079c565b92505060206107fc858286016107b1565b9150509250929050565b60008115159050919050565b61081b81610806565b811461082657600080fd5b50565b60008151905061083881610812565b92915050565b600060208284031215610854576108536105eb565b5b600061086284828501610829565b91505092915050565b600060408201905061088060008301856106c6565b61088d60208301846106c6565b9392505050565b600082825260208201905092915050565b7f4f776e61626c653a206e6577206f776e657220697320746865207a65726f206160008201527f6464726573730000000000000000000000000000000000000000000000000000602082015250565b6000610901602683610894565b915061090c826108a5565b604082019050919050565b60006020820190508181036000830152610930816108f4565b9050919050565b7f4f776e61626c653a2063616c6c6572206973206e6f7420746865206f776e6572600082015250565b600061096d602083610894565b915061097882610937565b602082019050919050565b6000602082019050818103600083015261099c81610960565b905091905056fea26469706673582212206c59e2c64c28a84350b90a46e6d44fedb15ece943a6ae6aab2f5cfe497d327e664736f6c63430008130033",
					"opcodes": "PUSH1 0xA0 PUSH1 0x40 MSTORE CALLVALUE DUP1 ISZERO PUSH2 0x10 JUMPI PUSH1 0x0 DUP1 REVERT JUMPDEST POP PUSH1 0x40 MLOAD PUSH2 0xBDF CODESIZE SUB DUP1 PUSH2 0xBDF DUP4 CODECOPY DUP2 DUP2 ADD PUSH1 0x40 MSTORE DUP2 ADD SWAP1 PUSH2 0x32 SWAP2 SWAP1 PUSH2 0x1B7 JUMP JUMPDEST PUSH2 0x4E PUSH2 0x43 PUSH2 0x88 PUSH1 0x20 SHL PUSH1 0x20 SHR JUMP JUMPDEST PUSH2 0x90 PUSH1 0x20 SHL PUSH1 0x20 SHR JUMP JUMPDEST DUP1 PUSH20 0xFFFFFFFFFFFFFFFFFFFFFFFFFFFFFFFFFFFFFFFF AND PUSH1 0x80 DUP2 PUSH20 0xFFFFFFFFFFFFFFFFFFFFFFFFFFFFFFFFFFFFFFFF AND DUP2 MSTORE POP POP POP PUSH2 0x1E4 JUMP JUMPDEST PUSH1 0x0 CALLER SWAP1 POP SWAP1 JUMP JUMPDEST PUSH1 0x0 DUP1 PUSH1 0x0 SWAP1 SLOAD SWAP1 PUSH2 0x100 EXP SWAP1 DIV PUSH20 0xFFFFFFFFFFFFFFFFFFFFFFFFFFFFFFFFFFFFFFFF AND SWAP1 POP DUP2 PUSH1 0x0 DUP1 PUSH2 0x100 EXP DUP2 SLOAD DUP2 PUSH20 0xFFFFFFFFFFFFFFFFFFFFFFFFFFFFFFFFFFFFFFFF MUL NOT AND SWAP1 DUP4 PUSH20 0xFFFFFFFFFFFFFFFFFFFFFFFFFFFFFFFFFFFFFFFF AND MUL OR SWAP1 SSTORE POP DUP2 PUSH20 0xFFFFFFFFFFFFFFFFFFFFFFFFFFFFFFFFFFFFFFFF AND DUP2 PUSH20 0xFFFFFFFFFFFFFFFFFFFFFFFFFFFFFFFFFFFFFFFF AND PUSH32 0x8BE0079C531659141344CD1FD0A4F28419497F9722A3DAAFE3B4186F6B6457E0 PUSH1 0x40 MLOAD PUSH1 0x40 MLOAD DUP1 SWAP2 SUB SWAP1 LOG3 POP POP JUMP JUMPDEST PUSH1 0x0 DUP1 REVERT JUMPDEST PUSH1 0x0 PUSH20 0xFFFFFFFFFFFFFFFFFFFFFFFFFFFFFFFFFFFFFFFF DUP3 AND SWAP1 POP SWAP2 SWAP1 POP JUMP JUMPDEST PUSH1 0x0 PUSH2 0x184 DUP3 PUSH2 0x159 JUMP JUMPDEST SWAP1 POP SWAP2 SWAP1 POP JUMP JUMPDEST PUSH2 0x194 DUP2 PUSH2 0x179 JUMP JUMPDEST DUP2 EQ PUSH2 0x19F JUMPI PUSH1 0x0 DUP1 REVERT JUMPDEST POP JUMP JUMPDEST PUSH1 0x0 DUP2 MLOAD SWAP1 POP PUSH2 0x1B1 DUP2 PUSH2 0x18B JUMP JUMPDEST SWAP3 SWAP2 POP POP JUMP JUMPDEST PUSH1 0x0 PUSH1 0x20 DUP3 DUP5 SUB SLT ISZERO PUSH2 0x1CD JUMPI PUSH2 0x1CC PUSH2 0x154 JUMP JUMPDEST JUMPDEST PUSH1 0x0 PUSH2 0x1DB DUP5 DUP3 DUP6 ADD PUSH2 0x1A2 JUMP JUMPDEST SWAP2 POP POP SWAP3 SWAP2 POP POP JUMP JUMPDEST PUSH1 0x80 MLOAD PUSH2 0x9D9 PUSH2 0x206 PUSH1 0x0 CODECOPY PUSH1 0x0 DUP2 DUP2 PUSH2 0x11A ADD MSTORE PUSH2 0x144 ADD MSTORE PUSH2 0x9D9 PUSH1 0x0 RETURN INVALID PUSH1 0x80 PUSH1 0x40 MSTORE CALLVALUE DUP1 ISZERO PUSH2 0x10 JUMPI PUSH1 0x0 DUP1 REVERT JUMPDEST POP PUSH1 0x4 CALLDATASIZE LT PUSH2 0x62 JUMPI PUSH1 0x0 CALLDATALOAD PUSH1 0xE0 SHR DUP1 PUSH4 0x29EE566C EQ PUSH2 0x67 JUMPI DUP1 PUSH4 0x40E7B540 EQ PUSH2 0x85 JUMPI DUP1 PUSH4 0x715018A6 EQ PUSH2 0xB6 JUMPI DUP1 PUSH4 0x8DA5CB5B EQ PUSH2 0xC0 JUMPI DUP1 PUSH4 0xB060DD86 EQ PUSH2 0xDE JUMPI DUP1 PUSH4 0xF2FDE38B EQ PUSH2 0xFC JUMPI JUMPDEST PUSH1 0x0 DUP1 REVERT JUMPDEST PUSH2 0x6F PUSH2 0x118 JUMP JUMPDEST PUSH1 0x40 MLOAD PUSH2 0x7C SWAP2 SWAP1 PUSH2 0x5D0 JUMP JUMPDEST PUSH1 0x40 MLOAD DUP1 SWAP2 SUB SWAP1 RETURN JUMPDEST PUSH2 0x9F PUSH1 0x4 DUP1 CALLDATASIZE SUB DUP2 ADD SWAP1 PUSH2 0x9A SWAP2 SWAP1 PUSH2 0x664 JUMP JUMPDEST PUSH2 0x13C JUMP JUMPDEST PUSH1 0x40 MLOAD PUSH2 0xAD SWAP3 SWAP2 SWAP1 PUSH2 0x6D5 JUMP JUMPDEST PUSH1 0x40 MLOAD DUP1 SWAP2 SUB SWAP1 RETURN JUMPDEST PUSH2 0xBE PUSH2 0x33C JUMP JUMPDEST STOP JUMPDEST PUSH2 0xC8 PUSH2 0x350 JUMP JUMPDEST PUSH1 0x40 MLOAD PUSH2 0xD5 SWAP2 SWAP1 PUSH2 0x6FE JUMP JUMPDEST PUSH1 0x40 MLOAD DUP1 SWAP2 SUB SWAP1 RETURN JUMPDEST PUSH2 0xE6 PUSH2 0x379 JUMP JUMPDEST PUSH1 0x40 MLOAD PUSH2 0xF3 SWAP2 SWAP1 PUSH2 0x754 JUMP JUMPDEST PUSH1 0x40 MLOAD DUP1 SWAP2 SUB SWAP1 RETURN JUMPDEST PUSH2 0x116 PUSH1 0x4 DUP1 CALLDATASIZE SUB DUP2 ADD SWAP1 PUSH2 0x111 SWAP2 SWAP1 PUSH2 0x76F JUMP JUMPDEST PUSH2 0x384 JUMP JUMPDEST STOP JUMPDEST PUSH32 0x0 DUP2 JUMP JUMPDEST PUSH1 0x0 DUP1 PUSH1 0x0 DUP1 PUSH32 0x0 PUSH20 0xFFFFFFFFFFFFFFFFFFFFFFFFFFFFFFFFFFFFFFFF AND PUSH4 0x2782D6C7 DUP9 DUP8 PUSH1 0x40 MLOAD DUP4 PUSH4 0xFFFFFFFF AND PUSH1 0xE0 SHL DUP2 MSTORE PUSH1 0x4 ADD PUSH2 0x19D SWAP3 SWAP2 SWAP1 PUSH2 0x6D5 JUMP JUMPDEST PUSH1 0x40 DUP1 MLOAD DUP1 DUP4 SUB DUP2 DUP7 GAS STATICCALL ISZERO DUP1 ISZERO PUSH2 0x1B9 JUMPI RETURNDATASIZE PUSH1 0x0 DUP1 RETURNDATACOPY RETURNDATASIZE PUSH1 0x0 REVERT JUMPDEST POP POP POP POP PUSH1 0x40 MLOAD RETURNDATASIZE PUSH1 0x1F NOT PUSH1 0x1F DUP3 ADD AND DUP3 ADD DUP1 PUSH1 0x40 MSTORE POP DUP2 ADD SWAP1 PUSH2 0x1DD SWAP2 SWAP1 PUSH2 0x7C6 JUMP JUMPDEST SWAP2 POP SWAP2 POP PUSH1 0x0 PUSH20 0xFFFFFFFFFFFFFFFFFFFFFFFFFFFFFFFFFFFFFFFF AND DUP3 PUSH20 0xFFFFFFFFFFFFFFFFFFFFFFFFFFFFFFFFFFFFFFFF AND EQ DUP1 PUSH2 0x21C JUMPI POP PUSH1 0x0 DUP2 EQ JUMPDEST ISZERO PUSH2 0x32C JUMPI DUP7 PUSH20 0xFFFFFFFFFFFFFFFFFFFFFFFFFFFFFFFFFFFFFFFF AND PUSH4 0x1FFC9A7 PUSH4 0x2A55205A PUSH1 0xE0 SHL PUSH1 0x40 MLOAD DUP3 PUSH4 0xFFFFFFFF AND PUSH1 0xE0 SHL DUP2 MSTORE PUSH1 0x4 ADD PUSH2 0x261 SWAP2 SWAP1 PUSH2 0x754 JUMP JUMPDEST PUSH1 0x20 PUSH1 0x40 MLOAD DUP1 DUP4 SUB DUP2 DUP7 GAS STATICCALL ISZERO DUP1 ISZERO PUSH2 0x27E JUMPI RETURNDATASIZE PUSH1 0x0 DUP1 RETURNDATACOPY RETURNDATASIZE PUSH1 0x0 REVERT JUMPDEST POP POP POP POP PUSH1 0x40 MLOAD RETURNDATASIZE PUSH1 0x1F NOT PUSH1 0x1F DUP3 ADD AND DUP3 ADD DUP1 PUSH1 0x40 MSTORE POP DUP2 ADD SWAP1 PUSH2 0x2A2 SWAP2 SWAP1 PUSH2 0x83E JUMP JUMPDEST ISZERO PUSH2 0x32B JUMPI DUP7 PUSH20 0xFFFFFFFFFFFFFFFFFFFFFFFFFFFFFFFFFFFFFFFF AND PUSH4 0x2A55205A DUP8 DUP8 PUSH1 0x40 MLOAD DUP4 PUSH4 0xFFFFFFFF AND PUSH1 0xE0 SHL DUP2 MSTORE PUSH1 0x4 ADD PUSH2 0x2E2 SWAP3 SWAP2 SWAP1 PUSH2 0x86B JUMP JUMPDEST PUSH1 0x40 DUP1 MLOAD DUP1 DUP4 SUB DUP2 DUP7 GAS STATICCALL ISZERO DUP1 ISZERO PUSH2 0x2FE JUMPI RETURNDATASIZE PUSH1 0x0 DUP1 RETURNDATACOPY RETURNDATASIZE PUSH1 0x0 REVERT JUMPDEST POP POP POP POP PUSH1 0x40 MLOAD RETURNDATASIZE PUSH1 0x1F NOT PUSH1 0x1F DUP3 ADD AND DUP3 ADD DUP1 PUSH1 0x40 MSTORE POP DUP2 ADD SWAP1 PUSH2 0x322 SWAP2 SWAP1 PUSH2 0x7C6 JUMP JUMPDEST DUP1 SWAP3 POP DUP2 SWAP4 POP POP POP JUMPDEST JUMPDEST DUP2 DUP2 SWAP4 POP SWAP4 POP POP POP SWAP4 POP SWAP4 SWAP2 POP POP JUMP JUMPDEST PUSH2 0x344 PUSH2 0x407 JUMP JUMPDEST PUSH2 0x34E PUSH1 0x0 PUSH2 0x485 JUMP JUMPDEST JUMP JUMPDEST PUSH1 0x0 DUP1 PUSH1 0x0 SWAP1 SLOAD SWAP1 PUSH2 0x100 EXP SWAP1 DIV PUSH20 0xFFFFFFFFFFFFFFFFFFFFFFFFFFFFFFFFFFFFFFFF AND SWAP1 POP SWAP1 JUMP JUMPDEST PUSH4 0x2A55205A PUSH1 0xE0 SHL DUP2 JUMP JUMPDEST PUSH2 0x38C PUSH2 0x407 JUMP JUMPDEST PUSH1 0x0 PUSH20 0xFFFFFFFFFFFFFFFFFFFFFFFFFFFFFFFFFFFFFFFF AND DUP2 PUSH20 0xFFFFFFFFFFFFFFFFFFFFFFFFFFFFFFFFFFFFFFFF AND SUB PUSH2 0x3FB JUMPI PUSH1 0x40 MLOAD PUSH32 0x8C379A000000000000000000000000000000000000000000000000000000000 DUP2 MSTORE PUSH1 0x4 ADD PUSH2 0x3F2 SWAP1 PUSH2 0x917 JUMP JUMPDEST PUSH1 0x40 MLOAD DUP1 SWAP2 SUB SWAP1 REVERT JUMPDEST PUSH2 0x404 DUP2 PUSH2 0x485 JUMP JUMPDEST POP JUMP JUMPDEST PUSH2 0x40F PUSH2 0x549 JUMP JUMPDEST PUSH20 0xFFFFFFFFFFFFFFFFFFFFFFFFFFFFFFFFFFFFFFFF AND PUSH2 0x42D PUSH2 0x350 JUMP JUMPDEST PUSH20 0xFFFFFFFFFFFFFFFFFFFFFFFFFFFFFFFFFFFFFFFF AND EQ PUSH2 0x483 JUMPI PUSH1 0x40 MLOAD PUSH32 0x8C379A000000000000000000000000000000000000000000000000000000000 DUP2 MSTORE PUSH1 0x4 ADD PUSH2 0x47A SWAP1 PUSH2 0x983 JUMP JUMPDEST PUSH1 0x40 MLOAD DUP1 SWAP2 SUB SWAP1 REVERT JUMPDEST JUMP JUMPDEST PUSH1 0x0 DUP1 PUSH1 0x0 SWAP1 SLOAD SWAP1 PUSH2 0x100 EXP SWAP1 DIV PUSH20 0xFFFFFFFFFFFFFFFFFFFFFFFFFFFFFFFFFFFFFFFF AND SWAP1 POP DUP2 PUSH1 0x0 DUP1 PUSH2 0x100 EXP DUP2 SLOAD DUP2 PUSH20 0xFFFFFFFFFFFFFFFFFFFFFFFFFFFFFFFFFFFFFFFF MUL NOT AND SWAP1 DUP4 PUSH20 0xFFFFFFFFFFFFFFFFFFFFFFFFFFFFFFFFFFFFFFFF AND MUL OR SWAP1 SSTORE POP DUP2 PUSH20 0xFFFFFFFFFFFFFFFFFFFFFFFFFFFFFFFFFFFFFFFF AND DUP2 PUSH20 0xFFFFFFFFFFFFFFFFFFFFFFFFFFFFFFFFFFFFFFFF AND PUSH32 0x8BE0079C531659141344CD1FD0A4F28419497F9722A3DAAFE3B4186F6B6457E0 PUSH1 0x40 MLOAD PUSH1 0x40 MLOAD DUP1 SWAP2 SUB SWAP1 LOG3 POP POP JUMP JUMPDEST PUSH1 0x0 CALLER SWAP1 POP SWAP1 JUMP JUMPDEST PUSH1 0x0 PUSH20 0xFFFFFFFFFFFFFFFFFFFFFFFFFFFFFFFFFFFFFFFF DUP3 AND SWAP1 POP SWAP2 SWAP1 POP JUMP JUMPDEST PUSH1 0x0 DUP2 SWAP1 POP SWAP2 SWAP1 POP JUMP JUMPDEST PUSH1 0x0 PUSH2 0x596 PUSH2 0x591 PUSH2 0x58C DUP5 PUSH2 0x551 JUMP JUMPDEST PUSH2 0x571 JUMP JUMPDEST PUSH2 0x551 JUMP JUMPDEST SWAP1 POP SWAP2 SWAP1 POP JUMP JUMPDEST PUSH1 0x0 PUSH2 0x5A8 DUP3 PUSH2 0x57B JUMP JUMPDEST SWAP1 POP SWAP2 SWAP1 POP JUMP JUMPDEST PUSH1 0x0 PUSH2 0x5BA DUP3 PUSH2 0x59D JUMP JUMPDEST SWAP1 POP SWAP2 SWAP1 POP JUMP JUMPDEST PUSH2 0x5CA DUP2 PUSH2 0x5AF JUMP JUMPDEST DUP3 MSTORE POP POP JUMP JUMPDEST PUSH1 0x0 PUSH1 0x20 DUP3 ADD SWAP1 POP PUSH2 0x5E5 PUSH1 0x0 DUP4 ADD DUP5 PUSH2 0x5C1 JUMP JUMPDEST SWAP3 SWAP2 POP POP JUMP JUMPDEST PUSH1 0x0 DUP1 REVERT JUMPDEST PUSH1 0x0 PUSH2 0x5FB DUP3 PUSH2 0x551 JUMP JUMPDEST SWAP1 POP SWAP2 SWAP1 POP JUMP JUMPDEST PUSH2 0x60B DUP2 PUSH2 0x5F0 JUMP JUMPDEST DUP2 EQ PUSH2 0x616 JUMPI PUSH1 0x0 DUP1 REVERT JUMPDEST POP JUMP JUMPDEST PUSH1 0x0 DUP2 CALLDATALOAD SWAP1 POP PUSH2 0x628 DUP2 PUSH2 0x602 JUMP JUMPDEST SWAP3 SWAP2 POP POP JUMP JUMPDEST PUSH1 0x0 DUP2 SWAP1 POP SWAP2 SWAP1 POP JUMP JUMPDEST PUSH2 0x641 DUP2 PUSH2 0x62E JUMP JUMPDEST DUP2 EQ PUSH2 0x64C JUMPI PUSH1 0x0 DUP1 REVERT JUMPDEST POP JUMP JUMPDEST PUSH1 0x0 DUP2 CALLDATALOAD SWAP1 POP PUSH2 0x65E DUP2 PUSH2 0x638 JUMP JUMPDEST SWAP3 SWAP2 POP POP JUMP JUMPDEST PUSH1 0x0 DUP1 PUSH1 0x0 PUSH1 0x60 DUP5 DUP7 SUB SLT ISZERO PUSH2 0x67D JUMPI PUSH2 0x67C PUSH2 0x5EB JUMP JUMPDEST JUMPDEST PUSH1 0x0 PUSH2 0x68B DUP7 DUP3 DUP8 ADD PUSH2 0x619 JUMP JUMPDEST SWAP4 POP POP PUSH1 0x20 PUSH2 0x69C DUP7 DUP3 DUP8 ADD PUSH2 0x64F JUMP JUMPDEST SWAP3 POP POP PUSH1 0x40 PUSH2 0x6AD DUP7 DUP3 DUP8 ADD PUSH2 0x64F JUMP JUMPDEST SWAP2 POP POP SWAP3 POP SWAP3 POP SWAP3 JUMP JUMPDEST PUSH2 0x6C0 DUP2 PUSH2 0x5F0 JUMP JUMPDEST DUP3 MSTORE POP POP JUMP JUMPDEST PUSH2 0x6CF DUP2 PUSH2 0x62E JUMP JUMPDEST DUP3 MSTORE POP POP JUMP JUMPDEST PUSH1 0x0 PUSH1 0x40 DUP3 ADD SWAP1 POP PUSH2 0x6EA PUSH1 0x0 DUP4 ADD DUP6 PUSH2 0x6B7 JUMP JUMPDEST PUSH2 0x6F7 PUSH1 0x20 DUP4 ADD DUP5 PUSH2 0x6C6 JUMP JUMPDEST SWAP4 SWAP3 POP POP POP JUMP JUMPDEST PUSH1 0x0 PUSH1 0x20 DUP3 ADD SWAP1 POP PUSH2 0x713 PUSH1 0x0 DUP4 ADD DUP5 PUSH2 0x6B7 JUMP JUMPDEST SWAP3 SWAP2 POP POP JUMP JUMPDEST PUSH1 0x0 PUSH32 0xFFFFFFFF00000000000000000000000000000000000000000000000000000000 DUP3 AND SWAP1 POP SWAP2 SWAP1 POP JUMP JUMPDEST PUSH2 0x74E DUP2 PUSH2 0x719 JUMP JUMPDEST DUP3 MSTORE POP POP JUMP JUMPDEST PUSH1 0x0 PUSH1 0x20 DUP3 ADD SWAP1 POP PUSH2 0x769 PUSH1 0x0 DUP4 ADD DUP5 PUSH2 0x745 JUMP JUMPDEST SWAP3 SWAP2 POP POP JUMP JUMPDEST PUSH1 0x0 PUSH1 0x20 DUP3 DUP5 SUB SLT ISZERO PUSH2 0x785 JUMPI PUSH2 0x784 PUSH2 0x5EB JUMP JUMPDEST JUMPDEST PUSH1 0x0 PUSH2 0x793 DUP5 DUP3 DUP6 ADD PUSH2 0x619 JUMP JUMPDEST SWAP2 POP POP SWAP3 SWAP2 POP POP JUMP JUMPDEST PUSH1 0x0 DUP2 MLOAD SWAP1 POP PUSH2 0x7AB DUP2 PUSH2 0x602 JUMP JUMPDEST SWAP3 SWAP2 POP POP JUMP JUMPDEST PUSH1 0x0 DUP2 MLOAD SWAP1 POP PUSH2 0x7C0 DUP2 PUSH2 0x638 JUMP JUMPDEST SWAP3 SWAP2 POP POP JUMP JUMPDEST PUSH1 0x0 DUP1 PUSH1 0x40 DUP4 DUP6 SUB SLT ISZERO PUSH2 0x7DD JUMPI PUSH2 0x7DC PUSH2 0x5EB JUMP JUMPDEST JUMPDEST PUSH1 0x0 PUSH2 0x7EB DUP6 DUP3 DUP7 ADD PUSH2 0x79C JUMP JUMPDEST SWAP3 POP POP PUSH1 0x20 PUSH2 0x7FC DUP6 DUP3 DUP7 ADD PUSH2 0x7B1 JUMP JUMPDEST SWAP2 POP POP SWAP3 POP SWAP3 SWAP1 POP JUMP JUMPDEST PUSH1 0x0 DUP2 ISZERO ISZERO SWAP1 POP SWAP2 SWAP1 POP JUMP JUMPDEST PUSH2 0x81B DUP2 PUSH2 0x806 JUMP JUMPDEST DUP2 EQ PUSH2 0x826 JUMPI PUSH1 0x0 DUP1 REVERT JUMPDEST POP JUMP JUMPDEST PUSH1 0x0 DUP2 MLOAD SWAP1 POP PUSH2 0x838 DUP2 PUSH2 0x812 JUMP JUMPDEST SWAP3 SWAP2 POP POP JUMP JUMPDEST PUSH1 0x0 PUSH1 0x20 DUP3 DUP5 SUB SLT ISZERO PUSH2 0x854 JUMPI PUSH2 0x853 PUSH2 0x5EB JUMP JUMPDEST JUMPDEST PUSH1 0x0 PUSH2 0x862 DUP5 DUP3 DUP6 ADD PUSH2 0x829 JUMP JUMPDEST SWAP2 POP POP SWAP3 SWAP2 POP POP JUMP JUMPDEST PUSH1 0x0 PUSH1 0x40 DUP3 ADD SWAP1 POP PUSH2 0x880 PUSH1 0x0 DUP4 ADD DUP6 PUSH2 0x6C6 JUMP JUMPDEST PUSH2 0x88D PUSH1 0x20 DUP4 ADD DUP5 PUSH2 0x6C6 JUMP JUMPDEST SWAP4 SWAP3 POP POP POP JUMP JUMPDEST PUSH1 0x0 DUP3 DUP3 MSTORE PUSH1 0x20 DUP3 ADD SWAP1 POP SWAP3 SWAP2 POP POP JUMP JUMPDEST PUSH32 0x4F776E61626C653A206E6577206F776E657220697320746865207A65726F2061 PUSH1 0x0 DUP3 ADD MSTORE PUSH32 0x6464726573730000000000000000000000000000000000000000000000000000 PUSH1 0x20 DUP3 ADD MSTORE POP JUMP JUMPDEST PUSH1 0x0 PUSH2 0x901 PUSH1 0x26 DUP4 PUSH2 0x894 JUMP JUMPDEST SWAP2 POP PUSH2 0x90C DUP3 PUSH2 0x8A5 JUMP JUMPDEST PUSH1 0x40 DUP3 ADD SWAP1 POP SWAP2 SWAP1 POP JUMP JUMPDEST PUSH1 0x0 PUSH1 0x20 DUP3 ADD SWAP1 POP DUP2 DUP2 SUB PUSH1 0x0 DUP4 ADD MSTORE PUSH2 0x930 DUP2 PUSH2 0x8F4 JUMP JUMPDEST SWAP1 POP SWAP2 SWAP1 POP JUMP JUMPDEST PUSH32 0x4F776E61626C653A2063616C6C6572206973206E6F7420746865206F776E6572 PUSH1 0x0 DUP3 ADD MSTORE POP JUMP JUMPDEST PUSH1 0x0 PUSH2 0x96D PUSH1 0x20 DUP4 PUSH2 0x894 JUMP JUMPDEST SWAP2 POP PUSH2 0x978 DUP3 PUSH2 0x937 JUMP JUMPDEST PUSH1 0x20 DUP3 ADD SWAP1 POP SWAP2 SWAP1 POP JUMP JUMPDEST PUSH1 0x0 PUSH1 0x20 DUP3 ADD SWAP1 POP DUP2 DUP2 SUB PUSH1 0x0 DUP4 ADD MSTORE PUSH2 0x99C DUP2 PUSH2 0x960 JUMP JUMPDEST SWAP1 POP SWAP2 SWAP1 POP JUMP INVALID LOG2 PUSH5 0x6970667358 0x22 SLT KECCAK256 PUSH13 0x59E2C64C28A84350B90A46E6D4 0x4F 0xED 0xB1 0x5E 0xCE SWAP5 GASPRICE PUSH11 0xE6AAB2F5CFE497D327E664 PUSH20 0x6F6C634300081300330000000000000000000000 "
				},
				"gasEstimates": {
					"creation": {
						"codeDepositCost": "504200",
						"executionCost": "infinite",
						"totalCost": "infinite"
					},
					"external": {
						"INTERFACE_ID_ERC2981()": "407",
						"owner()": "2566",
						"recipientWithroyaltyDeductionAmount(address,uint256,uint256)": "infinite",
						"renounceOwnership()": "30420",
						"royalty()": "infinite",
						"transferOwnership(address)": "30832"
					}
				},
				"methodIdentifiers": {
					"INTERFACE_ID_ERC2981()": "b060dd86",
					"owner()": "8da5cb5b",
					"recipientWithroyaltyDeductionAmount(address,uint256,uint256)": "40e7b540",
					"renounceOwnership()": "715018a6",
					"royalty()": "29ee566c",
					"transferOwnership(address)": "f2fde38b"
				}
			},
			"storageLayout": {
				"storage": [
					{
						"astId": 7,
						"contract": "hardhat/contracts/RoyaltyManager.sol:RoyaltyManager",
						"label": "_owner",
						"offset": 0,
						"slot": "0",
						"type": "t_address"
					}
				],
				"types": {
					"t_address": {
						"encoding": "inplace",
						"label": "address",
						"numberOfBytes": "20"
					}
				}
			},
			"userdoc": {
				"kind": "user",
				"methods": {},
				"version": 1
			}
		}
	}
}