{
  "contractName": "CFNAccessControl",
  "abi": [
    {
      "inputs": [],
      "stateMutability": "nonpayable",
      "type": "constructor"
    },
    {
      "anonymous": false,
      "inputs": [
        {
          "indexed": false,
          "internalType": "address",
          "name": "con",
          "type": "address"
        }
      ],
      "name": "BlackListControlAdded",
      "type": "event"
    },
    {
      "anonymous": false,
      "inputs": [
        {
          "indexed": false,
          "internalType": "address",
          "name": "con",
          "type": "address"
        }
      ],
      "name": "BlackListControlRemoved",
      "type": "event"
    },
    {
      "anonymous": false,
      "inputs": [
        {
          "indexed": false,
          "internalType": "address",
          "name": "addr",
          "type": "address"
        }
      ],
      "name": "BlackListWalletAdded",
      "type": "event"
    },
    {
      "anonymous": false,
      "inputs": [
        {
          "indexed": false,
          "internalType": "address",
          "name": "addr",
          "type": "address"
        }
      ],
      "name": "BlackListWalletRemoved",
      "type": "event"
    },
    {
      "anonymous": false,
      "inputs": [
        {
          "indexed": true,
          "internalType": "address",
          "name": "previousOwner",
          "type": "address"
        },
        {
          "indexed": true,
          "internalType": "address",
          "name": "newOwner",
          "type": "address"
        }
      ],
      "name": "OwnershipTransferred",
      "type": "event"
    },
    {
      "anonymous": false,
      "inputs": [
        {
          "indexed": false,
          "internalType": "address",
          "name": "con",
          "type": "address"
        }
      ],
      "name": "WhiteListControlAdded",
      "type": "event"
    },
    {
      "anonymous": false,
      "inputs": [
        {
          "indexed": false,
          "internalType": "address",
          "name": "con",
          "type": "address"
        }
      ],
      "name": "WhiteListControlRemoved",
      "type": "event"
    },
    {
      "anonymous": false,
      "inputs": [
        {
          "indexed": false,
          "internalType": "address",
          "name": "addr",
          "type": "address"
        }
      ],
      "name": "WhiteListWalletAdded",
      "type": "event"
    },
    {
      "anonymous": false,
      "inputs": [
        {
          "indexed": false,
          "internalType": "address",
          "name": "addr",
          "type": "address"
        }
      ],
      "name": "WhiteListWalletRemoved",
      "type": "event"
    },
    {
      "inputs": [
        {
          "internalType": "address",
          "name": "",
          "type": "address"
        }
      ],
      "name": "blackListControlAddress",
      "outputs": [
        {
          "internalType": "bool",
          "name": "",
          "type": "bool"
        }
      ],
      "stateMutability": "view",
      "type": "function"
    },
    {
      "inputs": [
        {
          "internalType": "address",
          "name": "",
          "type": "address"
        }
      ],
      "name": "blackListWallet",
      "outputs": [
        {
          "internalType": "bool",
          "name": "",
          "type": "bool"
        }
      ],
      "stateMutability": "view",
      "type": "function"
    },
    {
      "inputs": [],
      "name": "owner",
      "outputs": [
        {
          "internalType": "address",
          "name": "",
          "type": "address"
        }
      ],
      "stateMutability": "view",
      "type": "function"
    },
    {
      "inputs": [],
      "name": "renounceOwnership",
      "outputs": [],
      "stateMutability": "nonpayable",
      "type": "function"
    },
    {
      "inputs": [
        {
          "internalType": "address",
          "name": "newOwner",
          "type": "address"
        }
      ],
      "name": "transferOwnership",
      "outputs": [],
      "stateMutability": "nonpayable",
      "type": "function"
    },
    {
      "inputs": [
        {
          "internalType": "address",
          "name": "",
          "type": "address"
        }
      ],
      "name": "whiteListControlAddress",
      "outputs": [
        {
          "internalType": "bool",
          "name": "",
          "type": "bool"
        }
      ],
      "stateMutability": "view",
      "type": "function"
    },
    {
      "inputs": [
        {
          "internalType": "address",
          "name": "",
          "type": "address"
        }
      ],
      "name": "whiteListWallet",
      "outputs": [
        {
          "internalType": "bool",
          "name": "",
          "type": "bool"
        }
      ],
      "stateMutability": "view",
      "type": "function"
    },
    {
      "inputs": [
        {
          "internalType": "address",
          "name": "_addr",
          "type": "address"
        }
      ],
      "name": "addWhiteListWallet",
      "outputs": [
        {
          "internalType": "bool",
          "name": "success",
          "type": "bool"
        }
      ],
      "stateMutability": "nonpayable",
      "type": "function"
    },
    {
      "inputs": [
        {
          "internalType": "address",
          "name": "_addr",
          "type": "address"
        }
      ],
      "name": "removeWhiteListWallet",
      "outputs": [
        {
          "internalType": "bool",
          "name": "success",
          "type": "bool"
        }
      ],
      "stateMutability": "nonpayable",
      "type": "function"
    },
    {
      "inputs": [
        {
          "internalType": "address",
          "name": "_addr",
          "type": "address"
        }
      ],
      "name": "addBlackListWallet",
      "outputs": [
        {
          "internalType": "bool",
          "name": "success",
          "type": "bool"
        }
      ],
      "stateMutability": "nonpayable",
      "type": "function"
    },
    {
      "inputs": [
        {
          "internalType": "address",
          "name": "_addr",
          "type": "address"
        }
      ],
      "name": "removeBlackListWallet",
      "outputs": [
        {
          "internalType": "bool",
          "name": "success",
          "type": "bool"
        }
      ],
      "stateMutability": "nonpayable",
      "type": "function"
    },
    {
      "inputs": [
        {
          "internalType": "address",
          "name": "_addr",
          "type": "address"
        }
      ],
      "name": "addWhiteListControl",
      "outputs": [
        {
          "internalType": "bool",
          "name": "success",
          "type": "bool"
        }
      ],
      "stateMutability": "nonpayable",
      "type": "function"
    },
    {
      "inputs": [
        {
          "internalType": "address",
          "name": "_addr",
          "type": "address"
        }
      ],
      "name": "removeWhiteListControl",
      "outputs": [
        {
          "internalType": "bool",
          "name": "success",
          "type": "bool"
        }
      ],
      "stateMutability": "nonpayable",
      "type": "function"
    },
    {
      "inputs": [
        {
          "internalType": "address",
          "name": "_addr",
          "type": "address"
        }
      ],
      "name": "addBlackListControl",
      "outputs": [
        {
          "internalType": "bool",
          "name": "success",
          "type": "bool"
        }
      ],
      "stateMutability": "nonpayable",
      "type": "function"
    },
    {
      "inputs": [
        {
          "internalType": "address",
          "name": "_addr",
          "type": "address"
        }
      ],
      "name": "removeBlackListControl",
      "outputs": [
        {
          "internalType": "bool",
          "name": "success",
          "type": "bool"
        }
      ],
      "stateMutability": "nonpayable",
      "type": "function"
    }
  ],
  "bytecode": "0x608060405234801561001057600080fd5b5061001a33610033565b61002333610083565b5061002d3361010f565b506101ed565b600080546001600160a01b038381166001600160a01b0319831681178455604051919092169283917f8be0079c531659141344cd1fd0a4f28419497f9722a3daafe3b4186f6b6457e09190a35050565b600061008d61018d565b6001600160a01b03821660009081526001602052604090205460ff1661010a576001600160a01b038216600081815260016020818152604092839020805460ff191690921790915590519182527f620122fa78b248d01eaf322d678806f5540f62aab4aa7e78295878ca18ee3fdd91015b60405180910390a15060015b919050565b600061011961018d565b6001600160a01b03821660009081526003602052604090205460ff1661010a576001600160a01b038216600081815260036020908152604091829020805460ff1916600117905590519182527f0a3f8c53532f4b760b9032b22eb16ace4b2fca20a3ab41b36df29e00b255f7bf91016100fe565b6000546001600160a01b031633146101eb5760405162461bcd60e51b815260206004820181905260248201527f4f776e61626c653a2063616c6c6572206973206e6f7420746865206f776e6572604482015260640160405180910390fd5b565b610803806101fc6000396000f3fe608060405234801561001057600080fd5b50600436106100f55760003560e01c8063958837c711610097578063d5597fae11610066578063d5597fae146101ff578063ee1ccba414610222578063f2fde38b14610245578063fac6529a1461025857600080fd5b8063958837c7146101a35780639e069fda146101b6578063b7ced53b146101d9578063cdd06726146101ec57600080fd5b8063715018a6116100d3578063715018a6146101485780637e3c62f2146101525780638da5cb5b1461017557806392fc8b801461019057600080fd5b806331690b44146100fa5780634b983cd614610122578063556717c714610135575b600080fd5b61010d61010836600461079d565b61026b565b60405190151581526020015b60405180910390f35b61010d61013036600461079d565b6102f7565b61010d61014336600461079d565b610375565b6101506103f1565b005b61010d61016036600461079d565b60036020526000908152604090205460ff1681565b6000546040516001600160a01b039091168152602001610119565b61010d61019e36600461079d565b610405565b61010d6101b136600461079d565b610483565b61010d6101c436600461079d565b60046020526000908152604090205460ff1681565b61010d6101e736600461079d565b6104ff565b61010d6101fa36600461079d565b61057b565b61010d61020d36600461079d565b60026020526000908152604090205460ff1681565b61010d61023036600461079d565b60016020526000908152604090205460ff1681565b61015061025336600461079d565b6105f9565b61010d61026636600461079d565b610677565b60006102756106f3565b6001600160a01b03821660009081526001602052604090205460ff166102f2576001600160a01b038216600081815260016020818152604092839020805460ff191690921790915590519182527f620122fa78b248d01eaf322d678806f5540f62aab4aa7e78295878ca18ee3fdd91015b60405180910390a15060015b919050565b60006103016106f3565b6001600160a01b03821660009081526002602052604090205460ff166102f2576001600160a01b038216600081815260026020908152604091829020805460ff1916600117905590519182527f1eaa518dc1312d6fc3868c839b40e6123c162e78577a549ad3b94b3b0d13087891016102e6565b600061037f6106f3565b6001600160a01b03821660009081526003602052604090205460ff16156102f2576001600160a01b038216600081815260036020908152604091829020805460ff1916905590519182527f636546dbfe32c6240cc3ffb5b0d01f09c052d3a70ff5bdefd1a3a8b11e2b178991016102e6565b6103f96106f3565b610403600061074d565b565b600061040f6106f3565b6001600160a01b03821660009081526004602052604090205460ff166102f2576001600160a01b038216600081815260046020908152604091829020805460ff1916600117905590519182527f5b277f2dc0503691fa3805fda34c6ff5f613d6450b3f6c9a4d96a451e0ef1a4591016102e6565b600061048d6106f3565b6001600160a01b03821660009081526004602052604090205460ff16156102f2576001600160a01b038216600081815260046020908152604091829020805460ff1916905590519182527f9414c3a9d101379c95b1703ea74a53a1dea481bc63f25361dd2399249ac05e2b91016102e6565b60006105096106f3565b6001600160a01b03821660009081526001602052604090205460ff16156102f2576001600160a01b038216600081815260016020908152604091829020805460ff1916905590519182527fed713710372951898c2298e5bb0c1eb943d4c17fa54018c3d461161f3075e81a91016102e6565b60006105856106f3565b6001600160a01b03821660009081526003602052604090205460ff166102f2576001600160a01b038216600081815260036020908152604091829020805460ff1916600117905590519182527f0a3f8c53532f4b760b9032b22eb16ace4b2fca20a3ab41b36df29e00b255f7bf91016102e6565b6106016106f3565b6001600160a01b03811661066b5760405162461bcd60e51b815260206004820152602660248201527f4f776e61626c653a206e6577206f776e657220697320746865207a65726f206160448201526564647265737360d01b60648201526084015b60405180910390fd5b6106748161074d565b50565b60006106816106f3565b6001600160a01b03821660009081526002602052604090205460ff16156102f2576001600160a01b038216600081815260026020908152604091829020805460ff1916905590519182527faaec304bcb58f4c1a291aadc066bdbbcfbf9bf9c2cea1394d8e3d0dc1fe5eb6891016102e6565b6000546001600160a01b031633146104035760405162461bcd60e51b815260206004820181905260248201527f4f776e61626c653a2063616c6c6572206973206e6f7420746865206f776e65726044820152606401610662565b600080546001600160a01b038381166001600160a01b0319831681178455604051919092169283917f8be0079c531659141344cd1fd0a4f28419497f9722a3daafe3b4186f6b6457e09190a35050565b6000602082840312156107af57600080fd5b81356001600160a01b03811681146107c657600080fd5b939250505056fea2646970667358221220f088d3e78654afbf2577c173fd5d6387af431fa7eeddf9e722297a58171b6d7864736f6c63430008070033",
  "immutableReferences": {},
  "source": "// SPDX-License-Identifier: MIT\npragma solidity ^0.8.1;\n\nimport \"@openzeppelin/contracts/access/Ownable.sol\";\n\ncontract CFNAccessControl is Ownable {\n    // mapping\n    // wallet control\n    mapping(address => bool) public whiteListWallet;\n    mapping(address => bool) public blackListWallet;\n    // admin control\n    mapping(address => bool) public whiteListControlAddress;\n    mapping(address => bool) public blackListControlAddress;\n\n    // event\n    // wallet event\n    event WhiteListWalletAdded(address addr);\n    event WhiteListWalletRemoved(address addr);\n    event BlackListWalletAdded(address addr);\n    event BlackListWalletRemoved(address addr);\n    // admin event\n    event WhiteListControlAdded(address con);\n    event WhiteListControlRemoved(address con);\n    event BlackListControlAdded(address con);\n    event BlackListControlRemoved(address con);\n\n    constructor() {\n        addWhiteListWallet(msg.sender);\n        addWhiteListControl(msg.sender);\n    }\n\n    // function\n    // wallet function\n    function addWhiteListWallet(\n        address _addr\n    ) public onlyOwner returns (bool success) {\n        if (!whiteListWallet[_addr]) {\n            whiteListWallet[_addr] = true;\n            emit WhiteListWalletAdded(_addr);\n            success = true;\n        }\n    }\n\n    function removeWhiteListWallet(\n        address _addr\n    ) public onlyOwner returns (bool success) {\n        if (whiteListWallet[_addr]) {\n            whiteListWallet[_addr] = false;\n            emit WhiteListWalletRemoved(_addr);\n            success = true;\n        }\n    }\n\n    function addBlackListWallet(\n        address _addr\n    ) public onlyOwner returns (bool success) {\n        if (!blackListWallet[_addr]) {\n            blackListWallet[_addr] = true;\n            emit BlackListWalletAdded(_addr);\n            success = true;\n        }\n    }\n\n    function removeBlackListWallet(\n        address _addr\n    ) public onlyOwner returns (bool success) {\n        if (blackListWallet[_addr]) {\n            blackListWallet[_addr] = false;\n            emit BlackListWalletRemoved(_addr);\n            success = true;\n        }\n    }\n\n    // admin function\n    function addWhiteListControl(\n        address _addr\n    ) public onlyOwner returns (bool success) {\n        if (!whiteListControlAddress[_addr]) {\n            whiteListControlAddress[_addr] = true;\n            emit WhiteListControlAdded(_addr);\n            success = true;\n        }\n    }\n\n    function removeWhiteListControl(\n        address _addr\n    ) public onlyOwner returns (bool success) {\n        if (whiteListControlAddress[_addr]) {\n            whiteListControlAddress[_addr] = false;\n            emit WhiteListControlRemoved(_addr);\n            success = true;\n        }\n    }\n\n    function addBlackListControl(\n        address _addr\n    ) public onlyOwner returns (bool success) {\n        if (!blackListControlAddress[_addr]) {\n            blackListControlAddress[_addr] = true;\n            emit BlackListControlAdded(_addr);\n            success = true;\n        }\n    }\n\n    function removeBlackListControl(\n        address _addr\n    ) public onlyOwner returns (bool success) {\n        if (blackListControlAddress[_addr]) {\n            blackListControlAddress[_addr] = false;\n            emit BlackListControlRemoved(_addr);\n            success = true;\n        }\n    }\n}\n",
  "sourcePath": "/Users/minki/Desktop/Codberg/cock-fight-network-contrats/contracts/cock-fight/access/CFNAccessControl.sol",
  "compiler": {
    "name": "solc",
    "version": "0.8.7+commit.e28d00a7.Emscripten.clang"
  },
  "schemaVersion": "3.4.16",
  "updatedAt": "2025-04-15T23:46:43.661Z",
  "devdoc": {
    "kind": "dev",
    "methods": {
      "owner()": {
        "details": "Returns the address of the current owner."
      },
      "renounceOwnership()": {
        "details": "Leaves the contract without owner. It will not be possible to call `onlyOwner` functions. Can only be called by the current owner. NOTE: Renouncing ownership will leave the contract without an owner, thereby disabling any functionality that is only available to the owner."
      },
      "transferOwnership(address)": {
        "details": "Transfers ownership of the contract to a new account (`newOwner`). Can only be called by the current owner."
      }
    },
    "version": 1
  },
  "userdoc": {
    "kind": "user",
    "methods": {},
    "version": 1
  }
}