{
  "contractName": "CFNSwap",
  "abi": [
    {
      "inputs": [
        {
          "internalType": "address",
          "name": "_accessControl",
          "type": "address"
        },
        {
          "internalType": "address",
          "name": "_cfnContract",
          "type": "address"
        },
        {
          "internalType": "address",
          "name": "_receiveWallet",
          "type": "address"
        }
      ],
      "stateMutability": "nonpayable",
      "type": "constructor"
    },
    {
      "anonymous": false,
      "inputs": [
        {
          "indexed": true,
          "internalType": "address",
          "name": "_account",
          "type": "address"
        },
        {
          "indexed": false,
          "internalType": "uint256",
          "name": "_gmmtAmount",
          "type": "uint256"
        },
        {
          "indexed": false,
          "internalType": "uint256",
          "name": "_cfnAmount",
          "type": "uint256"
        }
      ],
      "name": "SwapExactGMMTForExactTokens",
      "type": "event"
    },
    {
      "anonymous": false,
      "inputs": [
        {
          "indexed": true,
          "internalType": "address",
          "name": "wallet",
          "type": "address"
        }
      ],
      "name": "UpdateAccessControl",
      "type": "event"
    },
    {
      "anonymous": false,
      "inputs": [
        {
          "indexed": true,
          "internalType": "address",
          "name": "wallet",
          "type": "address"
        }
      ],
      "name": "UpdateErc20TokenManager",
      "type": "event"
    },
    {
      "anonymous": false,
      "inputs": [
        {
          "indexed": true,
          "internalType": "address",
          "name": "wallet",
          "type": "address"
        },
        {
          "indexed": false,
          "internalType": "bool",
          "name": "_rate",
          "type": "bool"
        }
      ],
      "name": "UpdateIsSale",
      "type": "event"
    },
    {
      "anonymous": false,
      "inputs": [
        {
          "indexed": true,
          "internalType": "address",
          "name": "wallet",
          "type": "address"
        },
        {
          "indexed": false,
          "internalType": "uint256",
          "name": "_maxCFNSwapAmount",
          "type": "uint256"
        }
      ],
      "name": "UpdateMaxCFNSwapAmount",
      "type": "event"
    },
    {
      "anonymous": false,
      "inputs": [
        {
          "indexed": true,
          "internalType": "address",
          "name": "wallet",
          "type": "address"
        },
        {
          "indexed": false,
          "internalType": "uint256",
          "name": "_rate",
          "type": "uint256"
        }
      ],
      "name": "UpdateRate",
      "type": "event"
    },
    {
      "anonymous": false,
      "inputs": [
        {
          "indexed": true,
          "internalType": "address",
          "name": "wallet",
          "type": "address"
        }
      ],
      "name": "UpdateReceiveWallet",
      "type": "event"
    },
    {
      "anonymous": false,
      "inputs": [
        {
          "indexed": true,
          "internalType": "address",
          "name": "wallet",
          "type": "address"
        },
        {
          "indexed": false,
          "internalType": "uint256",
          "name": "amount",
          "type": "uint256"
        }
      ],
      "name": "WithdrawCoin",
      "type": "event"
    },
    {
      "anonymous": false,
      "inputs": [
        {
          "indexed": true,
          "internalType": "address",
          "name": "wallet",
          "type": "address"
        },
        {
          "indexed": false,
          "internalType": "uint256",
          "name": "amount",
          "type": "uint256"
        }
      ],
      "name": "WithdrawToken",
      "type": "event"
    },
    {
      "inputs": [],
      "name": "accessControl",
      "outputs": [
        {
          "internalType": "contract ICFNAccessControl",
          "name": "",
          "type": "address"
        }
      ],
      "stateMutability": "view",
      "type": "function"
    },
    {
      "inputs": [],
      "name": "erc20TokenManager",
      "outputs": [
        {
          "internalType": "contract IERC20",
          "name": "",
          "type": "address"
        }
      ],
      "stateMutability": "view",
      "type": "function"
    },
    {
      "inputs": [],
      "name": "isSale",
      "outputs": [
        {
          "internalType": "bool",
          "name": "",
          "type": "bool"
        }
      ],
      "stateMutability": "view",
      "type": "function"
    },
    {
      "inputs": [],
      "name": "maxCFNSwapAmount",
      "outputs": [
        {
          "internalType": "uint256",
          "name": "",
          "type": "uint256"
        }
      ],
      "stateMutability": "view",
      "type": "function"
    },
    {
      "inputs": [],
      "name": "rate",
      "outputs": [
        {
          "internalType": "uint256",
          "name": "",
          "type": "uint256"
        }
      ],
      "stateMutability": "view",
      "type": "function"
    },
    {
      "inputs": [],
      "name": "receiveWallet",
      "outputs": [
        {
          "internalType": "address payable",
          "name": "",
          "type": "address"
        }
      ],
      "stateMutability": "view",
      "type": "function"
    },
    {
      "inputs": [],
      "name": "totalSwapBalance",
      "outputs": [
        {
          "internalType": "uint256",
          "name": "",
          "type": "uint256"
        }
      ],
      "stateMutability": "view",
      "type": "function"
    },
    {
      "inputs": [
        {
          "internalType": "address",
          "name": "_ca",
          "type": "address"
        }
      ],
      "name": "setErc20TokenManager",
      "outputs": [],
      "stateMutability": "nonpayable",
      "type": "function"
    },
    {
      "inputs": [
        {
          "internalType": "address",
          "name": "_ca",
          "type": "address"
        }
      ],
      "name": "setAccessControl",
      "outputs": [],
      "stateMutability": "nonpayable",
      "type": "function"
    },
    {
      "inputs": [
        {
          "internalType": "address",
          "name": "_receiveWallet",
          "type": "address"
        }
      ],
      "name": "setReceiveWallet",
      "outputs": [],
      "stateMutability": "nonpayable",
      "type": "function"
    },
    {
      "inputs": [
        {
          "internalType": "uint256",
          "name": "_maxCFNSwapAmount",
          "type": "uint256"
        }
      ],
      "name": "setMaxCFNSwapAmount",
      "outputs": [],
      "stateMutability": "nonpayable",
      "type": "function"
    },
    {
      "inputs": [
        {
          "internalType": "uint256",
          "name": "_rate",
          "type": "uint256"
        }
      ],
      "name": "setRate",
      "outputs": [],
      "stateMutability": "nonpayable",
      "type": "function"
    },
    {
      "inputs": [
        {
          "internalType": "bool",
          "name": "_isSale",
          "type": "bool"
        }
      ],
      "name": "setIsSale",
      "outputs": [],
      "stateMutability": "nonpayable",
      "type": "function"
    },
    {
      "inputs": [
        {
          "internalType": "uint256",
          "name": "_amount",
          "type": "uint256"
        }
      ],
      "name": "getSwapCFNAmount",
      "outputs": [
        {
          "internalType": "uint256",
          "name": "",
          "type": "uint256"
        }
      ],
      "stateMutability": "view",
      "type": "function"
    },
    {
      "inputs": [
        {
          "internalType": "uint256",
          "name": "_amount",
          "type": "uint256"
        }
      ],
      "name": "getSwapCoinAmount",
      "outputs": [
        {
          "internalType": "uint256",
          "name": "",
          "type": "uint256"
        }
      ],
      "stateMutability": "view",
      "type": "function"
    },
    {
      "inputs": [],
      "name": "swapExactGMMTForExactTokens",
      "outputs": [],
      "stateMutability": "payable",
      "type": "function"
    },
    {
      "inputs": [],
      "name": "withdrawTokenAll",
      "outputs": [],
      "stateMutability": "nonpayable",
      "type": "function"
    },
    {
      "inputs": [
        {
          "internalType": "uint256",
          "name": "_amount",
          "type": "uint256"
        }
      ],
      "name": "withdrawToken",
      "outputs": [],
      "stateMutability": "nonpayable",
      "type": "function"
    },
    {
      "inputs": [],
      "name": "withdrawCoinAll",
      "outputs": [],
      "stateMutability": "nonpayable",
      "type": "function"
    },
    {
      "inputs": [
        {
          "internalType": "uint256",
          "name": "_amount",
          "type": "uint256"
        }
      ],
      "name": "withdrawCoin",
      "outputs": [],
      "stateMutability": "nonpayable",
      "type": "function"
    }
  ],
  "bytecode": "0x608060405269d3c21bcecceda1000000600455600060055560646006556007805460ff191660011790553480156200003657600080fd5b5060405162001af438038062001af4833981016040819052620000599162000170565b60016000556001600160a01b038216620000ba5760405162461bcd60e51b815260206004820152601560248201527f496e76616c69642045524332302061646472657373000000000000000000000060448201526064015b60405180910390fd5b6001600160a01b038316620001125760405162461bcd60e51b815260206004820152601d60248201527f496e76616c696420616363657373436f6e74726f6c20616464726573730000006044820152606401620000b1565b600180546001600160a01b03199081166001600160a01b039485161790915560028054821694841694909417909355600380549093169116179055620001ba565b80516001600160a01b03811681146200016b57600080fd5b919050565b6000806000606084860312156200018657600080fd5b620001918462000153565b9250620001a16020850162000153565b9150620001b16040850162000153565b90509250925092565b61192a80620001ca6000396000f3fe60806040526004361061011f5760003560e01c8063688d679d116100a0578063d300bb7711610064578063d300bb77146102fd578063e051ed471461031d578063ec756d351461033d578063f3a0741e1461035d578063f8c1c1861461036557600080fd5b8063688d679d1461027d5780637fc0254d1461029d5780639127e8a6146102b2578063b9ec4d11146102d2578063cb1d9da9146102e857600080fd5b80632c4e722e116100e75780632c4e722e146101e757806334fcf437146101fd5780634eb264e81461021d57806350baa6221461023d5780635d3132951461025d57600080fd5b8063039b2ed7146101245780631267a6ab1461014657806313007d551461016657806319129e5a146101a35780631fe35658146101c3575b600080fd5b34801561013057600080fd5b5061014461013f366004611751565b61038f565b005b34801561015257600080fd5b50610144610161366004611728565b61047b565b34801561017257600080fd5b50600254610186906001600160a01b031681565b6040516001600160a01b0390911681526020015b60405180910390f35b3480156101af57600080fd5b506101446101be366004611728565b61055e565b3480156101cf57600080fd5b506101d960055481565b60405190815260200161019a565b3480156101f357600080fd5b506101d960065481565b34801561020957600080fd5b5061014461021836600461178b565b610641565b34801561022957600080fd5b5061014461023836600461178b565b610710565b34801561024957600080fd5b5061014461025836600461178b565b61091a565b34801561026957600080fd5b50600354610186906001600160a01b031681565b34801561028957600080fd5b50600154610186906001600160a01b031681565b3480156102a957600080fd5b50610144610b95565b3480156102be57600080fd5b506101446102cd366004611728565b610e07565b3480156102de57600080fd5b506101d960045481565b3480156102f457600080fd5b50610144610eea565b34801561030957600080fd5b5061014461031836600461178b565b6110c8565b34801561032957600080fd5b506101d961033836600461178b565b611197565b34801561034957600080fd5b506101d961035836600461178b565b6111c1565b6101446111f8565b34801561037157600080fd5b5060075461037f9060ff1681565b604051901515815260200161019a565b600254604051633f1e317960e11b81523360048201819052916001600160a01b031690637e3c62f29060240160206040518083038186803b1580156103d357600080fd5b505afa1580156103e7573d6000803e3d6000fd5b505050506040513d601f19601f8201168201806040525081019061040b919061176e565b6104305760405162461bcd60e51b8152600401610427906117bd565b60405180910390fd5b6007805460ff191683151590811790915560405190815233907f1f6b7ce6ee33da6a8801b0f0c2c0000c0261db252b8efeb1a9cfa4259d7c12db906020015b60405180910390a25050565b600254604051633f1e317960e11b81523360048201819052916001600160a01b031690637e3c62f29060240160206040518083038186803b1580156104bf57600080fd5b505afa1580156104d3573d6000803e3d6000fd5b505050506040513d601f19601f820116820180604052508101906104f7919061176e565b6105135760405162461bcd60e51b8152600401610427906117bd565b600380546001600160a01b0319166001600160a01b0384169081179091556040517f44d65df39a87857396ef8f466beb2bb4de84e2b6db31ea2b8ef6ada4fd91153590600090a25050565b600254604051633f1e317960e11b81523360048201819052916001600160a01b031690637e3c62f29060240160206040518083038186803b1580156105a257600080fd5b505afa1580156105b6573d6000803e3d6000fd5b505050506040513d601f19601f820116820180604052508101906105da919061176e565b6105f65760405162461bcd60e51b8152600401610427906117bd565b600280546001600160a01b0319166001600160a01b0384169081179091556040517f9c4ea81d40a55f07816a450060f1aeeb7157dedb6fe693bd68053b8ba84eab6090600090a25050565b600254604051633f1e317960e11b81523360048201819052916001600160a01b031690637e3c62f29060240160206040518083038186803b15801561068557600080fd5b505afa158015610699573d6000803e3d6000fd5b505050506040513d601f19601f820116820180604052508101906106bd919061176e565b6106d95760405162461bcd60e51b8152600401610427906117bd565b600682905560405182815233907fc4133ae49d31ac5e256c186f577fcddc312792062ad1215eb4fe35f1d74062549060200161046f565b600254604051633f1e317960e11b81523360048201819052916001600160a01b031690637e3c62f29060240160206040518083038186803b15801561075457600080fd5b505afa158015610768573d6000803e3d6000fd5b505050506040513d601f19601f8201168201806040525081019061078c919061176e565b6107a85760405162461bcd60e51b8152600401610427906117bd565b6003546001600160a01b03166107d05760405162461bcd60e51b81526004016104279061182b565b600082116107f05760405162461bcd60e51b8152600401610427906117f4565b478281101561083c5760405162461bcd60e51b81526020600482015260186024820152772737ba1032b737bab3b41031b7b4b7103130b630b731b29760411b6044820152606401610427565b6003546040516000916001600160a01b03169085908381818185875af1925050503d8060008114610889576040519150601f19603f3d011682016040523d82523d6000602084013e61088e565b606091505b50509050806108d25760405162461bcd60e51b815260206004820152601060248201526f2a3930b739b332b9103330b4b632b21760811b6044820152606401610427565b6003546040518581526001600160a01b03909116907fe616ba007bccc294b9a44cd6823b1f1c3be4f5c6093b994d0070fc2a1b06ec419060200160405180910390a250505050565b600254604051633f1e317960e11b81523360048201819052916001600160a01b031690637e3c62f29060240160206040518083038186803b15801561095e57600080fd5b505afa158015610972573d6000803e3d6000fd5b505050506040513d601f19601f82011682018060405250810190610996919061176e565b6109b25760405162461bcd60e51b8152600401610427906117bd565b6003546001600160a01b03166109da5760405162461bcd60e51b81526004016104279061182b565b600082116109fa5760405162461bcd60e51b8152600401610427906117f4565b6001546040516370a0823160e01b81523060048201526000916001600160a01b0316906370a082319060240160206040518083038186803b158015610a3e57600080fd5b505afa158015610a52573d6000803e3d6000fd5b505050506040513d601f19601f82011682018060405250810190610a7691906117a4565b905082811015610ac45760405162461bcd60e51b81526020600482015260196024820152782737ba1032b737bab3b4103a37b5b2b7103130b630b731b29760391b6044820152606401610427565b60015460035460405163a9059cbb60e01b81526001600160a01b0391821660048201526024810186905291169063a9059cbb90604401602060405180830381600087803b158015610b1457600080fd5b505af1158015610b28573d6000803e3d6000fd5b505050506040513d601f19601f82011682018060405250810190610b4c919061176e565b506003546040518481526001600160a01b03909116907f992ee874049a42cae0757a765cd7f641b6028cc35c3478bde8330bf417c3a7a9906020015b60405180910390a2505050565b600254604051633f1e317960e11b81523360048201819052916001600160a01b031690637e3c62f29060240160206040518083038186803b158015610bd957600080fd5b505afa158015610bed573d6000803e3d6000fd5b505050506040513d601f19601f82011682018060405250810190610c11919061176e565b610c2d5760405162461bcd60e51b8152600401610427906117bd565b6003546001600160a01b0316610c555760405162461bcd60e51b81526004016104279061182b565b6001546040516370a0823160e01b81523060048201526000916001600160a01b0316906370a082319060240160206040518083038186803b158015610c9957600080fd5b505afa158015610cad573d6000803e3d6000fd5b505050506040513d601f19601f82011682018060405250810190610cd191906117a4565b905060008111610cf35760405162461bcd60e51b8152600401610427906117f4565b60008111610d3f5760405162461bcd60e51b81526020600482015260196024820152782737ba1032b737bab3b4103a37b5b2b7103130b630b731b29760391b6044820152606401610427565b60015460035460405163a9059cbb60e01b81526001600160a01b0391821660048201526024810184905291169063a9059cbb90604401602060405180830381600087803b158015610d8f57600080fd5b505af1158015610da3573d6000803e3d6000fd5b505050506040513d601f19601f82011682018060405250810190610dc7919061176e565b506003546040518281526001600160a01b03909116907f992ee874049a42cae0757a765cd7f641b6028cc35c3478bde8330bf417c3a7a99060200161046f565b600254604051633f1e317960e11b81523360048201819052916001600160a01b031690637e3c62f29060240160206040518083038186803b158015610e4b57600080fd5b505afa158015610e5f573d6000803e3d6000fd5b505050506040513d601f19601f82011682018060405250810190610e83919061176e565b610e9f5760405162461bcd60e51b8152600401610427906117bd565b600180546001600160a01b0319166001600160a01b0384169081179091556040517f9c7f5a4ace9ece42d49d364c1df0edf2155838f639a6a60449b38c93e69dca0190600090a25050565b600254604051633f1e317960e11b81523360048201819052916001600160a01b031690637e3c62f29060240160206040518083038186803b158015610f2e57600080fd5b505afa158015610f42573d6000803e3d6000fd5b505050506040513d601f19601f82011682018060405250810190610f66919061176e565b610f825760405162461bcd60e51b8152600401610427906117bd565b6003546001600160a01b0316610faa5760405162461bcd60e51b81526004016104279061182b565b4780610ff35760405162461bcd60e51b81526020600482015260186024820152772737ba1032b737bab3b41031b7b4b7103130b630b731b29760411b6044820152606401610427565b6003546040516000916001600160a01b03169083908381818185875af1925050503d8060008114611040576040519150601f19603f3d011682016040523d82523d6000602084013e611045565b606091505b50509050806110895760405162461bcd60e51b815260206004820152601060248201526f2a3930b739b332b9103330b4b632b21760811b6044820152606401610427565b6003546040518381526001600160a01b03909116907fe616ba007bccc294b9a44cd6823b1f1c3be4f5c6093b994d0070fc2a1b06ec4190602001610b88565b600254604051633f1e317960e11b81523360048201819052916001600160a01b031690637e3c62f29060240160206040518083038186803b15801561110c57600080fd5b505afa158015611120573d6000803e3d6000fd5b505050506040513d601f19601f82011682018060405250810190611144919061176e565b6111605760405162461bcd60e51b8152600401610427906117bd565b600482905560405182815233907f0d06742f5134a69844d113935c01df644352d72653584be5087105eb163a40e89060200161046f565b600080600654670de0b6b3a76400006111b09190611887565b6111ba9084611887565b9392505050565b6000600654670de0b6b3a76400006111d99190611887565b8210156111e857506000919050565b6000600654836111ba9190611873565b600254604051636aacbfd760e11b81523360048201819052916001600160a01b03169063d5597fae9060240160206040518083038186803b15801561123c57600080fd5b505afa158015611250573d6000803e3d6000fd5b505050506040513d601f19601f82011682018060405250810190611274919061176e565b156112d45760405162461bcd60e51b815260206004820152602a60248201527f5472616e73616374696f6e2064656e6965643a206164647265737320697320626044820152691b1858dadb1a5cdd195960b21b6064820152608401610427565b6112dc6116b4565b60006112e7346111c1565b6001546040516370a0823160e01b81523060048201529192506000916001600160a01b03909116906370a082319060240160206040518083038186803b15801561133057600080fd5b505afa158015611344573d6000803e3d6000fd5b505050506040513d601f19601f8201168201806040525081019061136891906117a4565b905060006113758361170e565b60075490915060ff166113b95760405162461bcd60e51b815260206004820152600c60248201526b2237903737ba1039b2b6361760a11b6044820152606401610427565b6006546113ce90670de0b6b3a7640000611887565b3410156114275760405162461bcd60e51b815260206004820152602160248201527f4974206d7573742062652067726561746572207468616e2074686520726174656044820152601760f91b6064820152608401610427565b818311156114775760405162461bcd60e51b815260206004820152601760248201527f4e6f7420656e6f7567682043464e2062616c616e63652e0000000000000000006044820152606401610427565b80156114cf5760405162461bcd60e51b815260206004820152602160248201527f546865206578697374656e6365206f66206120646563696d616c20706f696e746044820152601760f91b6064820152608401610427565b600454600554106115165760405162461bcd60e51b815260206004820152601160248201527022b7321037b3103a34329032bb32b73a1760791b6044820152606401610427565b60045483600554611527919061185b565b11156115815760405162461bcd60e51b8152602060048201526024808201527f546f74616c20616d6f756e74207061696420686173206265656e2065786365656044820152633232b21760e11b6064820152608401610427565b8260056000828254611593919061185b565b909155505060015460405163a9059cbb60e01b8152336004820152602481018590526001600160a01b039091169063a9059cbb90604401602060405180830381600087803b1580156115e457600080fd5b505af11580156115f8573d6000803e3d6000fd5b505050506040513d601f19601f8201168201806040525081019061161c919061176e565b50604080513481526020810185905233917fa82f0f188b17dca2950b9beca130ebd50850596c0a96a81a3896e057860a1989910160405180910390a2600454600554106116a4576007805460ff191690556040516000815230907f1f6b7ce6ee33da6a8801b0f0c2c0000c0261db252b8efeb1a9cfa4259d7c12db9060200160405180910390a25b5050506116b16001600055565b50565b600260005414156117075760405162461bcd60e51b815260206004820152601f60248201527f5265656e7472616e637947756172643a207265656e7472616e742063616c6c006044820152606401610427565b6002600055565b6000611722670de0b6b3a7640000836118a6565b92915050565b60006020828403121561173a57600080fd5b81356001600160a01b03811681146111ba57600080fd5b60006020828403121561176357600080fd5b81356111ba816118e6565b60006020828403121561178057600080fd5b81516111ba816118e6565b60006020828403121561179d57600080fd5b5035919050565b6000602082840312156117b657600080fd5b5051919050565b60208082526018908201527f556e7665726966696564206f776e657220616464726573730000000000000000604082015260600190565b6020808252601d908201527f416d6f756e74206d7573742062652067726561746572207468616e2030000000604082015260600190565b60208082526016908201527543616e6e6f74206265206e756c6c206164647265737360501b604082015260600190565b6000821982111561186e5761186e6118ba565b500190565b600082611882576118826118d0565b500490565b60008160001904831182151516156118a1576118a16118ba565b500290565b6000826118b5576118b56118d0565b500690565b634e487b7160e01b600052601160045260246000fd5b634e487b7160e01b600052601260045260246000fd5b80151581146116b157600080fdfea2646970667358221220fccc63cfd9c635a839ee431855c59a0786a673e3ab054e18ac54b96b203c33e764736f6c63430008070033",
  "immutableReferences": {},
  "source": "// SPDX-License-Identifier: MIT\npragma solidity ^0.8.1;\n\nimport { ReentrancyGuard } from \"@openzeppelin/contracts/security/ReentrancyGuard.sol\";\nimport { IERC20, SafeERC20 } from \"@openzeppelin/contracts/token/ERC20/utils/SafeERC20.sol\";\nimport \"./interfaces/ICFNAccessControl.sol\";\n\ncontract CFNSwap is ReentrancyGuard {\n    using SafeERC20 for IERC20;\n\n    IERC20 public erc20TokenManager;\n    ICFNAccessControl public accessControl;\n    address payable public receiveWallet;\n\n    uint256 public maxCFNSwapAmount = 1000000 * 1e18;\n    uint256 public totalSwapBalance = 0;\n    uint256 public rate = 100;\n    bool public isSale = true;\n\n    event UpdateReceiveWallet(address indexed wallet);\n    event UpdateAccessControl(address indexed wallet);\n    event UpdateErc20TokenManager(address indexed wallet);\n    event UpdateMaxCFNSwapAmount(address indexed wallet, uint256 _maxCFNSwapAmount);\n    event UpdateRate(address indexed wallet, uint256 _rate);\n    event UpdateIsSale(address indexed wallet, bool _rate);\n    event SwapExactGMMTForExactTokens(address indexed _account, uint256 _gmmtAmount, uint256 _cfnAmount);\n    event WithdrawCoin(address indexed wallet, uint256 amount);\n    event WithdrawToken(address indexed wallet, uint256 amount);\n\n    constructor(\n        address _accessControl,\n        address _cfnContract,\n        address _receiveWallet\n    ){\n        require(_cfnContract != address(0), \"Invalid ERC20 address\");\n        require(_accessControl != address(0), \"Invalid accessControl address\");\n        erc20TokenManager = IERC20(_cfnContract);\n        accessControl = ICFNAccessControl(_accessControl);\n        receiveWallet = payable(_receiveWallet);\n    }\n\n    modifier isBlackListWallet(address _address) {\n        require(\n            !accessControl.blackListWallet(_address),\n            \"Transaction denied: address is blacklisted\"\n        );\n        _;\n    }\n\n    modifier isWhiteListControl(address _ca) {\n        require(\n            accessControl.whiteListControlAddress(_ca),\n            \"Unverified owner address\"\n        );\n        _;\n    }\n\n    function setErc20TokenManager(\n        address _ca\n    ) public isWhiteListControl(msg.sender) {\n        erc20TokenManager = IERC20(_ca);\n        \n        emit UpdateErc20TokenManager(_ca);\n    }\n\n    function setAccessControl(\n        address _ca\n    ) public isWhiteListControl(msg.sender) {\n        accessControl = ICFNAccessControl(_ca);\n        \n        emit UpdateAccessControl(_ca);\n    }\n\n    function setReceiveWallet(\n        address _receiveWallet\n    ) public isWhiteListControl(msg.sender) {\n        receiveWallet = payable(_receiveWallet);\n\n        emit UpdateReceiveWallet(_receiveWallet);\n    }\n\n    function setMaxCFNSwapAmount(\n        uint256 _maxCFNSwapAmount\n    ) public isWhiteListControl(msg.sender) {\n        maxCFNSwapAmount = _maxCFNSwapAmount;\n        \n        emit UpdateMaxCFNSwapAmount(msg.sender, _maxCFNSwapAmount);\n    }\n\n    // decimal .\n    function setRate(\n        uint256 _rate\n    ) public isWhiteListControl(msg.sender) {\n        rate = _rate;\n        \n        emit UpdateRate(msg.sender, _rate);\n    }\n\n    function setIsSale(\n        bool _isSale\n    ) public isWhiteListControl(msg.sender) {\n        isSale = _isSale;\n        \n        emit UpdateIsSale(msg.sender, _isSale);\n    }\n\n    function getSwapCFNAmount(uint256 _amount) public view returns(uint256){\n        if(_amount < rate * 1e18){\n            return 0;\n        }else{\n            uint256 cfnAmount = _amount / rate;\n            return cfnAmount;\n        }\n    }\n\n    function getSwapCoinAmount(uint256 _amount) public view returns(uint256){\n        uint256 coinAmount = _amount * (rate * 1e18);\n        return coinAmount;\n    }\n\n    function checkDecimal(uint256 _amount) internal pure returns (uint256) {\n        return _amount % 1e18;\n    }\n\n    function swapExactGMMTForExactTokens() isBlackListWallet(msg.sender) public nonReentrant payable {\n        uint256 receiveAmount = getSwapCFNAmount(msg.value);\n\n        uint256 contractBalance = erc20TokenManager.balanceOf(address(this));\n        uint256 getDecimal = checkDecimal(receiveAmount);\n\n        require(isSale , \"Do not sell.\");\n        require(msg.value >= rate * 1e18 , \"It must be greater than the rate.\");\n        require(receiveAmount <= contractBalance , \"Not enough CFN balance.\");\n        require(getDecimal <= 0 , \"The existence of a decimal point.\");\n        require(totalSwapBalance < maxCFNSwapAmount , \"End of the event.\");\n        require(totalSwapBalance + receiveAmount <= maxCFNSwapAmount , \"Total amount paid has been exceeded.\");\n\n        totalSwapBalance += receiveAmount;\n        erc20TokenManager.transfer(msg.sender, receiveAmount);\n        emit SwapExactGMMTForExactTokens(msg.sender, msg.value, receiveAmount);\n        if(totalSwapBalance >= maxCFNSwapAmount ){\n            isSale = false;\n            emit UpdateIsSale(address(this), false);\n        }\n    }\n\n   //   \n    function withdrawTokenAll() public isWhiteListControl(msg.sender) {\n        require(receiveWallet != address(0), \"Cannot be null address\");\n\n        uint256 tokenAmount = erc20TokenManager.balanceOf(address(this));\n        require(tokenAmount > 0, \"Amount must be greater than 0\");\n        require(tokenAmount > 0, \"Not enough token balance.\");\n\n        erc20TokenManager.transfer(receiveWallet, tokenAmount);\n\n        emit WithdrawToken(receiveWallet, tokenAmount);\n    }\n\n    //    \n    function withdrawToken(\n        uint256 _amount\n    ) public isWhiteListControl(msg.sender) {\n        require(receiveWallet != address(0), \"Cannot be null address\");\n        require(_amount > 0, \"Amount must be greater than 0\");\n\n        uint256 tokenAmount = erc20TokenManager.balanceOf(address(this));\n\n        require(tokenAmount >= _amount, \"Not enough token balance.\");\n\n        erc20TokenManager.transfer(receiveWallet, _amount);\n\n        emit WithdrawToken(receiveWallet, _amount);\n    }\n\n    //   \n    function withdrawCoinAll() public isWhiteListControl(msg.sender) {\n        require(receiveWallet != address(0), \"Cannot be null address\");\n\n        uint256 balance = address(this).balance;\n        require(balance > 0, \"Not enough coin balance.\");\n\n        (bool success, ) = receiveWallet.call{value: balance}(\"\");\n        require(success, \"Transfer failed.\");\n\n        emit WithdrawCoin(receiveWallet, balance);\n    }\n\n    //    \n    function withdrawCoin(\n        uint256 _amount\n    ) public isWhiteListControl(msg.sender) {\n        require(receiveWallet != address(0), \"Cannot be null address\");\n        require(_amount > 0, \"Amount must be greater than 0\");\n\n        uint256 balance = address(this).balance;\n        require(balance >= _amount, \"Not enough coin balance.\");\n\n        (bool success, ) = receiveWallet.call{value: _amount}(\"\");\n        require(success, \"Transfer failed.\");\n\n        emit WithdrawCoin(receiveWallet, _amount);\n    }\n\n}",
  "sourcePath": "/Users/minki/Desktop/Codberg/cock-fight-network-contrats/contracts/cock-fight/CFNSwap.sol",
  "compiler": {
    "name": "solc",
    "version": "0.8.7+commit.e28d00a7.Emscripten.clang"
  },
  "schemaVersion": "3.4.16",
  "updatedAt": "2025-04-15T23:46:43.626Z",
  "devdoc": {
    "kind": "dev",
    "methods": {},
    "version": 1
  },
  "userdoc": {
    "kind": "user",
    "methods": {},
    "version": 1
  }
}