{
  "contractName": "CockerelChick",
  "abi": [
    {
      "inputs": [
        {
          "internalType": "address",
          "name": "_accessControl",
          "type": "address"
        }
      ],
      "stateMutability": "nonpayable",
      "type": "constructor"
    },
    {
      "anonymous": false,
      "inputs": [
        {
          "indexed": true,
          "internalType": "address",
          "name": "owner",
          "type": "address"
        },
        {
          "indexed": true,
          "internalType": "address",
          "name": "approved",
          "type": "address"
        },
        {
          "indexed": true,
          "internalType": "uint256",
          "name": "tokenId",
          "type": "uint256"
        }
      ],
      "name": "Approval",
      "type": "event"
    },
    {
      "anonymous": false,
      "inputs": [
        {
          "indexed": true,
          "internalType": "address",
          "name": "owner",
          "type": "address"
        },
        {
          "indexed": true,
          "internalType": "address",
          "name": "operator",
          "type": "address"
        },
        {
          "indexed": false,
          "internalType": "bool",
          "name": "approved",
          "type": "bool"
        }
      ],
      "name": "ApprovalForAll",
      "type": "event"
    },
    {
      "anonymous": false,
      "inputs": [
        {
          "indexed": true,
          "internalType": "uint256",
          "name": "tokenId",
          "type": "uint256"
        },
        {
          "indexed": true,
          "internalType": "uint256",
          "name": "currentTimestamp",
          "type": "uint256"
        },
        {
          "indexed": false,
          "internalType": "uint256",
          "name": "timestamp30Days",
          "type": "uint256"
        }
      ],
      "name": "ChickGrow",
      "type": "event"
    },
    {
      "anonymous": false,
      "inputs": [
        {
          "indexed": true,
          "internalType": "uint256",
          "name": "_tokenId",
          "type": "uint256"
        },
        {
          "components": [
            {
              "internalType": "uint256",
              "name": "attack",
              "type": "uint256"
            },
            {
              "internalType": "uint256",
              "name": "attackSpeed",
              "type": "uint256"
            },
            {
              "internalType": "uint256",
              "name": "critChance",
              "type": "uint256"
            },
            {
              "internalType": "uint256",
              "name": "health",
              "type": "uint256"
            },
            {
              "internalType": "uint256",
              "name": "evasion",
              "type": "uint256"
            }
          ],
          "indexed": false,
          "internalType": "struct CockerelChick.ChickStats",
          "name": "_chick_stat",
          "type": "tuple"
        }
      ],
      "name": "ChickStat",
      "type": "event"
    },
    {
      "anonymous": false,
      "inputs": [
        {
          "indexed": true,
          "internalType": "uint256",
          "name": "tokenId",
          "type": "uint256"
        },
        {
          "indexed": true,
          "internalType": "address",
          "name": "ownerAddress",
          "type": "address"
        },
        {
          "indexed": false,
          "internalType": "uint256",
          "name": "datesToSubtract",
          "type": "uint256"
        }
      ],
      "name": "ChickUsingGrowItem",
      "type": "event"
    },
    {
      "anonymous": false,
      "inputs": [
        {
          "indexed": true,
          "internalType": "uint256",
          "name": "tokenId",
          "type": "uint256"
        },
        {
          "indexed": true,
          "internalType": "address",
          "name": "ownerAddress",
          "type": "address"
        },
        {
          "indexed": false,
          "internalType": "uint256",
          "name": "point",
          "type": "uint256"
        },
        {
          "indexed": false,
          "internalType": "bool",
          "name": "isDead",
          "type": "bool"
        }
      ],
      "name": "ChickUsingStatsUpgrade",
      "type": "event"
    },
    {
      "anonymous": false,
      "inputs": [
        {
          "indexed": false,
          "internalType": "string",
          "name": "word",
          "type": "string"
        }
      ],
      "name": "NewSecretWord",
      "type": "event"
    },
    {
      "anonymous": false,
      "inputs": [
        {
          "indexed": true,
          "internalType": "address",
          "name": "from",
          "type": "address"
        },
        {
          "indexed": true,
          "internalType": "address",
          "name": "to",
          "type": "address"
        },
        {
          "indexed": true,
          "internalType": "uint256",
          "name": "tokenId",
          "type": "uint256"
        }
      ],
      "name": "Transfer",
      "type": "event"
    },
    {
      "inputs": [],
      "name": "ChickGrowTime",
      "outputs": [
        {
          "internalType": "uint256",
          "name": "",
          "type": "uint256"
        }
      ],
      "stateMutability": "view",
      "type": "function"
    },
    {
      "inputs": [],
      "name": "accessControl",
      "outputs": [
        {
          "internalType": "contract ICFNAccessControl",
          "name": "",
          "type": "address"
        }
      ],
      "stateMutability": "view",
      "type": "function"
    },
    {
      "inputs": [
        {
          "internalType": "address",
          "name": "to",
          "type": "address"
        },
        {
          "internalType": "uint256",
          "name": "tokenId",
          "type": "uint256"
        }
      ],
      "name": "approve",
      "outputs": [],
      "stateMutability": "nonpayable",
      "type": "function"
    },
    {
      "inputs": [
        {
          "internalType": "address",
          "name": "owner",
          "type": "address"
        }
      ],
      "name": "balanceOf",
      "outputs": [
        {
          "internalType": "uint256",
          "name": "",
          "type": "uint256"
        }
      ],
      "stateMutability": "view",
      "type": "function"
    },
    {
      "inputs": [],
      "name": "deatchVolume",
      "outputs": [
        {
          "internalType": "uint256",
          "name": "",
          "type": "uint256"
        }
      ],
      "stateMutability": "view",
      "type": "function"
    },
    {
      "inputs": [],
      "name": "failVolume",
      "outputs": [
        {
          "internalType": "uint256",
          "name": "",
          "type": "uint256"
        }
      ],
      "stateMutability": "view",
      "type": "function"
    },
    {
      "inputs": [
        {
          "internalType": "uint256",
          "name": "tokenId",
          "type": "uint256"
        }
      ],
      "name": "getApproved",
      "outputs": [
        {
          "internalType": "address",
          "name": "",
          "type": "address"
        }
      ],
      "stateMutability": "view",
      "type": "function"
    },
    {
      "inputs": [
        {
          "internalType": "uint256",
          "name": "",
          "type": "uint256"
        }
      ],
      "name": "grow",
      "outputs": [
        {
          "internalType": "uint256",
          "name": "currentTimestamp",
          "type": "uint256"
        },
        {
          "internalType": "uint256",
          "name": "timestamp30Days",
          "type": "uint256"
        }
      ],
      "stateMutability": "view",
      "type": "function"
    },
    {
      "inputs": [
        {
          "internalType": "address",
          "name": "owner",
          "type": "address"
        },
        {
          "internalType": "address",
          "name": "operator",
          "type": "address"
        }
      ],
      "name": "isApprovedForAll",
      "outputs": [
        {
          "internalType": "bool",
          "name": "",
          "type": "bool"
        }
      ],
      "stateMutability": "view",
      "type": "function"
    },
    {
      "inputs": [],
      "name": "maxUpgradeCounts",
      "outputs": [
        {
          "internalType": "uint256",
          "name": "",
          "type": "uint256"
        }
      ],
      "stateMutability": "view",
      "type": "function"
    },
    {
      "inputs": [],
      "name": "maxUpgradeStats",
      "outputs": [
        {
          "internalType": "uint256",
          "name": "",
          "type": "uint256"
        }
      ],
      "stateMutability": "view",
      "type": "function"
    },
    {
      "inputs": [],
      "name": "name",
      "outputs": [
        {
          "internalType": "string",
          "name": "",
          "type": "string"
        }
      ],
      "stateMutability": "view",
      "type": "function"
    },
    {
      "inputs": [],
      "name": "oneVolume",
      "outputs": [
        {
          "internalType": "uint256",
          "name": "",
          "type": "uint256"
        }
      ],
      "stateMutability": "view",
      "type": "function"
    },
    {
      "inputs": [
        {
          "internalType": "uint256",
          "name": "tokenId",
          "type": "uint256"
        }
      ],
      "name": "ownerOf",
      "outputs": [
        {
          "internalType": "address",
          "name": "",
          "type": "address"
        }
      ],
      "stateMutability": "view",
      "type": "function"
    },
    {
      "inputs": [
        {
          "internalType": "address",
          "name": "operator",
          "type": "address"
        },
        {
          "internalType": "bool",
          "name": "approved",
          "type": "bool"
        }
      ],
      "name": "setApprovalForAll",
      "outputs": [],
      "stateMutability": "nonpayable",
      "type": "function"
    },
    {
      "inputs": [
        {
          "internalType": "uint256",
          "name": "",
          "type": "uint256"
        },
        {
          "internalType": "uint256",
          "name": "",
          "type": "uint256"
        }
      ],
      "name": "statSets",
      "outputs": [
        {
          "internalType": "uint8",
          "name": "",
          "type": "uint8"
        }
      ],
      "stateMutability": "view",
      "type": "function"
    },
    {
      "inputs": [
        {
          "internalType": "uint256",
          "name": "",
          "type": "uint256"
        }
      ],
      "name": "stats",
      "outputs": [
        {
          "internalType": "uint256",
          "name": "attack",
          "type": "uint256"
        },
        {
          "internalType": "uint256",
          "name": "attackSpeed",
          "type": "uint256"
        },
        {
          "internalType": "uint256",
          "name": "critChance",
          "type": "uint256"
        },
        {
          "internalType": "uint256",
          "name": "health",
          "type": "uint256"
        },
        {
          "internalType": "uint256",
          "name": "evasion",
          "type": "uint256"
        }
      ],
      "stateMutability": "view",
      "type": "function"
    },
    {
      "inputs": [
        {
          "internalType": "bytes4",
          "name": "interfaceId",
          "type": "bytes4"
        }
      ],
      "name": "supportsInterface",
      "outputs": [
        {
          "internalType": "bool",
          "name": "",
          "type": "bool"
        }
      ],
      "stateMutability": "view",
      "type": "function"
    },
    {
      "inputs": [],
      "name": "symbol",
      "outputs": [
        {
          "internalType": "string",
          "name": "",
          "type": "string"
        }
      ],
      "stateMutability": "view",
      "type": "function"
    },
    {
      "inputs": [],
      "name": "twoVolume",
      "outputs": [
        {
          "internalType": "uint256",
          "name": "",
          "type": "uint256"
        }
      ],
      "stateMutability": "view",
      "type": "function"
    },
    {
      "inputs": [
        {
          "internalType": "uint256",
          "name": "",
          "type": "uint256"
        }
      ],
      "name": "upgradeCounts",
      "outputs": [
        {
          "internalType": "uint256",
          "name": "",
          "type": "uint256"
        }
      ],
      "stateMutability": "view",
      "type": "function"
    },
    {
      "inputs": [
        {
          "internalType": "address",
          "name": "_ca",
          "type": "address"
        }
      ],
      "name": "setAccessControl",
      "outputs": [],
      "stateMutability": "nonpayable",
      "type": "function"
    },
    {
      "inputs": [],
      "name": "getUrl",
      "outputs": [
        {
          "internalType": "string",
          "name": "",
          "type": "string"
        }
      ],
      "stateMutability": "view",
      "type": "function"
    },
    {
      "inputs": [
        {
          "internalType": "string",
          "name": "_uri",
          "type": "string"
        }
      ],
      "name": "setUrl",
      "outputs": [],
      "stateMutability": "nonpayable",
      "type": "function"
    },
    {
      "inputs": [
        {
          "internalType": "uint256",
          "name": "_chickGrowTime",
          "type": "uint256"
        }
      ],
      "name": "setChickGrowTime",
      "outputs": [],
      "stateMutability": "nonpayable",
      "type": "function"
    },
    {
      "inputs": [
        {
          "internalType": "string",
          "name": "_newSecret",
          "type": "string"
        }
      ],
      "name": "updateSecretWord",
      "outputs": [],
      "stateMutability": "nonpayable",
      "type": "function"
    },
    {
      "inputs": [
        {
          "internalType": "uint8[5][]",
          "name": "_settingStat",
          "type": "uint8[5][]"
        }
      ],
      "name": "setStatSets",
      "outputs": [],
      "stateMutability": "nonpayable",
      "type": "function"
    },
    {
      "inputs": [
        {
          "internalType": "uint256",
          "name": "_counts",
          "type": "uint256"
        }
      ],
      "name": "setMaxUpgradeCounts",
      "outputs": [],
      "stateMutability": "nonpayable",
      "type": "function"
    },
    {
      "inputs": [
        {
          "internalType": "uint256",
          "name": "_stats",
          "type": "uint256"
        }
      ],
      "name": "setMaxUpgradeStats",
      "outputs": [],
      "stateMutability": "nonpayable",
      "type": "function"
    },
    {
      "inputs": [
        {
          "internalType": "uint256",
          "name": "tokenId",
          "type": "uint256"
        },
        {
          "internalType": "address",
          "name": "ownerAddress",
          "type": "address"
        },
        {
          "internalType": "uint256",
          "name": "datesToSubtract",
          "type": "uint256"
        }
      ],
      "name": "usingGrowItem",
      "outputs": [
        {
          "internalType": "bool",
          "name": "",
          "type": "bool"
        }
      ],
      "stateMutability": "nonpayable",
      "type": "function"
    },
    {
      "inputs": [
        {
          "internalType": "uint256",
          "name": "tokenId",
          "type": "uint256"
        },
        {
          "internalType": "address",
          "name": "ownerAddress",
          "type": "address"
        },
        {
          "internalType": "uint256",
          "name": "statIndex",
          "type": "uint256"
        }
      ],
      "name": "usingStatUpgrade",
      "outputs": [
        {
          "internalType": "uint256",
          "name": "point",
          "type": "uint256"
        },
        {
          "internalType": "bool",
          "name": "isDead",
          "type": "bool"
        }
      ],
      "stateMutability": "nonpayable",
      "type": "function"
    },
    {
      "inputs": [
        {
          "internalType": "uint256",
          "name": "_tokenId",
          "type": "uint256"
        }
      ],
      "name": "burn",
      "outputs": [],
      "stateMutability": "nonpayable",
      "type": "function"
    },
    {
      "inputs": [
        {
          "internalType": "address",
          "name": "_to",
          "type": "address"
        }
      ],
      "name": "mint",
      "outputs": [],
      "stateMutability": "nonpayable",
      "type": "function"
    },
    {
      "inputs": [
        {
          "internalType": "address",
          "name": "_to",
          "type": "address"
        },
        {
          "internalType": "uint256",
          "name": "numberOfTokens",
          "type": "uint256"
        }
      ],
      "name": "batchMint",
      "outputs": [],
      "stateMutability": "nonpayable",
      "type": "function"
    },
    {
      "inputs": [
        {
          "internalType": "uint256",
          "name": "tokenId",
          "type": "uint256"
        }
      ],
      "name": "tokenURI",
      "outputs": [
        {
          "internalType": "string",
          "name": "",
          "type": "string"
        }
      ],
      "stateMutability": "view",
      "type": "function"
    },
    {
      "inputs": [
        {
          "internalType": "address",
          "name": "from",
          "type": "address"
        },
        {
          "internalType": "address",
          "name": "to",
          "type": "address"
        },
        {
          "internalType": "uint256",
          "name": "tokenId",
          "type": "uint256"
        }
      ],
      "name": "transferFrom",
      "outputs": [],
      "stateMutability": "nonpayable",
      "type": "function"
    },
    {
      "inputs": [
        {
          "internalType": "address",
          "name": "from",
          "type": "address"
        },
        {
          "internalType": "address",
          "name": "to",
          "type": "address"
        },
        {
          "internalType": "uint256",
          "name": "tokenId",
          "type": "uint256"
        }
      ],
      "name": "safeTransferFrom",
      "outputs": [],
      "stateMutability": "nonpayable",
      "type": "function"
    },
    {
      "inputs": [
        {
          "internalType": "address",
          "name": "from",
          "type": "address"
        },
        {
          "internalType": "address",
          "name": "to",
          "type": "address"
        },
        {
          "internalType": "uint256",
          "name": "tokenId",
          "type": "uint256"
        },
        {
          "internalType": "bytes",
          "name": "data",
          "type": "bytes"
        }
      ],
      "name": "safeTransferFrom",
      "outputs": [],
      "stateMutability": "nonpayable",
      "type": "function"
    }
  ],
  "bytecode": "0x62278d00600a5560c0604052600d60808190526c436f636b6572656c436869636b60981b60a09081526200003791600b919062000202565b506040805161010081018252600360608083018281526002608080860182905260a080870183905260c08701839052600160e08801819052938752875180820189528381526020818101859052818a0185905281870185905281840185905280890191909152885191820189528682528101869052808801929092529281018290529182015292820192909252620000d391600c919062000291565b50600a600d819055600e556023600f5560c86010556102bc6011556041601255601680546001600160a01b03191661dead1790553480156200011457600080fd5b5060405162003bea38038062003bea833981016040819052620001379162000397565b604080518082018252601281527143464e20436f636b6572656c20436869636b60701b60208083019182528351808501909452600584526443464e434360d81b9084015281519192916200018e9160009162000202565b508051620001a490600190602084019062000202565b50506001600655506040805160608101909152602f80825262003bbb60208301398051620001db9160099160209091019062000202565b50600880546001600160a01b0319166001600160a01b039290921691909117905562000406565b8280546200021090620003c9565b90600052602060002090601f0160209004810192826200023457600085556200027f565b82601f106200024f57805160ff19168380011785556200027f565b828001600101855582156200027f579182015b828111156200027f57825182559160200191906001019062000262565b506200028d929150620002eb565b5090565b828054828255906000526020600020908101928215620002dd579160200282015b82811115620002dd578251620002cc908390600562000302565b5091602001919060010190620002b2565b506200028d929150620002ec565b5b808211156200028d5760008155600101620002ec565b6001830191839082156200027f5791602002820160005b838211156200035957835183826101000a81548160ff021916908360ff160217905550926020019260010160208160000104928301926001030262000319565b8015620003885782816101000a81549060ff021916905560010160208160000104928301926001030262000359565b50506200028d929150620002eb565b600060208284031215620003aa57600080fd5b81516001600160a01b0381168114620003c257600080fd5b9392505050565b600181811c90821680620003de57607f821691505b602082108114156200040057634e487b7160e01b600052602260045260246000fd5b50919050565b6137a580620004166000396000f3fe608060405234801561001057600080fd5b50600436106102325760003560e01c80636a62784211610130578063c59ea687116100b8578063e9668a581161007c578063e9668a581461051f578063e985e9c514610547578063eb1020811461055a578063f17c210a1461057f578063f4db97e11461059257600080fd5b8063c59ea687146104df578063c87b56dd146104e8578063ce35d222146104fb578063d6bd87271461050e578063e5fa82211461051657600080fd5b80639b7daf36116100ff5780639b7daf361461042b578063a22cb46514610434578063ad217ae514610447578063b88d4fde146104ac578063c3d22edd146104bf57600080fd5b80636a627842146103ea57806370a08231146103fd57806391e406891461041057806395d89b411461042357600080fd5b806324b0f31f116101be57806342842e0e1161018257806342842e0e1461039557806342966c68146103a857806342d5bc50146103bb57806343508b05146103c45780636352211e146103d757600080fd5b806324b0f31f14610313578063252498a21461032a57806328531f061461033d578063298c25e31461037957806336d632f61461038c57600080fd5b8063081812fc11610205578063081812fc1461029c578063095ea7b3146102c757806313007d55146102da57806319129e5a146102ed57806323b872dd1461030057600080fd5b806301ffc9a7146102375780630491ddc31461025f5780630492e8b01461027257806306fdde0314610287575b600080fd5b61024a6102453660046131c5565b61059b565b60405190151581526020015b60405180910390f35b61024a61026d366004613261565b6105ed565b610285610280366004613248565b610887565b005b61028f610925565b604051610256919061344d565b6102af6102aa366004613248565b6109b7565b6040516001600160a01b039091168152602001610256565b6102856102d5366004613070565b6109de565b6008546102af906001600160a01b031681565b6102856102fb366004612f2c565b610af4565b61028561030e366004612f81565b610baf565b61031c600f5481565b604051908152602001610256565b6102856103383660046131ff565b610cf5565b61036461034b366004613248565b6013602052600090815260409020805460019091015482565b60408051928352602083019190915201610256565b610285610387366004613248565b610da0565b61031c60125481565b6102856103a3366004612f81565b610e3e565b6102856103b6366004613248565b610f7d565b61031c600d5481565b6102856103d2366004613070565b610fb0565b6102af6103e5366004613248565b6111ce565b6102856103f8366004612f2c565b61122e565b61031c61040b366004612f2c565b611398565b61028561041e36600461309a565b61141e565b61028f6114c9565b61031c600a5481565b610285610442366004613039565b6114d8565b610484610455366004613248565b601460205260009081526040902080546001820154600283015460038401546004909401549293919290919085565b604080519586526020860194909452928401919091526060830152608082015260a001610256565b6102856104ba366004612fbd565b6114e7565b61031c6104cd366004613248565b60156020526000908152604090205481565b61031c60115481565b61028f6104f6366004613248565b61162f565b6102856105093660046131ff565b61169b565b61028f611782565b61031c60105481565b61053261052d366004613261565b611791565b60408051928352901515602083015201610256565b61024a610555366004612f4e565b611e13565b61056d610568366004613286565b611e41565b60405160ff9091168152602001610256565b61028561058d366004613248565b611e86565b61031c600e5481565b60006001600160e01b031982166380ac58cd60e01b14806105cc57506001600160e01b03198216635b5e139f60e01b145b806105e757506301ffc9a760e01b6001600160e01b03198316145b92915050565b600854604051633f1e317960e11b8152336004820181905260009290916001600160a01b0390911690637e3c62f29060240160206040518083038186803b15801561063757600080fd5b505afa15801561064b573d6000803e3d6000fd5b505050506040513d601f19601f8201168201806040525081019061066f91906131a8565b6106945760405162461bcd60e51b815260040161068b90613544565b60405180910390fd5b61069c611f24565b600083116107015760405162461bcd60e51b815260206004820152602c60248201527f446174657320746f207375627472616374206d7573742062652067726561746560448201526b39103a3430b7103d32b9379760a11b606482015260840161068b565b836001600160a01b0316610714866111ce565b6001600160a01b0316146107565760405162461bcd60e51b81526020600482015260096024820152682737ba1037bbb732b960b91b604482015260640161068b565b600085815260136020526040902080546001820154116107ad5760405162461bcd60e51b81526020600482015260126024820152712a34b6b29039b43934b7359032b93937b91760711b604482015260640161068b565b83816001015410156108175760405162461bcd60e51b815260206004820152602d60248201527f43616e6e6f74207375627472616374206d6f7265207468616e2074686520726560448201526c36b0b4b734b733903a34b6b29760991b606482015260840161068b565b8381600101600082825461082b9190613637565b90915550506040518481526001600160a01b0386169087907fa36807a2c6c33105b638669c267da6742c50e4b2fff3eed65657e71e8f09447e9060200160405180910390a3600192505061087f6001600655565b509392505050565b600854604051633f1e317960e11b81523360048201819052916001600160a01b031690637e3c62f29060240160206040518083038186803b1580156108cb57600080fd5b505afa1580156108df573d6000803e3d6000fd5b505050506040513d601f19601f8201168201806040525081019061090391906131a8565b61091f5760405162461bcd60e51b815260040161068b90613544565b50600d55565b60606000805461093490613671565b80601f016020809104026020016040519081016040528092919081815260200182805461096090613671565b80156109ad5780601f10610982576101008083540402835291602001916109ad565b820191906000526020600020905b81548152906001019060200180831161099057829003601f168201915b5050505050905090565b60006109c282611f7e565b506000908152600460205260409020546001600160a01b031690565b60006109e9826111ce565b9050806001600160a01b0316836001600160a01b03161415610a575760405162461bcd60e51b815260206004820152602160248201527f4552433732313a20617070726f76616c20746f2063757272656e74206f776e656044820152603960f91b606482015260840161068b565b336001600160a01b0382161480610a735750610a738133611e13565b610ae55760405162461bcd60e51b815260206004820152603d60248201527f4552433732313a20617070726f76652063616c6c6572206973206e6f7420746f60448201527f6b656e206f776e6572206f7220617070726f76656420666f7220616c6c000000606482015260840161068b565b610aef8383611fdd565b505050565b600854604051633f1e317960e11b81523360048201819052916001600160a01b031690637e3c62f29060240160206040518083038186803b158015610b3857600080fd5b505afa158015610b4c573d6000803e3d6000fd5b505050506040513d601f19601f82011682018060405250810190610b7091906131a8565b610b8c5760405162461bcd60e51b815260040161068b90613544565b50600880546001600160a01b0319166001600160a01b0392909216919091179055565b600854604051636aacbfd760e11b81526001600160a01b0380861660048301528592169063d5597fae9060240160206040518083038186803b158015610bf457600080fd5b505afa158015610c08573d6000803e3d6000fd5b505050506040513d601f19601f82011682018060405250810190610c2c91906131a8565b15610c495760405162461bcd60e51b815260040161068b9061357b565b600854604051636aacbfd760e11b81526001600160a01b0380861660048301528592169063d5597fae9060240160206040518083038186803b158015610c8e57600080fd5b505afa158015610ca2573d6000803e3d6000fd5b505050506040513d601f19601f82011682018060405250810190610cc691906131a8565b15610ce35760405162461bcd60e51b815260040161068b9061357b565b610cee85858561204b565b5050505050565b600854604051633f1e317960e11b81523360048201819052916001600160a01b031690637e3c62f29060240160206040518083038186803b158015610d3957600080fd5b505afa158015610d4d573d6000803e3d6000fd5b505050506040513d601f19601f82011682018060405250810190610d7191906131a8565b610d8d5760405162461bcd60e51b815260040161068b90613544565b8151610aef906009906020850190612d20565b600854604051633f1e317960e11b81523360048201819052916001600160a01b031690637e3c62f29060240160206040518083038186803b158015610de457600080fd5b505afa158015610df8573d6000803e3d6000fd5b505050506040513d601f19601f82011682018060405250810190610e1c91906131a8565b610e385760405162461bcd60e51b815260040161068b90613544565b50600a55565b600854604051636aacbfd760e11b81526001600160a01b0380861660048301528592169063d5597fae9060240160206040518083038186803b158015610e8357600080fd5b505afa158015610e97573d6000803e3d6000fd5b505050506040513d601f19601f82011682018060405250810190610ebb91906131a8565b15610ed85760405162461bcd60e51b815260040161068b9061357b565b600854604051636aacbfd760e11b81526001600160a01b0380861660048301528592169063d5597fae9060240160206040518083038186803b158015610f1d57600080fd5b505afa158015610f31573d6000803e3d6000fd5b505050506040513d601f19601f82011682018060405250810190610f5591906131a8565b15610f725760405162461bcd60e51b815260040161068b9061357b565b610cee85858561207b565b610f88335b82612096565b610fa45760405162461bcd60e51b815260040161068b90613460565b610fad816120f5565b50565b600854604051636aacbfd760e11b81526001600160a01b0380851660048301528492169063d5597fae9060240160206040518083038186803b158015610ff557600080fd5b505afa158015611009573d6000803e3d6000fd5b505050506040513d601f19601f8201168201806040525081019061102d91906131a8565b1561104a5760405162461bcd60e51b815260040161068b9061357b565b600854604051633f1e317960e11b81523360048201819052916001600160a01b031690637e3c62f29060240160206040518083038186803b15801561108e57600080fd5b505afa1580156110a2573d6000803e3d6000fd5b505050506040513d601f19601f820116820180604052508101906110c691906131a8565b6110e25760405162461bcd60e51b815260040161068b90613544565b6110ea611f24565b600083116111325760405162461bcd60e51b815260206004820152601560248201527426bab9ba1031329030ba103632b0b9ba1037b7329760591b604482015260640161068b565b600b831061117a5760405162461bcd60e51b815260206004820152601560248201527426bab9ba103132903632b9b9903a3430b71018981760591b604482015260640161068b565b60005b838110156111bd57611193600780546001019055565b600061119e60075490565b90506111aa868261218a565b50806111b5816136ac565b91505061117d565b506111c86001600655565b50505050565b6000818152600260205260408120546001600160a01b0316806105e75760405162461bcd60e51b8152602060048201526018602482015277115490cdcc8c4e881a5b9d985b1a59081d1bdad95b88125160421b604482015260640161068b565b600854604051636aacbfd760e11b81526001600160a01b0380841660048301528392169063d5597fae9060240160206040518083038186803b15801561127357600080fd5b505afa158015611287573d6000803e3d6000fd5b505050506040513d601f19601f820116820180604052508101906112ab91906131a8565b156112c85760405162461bcd60e51b815260040161068b9061357b565b600854604051633f1e317960e11b81523360048201819052916001600160a01b031690637e3c62f29060240160206040518083038186803b15801561130c57600080fd5b505afa158015611320573d6000803e3d6000fd5b505050506040513d601f19601f8201168201806040525081019061134491906131a8565b6113605760405162461bcd60e51b815260040161068b90613544565b611368611f24565b611376600780546001019055565b600061138160075490565b905061138d848261218a565b50610aef6001600655565b60006001600160a01b0382166114025760405162461bcd60e51b815260206004820152602960248201527f4552433732313a2061646472657373207a65726f206973206e6f7420612076616044820152683634b21037bbb732b960b91b606482015260840161068b565b506001600160a01b031660009081526003602052604090205490565b600854604051633f1e317960e11b81523360048201819052916001600160a01b031690637e3c62f29060240160206040518083038186803b15801561146257600080fd5b505afa158015611476573d6000803e3d6000fd5b505050506040513d601f19601f8201168201806040525081019061149a91906131a8565b6114b65760405162461bcd60e51b815260040161068b90613544565b8151610aef90600c906020850190612da4565b60606001805461093490613671565b6114e3338383612355565b5050565b600854604051636aacbfd760e11b81526001600160a01b0380871660048301528692169063d5597fae9060240160206040518083038186803b15801561152c57600080fd5b505afa158015611540573d6000803e3d6000fd5b505050506040513d601f19601f8201168201806040525081019061156491906131a8565b156115815760405162461bcd60e51b815260040161068b9061357b565b600854604051636aacbfd760e11b81526001600160a01b0380871660048301528692169063d5597fae9060240160206040518083038186803b1580156115c657600080fd5b505afa1580156115da573d6000803e3d6000fd5b505050506040513d601f19601f820116820180604052508101906115fe91906131a8565b1561161b5760405162461bcd60e51b815260040161068b9061357b565b61162786868686612424565b505050505050565b6060600061163c836111ce565b6001600160a01b031614156116935760405162461bcd60e51b815260206004820181905260248201527f55524920717565727920666f72206e6f6e6578697374656e7420746f6b656e2e604482015260640161068b565b6105e7612456565b600854604051633f1e317960e11b81523360048201819052916001600160a01b031690637e3c62f29060240160206040518083038186803b1580156116df57600080fd5b505afa1580156116f3573d6000803e3d6000fd5b505050506040513d601f19601f8201168201806040525081019061171791906131a8565b6117335760405162461bcd60e51b815260040161068b90613544565b815161174690600b906020850190612d20565b507fc91e9ced7f8ba5e93665f5a97cf6b840412e90310a28c8516368642700e16c8a82604051611776919061344d565b60405180910390a15050565b606061178c612456565b905090565b600854604051633f1e317960e11b8152336004820181905260009283926001600160a01b0390911690637e3c62f29060240160206040518083038186803b1580156117db57600080fd5b505afa1580156117ef573d6000803e3d6000fd5b505050506040513d601f19601f8201168201806040525081019061181391906131a8565b61182f5760405162461bcd60e51b815260040161068b90613544565b611837611f24565b846001600160a01b031661184a876111ce565b6001600160a01b03161461188c5760405162461bcd60e51b81526020600482015260096024820152682737ba1037bbb732b960b91b604482015260640161068b565b60048411156118d25760405162461bcd60e51b8152602060048201526012602482015271092dcecc2d8d2c840e6e8c2e840d2dcc8caf60731b604482015260640161068b565b8361194657600e54600087815260146020526040902054106119415760405162461bcd60e51b815260206004820152602260248201527f41747461636b207374617420697320616c7265616479206d6178656420617420604482015261031360f41b606482015260840161068b565b611b2a565b83600114156119c257600e54600087815260146020526040902060010154106119415760405162461bcd60e51b815260206004820152602860248201527f41747461636b205370656564207374617420697320616c7265616479206d6178604482015267065642061742031360c41b606482015260840161068b565b8360021415611a3d57600e54600087815260146020526040902060020154106119415760405162461bcd60e51b815260206004820152602760248201527f43726974204368616e6365207374617420697320616c7265616479206d6178656044820152660642061742031360cc1b606482015260840161068b565b8360031415611ab357600e54600087815260146020526040902060030154106119415760405162461bcd60e51b815260206004820152602260248201527f4865616c7468207374617420697320616c7265616479206d6178656420617420604482015261031360f41b606482015260840161068b565b8360041415611b2a57600e5460008781526014602052604090206004015410611b2a5760405162461bcd60e51b815260206004820152602360248201527f45766173696f6e207374617420697320616c7265616479206d6178656420617460448201526202031360ec1b606482015260840161068b565b60008681526015602052604090205480611b865760405162461bcd60e51b815260206004820152601860248201527f4e6f7420656e6f756768207570677261646520636f756e740000000000000000604482015260640161068b565b600080611b93888a612465565b915091508015611bb157611ba689610f7d565b819550809450611db6565b611bbc600184613637565b60008a81526015602052604090205586611c235760008981526014602052604081208054849290611bee90849061361f565b9091555050600e5460008a8152601460205260409020541115611c1e57600e5460008a8152601460205260409020555b611daf565b8660011415611c875760008981526014602052604081206001018054849290611c4d90849061361f565b9091555050600e5460008a8152601460205260409020600101541115611c1e57600e5460008a815260146020526040902060010155611daf565b8660021415611ceb5760008981526014602052604081206002018054849290611cb190849061361f565b9091555050600e5460008a8152601460205260409020600201541115611c1e57600e5460008a815260146020526040902060020155611daf565b8660031415611d4f5760008981526014602052604081206003018054849290611d1590849061361f565b9091555050600e5460008a8152601460205260409020600301541115611c1e57600e5460008a815260146020526040902060030155611daf565b8660041415611daf5760008981526014602052604081206004018054849290611d7990849061361f565b9091555050600e5460008a8152601460205260409020600401541115611daf57600e5460008a8152601460205260409020600401555b8195508094505b6040805183815282151560208201526001600160a01b038a16918b917f718c837f253cbfdab61d9bffc702c16970d76663dedfb50981c881280efbfee6910160405180910390a3505050611e0a6001600655565b50935093915050565b6001600160a01b03918216600090815260056020908152604080832093909416825291909152205460ff1690565b600c8281548110611e5157600080fd5b906000526020600020018160058110611e6957600080fd5b602081049091015460ff601f9092166101000a9004169150829050565b600854604051633f1e317960e11b81523360048201819052916001600160a01b031690637e3c62f29060240160206040518083038186803b158015611eca57600080fd5b505afa158015611ede573d6000803e3d6000fd5b505050506040513d601f19601f82011682018060405250810190611f0291906131a8565b611f1e5760405162461bcd60e51b815260040161068b90613544565b50600e55565b60026006541415611f775760405162461bcd60e51b815260206004820152601f60248201527f5265656e7472616e637947756172643a207265656e7472616e742063616c6c00604482015260640161068b565b6002600655565b6000818152600260205260409020546001600160a01b0316610fad5760405162461bcd60e51b8152602060048201526018602482015277115490cdcc8c4e881a5b9d985b1a59081d1bdad95b88125160421b604482015260640161068b565b600081815260046020526040902080546001600160a01b0319166001600160a01b0384169081179091558190612012826111ce565b6001600160a01b03167f8c5be1e5ebec7d5bd14f71427d1e84f3dd0314c0f7b2291e5b200ac8c7c3b92560405160405180910390a45050565b61205433610f82565b6120705760405162461bcd60e51b815260040161068b90613460565b610aef838383612579565b610aef838383604051806020016040528060008152506114e7565b6000806120a2836111ce565b9050806001600160a01b0316846001600160a01b031614806120c957506120c98185611e13565b806120ed5750836001600160a01b03166120e2846109b7565b6001600160a01b0316145b949350505050565b6000612100826111ce565b905061210b826111ce565b600083815260046020908152604080832080546001600160a01b03199081169091556001600160a01b0385168085526003845282852080546000190190558785526002909352818420805490911690555192935084927fddf252ad1be2c89b69c2b068fc378daa952ba7f163c4a11628f55a4df523b3ef908390a45050565b600a54429060009061219c908361361f565b905060006121aa85856126dd565b9050806080015181606001518260400151836020015184600001516121cf919061361f565b6121d9919061361f565b6121e3919061361f565b6121ed919061361f565b600a1461223c5760405162461bcd60e51b815260206004820152601b60248201527f47656e65726174652073746174732072616e646f6d206572726f720000000000604482015260640161068b565b600084815260146020908152604080832084518155828501516001808301919091558286015160028301556060860151600383015560808601516004909201919091558151808301835287815280840187815289865260138552838620915182555191015560159091529020600a90556122b68585612965565b60408051825181526020808401519082015282820151818301526060808401519082015260808084015190820152905185917fd325e66386d0c5c8c6e7a64de90c002f815d9eac41ddbdac001076b13d443ab5919081900360a00190a282847f92f374fb46bf76ff63600adf182ab6624da253c7751870f777bab1c58d047d228460405161234691815260200190565b60405180910390a35050505050565b816001600160a01b0316836001600160a01b031614156123b75760405162461bcd60e51b815260206004820152601960248201527f4552433732313a20617070726f766520746f2063616c6c657200000000000000604482015260640161068b565b6001600160a01b03838116600081815260056020908152604080832094871680845294825291829020805460ff191686151590811790915591519182527f17307eab39ab6107e8899845ad3d59bd9653f200f220920489ca2b5937696c31910160405180910390a3505050565b61242e3383612096565b61244a5760405162461bcd60e51b815260040161068b90613460565b6111c88484848461297f565b60606009805461093490613671565b6000806000600b858560156000888152602001908152602001600020544260405160200161249795949392919061338f565b60408051601f198184030181529190528051602090910120905060006124bf6103e8836136e7565b9050600f5481116124d7576000935060019250612570565b600f546010546124e7919061361f565b81116124fa576000935060009250612570565b600f5460105460115461250d919061361f565b612517919061361f565b811161252a576001935060009250612570565b601254600f54601054601154612540919061361f565b61254a919061361f565b612554919061361f565b8111612567576002935060009250612570565b60009350600192505b50509250929050565b826001600160a01b031661258c826111ce565b6001600160a01b0316146125b25760405162461bcd60e51b815260040161068b906134ff565b6001600160a01b0382166126145760405162461bcd60e51b8152602060048201526024808201527f4552433732313a207472616e7366657220746f20746865207a65726f206164646044820152637265737360e01b606482015260840161068b565b826001600160a01b0316612627826111ce565b6001600160a01b03161461264d5760405162461bcd60e51b815260040161068b906134ff565b600081815260046020908152604080832080546001600160a01b03199081169091556001600160a01b0387811680865260038552838620805460001901905590871680865283862080546001019055868652600290945282852080549092168417909155905184937fddf252ad1be2c89b69c2b068fc378daa952ba7f163c4a11628f55a4df523b3ef91a4505050565b61270f6040518060a0016040528060008152602001600081526020016000815260200160008152602001600081525090565b6000600b8385334260405160200161272b9594939291906133ce565b60408051601f198184030181529190528051602090910120600c5490915060009061275690836136e7565b90506000600c828154811061276d5761276d61371f565b6000918252602082206040805160a08101918290529391909201916005918390855b825461010083900a900460ff1681526020600192830181810494850194909303909202910180841161278f579050505050505090506127cc612df7565b6127fe6040518060a0016040528060008152602001600081526020016000815260200160008152602001600081525090565b60005b60058160ff16101561295957600061281a82600561364e565b6128279060ff16886136e7565b9050600061283582866129b2565b9050600185826005811061284b5761284b61371f565b9115156020909202015260ff831661287e5785816005811061286f5761286f61371f565b602002015160ff16845261293e565b8260ff16600114156128b25785816005811061289c5761289c61371f565b602002015160ff1684602001818152505061293e565b8260ff16600214156128e2578581600581106128d0576128d061371f565b602002015160ff16604085015261293e565b8260ff1660031415612912578581600581106129005761290061371f565b602002015160ff16606085015261293e565b8260ff166004141561293e578581600581106129305761293061371f565b602002015160ff1660808501525b505060089590951c9480612951816136c7565b915050612801565b50979650505050505050565b6114e3828260405180602001604052806000815250612a55565b61298a848484612579565b61299684848484612a88565b6111c85760405162461bcd60e51b815260040161068b906134ad565b600080805b6005811015612a0c578381600581106129d2576129d261371f565b60200201516129fa57848214156129ec5791506105e79050565b816129f6816136ac565b9250505b80612a04816136ac565b9150506129b7565b5060405162461bcd60e51b815260206004820152601860248201527f4e6f20617661696c61626c6520696e64657820666f756e640000000000000000604482015260640161068b565b612a5f8383612b95565b612a6c6000848484612a88565b610aef5760405162461bcd60e51b815260040161068b906134ad565b60006001600160a01b0384163b15612b8a57604051630a85bd0160e11b81526001600160a01b0385169063150b7a0290612acc903390899088908890600401613410565b602060405180830381600087803b158015612ae657600080fd5b505af1925050508015612b16575060408051601f3d908101601f19168201909252612b13918101906131e2565b60015b612b70573d808015612b44576040519150601f19603f3d011682016040523d82523d6000602084013e612b49565b606091505b508051612b685760405162461bcd60e51b815260040161068b906134ad565b805181602001fd5b6001600160e01b031916630a85bd0160e11b1490506120ed565b506001949350505050565b6001600160a01b038216612beb5760405162461bcd60e51b815260206004820181905260248201527f4552433732313a206d696e7420746f20746865207a65726f2061646472657373604482015260640161068b565b6000818152600260205260409020546001600160a01b031615612c505760405162461bcd60e51b815260206004820152601c60248201527f4552433732313a20746f6b656e20616c7265616479206d696e74656400000000604482015260640161068b565b6000818152600260205260409020546001600160a01b031615612cb55760405162461bcd60e51b815260206004820152601c60248201527f4552433732313a20746f6b656e20616c7265616479206d696e74656400000000604482015260640161068b565b6001600160a01b038216600081815260036020908152604080832080546001019055848352600290915280822080546001600160a01b0319168417905551839291907fddf252ad1be2c89b69c2b068fc378daa952ba7f163c4a11628f55a4df523b3ef908290a45050565b828054612d2c90613671565b90600052602060002090601f016020900481019282612d4e5760008555612d94565b82601f10612d6757805160ff1916838001178555612d94565b82800160010185558215612d94579182015b82811115612d94578251825591602001919060010190612d79565b50612da0929150612e15565b5090565b828054828255906000526020600020908101928215612deb579160200282015b82811115612deb578251612ddb9083906005612e2a565b5091602001919060010190612dc4565b50612da0929150612e16565b6040518060a001604052806005906020820280368337509192915050565b5b80821115612da05760008155600101612e16565b600183019183908215612d945791602002820160005b83821115612e7e57835183826101000a81548160ff021916908360ff1602179055509260200192600101602081600001049283019260010302612e40565b8015612eab5782816101000a81549060ff0219169055600101602081600001049283019260010302612e7e565b5050612da0929150612e15565b600067ffffffffffffffff831115612ed257612ed2613735565b612ee5601f8401601f19166020016135ee565b9050828152838383011115612ef957600080fd5b828260208301376000602084830101529392505050565b80356001600160a01b0381168114612f2757600080fd5b919050565b600060208284031215612f3e57600080fd5b612f4782612f10565b9392505050565b60008060408385031215612f6157600080fd5b612f6a83612f10565b9150612f7860208401612f10565b90509250929050565b600080600060608486031215612f9657600080fd5b612f9f84612f10565b9250612fad60208501612f10565b9150604084013590509250925092565b60008060008060808587031215612fd357600080fd5b612fdc85612f10565b9350612fea60208601612f10565b925060408501359150606085013567ffffffffffffffff81111561300d57600080fd5b8501601f8101871361301e57600080fd5b61302d87823560208401612eb8565b91505092959194509250565b6000806040838503121561304c57600080fd5b61305583612f10565b915060208301356130658161374b565b809150509250929050565b6000806040838503121561308357600080fd5b61308c83612f10565b946020939093013593505050565b600060208083850312156130ad57600080fd5b823567ffffffffffffffff808211156130c557600080fd5b8185019150601f86818401126130da57600080fd5b8235828111156130ec576130ec613735565b600592506130fd8582851b016135ee565b8181528581019085870160a0808502880189018c101561311c57600080fd5b600097505b84881015613198578b8683011261313757600080fd5b61313f6135c5565b80838385018f81111561315157600080fd5b60005b8b81101561317f57823560ff8116811461316d57600080fd5b8552938d0193918d0191600101613154565b509187525060019990990198948a019492506131219050565b50909a9950505050505050505050565b6000602082840312156131ba57600080fd5b8151612f478161374b565b6000602082840312156131d757600080fd5b8135612f4781613759565b6000602082840312156131f457600080fd5b8151612f4781613759565b60006020828403121561321157600080fd5b813567ffffffffffffffff81111561322857600080fd5b8201601f8101841361323957600080fd5b6120ed84823560208401612eb8565b60006020828403121561325a57600080fd5b5035919050565b60008060006060848603121561327657600080fd5b83359250612fad60208501612f10565b6000806040838503121561329957600080fd5b50508035926020909101359150565b6000815180845260005b818110156132ce576020818501810151868301820152016132b2565b818111156132e0576000602083870101525b50601f01601f19169290920160200192915050565b8054600090600181811c908083168061330f57607f831692505b602080841082141561333157634e487b7160e01b600052602260045260246000fd5b818015613345576001811461335657613383565b60ff19861689528489019650613383565b60008881526020902060005b8681101561337b5781548b820152908501908301613362565b505084890196505b50505050505092915050565b600061339b82886132f5565b60609690961b6bffffffffffffffffffffffff191686525050601484019290925260348301526054820152607401919050565b60006133da82886132f5565b95865250506bffffffffffffffffffffffff19606093841b811660208601529190921b1660348301526048820152606801919050565b6001600160a01b0385811682528416602082015260408101839052608060608201819052600090613443908301846132a8565b9695505050505050565b602081526000612f4760208301846132a8565b6020808252602d908201527f4552433732313a2063616c6c6572206973206e6f7420746f6b656e206f776e6560408201526c1c881bdc88185c1c1c9bdd9959609a1b606082015260800190565b60208082526032908201527f4552433732313a207472616e7366657220746f206e6f6e20455243373231526560408201527131b2b4bb32b91034b6b83632b6b2b73a32b960711b606082015260800190565b60208082526025908201527f4552433732313a207472616e736665722066726f6d20696e636f72726563742060408201526437bbb732b960d91b606082015260800190565b60208082526018908201527f556e7665726966696564206f776e657220616464726573730000000000000000604082015260600190565b6020808252602a908201527f5472616e73616374696f6e2064656e6965643a206164647265737320697320626040820152691b1858dadb1a5cdd195960b21b606082015260800190565b60405160a0810167ffffffffffffffff811182821017156135e8576135e8613735565b60405290565b604051601f8201601f1916810167ffffffffffffffff8111828210171561361757613617613735565b604052919050565b6000821982111561363257613632613709565b500190565b60008282101561364957613649613709565b500390565b600060ff821660ff84168082101561366857613668613709565b90039392505050565b600181811c9082168061368557607f821691505b602082108114156136a657634e487b7160e01b600052602260045260246000fd5b50919050565b60006000198214156136c0576136c0613709565b5060010190565b600060ff821660ff8114156136de576136de613709565b60010192915050565b60008261370457634e487b7160e01b600052601260045260246000fd5b500690565b634e487b7160e01b600052601160045260246000fd5b634e487b7160e01b600052603260045260246000fd5b634e487b7160e01b600052604160045260246000fd5b8015158114610fad57600080fd5b6001600160e01b031981168114610fad57600080fdfea26469706673582212201b1455aa2b22be77153195a7fe2474e4f277babbec1b7ea6b606b3424615bc7164736f6c6343000807003368747470733a2f2f696d672e63662d6e2e696f2f6a736f6e732f746573746e65742f636f636b6572656c2e6a736f6e",
  "immutableReferences": {},
  "source": "// SPDX-License-Identifier: MIT\npragma solidity ^0.8.1;\n\nimport \"@openzeppelin/contracts/token/ERC721/ERC721.sol\";\nimport \"@openzeppelin/contracts/utils/Counters.sol\";\nimport {ReentrancyGuard} from \"@openzeppelin/contracts/security/ReentrancyGuard.sol\";\n\nimport \"../interfaces/ICFNAccessControl.sol\";\n\ncontract CockerelChick is ERC721, ReentrancyGuard {\n    using Counters for Counters.Counter;\n    using Strings for uint256;\n\n    Counters.Counter private _tokenIdCounter;\n\n    ICFNAccessControl public accessControl;\n\n    string private url;\n\n    uint256 public ChickGrowTime = 30 * 24 * 60 * 60; // day, hour, minute, second -> 30days\n    string private _secret_word = \"CockerelChick\";\n    uint8[5][] public statSets = [\n        [3, 2, 2, 2, 1],\n        [2, 2, 2, 2, 2],\n        [3, 3, 2, 1, 1]\n    ]; // stat\n    uint256 public maxUpgradeCounts = 10; // upgrade count\n    uint256 public maxUpgradeStats = 10; // max upgrade stats\n\n    uint256 public deatchVolume = 35; // 3.5%\n    uint256 public failVolume = 200; // 20%\n    uint256 public oneVolume = 700; // 70%\n    uint256 public twoVolume = 65; // 6.5%\n\n    struct ChickGrowStruct {\n        uint256 currentTimestamp;\n        uint256 timestamp30Days;\n    }\n    struct ChickStats {\n        uint256 attack; // 0\n        uint256 attackSpeed; // 1\n        uint256 critChance; // 2\n        uint256 health; // 3\n        uint256 evasion; // 4\n    }\n\n    mapping(uint256 => ChickGrowStruct) public grow;\n    mapping(uint256 => ChickStats) public stats;\n    mapping(uint256 => uint256) public upgradeCounts;\n\n    event NewSecretWord(string word);\n    event ChickGrow(\n        uint256 indexed tokenId,\n        uint256 indexed currentTimestamp,\n        uint256 timestamp30Days\n    );\n    event ChickStat(uint256 indexed _tokenId, ChickStats _chick_stat);\n    event ChickUsingGrowItem(\n        uint256 indexed tokenId,\n        address indexed ownerAddress,\n        uint256 datesToSubtract\n    );\n    event ChickUsingStatsUpgrade(\n        uint256 indexed tokenId,\n        address indexed ownerAddress,\n        uint256 point,\n        bool isDead\n    );\n\n    address deadAddress = 0x000000000000000000000000000000000000dEaD;\n\n    constructor(address _accessControl) ERC721(\"CFN Cockerel Chick\", \"CFNCC\") {\n        url = \"https://img.cf-n.io/jsons/testnet/cockerel.json\";\n        accessControl = ICFNAccessControl(_accessControl);\n    }\n\n    modifier isBlackListWallet(address _address) {\n        require(\n            !accessControl.blackListWallet(_address),\n            \"Transaction denied: address is blacklisted\"\n        );\n        _;\n    }\n\n    modifier isWhiteListControl(address _ca) {\n        require(\n            accessControl.whiteListControlAddress(_ca),\n            \"Unverified owner address\"\n        );\n        _;\n    }\n\n    function setAccessControl(\n        address _ca\n    ) public isWhiteListControl(msg.sender) {\n        accessControl = ICFNAccessControl(_ca);\n    }\n\n    function _baseURI() internal view override returns (string memory) {\n        return url;\n    }\n\n    function getUrl() public view returns (string memory) {\n        return _baseURI();\n    }\n\n    function setUrl(string memory _uri) public isWhiteListControl(msg.sender) {\n        url = _uri;\n    }\n\n    function setChickGrowTime(\n        uint256 _chickGrowTime\n    ) public isWhiteListControl(msg.sender) {\n        ChickGrowTime = _chickGrowTime;\n    }\n\n    function updateSecretWord(\n        string memory _newSecret\n    ) public isWhiteListControl(msg.sender) {\n        _secret_word = _newSecret;\n\n        emit NewSecretWord(_newSecret);\n    }\n\n    function setStatSets(\n        uint8[5][] memory _settingStat\n    ) public isWhiteListControl(msg.sender) {\n        statSets = _settingStat;\n    }\n\n    function setMaxUpgradeCounts(\n        uint256 _counts\n    ) public isWhiteListControl(msg.sender) {\n        maxUpgradeCounts = _counts;\n    }\n\n    function setMaxUpgradeStats(\n        uint256 _stats\n    ) public isWhiteListControl(msg.sender) {\n        maxUpgradeStats = _stats;\n    }\n\n    function _getAvailableIndex(\n        uint256 statIndex,\n        bool[5] memory usedIndices\n    ) private pure returns (uint256) {\n        uint256 count = 0;\n        for (uint256 i = 0; i < 5; i++) {\n            if (!usedIndices[i]) {\n                if (count == statIndex) {\n                    return i;\n                }\n                count++;\n            }\n        }\n        revert(\"No available index found\");\n    }\n\n    function _generate_stats(\n        address _to,\n        uint256 _tokenId\n    ) private view returns (ChickStats memory) {\n        uint256 randomValue = uint256(\n            keccak256(\n                abi.encodePacked(\n                    _secret_word,\n                    _tokenId,\n                    _to,\n                    msg.sender,\n                    block.timestamp\n                )\n            )\n        );\n\n        uint256 statSetIndex = randomValue % statSets.length;\n        uint8[5] memory selectedStatSet = statSets[statSetIndex];\n\n        bool[5] memory usedIndices;\n        ChickStats memory chickStats;\n\n        for (uint8 i = 0; i < 5; i++) {\n            uint256 statIndex = randomValue % (5 - i);\n            uint256 availableIndex = _getAvailableIndex(statIndex, usedIndices);\n            usedIndices[availableIndex] = true;\n\n            if (i == 0) {\n                chickStats.attack = selectedStatSet[availableIndex];\n            } else if (i == 1) {\n                chickStats.attackSpeed = selectedStatSet[availableIndex];\n            } else if (i == 2) {\n                chickStats.critChance = selectedStatSet[availableIndex];\n            } else if (i == 3) {\n                chickStats.health = selectedStatSet[availableIndex];\n            } else if (i == 4) {\n                chickStats.evasion = selectedStatSet[availableIndex];\n            }\n\n            randomValue = randomValue >> 8;\n        }\n\n        return chickStats;\n    }\n\n    function usingGrowItem(\n        uint256 tokenId,\n        address ownerAddress,\n        uint256 datesToSubtract\n    ) public isWhiteListControl(msg.sender) nonReentrant returns (bool) {\n        require(\n            datesToSubtract > 0,\n            \"Dates to subtract must be greater than zero.\"\n        );\n        require(ownerOf(tokenId) == ownerAddress, \"Not owner\");\n\n        ChickGrowStruct storage chickInfo = grow[tokenId];\n\n        require(\n            chickInfo.timestamp30Days > chickInfo.currentTimestamp,\n            \"Time shrink error.\"\n        );\n\n        require(\n            chickInfo.timestamp30Days >= datesToSubtract,\n            \"Cannot subtract more than the remaining time.\"\n        );\n\n        chickInfo.timestamp30Days -= datesToSubtract;\n\n        emit ChickUsingGrowItem(tokenId, ownerAddress, datesToSubtract);\n\n        return true;\n    }\n\n    function _gerneate_upgrade(\n        address _to,\n        uint256 _tokenId\n    ) private view returns (uint256 point, bool isDead) {\n        uint256 randomValue = uint256(\n            keccak256(\n                abi.encodePacked(\n                    _secret_word,\n                    _to,\n                    _tokenId,\n                    upgradeCounts[_tokenId],\n                    block.timestamp\n                )\n            )\n        );\n\n        uint256 result = randomValue % 1000;\n\n        // 0 ~ 35\n        if (result <= deatchVolume) {\n            point = 0;\n            isDead = true;\n            // 36 ~ 235\n        } else if (result <= failVolume + deatchVolume) {\n            point = 0;\n            isDead = false;\n            // 236 ~ 935\n        } else if (result <= oneVolume + failVolume + deatchVolume) {\n            point = 1;\n            isDead = false;\n            // 936 ~ 1000\n        } else if (\n            result <= oneVolume + failVolume + deatchVolume + twoVolume\n        ) {\n            point = 2;\n            isDead = false;\n        } else {\n            point = 0;\n            isDead = true;\n        }\n    }\n\n    // require 721 approveAll to cockFight.sol\n    function usingStatUpgrade(\n        uint256 tokenId,\n        address ownerAddress,\n        uint256 statIndex\n    )\n        public\n        isWhiteListControl(msg.sender)\n        nonReentrant\n        returns (uint256 point, bool isDead)\n    {\n        require(ownerOf(tokenId) == ownerAddress, \"Not owner\");\n\n        require(statIndex >= 0 && statIndex <= 4, \"Invalid stat index\");\n\n        if (statIndex == 0) {\n            require(\n                stats[tokenId].attack < maxUpgradeStats,\n                \"Attack stat is already maxed at 10\"\n            );\n        } else if (statIndex == 1) {\n            require(\n                stats[tokenId].attackSpeed < maxUpgradeStats,\n                \"Attack Speed stat is already maxed at 10\"\n            );\n        } else if (statIndex == 2) {\n            require(\n                stats[tokenId].critChance < maxUpgradeStats,\n                \"Crit Chance stat is already maxed at 10\"\n            );\n        } else if (statIndex == 3) {\n            require(\n                stats[tokenId].health < maxUpgradeStats,\n                \"Health stat is already maxed at 10\"\n            );\n        } else if (statIndex == 4) {\n            require(\n                stats[tokenId].evasion < maxUpgradeStats,\n                \"Evasion stat is already maxed at 10\"\n            );\n        }\n\n        uint256 upgradeCount = upgradeCounts[tokenId];\n\n        require(upgradeCount > 0, \"Not enough upgrade count\");\n\n        (uint256 _point, bool _isDead) = _gerneate_upgrade(\n            ownerAddress,\n            tokenId\n        );\n\n        if (_isDead) {\n            burn(tokenId);\n            point = _point;\n            isDead = _isDead;\n        } else {\n            upgradeCounts[tokenId] = upgradeCount - 1;\n\n            // stats upgrade\n            if (statIndex == 0) {\n                stats[tokenId].attack += _point;\n                if (stats[tokenId].attack > maxUpgradeStats) {\n                    stats[tokenId].attack = maxUpgradeStats;\n                }\n            } else if (statIndex == 1) {\n                stats[tokenId].attackSpeed += _point;\n                if (stats[tokenId].attackSpeed > maxUpgradeStats) {\n                    stats[tokenId].attackSpeed = maxUpgradeStats;\n                }\n            } else if (statIndex == 2) {\n                stats[tokenId].critChance += _point;\n                if (stats[tokenId].critChance > maxUpgradeStats) {\n                    stats[tokenId].critChance = maxUpgradeStats;\n                }\n            } else if (statIndex == 3) {\n                stats[tokenId].health += _point;\n                if (stats[tokenId].health > maxUpgradeStats) {\n                    stats[tokenId].health = maxUpgradeStats;\n                }\n            } else if (statIndex == 4) {\n                stats[tokenId].evasion += _point;\n                if (stats[tokenId].evasion > maxUpgradeStats) {\n                    stats[tokenId].evasion = maxUpgradeStats;\n                }\n            }\n\n            point = _point;\n            isDead = _isDead;\n        }\n\n        emit ChickUsingStatsUpgrade(tokenId, ownerAddress, _point, _isDead);\n    }\n\n    function _safeMint(address _to, uint256 _tokenId) internal override {\n        uint256 currentTimestamp = block.timestamp;\n        uint256 timestamp30Days = currentTimestamp + ChickGrowTime;\n\n        ChickStats memory chickResultStats = _generate_stats(_to, _tokenId);\n\n        require(\n            chickResultStats.attack +\n                chickResultStats.attackSpeed +\n                chickResultStats.critChance +\n                chickResultStats.health +\n                chickResultStats.evasion ==\n                10,\n            \"Generate stats random error\"\n        );\n\n        stats[_tokenId] = chickResultStats;\n        grow[_tokenId] = ChickGrowStruct(currentTimestamp, timestamp30Days);\n        upgradeCounts[_tokenId] = 10;\n        super._safeMint(_to, _tokenId);\n\n        emit ChickStat(_tokenId, chickResultStats);\n        emit ChickGrow(_tokenId, currentTimestamp, timestamp30Days);\n    }\n\n    function burn(uint256 _tokenId) public {\n        require(\n            _isApprovedOrOwner(_msgSender(), _tokenId),\n            \"ERC721: caller is not token owner or approved\"\n        );\n\n        _burn(_tokenId);\n    }\n\n    function mint(\n        address _to\n    )\n        public\n        isBlackListWallet(_to)\n        isWhiteListControl(msg.sender)\n        nonReentrant\n    {\n        _tokenIdCounter.increment();\n        uint256 tokenId = _tokenIdCounter.current();\n        _safeMint(_to, tokenId);\n    }\n\n    function batchMint(\n        address _to,\n        uint256 numberOfTokens\n    )\n        public\n        isBlackListWallet(_to)\n        isWhiteListControl(msg.sender)\n        nonReentrant\n    {\n        require(numberOfTokens > 0, \"Must be at least one.\");\n        require(numberOfTokens < 11, \"Must be less than 10.\");\n\n        for (uint i = 0; i < numberOfTokens; i++) {\n            _tokenIdCounter.increment();\n            uint256 tokenId = _tokenIdCounter.current();\n            _safeMint(_to, tokenId);\n        }\n    }\n\n    function tokenURI(\n        uint256 tokenId\n    ) public view virtual override returns (string memory) {\n        require(\n            ownerOf(tokenId) != address(0),\n            \"URI query for nonexistent token.\"\n        );\n        return _baseURI();\n    }\n\n    function transferFrom(\n        address from,\n        address to,\n        uint256 tokenId\n    ) public override isBlackListWallet(from) isBlackListWallet(to) {\n        super.transferFrom(from, to, tokenId);\n    }\n\n    function safeTransferFrom(\n        address from,\n        address to,\n        uint256 tokenId\n    ) public override isBlackListWallet(from) isBlackListWallet(to) {\n        super.safeTransferFrom(from, to, tokenId);\n    }\n\n    function safeTransferFrom(\n        address from,\n        address to,\n        uint256 tokenId,\n        bytes memory data\n    ) public override isBlackListWallet(from) isBlackListWallet(to) {\n        super.safeTransferFrom(from, to, tokenId, data);\n    }\n}\n",
  "sourcePath": "/Users/minki/Desktop/Codberg/cock-fight-network-contrats/contracts/cock-fight/erc721/CockerelChick.sol",
  "compiler": {
    "name": "solc",
    "version": "0.8.7+commit.e28d00a7.Emscripten.clang"
  },
  "schemaVersion": "3.4.16",
  "updatedAt": "2025-04-15T23:46:43.674Z",
  "devdoc": {
    "kind": "dev",
    "methods": {
      "approve(address,uint256)": {
        "details": "See {IERC721-approve}."
      },
      "balanceOf(address)": {
        "details": "See {IERC721-balanceOf}."
      },
      "getApproved(uint256)": {
        "details": "See {IERC721-getApproved}."
      },
      "isApprovedForAll(address,address)": {
        "details": "See {IERC721-isApprovedForAll}."
      },
      "name()": {
        "details": "See {IERC721Metadata-name}."
      },
      "ownerOf(uint256)": {
        "details": "See {IERC721-ownerOf}."
      },
      "safeTransferFrom(address,address,uint256)": {
        "details": "See {IERC721-safeTransferFrom}."
      },
      "safeTransferFrom(address,address,uint256,bytes)": {
        "details": "See {IERC721-safeTransferFrom}."
      },
      "setApprovalForAll(address,bool)": {
        "details": "See {IERC721-setApprovalForAll}."
      },
      "supportsInterface(bytes4)": {
        "details": "See {IERC165-supportsInterface}."
      },
      "symbol()": {
        "details": "See {IERC721Metadata-symbol}."
      },
      "tokenURI(uint256)": {
        "details": "See {IERC721Metadata-tokenURI}."
      },
      "transferFrom(address,address,uint256)": {
        "details": "See {IERC721-transferFrom}."
      }
    },
    "version": 1
  },
  "userdoc": {
    "kind": "user",
    "methods": {},
    "version": 1
  }
}