{
  "contractName": "CockItem",
  "abi": [
    {
      "inputs": [
        {
          "internalType": "address",
          "name": "_accessControl",
          "type": "address"
        }
      ],
      "stateMutability": "nonpayable",
      "type": "constructor"
    },
    {
      "anonymous": false,
      "inputs": [
        {
          "indexed": false,
          "internalType": "uint256",
          "name": "_tokenId",
          "type": "uint256"
        },
        {
          "indexed": false,
          "internalType": "bool",
          "name": "_isSale",
          "type": "bool"
        },
        {
          "indexed": false,
          "internalType": "uint256",
          "name": "_price",
          "type": "uint256"
        },
        {
          "indexed": false,
          "internalType": "bool",
          "name": "_healing",
          "type": "bool"
        }
      ],
      "name": "AddItem",
      "type": "event"
    },
    {
      "anonymous": false,
      "inputs": [
        {
          "indexed": true,
          "internalType": "address",
          "name": "account",
          "type": "address"
        },
        {
          "indexed": true,
          "internalType": "address",
          "name": "operator",
          "type": "address"
        },
        {
          "indexed": false,
          "internalType": "bool",
          "name": "approved",
          "type": "bool"
        }
      ],
      "name": "ApprovalForAll",
      "type": "event"
    },
    {
      "anonymous": false,
      "inputs": [
        {
          "indexed": true,
          "internalType": "address",
          "name": "operator",
          "type": "address"
        },
        {
          "indexed": true,
          "internalType": "address",
          "name": "from",
          "type": "address"
        },
        {
          "indexed": true,
          "internalType": "address",
          "name": "to",
          "type": "address"
        },
        {
          "indexed": false,
          "internalType": "uint256[]",
          "name": "ids",
          "type": "uint256[]"
        },
        {
          "indexed": false,
          "internalType": "uint256[]",
          "name": "values",
          "type": "uint256[]"
        }
      ],
      "name": "TransferBatch",
      "type": "event"
    },
    {
      "anonymous": false,
      "inputs": [
        {
          "indexed": true,
          "internalType": "address",
          "name": "operator",
          "type": "address"
        },
        {
          "indexed": true,
          "internalType": "address",
          "name": "from",
          "type": "address"
        },
        {
          "indexed": true,
          "internalType": "address",
          "name": "to",
          "type": "address"
        },
        {
          "indexed": false,
          "internalType": "uint256",
          "name": "id",
          "type": "uint256"
        },
        {
          "indexed": false,
          "internalType": "uint256",
          "name": "value",
          "type": "uint256"
        }
      ],
      "name": "TransferSingle",
      "type": "event"
    },
    {
      "anonymous": false,
      "inputs": [
        {
          "indexed": false,
          "internalType": "string",
          "name": "value",
          "type": "string"
        },
        {
          "indexed": true,
          "internalType": "uint256",
          "name": "id",
          "type": "uint256"
        }
      ],
      "name": "URI",
      "type": "event"
    },
    {
      "inputs": [],
      "name": "accessControl",
      "outputs": [
        {
          "internalType": "contract ICFNAccessControl",
          "name": "",
          "type": "address"
        }
      ],
      "stateMutability": "view",
      "type": "function"
    },
    {
      "inputs": [
        {
          "internalType": "address",
          "name": "account",
          "type": "address"
        },
        {
          "internalType": "uint256",
          "name": "id",
          "type": "uint256"
        }
      ],
      "name": "balanceOf",
      "outputs": [
        {
          "internalType": "uint256",
          "name": "",
          "type": "uint256"
        }
      ],
      "stateMutability": "view",
      "type": "function"
    },
    {
      "inputs": [
        {
          "internalType": "address[]",
          "name": "accounts",
          "type": "address[]"
        },
        {
          "internalType": "uint256[]",
          "name": "ids",
          "type": "uint256[]"
        }
      ],
      "name": "balanceOfBatch",
      "outputs": [
        {
          "internalType": "uint256[]",
          "name": "",
          "type": "uint256[]"
        }
      ],
      "stateMutability": "view",
      "type": "function"
    },
    {
      "inputs": [
        {
          "internalType": "address",
          "name": "account",
          "type": "address"
        },
        {
          "internalType": "address",
          "name": "operator",
          "type": "address"
        }
      ],
      "name": "isApprovedForAll",
      "outputs": [
        {
          "internalType": "bool",
          "name": "",
          "type": "bool"
        }
      ],
      "stateMutability": "view",
      "type": "function"
    },
    {
      "inputs": [
        {
          "internalType": "uint256",
          "name": "",
          "type": "uint256"
        }
      ],
      "name": "itemList",
      "outputs": [
        {
          "internalType": "uint256",
          "name": "",
          "type": "uint256"
        }
      ],
      "stateMutability": "view",
      "type": "function"
    },
    {
      "inputs": [],
      "name": "name",
      "outputs": [
        {
          "internalType": "string",
          "name": "",
          "type": "string"
        }
      ],
      "stateMutability": "view",
      "type": "function"
    },
    {
      "inputs": [
        {
          "internalType": "address",
          "name": "operator",
          "type": "address"
        },
        {
          "internalType": "bool",
          "name": "approved",
          "type": "bool"
        }
      ],
      "name": "setApprovalForAll",
      "outputs": [],
      "stateMutability": "nonpayable",
      "type": "function"
    },
    {
      "inputs": [
        {
          "internalType": "bytes4",
          "name": "interfaceId",
          "type": "bytes4"
        }
      ],
      "name": "supportsInterface",
      "outputs": [
        {
          "internalType": "bool",
          "name": "",
          "type": "bool"
        }
      ],
      "stateMutability": "view",
      "type": "function"
    },
    {
      "inputs": [],
      "name": "symbol",
      "outputs": [
        {
          "internalType": "string",
          "name": "",
          "type": "string"
        }
      ],
      "stateMutability": "view",
      "type": "function"
    },
    {
      "inputs": [
        {
          "internalType": "uint256",
          "name": "",
          "type": "uint256"
        }
      ],
      "name": "tokenURIs",
      "outputs": [
        {
          "internalType": "uint256",
          "name": "tokenId",
          "type": "uint256"
        },
        {
          "internalType": "bool",
          "name": "isSale",
          "type": "bool"
        },
        {
          "internalType": "uint256",
          "name": "price",
          "type": "uint256"
        },
        {
          "internalType": "bool",
          "name": "healing",
          "type": "bool"
        }
      ],
      "stateMutability": "view",
      "type": "function"
    },
    {
      "inputs": [
        {
          "internalType": "address",
          "name": "_ca",
          "type": "address"
        }
      ],
      "name": "setAccessControl",
      "outputs": [],
      "stateMutability": "nonpayable",
      "type": "function"
    },
    {
      "inputs": [
        {
          "internalType": "string",
          "name": "_newUri",
          "type": "string"
        }
      ],
      "name": "setURI",
      "outputs": [],
      "stateMutability": "nonpayable",
      "type": "function"
    },
    {
      "inputs": [
        {
          "components": [
            {
              "internalType": "uint256",
              "name": "tokenId",
              "type": "uint256"
            },
            {
              "internalType": "bool",
              "name": "isSale",
              "type": "bool"
            },
            {
              "internalType": "uint256",
              "name": "price",
              "type": "uint256"
            },
            {
              "internalType": "bool",
              "name": "healing",
              "type": "bool"
            }
          ],
          "internalType": "struct ItemTypes.CockItem",
          "name": "item",
          "type": "tuple"
        }
      ],
      "name": "addItems",
      "outputs": [],
      "stateMutability": "nonpayable",
      "type": "function"
    },
    {
      "inputs": [
        {
          "internalType": "uint256",
          "name": "_tokenId",
          "type": "uint256"
        },
        {
          "internalType": "bool",
          "name": "_isSale",
          "type": "bool"
        }
      ],
      "name": "setIsSale",
      "outputs": [],
      "stateMutability": "nonpayable",
      "type": "function"
    },
    {
      "inputs": [
        {
          "internalType": "uint256",
          "name": "_tokenId",
          "type": "uint256"
        },
        {
          "internalType": "uint256",
          "name": "_price",
          "type": "uint256"
        }
      ],
      "name": "setPrice",
      "outputs": [],
      "stateMutability": "nonpayable",
      "type": "function"
    },
    {
      "inputs": [
        {
          "internalType": "uint256",
          "name": "_tokenId",
          "type": "uint256"
        },
        {
          "internalType": "bool",
          "name": "_healing",
          "type": "bool"
        }
      ],
      "name": "setHealing",
      "outputs": [],
      "stateMutability": "nonpayable",
      "type": "function"
    },
    {
      "inputs": [],
      "name": "getItemList",
      "outputs": [
        {
          "internalType": "uint256[]",
          "name": "",
          "type": "uint256[]"
        }
      ],
      "stateMutability": "view",
      "type": "function"
    },
    {
      "inputs": [
        {
          "internalType": "uint256",
          "name": "tokenId",
          "type": "uint256"
        }
      ],
      "name": "uri",
      "outputs": [
        {
          "internalType": "string",
          "name": "",
          "type": "string"
        }
      ],
      "stateMutability": "view",
      "type": "function"
    },
    {
      "inputs": [
        {
          "internalType": "address",
          "name": "account",
          "type": "address"
        },
        {
          "internalType": "uint256",
          "name": "id",
          "type": "uint256"
        },
        {
          "internalType": "uint256",
          "name": "value",
          "type": "uint256"
        }
      ],
      "name": "burn",
      "outputs": [],
      "stateMutability": "nonpayable",
      "type": "function"
    },
    {
      "inputs": [
        {
          "internalType": "address",
          "name": "_to",
          "type": "address"
        },
        {
          "internalType": "uint256",
          "name": "_id",
          "type": "uint256"
        },
        {
          "internalType": "uint256",
          "name": "_amount",
          "type": "uint256"
        },
        {
          "internalType": "bytes",
          "name": "_data",
          "type": "bytes"
        }
      ],
      "name": "mint",
      "outputs": [],
      "stateMutability": "nonpayable",
      "type": "function"
    },
    {
      "inputs": [
        {
          "internalType": "address",
          "name": "_to",
          "type": "address"
        },
        {
          "internalType": "uint256[]",
          "name": "_ids",
          "type": "uint256[]"
        },
        {
          "internalType": "uint256[]",
          "name": "_amounts",
          "type": "uint256[]"
        },
        {
          "internalType": "bytes",
          "name": "_data",
          "type": "bytes"
        }
      ],
      "name": "mintBatch",
      "outputs": [],
      "stateMutability": "nonpayable",
      "type": "function"
    },
    {
      "inputs": [
        {
          "internalType": "address",
          "name": "from",
          "type": "address"
        },
        {
          "internalType": "address",
          "name": "to",
          "type": "address"
        },
        {
          "internalType": "uint256",
          "name": "id",
          "type": "uint256"
        },
        {
          "internalType": "uint256",
          "name": "amount",
          "type": "uint256"
        },
        {
          "internalType": "bytes",
          "name": "data",
          "type": "bytes"
        }
      ],
      "name": "safeTransferFrom",
      "outputs": [],
      "stateMutability": "nonpayable",
      "type": "function"
    },
    {
      "inputs": [
        {
          "internalType": "address",
          "name": "from",
          "type": "address"
        },
        {
          "internalType": "address",
          "name": "to",
          "type": "address"
        },
        {
          "internalType": "uint256[]",
          "name": "ids",
          "type": "uint256[]"
        },
        {
          "internalType": "uint256[]",
          "name": "amounts",
          "type": "uint256[]"
        },
        {
          "internalType": "bytes",
          "name": "data",
          "type": "bytes"
        }
      ],
      "name": "safeBatchTransferFrom",
      "outputs": [],
      "stateMutability": "nonpayable",
      "type": "function"
    }
  ],
  "bytecode": "0x60c06040526009608081905268436f636b204974656d60b81b60a09081526200002c9160049190620000f0565b506040805180820190915260048082526321a5a4a760e11b60209092019182526200005a91600591620000f0565b503480156200006857600080fd5b5060405162002f7538038062002f758339810160408190526200008b9162000196565b60405180606001604052806023815260200162002f5260239139620000b081620000d7565b50600380546001600160a01b0319166001600160a01b039290921691909117905562000205565b8051620000ec906002906020840190620000f0565b5050565b828054620000fe90620001c8565b90600052602060002090601f0160209004810192826200012257600085556200016d565b82601f106200013d57805160ff19168380011785556200016d565b828001600101855582156200016d579182015b828111156200016d57825182559160200191906001019062000150565b506200017b9291506200017f565b5090565b5b808211156200017b576000815560010162000180565b600060208284031215620001a957600080fd5b81516001600160a01b0381168114620001c157600080fd5b9392505050565b600181811c90821680620001dd57607f821691505b60208210811415620001ff57634e487b7160e01b600052602260045260246000fd5b50919050565b612d3d80620002156000396000f3fe608060405234801561001057600080fd5b506004361061014c5760003560e01c80634e1273f4116100c3578063b45f1f701161007c578063b45f1f7014610315578063e985e9c514610328578063f12f0f8314610364578063f242432a14610377578063f5298aca1461038a578063f7d975771461039d57600080fd5b80634e1273f41461026357806353b6940b146102765780636c8b703f14610289578063731133e9146102e757806395d89b41146102fa578063a22cb4651461030257600080fd5b80630e89341c116101155780630e89341c146101d957806313007d55146101ec57806319129e5a146102175780631f7fdffa1461022a5780632eb2c2d61461023d5780633d4d36001461025057600080fd5b8062fdd58e1461015157806301ffc9a71461017757806302fe53051461019a578063063b2e5b146101af57806306fdde03146101c4575b600080fd5b61016461015f366004612402565b6103b0565b6040519081526020015b60405180910390f35b61018a6101853660046125bf565b610446565b604051901515815260200161016e565b6101ad6101a83660046125f9565b610498565b005b6101b761053d565b60405161016e919061280b565b6101cc610595565b60405161016e919061284c565b6101cc6101e7366004612662565b610623565b6003546101ff906001600160a01b031681565b6040516001600160a01b03909116815260200161016e565b6101ad6102253660046121d5565b6106aa565b6101ad610238366004612332565b610765565b6101ad61024b366004612223565b610920565b61016461025e366004612662565b610a6a565b6101b76102713660046124b4565b610a8b565b6101ad61028436600461267b565b610bb5565b6102c5610297366004612662565b6006602052600090815260409020805460018201546002830154600390930154919260ff9182169290911684565b604080519485529215156020850152918301521515606082015260800161016e565b6101ad6102f536600461245f565b610c9c565b6101cc610e29565b6101ad6103103660046123cb565b610e36565b6101ad61032336600461264a565b610e41565b61018a6103363660046121f0565b6001600160a01b03918216600090815260016020908152604080832093909416825291909152205460ff1690565b6101ad61037236600461267b565b61103d565b6101ad6103853660046122cd565b611124565b6101ad61039836600461242c565b611265565b6101ad6103ab3660046126a0565b6112ef565b60006001600160a01b0383166104205760405162461bcd60e51b815260206004820152602a60248201527f455243313135353a2061646472657373207a65726f206973206e6f742061207660448201526930b634b21037bbb732b960b11b60648201526084015b60405180910390fd5b506000908152602081815260408083206001600160a01b03949094168352929052205490565b60006001600160e01b03198216636cdb3d1360e11b148061047757506001600160e01b031982166303a24d0760e21b145b8061049257506301ffc9a760e01b6001600160e01b03198316145b92915050565b600354604051633f1e317960e11b81523360048201819052916001600160a01b031690637e3c62f29060240160206040518083038186803b1580156104dc57600080fd5b505afa1580156104f0573d6000803e3d6000fd5b505050506040513d601f19601f8201168201806040525081019061051491906125a2565b6105305760405162461bcd60e51b8152600401610417906128a7565b610539826113c8565b5050565b6060600780548060200260200160405190810160405280929190818152602001828054801561058b57602002820191906000526020600020905b815481526020019060010190808311610577575b5050505050905090565b600480546105a290612b22565b80601f01602080910402602001604051908101604052809291908181526020018280546105ce90612b22565b801561061b5780601f106105f05761010080835404028352916020019161061b565b820191906000526020600020905b8154815290600101906020018083116105fe57829003601f168201915b505050505081565b6000818152600660205260409020546060906106715760405162461bcd60e51b815260206004820152600d60248201526c556e646566696e65642055726960981b6044820152606401610417565b61067a826113db565b6106838361146f565b604051602001610694929190612729565b6040516020818303038152906040529050919050565b600354604051633f1e317960e11b81523360048201819052916001600160a01b031690637e3c62f29060240160206040518083038186803b1580156106ee57600080fd5b505afa158015610702573d6000803e3d6000fd5b505050506040513d601f19601f8201168201806040525081019061072691906125a2565b6107425760405162461bcd60e51b8152600401610417906128a7565b50600380546001600160a01b0319166001600160a01b0392909216919091179055565b600354604051633f1e317960e11b81523360048201819052916001600160a01b031690637e3c62f29060240160206040518083038186803b1580156107a957600080fd5b505afa1580156107bd573d6000803e3d6000fd5b505050506040513d601f19601f820116820180604052508101906107e191906125a2565b6107fd5760405162461bcd60e51b8152600401610417906128a7565b600354604051636aacbfd760e11b81526001600160a01b0380881660048301528792169063d5597fae9060240160206040518083038186803b15801561084257600080fd5b505afa158015610856573d6000803e3d6000fd5b505050506040513d601f19601f8201168201806040525081019061087a91906125a2565b156108975760405162461bcd60e51b8152600401610417906129bb565b60066000866000815181106108ae576108ae612bb5565b60200260200101518152602001908152602001600020600001546000141561090c5760405162461bcd60e51b8152602060048201526011602482015270155b9919599a5b995908151bdad95b9259607a1b6044820152606401610417565b61091886868686611504565b505050505050565b600354604051636aacbfd760e11b81526001600160a01b0380881660048301528792169063d5597fae9060240160206040518083038186803b15801561096557600080fd5b505afa158015610979573d6000803e3d6000fd5b505050506040513d601f19601f8201168201806040525081019061099d91906125a2565b156109ba5760405162461bcd60e51b8152600401610417906129bb565b600354604051636aacbfd760e11b81526001600160a01b0380881660048301528792169063d5597fae9060240160206040518083038186803b1580156109ff57600080fd5b505afa158015610a13573d6000803e3d6000fd5b505050506040513d601f19601f82011682018060405250810190610a3791906125a2565b15610a545760405162461bcd60e51b8152600401610417906129bb565b610a618787878787611656565b50505050505050565b60078181548110610a7a57600080fd5b600091825260209091200154905081565b60608151835114610af05760405162461bcd60e51b815260206004820152602960248201527f455243313135353a206163636f756e747320616e6420696473206c656e677468604482015268040dad2e6dac2e8c6d60bb1b6064820152608401610417565b6000835167ffffffffffffffff811115610b0c57610b0c612bcb565b604051908082528060200260200182016040528015610b35578160200160208202803683370190505b50905060005b8451811015610bad57610b80858281518110610b5957610b59612bb5565b6020026020010151858381518110610b7357610b73612bb5565b60200260200101516103b0565b828281518110610b9257610b92612bb5565b6020908102919091010152610ba681612b84565b9050610b3b565b509392505050565b600354604051633f1e317960e11b81523360048201819052916001600160a01b031690637e3c62f29060240160206040518083038186803b158015610bf957600080fd5b505afa158015610c0d573d6000803e3d6000fd5b505050506040513d601f19601f82011682018060405250810190610c3191906125a2565b610c4d5760405162461bcd60e51b8152600401610417906128a7565b600083815260066020526040902054610c785760405162461bcd60e51b815260040161041790612a05565b50600091825260066020526040909120600301805460ff1916911515919091179055565b600354604051633f1e317960e11b81523360048201819052916001600160a01b031690637e3c62f29060240160206040518083038186803b158015610ce057600080fd5b505afa158015610cf4573d6000803e3d6000fd5b505050506040513d601f19601f82011682018060405250810190610d1891906125a2565b610d345760405162461bcd60e51b8152600401610417906128a7565b600354604051636aacbfd760e11b81526001600160a01b0380881660048301528792169063d5597fae9060240160206040518083038186803b158015610d7957600080fd5b505afa158015610d8d573d6000803e3d6000fd5b505050506040513d601f19601f82011682018060405250810190610db191906125a2565b15610dce5760405162461bcd60e51b8152600401610417906129bb565b600085815260066020526040902054610e1d5760405162461bcd60e51b8152602060048201526011602482015270155b9919599a5b995908151bdad95b9259607a1b6044820152606401610417565b6109188686868661169b565b600580546105a290612b22565b61053933838361176c565b600354604051633f1e317960e11b81523360048201819052916001600160a01b031690637e3c62f29060240160206040518083038186803b158015610e8557600080fd5b505afa158015610e99573d6000803e3d6000fd5b505050506040513d601f19601f82011682018060405250810190610ebd91906125a2565b610ed95760405162461bcd60e51b8152600401610417906128a7565b813560009081526006602052604090205415610f285760405162461bcd60e51b815260206004820152600e60248201526d416c72656164792065786973747360901b6044820152606401610417565b8135610f765760405162461bcd60e51b815260206004820152601960248201527f4d7573742062652067726561746572207468616e207a65726f000000000000006044820152606401610417565b813560009081526006602052604090208290610f928282612c87565b50506007805460018101825560009190915282357fa66cc928b5edb82af9bd49922954155ab7b0942694bea4ce44661d9a8736c6889091018190557ff4f8a90d3931bdb5855561184a562863b888eb1eae7c00e54612fe231b7039e190610fff6040850160208601612585565b60408501356110146080870160608801612585565b604080519485529215156020850152918301521515606082015260800160405180910390a15050565b600354604051633f1e317960e11b81523360048201819052916001600160a01b031690637e3c62f29060240160206040518083038186803b15801561108157600080fd5b505afa158015611095573d6000803e3d6000fd5b505050506040513d601f19601f820116820180604052508101906110b991906125a2565b6110d55760405162461bcd60e51b8152600401610417906128a7565b6000838152600660205260409020546111005760405162461bcd60e51b815260040161041790612a05565b50600091825260066020526040909120600101805460ff1916911515919091179055565b600354604051636aacbfd760e11b81526001600160a01b0380881660048301528792169063d5597fae9060240160206040518083038186803b15801561116957600080fd5b505afa15801561117d573d6000803e3d6000fd5b505050506040513d601f19601f820116820180604052508101906111a191906125a2565b156111be5760405162461bcd60e51b8152600401610417906129bb565b600354604051636aacbfd760e11b81526001600160a01b0380881660048301528792169063d5597fae9060240160206040518083038186803b15801561120357600080fd5b505afa158015611217573d6000803e3d6000fd5b505050506040513d601f19601f8201168201806040525081019061123b91906125a2565b156112585760405162461bcd60e51b8152600401610417906129bb565b610a61878787878761184d565b6001600160a01b03831633148061128157506112818333610336565b6112df5760405162461bcd60e51b815260206004820152602960248201527f455243313135353a2063616c6c6572206973206e6f74206f776e6572206e6f7260448201526808185c1c1c9bdd995960ba1b6064820152608401610417565b6112ea838383611892565b505050565b600354604051633f1e317960e11b81523360048201819052916001600160a01b031690637e3c62f29060240160206040518083038186803b15801561133357600080fd5b505afa158015611347573d6000803e3d6000fd5b505050506040513d601f19601f8201168201806040525081019061136b91906125a2565b6113875760405162461bcd60e51b8152600401610417906128a7565b6000838152600660205260409020546113b25760405162461bcd60e51b815260040161041790612a05565b5060009182526006602052604090912060020155565b8051610539906002906020840190612024565b6060600280546113ea90612b22565b80601f016020809104026020016040519081016040528092919081815260200182805461141690612b22565b80156114635780601f1061143857610100808354040283529160200191611463565b820191906000526020600020905b81548152906001019060200180831161144657829003601f168201915b50505050509050919050565b6060600061147c83611a0e565b600101905060008167ffffffffffffffff81111561149c5761149c612bcb565b6040519080825280601f01601f1916602001820160405280156114c6576020820181803683370190505b5090508181016020015b600019016f181899199a1a9b1b9c1cb0b131b232b360811b600a86061a8153600a85049450846114ff57610bad565b6114d0565b6001600160a01b03841661152a5760405162461bcd60e51b815260040161041790612a75565b815183511461154b5760405162461bcd60e51b815260040161041790612a2d565b3360005b84518110156115e75783818151811061156a5761156a612bb5565b602002602001015160008087848151811061158757611587612bb5565b602002602001015181526020019081526020016000206000886001600160a01b03166001600160a01b0316815260200190815260200160002060008282546115cf9190612ada565b909155508190506115df81612b84565b91505061154f565b50846001600160a01b031660006001600160a01b0316826001600160a01b03167f4a39dc06d4c0dbc64b70af90fd698a233a518aa5d07e595d983b8c0526c8f7fb878760405161163892919061281e565b60405180910390a461164f81600087878787611ae6565b5050505050565b6001600160a01b03851633148061167257506116728533610336565b61168e5760405162461bcd60e51b8152600401610417906128de565b61164f8585858585611c51565b6001600160a01b0384166116c15760405162461bcd60e51b815260040161041790612a75565b3360006116cd85611de5565b905060006116da85611de5565b90506000868152602081815260408083206001600160a01b038b1684529091528120805487929061170c908490612ada565b909155505060408051878152602081018790526001600160a01b03808a1692600092918716917fc3d58168c5ae7397731d063d5bbf3d657854427343f4c083240f7aacaa2d0f62910160405180910390a4610a6183600089898989611e30565b816001600160a01b0316836001600160a01b031614156117e05760405162461bcd60e51b815260206004820152602960248201527f455243313135353a2073657474696e6720617070726f76616c20737461747573604482015268103337b91039b2b63360b91b6064820152608401610417565b6001600160a01b03838116600081815260016020908152604080832094871680845294825291829020805460ff191686151590811790915591519182527f17307eab39ab6107e8899845ad3d59bd9653f200f220920489ca2b5937696c31910160405180910390a3505050565b6001600160a01b03851633148061186957506118698533610336565b6118855760405162461bcd60e51b8152600401610417906128de565b61164f8585858585611efa565b6001600160a01b0383166118f45760405162461bcd60e51b815260206004820152602360248201527f455243313135353a206275726e2066726f6d20746865207a65726f206164647260448201526265737360e81b6064820152608401610417565b33600061190084611de5565b9050600061190d84611de5565b60408051602080820183526000918290528882528181528282206001600160a01b038b16835290522054909150848110156119965760405162461bcd60e51b8152602060048201526024808201527f455243313135353a206275726e20616d6f756e7420657863656564732062616c604482015263616e636560e01b6064820152608401610417565b6000868152602081815260408083206001600160a01b038b81168086529184528285208a8703905582518b81529384018a90529092908816917fc3d58168c5ae7397731d063d5bbf3d657854427343f4c083240f7aacaa2d0f62910160405180910390a4604080516020810190915260009052610a61565b60008072184f03e93ff9f4daa797ed6e38ed64bf6a1f0160401b8310611a4d5772184f03e93ff9f4daa797ed6e38ed64bf6a1f0160401b830492506040015b6d04ee2d6d415b85acef81000000008310611a79576d04ee2d6d415b85acef8100000000830492506020015b662386f26fc100008310611a9757662386f26fc10000830492506010015b6305f5e1008310611aaf576305f5e100830492506008015b6127108310611ac357612710830492506004015b60648310611ad5576064830492506002015b600a83106104925760010192915050565b6001600160a01b0384163b156109185760405163bc197c8160e01b81526001600160a01b0385169063bc197c8190611b2a9089908990889088908890600401612768565b602060405180830381600087803b158015611b4457600080fd5b505af1925050508015611b74575060408051601f3d908101601f19168201909252611b71918101906125dc565b60015b611c2157611b80612be1565b806308c379a01415611bba5750611b95612bfd565b80611ba05750611bbc565b8060405162461bcd60e51b8152600401610417919061284c565b505b60405162461bcd60e51b815260206004820152603460248201527f455243313135353a207472616e7366657220746f206e6f6e2d455243313135356044820152732932b1b2b4bb32b91034b6b83632b6b2b73a32b960611b6064820152608401610417565b6001600160e01b0319811663bc197c8160e01b14610a615760405162461bcd60e51b81526004016104179061285f565b8151835114611c725760405162461bcd60e51b815260040161041790612a2d565b6001600160a01b038416611c985760405162461bcd60e51b81526004016104179061292c565b3360005b8451811015611d7f576000858281518110611cb957611cb9612bb5565b602002602001015190506000858381518110611cd757611cd7612bb5565b602090810291909101810151600084815280835260408082206001600160a01b038e168352909352919091205490915081811015611d275760405162461bcd60e51b815260040161041790612971565b6000838152602081815260408083206001600160a01b038e8116855292528083208585039055908b16825281208054849290611d64908490612ada565b9250508190555050505080611d7890612b84565b9050611c9c565b50846001600160a01b0316866001600160a01b0316826001600160a01b03167f4a39dc06d4c0dbc64b70af90fd698a233a518aa5d07e595d983b8c0526c8f7fb8787604051611dcf92919061281e565b60405180910390a4610918818787878787611ae6565b60408051600180825281830190925260609160009190602080830190803683370190505090508281600081518110611e1f57611e1f612bb5565b602090810291909101015292915050565b6001600160a01b0384163b156109185760405163f23a6e6160e01b81526001600160a01b0385169063f23a6e6190611e7490899089908890889088906004016127c6565b602060405180830381600087803b158015611e8e57600080fd5b505af1925050508015611ebe575060408051601f3d908101601f19168201909252611ebb918101906125dc565b60015b611eca57611b80612be1565b6001600160e01b0319811663f23a6e6160e01b14610a615760405162461bcd60e51b81526004016104179061285f565b6001600160a01b038416611f205760405162461bcd60e51b81526004016104179061292c565b336000611f2c85611de5565b90506000611f3985611de5565b90506000868152602081815260408083206001600160a01b038c16845290915290205485811015611f7c5760405162461bcd60e51b815260040161041790612971565b6000878152602081815260408083206001600160a01b038d8116855292528083208985039055908a16825281208054889290611fb9908490612ada565b909155505060408051888152602081018890526001600160a01b03808b16928c821692918816917fc3d58168c5ae7397731d063d5bbf3d657854427343f4c083240f7aacaa2d0f62910160405180910390a4612019848a8a8a8a8a611e30565b505050505050505050565b82805461203090612b22565b90600052602060002090601f0160209004810192826120525760008555612098565b82601f1061206b57805160ff1916838001178555612098565b82800160010185558215612098579182015b8281111561209857825182559160200191906001019061207d565b506120a49291506120a8565b5090565b5b808211156120a457600081556001016120a9565b600067ffffffffffffffff8311156120d7576120d7612bcb565b6040516120ee601f8501601f191660200182612b57565b80915083815284848401111561210357600080fd5b83836020830137600060208583010152509392505050565b80356001600160a01b038116811461213257600080fd5b919050565b600082601f83011261214857600080fd5b8135602061215582612ab6565b6040516121628282612b57565b8381528281019150858301600585901b8701840188101561218257600080fd5b60005b858110156121a157813584529284019290840190600101612185565b5090979650505050505050565b600082601f8301126121bf57600080fd5b6121ce838335602085016120bd565b9392505050565b6000602082840312156121e757600080fd5b6121ce8261211b565b6000806040838503121561220357600080fd5b61220c8361211b565b915061221a6020840161211b565b90509250929050565b600080600080600060a0868803121561223b57600080fd5b6122448661211b565b94506122526020870161211b565b9350604086013567ffffffffffffffff8082111561226f57600080fd5b61227b89838a01612137565b9450606088013591508082111561229157600080fd5b61229d89838a01612137565b935060808801359150808211156122b357600080fd5b506122c0888289016121ae565b9150509295509295909350565b600080600080600060a086880312156122e557600080fd5b6122ee8661211b565b94506122fc6020870161211b565b93506040860135925060608601359150608086013567ffffffffffffffff81111561232657600080fd5b6122c0888289016121ae565b6000806000806080858703121561234857600080fd5b6123518561211b565b9350602085013567ffffffffffffffff8082111561236e57600080fd5b61237a88838901612137565b9450604087013591508082111561239057600080fd5b61239c88838901612137565b935060608701359150808211156123b257600080fd5b506123bf878288016121ae565b91505092959194509250565b600080604083850312156123de57600080fd5b6123e78361211b565b915060208301356123f781612ce0565b809150509250929050565b6000806040838503121561241557600080fd5b61241e8361211b565b946020939093013593505050565b60008060006060848603121561244157600080fd5b61244a8461211b565b95602085013595506040909401359392505050565b6000806000806080858703121561247557600080fd5b61247e8561211b565b93506020850135925060408501359150606085013567ffffffffffffffff8111156124a857600080fd5b6123bf878288016121ae565b600080604083850312156124c757600080fd5b823567ffffffffffffffff808211156124df57600080fd5b818501915085601f8301126124f357600080fd5b8135602061250082612ab6565b60405161250d8282612b57565b8381528281019150858301600585901b870184018b101561252d57600080fd5b600096505b84871015612557576125438161211b565b835260019690960195918301918301612532565b509650508601359250508082111561256e57600080fd5b5061257b85828601612137565b9150509250929050565b60006020828403121561259757600080fd5b81356121ce81612ce0565b6000602082840312156125b457600080fd5b81516121ce81612ce0565b6000602082840312156125d157600080fd5b81356121ce81612cf1565b6000602082840312156125ee57600080fd5b81516121ce81612cf1565b60006020828403121561260b57600080fd5b813567ffffffffffffffff81111561262257600080fd5b8201601f8101841361263357600080fd5b612642848235602084016120bd565b949350505050565b60006080828403121561265c57600080fd5b50919050565b60006020828403121561267457600080fd5b5035919050565b6000806040838503121561268e57600080fd5b8235915060208301356123f781612ce0565b600080604083850312156126b357600080fd5b50508035926020909101359150565b600081518084526020808501945080840160005b838110156126f2578151875295820195908201906001016126d6565b509495945050505050565b60008151808452612715816020860160208601612af2565b601f01601f19169290920160200192915050565b6000835161273b818460208801612af2565b83519083019061274f818360208801612af2565b64173539b7b760d91b9101908152600501949350505050565b6001600160a01b0386811682528516602082015260a060408201819052600090612794908301866126c2565b82810360608401526127a681866126c2565b905082810360808401526127ba81856126fd565b98975050505050505050565b6001600160a01b03868116825285166020820152604081018490526060810183905260a060808201819052600090612800908301846126fd565b979650505050505050565b6020815260006121ce60208301846126c2565b60408152600061283160408301856126c2565b828103602084015261284381856126c2565b95945050505050565b6020815260006121ce60208301846126fd565b60208082526028908201527f455243313135353a204552433131353552656365697665722072656a656374656040820152676420746f6b656e7360c01b606082015260800190565b60208082526018908201527f556e7665726966696564206f776e657220616464726573730000000000000000604082015260600190565b6020808252602e908201527f455243313135353a2063616c6c6572206973206e6f7420746f6b656e206f776e60408201526d195c881bdc88185c1c1c9bdd995960921b606082015260800190565b60208082526025908201527f455243313135353a207472616e7366657220746f20746865207a65726f206164604082015264647265737360d81b606082015260800190565b6020808252602a908201527f455243313135353a20696e73756666696369656e742062616c616e636520666f60408201526939103a3930b739b332b960b11b606082015260800190565b6020808252602a908201527f5472616e73616374696f6e2064656e6965643a206164647265737320697320626040820152691b1858dadb1a5cdd195960b21b606082015260800190565b6020808252600e908201526d556e646566696e6564204974656d60901b604082015260600190565b60208082526028908201527f455243313135353a2069647320616e6420616d6f756e7473206c656e677468206040820152670dad2e6dac2e8c6d60c31b606082015260800190565b60208082526021908201527f455243313135353a206d696e7420746f20746865207a65726f206164647265736040820152607360f81b606082015260800190565b600067ffffffffffffffff821115612ad057612ad0612bcb565b5060051b60200190565b60008219821115612aed57612aed612b9f565b500190565b60005b83811015612b0d578181015183820152602001612af5565b83811115612b1c576000848401525b50505050565b600181811c90821680612b3657607f821691505b6020821081141561265c57634e487b7160e01b600052602260045260246000fd5b601f8201601f1916810167ffffffffffffffff81118282101715612b7d57612b7d612bcb565b6040525050565b6000600019821415612b9857612b98612b9f565b5060010190565b634e487b7160e01b600052601160045260246000fd5b634e487b7160e01b600052603260045260246000fd5b634e487b7160e01b600052604160045260246000fd5b600060033d1115612bfa5760046000803e5060005160e01c5b90565b600060443d1015612c0b5790565b6040516003193d81016004833e81513d67ffffffffffffffff8160248401118184111715612c3b57505050505090565b8285019150815181811115612c535750505050505090565b843d8701016020828501011115612c6d5750505050505090565b612c7c60208286010187612b57565b509095945050505050565b813581556020820135612c9981612ce0565b60018201805460ff191660ff8315151617905550604082013560028201556060820135612cc581612ce0565b60038201805482151560ff1660ff1991909116179055505050565b8015158114612cee57600080fd5b50565b6001600160e01b031981168114612cee57600080fdfea2646970667358221220872c82a467057f5767a5970902ac9d008c515b5a91638463bc39c96aecb86c3264736f6c6343000807003368747470733a2f2f696d672e63662d6e2e696f2f6a736f6e732f636f636b4974656d2f",
  "immutableReferences": {},
  "source": "// SPDX-License-Identifier: MIT\npragma solidity ^0.8.1;\n\nimport \"@openzeppelin/contracts/token/ERC1155/ERC1155.sol\";\nimport \"@openzeppelin/contracts/utils/Strings.sol\";\n\nimport \"../interfaces/ICFNAccessControl.sol\";\nimport {ItemTypes} from \"../libraries/ItemTypes.sol\";\n\ncontract CockItem is ERC1155 {\n    using Strings for uint256;\n\n    using ItemTypes for ItemTypes.CockItem;\n\n    ICFNAccessControl public accessControl;\n\n    // contract name, symbol\n    string public name = \"Cock Item\";\n    string public symbol = \"CKIN\";\n\n    mapping(uint256 => ItemTypes.CockItem) public tokenURIs;\n    uint256[] public itemList;\n\n    event AddItem(\n        uint256 _tokenId,\n        bool _isSale,\n        uint256 _price,\n        bool _healing\n    );\n\n    constructor(\n        address _accessControl\n    ) ERC1155(\"https://img.cf-n.io/jsons/cockItem/\") {\n        accessControl = ICFNAccessControl(_accessControl);\n    }\n\n    modifier isBlackListWallet(address _address) {\n        require(\n            !accessControl.blackListWallet(_address),\n            \"Transaction denied: address is blacklisted\"\n        );\n        _;\n    }\n\n    modifier isWhiteListControl(address _ca) {\n        require(\n            accessControl.whiteListControlAddress(_ca),\n            \"Unverified owner address\"\n        );\n        _;\n    }\n\n    function setAccessControl(\n        address _ca\n    ) public isWhiteListControl(msg.sender) {\n        accessControl = ICFNAccessControl(_ca);\n    }\n\n    function setURI(\n        string memory _newUri\n    ) public isWhiteListControl(msg.sender) {\n        _setURI(_newUri);\n    }\n\n    function addItems(\n        ItemTypes.CockItem calldata item\n    ) public isWhiteListControl(msg.sender) {\n        require(tokenURIs[item.tokenId].tokenId == 0, \"Already exists\");\n        require(item.tokenId > 0, \"Must be greater than zero\");\n\n        tokenURIs[item.tokenId] = item;\n\n        itemList.push(item.tokenId);\n\n        emit AddItem(item.tokenId, item.isSale, item.price, item.healing);\n    }\n\n    function setIsSale(\n        uint256 _tokenId,\n        bool _isSale\n    ) public isWhiteListControl(msg.sender) {\n        require(tokenURIs[_tokenId].tokenId != 0, \"Undefined Item\");\n\n        tokenURIs[_tokenId].isSale = _isSale;\n    }\n\n    function setPrice(\n        uint256 _tokenId,\n        uint256 _price\n    ) public isWhiteListControl(msg.sender) {\n        require(tokenURIs[_tokenId].tokenId != 0, \"Undefined Item\");\n\n        tokenURIs[_tokenId].price = _price;\n    }\n\n    function setHealing(\n        uint256 _tokenId,\n        bool _healing\n    ) public isWhiteListControl(msg.sender) {\n        require(tokenURIs[_tokenId].tokenId != 0, \"Undefined Item\");\n\n        tokenURIs[_tokenId].healing = _healing;\n    }\n\n    function getItemList() public view returns (uint256[] memory) {\n        return itemList;\n    }\n\n    function uri(uint256 tokenId) public view override returns (string memory) {\n        require(tokenURIs[tokenId].tokenId != 0, \"Undefined Uri\");\n\n        return\n            string(\n                abi.encodePacked(\n                    super.uri(tokenId),\n                    Strings.toString(tokenId),\n                    \".json\"\n                )\n            );\n    }\n\n    function burn(address account, uint256 id, uint256 value) public {\n        require(\n            account == _msgSender() || isApprovedForAll(account, _msgSender()),\n            \"ERC1155: caller is not owner nor approved\"\n        );\n\n        _burn(account, id, value);\n    }\n\n    function mint(\n        address _to,\n        uint256 _id,\n        uint256 _amount,\n        bytes memory _data\n    ) public isWhiteListControl(msg.sender) isBlackListWallet(_to) {\n        require(tokenURIs[_id].tokenId != 0, \"Undefined TokenId\");\n\n        _mint(_to, _id, _amount, _data);\n    }\n\n    function mintBatch(\n        address _to,\n        uint256[] memory _ids,\n        uint256[] memory _amounts,\n        bytes memory _data\n    ) public isWhiteListControl(msg.sender) isBlackListWallet(_to) {\n        require(tokenURIs[_ids[0]].tokenId != 0, \"Undefined TokenId\");\n\n        _mintBatch(_to, _ids, _amounts, _data);\n    }\n\n    function safeTransferFrom(\n        address from,\n        address to,\n        uint256 id,\n        uint256 amount,\n        bytes memory data\n    ) public override isBlackListWallet(from) isBlackListWallet(to) {\n        super.safeTransferFrom(from, to, id, amount, data);\n    }\n\n    function safeBatchTransferFrom(\n        address from,\n        address to,\n        uint256[] memory ids,\n        uint256[] memory amounts,\n        bytes memory data\n    ) public override isBlackListWallet(from) isBlackListWallet(to) {\n        super.safeBatchTransferFrom(from, to, ids, amounts, data);\n    }\n}\n",
  "sourcePath": "/Users/minki/Desktop/Codberg/cock-fight-network-contrats/contracts/cock-fight/erc1155/CockItem.sol",
  "compiler": {
    "name": "solc",
    "version": "0.8.7+commit.e28d00a7.Emscripten.clang"
  },
  "schemaVersion": "3.4.16",
  "updatedAt": "2025-04-15T23:46:43.665Z",
  "devdoc": {
    "kind": "dev",
    "methods": {
      "balanceOf(address,uint256)": {
        "details": "See {IERC1155-balanceOf}. Requirements: - `account` cannot be the zero address."
      },
      "balanceOfBatch(address[],uint256[])": {
        "details": "See {IERC1155-balanceOfBatch}. Requirements: - `accounts` and `ids` must have the same length."
      },
      "isApprovedForAll(address,address)": {
        "details": "See {IERC1155-isApprovedForAll}."
      },
      "safeBatchTransferFrom(address,address,uint256[],uint256[],bytes)": {
        "details": "See {IERC1155-safeBatchTransferFrom}."
      },
      "safeTransferFrom(address,address,uint256,uint256,bytes)": {
        "details": "See {IERC1155-safeTransferFrom}."
      },
      "setApprovalForAll(address,bool)": {
        "details": "See {IERC1155-setApprovalForAll}."
      },
      "supportsInterface(bytes4)": {
        "details": "See {IERC165-supportsInterface}."
      }
    },
    "version": 1
  },
  "userdoc": {
    "kind": "user",
    "methods": {},
    "version": 1
  }
}