{
  "contractName": "Egg",
  "abi": [
    {
      "inputs": [],
      "stateMutability": "nonpayable",
      "type": "constructor"
    },
    {
      "anonymous": false,
      "inputs": [
        {
          "indexed": true,
          "internalType": "address",
          "name": "owner",
          "type": "address"
        },
        {
          "indexed": true,
          "internalType": "address",
          "name": "approved",
          "type": "address"
        },
        {
          "indexed": true,
          "internalType": "uint256",
          "name": "tokenId",
          "type": "uint256"
        }
      ],
      "name": "Approval",
      "type": "event"
    },
    {
      "anonymous": false,
      "inputs": [
        {
          "indexed": true,
          "internalType": "address",
          "name": "owner",
          "type": "address"
        },
        {
          "indexed": true,
          "internalType": "address",
          "name": "operator",
          "type": "address"
        },
        {
          "indexed": false,
          "internalType": "bool",
          "name": "approved",
          "type": "bool"
        }
      ],
      "name": "ApprovalForAll",
      "type": "event"
    },
    {
      "anonymous": false,
      "inputs": [
        {
          "indexed": false,
          "internalType": "address",
          "name": "addr",
          "type": "address"
        }
      ],
      "name": "BlackListAddressAdded",
      "type": "event"
    },
    {
      "anonymous": false,
      "inputs": [
        {
          "indexed": false,
          "internalType": "address",
          "name": "addr",
          "type": "address"
        }
      ],
      "name": "BlackListAddressRemoved",
      "type": "event"
    },
    {
      "anonymous": false,
      "inputs": [
        {
          "indexed": true,
          "internalType": "uint256",
          "name": "tokenId",
          "type": "uint256"
        },
        {
          "indexed": true,
          "internalType": "uint256",
          "name": "currentTimestamp",
          "type": "uint256"
        },
        {
          "indexed": false,
          "internalType": "uint256",
          "name": "timestamp3Weeks",
          "type": "uint256"
        }
      ],
      "name": "EggHatch",
      "type": "event"
    },
    {
      "anonymous": false,
      "inputs": [
        {
          "indexed": true,
          "internalType": "uint256",
          "name": "tokenId",
          "type": "uint256"
        },
        {
          "indexed": true,
          "internalType": "address",
          "name": "usingAddress",
          "type": "address"
        },
        {
          "indexed": false,
          "internalType": "uint256",
          "name": "subtract",
          "type": "uint256"
        }
      ],
      "name": "EggHatchUsingItem",
      "type": "event"
    },
    {
      "anonymous": false,
      "inputs": [
        {
          "indexed": true,
          "internalType": "address",
          "name": "previousOwner",
          "type": "address"
        },
        {
          "indexed": true,
          "internalType": "address",
          "name": "newOwner",
          "type": "address"
        }
      ],
      "name": "OwnershipTransferred",
      "type": "event"
    },
    {
      "anonymous": false,
      "inputs": [
        {
          "indexed": true,
          "internalType": "address",
          "name": "from",
          "type": "address"
        },
        {
          "indexed": true,
          "internalType": "address",
          "name": "to",
          "type": "address"
        },
        {
          "indexed": true,
          "internalType": "uint256",
          "name": "tokenId",
          "type": "uint256"
        }
      ],
      "name": "Transfer",
      "type": "event"
    },
    {
      "anonymous": false,
      "inputs": [
        {
          "indexed": false,
          "internalType": "address",
          "name": "addr",
          "type": "address"
        }
      ],
      "name": "WhitelistedAddressAdded",
      "type": "event"
    },
    {
      "anonymous": false,
      "inputs": [
        {
          "indexed": false,
          "internalType": "address",
          "name": "addr",
          "type": "address"
        }
      ],
      "name": "WhitelistedAddressRemoved",
      "type": "event"
    },
    {
      "inputs": [],
      "name": "EggHatchingTime",
      "outputs": [
        {
          "internalType": "uint256",
          "name": "",
          "type": "uint256"
        }
      ],
      "stateMutability": "view",
      "type": "function"
    },
    {
      "inputs": [
        {
          "internalType": "address",
          "name": "addr",
          "type": "address"
        }
      ],
      "name": "addAddressToWhitelist",
      "outputs": [
        {
          "internalType": "bool",
          "name": "success",
          "type": "bool"
        }
      ],
      "stateMutability": "nonpayable",
      "type": "function"
    },
    {
      "inputs": [
        {
          "internalType": "address[]",
          "name": "addrs",
          "type": "address[]"
        }
      ],
      "name": "addAddressesToWhitelist",
      "outputs": [
        {
          "internalType": "bool",
          "name": "success",
          "type": "bool"
        }
      ],
      "stateMutability": "nonpayable",
      "type": "function"
    },
    {
      "inputs": [
        {
          "internalType": "address",
          "name": "to",
          "type": "address"
        },
        {
          "internalType": "uint256",
          "name": "tokenId",
          "type": "uint256"
        }
      ],
      "name": "approve",
      "outputs": [],
      "stateMutability": "nonpayable",
      "type": "function"
    },
    {
      "inputs": [
        {
          "internalType": "address",
          "name": "owner",
          "type": "address"
        }
      ],
      "name": "balanceOf",
      "outputs": [
        {
          "internalType": "uint256",
          "name": "",
          "type": "uint256"
        }
      ],
      "stateMutability": "view",
      "type": "function"
    },
    {
      "inputs": [
        {
          "internalType": "address",
          "name": "",
          "type": "address"
        }
      ],
      "name": "blacklist",
      "outputs": [
        {
          "internalType": "bool",
          "name": "",
          "type": "bool"
        }
      ],
      "stateMutability": "view",
      "type": "function"
    },
    {
      "inputs": [
        {
          "internalType": "uint256",
          "name": "tokenId",
          "type": "uint256"
        }
      ],
      "name": "getApproved",
      "outputs": [
        {
          "internalType": "address",
          "name": "",
          "type": "address"
        }
      ],
      "stateMutability": "view",
      "type": "function"
    },
    {
      "inputs": [
        {
          "internalType": "uint256",
          "name": "",
          "type": "uint256"
        }
      ],
      "name": "hatch",
      "outputs": [
        {
          "internalType": "uint256",
          "name": "currentTimestamp",
          "type": "uint256"
        },
        {
          "internalType": "uint256",
          "name": "timestamp3Weeks",
          "type": "uint256"
        }
      ],
      "stateMutability": "view",
      "type": "function"
    },
    {
      "inputs": [
        {
          "internalType": "address",
          "name": "owner",
          "type": "address"
        },
        {
          "internalType": "address",
          "name": "operator",
          "type": "address"
        }
      ],
      "name": "isApprovedForAll",
      "outputs": [
        {
          "internalType": "bool",
          "name": "",
          "type": "bool"
        }
      ],
      "stateMutability": "view",
      "type": "function"
    },
    {
      "inputs": [],
      "name": "name",
      "outputs": [
        {
          "internalType": "string",
          "name": "",
          "type": "string"
        }
      ],
      "stateMutability": "view",
      "type": "function"
    },
    {
      "inputs": [],
      "name": "owner",
      "outputs": [
        {
          "internalType": "address",
          "name": "",
          "type": "address"
        }
      ],
      "stateMutability": "view",
      "type": "function"
    },
    {
      "inputs": [
        {
          "internalType": "uint256",
          "name": "tokenId",
          "type": "uint256"
        }
      ],
      "name": "ownerOf",
      "outputs": [
        {
          "internalType": "address",
          "name": "",
          "type": "address"
        }
      ],
      "stateMutability": "view",
      "type": "function"
    },
    {
      "inputs": [
        {
          "internalType": "address",
          "name": "addr",
          "type": "address"
        }
      ],
      "name": "removeAddressFromWhitelist",
      "outputs": [
        {
          "internalType": "bool",
          "name": "success",
          "type": "bool"
        }
      ],
      "stateMutability": "nonpayable",
      "type": "function"
    },
    {
      "inputs": [
        {
          "internalType": "address[]",
          "name": "addrs",
          "type": "address[]"
        }
      ],
      "name": "removeAddressesFromWhitelist",
      "outputs": [
        {
          "internalType": "bool",
          "name": "success",
          "type": "bool"
        }
      ],
      "stateMutability": "nonpayable",
      "type": "function"
    },
    {
      "inputs": [],
      "name": "renounceOwnership",
      "outputs": [],
      "stateMutability": "nonpayable",
      "type": "function"
    },
    {
      "inputs": [],
      "name": "saleIsActive",
      "outputs": [
        {
          "internalType": "bool",
          "name": "",
          "type": "bool"
        }
      ],
      "stateMutability": "view",
      "type": "function"
    },
    {
      "inputs": [
        {
          "internalType": "address",
          "name": "operator",
          "type": "address"
        },
        {
          "internalType": "bool",
          "name": "approved",
          "type": "bool"
        }
      ],
      "name": "setApprovalForAll",
      "outputs": [],
      "stateMutability": "nonpayable",
      "type": "function"
    },
    {
      "inputs": [
        {
          "internalType": "bytes4",
          "name": "interfaceId",
          "type": "bytes4"
        }
      ],
      "name": "supportsInterface",
      "outputs": [
        {
          "internalType": "bool",
          "name": "",
          "type": "bool"
        }
      ],
      "stateMutability": "view",
      "type": "function"
    },
    {
      "inputs": [],
      "name": "symbol",
      "outputs": [
        {
          "internalType": "string",
          "name": "",
          "type": "string"
        }
      ],
      "stateMutability": "view",
      "type": "function"
    },
    {
      "inputs": [
        {
          "internalType": "address",
          "name": "newOwner",
          "type": "address"
        }
      ],
      "name": "transferOwnership",
      "outputs": [],
      "stateMutability": "nonpayable",
      "type": "function"
    },
    {
      "inputs": [
        {
          "internalType": "address",
          "name": "",
          "type": "address"
        }
      ],
      "name": "whitelist",
      "outputs": [
        {
          "internalType": "bool",
          "name": "",
          "type": "bool"
        }
      ],
      "stateMutability": "view",
      "type": "function"
    },
    {
      "inputs": [],
      "name": "getUrl",
      "outputs": [
        {
          "internalType": "string",
          "name": "",
          "type": "string"
        }
      ],
      "stateMutability": "view",
      "type": "function"
    },
    {
      "inputs": [
        {
          "internalType": "string",
          "name": "_uri",
          "type": "string"
        }
      ],
      "name": "setUrl",
      "outputs": [],
      "stateMutability": "nonpayable",
      "type": "function"
    },
    {
      "inputs": [
        {
          "internalType": "bool",
          "name": "_isActive",
          "type": "bool"
        }
      ],
      "name": "setSaleIsActive",
      "outputs": [],
      "stateMutability": "nonpayable",
      "type": "function"
    },
    {
      "inputs": [
        {
          "internalType": "uint256",
          "name": "_eggHatchingTime",
          "type": "uint256"
        }
      ],
      "name": "setEggHatchingTime",
      "outputs": [],
      "stateMutability": "nonpayable",
      "type": "function"
    },
    {
      "inputs": [
        {
          "internalType": "address",
          "name": "_addr",
          "type": "address"
        }
      ],
      "name": "addAddressToBlacklist",
      "outputs": [
        {
          "internalType": "bool",
          "name": "success",
          "type": "bool"
        }
      ],
      "stateMutability": "nonpayable",
      "type": "function"
    },
    {
      "inputs": [
        {
          "internalType": "address",
          "name": "_addr",
          "type": "address"
        }
      ],
      "name": "removeAddressFromBlacklist",
      "outputs": [
        {
          "internalType": "bool",
          "name": "success",
          "type": "bool"
        }
      ],
      "stateMutability": "nonpayable",
      "type": "function"
    },
    {
      "inputs": [
        {
          "internalType": "uint256",
          "name": "tokenId",
          "type": "uint256"
        },
        {
          "internalType": "address",
          "name": "ownerAddress",
          "type": "address"
        },
        {
          "internalType": "uint256",
          "name": "datesToSubtract",
          "type": "uint256"
        }
      ],
      "name": "usingItem",
      "outputs": [
        {
          "internalType": "bool",
          "name": "",
          "type": "bool"
        }
      ],
      "stateMutability": "nonpayable",
      "type": "function"
    },
    {
      "inputs": [
        {
          "internalType": "address",
          "name": "_to",
          "type": "address"
        }
      ],
      "name": "mint",
      "outputs": [],
      "stateMutability": "nonpayable",
      "type": "function"
    },
    {
      "inputs": [
        {
          "internalType": "address",
          "name": "_to",
          "type": "address"
        },
        {
          "internalType": "uint256",
          "name": "numberOfTokens",
          "type": "uint256"
        }
      ],
      "name": "batchMint",
      "outputs": [],
      "stateMutability": "nonpayable",
      "type": "function"
    },
    {
      "inputs": [
        {
          "internalType": "uint256",
          "name": "tokenId",
          "type": "uint256"
        }
      ],
      "name": "tokenURI",
      "outputs": [
        {
          "internalType": "string",
          "name": "",
          "type": "string"
        }
      ],
      "stateMutability": "view",
      "type": "function"
    },
    {
      "inputs": [
        {
          "internalType": "address",
          "name": "from",
          "type": "address"
        },
        {
          "internalType": "address",
          "name": "to",
          "type": "address"
        },
        {
          "internalType": "uint256",
          "name": "tokenId",
          "type": "uint256"
        }
      ],
      "name": "transferFrom",
      "outputs": [],
      "stateMutability": "nonpayable",
      "type": "function"
    },
    {
      "inputs": [
        {
          "internalType": "address",
          "name": "from",
          "type": "address"
        },
        {
          "internalType": "address",
          "name": "to",
          "type": "address"
        },
        {
          "internalType": "uint256",
          "name": "tokenId",
          "type": "uint256"
        }
      ],
      "name": "safeTransferFrom",
      "outputs": [],
      "stateMutability": "nonpayable",
      "type": "function"
    },
    {
      "inputs": [
        {
          "internalType": "address",
          "name": "from",
          "type": "address"
        },
        {
          "internalType": "address",
          "name": "to",
          "type": "address"
        },
        {
          "internalType": "uint256",
          "name": "tokenId",
          "type": "uint256"
        },
        {
          "internalType": "bytes",
          "name": "data",
          "type": "bytes"
        }
      ],
      "name": "safeTransferFrom",
      "outputs": [],
      "stateMutability": "nonpayable",
      "type": "function"
    }
  ],
  "bytecode": "0x6080604052600a805460ff19169055621baf80600b553480156200002257600080fd5b50604080518082018252600781526643464e2045676760c81b60208083019182528351808501909452600484526343464e4560e01b9084015281519192916200006e9160009162000228565b5080516200008490600190602084019062000228565b505050620000a16200009b620000e460201b60201c565b620000e8565b620000ac336200013a565b50604051806060016040528060228152602001620024fd602291398051620000dd9160099160209091019062000228565b506200030b565b3390565b600680546001600160a01b038381166001600160a01b0319831681179093556040519116919082907f8be0079c531659141344cd1fd0a4f28419497f9722a3daafe3b4186f6b6457e090600090a35050565b600062000146620001c7565b6001600160a01b03821660009081526007602052604090205460ff16620001c2576001600160a01b038216600081815260076020908152604091829020805460ff1916600117905590519182527fd1bba68c128cc3f427e5831b3c6f99f480b6efa6b9e80c757768f6124158cc3f910160405180910390a15060015b919050565b6006546001600160a01b03163314620002265760405162461bcd60e51b815260206004820181905260248201527f4f776e61626c653a2063616c6c6572206973206e6f7420746865206f776e6572604482015260640160405180910390fd5b565b8280546200023690620002ce565b90600052602060002090601f0160209004810192826200025a5760008555620002a5565b82601f106200027557805160ff1916838001178555620002a5565b82800160010185558215620002a5579182015b82811115620002a557825182559160200191906001019062000288565b50620002b3929150620002b7565b5090565b5b80821115620002b35760008155600101620002b8565b600181811c90821680620002e357607f821691505b602082108114156200030557634e487b7160e01b600052602260045260246000fd5b50919050565b6121e2806200031b6000396000f3fe608060405234801561001057600080fd5b50600436106102065760003560e01c80638afc747f1161011a578063c8c18842116100ad578063eb8d24441161007c578063eb8d2444146104a6578063f2c816ae146104b3578063f2fde38b146104c6578063f499480b146104d9578063f9f92be4146104ec57600080fd5b8063c8c1884214610413578063d6bd87271461044f578063e2ec6ec314610457578063e985e9c51461046a57600080fd5b8063a22cb465116100e9578063a22cb465146103d1578063a2963a4d146103e4578063b88d4fde146103ed578063c87b56dd1461040057600080fd5b80638afc747f146103825780638da5cb5b1461039557806395d89b41146103a65780639b19251a146103ae57600080fd5b8063286dd3f51161019d5780636352211e1161016c5780636352211e146103205780636a6278421461033357806370a0823114610346578063715018a6146103675780637b9417c81461036f57600080fd5b8063286dd3f5146102d457806335e82f3a146102e757806342842e0e146102fa57806343508b051461030d57600080fd5b8063095ea7b3116101d9578063095ea7b31461028857806323b872dd1461029b57806324953eaa146102ae578063252498a2146102c157600080fd5b806301ffc9a71461020b57806302c889891461023357806306fdde0314610248578063081812fc1461025d575b600080fd5b61021e610219366004611dc4565b61050f565b60405190151581526020015b60405180910390f35b610246610241366004611da9565b610561565b005b610250610590565b60405161022a9190611f0f565b61027061026b366004611e47565b610622565b6040516001600160a01b03909116815260200161022a565b610246610296366004611ccb565b610649565b6102466102a9366004611be9565b610764565b61021e6102bc366004611cf5565b61081c565b6102466102cf366004611dfe565b610876565b61021e6102e2366004611b94565b6108a9565b61021e6102f5366004611b94565b610932565b610246610308366004611be9565b6109c0565b61024661031b366004611ccb565b610a71565b61027061032e366004611e47565b610b61565b610246610341366004611b94565b610bc1565b610359610354366004611b94565b610c4b565b60405190815260200161022a565b610246610cd1565b61021e61037d366004611b94565b610ce5565b61021e610390366004611e60565b610d63565b6006546001600160a01b0316610270565b610250610f4d565b61021e6103bc366004611b94565b60076020526000908152604090205460ff1681565b6102466103df366004611ca1565b610f5c565b610359600b5481565b6102466103fb366004611c25565b610f67565b61025061040e366004611e47565b611021565b61043a610421366004611e47565b600c602052600090815260409020805460019091015482565b6040805192835260208301919091520161022a565b61025061108d565b61021e610465366004611cf5565b61109c565b61021e610478366004611bb6565b6001600160a01b03918216600090815260056020908152604080832093909416825291909152205460ff1690565b600a5461021e9060ff1681565b61021e6104c1366004611b94565b6110f0565b6102466104d4366004611b94565b611180565b6102466104e7366004611e47565b6111f9565b61021e6104fa366004611b94565b600d6020526000908152604090205460ff1681565b60006001600160e01b031982166380ac58cd60e01b148061054057506001600160e01b03198216635b5e139f60e01b145b8061055b57506301ffc9a760e01b6001600160e01b03198316145b92915050565b3360009081526007602052604090205460ff1661057d57600080fd5b600a805460ff1916911515919091179055565b60606000805461059f90612104565b80601f01602080910402602001604051908101604052809291908181526020018280546105cb90612104565b80156106185780601f106105ed57610100808354040283529160200191610618565b820191906000526020600020905b8154815290600101906020018083116105fb57829003601f168201915b5050505050905090565b600061062d8261121a565b506000908152600460205260409020546001600160a01b031690565b600061065482610b61565b9050806001600160a01b0316836001600160a01b031614156106c75760405162461bcd60e51b815260206004820152602160248201527f4552433732313a20617070726f76616c20746f2063757272656e74206f776e656044820152603960f91b60648201526084015b60405180910390fd5b336001600160a01b03821614806106e357506106e38133610478565b6107555760405162461bcd60e51b815260206004820152603d60248201527f4552433732313a20617070726f76652063616c6c6572206973206e6f7420746f60448201527f6b656e206f776e6572206f7220617070726f76656420666f7220616c6c00000060648201526084016106be565b61075f8383611279565b505050565b336000908152600d602052604090205460ff16156107945760405162461bcd60e51b81526004016106be90611f6f565b6001600160a01b0383166000908152600d60205260409020548390839060ff16156107d15760405162461bcd60e51b81526004016106be90612036565b6001600160a01b0381166000908152600d602052604090205460ff161561080a5760405162461bcd60e51b81526004016106be9061206d565b6108158585856112e7565b5050505050565b6000610826611318565b60005b8251811015610870576108548382815181106108475761084761216a565b60200260200101516108a9565b1561085e57600191505b8061086881612139565b915050610829565b50919050565b3360009081526007602052604090205460ff1661089257600080fd5b80516108a5906009906020840190611a7c565b5050565b60006108b3611318565b6001600160a01b03821660009081526007602052604090205460ff161561092d576001600160a01b038216600081815260076020908152604091829020805460ff1916905590519182527ff1abf01a1043b7c244d128e8595cf0c1d10743b022b03a02dffd8ca3bf729f5a91015b60405180910390a15060015b919050565b3360009081526007602052604081205460ff1661094e57600080fd5b6001600160a01b0382166000908152600d602052604090205460ff161561092d576001600160a01b0382166000818152600d6020908152604091829020805460ff1916905590519182527fdfacdc0f6cd7d83b95daafef21199a21974b907fda130f916e58e4d82d70fd779101610921565b336000908152600d602052604090205460ff16156109f05760405162461bcd60e51b81526004016106be90611f6f565b6001600160a01b0383166000908152600d60205260409020548390839060ff1615610a2d5760405162461bcd60e51b81526004016106be90612036565b6001600160a01b0381166000908152600d602052604090205460ff1615610a665760405162461bcd60e51b81526004016106be9061206d565b610815858585611372565b3360009081526007602052604090205460ff16610a8d57600080fd5b600a5460ff16610ad65760405162461bcd60e51b815260206004820152601460248201527329b0b6329036bab9ba1031329030b1ba34bb329760611b60448201526064016106be565b60008111610b1e5760405162461bcd60e51b815260206004820152601560248201527426bab9ba1031329030ba103632b0b9ba1037b7329760591b60448201526064016106be565b60005b8181101561075f57610b37600880546001019055565b6000610b4260085490565b9050610b4e848261138d565b5080610b5981612139565b915050610b21565b6000818152600260205260408120546001600160a01b03168061055b5760405162461bcd60e51b8152602060048201526018602482015277115490cdcc8c4e881a5b9d985b1a59081d1bdad95b88125160421b60448201526064016106be565b3360009081526007602052604090205460ff16610bdd57600080fd5b600a5460ff16610c265760405162461bcd60e51b815260206004820152601460248201527329b0b6329036bab9ba1031329030b1ba34bb329760611b60448201526064016106be565b610c34600880546001019055565b6000610c3f60085490565b90506108a5828261138d565b60006001600160a01b038216610cb55760405162461bcd60e51b815260206004820152602960248201527f4552433732313a2061646472657373207a65726f206973206e6f7420612076616044820152683634b21037bbb732b960b91b60648201526084016106be565b506001600160a01b031660009081526003602052604090205490565b610cd9611318565b610ce36000611419565b565b6000610cef611318565b6001600160a01b03821660009081526007602052604090205460ff1661092d576001600160a01b038216600081815260076020908152604091829020805460ff1916600117905590519182527fd1bba68c128cc3f427e5831b3c6f99f480b6efa6b9e80c757768f6124158cc3f9101610921565b3360009081526007602052604081205460ff16610d7f57600080fd5b60008211610de45760405162461bcd60e51b815260206004820152602c60248201527f446174657320746f207375627472616374206d7573742062652067726561746560448201526b39103a3430b7103d32b9379760a11b60648201526084016106be565b826001600160a01b0316610df785610b61565b6001600160a01b031614610e395760405162461bcd60e51b81526020600482015260096024820152682737ba1037bbb732b960b91b60448201526064016106be565b6000848152600c6020526040902060018101548311801590610e6b57506000838260010154610e6891906120ed565b10155b8015610e87575080546001820154610e849085906120ed565b10155b610ee95760405162461bcd60e51b815260206004820152602d60248201527f43616e6e6f74207375627472616374206d6f7265207468616e2074686520726560448201526c36b0b4b734b733903a34b6b29760991b60648201526084016106be565b82816001016000828254610efd91906120ed565b90915550506040518381526001600160a01b0385169086907f081012bbc228bd07d1700bf70a0956e4144f4330cc8c7c25f0dcf26630b334fb9060200160405180910390a3506001949350505050565b60606001805461059f90612104565b6108a533838361146b565b336000908152600d602052604090205460ff1615610f975760405162461bcd60e51b81526004016106be90611f6f565b6001600160a01b0384166000908152600d60205260409020548490849060ff1615610fd45760405162461bcd60e51b81526004016106be90612036565b6001600160a01b0381166000908152600d602052604090205460ff161561100d5760405162461bcd60e51b81526004016106be9061206d565b6110198686868661153a565b505050505050565b6060600061102e83610b61565b6001600160a01b031614156110855760405162461bcd60e51b815260206004820181905260248201527f55524920717565727920666f72206e6f6e6578697374656e7420746f6b656e2e60448201526064016106be565b61055b611572565b6060611097611572565b905090565b60006110a6611318565b60005b8251811015610870576110d48382815181106110c7576110c761216a565b6020026020010151610ce5565b156110de57600191505b806110e881612139565b9150506110a9565b3360009081526007602052604081205460ff1661110c57600080fd5b6001600160a01b0382166000908152600d602052604090205460ff1661092d576001600160a01b0382166000818152600d6020908152604091829020805460ff1916600117905590519182527f332a59f1dc9e0b256bf9de5db4549c9c00f43c52429a01de3ceb22804a06a61a9101610921565b611188611318565b6001600160a01b0381166111ed5760405162461bcd60e51b815260206004820152602660248201527f4f776e61626c653a206e6577206f776e657220697320746865207a65726f206160448201526564647265737360d01b60648201526084016106be565b6111f681611419565b50565b3360009081526007602052604090205460ff1661121557600080fd5b600b55565b6000818152600260205260409020546001600160a01b03166111f65760405162461bcd60e51b8152602060048201526018602482015277115490cdcc8c4e881a5b9d985b1a59081d1bdad95b88125160421b60448201526064016106be565b600081815260046020526040902080546001600160a01b0319166001600160a01b03841690811790915581906112ae82610b61565b6001600160a01b03167f8c5be1e5ebec7d5bd14f71427d1e84f3dd0314c0f7b2291e5b200ac8c7c3b92560405160405180910390a45050565b6112f13382611581565b61130d5760405162461bcd60e51b81526004016106be90611f22565b61075f838383611600565b6006546001600160a01b03163314610ce35760405162461bcd60e51b815260206004820181905260248201527f4f776e61626c653a2063616c6c6572206973206e6f7420746865206f776e657260448201526064016106be565b61075f83838360405180602001604052806000815250610f67565b600b54429060009061139f90836120d5565b60408051808201825284815260208082018481526000888152600c90925292902090518155905160019091015590506113d88484611764565b81837f86997891b92090df82bfbb3c880dd2748c239f9743d6d07678fa4b20e59467058360405161140b91815260200190565b60405180910390a350505050565b600680546001600160a01b038381166001600160a01b0319831681179093556040519116919082907f8be0079c531659141344cd1fd0a4f28419497f9722a3daafe3b4186f6b6457e090600090a35050565b816001600160a01b0316836001600160a01b031614156114cd5760405162461bcd60e51b815260206004820152601960248201527f4552433732313a20617070726f766520746f2063616c6c65720000000000000060448201526064016106be565b6001600160a01b03838116600081815260056020908152604080832094871680845294825291829020805460ff191686151590811790915591519182527f17307eab39ab6107e8899845ad3d59bd9653f200f220920489ca2b5937696c31910160405180910390a3505050565b6115443383611581565b6115605760405162461bcd60e51b81526004016106be90611f22565b61156c8484848461177e565b50505050565b60606009805461059f90612104565b60008061158d83610b61565b9050806001600160a01b0316846001600160a01b031614806115d457506001600160a01b0380821660009081526005602090815260408083209388168352929052205460ff165b806115f85750836001600160a01b03166115ed84610622565b6001600160a01b0316145b949350505050565b826001600160a01b031661161382610b61565b6001600160a01b0316146116395760405162461bcd60e51b81526004016106be90611ff1565b6001600160a01b03821661169b5760405162461bcd60e51b8152602060048201526024808201527f4552433732313a207472616e7366657220746f20746865207a65726f206164646044820152637265737360e01b60648201526084016106be565b826001600160a01b03166116ae82610b61565b6001600160a01b0316146116d45760405162461bcd60e51b81526004016106be90611ff1565b600081815260046020908152604080832080546001600160a01b03199081169091556001600160a01b0387811680865260038552838620805460001901905590871680865283862080546001019055868652600290945282852080549092168417909155905184937fddf252ad1be2c89b69c2b068fc378daa952ba7f163c4a11628f55a4df523b3ef91a4505050565b6108a58282604051806020016040528060008152506117b1565b611789848484611600565b611795848484846117e4565b61156c5760405162461bcd60e51b81526004016106be90611f9f565b6117bb83836118f1565b6117c860008484846117e4565b61075f5760405162461bcd60e51b81526004016106be90611f9f565b60006001600160a01b0384163b156118e657604051630a85bd0160e11b81526001600160a01b0385169063150b7a0290611828903390899088908890600401611ed2565b602060405180830381600087803b15801561184257600080fd5b505af1925050508015611872575060408051601f3d908101601f1916820190925261186f91810190611de1565b60015b6118cc573d8080156118a0576040519150601f19603f3d011682016040523d82523d6000602084013e6118a5565b606091505b5080516118c45760405162461bcd60e51b81526004016106be90611f9f565b805181602001fd5b6001600160e01b031916630a85bd0160e11b1490506115f8565b506001949350505050565b6001600160a01b0382166119475760405162461bcd60e51b815260206004820181905260248201527f4552433732313a206d696e7420746f20746865207a65726f206164647265737360448201526064016106be565b6000818152600260205260409020546001600160a01b0316156119ac5760405162461bcd60e51b815260206004820152601c60248201527f4552433732313a20746f6b656e20616c7265616479206d696e7465640000000060448201526064016106be565b6000818152600260205260409020546001600160a01b031615611a115760405162461bcd60e51b815260206004820152601c60248201527f4552433732313a20746f6b656e20616c7265616479206d696e7465640000000060448201526064016106be565b6001600160a01b038216600081815260036020908152604080832080546001019055848352600290915280822080546001600160a01b0319168417905551839291907fddf252ad1be2c89b69c2b068fc378daa952ba7f163c4a11628f55a4df523b3ef908290a45050565b828054611a8890612104565b90600052602060002090601f016020900481019282611aaa5760008555611af0565b82601f10611ac357805160ff1916838001178555611af0565b82800160010185558215611af0579182015b82811115611af0578251825591602001919060010190611ad5565b50611afc929150611b00565b5090565b5b80821115611afc5760008155600101611b01565b600067ffffffffffffffff831115611b2f57611b2f612180565b611b42601f8401601f19166020016120a4565b9050828152838383011115611b5657600080fd5b828260208301376000602084830101529392505050565b80356001600160a01b038116811461092d57600080fd5b8035801515811461092d57600080fd5b600060208284031215611ba657600080fd5b611baf82611b6d565b9392505050565b60008060408385031215611bc957600080fd5b611bd283611b6d565b9150611be060208401611b6d565b90509250929050565b600080600060608486031215611bfe57600080fd5b611c0784611b6d565b9250611c1560208501611b6d565b9150604084013590509250925092565b60008060008060808587031215611c3b57600080fd5b611c4485611b6d565b9350611c5260208601611b6d565b925060408501359150606085013567ffffffffffffffff811115611c7557600080fd5b8501601f81018713611c8657600080fd5b611c9587823560208401611b15565b91505092959194509250565b60008060408385031215611cb457600080fd5b611cbd83611b6d565b9150611be060208401611b84565b60008060408385031215611cde57600080fd5b611ce783611b6d565b946020939093013593505050565b60006020808385031215611d0857600080fd5b823567ffffffffffffffff80821115611d2057600080fd5b818501915085601f830112611d3457600080fd5b813581811115611d4657611d46612180565b8060051b9150611d578483016120a4565b8181528481019084860184860187018a1015611d7257600080fd5b600095505b83861015611d9c57611d8881611b6d565b835260019590950194918601918601611d77565b5098975050505050505050565b600060208284031215611dbb57600080fd5b611baf82611b84565b600060208284031215611dd657600080fd5b8135611baf81612196565b600060208284031215611df357600080fd5b8151611baf81612196565b600060208284031215611e1057600080fd5b813567ffffffffffffffff811115611e2757600080fd5b8201601f81018413611e3857600080fd5b6115f884823560208401611b15565b600060208284031215611e5957600080fd5b5035919050565b600080600060608486031215611e7557600080fd5b83359250611c1560208501611b6d565b6000815180845260005b81811015611eab57602081850181015186830182015201611e8f565b81811115611ebd576000602083870101525b50601f01601f19169290920160200192915050565b6001600160a01b0385811682528416602082015260408101839052608060608201819052600090611f0590830184611e85565b9695505050505050565b602081526000611baf6020830184611e85565b6020808252602d908201527f4552433732313a2063616c6c6572206973206e6f7420746f6b656e206f776e6560408201526c1c881bdc88185c1c1c9bdd9959609a1b606082015260800190565b60208082526016908201527521b0b63632b91034b990313630b1b5b634b9ba32b21760511b604082015260600190565b60208082526032908201527f4552433732313a207472616e7366657220746f206e6f6e20455243373231526560408201527131b2b4bb32b91034b6b83632b6b2b73a32b960711b606082015260800190565b60208082526025908201527f4552433732313a207472616e736665722066726f6d20696e636f72726563742060408201526437bbb732b960d91b606082015260800190565b6020808252601c908201527f46726f6d206164647265737320697320626c61636b6c69737465642e00000000604082015260600190565b6020808252601a908201527f546f206164647265737320697320626c61636b6c69737465642e000000000000604082015260600190565b604051601f8201601f1916810167ffffffffffffffff811182821017156120cd576120cd612180565b604052919050565b600082198211156120e8576120e8612154565b500190565b6000828210156120ff576120ff612154565b500390565b600181811c9082168061211857607f821691505b6020821081141561087057634e487b7160e01b600052602260045260246000fd5b600060001982141561214d5761214d612154565b5060010190565b634e487b7160e01b600052601160045260246000fd5b634e487b7160e01b600052603260045260246000fd5b634e487b7160e01b600052604160045260246000fd5b6001600160e01b0319811681146111f657600080fdfea26469706673582212201ea5f1fa269fc8024af816c7031cea5a2f1d592e969e38426700bc1f59d66b8e64736f6c6343000807003368747470733a2f2f696d672e63662d6e2e696f2f6a736f6e732f6567672e6a736f6e",
  "immutableReferences": {},
  "source": "// SPDX-License-Identifier: MIT\npragma solidity ^0.8.1;\n\nimport \"@openzeppelin/contracts/token/ERC721/ERC721.sol\";\nimport \"@openzeppelin/contracts/utils/Counters.sol\";\n\nimport \"./OwnerWhiteList.sol\";\nimport \"./interfaces/IEgg.sol\";\n\ncontract Egg is ERC721, OwnerWhiteList, IEgg {\n    using Counters for Counters.Counter;\n    using Strings for uint256;\n\n    Counters.Counter private _tokenIdCounter;\n\n    string private url;\n    bool public saleIsActive = false;\n\n    uint256 public EggHatchingTime = 3 * 7 * 24 * 60 * 60; // week, day, hour, minute, second -> 3weeks\n\n    struct EggHatchStruct {\n        uint256 currentTimestamp;\n        uint256 timestamp3Weeks;\n    }\n\n    mapping(uint256 => EggHatchStruct) public hatch;\n\n    event EggHatch(\n        uint256 indexed tokenId,\n        uint256 indexed currentTimestamp,\n        uint256 timestamp3Weeks\n    );\n    event EggHatchUsingItem(\n        uint256 indexed tokenId,\n        address indexed usingAddress,\n        uint256 subtract\n    );\n\n    mapping(address => bool) public blacklist;\n\n    event BlackListAddressAdded(address addr);\n    event BlackListAddressRemoved(address addr);\n\n    modifier notBlacklisted() {\n        require(!blacklist[msg.sender], \"Caller is blacklisted.\");\n        _;\n    }\n\n    modifier notBlacklistedWallet(address _from, address _to) {\n        require(!blacklist[_from], \"From address is blacklisted.\");\n        require(!blacklist[_to], \"To address is blacklisted.\");\n        _;\n    }\n\n    constructor() ERC721(\"CFN Egg\", \"CFNE\") {\n        url = \"https://img.cf-n.io/jsons/egg.json\";\n    }\n\n    function _baseURI() internal view override returns (string memory) {\n        return url;\n    }\n\n    function getUrl() public view override returns (string memory) {\n        return _baseURI();\n    }\n\n    function setUrl(string memory _uri) public override onlyWhitelisted {\n        url = _uri;\n    }\n\n    function setSaleIsActive(bool _isActive) public override onlyWhitelisted {\n        saleIsActive = _isActive;\n    }\n\n    function setEggHatchingTime(\n        uint256 _eggHatchingTime\n    ) public override onlyWhitelisted {\n        EggHatchingTime = _eggHatchingTime;\n    }\n\n    function addAddressToBlacklist(\n        address _addr\n    ) public override onlyWhitelisted returns (bool success) {\n        if (!blacklist[_addr]) {\n            blacklist[_addr] = true;\n            emit BlackListAddressAdded(_addr);\n            success = true;\n        }\n    }\n\n    function removeAddressFromBlacklist(\n        address _addr\n    ) public override onlyWhitelisted returns (bool success) {\n        if (blacklist[_addr]) {\n            blacklist[_addr] = false;\n            emit BlackListAddressRemoved(_addr);\n            success = true;\n        }\n    }\n\n    function usingItem(\n        uint256 tokenId,\n        address ownerAddress,\n        uint256 datesToSubtract\n    ) public override onlyWhitelisted returns (bool) {\n        require(\n            datesToSubtract > 0,\n            \"Dates to subtract must be greater than zero.\"\n        );\n        require(ownerOf(tokenId) == ownerAddress, \"Not owner\");\n\n        EggHatchStruct storage eggH = hatch[tokenId];\n        require(\n            eggH.timestamp3Weeks >= datesToSubtract &&\n                eggH.timestamp3Weeks - datesToSubtract >= 0 &&\n                eggH.timestamp3Weeks - datesToSubtract >= eggH.currentTimestamp,\n            \"Cannot subtract more than the remaining time.\"\n        );\n\n        eggH.timestamp3Weeks -= datesToSubtract;\n\n        emit EggHatchUsingItem(tokenId, ownerAddress, datesToSubtract);\n\n        return true;\n    }\n\n    function _safeMint(address _to, uint256 tokenId) internal override {\n        uint256 currentTimestamp = block.timestamp;\n        uint256 timestamp3Weeks = currentTimestamp + EggHatchingTime;\n\n        hatch[tokenId] = EggHatchStruct(currentTimestamp, timestamp3Weeks);\n\n        super._safeMint(_to, tokenId);\n\n        emit EggHatch(tokenId, currentTimestamp, timestamp3Weeks);\n    }\n\n    function mint(address _to) public override onlyWhitelisted {\n        require(saleIsActive, \"Sale must be active.\");\n        _tokenIdCounter.increment();\n        uint256 tokenId = _tokenIdCounter.current();\n        _safeMint(_to, tokenId);\n    }\n\n    function batchMint(\n        address _to,\n        uint256 numberOfTokens\n    ) public override onlyWhitelisted {\n        require(saleIsActive, \"Sale must be active.\");\n        require(numberOfTokens > 0, \"Must be at least one.\");\n\n        for (uint i = 0; i < numberOfTokens; i++) {\n            _tokenIdCounter.increment();\n            uint256 tokenId = _tokenIdCounter.current();\n            _safeMint(_to, tokenId);\n        }\n    }\n\n    function tokenURI(\n        uint256 tokenId\n    ) public view virtual override returns (string memory) {\n        require(\n            ownerOf(tokenId) != address(0),\n            \"URI query for nonexistent token.\"\n        );\n        return _baseURI();\n    }\n\n    function transferFrom(\n        address from,\n        address to,\n        uint256 tokenId\n    ) public override notBlacklisted notBlacklistedWallet(from, to) {\n        super.transferFrom(from, to, tokenId);\n    }\n\n    function safeTransferFrom(\n        address from,\n        address to,\n        uint256 tokenId\n    ) public override notBlacklisted notBlacklistedWallet(from, to) {\n        super.safeTransferFrom(from, to, tokenId);\n    }\n\n    function safeTransferFrom(\n        address from,\n        address to,\n        uint256 tokenId,\n        bytes memory data\n    ) public override notBlacklisted notBlacklistedWallet(from, to) {\n        super.safeTransferFrom(from, to, tokenId, data);\n    }\n}\n",
  "sourcePath": "/Users/minki/Desktop/Codberg/cock-fight-network-contrats/contracts/egg/Egg.sol",
  "compiler": {
    "name": "solc",
    "version": "0.8.7+commit.e28d00a7.Emscripten.clang"
  },
  "schemaVersion": "3.4.16",
  "updatedAt": "2025-04-15T23:46:43.687Z",
  "devdoc": {
    "kind": "dev",
    "methods": {
      "approve(address,uint256)": {
        "details": "See {IERC721-approve}."
      },
      "balanceOf(address)": {
        "details": "See {IERC721-balanceOf}."
      },
      "getApproved(uint256)": {
        "details": "See {IERC721-getApproved}."
      },
      "isApprovedForAll(address,address)": {
        "details": "See {IERC721-isApprovedForAll}."
      },
      "name()": {
        "details": "See {IERC721Metadata-name}."
      },
      "owner()": {
        "details": "Returns the address of the current owner."
      },
      "ownerOf(uint256)": {
        "details": "See {IERC721-ownerOf}."
      },
      "renounceOwnership()": {
        "details": "Leaves the contract without owner. It will not be possible to call `onlyOwner` functions. Can only be called by the current owner. NOTE: Renouncing ownership will leave the contract without an owner, thereby disabling any functionality that is only available to the owner."
      },
      "safeTransferFrom(address,address,uint256)": {
        "details": "See {IERC721-safeTransferFrom}."
      },
      "safeTransferFrom(address,address,uint256,bytes)": {
        "details": "See {IERC721-safeTransferFrom}."
      },
      "setApprovalForAll(address,bool)": {
        "details": "See {IERC721-setApprovalForAll}."
      },
      "supportsInterface(bytes4)": {
        "details": "See {IERC165-supportsInterface}."
      },
      "symbol()": {
        "details": "See {IERC721Metadata-symbol}."
      },
      "tokenURI(uint256)": {
        "details": "See {IERC721Metadata-tokenURI}."
      },
      "transferFrom(address,address,uint256)": {
        "details": "See {IERC721-transferFrom}."
      },
      "transferOwnership(address)": {
        "details": "Transfers ownership of the contract to a new account (`newOwner`). Can only be called by the current owner."
      }
    },
    "version": 1
  },
  "userdoc": {
    "kind": "user",
    "methods": {},
    "version": 1
  }
}