{
  "contractName": "EggItem",
  "abi": [
    {
      "inputs": [
        {
          "internalType": "address",
          "name": "_accessControl",
          "type": "address"
        }
      ],
      "stateMutability": "nonpayable",
      "type": "constructor"
    },
    {
      "anonymous": false,
      "inputs": [
        {
          "indexed": true,
          "internalType": "uint256",
          "name": "tokenId",
          "type": "uint256"
        },
        {
          "indexed": false,
          "internalType": "bool",
          "name": "isSale",
          "type": "bool"
        },
        {
          "indexed": false,
          "internalType": "uint256",
          "name": "price",
          "type": "uint256"
        },
        {
          "indexed": false,
          "internalType": "uint256",
          "name": "day",
          "type": "uint256"
        }
      ],
      "name": "AddItem",
      "type": "event"
    },
    {
      "anonymous": false,
      "inputs": [
        {
          "indexed": true,
          "internalType": "address",
          "name": "account",
          "type": "address"
        },
        {
          "indexed": true,
          "internalType": "address",
          "name": "operator",
          "type": "address"
        },
        {
          "indexed": false,
          "internalType": "bool",
          "name": "approved",
          "type": "bool"
        }
      ],
      "name": "ApprovalForAll",
      "type": "event"
    },
    {
      "anonymous": false,
      "inputs": [
        {
          "indexed": true,
          "internalType": "address",
          "name": "operator",
          "type": "address"
        },
        {
          "indexed": true,
          "internalType": "address",
          "name": "from",
          "type": "address"
        },
        {
          "indexed": true,
          "internalType": "address",
          "name": "to",
          "type": "address"
        },
        {
          "indexed": false,
          "internalType": "uint256[]",
          "name": "ids",
          "type": "uint256[]"
        },
        {
          "indexed": false,
          "internalType": "uint256[]",
          "name": "values",
          "type": "uint256[]"
        }
      ],
      "name": "TransferBatch",
      "type": "event"
    },
    {
      "anonymous": false,
      "inputs": [
        {
          "indexed": true,
          "internalType": "address",
          "name": "operator",
          "type": "address"
        },
        {
          "indexed": true,
          "internalType": "address",
          "name": "from",
          "type": "address"
        },
        {
          "indexed": true,
          "internalType": "address",
          "name": "to",
          "type": "address"
        },
        {
          "indexed": false,
          "internalType": "uint256",
          "name": "id",
          "type": "uint256"
        },
        {
          "indexed": false,
          "internalType": "uint256",
          "name": "value",
          "type": "uint256"
        }
      ],
      "name": "TransferSingle",
      "type": "event"
    },
    {
      "anonymous": false,
      "inputs": [
        {
          "indexed": false,
          "internalType": "string",
          "name": "value",
          "type": "string"
        },
        {
          "indexed": true,
          "internalType": "uint256",
          "name": "id",
          "type": "uint256"
        }
      ],
      "name": "URI",
      "type": "event"
    },
    {
      "anonymous": false,
      "inputs": [
        {
          "indexed": true,
          "internalType": "uint256",
          "name": "tokenId",
          "type": "uint256"
        },
        {
          "indexed": false,
          "internalType": "uint256",
          "name": "day",
          "type": "uint256"
        }
      ],
      "name": "UpdateDay",
      "type": "event"
    },
    {
      "anonymous": false,
      "inputs": [
        {
          "indexed": true,
          "internalType": "uint256",
          "name": "tokenId",
          "type": "uint256"
        },
        {
          "indexed": false,
          "internalType": "bool",
          "name": "isSale",
          "type": "bool"
        }
      ],
      "name": "UpdateIsSale",
      "type": "event"
    },
    {
      "anonymous": false,
      "inputs": [
        {
          "indexed": true,
          "internalType": "uint256",
          "name": "tokenId",
          "type": "uint256"
        },
        {
          "indexed": false,
          "internalType": "uint256",
          "name": "price",
          "type": "uint256"
        }
      ],
      "name": "UpdatePrice",
      "type": "event"
    },
    {
      "inputs": [],
      "name": "accessControl",
      "outputs": [
        {
          "internalType": "contract ICFNAccessControl",
          "name": "",
          "type": "address"
        }
      ],
      "stateMutability": "view",
      "type": "function"
    },
    {
      "inputs": [
        {
          "internalType": "address",
          "name": "account",
          "type": "address"
        },
        {
          "internalType": "uint256",
          "name": "id",
          "type": "uint256"
        }
      ],
      "name": "balanceOf",
      "outputs": [
        {
          "internalType": "uint256",
          "name": "",
          "type": "uint256"
        }
      ],
      "stateMutability": "view",
      "type": "function"
    },
    {
      "inputs": [
        {
          "internalType": "address[]",
          "name": "accounts",
          "type": "address[]"
        },
        {
          "internalType": "uint256[]",
          "name": "ids",
          "type": "uint256[]"
        }
      ],
      "name": "balanceOfBatch",
      "outputs": [
        {
          "internalType": "uint256[]",
          "name": "",
          "type": "uint256[]"
        }
      ],
      "stateMutability": "view",
      "type": "function"
    },
    {
      "inputs": [
        {
          "internalType": "address",
          "name": "account",
          "type": "address"
        },
        {
          "internalType": "address",
          "name": "operator",
          "type": "address"
        }
      ],
      "name": "isApprovedForAll",
      "outputs": [
        {
          "internalType": "bool",
          "name": "",
          "type": "bool"
        }
      ],
      "stateMutability": "view",
      "type": "function"
    },
    {
      "inputs": [
        {
          "internalType": "uint256",
          "name": "",
          "type": "uint256"
        }
      ],
      "name": "itemList",
      "outputs": [
        {
          "internalType": "uint256",
          "name": "",
          "type": "uint256"
        }
      ],
      "stateMutability": "view",
      "type": "function"
    },
    {
      "inputs": [],
      "name": "name",
      "outputs": [
        {
          "internalType": "string",
          "name": "",
          "type": "string"
        }
      ],
      "stateMutability": "view",
      "type": "function"
    },
    {
      "inputs": [
        {
          "internalType": "address",
          "name": "operator",
          "type": "address"
        },
        {
          "internalType": "bool",
          "name": "approved",
          "type": "bool"
        }
      ],
      "name": "setApprovalForAll",
      "outputs": [],
      "stateMutability": "nonpayable",
      "type": "function"
    },
    {
      "inputs": [
        {
          "internalType": "bytes4",
          "name": "interfaceId",
          "type": "bytes4"
        }
      ],
      "name": "supportsInterface",
      "outputs": [
        {
          "internalType": "bool",
          "name": "",
          "type": "bool"
        }
      ],
      "stateMutability": "view",
      "type": "function"
    },
    {
      "inputs": [],
      "name": "symbol",
      "outputs": [
        {
          "internalType": "string",
          "name": "",
          "type": "string"
        }
      ],
      "stateMutability": "view",
      "type": "function"
    },
    {
      "inputs": [
        {
          "internalType": "uint256",
          "name": "",
          "type": "uint256"
        }
      ],
      "name": "tokenURIs",
      "outputs": [
        {
          "internalType": "uint256",
          "name": "tokenId",
          "type": "uint256"
        },
        {
          "internalType": "bool",
          "name": "isSale",
          "type": "bool"
        },
        {
          "internalType": "uint256",
          "name": "price",
          "type": "uint256"
        },
        {
          "internalType": "uint256",
          "name": "day",
          "type": "uint256"
        }
      ],
      "stateMutability": "view",
      "type": "function"
    },
    {
      "inputs": [
        {
          "internalType": "address",
          "name": "_ca",
          "type": "address"
        }
      ],
      "name": "setAccessControl",
      "outputs": [],
      "stateMutability": "nonpayable",
      "type": "function"
    },
    {
      "inputs": [
        {
          "internalType": "string",
          "name": "_newUri",
          "type": "string"
        }
      ],
      "name": "setURI",
      "outputs": [],
      "stateMutability": "nonpayable",
      "type": "function"
    },
    {
      "inputs": [
        {
          "components": [
            {
              "internalType": "uint256",
              "name": "tokenId",
              "type": "uint256"
            },
            {
              "internalType": "bool",
              "name": "isSale",
              "type": "bool"
            },
            {
              "internalType": "uint256",
              "name": "price",
              "type": "uint256"
            },
            {
              "internalType": "uint256",
              "name": "day",
              "type": "uint256"
            }
          ],
          "internalType": "struct ItemTypes.EggItem",
          "name": "item",
          "type": "tuple"
        }
      ],
      "name": "addItems",
      "outputs": [],
      "stateMutability": "nonpayable",
      "type": "function"
    },
    {
      "inputs": [
        {
          "internalType": "uint256",
          "name": "_tokenId",
          "type": "uint256"
        },
        {
          "internalType": "bool",
          "name": "_isSale",
          "type": "bool"
        }
      ],
      "name": "setIsSaleItem",
      "outputs": [],
      "stateMutability": "nonpayable",
      "type": "function"
    },
    {
      "inputs": [
        {
          "internalType": "uint256",
          "name": "_tokenId",
          "type": "uint256"
        },
        {
          "internalType": "uint256",
          "name": "_price",
          "type": "uint256"
        }
      ],
      "name": "setPriceItem",
      "outputs": [],
      "stateMutability": "nonpayable",
      "type": "function"
    },
    {
      "inputs": [
        {
          "internalType": "uint256",
          "name": "_tokenId",
          "type": "uint256"
        },
        {
          "internalType": "uint256",
          "name": "_day",
          "type": "uint256"
        }
      ],
      "name": "setDayItem",
      "outputs": [],
      "stateMutability": "nonpayable",
      "type": "function"
    },
    {
      "inputs": [],
      "name": "getItemList",
      "outputs": [
        {
          "internalType": "uint256[]",
          "name": "",
          "type": "uint256[]"
        }
      ],
      "stateMutability": "view",
      "type": "function"
    },
    {
      "inputs": [
        {
          "internalType": "uint256",
          "name": "tokenId",
          "type": "uint256"
        }
      ],
      "name": "uri",
      "outputs": [
        {
          "internalType": "string",
          "name": "",
          "type": "string"
        }
      ],
      "stateMutability": "view",
      "type": "function"
    },
    {
      "inputs": [
        {
          "internalType": "address",
          "name": "account",
          "type": "address"
        },
        {
          "internalType": "uint256",
          "name": "id",
          "type": "uint256"
        },
        {
          "internalType": "uint256",
          "name": "value",
          "type": "uint256"
        }
      ],
      "name": "burn",
      "outputs": [],
      "stateMutability": "nonpayable",
      "type": "function"
    },
    {
      "inputs": [
        {
          "internalType": "address",
          "name": "_to",
          "type": "address"
        },
        {
          "internalType": "uint256",
          "name": "_id",
          "type": "uint256"
        },
        {
          "internalType": "uint256",
          "name": "_amount",
          "type": "uint256"
        },
        {
          "internalType": "bytes",
          "name": "_data",
          "type": "bytes"
        }
      ],
      "name": "mint",
      "outputs": [],
      "stateMutability": "nonpayable",
      "type": "function"
    },
    {
      "inputs": [
        {
          "internalType": "address",
          "name": "_to",
          "type": "address"
        },
        {
          "internalType": "uint256[]",
          "name": "_ids",
          "type": "uint256[]"
        },
        {
          "internalType": "uint256[]",
          "name": "_amounts",
          "type": "uint256[]"
        },
        {
          "internalType": "bytes",
          "name": "_data",
          "type": "bytes"
        }
      ],
      "name": "mintBatch",
      "outputs": [],
      "stateMutability": "nonpayable",
      "type": "function"
    },
    {
      "inputs": [
        {
          "internalType": "address",
          "name": "from",
          "type": "address"
        },
        {
          "internalType": "address",
          "name": "to",
          "type": "address"
        },
        {
          "internalType": "uint256",
          "name": "id",
          "type": "uint256"
        },
        {
          "internalType": "uint256",
          "name": "amount",
          "type": "uint256"
        },
        {
          "internalType": "bytes",
          "name": "data",
          "type": "bytes"
        }
      ],
      "name": "safeTransferFrom",
      "outputs": [],
      "stateMutability": "nonpayable",
      "type": "function"
    },
    {
      "inputs": [
        {
          "internalType": "address",
          "name": "from",
          "type": "address"
        },
        {
          "internalType": "address",
          "name": "to",
          "type": "address"
        },
        {
          "internalType": "uint256[]",
          "name": "ids",
          "type": "uint256[]"
        },
        {
          "internalType": "uint256[]",
          "name": "amounts",
          "type": "uint256[]"
        },
        {
          "internalType": "bytes",
          "name": "data",
          "type": "bytes"
        }
      ],
      "name": "safeBatchTransferFrom",
      "outputs": [],
      "stateMutability": "nonpayable",
      "type": "function"
    }
  ],
  "bytecode": "0x60c06040526008608081905267456767204974656d60c01b60a09081526200002b9160049190620000ee565b506040805180820190915260038082526222a4a760e91b60209092019182526200005891600591620000ee565b503480156200006657600080fd5b5060405162002fcc38038062002fcc833981016040819052620000899162000194565b60405180606001604052806022815260200162002faa60229139620000ae81620000d5565b50600380546001600160a01b0319166001600160a01b039290921691909117905562000203565b8051620000ea906002906020840190620000ee565b5050565b828054620000fc90620001c6565b90600052602060002090601f0160209004810192826200012057600085556200016b565b82601f106200013b57805160ff19168380011785556200016b565b828001600101855582156200016b579182015b828111156200016b5782518255916020019190600101906200014e565b50620001799291506200017d565b5090565b5b808211156200017957600081556001016200017e565b600060208284031215620001a757600080fd5b81516001600160a01b0381168114620001bf57600080fd5b9392505050565b600181811c90821680620001db57607f821691505b60208210811415620001fd57634e487b7160e01b600052602260045260246000fd5b50919050565b612d9780620002136000396000f3fe608060405234801561001057600080fd5b506004361061014c5760003560e01c80633d4d3600116100c3578063a55df2721161007c578063a55df27214610310578063c7b5ff1314610323578063d70078db14610336578063e985e9c514610349578063f242432a14610385578063f5298aca1461039857600080fd5b80633d4d3600146102635780634e1273f4146102765780636c8b703f14610289578063731133e9146102e257806395d89b41146102f5578063a22cb465146102fd57600080fd5b80630d59bad0116101155780630d59bad0146101d95780630e89341c146101ec57806313007d55146101ff57806319129e5a1461022a5780631f7fdffa1461023d5780632eb2c2d61461025057600080fd5b8062fdd58e1461015157806301ffc9a71461017757806302fe53051461019a578063063b2e5b146101af57806306fdde03146101c4575b600080fd5b61016461015f366004612475565b6103ab565b6040519081526020015b60405180910390f35b61018a610185366004612632565b610441565b604051901515815260200161016e565b6101ad6101a836600461266c565b610493565b005b6101b7610538565b60405161016e919061287e565b6101cc610590565b60405161016e91906128bf565b6101ad6101e73660046126bd565b61061e565b6101cc6101fa3660046126d5565b610804565b600354610212906001600160a01b031681565b6040516001600160a01b03909116815260200161016e565b6101ad610238366004612248565b61088b565b6101ad61024b3660046123a5565b610946565b6101ad61025e366004612296565b610b01565b6101646102713660046126d5565b610c4b565b6101b7610284366004612527565b610c6c565b6102c26102973660046126d5565b6006602052600090815260409020805460018201546002830154600390930154919260ff9091169184565b60408051948552921515602085015291830152606082015260800161016e565b6101ad6102f03660046124d2565b610d96565b6101cc610f23565b6101ad61030b36600461243e565b610f30565b6101ad61031e3660046126ee565b610f3b565b6101ad610331366004612713565b61105a565b6101ad610344366004612713565b611165565b61018a610357366004612263565b6001600160a01b03918216600090815260016020908152604080832093909416825291909152205460ff1690565b6101ad610393366004612340565b611270565b6101ad6103a636600461249f565b6113b1565b60006001600160a01b03831661041b5760405162461bcd60e51b815260206004820152602a60248201527f455243313135353a2061646472657373207a65726f206973206e6f742061207660448201526930b634b21037bbb732b960b11b60648201526084015b60405180910390fd5b506000908152602081815260408083206001600160a01b03949094168352929052205490565b60006001600160e01b03198216636cdb3d1360e11b148061047257506001600160e01b031982166303a24d0760e21b145b8061048d57506301ffc9a760e01b6001600160e01b03198316145b92915050565b600354604051633f1e317960e11b81523360048201819052916001600160a01b031690637e3c62f29060240160206040518083038186803b1580156104d757600080fd5b505afa1580156104eb573d6000803e3d6000fd5b505050506040513d601f19601f8201168201806040525081019061050f9190612615565b61052b5760405162461bcd60e51b81526004016104129061291a565b6105348261143b565b5050565b6060600780548060200260200160405190810160405280929190818152602001828054801561058657602002820191906000526020600020905b815481526020019060010190808311610572575b5050505050905090565b6004805461059d90612b95565b80601f01602080910402602001604051908101604052809291908181526020018280546105c990612b95565b80156106165780601f106105eb57610100808354040283529160200191610616565b820191906000526020600020905b8154815290600101906020018083116105f957829003601f168201915b505050505081565b600354604051633f1e317960e11b81523360048201819052916001600160a01b031690637e3c62f29060240160206040518083038186803b15801561066257600080fd5b505afa158015610676573d6000803e3d6000fd5b505050506040513d601f19601f8201168201806040525081019061069a9190612615565b6106b65760405162461bcd60e51b81526004016104129061291a565b8135600090815260066020526040902054156107055760405162461bcd60e51b815260206004820152600e60248201526d416c72656164792065786973747360901b6044820152606401610412565b81356107535760405162461bcd60e51b815260206004820152601960248201527f4d7573742062652067726561746572207468616e207a65726f000000000000006044820152606401610412565b81356000908152600660205260409020829061076f8282612cfa565b50506007805460018101825560009190915282357fa66cc928b5edb82af9bd49922954155ab7b0942694bea4ce44661d9a8736c6889091018190557f9f4ff23543cca0c2f6e2175ff15116eb9bf205613a09fe6ed2088bbbe4381e456107db60408501602086016125f8565b604080519115158252858101356020830152606080870135838301529051918290030190a25050565b6000818152600660205260409020546060906108525760405162461bcd60e51b815260206004820152600d60248201526c556e646566696e65642055726960981b6044820152606401610412565b61085b8261144e565b610864836114e2565b60405160200161087592919061279c565b6040516020818303038152906040529050919050565b600354604051633f1e317960e11b81523360048201819052916001600160a01b031690637e3c62f29060240160206040518083038186803b1580156108cf57600080fd5b505afa1580156108e3573d6000803e3d6000fd5b505050506040513d601f19601f820116820180604052508101906109079190612615565b6109235760405162461bcd60e51b81526004016104129061291a565b50600380546001600160a01b0319166001600160a01b0392909216919091179055565b600354604051633f1e317960e11b81523360048201819052916001600160a01b031690637e3c62f29060240160206040518083038186803b15801561098a57600080fd5b505afa15801561099e573d6000803e3d6000fd5b505050506040513d601f19601f820116820180604052508101906109c29190612615565b6109de5760405162461bcd60e51b81526004016104129061291a565b600354604051636aacbfd760e11b81526001600160a01b0380881660048301528792169063d5597fae9060240160206040518083038186803b158015610a2357600080fd5b505afa158015610a37573d6000803e3d6000fd5b505050506040513d601f19601f82011682018060405250810190610a5b9190612615565b15610a785760405162461bcd60e51b815260040161041290612a2e565b6006600086600081518110610a8f57610a8f612c28565b602002602001015181526020019081526020016000206000015460001415610aed5760405162461bcd60e51b8152602060048201526011602482015270155b9919599a5b995908151bdad95b9259607a1b6044820152606401610412565b610af986868686611577565b505050505050565b600354604051636aacbfd760e11b81526001600160a01b0380881660048301528792169063d5597fae9060240160206040518083038186803b158015610b4657600080fd5b505afa158015610b5a573d6000803e3d6000fd5b505050506040513d601f19601f82011682018060405250810190610b7e9190612615565b15610b9b5760405162461bcd60e51b815260040161041290612a2e565b600354604051636aacbfd760e11b81526001600160a01b0380881660048301528792169063d5597fae9060240160206040518083038186803b158015610be057600080fd5b505afa158015610bf4573d6000803e3d6000fd5b505050506040513d601f19601f82011682018060405250810190610c189190612615565b15610c355760405162461bcd60e51b815260040161041290612a2e565b610c4287878787876116c9565b50505050505050565b60078181548110610c5b57600080fd5b600091825260209091200154905081565b60608151835114610cd15760405162461bcd60e51b815260206004820152602960248201527f455243313135353a206163636f756e747320616e6420696473206c656e677468604482015268040dad2e6dac2e8c6d60bb1b6064820152608401610412565b6000835167ffffffffffffffff811115610ced57610ced612c3e565b604051908082528060200260200182016040528015610d16578160200160208202803683370190505b50905060005b8451811015610d8e57610d61858281518110610d3a57610d3a612c28565b6020026020010151858381518110610d5457610d54612c28565b60200260200101516103ab565b828281518110610d7357610d73612c28565b6020908102919091010152610d8781612bf7565b9050610d1c565b509392505050565b600354604051633f1e317960e11b81523360048201819052916001600160a01b031690637e3c62f29060240160206040518083038186803b158015610dda57600080fd5b505afa158015610dee573d6000803e3d6000fd5b505050506040513d601f19601f82011682018060405250810190610e129190612615565b610e2e5760405162461bcd60e51b81526004016104129061291a565b600354604051636aacbfd760e11b81526001600160a01b0380881660048301528792169063d5597fae9060240160206040518083038186803b158015610e7357600080fd5b505afa158015610e87573d6000803e3d6000fd5b505050506040513d601f19601f82011682018060405250810190610eab9190612615565b15610ec85760405162461bcd60e51b815260040161041290612a2e565b600085815260066020526040902054610f175760405162461bcd60e51b8152602060048201526011602482015270155b9919599a5b995908151bdad95b9259607a1b6044820152606401610412565b610af98686868661170e565b6005805461059d90612b95565b6105343383836117df565b600354604051633f1e317960e11b81523360048201819052916001600160a01b031690637e3c62f29060240160206040518083038186803b158015610f7f57600080fd5b505afa158015610f93573d6000803e3d6000fd5b505050506040513d601f19601f82011682018060405250810190610fb79190612615565b610fd35760405162461bcd60e51b81526004016104129061291a565b600083815260066020526040902054610ffe5760405162461bcd60e51b815260040161041290612a78565b600083815260066020908152604091829020600101805460ff1916851515908117909155915191825284917fbe8b8b18ca73b15d4ef6644161fddcb0f1374540278f3c3a7115c02a44b5268c91015b60405180910390a2505050565b600354604051633f1e317960e11b81523360048201819052916001600160a01b031690637e3c62f29060240160206040518083038186803b15801561109e57600080fd5b505afa1580156110b2573d6000803e3d6000fd5b505050506040513d601f19601f820116820180604052508101906110d69190612615565b6110f25760405162461bcd60e51b81526004016104129061291a565b60008381526006602052604090205461111d5760405162461bcd60e51b815260040161041290612a78565b600083815260066020526040908190206002018390555183907f8b49109cd5767f43f65aaaae99075135a684e87312ed89a5e0d69e96bed715cb9061104d9085815260200190565b600354604051633f1e317960e11b81523360048201819052916001600160a01b031690637e3c62f29060240160206040518083038186803b1580156111a957600080fd5b505afa1580156111bd573d6000803e3d6000fd5b505050506040513d601f19601f820116820180604052508101906111e19190612615565b6111fd5760405162461bcd60e51b81526004016104129061291a565b6000838152600660205260409020546112285760405162461bcd60e51b815260040161041290612a78565b600083815260066020526040908190206003018390555183907f29cf34552dadbee2bc86a6573d57e765071e59b49ed8b771f46ab2cfbf40517c9061104d9085815260200190565b600354604051636aacbfd760e11b81526001600160a01b0380881660048301528792169063d5597fae9060240160206040518083038186803b1580156112b557600080fd5b505afa1580156112c9573d6000803e3d6000fd5b505050506040513d601f19601f820116820180604052508101906112ed9190612615565b1561130a5760405162461bcd60e51b815260040161041290612a2e565b600354604051636aacbfd760e11b81526001600160a01b0380881660048301528792169063d5597fae9060240160206040518083038186803b15801561134f57600080fd5b505afa158015611363573d6000803e3d6000fd5b505050506040513d601f19601f820116820180604052508101906113879190612615565b156113a45760405162461bcd60e51b815260040161041290612a2e565b610c4287878787876118c0565b6001600160a01b0383163314806113cd57506113cd8333610357565b61142b5760405162461bcd60e51b815260206004820152602960248201527f455243313135353a2063616c6c6572206973206e6f74206f776e6572206e6f7260448201526808185c1c1c9bdd995960ba1b6064820152608401610412565b611436838383611905565b505050565b8051610534906002906020840190612097565b60606002805461145d90612b95565b80601f016020809104026020016040519081016040528092919081815260200182805461148990612b95565b80156114d65780601f106114ab576101008083540402835291602001916114d6565b820191906000526020600020905b8154815290600101906020018083116114b957829003601f168201915b50505050509050919050565b606060006114ef83611a81565b600101905060008167ffffffffffffffff81111561150f5761150f612c3e565b6040519080825280601f01601f191660200182016040528015611539576020820181803683370190505b5090508181016020015b600019016f181899199a1a9b1b9c1cb0b131b232b360811b600a86061a8153600a850494508461157257610d8e565b611543565b6001600160a01b03841661159d5760405162461bcd60e51b815260040161041290612ae8565b81518351146115be5760405162461bcd60e51b815260040161041290612aa0565b3360005b845181101561165a578381815181106115dd576115dd612c28565b60200260200101516000808784815181106115fa576115fa612c28565b602002602001015181526020019081526020016000206000886001600160a01b03166001600160a01b0316815260200190815260200160002060008282546116429190612b4d565b9091555081905061165281612bf7565b9150506115c2565b50846001600160a01b031660006001600160a01b0316826001600160a01b03167f4a39dc06d4c0dbc64b70af90fd698a233a518aa5d07e595d983b8c0526c8f7fb87876040516116ab929190612891565b60405180910390a46116c281600087878787611b59565b5050505050565b6001600160a01b0385163314806116e557506116e58533610357565b6117015760405162461bcd60e51b815260040161041290612951565b6116c28585858585611cc4565b6001600160a01b0384166117345760405162461bcd60e51b815260040161041290612ae8565b33600061174085611e58565b9050600061174d85611e58565b90506000868152602081815260408083206001600160a01b038b1684529091528120805487929061177f908490612b4d565b909155505060408051878152602081018790526001600160a01b03808a1692600092918716917fc3d58168c5ae7397731d063d5bbf3d657854427343f4c083240f7aacaa2d0f62910160405180910390a4610c4283600089898989611ea3565b816001600160a01b0316836001600160a01b031614156118535760405162461bcd60e51b815260206004820152602960248201527f455243313135353a2073657474696e6720617070726f76616c20737461747573604482015268103337b91039b2b63360b91b6064820152608401610412565b6001600160a01b03838116600081815260016020908152604080832094871680845294825291829020805460ff191686151590811790915591519182527f17307eab39ab6107e8899845ad3d59bd9653f200f220920489ca2b5937696c31910160405180910390a3505050565b6001600160a01b0385163314806118dc57506118dc8533610357565b6118f85760405162461bcd60e51b815260040161041290612951565b6116c28585858585611f6d565b6001600160a01b0383166119675760405162461bcd60e51b815260206004820152602360248201527f455243313135353a206275726e2066726f6d20746865207a65726f206164647260448201526265737360e81b6064820152608401610412565b33600061197384611e58565b9050600061198084611e58565b60408051602080820183526000918290528882528181528282206001600160a01b038b1683529052205490915084811015611a095760405162461bcd60e51b8152602060048201526024808201527f455243313135353a206275726e20616d6f756e7420657863656564732062616c604482015263616e636560e01b6064820152608401610412565b6000868152602081815260408083206001600160a01b038b81168086529184528285208a8703905582518b81529384018a90529092908816917fc3d58168c5ae7397731d063d5bbf3d657854427343f4c083240f7aacaa2d0f62910160405180910390a4604080516020810190915260009052610c42565b60008072184f03e93ff9f4daa797ed6e38ed64bf6a1f0160401b8310611ac05772184f03e93ff9f4daa797ed6e38ed64bf6a1f0160401b830492506040015b6d04ee2d6d415b85acef81000000008310611aec576d04ee2d6d415b85acef8100000000830492506020015b662386f26fc100008310611b0a57662386f26fc10000830492506010015b6305f5e1008310611b22576305f5e100830492506008015b6127108310611b3657612710830492506004015b60648310611b48576064830492506002015b600a831061048d5760010192915050565b6001600160a01b0384163b15610af95760405163bc197c8160e01b81526001600160a01b0385169063bc197c8190611b9d90899089908890889088906004016127db565b602060405180830381600087803b158015611bb757600080fd5b505af1925050508015611be7575060408051601f3d908101601f19168201909252611be49181019061264f565b60015b611c9457611bf3612c54565b806308c379a01415611c2d5750611c08612c70565b80611c135750611c2f565b8060405162461bcd60e51b815260040161041291906128bf565b505b60405162461bcd60e51b815260206004820152603460248201527f455243313135353a207472616e7366657220746f206e6f6e2d455243313135356044820152732932b1b2b4bb32b91034b6b83632b6b2b73a32b960611b6064820152608401610412565b6001600160e01b0319811663bc197c8160e01b14610c425760405162461bcd60e51b8152600401610412906128d2565b8151835114611ce55760405162461bcd60e51b815260040161041290612aa0565b6001600160a01b038416611d0b5760405162461bcd60e51b81526004016104129061299f565b3360005b8451811015611df2576000858281518110611d2c57611d2c612c28565b602002602001015190506000858381518110611d4a57611d4a612c28565b602090810291909101810151600084815280835260408082206001600160a01b038e168352909352919091205490915081811015611d9a5760405162461bcd60e51b8152600401610412906129e4565b6000838152602081815260408083206001600160a01b038e8116855292528083208585039055908b16825281208054849290611dd7908490612b4d565b9250508190555050505080611deb90612bf7565b9050611d0f565b50846001600160a01b0316866001600160a01b0316826001600160a01b03167f4a39dc06d4c0dbc64b70af90fd698a233a518aa5d07e595d983b8c0526c8f7fb8787604051611e42929190612891565b60405180910390a4610af9818787878787611b59565b60408051600180825281830190925260609160009190602080830190803683370190505090508281600081518110611e9257611e92612c28565b602090810291909101015292915050565b6001600160a01b0384163b15610af95760405163f23a6e6160e01b81526001600160a01b0385169063f23a6e6190611ee79089908990889088908890600401612839565b602060405180830381600087803b158015611f0157600080fd5b505af1925050508015611f31575060408051601f3d908101601f19168201909252611f2e9181019061264f565b60015b611f3d57611bf3612c54565b6001600160e01b0319811663f23a6e6160e01b14610c425760405162461bcd60e51b8152600401610412906128d2565b6001600160a01b038416611f935760405162461bcd60e51b81526004016104129061299f565b336000611f9f85611e58565b90506000611fac85611e58565b90506000868152602081815260408083206001600160a01b038c16845290915290205485811015611fef5760405162461bcd60e51b8152600401610412906129e4565b6000878152602081815260408083206001600160a01b038d8116855292528083208985039055908a1682528120805488929061202c908490612b4d565b909155505060408051888152602081018890526001600160a01b03808b16928c821692918816917fc3d58168c5ae7397731d063d5bbf3d657854427343f4c083240f7aacaa2d0f62910160405180910390a461208c848a8a8a8a8a611ea3565b505050505050505050565b8280546120a390612b95565b90600052602060002090601f0160209004810192826120c5576000855561210b565b82601f106120de57805160ff191683800117855561210b565b8280016001018555821561210b579182015b8281111561210b5782518255916020019190600101906120f0565b5061211792915061211b565b5090565b5b80821115612117576000815560010161211c565b600067ffffffffffffffff83111561214a5761214a612c3e565b604051612161601f8501601f191660200182612bca565b80915083815284848401111561217657600080fd5b83836020830137600060208583010152509392505050565b80356001600160a01b03811681146121a557600080fd5b919050565b600082601f8301126121bb57600080fd5b813560206121c882612b29565b6040516121d58282612bca565b8381528281019150858301600585901b870184018810156121f557600080fd5b60005b85811015612214578135845292840192908401906001016121f8565b5090979650505050505050565b600082601f83011261223257600080fd5b61224183833560208501612130565b9392505050565b60006020828403121561225a57600080fd5b6122418261218e565b6000806040838503121561227657600080fd5b61227f8361218e565b915061228d6020840161218e565b90509250929050565b600080600080600060a086880312156122ae57600080fd5b6122b78661218e565b94506122c56020870161218e565b9350604086013567ffffffffffffffff808211156122e257600080fd5b6122ee89838a016121aa565b9450606088013591508082111561230457600080fd5b61231089838a016121aa565b9350608088013591508082111561232657600080fd5b5061233388828901612221565b9150509295509295909350565b600080600080600060a0868803121561235857600080fd5b6123618661218e565b945061236f6020870161218e565b93506040860135925060608601359150608086013567ffffffffffffffff81111561239957600080fd5b61233388828901612221565b600080600080608085870312156123bb57600080fd5b6123c48561218e565b9350602085013567ffffffffffffffff808211156123e157600080fd5b6123ed888389016121aa565b9450604087013591508082111561240357600080fd5b61240f888389016121aa565b9350606087013591508082111561242557600080fd5b5061243287828801612221565b91505092959194509250565b6000806040838503121561245157600080fd5b61245a8361218e565b9150602083013561246a81612d3a565b809150509250929050565b6000806040838503121561248857600080fd5b6124918361218e565b946020939093013593505050565b6000806000606084860312156124b457600080fd5b6124bd8461218e565b95602085013595506040909401359392505050565b600080600080608085870312156124e857600080fd5b6124f18561218e565b93506020850135925060408501359150606085013567ffffffffffffffff81111561251b57600080fd5b61243287828801612221565b6000806040838503121561253a57600080fd5b823567ffffffffffffffff8082111561255257600080fd5b818501915085601f83011261256657600080fd5b8135602061257382612b29565b6040516125808282612bca565b8381528281019150858301600585901b870184018b10156125a057600080fd5b600096505b848710156125ca576125b68161218e565b8352600196909601959183019183016125a5565b50965050860135925050808211156125e157600080fd5b506125ee858286016121aa565b9150509250929050565b60006020828403121561260a57600080fd5b813561224181612d3a565b60006020828403121561262757600080fd5b815161224181612d3a565b60006020828403121561264457600080fd5b813561224181612d4b565b60006020828403121561266157600080fd5b815161224181612d4b565b60006020828403121561267e57600080fd5b813567ffffffffffffffff81111561269557600080fd5b8201601f810184136126a657600080fd5b6126b584823560208401612130565b949350505050565b6000608082840312156126cf57600080fd5b50919050565b6000602082840312156126e757600080fd5b5035919050565b6000806040838503121561270157600080fd5b82359150602083013561246a81612d3a565b6000806040838503121561272657600080fd5b50508035926020909101359150565b600081518084526020808501945080840160005b8381101561276557815187529582019590820190600101612749565b509495945050505050565b60008151808452612788816020860160208601612b65565b601f01601f19169290920160200192915050565b600083516127ae818460208801612b65565b8351908301906127c2818360208801612b65565b64173539b7b760d91b9101908152600501949350505050565b6001600160a01b0386811682528516602082015260a06040820181905260009061280790830186612735565b82810360608401526128198186612735565b9050828103608084015261282d8185612770565b98975050505050505050565b6001600160a01b03868116825285166020820152604081018490526060810183905260a06080820181905260009061287390830184612770565b979650505050505050565b6020815260006122416020830184612735565b6040815260006128a46040830185612735565b82810360208401526128b68185612735565b95945050505050565b6020815260006122416020830184612770565b60208082526028908201527f455243313135353a204552433131353552656365697665722072656a656374656040820152676420746f6b656e7360c01b606082015260800190565b60208082526018908201527f556e7665726966696564206f776e657220616464726573730000000000000000604082015260600190565b6020808252602e908201527f455243313135353a2063616c6c6572206973206e6f7420746f6b656e206f776e60408201526d195c881bdc88185c1c1c9bdd995960921b606082015260800190565b60208082526025908201527f455243313135353a207472616e7366657220746f20746865207a65726f206164604082015264647265737360d81b606082015260800190565b6020808252602a908201527f455243313135353a20696e73756666696369656e742062616c616e636520666f60408201526939103a3930b739b332b960b11b606082015260800190565b6020808252602a908201527f5472616e73616374696f6e2064656e6965643a206164647265737320697320626040820152691b1858dadb1a5cdd195960b21b606082015260800190565b6020808252600e908201526d556e646566696e6564204974656d60901b604082015260600190565b60208082526028908201527f455243313135353a2069647320616e6420616d6f756e7473206c656e677468206040820152670dad2e6dac2e8c6d60c31b606082015260800190565b60208082526021908201527f455243313135353a206d696e7420746f20746865207a65726f206164647265736040820152607360f81b606082015260800190565b600067ffffffffffffffff821115612b4357612b43612c3e565b5060051b60200190565b60008219821115612b6057612b60612c12565b500190565b60005b83811015612b80578181015183820152602001612b68565b83811115612b8f576000848401525b50505050565b600181811c90821680612ba957607f821691505b602082108114156126cf57634e487b7160e01b600052602260045260246000fd5b601f8201601f1916810167ffffffffffffffff81118282101715612bf057612bf0612c3e565b6040525050565b6000600019821415612c0b57612c0b612c12565b5060010190565b634e487b7160e01b600052601160045260246000fd5b634e487b7160e01b600052603260045260246000fd5b634e487b7160e01b600052604160045260246000fd5b600060033d1115612c6d5760046000803e5060005160e01c5b90565b600060443d1015612c7e5790565b6040516003193d81016004833e81513d67ffffffffffffffff8160248401118184111715612cae57505050505090565b8285019150815181811115612cc65750505050505090565b843d8701016020828501011115612ce05750505050505090565b612cef60208286010187612bca565b509095945050505050565b81358155600181016020830135612d1081612d3a565b815490151560ff1660ff199190911617905560408201356002820155606090910135600390910155565b8015158114612d4857600080fd5b50565b6001600160e01b031981168114612d4857600080fdfea26469706673582212209a9b9e0961d4192bcc024bdbea42407402ed8787a4c9d6d8470bea8a7014df9164736f6c6343000807003368747470733a2f2f696d672e63662d6e2e696f2f6a736f6e732f6567674974656d2f",
  "immutableReferences": {},
  "source": "// SPDX-License-Identifier: MIT\npragma solidity ^0.8.1;\n\nimport \"@openzeppelin/contracts/token/ERC1155/ERC1155.sol\";\nimport \"@openzeppelin/contracts/utils/Strings.sol\";\nimport \"../interfaces/ICFNAccessControl.sol\";\nimport {ItemTypes} from \"../libraries/ItemTypes.sol\";\n\ncontract EggItem is ERC1155 {\n    using Strings for uint256;\n\n    using ItemTypes for ItemTypes.EggItem;\n\n    ICFNAccessControl public accessControl;\n\n    // contract name, symbol\n    string public name = \"Egg Item\";\n    string public symbol = \"EIN\";\n\n    mapping(uint256 => ItemTypes.EggItem) public tokenURIs;\n    uint256[] public itemList;\n\n    event AddItem(\n        uint256 indexed tokenId,\n        bool isSale,\n        uint256 price,\n        uint256 day\n    );\n    event UpdateIsSale(uint256 indexed tokenId, bool isSale);\n    event UpdatePrice(uint256 indexed tokenId, uint256 price);\n    event UpdateDay(uint256 indexed tokenId, uint256 day);\n\n    constructor(\n        address _accessControl\n    ) ERC1155(\"https://img.cf-n.io/jsons/eggItem/\") {\n        accessControl = ICFNAccessControl(_accessControl);\n    }\n\n    modifier isBlackListWallet(address _address) {\n        require(\n            !accessControl.blackListWallet(_address),\n            \"Transaction denied: address is blacklisted\"\n        );\n        _;\n    }\n\n    modifier isWhiteListControl(address _ca) {\n        require(\n            accessControl.whiteListControlAddress(_ca),\n            \"Unverified owner address\"\n        );\n        _;\n    }\n\n    function setAccessControl(\n        address _ca\n    ) public isWhiteListControl(msg.sender) {\n        accessControl = ICFNAccessControl(_ca);\n    }\n\n    function setURI(\n        string memory _newUri\n    ) public isWhiteListControl(msg.sender) {\n        _setURI(_newUri);\n    }\n\n    function addItems(\n        ItemTypes.EggItem calldata item\n    ) public isWhiteListControl(msg.sender) {\n        require(tokenURIs[item.tokenId].tokenId == 0, \"Already exists\");\n        require(item.tokenId > 0, \"Must be greater than zero\");\n\n        tokenURIs[item.tokenId] = item;\n\n        itemList.push(item.tokenId);\n\n        emit AddItem(item.tokenId, item.isSale, item.price, item.day);\n    }\n\n    function setIsSaleItem(\n        uint256 _tokenId,\n        bool _isSale\n    ) public isWhiteListControl(msg.sender) {\n        require(tokenURIs[_tokenId].tokenId != 0, \"Undefined Item\");\n\n        tokenURIs[_tokenId].isSale = _isSale;\n\n        emit UpdateIsSale(_tokenId, _isSale);\n    }\n\n    function setPriceItem(\n        uint256 _tokenId,\n        uint256 _price\n    ) public isWhiteListControl(msg.sender) {\n        require(tokenURIs[_tokenId].tokenId != 0, \"Undefined Item\");\n\n        tokenURIs[_tokenId].price = _price;\n\n        emit UpdatePrice(_tokenId, _price);\n    }\n\n    function setDayItem(\n        uint256 _tokenId,\n        uint256 _day\n    ) public isWhiteListControl(msg.sender) {\n        require(tokenURIs[_tokenId].tokenId != 0, \"Undefined Item\");\n\n        tokenURIs[_tokenId].day = _day;\n\n        emit UpdateDay(_tokenId, _day);\n    }\n\n    function getItemList() public view returns (uint256[] memory) {\n        return itemList;\n    }\n\n    function uri(uint256 tokenId) public view override returns (string memory) {\n        require(tokenURIs[tokenId].tokenId != 0, \"Undefined Uri\");\n\n        return\n            string(\n                abi.encodePacked(\n                    super.uri(tokenId),\n                    Strings.toString(tokenId),\n                    \".json\"\n                )\n            );\n    }\n\n    function burn(address account, uint256 id, uint256 value) public {\n        require(\n            account == _msgSender() || isApprovedForAll(account, _msgSender()),\n            \"ERC1155: caller is not owner nor approved\"\n        );\n\n        _burn(account, id, value);\n    }\n\n    function mint(\n        address _to,\n        uint256 _id,\n        uint256 _amount,\n        bytes memory _data\n    ) public isWhiteListControl(msg.sender) isBlackListWallet(_to) {\n        require(tokenURIs[_id].tokenId != 0, \"Undefined TokenId\");\n\n        _mint(_to, _id, _amount, _data);\n    }\n\n    function mintBatch(\n        address _to,\n        uint256[] memory _ids,\n        uint256[] memory _amounts,\n        bytes memory _data\n    ) public isWhiteListControl(msg.sender) isBlackListWallet(_to) {\n        require(tokenURIs[_ids[0]].tokenId != 0, \"Undefined TokenId\");\n\n        _mintBatch(_to, _ids, _amounts, _data);\n    }\n\n    function safeTransferFrom(\n        address from,\n        address to,\n        uint256 id,\n        uint256 amount,\n        bytes memory data\n    ) public override isBlackListWallet(from) isBlackListWallet(to) {\n        super.safeTransferFrom(from, to, id, amount, data);\n    }\n\n    function safeBatchTransferFrom(\n        address from,\n        address to,\n        uint256[] memory ids,\n        uint256[] memory amounts,\n        bytes memory data\n    ) public override isBlackListWallet(from) isBlackListWallet(to) {\n        super.safeBatchTransferFrom(from, to, ids, amounts, data);\n    }\n}\n",
  "sourcePath": "/Users/minki/Desktop/Codberg/cock-fight-network-contrats/contracts/cock-fight/erc1155/EggItem.sol",
  "compiler": {
    "name": "solc",
    "version": "0.8.7+commit.e28d00a7.Emscripten.clang"
  },
  "schemaVersion": "3.4.16",
  "updatedAt": "2025-04-15T23:46:43.668Z",
  "devdoc": {
    "kind": "dev",
    "methods": {
      "balanceOf(address,uint256)": {
        "details": "See {IERC1155-balanceOf}. Requirements: - `account` cannot be the zero address."
      },
      "balanceOfBatch(address[],uint256[])": {
        "details": "See {IERC1155-balanceOfBatch}. Requirements: - `accounts` and `ids` must have the same length."
      },
      "isApprovedForAll(address,address)": {
        "details": "See {IERC1155-isApprovedForAll}."
      },
      "safeBatchTransferFrom(address,address,uint256[],uint256[],bytes)": {
        "details": "See {IERC1155-safeBatchTransferFrom}."
      },
      "safeTransferFrom(address,address,uint256,uint256,bytes)": {
        "details": "See {IERC1155-safeTransferFrom}."
      },
      "setApprovalForAll(address,bool)": {
        "details": "See {IERC1155-setApprovalForAll}."
      },
      "supportsInterface(bytes4)": {
        "details": "See {IERC165-supportsInterface}."
      }
    },
    "version": 1
  },
  "userdoc": {
    "kind": "user",
    "methods": {},
    "version": 1
  }
}