{
  "contractName": "HenStakingV2",
  "abi": [
    {
      "inputs": [
        {
          "internalType": "address",
          "name": "_accessControl",
          "type": "address"
        },
        {
          "internalType": "address",
          "name": "_cfnContract",
          "type": "address"
        },
        {
          "internalType": "address",
          "name": "_henContract",
          "type": "address"
        },
        {
          "internalType": "address",
          "name": "_receiveWallet",
          "type": "address"
        }
      ],
      "stateMutability": "nonpayable",
      "type": "constructor"
    },
    {
      "inputs": [
        {
          "internalType": "address",
          "name": "wallet",
          "type": "address"
        }
      ],
      "name": "HenReceiptError",
      "type": "error"
    },
    {
      "anonymous": false,
      "inputs": [
        {
          "indexed": true,
          "internalType": "address",
          "name": "owner",
          "type": "address"
        },
        {
          "indexed": true,
          "internalType": "address",
          "name": "approved",
          "type": "address"
        },
        {
          "indexed": true,
          "internalType": "uint256",
          "name": "tokenId",
          "type": "uint256"
        }
      ],
      "name": "Approval",
      "type": "event"
    },
    {
      "anonymous": false,
      "inputs": [
        {
          "indexed": true,
          "internalType": "address",
          "name": "owner",
          "type": "address"
        },
        {
          "indexed": true,
          "internalType": "address",
          "name": "operator",
          "type": "address"
        },
        {
          "indexed": false,
          "internalType": "bool",
          "name": "approved",
          "type": "bool"
        }
      ],
      "name": "ApprovalForAll",
      "type": "event"
    },
    {
      "anonymous": false,
      "inputs": [
        {
          "indexed": true,
          "internalType": "address",
          "name": "_owner",
          "type": "address"
        },
        {
          "indexed": true,
          "internalType": "uint256",
          "name": "_tokenId",
          "type": "uint256"
        }
      ],
      "name": "MintHenReceipt",
      "type": "event"
    },
    {
      "anonymous": false,
      "inputs": [
        {
          "indexed": true,
          "internalType": "address",
          "name": "_owner",
          "type": "address"
        },
        {
          "indexed": true,
          "internalType": "uint256",
          "name": "_tokenId",
          "type": "uint256"
        },
        {
          "components": [
            {
              "internalType": "address",
              "name": "owner",
              "type": "address"
            },
            {
              "internalType": "uint256",
              "name": "startTimestamp",
              "type": "uint256"
            },
            {
              "internalType": "uint256",
              "name": "accStakingTimestamp",
              "type": "uint256"
            },
            {
              "internalType": "uint256",
              "name": "accRewardAmount",
              "type": "uint256"
            }
          ],
          "indexed": false,
          "internalType": "struct HenStakingV2.Info",
          "name": "_info",
          "type": "tuple"
        }
      ],
      "name": "StakingHenReceipt",
      "type": "event"
    },
    {
      "anonymous": false,
      "inputs": [
        {
          "indexed": true,
          "internalType": "address",
          "name": "from",
          "type": "address"
        },
        {
          "indexed": true,
          "internalType": "address",
          "name": "to",
          "type": "address"
        },
        {
          "indexed": true,
          "internalType": "uint256",
          "name": "tokenId",
          "type": "uint256"
        }
      ],
      "name": "Transfer",
      "type": "event"
    },
    {
      "anonymous": false,
      "inputs": [
        {
          "indexed": true,
          "internalType": "address",
          "name": "wallet",
          "type": "address"
        }
      ],
      "name": "UpdateAccessControl",
      "type": "event"
    },
    {
      "anonymous": false,
      "inputs": [
        {
          "indexed": true,
          "internalType": "address",
          "name": "wallet",
          "type": "address"
        }
      ],
      "name": "UpdateErc20TokenManager",
      "type": "event"
    },
    {
      "anonymous": false,
      "inputs": [
        {
          "indexed": true,
          "internalType": "address",
          "name": "wallet",
          "type": "address"
        }
      ],
      "name": "UpdateHenManager",
      "type": "event"
    },
    {
      "anonymous": false,
      "inputs": [
        {
          "indexed": true,
          "internalType": "address",
          "name": "wallet",
          "type": "address"
        }
      ],
      "name": "UpdateReceiveWallet",
      "type": "event"
    },
    {
      "anonymous": false,
      "inputs": [
        {
          "indexed": true,
          "internalType": "address",
          "name": "walletAddress",
          "type": "address"
        },
        {
          "indexed": false,
          "internalType": "uint256",
          "name": "withdrawAmount",
          "type": "uint256"
        }
      ],
      "name": "Withdraw",
      "type": "event"
    },
    {
      "anonymous": false,
      "inputs": [
        {
          "indexed": true,
          "internalType": "address",
          "name": "_owner",
          "type": "address"
        },
        {
          "indexed": true,
          "internalType": "uint256",
          "name": "_tokenId",
          "type": "uint256"
        },
        {
          "components": [
            {
              "internalType": "address",
              "name": "owner",
              "type": "address"
            },
            {
              "internalType": "uint256",
              "name": "startTimestamp",
              "type": "uint256"
            },
            {
              "internalType": "uint256",
              "name": "accStakingTimestamp",
              "type": "uint256"
            },
            {
              "internalType": "uint256",
              "name": "accRewardAmount",
              "type": "uint256"
            }
          ],
          "indexed": false,
          "internalType": "struct HenStakingV2.Info",
          "name": "_info",
          "type": "tuple"
        }
      ],
      "name": "WithdrawHenReceipt",
      "type": "event"
    },
    {
      "anonymous": false,
      "inputs": [
        {
          "indexed": false,
          "internalType": "address",
          "name": "_manager",
          "type": "address"
        },
        {
          "indexed": true,
          "internalType": "address",
          "name": "_owner",
          "type": "address"
        },
        {
          "indexed": true,
          "internalType": "uint256",
          "name": "_tokenId",
          "type": "uint256"
        },
        {
          "components": [
            {
              "internalType": "address",
              "name": "owner",
              "type": "address"
            },
            {
              "internalType": "uint256",
              "name": "startTimestamp",
              "type": "uint256"
            },
            {
              "internalType": "uint256",
              "name": "accStakingTimestamp",
              "type": "uint256"
            },
            {
              "internalType": "uint256",
              "name": "accRewardAmount",
              "type": "uint256"
            }
          ],
          "indexed": false,
          "internalType": "struct HenStakingV2.Info",
          "name": "_info",
          "type": "tuple"
        }
      ],
      "name": "WithdrawManagerHenReceipt",
      "type": "event"
    },
    {
      "anonymous": false,
      "inputs": [
        {
          "indexed": true,
          "internalType": "address",
          "name": "walletAddress",
          "type": "address"
        },
        {
          "indexed": false,
          "internalType": "uint256",
          "name": "withdrawAmount",
          "type": "uint256"
        },
        {
          "indexed": false,
          "internalType": "address",
          "name": "tokenContract",
          "type": "address"
        }
      ],
      "name": "WithdrawToken",
      "type": "event"
    },
    {
      "inputs": [],
      "name": "accWithdrawAmount",
      "outputs": [
        {
          "internalType": "uint256",
          "name": "",
          "type": "uint256"
        }
      ],
      "stateMutability": "view",
      "type": "function"
    },
    {
      "inputs": [],
      "name": "accessControl",
      "outputs": [
        {
          "internalType": "contract ICFNAccessControl",
          "name": "",
          "type": "address"
        }
      ],
      "stateMutability": "view",
      "type": "function"
    },
    {
      "inputs": [
        {
          "internalType": "address",
          "name": "to",
          "type": "address"
        },
        {
          "internalType": "uint256",
          "name": "tokenId",
          "type": "uint256"
        }
      ],
      "name": "approve",
      "outputs": [],
      "stateMutability": "nonpayable",
      "type": "function"
    },
    {
      "inputs": [
        {
          "internalType": "address",
          "name": "owner",
          "type": "address"
        }
      ],
      "name": "balanceOf",
      "outputs": [
        {
          "internalType": "uint256",
          "name": "",
          "type": "uint256"
        }
      ],
      "stateMutability": "view",
      "type": "function"
    },
    {
      "inputs": [],
      "name": "erc20TokenManager",
      "outputs": [
        {
          "internalType": "contract IERC20",
          "name": "",
          "type": "address"
        }
      ],
      "stateMutability": "view",
      "type": "function"
    },
    {
      "inputs": [
        {
          "internalType": "uint256",
          "name": "tokenId",
          "type": "uint256"
        }
      ],
      "name": "getApproved",
      "outputs": [
        {
          "internalType": "address",
          "name": "",
          "type": "address"
        }
      ],
      "stateMutability": "view",
      "type": "function"
    },
    {
      "inputs": [],
      "name": "henManager",
      "outputs": [
        {
          "internalType": "contract IHen",
          "name": "",
          "type": "address"
        }
      ],
      "stateMutability": "view",
      "type": "function"
    },
    {
      "inputs": [
        {
          "internalType": "address",
          "name": "owner",
          "type": "address"
        },
        {
          "internalType": "address",
          "name": "operator",
          "type": "address"
        }
      ],
      "name": "isApprovedForAll",
      "outputs": [
        {
          "internalType": "bool",
          "name": "",
          "type": "bool"
        }
      ],
      "stateMutability": "view",
      "type": "function"
    },
    {
      "inputs": [],
      "name": "maxHenStakingAmount",
      "outputs": [
        {
          "internalType": "uint256",
          "name": "",
          "type": "uint256"
        }
      ],
      "stateMutability": "view",
      "type": "function"
    },
    {
      "inputs": [],
      "name": "maxReward",
      "outputs": [
        {
          "internalType": "uint256",
          "name": "",
          "type": "uint256"
        }
      ],
      "stateMutability": "view",
      "type": "function"
    },
    {
      "inputs": [],
      "name": "maxStakingTimestamp",
      "outputs": [
        {
          "internalType": "uint256",
          "name": "",
          "type": "uint256"
        }
      ],
      "stateMutability": "view",
      "type": "function"
    },
    {
      "inputs": [],
      "name": "name",
      "outputs": [
        {
          "internalType": "string",
          "name": "",
          "type": "string"
        }
      ],
      "stateMutability": "view",
      "type": "function"
    },
    {
      "inputs": [
        {
          "internalType": "uint256",
          "name": "tokenId",
          "type": "uint256"
        }
      ],
      "name": "ownerOf",
      "outputs": [
        {
          "internalType": "address",
          "name": "",
          "type": "address"
        }
      ],
      "stateMutability": "view",
      "type": "function"
    },
    {
      "inputs": [],
      "name": "receiveWallet",
      "outputs": [
        {
          "internalType": "address payable",
          "name": "",
          "type": "address"
        }
      ],
      "stateMutability": "view",
      "type": "function"
    },
    {
      "inputs": [],
      "name": "rewardPerStakingAllowed",
      "outputs": [
        {
          "internalType": "uint256",
          "name": "",
          "type": "uint256"
        }
      ],
      "stateMutability": "view",
      "type": "function"
    },
    {
      "inputs": [
        {
          "internalType": "address",
          "name": "from",
          "type": "address"
        },
        {
          "internalType": "address",
          "name": "to",
          "type": "address"
        },
        {
          "internalType": "uint256",
          "name": "tokenId",
          "type": "uint256"
        }
      ],
      "name": "safeTransferFrom",
      "outputs": [],
      "stateMutability": "nonpayable",
      "type": "function"
    },
    {
      "inputs": [
        {
          "internalType": "address",
          "name": "from",
          "type": "address"
        },
        {
          "internalType": "address",
          "name": "to",
          "type": "address"
        },
        {
          "internalType": "uint256",
          "name": "tokenId",
          "type": "uint256"
        },
        {
          "internalType": "bytes",
          "name": "data",
          "type": "bytes"
        }
      ],
      "name": "safeTransferFrom",
      "outputs": [],
      "stateMutability": "nonpayable",
      "type": "function"
    },
    {
      "inputs": [
        {
          "internalType": "address",
          "name": "operator",
          "type": "address"
        },
        {
          "internalType": "bool",
          "name": "approved",
          "type": "bool"
        }
      ],
      "name": "setApprovalForAll",
      "outputs": [],
      "stateMutability": "nonpayable",
      "type": "function"
    },
    {
      "inputs": [],
      "name": "stakingActive",
      "outputs": [
        {
          "internalType": "bool",
          "name": "",
          "type": "bool"
        }
      ],
      "stateMutability": "view",
      "type": "function"
    },
    {
      "inputs": [],
      "name": "stakingAllowedTimestamp",
      "outputs": [
        {
          "internalType": "uint256",
          "name": "",
          "type": "uint256"
        }
      ],
      "stateMutability": "view",
      "type": "function"
    },
    {
      "inputs": [
        {
          "internalType": "uint256",
          "name": "",
          "type": "uint256"
        }
      ],
      "name": "stakingInfo",
      "outputs": [
        {
          "internalType": "address",
          "name": "owner",
          "type": "address"
        },
        {
          "internalType": "uint256",
          "name": "startTimestamp",
          "type": "uint256"
        },
        {
          "internalType": "uint256",
          "name": "accStakingTimestamp",
          "type": "uint256"
        },
        {
          "internalType": "uint256",
          "name": "accRewardAmount",
          "type": "uint256"
        }
      ],
      "stateMutability": "view",
      "type": "function"
    },
    {
      "inputs": [
        {
          "internalType": "bytes4",
          "name": "interfaceId",
          "type": "bytes4"
        }
      ],
      "name": "supportsInterface",
      "outputs": [
        {
          "internalType": "bool",
          "name": "",
          "type": "bool"
        }
      ],
      "stateMutability": "view",
      "type": "function"
    },
    {
      "inputs": [],
      "name": "symbol",
      "outputs": [
        {
          "internalType": "string",
          "name": "",
          "type": "string"
        }
      ],
      "stateMutability": "view",
      "type": "function"
    },
    {
      "inputs": [],
      "name": "totalHenStakingAmount",
      "outputs": [
        {
          "internalType": "uint256",
          "name": "",
          "type": "uint256"
        }
      ],
      "stateMutability": "view",
      "type": "function"
    },
    {
      "inputs": [
        {
          "internalType": "address",
          "name": "from",
          "type": "address"
        },
        {
          "internalType": "address",
          "name": "to",
          "type": "address"
        },
        {
          "internalType": "uint256",
          "name": "tokenId",
          "type": "uint256"
        }
      ],
      "name": "transferFrom",
      "outputs": [],
      "stateMutability": "nonpayable",
      "type": "function"
    },
    {
      "inputs": [
        {
          "internalType": "address",
          "name": "_ca",
          "type": "address"
        }
      ],
      "name": "setAccessControl",
      "outputs": [],
      "stateMutability": "nonpayable",
      "type": "function"
    },
    {
      "inputs": [
        {
          "internalType": "address",
          "name": "_ca",
          "type": "address"
        }
      ],
      "name": "setHenManager",
      "outputs": [],
      "stateMutability": "nonpayable",
      "type": "function"
    },
    {
      "inputs": [
        {
          "internalType": "address",
          "name": "_ca",
          "type": "address"
        }
      ],
      "name": "setErc20TokenManager",
      "outputs": [],
      "stateMutability": "nonpayable",
      "type": "function"
    },
    {
      "inputs": [
        {
          "internalType": "uint256",
          "name": "_maxReward",
          "type": "uint256"
        }
      ],
      "name": "setMaxReward",
      "outputs": [],
      "stateMutability": "nonpayable",
      "type": "function"
    },
    {
      "inputs": [
        {
          "internalType": "uint256",
          "name": "_rewardPerStakingAllowed",
          "type": "uint256"
        }
      ],
      "name": "setRewardPerStakingAllowed",
      "outputs": [],
      "stateMutability": "nonpayable",
      "type": "function"
    },
    {
      "inputs": [
        {
          "internalType": "bool",
          "name": "_stakingActive",
          "type": "bool"
        }
      ],
      "name": "setStakingActive",
      "outputs": [],
      "stateMutability": "nonpayable",
      "type": "function"
    },
    {
      "inputs": [
        {
          "internalType": "uint256",
          "name": "_maxHenStakingAmount",
          "type": "uint256"
        }
      ],
      "name": "setMaxHenStakingAmount",
      "outputs": [],
      "stateMutability": "nonpayable",
      "type": "function"
    },
    {
      "inputs": [
        {
          "internalType": "uint256",
          "name": "_tokenId",
          "type": "uint256"
        }
      ],
      "name": "henStaking",
      "outputs": [],
      "stateMutability": "nonpayable",
      "type": "function"
    },
    {
      "inputs": [
        {
          "internalType": "uint256",
          "name": "_tokenId",
          "type": "uint256"
        }
      ],
      "name": "reward",
      "outputs": [
        {
          "internalType": "uint256",
          "name": "",
          "type": "uint256"
        }
      ],
      "stateMutability": "view",
      "type": "function"
    },
    {
      "inputs": [
        {
          "internalType": "uint256",
          "name": "_tokenId",
          "type": "uint256"
        }
      ],
      "name": "henWithdraw",
      "outputs": [],
      "stateMutability": "nonpayable",
      "type": "function"
    },
    {
      "inputs": [
        {
          "internalType": "uint256",
          "name": "_tokenId",
          "type": "uint256"
        }
      ],
      "name": "henWithdrawManager",
      "outputs": [],
      "stateMutability": "nonpayable",
      "type": "function"
    },
    {
      "inputs": [
        {
          "internalType": "bytes[]",
          "name": "callDatas",
          "type": "bytes[]"
        }
      ],
      "name": "aggregate",
      "outputs": [
        {
          "internalType": "bytes[]",
          "name": "returnData",
          "type": "bytes[]"
        }
      ],
      "stateMutability": "nonpayable",
      "type": "function"
    },
    {
      "inputs": [],
      "name": "withdrawTokenAll",
      "outputs": [],
      "stateMutability": "nonpayable",
      "type": "function"
    },
    {
      "inputs": [
        {
          "internalType": "uint256",
          "name": "_amount",
          "type": "uint256"
        }
      ],
      "name": "withdrawToken",
      "outputs": [],
      "stateMutability": "nonpayable",
      "type": "function"
    },
    {
      "inputs": [],
      "name": "withdrawCoinAll",
      "outputs": [],
      "stateMutability": "nonpayable",
      "type": "function"
    },
    {
      "inputs": [
        {
          "internalType": "uint256",
          "name": "_amount",
          "type": "uint256"
        }
      ],
      "name": "withdrawCoin",
      "outputs": [],
      "stateMutability": "nonpayable",
      "type": "function"
    },
    {
      "inputs": [
        {
          "internalType": "address",
          "name": "_receiveWallet",
          "type": "address"
        }
      ],
      "name": "setReceiveWallet",
      "outputs": [],
      "stateMutability": "nonpayable",
      "type": "function"
    },
    {
      "inputs": [
        {
          "internalType": "uint256",
          "name": "_tokenId",
          "type": "uint256"
        }
      ],
      "name": "getStakingInfo",
      "outputs": [
        {
          "internalType": "address",
          "name": "owner",
          "type": "address"
        },
        {
          "internalType": "uint256",
          "name": "startTimestamp",
          "type": "uint256"
        },
        {
          "internalType": "uint256",
          "name": "receiveReward",
          "type": "uint256"
        },
        {
          "internalType": "uint256",
          "name": "accRewardAmount",
          "type": "uint256"
        }
      ],
      "stateMutability": "view",
      "type": "function"
    },
    {
      "inputs": [
        {
          "internalType": "uint256",
          "name": "tokenId",
          "type": "uint256"
        }
      ],
      "name": "tokenURI",
      "outputs": [
        {
          "internalType": "string",
          "name": "",
          "type": "string"
        }
      ],
      "stateMutability": "view",
      "type": "function"
    }
  ],
  "bytecode": "0x60806040526903dd55a0a35b1ee80000600a55612710600b556000600c8190556301e13380600d5562015180600e556802b5e3af16b1880000600f556010556011805460ff191660011790553480156200005857600080fd5b5060405162004180380380620041808339810160408190526200007b9162000387565b604080518082018252601881527f43464e2048656e205374616b696e67204361726420563220000000000000000060208083019182528351808501909452600884526721a3272429a1ab1960c11b908401528151919291620000e091600091620002c4565b508051620000f6906001906020840190620002c4565b50506001600655506001600160a01b0383166200015a5760405162461bcd60e51b815260206004820152601560248201527f496e76616c69642045524332302061646472657373000000000000000000000060448201526064015b60405180910390fd5b6001600160a01b038216620001b25760405162461bcd60e51b815260206004820152601660248201527f496e76616c696420455243373231206164647265737300000000000000000000604482015260640162000151565b6001600160a01b0384166200020a5760405162461bcd60e51b815260206004820152601d60248201527f496e76616c696420616363657373436f6e74726f6c2061646472657373000000604482015260640162000151565b6001600160a01b038116620002625760405162461bcd60e51b815260206004820152601d60248201527f496e76616c6964207265636569766557616c6c65742061646472657373000000604482015260640162000151565b600780546001600160a01b03199081166001600160a01b0395861617909155600880548216938516939093179092556009805490921693831693909317905560118054610100600160a81b031916610100939092169290920217905562000421565b828054620002d290620003e4565b90600052602060002090601f016020900481019282620002f6576000855562000341565b82601f106200031157805160ff191683800117855562000341565b8280016001018555821562000341579182015b828111156200034157825182559160200191906001019062000324565b506200034f92915062000353565b5090565b5b808211156200034f576000815560010162000354565b80516001600160a01b03811681146200038257600080fd5b919050565b600080600080608085870312156200039e57600080fd5b620003a9856200036a565b9350620003b9602086016200036a565b9250620003c9604086016200036a565b9150620003d9606086016200036a565b905092959194509250565b600181811c90821680620003f957607f821691505b602082108114156200041b57634e487b7160e01b600052602260045260246000fd5b50919050565b613d4f80620004316000396000f3fe608060405234801561001057600080fd5b50600436106102745760003560e01c80635d3132951161015157806395d89b41116100c3578063c400816b11610087578063c400816b1461059e578063c87b56dd146105b1578063cb1d9da9146105c4578063e985e9c5146105cc578063e9c4aa6a146105df578063f20c9703146105f257600080fd5b806395d89b4114610550578063a22cb46514610558578063a6ac4b351461056b578063a9fb763c14610578578063b88d4fde1461058b57600080fd5b80637b5f9a0d116101155780637b5f9a0d1461049d5780637c6cd523146104b05780637fc0254d146104b9578063819ddb74146104c15780639127e8a61461052a57806393085f721461053d57600080fd5b80635d313295146104435780636352211e1461045b57806366a78e6c1461046e578063688d679d1461047757806370a082311461048a57600080fd5b80631ef8fed8116101ea57806331be95a8116101ae57806331be95a8146103e55780633dd526d2146103ee57806342842e0e146104015780634eb264e81461041457806350baa62214610427578063573dff4d1461043a57600080fd5b80631ef8fed81461039057806323b872dd1461039957806325afb162146103ac57806325c33e13146103bf578063281105e3146103d257600080fd5b8063095ea7b31161023c578063095ea7b31461031c5780631267a6ab1461033157806313007d5514610344578063135ca2ba1461035757806319129e5a1461036a5780631ead32821461037d57600080fd5b806301b069c81461027957806301e6edf3146102a257806301ffc9a7146102b957806306fdde03146102dc578063081812fc146102f1575b600080fd5b61028c6102873660046135cb565b6105fb565b6040516102999190613890565b60405180910390f35b6102ab600f5481565b604051908152602001610299565b6102cc6102c736600461367a565b6107f1565b6040519015158152602001610299565b6102e4610843565b60405161029991906138f2565b6103046102ff36600461378d565b6108d5565b6040516001600160a01b039091168152602001610299565b61032f61032a36600461359f565b6108fc565b005b61032f61033f36600461340e565b610a12565b600954610304906001600160a01b031681565b61032f61036536600461378d565b610afd565b61032f61037836600461340e565b610b9b565b61032f61038b36600461378d565b610c7e565b6102ab600e5481565b61032f6103a7366004613481565b61111c565b61032f6103ba36600461340e565b61114d565b61032f6103cd36600461378d565b611230565b61032f6103e0366004613640565b6112ce565b6102ab600b5481565b61032f6103fc36600461378d565b61137a565b61032f61040f366004613481565b611771565b61032f61042236600461378d565b61178c565b61032f61043536600461378d565b6119a4565b6102ab60105481565b6011546103049061010090046001600160a01b031681565b61030461046936600461378d565b611c39565b6102ab600a5481565b600754610304906001600160a01b031681565b6102ab61049836600461340e565b611c99565b61032f6104ab36600461378d565b611d1f565b6102ab600d5481565b61032f611dbd565b6105006104cf36600461378d565b60126020526000908152604090208054600182015460028301546003909301546001600160a01b0390921692909184565b604080516001600160a01b0390951685526020850193909352918301526060820152608001610299565b61032f61053836600461340e565b612050565b61032f61054b36600461378d565b612133565b6102e461245c565b61032f610566366004613571565b61246b565b6011546102cc9060ff1681565b6102ab61058636600461378d565b612476565b61032f6105993660046134c2565b6124c5565b600854610304906001600160a01b031681565b6102e46105bf36600461378d565b6124fd565b61032f61257e565b6102cc6105da366004613448565b61276a565b6105006105ed36600461378d565b612798565b6102ab600c5481565b600954604051633f1e317960e11b8152336004820181905260609290916001600160a01b0390911690637e3c62f29060240160206040518083038186803b15801561064557600080fd5b505afa158015610659573d6000803e3d6000fd5b505050506040513d601f19601f8201168201806040525081019061067d919061365d565b6106a25760405162461bcd60e51b8152600401610699906139e9565b60405180910390fd5b828067ffffffffffffffff8111156106bc576106bc613cca565b6040519080825280602002602001820160405280156106ef57816020015b60608152602001906001900390816106da5790505b50925060005b818110156107e8576000803088888581811061071357610713613cb4565b90506020028101906107259190613b05565b6040516107339291906137eb565b6000604051808303816000865af19150503d8060008114610770576040519150601f19603f3d011682016040523d82523d6000602084013e610775565b606091505b5091509150816107b55760405162461bcd60e51b815260206004820152600b60248201526a10d85b1b0819985a5b195960aa1b6044820152606401610699565b808684815181106107c8576107c8613cb4565b6020026020010181905250505080806107e090613c83565b9150506106f5565b50505092915050565b60006001600160e01b031982166380ac58cd60e01b148061082257506001600160e01b03198216635b5e139f60e01b145b8061083d57506301ffc9a760e01b6001600160e01b03198316145b92915050565b60606000805461085290613c48565b80601f016020809104026020016040519081016040528092919081815260200182805461087e90613c48565b80156108cb5780601f106108a0576101008083540402835291602001916108cb565b820191906000526020600020905b8154815290600101906020018083116108ae57829003601f168201915b5050505050905090565b60006108e0826127e2565b506000908152600460205260409020546001600160a01b031690565b600061090782611c39565b9050806001600160a01b0316836001600160a01b031614156109755760405162461bcd60e51b815260206004820152602160248201527f4552433732313a20617070726f76616c20746f2063757272656e74206f776e656044820152603960f91b6064820152608401610699565b336001600160a01b03821614806109915750610991813361276a565b610a035760405162461bcd60e51b815260206004820152603d60248201527f4552433732313a20617070726f76652063616c6c6572206973206e6f7420746f60448201527f6b656e206f776e6572206f7220617070726f76656420666f7220616c6c0000006064820152608401610699565b610a0d8383612844565b505050565b600954604051633f1e317960e11b81523360048201819052916001600160a01b031690637e3c62f29060240160206040518083038186803b158015610a5657600080fd5b505afa158015610a6a573d6000803e3d6000fd5b505050506040513d601f19601f82011682018060405250810190610a8e919061365d565b610aaa5760405162461bcd60e51b8152600401610699906139e9565b60118054610100600160a81b0319166101006001600160a01b038516908102919091179091556040517f44d65df39a87857396ef8f466beb2bb4de84e2b6db31ea2b8ef6ada4fd91153590600090a25050565b600954604051633f1e317960e11b81523360048201819052916001600160a01b031690637e3c62f29060240160206040518083038186803b158015610b4157600080fd5b505afa158015610b55573d6000803e3d6000fd5b505050506040513d601f19601f82011682018060405250810190610b79919061365d565b610b955760405162461bcd60e51b8152600401610699906139e9565b50600b55565b600954604051633f1e317960e11b81523360048201819052916001600160a01b031690637e3c62f29060240160206040518083038186803b158015610bdf57600080fd5b505afa158015610bf3573d6000803e3d6000fd5b505050506040513d601f19601f82011682018060405250810190610c17919061365d565b610c335760405162461bcd60e51b8152600401610699906139e9565b600980546001600160a01b0319166001600160a01b0384169081179091556040517f9c4ea81d40a55f07816a450060f1aeeb7157dedb6fe693bd68053b8ba84eab6090600090a25050565b600954604051636aacbfd760e11b81523360048201819052916001600160a01b03169063d5597fae9060240160206040518083038186803b158015610cc257600080fd5b505afa158015610cd6573d6000803e3d6000fd5b505050506040513d601f19601f82011682018060405250810190610cfa919061365d565b15610d175760405162461bcd60e51b815260040161069990613a57565b610d1f6128b2565b60115460ff16610d715760405162461bcd60e51b815260206004820152601d60248201527f48656e207374616b696e67206973206e6f7420617661696c61626c652e0000006044820152606401610699565b6008546040516331a9108f60e11b81526004810184905233916001600160a01b031690636352211e9060240160206040518083038186803b158015610db557600080fd5b505afa158015610dc9573d6000803e3d6000fd5b505050506040513d601f19601f82011682018060405250810190610ded919061342b565b6001600160a01b031614610e3b5760405162461bcd60e51b81526020600482015260156024820152742a37b5b2b7103237b2b9903737ba1032bc34b9ba1760591b6044820152606401610699565b600b54600c5410610e8e5760405162461bcd60e51b815260206004820152601860248201527f5374616b696e6720746865206d6178696d756d2068656e2e00000000000000006044820152606401610699565b600854604051632e34059960e01b8152600481018490526001600160a01b0390911690632e3405999060240160606040518083038186803b158015610ed257600080fd5b505afa158015610ee6573d6000803e3d6000fd5b505050506040513d601f19601f82011682018060405250810190610f0a919061372b565b5115610f465760405162461bcd60e51b815260206004820152600b60248201526a12195b881a5cc81119585960aa1b6044820152606401610699565b6008546040516323b872dd60e01b8152336004820152306024820152604481018490526001600160a01b03909116906323b872dd90606401600060405180830381600087803b158015610f9857600080fd5b505af1158015610fac573d6000803e3d6000fd5b5050506000838152601260205260409020546001600160a01b03161515905061106e5760408051608081018252338082524260208084019182526000848601818152606086018281528983526012909352959020935184546001600160a01b0319166001600160a01b039091161784559051600184015592516002830155915160039091015561103c908361290c565b604051829033907fd556e255363fc32728c8d2124898a45255cf54e7dcee68d7355f1bece42d911b90600090a36110ad565b600082815260126020526040902080546001600160a01b031916339081178255426001909201919091556110a29083612844565b6110ad30338461111c565b6001600c60008282546110c09190613bac565b9091555050600082815260126020526040908190209051839133917fc01708c3605990319a283fc3a59e2c71afc3d5cb3aaeb3df1212a6082b7c0b1f9161110691613ad1565b60405180910390a36111186001600655565b5050565b6111263382612926565b6111425760405162461bcd60e51b815260040161069990613905565b610a0d838383612984565b600954604051633f1e317960e11b81523360048201819052916001600160a01b031690637e3c62f29060240160206040518083038186803b15801561119157600080fd5b505afa1580156111a5573d6000803e3d6000fd5b505050506040513d601f19601f820116820180604052508101906111c9919061365d565b6111e55760405162461bcd60e51b8152600401610699906139e9565b600880546001600160a01b0319166001600160a01b0384169081179091556040517fac63ad532150d2499cfa46a577994de0db5ce6d0352fa01c9667a9a47c95d00390600090a25050565b600954604051633f1e317960e11b81523360048201819052916001600160a01b031690637e3c62f29060240160206040518083038186803b15801561127457600080fd5b505afa158015611288573d6000803e3d6000fd5b505050506040513d601f19601f820116820180604052508101906112ac919061365d565b6112c85760405162461bcd60e51b8152600401610699906139e9565b50600a55565b600954604051633f1e317960e11b81523360048201819052916001600160a01b031690637e3c62f29060240160206040518083038186803b15801561131257600080fd5b505afa158015611326573d6000803e3d6000fd5b505050506040513d601f19601f8201168201806040525081019061134a919061365d565b6113665760405162461bcd60e51b8152600401610699906139e9565b506011805460ff1916911515919091179055565b600954604051636aacbfd760e11b81523360048201819052916001600160a01b03169063d5597fae9060240160206040518083038186803b1580156113be57600080fd5b505afa1580156113d2573d6000803e3d6000fd5b505050506040513d601f19601f820116820180604052508101906113f6919061365d565b156114135760405162461bcd60e51b815260040161069990613a57565b61141b6128b2565b600854604051632e34059960e01b8152600481018490526001600160a01b0390911690632e3405999060240160606040518083038186803b15801561145f57600080fd5b505afa158015611473573d6000803e3d6000fd5b505050506040513d601f19601f82011682018060405250810190611497919061372b565b51156114d35760405162461bcd60e51b815260206004820152600b60248201526a12195b881a5cc81119585960aa1b6044820152606401610699565b60006114de83612b97565b905060006114eb84612476565b600085815260126020908152604080832081516080808201845282546001600160a01b0316825260018301548286015260028301548285015260039092015460608201528251918201835230825292810193909352600e549394509092908201906115569086613be6565b815260200183601260008981526020019081526020016000206003015461157d9190613bac565b9052600086815260126020908152604091829020835181546001600160a01b0319166001600160a01b0390911617815590830151600182015590820151600282015560609091015160039091015580516115d890308761111c565b60085481516040516323b872dd60e01b81523060048201526001600160a01b039182166024820152604481018890529116906323b872dd90606401600060405180830381600087803b15801561162d57600080fd5b505af1158015611641573d6000803e3d6000fd5b5050825160075461165e93506001600160a01b0316915084612c37565b81601060008282546116709190613bac565b925050819055506001600c600082825461168a9190613c05565b9091555050600a54600086815260126020526040902060030154141561171057600854604051639e0d918960e01b815260048101879052600160248201526001600160a01b0390911690639e0d918990604401600060405180830381600087803b1580156116f757600080fd5b505af115801561170b573d6000803e3d6000fd5b505050505b805160008681526012602052604090819020905187926001600160a01b0316917ff44670110bfb8accf916ff127c415eb3527c61dd51ca4d5247abfa0e3ff8326e9161175c9190613ad1565b60405180910390a35050506111186001600655565b610a0d838383604051806020016040528060008152506124c5565b600954604051633f1e317960e11b81523360048201819052916001600160a01b031690637e3c62f29060240160206040518083038186803b1580156117d057600080fd5b505afa1580156117e4573d6000803e3d6000fd5b505050506040513d601f19601f82011682018060405250810190611808919061365d565b6118245760405162461bcd60e51b8152600401610699906139e9565b60115461010090046001600160a01b03166118515760405162461bcd60e51b815260040161069990613aa1565b600082116118715760405162461bcd60e51b815260040161069990613a20565b47828110156118bd5760405162461bcd60e51b81526020600482015260186024820152772737ba1032b737bab3b41031b7b4b7103130b630b731b29760411b6044820152606401610699565b60115460405160009161010090046001600160a01b03169085908381818185875af1925050503d806000811461190f576040519150601f19603f3d011682016040523d82523d6000602084013e611914565b606091505b50509050806119585760405162461bcd60e51b815260206004820152601060248201526f2a3930b739b332b9103330b4b632b21760811b6044820152606401610699565b6011546040518581526101009091046001600160a01b0316907f884edad9ce6fa2440d8a54cc123490eb96d2768479d49ff9c7366125a94243649060200160405180910390a250505050565b600954604051633f1e317960e11b81523360048201819052916001600160a01b031690637e3c62f29060240160206040518083038186803b1580156119e857600080fd5b505afa1580156119fc573d6000803e3d6000fd5b505050506040513d601f19601f82011682018060405250810190611a20919061365d565b611a3c5760405162461bcd60e51b8152600401610699906139e9565b60115461010090046001600160a01b0316611a695760405162461bcd60e51b815260040161069990613aa1565b60008211611a895760405162461bcd60e51b815260040161069990613a20565b6007546040516370a0823160e01b81523060048201526000916001600160a01b0316906370a082319060240160206040518083038186803b158015611acd57600080fd5b505afa158015611ae1573d6000803e3d6000fd5b505050506040513d601f19601f82011682018060405250810190611b0591906137a6565b905082811015611b535760405162461bcd60e51b81526020600482015260196024820152782737ba1032b737bab3b4103a37b5b2b7103130b630b731b29760391b6044820152606401610699565b60075460115460405163a9059cbb60e01b81526001600160a01b03610100909204821660048201526024810186905291169063a9059cbb90604401602060405180830381600087803b158015611ba857600080fd5b505af1158015611bbc573d6000803e3d6000fd5b505050506040513d601f19601f82011682018060405250810190611be0919061365d565b50601154600754604080518681526001600160a01b039283166020820152610100909304909116917fc7de2d139afb8c4257b3fac58f791fb657180f2f86753ed057e0c3a404f705a391015b60405180910390a2505050565b6000818152600260205260408120546001600160a01b03168061083d5760405162461bcd60e51b8152602060048201526018602482015277115490cdcc8c4e881a5b9d985b1a59081d1bdad95b88125160421b6044820152606401610699565b60006001600160a01b038216611d035760405162461bcd60e51b815260206004820152602960248201527f4552433732313a2061646472657373207a65726f206973206e6f7420612076616044820152683634b21037bbb732b960b91b6064820152608401610699565b506001600160a01b031660009081526003602052604090205490565b600954604051633f1e317960e11b81523360048201819052916001600160a01b031690637e3c62f29060240160206040518083038186803b158015611d6357600080fd5b505afa158015611d77573d6000803e3d6000fd5b505050506040513d601f19601f82011682018060405250810190611d9b919061365d565b611db75760405162461bcd60e51b8152600401610699906139e9565b50600f55565b600954604051633f1e317960e11b81523360048201819052916001600160a01b031690637e3c62f29060240160206040518083038186803b158015611e0157600080fd5b505afa158015611e15573d6000803e3d6000fd5b505050506040513d601f19601f82011682018060405250810190611e39919061365d565b611e555760405162461bcd60e51b8152600401610699906139e9565b60115461010090046001600160a01b0316611e825760405162461bcd60e51b815260040161069990613aa1565b6007546040516370a0823160e01b81523060048201526000916001600160a01b0316906370a082319060240160206040518083038186803b158015611ec657600080fd5b505afa158015611eda573d6000803e3d6000fd5b505050506040513d601f19601f82011682018060405250810190611efe91906137a6565b905060008111611f205760405162461bcd60e51b815260040161069990613a20565b60008111611f6c5760405162461bcd60e51b81526020600482015260196024820152782737ba1032b737bab3b4103a37b5b2b7103130b630b731b29760391b6044820152606401610699565b60075460115460405163a9059cbb60e01b81526001600160a01b03610100909204821660048201526024810184905291169063a9059cbb90604401602060405180830381600087803b158015611fc157600080fd5b505af1158015611fd5573d6000803e3d6000fd5b505050506040513d601f19601f82011682018060405250810190611ff9919061365d565b50601154600754604080518481526001600160a01b039283166020820152610100909304909116917fc7de2d139afb8c4257b3fac58f791fb657180f2f86753ed057e0c3a404f705a3910160405180910390a25050565b600954604051633f1e317960e11b81523360048201819052916001600160a01b031690637e3c62f29060240160206040518083038186803b15801561209457600080fd5b505afa1580156120a8573d6000803e3d6000fd5b505050506040513d601f19601f820116820180604052508101906120cc919061365d565b6120e85760405162461bcd60e51b8152600401610699906139e9565b600780546001600160a01b0319166001600160a01b0384169081179091556040517f9c7f5a4ace9ece42d49d364c1df0edf2155838f639a6a60449b38c93e69dca0190600090a25050565b600954604051633f1e317960e11b81523360048201819052916001600160a01b031690637e3c62f29060240160206040518083038186803b15801561217757600080fd5b505afa15801561218b573d6000803e3d6000fd5b505050506040513d601f19601f820116820180604052508101906121af919061365d565b6121cb5760405162461bcd60e51b8152600401610699906139e9565b60006121d683612b97565b905060006121e384612476565b600085815260126020908152604080832081516080808201845282546001600160a01b0316825260018301548286015260028301548285015260039092015460608201528251918201835230825292810193909352600e5493945090929082019061224e9086613be6565b81526020018360126000898152602001908152602001600020600301546122759190613bac565b9052600086815260126020908152604091829020835181546001600160a01b0319166001600160a01b03918216178255918401516001820155838301516002820155606090930151600390930192909255600854835191516323b872dd60e01b8152306004820152918316602483015260448201889052909116906323b872dd90606401600060405180830381600087803b15801561231357600080fd5b505af1158015612327573d6000803e3d6000fd5b5050825160075461234493506001600160a01b0316915084612c37565b81601060008282546123569190613bac565b90915550508051612368903087612984565b6001600c600082825461237b9190613c05565b9091555050600a546000868152601260205260409020600301541061240057600854604051639e0d918960e01b815260048101879052600160248201526001600160a01b0390911690639e0d918990604401600060405180830381600087803b1580156123e757600080fd5b505af11580156123fb573d6000803e3d6000fd5b505050505b805160008681526012602052604090819020905187926001600160a01b0316917fbe55c32147e772580a122ff27630ae06d63223bd2eacdccd577e2fa3d0ba9a539161244d913391613854565b60405180910390a35050505050565b60606001805461085290613c48565b611118338383612c89565b60008061248283612b97565b9050600081156124ba57600084815260126020526040902060030154600f546124ab9084613be6565b6124b59190613c05565b6124bd565b60005b949350505050565b6124cf3383612926565b6124eb5760405162461bcd60e51b815260040161069990613905565b6124f784848484612d58565b50505050565b60085460405163c87b56dd60e01b8152600481018390526060916001600160a01b03169063c87b56dd9060240160006040518083038186803b15801561254257600080fd5b505afa158015612556573d6000803e3d6000fd5b505050506040513d6000823e601f3d908101601f1916820160405261083d91908101906136b4565b600954604051633f1e317960e11b81523360048201819052916001600160a01b031690637e3c62f29060240160206040518083038186803b1580156125c257600080fd5b505afa1580156125d6573d6000803e3d6000fd5b505050506040513d601f19601f820116820180604052508101906125fa919061365d565b6126165760405162461bcd60e51b8152600401610699906139e9565b60115461010090046001600160a01b03166126435760405162461bcd60e51b815260040161069990613aa1565b478061268c5760405162461bcd60e51b81526020600482015260186024820152772737ba1032b737bab3b41031b7b4b7103130b630b731b29760411b6044820152606401610699565b60115460405160009161010090046001600160a01b03169083908381818185875af1925050503d80600081146126de576040519150601f19603f3d011682016040523d82523d6000602084013e6126e3565b606091505b50509050806127275760405162461bcd60e51b815260206004820152601060248201526f2a3930b739b332b9103330b4b632b21760811b6044820152606401610699565b6011546040518381526101009091046001600160a01b0316907f884edad9ce6fa2440d8a54cc123490eb96d2768479d49ff9c7366125a942436490602001611c2c565b6001600160a01b03918216600090815260056020908152604080832093909416825291909152205460ff1690565b600081815260126020526040812080546001909101546001600160a01b0390911691806127c485612476565b60009586526012602052604090952060030154939592949392915050565b6000818152600260205260409020546001600160a01b03166128415760405162461bcd60e51b8152602060048201526018602482015277115490cdcc8c4e881a5b9d985b1a59081d1bdad95b88125160421b6044820152606401610699565b50565b600081815260046020526040902080546001600160a01b0319166001600160a01b038416908117909155819061287982611c39565b6001600160a01b03167f8c5be1e5ebec7d5bd14f71427d1e84f3dd0314c0f7b2291e5b200ac8c7c3b92560405160405180910390a45050565b600260065414156129055760405162461bcd60e51b815260206004820152601f60248201527f5265656e7472616e637947756172643a207265656e7472616e742063616c6c006044820152606401610699565b6002600655565b611118828260405180602001604052806000815250612d8b565b60008061293283611c39565b9050806001600160a01b0316846001600160a01b031614806129595750612959818561276a565b806124bd5750836001600160a01b0316612972846108d5565b6001600160a01b031614949350505050565b600954604051636aacbfd760e11b81526001600160a01b0380861660048301528592169063d5597fae9060240160206040518083038186803b1580156129c957600080fd5b505afa1580156129dd573d6000803e3d6000fd5b505050506040513d601f19601f82011682018060405250810190612a01919061365d565b15612a1e5760405162461bcd60e51b815260040161069990613a57565b600954604051636aacbfd760e11b81526001600160a01b0380861660048301528592169063d5597fae9060240160206040518083038186803b158015612a6357600080fd5b505afa158015612a77573d6000803e3d6000fd5b505050506040513d601f19601f82011682018060405250810190612a9b919061365d565b15612ab85760405162461bcd60e51b815260040161069990613a57565b6001600160a01b038416612b1a5760405162461bcd60e51b8152602060048201526024808201527f5472616e7366657220746f207a65726f2061646472657373206e6f7420616c6c6044820152631bddd95960e21b6064820152608401610699565b6001600160a01b038416301480612b3957506001600160a01b03851630145b612b855760405162461bcd60e51b815260206004820181905260248201527f5472616e7366657220746f20636f6e7472616374206e6f7420616c6c6f7765646044820152606401610699565b612b90858585612dbe565b5050505050565b6000818152601260205260408120600101548190612bb6576000612bd2565b600083815260126020526040902060010154612bd29042613c05565b600084815260126020526040812060020154919250612bf18284613bac565b9050600083612c065750600095945050505050565b81600d541015612c195750600d54612c1c565b50805b6000600e5482612c2c9190613bc4565b979650505050505050565b604080516001600160a01b038416602482015260448082018490528251808303909101815260649091019091526020810180516001600160e01b031663a9059cbb60e01b179052610a0d908490612f22565b816001600160a01b0316836001600160a01b03161415612ceb5760405162461bcd60e51b815260206004820152601960248201527f4552433732313a20617070726f766520746f2063616c6c6572000000000000006044820152606401610699565b6001600160a01b03838116600081815260056020908152604080832094871680845294825291829020805460ff191686151590811790915591519182527f17307eab39ab6107e8899845ad3d59bd9653f200f220920489ca2b5937696c31910160405180910390a3505050565b612d63848484612984565b612d6f84848484612ff7565b6124f75760405162461bcd60e51b815260040161069990613952565b612d958383613104565b612da26000848484612ff7565b610a0d5760405162461bcd60e51b815260040161069990613952565b826001600160a01b0316612dd182611c39565b6001600160a01b031614612df75760405162461bcd60e51b8152600401610699906139a4565b6001600160a01b038216612e595760405162461bcd60e51b8152602060048201526024808201527f4552433732313a207472616e7366657220746f20746865207a65726f206164646044820152637265737360e01b6064820152608401610699565b826001600160a01b0316612e6c82611c39565b6001600160a01b031614612e925760405162461bcd60e51b8152600401610699906139a4565b600081815260046020908152604080832080546001600160a01b03199081169091556001600160a01b0387811680865260038552838620805460001901905590871680865283862080546001019055868652600290945282852080549092168417909155905184937fddf252ad1be2c89b69c2b068fc378daa952ba7f163c4a11628f55a4df523b3ef91a4505050565b6000612f77826040518060400160405280602081526020017f5361666545524332303a206c6f772d6c6576656c2063616c6c206661696c6564815250856001600160a01b031661328f9092919063ffffffff16565b9050805160001480612f98575080806020019051810190612f98919061365d565b610a0d5760405162461bcd60e51b815260206004820152602a60248201527f5361666545524332303a204552433230206f7065726174696f6e20646964206e6044820152691bdd081cdd58d8d9595960b21b6064820152608401610699565b60006001600160a01b0384163b156130f957604051630a85bd0160e11b81526001600160a01b0385169063150b7a029061303b903390899088908890600401613817565b602060405180830381600087803b15801561305557600080fd5b505af1925050508015613085575060408051601f3d908101601f1916820190925261308291810190613697565b60015b6130df573d8080156130b3576040519150601f19603f3d011682016040523d82523d6000602084013e6130b8565b606091505b5080516130d75760405162461bcd60e51b815260040161069990613952565b805181602001fd5b6001600160e01b031916630a85bd0160e11b1490506124bd565b506001949350505050565b6001600160a01b03821661315a5760405162461bcd60e51b815260206004820181905260248201527f4552433732313a206d696e7420746f20746865207a65726f20616464726573736044820152606401610699565b6000818152600260205260409020546001600160a01b0316156131bf5760405162461bcd60e51b815260206004820152601c60248201527f4552433732313a20746f6b656e20616c7265616479206d696e746564000000006044820152606401610699565b6000818152600260205260409020546001600160a01b0316156132245760405162461bcd60e51b815260206004820152601c60248201527f4552433732313a20746f6b656e20616c7265616479206d696e746564000000006044820152606401610699565b6001600160a01b038216600081815260036020908152604080832080546001019055848352600290915280822080546001600160a01b0319168417905551839291907fddf252ad1be2c89b69c2b068fc378daa952ba7f163c4a11628f55a4df523b3ef908290a45050565b606061329e84846000856132a8565b90505b9392505050565b6060824710156133095760405162461bcd60e51b815260206004820152602660248201527f416464726573733a20696e73756666696369656e742062616c616e636520666f6044820152651c8818d85b1b60d21b6064820152608401610699565b600080866001600160a01b0316858760405161332591906137fb565b60006040518083038185875af1925050503d8060008114613362576040519150601f19603f3d011682016040523d82523d6000602084013e613367565b606091505b5091509150612c2c87838387606083156133df5782516133d8576001600160a01b0385163b6133d85760405162461bcd60e51b815260206004820152601d60248201527f416464726573733a2063616c6c20746f206e6f6e2d636f6e74726163740000006044820152606401610699565b50816124bd565b6124bd83838151156133f45781518083602001fd5b8060405162461bcd60e51b815260040161069991906138f2565b60006020828403121561342057600080fd5b81356132a181613ce0565b60006020828403121561343d57600080fd5b81516132a181613ce0565b6000806040838503121561345b57600080fd5b823561346681613ce0565b9150602083013561347681613ce0565b809150509250929050565b60008060006060848603121561349657600080fd5b83356134a181613ce0565b925060208401356134b181613ce0565b929592945050506040919091013590565b600080600080608085870312156134d857600080fd5b84356134e381613ce0565b935060208501356134f381613ce0565b925060408501359150606085013567ffffffffffffffff81111561351657600080fd5b8501601f8101871361352757600080fd5b803561353a61353582613b84565b613b53565b81815288602083850101111561354f57600080fd5b8160208401602083013760006020838301015280935050505092959194509250565b6000806040838503121561358457600080fd5b823561358f81613ce0565b9150602083013561347681613cf5565b600080604083850312156135b257600080fd5b82356135bd81613ce0565b946020939093013593505050565b600080602083850312156135de57600080fd5b823567ffffffffffffffff808211156135f657600080fd5b818501915085601f83011261360a57600080fd5b81358181111561361957600080fd5b8660208260051b850101111561362e57600080fd5b60209290920196919550909350505050565b60006020828403121561365257600080fd5b81356132a181613cf5565b60006020828403121561366f57600080fd5b81516132a181613cf5565b60006020828403121561368c57600080fd5b81356132a181613d03565b6000602082840312156136a957600080fd5b81516132a181613d03565b6000602082840312156136c657600080fd5b815167ffffffffffffffff8111156136dd57600080fd5b8201601f810184136136ee57600080fd5b80516136fc61353582613b84565b81815285602083850101111561371157600080fd5b613722826020830160208601613c1c565b95945050505050565b60006060828403121561373d57600080fd5b6040516060810181811067ffffffffffffffff8211171561376057613760613cca565b604052825161376e81613cf5565b8152602083810151908201526040928301519281019290925250919050565b60006020828403121561379f57600080fd5b5035919050565b6000602082840312156137b857600080fd5b5051919050565b600081518084526137d7816020860160208601613c1c565b601f01601f19169290920160200192915050565b8183823760009101908152919050565b6000825161380d818460208701613c1c565b9190910192915050565b6001600160a01b038581168252841660208201526040810183905260806060820181905260009061384a908301846137bf565b9695505050505050565b6001600160a01b038381168252825416602082015260018201546040820152600282015460608201526003820154608082015260a081016132a1565b6000602080830181845280855180835260408601915060408160051b870101925083870160005b828110156138e557603f198886030184526138d38583516137bf565b945092850192908501906001016138b7565b5092979650505050505050565b6020815260006132a160208301846137bf565b6020808252602d908201527f4552433732313a2063616c6c6572206973206e6f7420746f6b656e206f776e6560408201526c1c881bdc88185c1c1c9bdd9959609a1b606082015260800190565b60208082526032908201527f4552433732313a207472616e7366657220746f206e6f6e20455243373231526560408201527131b2b4bb32b91034b6b83632b6b2b73a32b960711b606082015260800190565b60208082526025908201527f4552433732313a207472616e736665722066726f6d20696e636f72726563742060408201526437bbb732b960d91b606082015260800190565b60208082526018908201527f556e7665726966696564206f776e657220616464726573730000000000000000604082015260600190565b6020808252601d908201527f416d6f756e74206d7573742062652067726561746572207468616e2030000000604082015260600190565b6020808252602a908201527f5472616e73616374696f6e2064656e6965643a206164647265737320697320626040820152691b1858dadb1a5cdd195960b21b606082015260800190565b60208082526016908201527543616e6e6f74206265206e756c6c206164647265737360501b604082015260600190565b81546001600160a01b031681526001820154602082015260028201546040820152600382015460608201526080810161083d565b6000808335601e19843603018112613b1c57600080fd5b83018035915067ffffffffffffffff821115613b3757600080fd5b602001915036819003821315613b4c57600080fd5b9250929050565b604051601f8201601f1916810167ffffffffffffffff81118282101715613b7c57613b7c613cca565b604052919050565b600067ffffffffffffffff821115613b9e57613b9e613cca565b50601f01601f191660200190565b60008219821115613bbf57613bbf613c9e565b500190565b600082613be157634e487b7160e01b600052601260045260246000fd5b500490565b6000816000190483118215151615613c0057613c00613c9e565b500290565b600082821015613c1757613c17613c9e565b500390565b60005b83811015613c37578181015183820152602001613c1f565b838111156124f75750506000910152565b600181811c90821680613c5c57607f821691505b60208210811415613c7d57634e487b7160e01b600052602260045260246000fd5b50919050565b6000600019821415613c9757613c97613c9e565b5060010190565b634e487b7160e01b600052601160045260246000fd5b634e487b7160e01b600052603260045260246000fd5b634e487b7160e01b600052604160045260246000fd5b6001600160a01b038116811461284157600080fd5b801515811461284157600080fd5b6001600160e01b03198116811461284157600080fdfea264697066735822122050060257f14fc6fcb9fe430c2de9208c3ea5bce7945d2c2c10064bcccbb58e5f64736f6c63430008070033",
  "immutableReferences": {},
  "source": "// SPDX-License-Identifier: MIT\npragma solidity ^0.8.1;\n\nimport { ReentrancyGuard } from \"@openzeppelin/contracts/security/ReentrancyGuard.sol\";\nimport { IERC20, SafeERC20 } from \"@openzeppelin/contracts/token/ERC20/utils/SafeERC20.sol\";\nimport \"@openzeppelin/contracts/token/ERC721/ERC721.sol\";\n\nimport \"./interfaces/ICFNAccessControl.sol\";\nimport \"./interfaces/IHen.sol\";\n\ncontract HenStakingV2 is ERC721, ReentrancyGuard {\n    using SafeERC20 for IERC20;\n\n    IERC20 public erc20TokenManager;\n    IHen public henManager;\n    ICFNAccessControl public accessControl;\n\n\n    uint256 public maxReward = 18250 * 1e18; //  \n    uint256 public maxHenStakingAmount = 10000; //    \n    uint256 public totalHenStakingAmount = 0;   //   \n    uint256 public maxStakingTimestamp = 365 days;   //   \n    uint256 public stakingAllowedTimestamp = 1 days; //    \n    uint256 public rewardPerStakingAllowed = 50 * 1e18; // stakingAllowedTimestamp  \n    uint256 public accWithdrawAmount = 0; //   withdraw  \n    bool public stakingActive = true;   //  (true = , false = )\n    address payable public receiveWallet; // cfn or gmmt withdraw address\n\n    mapping(uint256 => Info) public stakingInfo;\n\n    struct Info {\n        address owner;  // receipt owner\n        uint256 startTimestamp; //   \n        uint256 accStakingTimestamp; //   \n        uint256 accRewardAmount; //   \n    }\n\n    event MintHenReceipt(address indexed _owner, uint256 indexed _tokenId);\n    event StakingHenReceipt(address indexed _owner, uint256 indexed _tokenId, Info _info);\n    event WithdrawHenReceipt(address indexed _owner, uint256 indexed _tokenId, Info _info);\n    event WithdrawManagerHenReceipt(address _manager, address indexed _owner, uint256 indexed _tokenId, Info _info);\n    event UpdateReceiveWallet(address indexed wallet);\n    event UpdateAccessControl(address indexed wallet);\n    event UpdateHenManager(address indexed wallet);\n    event UpdateErc20TokenManager(address indexed wallet);\n\n    error HenReceiptError(address wallet);\n\n    constructor(\n        address _accessControl,\n        address _cfnContract,\n        address _henContract,\n        address _receiveWallet\n    ) ERC721(\"CFN Hen Staking Card V2 \", \"CFNHSCV2\") {\n        require(_cfnContract != address(0), \"Invalid ERC20 address\");\n        require(_henContract != address(0), \"Invalid ERC721 address\");\n        require(_accessControl != address(0), \"Invalid accessControl address\");\n        require(_receiveWallet != address(0), \"Invalid receiveWallet address\");\n\n        erc20TokenManager = IERC20(_cfnContract);\n        henManager = IHen(_henContract);\n        accessControl = ICFNAccessControl(_accessControl);\n        receiveWallet = payable(_receiveWallet);\n    }\n\n    modifier isBlackListWallet(address _address) {\n        require(\n            !accessControl.blackListWallet(_address),\n            \"Transaction denied: address is blacklisted\"\n        );\n        _;\n    }\n\n    modifier isWhiteListControl(address _ca) {\n        require(\n            accessControl.whiteListControlAddress(_ca),\n            \"Unverified owner address\"\n        );\n        _;\n    }\n\n    function setAccessControl(\n        address _ca\n    ) public isWhiteListControl(msg.sender) {\n        accessControl = ICFNAccessControl(_ca);\n        \n        emit UpdateAccessControl(_ca);\n    }\n\n    function setHenManager(\n        address _ca\n    ) public isWhiteListControl(msg.sender) {\n        henManager = IHen(_ca);\n        \n        emit UpdateHenManager(_ca);\n    }\n\n    function setErc20TokenManager(\n        address _ca\n    ) public isWhiteListControl(msg.sender) {\n        erc20TokenManager = IERC20(_ca);\n        \n        emit UpdateErc20TokenManager(_ca);\n    }\n\n    //    \n    function setMaxReward(uint256 _maxReward) public isWhiteListControl(msg.sender) {\n        maxReward = _maxReward;\n    }\n\n    // stakingAllowedTimestamp    \n    function setRewardPerStakingAllowed(uint256 _rewardPerStakingAllowed) public isWhiteListControl(msg.sender) {\n        rewardPerStakingAllowed = _rewardPerStakingAllowed;\n    }\n\n    //   \n    function setStakingActive(bool _stakingActive) public isWhiteListControl(msg.sender) {\n        stakingActive = _stakingActive;\n    }\n\n    //     \n    function setMaxHenStakingAmount(uint256 _maxHenStakingAmount) public isWhiteListControl(msg.sender) {\n        maxHenStakingAmount = _maxHenStakingAmount;\n    }\n\n\n    // hen staking \n    function henStaking(uint256 _tokenId) isBlackListWallet(msg.sender) public nonReentrant{\n\n        require(stakingActive, \"Hen staking is not available.\");\n        require(henManager.ownerOf(_tokenId) == msg.sender, \"Token does not exist.\");\n        require(totalHenStakingAmount < maxHenStakingAmount, \"Staking the maximum hen.\");\n        require(!henManager.info(_tokenId).isDead, \"Hen is Dead\");\n\n        henManager.transferFrom(msg.sender, address(this), _tokenId);\n        if(\n            stakingInfo[_tokenId].owner == address(0)\n        ){\n            stakingInfo[_tokenId] = Info(msg.sender, block.timestamp, 0, 0);\n            _safeMint(msg.sender, _tokenId);\n            emit MintHenReceipt(msg.sender, _tokenId);\n        }else{\n            stakingInfo[_tokenId].owner = msg.sender;\n            stakingInfo[_tokenId].startTimestamp = block.timestamp;\n            _approve(msg.sender, _tokenId);\n            super.transferFrom(address(this), msg.sender, _tokenId);\n        }\n        totalHenStakingAmount += 1;\n\n        emit StakingHenReceipt(msg.sender, _tokenId, stakingInfo[_tokenId]);\n    }\n\n    //    \n    function calculateRewardPerStakingAllowed (uint256 _tokenId) internal view returns(uint256) {\n        uint256 stakingTimestamp = stakingInfo[_tokenId].startTimestamp != 0 ? block.timestamp - stakingInfo[_tokenId].startTimestamp : 0;\n        uint256 beforeTimestamp = stakingInfo[_tokenId].accStakingTimestamp;\n        uint256 totalTimeStamp = stakingTimestamp + beforeTimestamp;\n        uint256 calculateTimestamp;\n\n        if(stakingTimestamp == 0) return 0;\n\n        if(maxStakingTimestamp < totalTimeStamp){\n            calculateTimestamp = maxStakingTimestamp;\n        }else{\n            calculateTimestamp = totalTimeStamp;\n        }\n\n        uint256 calculateDay = calculateTimestamp / stakingAllowedTimestamp;\n        return  calculateDay;\n    }\n\n    //   \n    function reward(uint256 _tokenId) public view returns(uint256){\n\n        uint256 calculateDay = calculateRewardPerStakingAllowed(_tokenId);\n        uint256 receiveAmount = calculateDay == 0 ? 0 : (calculateDay * rewardPerStakingAllowed) - stakingInfo[_tokenId].accRewardAmount;\n\n        return receiveAmount;\n    }\n\n    // hen withdraw \n    function henWithdraw(uint256 _tokenId) isBlackListWallet(msg.sender) public nonReentrant{\n        require(!henManager.info(_tokenId).isDead, \"Hen is Dead\");\n        uint256 calculateDay = calculateRewardPerStakingAllowed(_tokenId);\n        uint256 receiveAmount = reward(_tokenId);\n        Info memory prevInfo = stakingInfo[_tokenId];\n        stakingInfo[_tokenId] = Info(address(this), 0, calculateDay * stakingAllowedTimestamp, stakingInfo[_tokenId].accRewardAmount + receiveAmount);\n\n\n        super.transferFrom(prevInfo.owner, address(this), _tokenId);\n\n        henManager.transferFrom(address(this), prevInfo.owner, _tokenId);\n\n        erc20TokenManager.safeTransfer(prevInfo.owner, receiveAmount);\n        accWithdrawAmount += receiveAmount;\n\n        totalHenStakingAmount -= 1;\n\n        if(stakingInfo[_tokenId].accRewardAmount == maxReward){\n            henManager.updateIsDead(_tokenId, true);\n        }\n\n        emit WithdrawHenReceipt(prevInfo.owner, _tokenId, stakingInfo[_tokenId]);\n\n    }\n\n    //  hen withdraw \n    function henWithdrawManager(uint256 _tokenId) public isWhiteListControl(msg.sender) {\n        uint256 calculateDay = calculateRewardPerStakingAllowed(_tokenId);\n        uint256 receiveAmount = reward(_tokenId);\n        Info memory prevInfo = stakingInfo[_tokenId];\n        stakingInfo[_tokenId] = Info(address(this), 0, calculateDay * stakingAllowedTimestamp, stakingInfo[_tokenId].accRewardAmount + receiveAmount);\n\n\n        henManager.transferFrom(address(this), prevInfo.owner, _tokenId);\n        \n        erc20TokenManager.safeTransfer(prevInfo.owner, receiveAmount);\n        accWithdrawAmount += receiveAmount;\n        \n        _transfer(prevInfo.owner, address(this), _tokenId);\n        \n        totalHenStakingAmount -= 1;\n\n        if(stakingInfo[_tokenId].accRewardAmount >= maxReward){\n            henManager.updateIsDead(_tokenId, true);\n        }\n\n        emit WithdrawManagerHenReceipt(msg.sender, prevInfo.owner, _tokenId, stakingInfo[_tokenId]);\n    }\n\n    // multiCall\n    function aggregate(bytes[] calldata callDatas) public isWhiteListControl(msg.sender) returns(bytes[] memory returnData){\n        uint256 callCount = callDatas.length;\n        returnData = new bytes[](callCount);\n\n        for (uint256 i = 0; i < callCount; i++) {\n            (bool success, bytes memory data) = address(this).call(callDatas[i]);\n\n            require(success, \"Call failed\");\n            returnData[i] = data;\n        }\n    }\n\n\n    function _transfer( address _from, address _to, uint256 _tokenId) internal override isBlackListWallet(_from) isBlackListWallet(_to){\n        require(_to != address(0), \"Transfer to zero address not allowed\");\n        require(_to == address(this) || _from == address(this), \"Transfer to contract not allowed\");\n        \n        super._transfer(_from, _to, _tokenId);\n    }\n\n    event Withdraw(address indexed walletAddress, uint256 withdrawAmount);\n    event WithdrawToken(\n        address indexed walletAddress,\n        uint256 withdrawAmount,\n        address tokenContract\n    );\n\n    //   \n    function withdrawTokenAll() public isWhiteListControl(msg.sender) {\n        require(receiveWallet != address(0), \"Cannot be null address\");\n\n        uint256 tokenAmount = erc20TokenManager.balanceOf(address(this));\n        require(tokenAmount > 0, \"Amount must be greater than 0\");\n        require(tokenAmount > 0, \"Not enough token balance.\");\n\n        erc20TokenManager.transfer(receiveWallet, tokenAmount);\n\n        emit WithdrawToken(receiveWallet, tokenAmount, address(erc20TokenManager));\n    }\n\n    //    \n    function withdrawToken(\n        uint256 _amount\n    ) public isWhiteListControl(msg.sender) {\n        require(receiveWallet != address(0), \"Cannot be null address\");\n        require(_amount > 0, \"Amount must be greater than 0\");\n\n        uint256 tokenAmount = erc20TokenManager.balanceOf(address(this));\n\n        require(tokenAmount >= _amount, \"Not enough token balance.\");\n\n        erc20TokenManager.transfer(receiveWallet, _amount);\n\n        emit WithdrawToken(receiveWallet, _amount, address(erc20TokenManager));\n    }\n\n    //   \n    function withdrawCoinAll() public isWhiteListControl(msg.sender) {\n        require(receiveWallet != address(0), \"Cannot be null address\");\n\n        uint256 balance = address(this).balance;\n        require(balance > 0, \"Not enough coin balance.\");\n\n        (bool success, ) = receiveWallet.call{value: balance}(\"\");\n        require(success, \"Transfer failed.\");\n\n        emit Withdraw(receiveWallet, balance);\n    }\n\n    //    \n    function withdrawCoin(\n        uint256 _amount\n    ) public isWhiteListControl(msg.sender) {\n        require(receiveWallet != address(0), \"Cannot be null address\");\n        require(_amount > 0, \"Amount must be greater than 0\");\n\n        uint256 balance = address(this).balance;\n        require(balance >= _amount, \"Not enough coin balance.\");\n\n        (bool success, ) = receiveWallet.call{value: _amount}(\"\");\n        require(success, \"Transfer failed.\");\n\n        emit Withdraw(receiveWallet, _amount);\n    }\n\n    function setReceiveWallet(\n        address _receiveWallet\n    ) public isWhiteListControl(msg.sender) {\n        receiveWallet = payable(_receiveWallet);\n\n        emit UpdateReceiveWallet(_receiveWallet);\n    }\n\n    //    (frontend )\n    function getStakingInfo(uint256 _tokenId) public view returns(address owner, uint256 startTimestamp, uint256 receiveReward ,uint256 accRewardAmount) {\n        owner = stakingInfo[_tokenId].owner;\n        startTimestamp = stakingInfo[_tokenId].startTimestamp;\n        receiveReward = reward(_tokenId);\n        accRewardAmount = stakingInfo[_tokenId].accRewardAmount;\n    }\n\n    function tokenURI(\n        uint256 tokenId\n    ) public view virtual override returns (string memory) {\n        return henManager.tokenURI(tokenId);\n    }\n}\n",
  "sourcePath": "/Users/minki/Desktop/Codberg/cock-fight-network-contrats/contracts/cock-fight/HenStaking_v2.sol",
  "compiler": {
    "name": "solc",
    "version": "0.8.7+commit.e28d00a7.Emscripten.clang"
  },
  "schemaVersion": "3.4.16",
  "updatedAt": "2025-04-15T23:46:43.651Z",
  "devdoc": {
    "kind": "dev",
    "methods": {
      "approve(address,uint256)": {
        "details": "See {IERC721-approve}."
      },
      "balanceOf(address)": {
        "details": "See {IERC721-balanceOf}."
      },
      "getApproved(uint256)": {
        "details": "See {IERC721-getApproved}."
      },
      "isApprovedForAll(address,address)": {
        "details": "See {IERC721-isApprovedForAll}."
      },
      "name()": {
        "details": "See {IERC721Metadata-name}."
      },
      "ownerOf(uint256)": {
        "details": "See {IERC721-ownerOf}."
      },
      "safeTransferFrom(address,address,uint256)": {
        "details": "See {IERC721-safeTransferFrom}."
      },
      "safeTransferFrom(address,address,uint256,bytes)": {
        "details": "See {IERC721-safeTransferFrom}."
      },
      "setApprovalForAll(address,bool)": {
        "details": "See {IERC721-setApprovalForAll}."
      },
      "supportsInterface(bytes4)": {
        "details": "See {IERC165-supportsInterface}."
      },
      "symbol()": {
        "details": "See {IERC721Metadata-symbol}."
      },
      "tokenURI(uint256)": {
        "details": "See {IERC721Metadata-tokenURI}."
      },
      "transferFrom(address,address,uint256)": {
        "details": "See {IERC721-transferFrom}."
      }
    },
    "version": 1
  },
  "userdoc": {
    "kind": "user",
    "methods": {},
    "version": 1
  }
}