{
  "contractName": "PulletChick",
  "abi": [
    {
      "inputs": [
        {
          "internalType": "address",
          "name": "_accessControl",
          "type": "address"
        }
      ],
      "stateMutability": "nonpayable",
      "type": "constructor"
    },
    {
      "anonymous": false,
      "inputs": [
        {
          "indexed": true,
          "internalType": "address",
          "name": "owner",
          "type": "address"
        },
        {
          "indexed": true,
          "internalType": "address",
          "name": "approved",
          "type": "address"
        },
        {
          "indexed": true,
          "internalType": "uint256",
          "name": "tokenId",
          "type": "uint256"
        }
      ],
      "name": "Approval",
      "type": "event"
    },
    {
      "anonymous": false,
      "inputs": [
        {
          "indexed": true,
          "internalType": "address",
          "name": "owner",
          "type": "address"
        },
        {
          "indexed": true,
          "internalType": "address",
          "name": "operator",
          "type": "address"
        },
        {
          "indexed": false,
          "internalType": "bool",
          "name": "approved",
          "type": "bool"
        }
      ],
      "name": "ApprovalForAll",
      "type": "event"
    },
    {
      "anonymous": false,
      "inputs": [
        {
          "indexed": true,
          "internalType": "uint256",
          "name": "tokenId",
          "type": "uint256"
        },
        {
          "indexed": true,
          "internalType": "uint256",
          "name": "currentTimestamp",
          "type": "uint256"
        },
        {
          "indexed": false,
          "internalType": "uint256",
          "name": "timestamp30Days",
          "type": "uint256"
        }
      ],
      "name": "ChickGrow",
      "type": "event"
    },
    {
      "anonymous": false,
      "inputs": [
        {
          "indexed": true,
          "internalType": "uint256",
          "name": "tokenId",
          "type": "uint256"
        },
        {
          "indexed": true,
          "internalType": "address",
          "name": "ownerAddress",
          "type": "address"
        },
        {
          "indexed": false,
          "internalType": "uint256",
          "name": "datesToSubtract",
          "type": "uint256"
        }
      ],
      "name": "ChickUsingGrowItem",
      "type": "event"
    },
    {
      "anonymous": false,
      "inputs": [
        {
          "indexed": true,
          "internalType": "address",
          "name": "from",
          "type": "address"
        },
        {
          "indexed": true,
          "internalType": "address",
          "name": "to",
          "type": "address"
        },
        {
          "indexed": true,
          "internalType": "uint256",
          "name": "tokenId",
          "type": "uint256"
        }
      ],
      "name": "Transfer",
      "type": "event"
    },
    {
      "inputs": [],
      "name": "ChickGrowTime",
      "outputs": [
        {
          "internalType": "uint256",
          "name": "",
          "type": "uint256"
        }
      ],
      "stateMutability": "view",
      "type": "function"
    },
    {
      "inputs": [],
      "name": "accessControl",
      "outputs": [
        {
          "internalType": "contract ICFNAccessControl",
          "name": "",
          "type": "address"
        }
      ],
      "stateMutability": "view",
      "type": "function"
    },
    {
      "inputs": [
        {
          "internalType": "address",
          "name": "to",
          "type": "address"
        },
        {
          "internalType": "uint256",
          "name": "tokenId",
          "type": "uint256"
        }
      ],
      "name": "approve",
      "outputs": [],
      "stateMutability": "nonpayable",
      "type": "function"
    },
    {
      "inputs": [
        {
          "internalType": "address",
          "name": "owner",
          "type": "address"
        }
      ],
      "name": "balanceOf",
      "outputs": [
        {
          "internalType": "uint256",
          "name": "",
          "type": "uint256"
        }
      ],
      "stateMutability": "view",
      "type": "function"
    },
    {
      "inputs": [
        {
          "internalType": "uint256",
          "name": "tokenId",
          "type": "uint256"
        }
      ],
      "name": "getApproved",
      "outputs": [
        {
          "internalType": "address",
          "name": "",
          "type": "address"
        }
      ],
      "stateMutability": "view",
      "type": "function"
    },
    {
      "inputs": [
        {
          "internalType": "uint256",
          "name": "",
          "type": "uint256"
        }
      ],
      "name": "grow",
      "outputs": [
        {
          "internalType": "uint256",
          "name": "currentTimestamp",
          "type": "uint256"
        },
        {
          "internalType": "uint256",
          "name": "timestamp30Days",
          "type": "uint256"
        }
      ],
      "stateMutability": "view",
      "type": "function"
    },
    {
      "inputs": [
        {
          "internalType": "address",
          "name": "owner",
          "type": "address"
        },
        {
          "internalType": "address",
          "name": "operator",
          "type": "address"
        }
      ],
      "name": "isApprovedForAll",
      "outputs": [
        {
          "internalType": "bool",
          "name": "",
          "type": "bool"
        }
      ],
      "stateMutability": "view",
      "type": "function"
    },
    {
      "inputs": [],
      "name": "name",
      "outputs": [
        {
          "internalType": "string",
          "name": "",
          "type": "string"
        }
      ],
      "stateMutability": "view",
      "type": "function"
    },
    {
      "inputs": [
        {
          "internalType": "uint256",
          "name": "tokenId",
          "type": "uint256"
        }
      ],
      "name": "ownerOf",
      "outputs": [
        {
          "internalType": "address",
          "name": "",
          "type": "address"
        }
      ],
      "stateMutability": "view",
      "type": "function"
    },
    {
      "inputs": [
        {
          "internalType": "address",
          "name": "operator",
          "type": "address"
        },
        {
          "internalType": "bool",
          "name": "approved",
          "type": "bool"
        }
      ],
      "name": "setApprovalForAll",
      "outputs": [],
      "stateMutability": "nonpayable",
      "type": "function"
    },
    {
      "inputs": [
        {
          "internalType": "bytes4",
          "name": "interfaceId",
          "type": "bytes4"
        }
      ],
      "name": "supportsInterface",
      "outputs": [
        {
          "internalType": "bool",
          "name": "",
          "type": "bool"
        }
      ],
      "stateMutability": "view",
      "type": "function"
    },
    {
      "inputs": [],
      "name": "symbol",
      "outputs": [
        {
          "internalType": "string",
          "name": "",
          "type": "string"
        }
      ],
      "stateMutability": "view",
      "type": "function"
    },
    {
      "inputs": [
        {
          "internalType": "address",
          "name": "_ca",
          "type": "address"
        }
      ],
      "name": "setAccessControl",
      "outputs": [],
      "stateMutability": "nonpayable",
      "type": "function"
    },
    {
      "inputs": [],
      "name": "getUrl",
      "outputs": [
        {
          "internalType": "string",
          "name": "",
          "type": "string"
        }
      ],
      "stateMutability": "view",
      "type": "function"
    },
    {
      "inputs": [
        {
          "internalType": "string",
          "name": "_uri",
          "type": "string"
        }
      ],
      "name": "setUrl",
      "outputs": [],
      "stateMutability": "nonpayable",
      "type": "function"
    },
    {
      "inputs": [
        {
          "internalType": "uint256",
          "name": "_chickGrowTime",
          "type": "uint256"
        }
      ],
      "name": "setChickGrowTime",
      "outputs": [],
      "stateMutability": "nonpayable",
      "type": "function"
    },
    {
      "inputs": [
        {
          "internalType": "uint256",
          "name": "tokenId",
          "type": "uint256"
        },
        {
          "internalType": "address",
          "name": "ownerAddress",
          "type": "address"
        },
        {
          "internalType": "uint256",
          "name": "datesToSubtract",
          "type": "uint256"
        }
      ],
      "name": "usingGrowItem",
      "outputs": [
        {
          "internalType": "bool",
          "name": "",
          "type": "bool"
        }
      ],
      "stateMutability": "nonpayable",
      "type": "function"
    },
    {
      "inputs": [
        {
          "internalType": "uint256",
          "name": "_tokenId",
          "type": "uint256"
        }
      ],
      "name": "burn",
      "outputs": [],
      "stateMutability": "nonpayable",
      "type": "function"
    },
    {
      "inputs": [
        {
          "internalType": "address",
          "name": "_to",
          "type": "address"
        }
      ],
      "name": "mint",
      "outputs": [],
      "stateMutability": "nonpayable",
      "type": "function"
    },
    {
      "inputs": [
        {
          "internalType": "uint256",
          "name": "tokenId",
          "type": "uint256"
        }
      ],
      "name": "tokenURI",
      "outputs": [
        {
          "internalType": "string",
          "name": "",
          "type": "string"
        }
      ],
      "stateMutability": "view",
      "type": "function"
    },
    {
      "inputs": [
        {
          "internalType": "address",
          "name": "from",
          "type": "address"
        },
        {
          "internalType": "address",
          "name": "to",
          "type": "address"
        },
        {
          "internalType": "uint256",
          "name": "tokenId",
          "type": "uint256"
        }
      ],
      "name": "transferFrom",
      "outputs": [],
      "stateMutability": "nonpayable",
      "type": "function"
    },
    {
      "inputs": [
        {
          "internalType": "address",
          "name": "from",
          "type": "address"
        },
        {
          "internalType": "address",
          "name": "to",
          "type": "address"
        },
        {
          "internalType": "uint256",
          "name": "tokenId",
          "type": "uint256"
        }
      ],
      "name": "safeTransferFrom",
      "outputs": [],
      "stateMutability": "nonpayable",
      "type": "function"
    },
    {
      "inputs": [
        {
          "internalType": "address",
          "name": "from",
          "type": "address"
        },
        {
          "internalType": "address",
          "name": "to",
          "type": "address"
        },
        {
          "internalType": "uint256",
          "name": "tokenId",
          "type": "uint256"
        },
        {
          "internalType": "bytes",
          "name": "data",
          "type": "bytes"
        }
      ],
      "name": "safeTransferFrom",
      "outputs": [],
      "stateMutability": "nonpayable",
      "type": "function"
    }
  ],
  "bytecode": "0x608060405262278d00600a553480156200001857600080fd5b5060405162002283380380620022838339810160408190526200003b91620001aa565b604080518082018252601081526f43464e2050756c6c657420436869636b60801b60208083019182528351808501909452600584526443464e504360d81b908401528151919291620000909160009162000104565b508051620000a690600190602084019062000104565b50506001600655506040805160608101909152602d8082526200225660208301398051620000dd9160099160209091019062000104565b50600880546001600160a01b0319166001600160a01b039290921691909117905562000219565b8280546200011290620001dc565b90600052602060002090601f01602090048101928262000136576000855562000181565b82601f106200015157805160ff191683800117855562000181565b8280016001018555821562000181579182015b828111156200018157825182559160200191906001019062000164565b506200018f92915062000193565b5090565b5b808211156200018f576000815560010162000194565b600060208284031215620001bd57600080fd5b81516001600160a01b0381168114620001d557600080fd5b9392505050565b600181811c90821680620001f157607f821691505b602082108114156200021357634e487b7160e01b600052602260045260246000fd5b50919050565b61202d80620002296000396000f3fe608060405234801561001057600080fd5b506004361061014d5760003560e01c806342842e0e116100c35780639b7daf361161007c5780639b7daf36146102f2578063a22cb465146102fb578063b88d4fde1461030e578063c87b56dd14610321578063d6bd872714610334578063e985e9c51461033c57600080fd5b806342842e0e1461027d57806342966c68146102905780636352211e146102a35780636a627842146102b657806370a08231146102c957806395d89b41146102ea57600080fd5b806313007d551161011557806313007d55146101e257806319129e5a146101f557806323b872dd14610208578063252498a21461021b57806328531f061461022e578063298c25e31461026a57600080fd5b806301ffc9a7146101525780630491ddc31461017a57806306fdde031461018d578063081812fc146101a2578063095ea7b3146101cd575b600080fd5b610165610160366004611c7a565b610378565b60405190151581526020015b60405180910390f35b610165610188366004611d16565b6103ca565b610195610664565b6040516101719190611dc5565b6101b56101b0366004611cfd565b6106f6565b6040516001600160a01b039091168152602001610171565b6101e06101db366004611c33565b61071d565b005b6008546101b5906001600160a01b031681565b6101e0610203366004611aef565b610833565b6101e0610216366004611b44565b6108ee565b6101e0610229366004611cb4565b610a34565b61025561023c366004611cfd565b600b602052600090815260409020805460019091015482565b60408051928352602083019190915201610171565b6101e0610278366004611cfd565b610adf565b6101e061028b366004611b44565b610b7d565b6101e061029e366004611cfd565b610cbc565b6101b56102b1366004611cfd565b610cef565b6101e06102c4366004611aef565b610d4f565b6102dc6102d7366004611aef565b610eb9565b604051908152602001610171565b610195610f3f565b6102dc600a5481565b6101e0610309366004611bfc565b610f4e565b6101e061031c366004611b80565b610f5d565b61019561032f366004611cfd565b6110a5565b610195611111565b61016561034a366004611b11565b6001600160a01b03918216600090815260056020908152604080832093909416825291909152205460ff1690565b60006001600160e01b031982166380ac58cd60e01b14806103a957506001600160e01b03198216635b5e139f60e01b145b806103c457506301ffc9a760e01b6001600160e01b03198316145b92915050565b600854604051633f1e317960e11b8152336004820181905260009290916001600160a01b0390911690637e3c62f29060240160206040518083038186803b15801561041457600080fd5b505afa158015610428573d6000803e3d6000fd5b505050506040513d601f19601f8201168201806040525081019061044c9190611c5d565b6104715760405162461bcd60e51b815260040161046890611ebc565b60405180910390fd5b610479611120565b600083116104de5760405162461bcd60e51b815260206004820152602c60248201527f446174657320746f207375627472616374206d7573742062652067726561746560448201526b39103a3430b7103d32b9379760a11b6064820152608401610468565b836001600160a01b03166104f186610cef565b6001600160a01b0316146105335760405162461bcd60e51b81526020600482015260096024820152682737ba1037bbb732b960b91b6044820152606401610468565b6000858152600b60205260409020805460018201541161058a5760405162461bcd60e51b81526020600482015260126024820152712a34b6b29039b43934b7359032b93937b91760711b6044820152606401610468565b83816001015410156105f45760405162461bcd60e51b815260206004820152602d60248201527f43616e6e6f74207375627472616374206d6f7265207468616e2074686520726560448201526c36b0b4b734b733903a34b6b29760991b6064820152608401610468565b838160010160008282546106089190611f55565b90915550506040518481526001600160a01b0386169087907fa36807a2c6c33105b638669c267da6742c50e4b2fff3eed65657e71e8f09447e9060200160405180910390a3600192505061065c6001600655565b509392505050565b60606000805461067390611f6c565b80601f016020809104026020016040519081016040528092919081815260200182805461069f90611f6c565b80156106ec5780601f106106c1576101008083540402835291602001916106ec565b820191906000526020600020905b8154815290600101906020018083116106cf57829003601f168201915b5050505050905090565b60006107018261117a565b506000908152600460205260409020546001600160a01b031690565b600061072882610cef565b9050806001600160a01b0316836001600160a01b031614156107965760405162461bcd60e51b815260206004820152602160248201527f4552433732313a20617070726f76616c20746f2063757272656e74206f776e656044820152603960f91b6064820152608401610468565b336001600160a01b03821614806107b257506107b2813361034a565b6108245760405162461bcd60e51b815260206004820152603d60248201527f4552433732313a20617070726f76652063616c6c6572206973206e6f7420746f60448201527f6b656e206f776e6572206f7220617070726f76656420666f7220616c6c0000006064820152608401610468565b61082e83836111d9565b505050565b600854604051633f1e317960e11b81523360048201819052916001600160a01b031690637e3c62f29060240160206040518083038186803b15801561087757600080fd5b505afa15801561088b573d6000803e3d6000fd5b505050506040513d601f19601f820116820180604052508101906108af9190611c5d565b6108cb5760405162461bcd60e51b815260040161046890611ebc565b50600880546001600160a01b0319166001600160a01b0392909216919091179055565b600854604051636aacbfd760e11b81526001600160a01b0380861660048301528592169063d5597fae9060240160206040518083038186803b15801561093357600080fd5b505afa158015610947573d6000803e3d6000fd5b505050506040513d601f19601f8201168201806040525081019061096b9190611c5d565b156109885760405162461bcd60e51b815260040161046890611ef3565b600854604051636aacbfd760e11b81526001600160a01b0380861660048301528592169063d5597fae9060240160206040518083038186803b1580156109cd57600080fd5b505afa1580156109e1573d6000803e3d6000fd5b505050506040513d601f19601f82011682018060405250810190610a059190611c5d565b15610a225760405162461bcd60e51b815260040161046890611ef3565b610a2d858585611247565b5050505050565b600854604051633f1e317960e11b81523360048201819052916001600160a01b031690637e3c62f29060240160206040518083038186803b158015610a7857600080fd5b505afa158015610a8c573d6000803e3d6000fd5b505050506040513d601f19601f82011682018060405250810190610ab09190611c5d565b610acc5760405162461bcd60e51b815260040161046890611ebc565b815161082e9060099060208501906119c4565b600854604051633f1e317960e11b81523360048201819052916001600160a01b031690637e3c62f29060240160206040518083038186803b158015610b2357600080fd5b505afa158015610b37573d6000803e3d6000fd5b505050506040513d601f19601f82011682018060405250810190610b5b9190611c5d565b610b775760405162461bcd60e51b815260040161046890611ebc565b50600a55565b600854604051636aacbfd760e11b81526001600160a01b0380861660048301528592169063d5597fae9060240160206040518083038186803b158015610bc257600080fd5b505afa158015610bd6573d6000803e3d6000fd5b505050506040513d601f19601f82011682018060405250810190610bfa9190611c5d565b15610c175760405162461bcd60e51b815260040161046890611ef3565b600854604051636aacbfd760e11b81526001600160a01b0380861660048301528592169063d5597fae9060240160206040518083038186803b158015610c5c57600080fd5b505afa158015610c70573d6000803e3d6000fd5b505050506040513d601f19601f82011682018060405250810190610c949190611c5d565b15610cb15760405162461bcd60e51b815260040161046890611ef3565b610a2d858585611277565b610cc7335b82611292565b610ce35760405162461bcd60e51b815260040161046890611dd8565b610cec81611311565b50565b6000818152600260205260408120546001600160a01b0316806103c45760405162461bcd60e51b8152602060048201526018602482015277115490cdcc8c4e881a5b9d985b1a59081d1bdad95b88125160421b6044820152606401610468565b600854604051636aacbfd760e11b81526001600160a01b0380841660048301528392169063d5597fae9060240160206040518083038186803b158015610d9457600080fd5b505afa158015610da8573d6000803e3d6000fd5b505050506040513d601f19601f82011682018060405250810190610dcc9190611c5d565b15610de95760405162461bcd60e51b815260040161046890611ef3565b600854604051633f1e317960e11b81523360048201819052916001600160a01b031690637e3c62f29060240160206040518083038186803b158015610e2d57600080fd5b505afa158015610e41573d6000803e3d6000fd5b505050506040513d601f19601f82011682018060405250810190610e659190611c5d565b610e815760405162461bcd60e51b815260040161046890611ebc565b610e89611120565b610e97600780546001019055565b6000610ea260075490565b9050610eae84826113a6565b5061082e6001600655565b60006001600160a01b038216610f235760405162461bcd60e51b815260206004820152602960248201527f4552433732313a2061646472657373207a65726f206973206e6f7420612076616044820152683634b21037bbb732b960b91b6064820152608401610468565b506001600160a01b031660009081526003602052604090205490565b60606001805461067390611f6c565b610f59338383611432565b5050565b600854604051636aacbfd760e11b81526001600160a01b0380871660048301528692169063d5597fae9060240160206040518083038186803b158015610fa257600080fd5b505afa158015610fb6573d6000803e3d6000fd5b505050506040513d601f19601f82011682018060405250810190610fda9190611c5d565b15610ff75760405162461bcd60e51b815260040161046890611ef3565b600854604051636aacbfd760e11b81526001600160a01b0380871660048301528692169063d5597fae9060240160206040518083038186803b15801561103c57600080fd5b505afa158015611050573d6000803e3d6000fd5b505050506040513d601f19601f820116820180604052508101906110749190611c5d565b156110915760405162461bcd60e51b815260040161046890611ef3565b61109d86868686611501565b505050505050565b606060006110b283610cef565b6001600160a01b031614156111095760405162461bcd60e51b815260206004820181905260248201527f55524920717565727920666f72206e6f6e6578697374656e7420746f6b656e2e6044820152606401610468565b6103c4611539565b606061111b611539565b905090565b600260065414156111735760405162461bcd60e51b815260206004820152601f60248201527f5265656e7472616e637947756172643a207265656e7472616e742063616c6c006044820152606401610468565b6002600655565b6000818152600260205260409020546001600160a01b0316610cec5760405162461bcd60e51b8152602060048201526018602482015277115490cdcc8c4e881a5b9d985b1a59081d1bdad95b88125160421b6044820152606401610468565b600081815260046020526040902080546001600160a01b0319166001600160a01b038416908117909155819061120e82610cef565b6001600160a01b03167f8c5be1e5ebec7d5bd14f71427d1e84f3dd0314c0f7b2291e5b200ac8c7c3b92560405160405180910390a45050565b61125033610cc1565b61126c5760405162461bcd60e51b815260040161046890611dd8565b61082e838383611548565b61082e83838360405180602001604052806000815250610f5d565b60008061129e83610cef565b9050806001600160a01b0316846001600160a01b031614806112e557506001600160a01b0380821660009081526005602090815260408083209388168352929052205460ff165b806113095750836001600160a01b03166112fe846106f6565b6001600160a01b0316145b949350505050565b600061131c82610cef565b905061132782610cef565b600083815260046020908152604080832080546001600160a01b03199081169091556001600160a01b0385168085526003845282852080546000190190558785526002909352818420805490911690555192935084927fddf252ad1be2c89b69c2b068fc378daa952ba7f163c4a11628f55a4df523b3ef908390a45050565b600a5442906000906113b89083611f3d565b60408051808201825284815260208082018481526000888152600b90925292902090518155905160019091015590506113f184846116ac565b81837f92f374fb46bf76ff63600adf182ab6624da253c7751870f777bab1c58d047d228360405161142491815260200190565b60405180910390a350505050565b816001600160a01b0316836001600160a01b031614156114945760405162461bcd60e51b815260206004820152601960248201527f4552433732313a20617070726f766520746f2063616c6c6572000000000000006044820152606401610468565b6001600160a01b03838116600081815260056020908152604080832094871680845294825291829020805460ff191686151590811790915591519182527f17307eab39ab6107e8899845ad3d59bd9653f200f220920489ca2b5937696c31910160405180910390a3505050565b61150b3383611292565b6115275760405162461bcd60e51b815260040161046890611dd8565b611533848484846116c6565b50505050565b60606009805461067390611f6c565b826001600160a01b031661155b82610cef565b6001600160a01b0316146115815760405162461bcd60e51b815260040161046890611e77565b6001600160a01b0382166115e35760405162461bcd60e51b8152602060048201526024808201527f4552433732313a207472616e7366657220746f20746865207a65726f206164646044820152637265737360e01b6064820152608401610468565b826001600160a01b03166115f682610cef565b6001600160a01b03161461161c5760405162461bcd60e51b815260040161046890611e77565b600081815260046020908152604080832080546001600160a01b03199081169091556001600160a01b0387811680865260038552838620805460001901905590871680865283862080546001019055868652600290945282852080549092168417909155905184937fddf252ad1be2c89b69c2b068fc378daa952ba7f163c4a11628f55a4df523b3ef91a4505050565b610f598282604051806020016040528060008152506116f9565b6116d1848484611548565b6116dd8484848461172c565b6115335760405162461bcd60e51b815260040161046890611e25565b6117038383611839565b611710600084848461172c565b61082e5760405162461bcd60e51b815260040161046890611e25565b60006001600160a01b0384163b1561182e57604051630a85bd0160e11b81526001600160a01b0385169063150b7a0290611770903390899088908890600401611d88565b602060405180830381600087803b15801561178a57600080fd5b505af19250505080156117ba575060408051601f3d908101601f191682019092526117b791810190611c97565b60015b611814573d8080156117e8576040519150601f19603f3d011682016040523d82523d6000602084013e6117ed565b606091505b50805161180c5760405162461bcd60e51b815260040161046890611e25565b805181602001fd5b6001600160e01b031916630a85bd0160e11b149050611309565b506001949350505050565b6001600160a01b03821661188f5760405162461bcd60e51b815260206004820181905260248201527f4552433732313a206d696e7420746f20746865207a65726f20616464726573736044820152606401610468565b6000818152600260205260409020546001600160a01b0316156118f45760405162461bcd60e51b815260206004820152601c60248201527f4552433732313a20746f6b656e20616c7265616479206d696e746564000000006044820152606401610468565b6000818152600260205260409020546001600160a01b0316156119595760405162461bcd60e51b815260206004820152601c60248201527f4552433732313a20746f6b656e20616c7265616479206d696e746564000000006044820152606401610468565b6001600160a01b038216600081815260036020908152604080832080546001019055848352600290915280822080546001600160a01b0319168417905551839291907fddf252ad1be2c89b69c2b068fc378daa952ba7f163c4a11628f55a4df523b3ef908290a45050565b8280546119d090611f6c565b90600052602060002090601f0160209004810192826119f25760008555611a38565b82601f10611a0b57805160ff1916838001178555611a38565b82800160010185558215611a38579182015b82811115611a38578251825591602001919060010190611a1d565b50611a44929150611a48565b5090565b5b80821115611a445760008155600101611a49565b600067ffffffffffffffff80841115611a7857611a78611fbd565b604051601f8501601f19908116603f01168101908282118183101715611aa057611aa0611fbd565b81604052809350858152868686011115611ab957600080fd5b858560208301376000602087830101525050509392505050565b80356001600160a01b0381168114611aea57600080fd5b919050565b600060208284031215611b0157600080fd5b611b0a82611ad3565b9392505050565b60008060408385031215611b2457600080fd5b611b2d83611ad3565b9150611b3b60208401611ad3565b90509250929050565b600080600060608486031215611b5957600080fd5b611b6284611ad3565b9250611b7060208501611ad3565b9150604084013590509250925092565b60008060008060808587031215611b9657600080fd5b611b9f85611ad3565b9350611bad60208601611ad3565b925060408501359150606085013567ffffffffffffffff811115611bd057600080fd5b8501601f81018713611be157600080fd5b611bf087823560208401611a5d565b91505092959194509250565b60008060408385031215611c0f57600080fd5b611c1883611ad3565b91506020830135611c2881611fd3565b809150509250929050565b60008060408385031215611c4657600080fd5b611c4f83611ad3565b946020939093013593505050565b600060208284031215611c6f57600080fd5b8151611b0a81611fd3565b600060208284031215611c8c57600080fd5b8135611b0a81611fe1565b600060208284031215611ca957600080fd5b8151611b0a81611fe1565b600060208284031215611cc657600080fd5b813567ffffffffffffffff811115611cdd57600080fd5b8201601f81018413611cee57600080fd5b61130984823560208401611a5d565b600060208284031215611d0f57600080fd5b5035919050565b600080600060608486031215611d2b57600080fd5b83359250611b7060208501611ad3565b6000815180845260005b81811015611d6157602081850181015186830182015201611d45565b81811115611d73576000602083870101525b50601f01601f19169290920160200192915050565b6001600160a01b0385811682528416602082015260408101839052608060608201819052600090611dbb90830184611d3b565b9695505050505050565b602081526000611b0a6020830184611d3b565b6020808252602d908201527f4552433732313a2063616c6c6572206973206e6f7420746f6b656e206f776e6560408201526c1c881bdc88185c1c1c9bdd9959609a1b606082015260800190565b60208082526032908201527f4552433732313a207472616e7366657220746f206e6f6e20455243373231526560408201527131b2b4bb32b91034b6b83632b6b2b73a32b960711b606082015260800190565b60208082526025908201527f4552433732313a207472616e736665722066726f6d20696e636f72726563742060408201526437bbb732b960d91b606082015260800190565b60208082526018908201527f556e7665726966696564206f776e657220616464726573730000000000000000604082015260600190565b6020808252602a908201527f5472616e73616374696f6e2064656e6965643a206164647265737320697320626040820152691b1858dadb1a5cdd195960b21b606082015260800190565b60008219821115611f5057611f50611fa7565b500190565b600082821015611f6757611f67611fa7565b500390565b600181811c90821680611f8057607f821691505b60208210811415611fa157634e487b7160e01b600052602260045260246000fd5b50919050565b634e487b7160e01b600052601160045260246000fd5b634e487b7160e01b600052604160045260246000fd5b8015158114610cec57600080fd5b6001600160e01b031981168114610cec57600080fdfea2646970667358221220b81e8e01af7b60c157077d44da18e01ec01a1c2768648e02b6785bf1d1e9e0ad64736f6c6343000807003368747470733a2f2f696d672e63662d6e2e696f2f6a736f6e732f746573746e65742f70756c6c65742e6a736f6e",
  "immutableReferences": {},
  "source": "// SPDX-License-Identifier: MIT\npragma solidity ^0.8.1;\n\nimport \"@openzeppelin/contracts/token/ERC721/ERC721.sol\";\nimport \"@openzeppelin/contracts/utils/Counters.sol\";\nimport {ReentrancyGuard} from \"@openzeppelin/contracts/security/ReentrancyGuard.sol\";\n\nimport \"../interfaces/ICFNAccessControl.sol\";\n\ncontract PulletChick is ERC721, ReentrancyGuard {\n    using Counters for Counters.Counter;\n    using Strings for uint256;\n\n    Counters.Counter private _tokenIdCounter;\n\n    ICFNAccessControl public accessControl;\n\n    string private url;\n\n    uint256 public ChickGrowTime = 30 * 24 * 60 * 60; // day, hour, minute, second -> 30days\n\n    struct ChickGrowStruct {\n        uint256 currentTimestamp;\n        uint256 timestamp30Days;\n    }\n\n    mapping(uint256 => ChickGrowStruct) public grow;\n\n    event ChickGrow(\n        uint256 indexed tokenId,\n        uint256 indexed currentTimestamp,\n        uint256 timestamp30Days\n    );\n    event ChickUsingGrowItem(\n        uint256 indexed tokenId,\n        address indexed ownerAddress,\n        uint256 datesToSubtract\n    );\n\n    constructor(address _accessControl) ERC721(\"CFN Pullet Chick\", \"CFNPC\") {\n        url = \"https://img.cf-n.io/jsons/testnet/pullet.json\";\n        accessControl = ICFNAccessControl(_accessControl);\n    }\n\n    modifier isBlackListWallet(address _address) {\n        require(\n            !accessControl.blackListWallet(_address),\n            \"Transaction denied: address is blacklisted\"\n        );\n        _;\n    }\n\n    modifier isWhiteListControl(address _ca) {\n        require(\n            accessControl.whiteListControlAddress(_ca),\n            \"Unverified owner address\"\n        );\n        _;\n    }\n\n    function setAccessControl(\n        address _ca\n    ) public isWhiteListControl(msg.sender) {\n        accessControl = ICFNAccessControl(_ca);\n    }\n\n    function _baseURI() internal view override returns (string memory) {\n        return url;\n    }\n\n    function getUrl() public view returns (string memory) {\n        return _baseURI();\n    }\n\n    function setUrl(string memory _uri) public isWhiteListControl(msg.sender) {\n        url = _uri;\n    }\n\n    function setChickGrowTime(\n        uint256 _chickGrowTime\n    ) public isWhiteListControl(msg.sender) {\n        ChickGrowTime = _chickGrowTime;\n    }\n\n    function usingGrowItem(\n        uint256 tokenId,\n        address ownerAddress,\n        uint256 datesToSubtract\n    ) public isWhiteListControl(msg.sender) nonReentrant returns (bool) {\n        require(\n            datesToSubtract > 0,\n            \"Dates to subtract must be greater than zero.\"\n        );\n        require(ownerOf(tokenId) == ownerAddress, \"Not owner\");\n\n        ChickGrowStruct storage chickInfo = grow[tokenId];\n\n        require(\n            chickInfo.timestamp30Days > chickInfo.currentTimestamp,\n            \"Time shrink error.\"\n        );\n\n        require(\n            chickInfo.timestamp30Days >= datesToSubtract,\n            \"Cannot subtract more than the remaining time.\"\n        );\n\n        chickInfo.timestamp30Days -= datesToSubtract;\n\n        emit ChickUsingGrowItem(tokenId, ownerAddress, datesToSubtract);\n\n        return true;\n    }\n\n    function _safeMint(address _to, uint256 _tokenId) internal override {\n        uint256 currentTimestamp = block.timestamp;\n        uint256 timestamp30Days = currentTimestamp + ChickGrowTime;\n\n        grow[_tokenId] = ChickGrowStruct(currentTimestamp, timestamp30Days);\n\n        super._safeMint(_to, _tokenId);\n\n        emit ChickGrow(_tokenId, currentTimestamp, timestamp30Days);\n    }\n\n    function burn(uint256 _tokenId) public {\n        require(\n            _isApprovedOrOwner(_msgSender(), _tokenId),\n            \"ERC721: caller is not token owner or approved\"\n        );\n\n        _burn(_tokenId);\n    }\n\n    function mint(\n        address _to\n    )\n        public\n        isBlackListWallet(_to)\n        isWhiteListControl(msg.sender)\n        nonReentrant\n    {\n        _tokenIdCounter.increment();\n        uint256 tokenId = _tokenIdCounter.current();\n        _safeMint(_to, tokenId);\n    }\n\n    function tokenURI(\n        uint256 tokenId\n    ) public view virtual override returns (string memory) {\n        require(\n            ownerOf(tokenId) != address(0),\n            \"URI query for nonexistent token.\"\n        );\n        return _baseURI();\n    }\n\n    function transferFrom(\n        address from,\n        address to,\n        uint256 tokenId\n    ) public override isBlackListWallet(from) isBlackListWallet(to) {\n        super.transferFrom(from, to, tokenId);\n    }\n\n    function safeTransferFrom(\n        address from,\n        address to,\n        uint256 tokenId\n    ) public override isBlackListWallet(from) isBlackListWallet(to) {\n        super.safeTransferFrom(from, to, tokenId);\n    }\n\n    function safeTransferFrom(\n        address from,\n        address to,\n        uint256 tokenId,\n        bytes memory data\n    ) public override isBlackListWallet(from) isBlackListWallet(to) {\n        super.safeTransferFrom(from, to, tokenId, data);\n    }\n}\n",
  "sourcePath": "/Users/minki/Desktop/Codberg/cock-fight-network-contrats/contracts/cock-fight/erc721/PulletChick.sol",
  "compiler": {
    "name": "solc",
    "version": "0.8.7+commit.e28d00a7.Emscripten.clang"
  },
  "schemaVersion": "3.4.16",
  "updatedAt": "2025-04-15T23:46:43.681Z",
  "devdoc": {
    "kind": "dev",
    "methods": {
      "approve(address,uint256)": {
        "details": "See {IERC721-approve}."
      },
      "balanceOf(address)": {
        "details": "See {IERC721-balanceOf}."
      },
      "getApproved(uint256)": {
        "details": "See {IERC721-getApproved}."
      },
      "isApprovedForAll(address,address)": {
        "details": "See {IERC721-isApprovedForAll}."
      },
      "name()": {
        "details": "See {IERC721Metadata-name}."
      },
      "ownerOf(uint256)": {
        "details": "See {IERC721-ownerOf}."
      },
      "safeTransferFrom(address,address,uint256)": {
        "details": "See {IERC721-safeTransferFrom}."
      },
      "safeTransferFrom(address,address,uint256,bytes)": {
        "details": "See {IERC721-safeTransferFrom}."
      },
      "setApprovalForAll(address,bool)": {
        "details": "See {IERC721-setApprovalForAll}."
      },
      "supportsInterface(bytes4)": {
        "details": "See {IERC165-supportsInterface}."
      },
      "symbol()": {
        "details": "See {IERC721Metadata-symbol}."
      },
      "tokenURI(uint256)": {
        "details": "See {IERC721Metadata-tokenURI}."
      },
      "transferFrom(address,address,uint256)": {
        "details": "See {IERC721-transferFrom}."
      }
    },
    "version": 1
  },
  "userdoc": {
    "kind": "user",
    "methods": {},
    "version": 1
  }
}