{
  "_format": "hh-sol-artifact-1",
  "contractName": "RoyaltySubmission",
  "sourceName": "contracts/royalty/RoyaltySubmission.sol",
  "abi": [
    {
      "inputs": [
        {
          "internalType": "address",
          "name": "_royalty",
          "type": "address"
        }
      ],
      "stateMutability": "nonpayable",
      "type": "constructor"
    },
    {
      "anonymous": false,
      "inputs": [
        {
          "indexed": true,
          "internalType": "address",
          "name": "previousOwner",
          "type": "address"
        },
        {
          "indexed": true,
          "internalType": "address",
          "name": "newOwner",
          "type": "address"
        }
      ],
      "name": "OwnershipTransferred",
      "type": "event"
    },
    {
      "inputs": [],
      "name": "INTERFACE_ID_ERC1155",
      "outputs": [
        {
          "internalType": "bytes4",
          "name": "",
          "type": "bytes4"
        }
      ],
      "stateMutability": "view",
      "type": "function"
    },
    {
      "inputs": [],
      "name": "INTERFACE_ID_ERC2981",
      "outputs": [
        {
          "internalType": "bytes4",
          "name": "",
          "type": "bytes4"
        }
      ],
      "stateMutability": "view",
      "type": "function"
    },
    {
      "inputs": [],
      "name": "INTERFACE_ID_ERC721",
      "outputs": [
        {
          "internalType": "bytes4",
          "name": "",
          "type": "bytes4"
        }
      ],
      "stateMutability": "view",
      "type": "function"
    },
    {
      "inputs": [
        {
          "internalType": "address",
          "name": "collection",
          "type": "address"
        }
      ],
      "name": "checkForCollectionSubmission",
      "outputs": [
        {
          "internalType": "address",
          "name": "",
          "type": "address"
        },
        {
          "internalType": "uint8",
          "name": "",
          "type": "uint8"
        }
      ],
      "stateMutability": "view",
      "type": "function"
    },
    {
      "inputs": [],
      "name": "owner",
      "outputs": [
        {
          "internalType": "address",
          "name": "",
          "type": "address"
        }
      ],
      "stateMutability": "view",
      "type": "function"
    },
    {
      "inputs": [],
      "name": "renounceOwnership",
      "outputs": [],
      "stateMutability": "nonpayable",
      "type": "function"
    },
    {
      "inputs": [],
      "name": "royalty",
      "outputs": [
        {
          "internalType": "address",
          "name": "",
          "type": "address"
        }
      ],
      "stateMutability": "view",
      "type": "function"
    },
    {
      "inputs": [
        {
          "internalType": "address",
          "name": "newOwner",
          "type": "address"
        }
      ],
      "name": "transferOwnership",
      "outputs": [],
      "stateMutability": "nonpayable",
      "type": "function"
    },
    {
      "inputs": [
        {
          "internalType": "address",
          "name": "_owner",
          "type": "address"
        }
      ],
      "name": "updateOwnerOfRoyalty",
      "outputs": [],
      "stateMutability": "nonpayable",
      "type": "function"
    },
    {
      "inputs": [
        {
          "internalType": "uint256",
          "name": "_royaltyFeeLimit",
          "type": "uint256"
        }
      ],
      "name": "updateRoyaltyFeeLimit",
      "outputs": [],
      "stateMutability": "nonpayable",
      "type": "function"
    },
    {
      "inputs": [
        {
          "internalType": "address",
          "name": "collection",
          "type": "address"
        },
        {
          "internalType": "address",
          "name": "setter",
          "type": "address"
        },
        {
          "internalType": "address",
          "name": "receiver",
          "type": "address"
        },
        {
          "internalType": "uint256",
          "name": "fee",
          "type": "uint256"
        }
      ],
      "name": "updateRoyaltyIfAdmin",
      "outputs": [],
      "stateMutability": "nonpayable",
      "type": "function"
    },
    {
      "inputs": [
        {
          "internalType": "address",
          "name": "collection",
          "type": "address"
        },
        {
          "internalType": "address",
          "name": "setter",
          "type": "address"
        },
        {
          "internalType": "address",
          "name": "receiver",
          "type": "address"
        },
        {
          "internalType": "uint256",
          "name": "fee",
          "type": "uint256"
        }
      ],
      "name": "updateRoyaltyIfOwner",
      "outputs": [],
      "stateMutability": "nonpayable",
      "type": "function"
    },
    {
      "inputs": [
        {
          "internalType": "address",
          "name": "collection",
          "type": "address"
        },
        {
          "internalType": "address",
          "name": "setter",
          "type": "address"
        },
        {
          "internalType": "address",
          "name": "receiver",
          "type": "address"
        },
        {
          "internalType": "uint256",
          "name": "fee",
          "type": "uint256"
        }
      ],
      "name": "updateRoyaltyIfSetter",
      "outputs": [],
      "stateMutability": "nonpayable",
      "type": "function"
    },
    {
      "inputs": [
        {
          "internalType": "address",
          "name": "collection",
          "type": "address"
        },
        {
          "internalType": "address",
          "name": "setter",
          "type": "address"
        },
        {
          "internalType": "address",
          "name": "receiver",
          "type": "address"
        },
        {
          "internalType": "uint256",
          "name": "fee",
          "type": "uint256"
        }
      ],
      "name": "updateRoyaltyInfo",
      "outputs": [],
      "stateMutability": "nonpayable",
      "type": "function"
    }
  ],
  "bytecode": "0x60a060405234801561001057600080fd5b5060405161155d38038061155d83398101604081905261002f91610099565b61003833610049565b6001600160a01b03166080526100c9565b600080546001600160a01b038381166001600160a01b0319831681178455604051919092169283917f8be0079c531659141344cd1fd0a4f28419497f9722a3daafe3b4186f6b6457e09190a35050565b6000602082840312156100ab57600080fd5b81516001600160a01b03811681146100c257600080fd5b9392505050565b6080516114486101156000396000818161011c01528181610338015281816103e7015281816108d90152818161096501528181610ab201528181610c180152610f8d01526114486000f3fe608060405234801561001057600080fd5b50600436106100ea5760003560e01c8063b060dd861161008c578063b973532111610066578063b973532114610246578063bc6bc0cd14610259578063f2fde38b14610280578063fa7149601461029357600080fd5b8063b060dd86146101f9578063b821217714610220578063b9223c9d1461023357600080fd5b806333bf6156116100c857806333bf6156146101685780634af112b7146101c0578063715018a6146101d35780638da5cb5b146101db57600080fd5b80630eecf97b146100ef57806312b89cd11461010457806329ee566c14610117575b600080fd5b6101026100fd366004611302565b6102d4565b005b610102610112366004611353565b61039a565b61013e7f000000000000000000000000000000000000000000000000000000000000000081565b60405173ffffffffffffffffffffffffffffffffffffffff90911681526020015b60405180910390f35b61018f7fd9b67a260000000000000000000000000000000000000000000000000000000081565b6040517fffffffff00000000000000000000000000000000000000000000000000000000909116815260200161015f565b6101026101ce366004611302565b610447565b610102610676565b60005473ffffffffffffffffffffffffffffffffffffffff1661013e565b61018f7f2a55205a0000000000000000000000000000000000000000000000000000000081565b61010261022e366004611302565b61068a565b610102610241366004611377565b6108a2565b610102610254366004611302565b61091d565b61018f7f80ac58cd0000000000000000000000000000000000000000000000000000000081565b61010261028e366004611353565b610b15565b6102a66102a1366004611353565b610bcc565b6040805173ffffffffffffffffffffffffffffffffffffffff909316835260ff90911660208301520161015f565b6102dc610ec4565b6040517f0eecf97b00000000000000000000000000000000000000000000000000000000815273ffffffffffffffffffffffffffffffffffffffff858116600483015284811660248301528381166044830152606482018390527f00000000000000000000000000000000000000000000000000000000000000001690630eecf97b90608401600060405180830381600087803b15801561037c57600080fd5b505af1158015610390573d6000803e3d6000fd5b5050505050505050565b6103a2610ec4565b6040517ff2fde38b00000000000000000000000000000000000000000000000000000000815273ffffffffffffffffffffffffffffffffffffffff82811660048301527f0000000000000000000000000000000000000000000000000000000000000000169063f2fde38b906024015b600060405180830381600087803b15801561042c57600080fd5b505af1158015610440573d6000803e3d6000fd5b5050505050565b6040517f01ffc9a70000000000000000000000000000000000000000000000000000000081527f2a55205a00000000000000000000000000000000000000000000000000000000600482015273ffffffffffffffffffffffffffffffffffffffff8516906301ffc9a790602401602060405180830381865afa1580156104d1573d6000803e3d6000fd5b505050506040513d601f19601f820116820180604052508101906104f59190611390565b15610561576040517f08c379a000000000000000000000000000000000000000000000000000000000815260206004820152601160248201527f416c726561647920537570706f7274656400000000000000000000000000000060448201526064015b60405180910390fd5b8373ffffffffffffffffffffffffffffffffffffffff16638da5cb5b6040518163ffffffff1660e01b8152600401602060405180830381865afa1580156105ac573d6000803e3d6000fd5b505050506040513d601f19601f820116820180604052508101906105d091906113b2565b73ffffffffffffffffffffffffffffffffffffffff163373ffffffffffffffffffffffffffffffffffffffff1614610664576040517f08c379a000000000000000000000000000000000000000000000000000000000815260206004820152600960248201527f4e6f74204f776e657200000000000000000000000000000000000000000000006044820152606401610558565b61067084848484610f45565b50505050565b61067e610ec4565b610688600061126b565b565b6040517f01ffc9a70000000000000000000000000000000000000000000000000000000081527f2a55205a00000000000000000000000000000000000000000000000000000000600482015273ffffffffffffffffffffffffffffffffffffffff8516906301ffc9a790602401602060405180830381865afa158015610714573d6000803e3d6000fd5b505050506040513d601f19601f820116820180604052508101906107389190611390565b1561079f576040517f08c379a000000000000000000000000000000000000000000000000000000000815260206004820152601160248201527f416c726561647920537570706f727465640000000000000000000000000000006044820152606401610558565b8373ffffffffffffffffffffffffffffffffffffffff1663f851a4406040518163ffffffff1660e01b8152600401602060405180830381865afa1580156107ea573d6000803e3d6000fd5b505050506040513d601f19601f8201168201806040525081019061080e91906113b2565b73ffffffffffffffffffffffffffffffffffffffff163373ffffffffffffffffffffffffffffffffffffffff1614610664576040517f08c379a000000000000000000000000000000000000000000000000000000000815260206004820152600960248201527f4e6f742041646d696e00000000000000000000000000000000000000000000006044820152606401610558565b6108aa610ec4565b6040517fb9223c9d000000000000000000000000000000000000000000000000000000008152600481018290527f000000000000000000000000000000000000000000000000000000000000000073ffffffffffffffffffffffffffffffffffffffff169063b9223c9d90602401610412565b6040517f2adc45e800000000000000000000000000000000000000000000000000000000815273ffffffffffffffffffffffffffffffffffffffff85811660048301526000917f000000000000000000000000000000000000000000000000000000000000000090911690632adc45e890602401606060405180830381865afa1580156109ae573d6000803e3d6000fd5b505050506040513d601f19601f820116820180604052508101906109d291906113cf565b50909150503373ffffffffffffffffffffffffffffffffffffffff821614610a56576040517f08c379a000000000000000000000000000000000000000000000000000000000815260206004820152600e60248201527f4e6f7420746865205365747465720000000000000000000000000000000000006044820152606401610558565b6040517f0eecf97b00000000000000000000000000000000000000000000000000000000815273ffffffffffffffffffffffffffffffffffffffff868116600483015285811660248301528481166044830152606482018490527f00000000000000000000000000000000000000000000000000000000000000001690630eecf97b90608401600060405180830381600087803b158015610af657600080fd5b505af1158015610b0a573d6000803e3d6000fd5b505050505050505050565b610b1d610ec4565b73ffffffffffffffffffffffffffffffffffffffff8116610bc0576040517f08c379a000000000000000000000000000000000000000000000000000000000815260206004820152602660248201527f4f776e61626c653a206e6577206f776e657220697320746865207a65726f206160448201527f64647265737300000000000000000000000000000000000000000000000000006064820152608401610558565b610bc98161126b565b50565b6040517f2adc45e800000000000000000000000000000000000000000000000000000000815273ffffffffffffffffffffffffffffffffffffffff8281166004830152600091829182917f000000000000000000000000000000000000000000000000000000000000000090911690632adc45e890602401606060405180830381865afa158015610c61573d6000803e3d6000fd5b505050506040513d601f19601f82011682018060405250810190610c8591906113cf565b509091505073ffffffffffffffffffffffffffffffffffffffff811615610cb0579360009350915050565b6040517f01ffc9a70000000000000000000000000000000000000000000000000000000081527f2a55205a00000000000000000000000000000000000000000000000000000000600482015273ffffffffffffffffffffffffffffffffffffffff8516906301ffc9a790602401602060405180830381865afa925050508015610d74575060408051601f3d9081017fffffffffffffffffffffffffffffffffffffffffffffffffffffffffffffffe0168201909252610d7191810190611390565b60015b15610d8f578015610d8d57506000946001945092505050565b505b8373ffffffffffffffffffffffffffffffffffffffff16638da5cb5b6040518163ffffffff1660e01b8152600401602060405180830381865afa925050508015610e14575060408051601f3d9081017fffffffffffffffffffffffffffffffffffffffffffffffffffffffffffffffe0168201909252610e11918101906113b2565b60015b610eb9578373ffffffffffffffffffffffffffffffffffffffff1663f851a4406040518163ffffffff1660e01b8152600401602060405180830381865afa925050508015610e9d575060408051601f3d9081017fffffffffffffffffffffffffffffffffffffffffffffffffffffffffffffffe0168201909252610e9a918101906113b2565b60015b610eae575060009360049350915050565b946003945092505050565b946002945092505050565b60005473ffffffffffffffffffffffffffffffffffffffff163314610688576040517f08c379a000000000000000000000000000000000000000000000000000000000815260206004820181905260248201527f4f776e61626c653a2063616c6c6572206973206e6f7420746865206f776e65726044820152606401610558565b6040517f2adc45e800000000000000000000000000000000000000000000000000000000815273ffffffffffffffffffffffffffffffffffffffff85811660048301526000917f000000000000000000000000000000000000000000000000000000000000000090911690632adc45e890602401606060405180830381865afa158015610fd6573d6000803e3d6000fd5b505050506040513d601f19601f82011682018060405250810190610ffa91906113cf565b509091505073ffffffffffffffffffffffffffffffffffffffff81161561107d576040517f08c379a000000000000000000000000000000000000000000000000000000000815260206004820152601960248201527f416c72656164792052656769737420636f6c6c656374696f6e000000000000006044820152606401610558565b6040517f01ffc9a70000000000000000000000000000000000000000000000000000000081527f80ac58cd00000000000000000000000000000000000000000000000000000000600482015273ffffffffffffffffffffffffffffffffffffffff8616906301ffc9a790602401602060405180830381865afa158015611107573d6000803e3d6000fd5b505050506040513d601f19601f8201168201806040525081019061112b9190611390565b806111df57506040517f01ffc9a70000000000000000000000000000000000000000000000000000000081527fd9b67a2600000000000000000000000000000000000000000000000000000000600482015273ffffffffffffffffffffffffffffffffffffffff8616906301ffc9a790602401602060405180830381865afa1580156111bb573d6000803e3d6000fd5b505050506040513d601f19601f820116820180604052508101906111df9190611390565b610a56576040517f08c379a000000000000000000000000000000000000000000000000000000000815260206004820152602560248201527f5468697320636f6c6c656374696f6e206973206e6f74204552433732312f455260448201527f43313135350000000000000000000000000000000000000000000000000000006064820152608401610558565b6000805473ffffffffffffffffffffffffffffffffffffffff8381167fffffffffffffffffffffffff0000000000000000000000000000000000000000831681178455604051919092169283917f8be0079c531659141344cd1fd0a4f28419497f9722a3daafe3b4186f6b6457e09190a35050565b73ffffffffffffffffffffffffffffffffffffffff81168114610bc957600080fd5b6000806000806080858703121561131857600080fd5b8435611323816112e0565b93506020850135611333816112e0565b92506040850135611343816112e0565b9396929550929360600135925050565b60006020828403121561136557600080fd5b8135611370816112e0565b9392505050565b60006020828403121561138957600080fd5b5035919050565b6000602082840312156113a257600080fd5b8151801515811461137057600080fd5b6000602082840312156113c457600080fd5b8151611370816112e0565b6000806000606084860312156113e457600080fd5b83516113ef816112e0565b6020850151909350611400816112e0565b8092505060408401519050925092509256fea26469706673582212202cdaa73689d4fbe5570a9a81cb7c963bceaba012af068eff987bde73efb762f164736f6c63430008110033",
  "linkReferences": {},
  "deployedLinkReferences": {}
}